:020000040100F9
:1020000000000430592000014B2A000101418000EA
:10201000492A0001FD2100014D2B000100000000B4
:1020200000000000000000000000000015418000DA
:10203000FF21000100000000812A0001872A000121
:10204000DFF810D000F036FC00F08AF800480047B6
:102050009DD6000100000430014880470148004738
:102060001D2B0001BDD600012DE9F05F05460020C3
:1020700092469B4688460646814640241BE02846F9
:1020800041464746224600F0D2FA53465A46C01A05
:10209000914110D311461846224600F0A0F82D1A9F
:1020A00067EB01084F4622460120002100F097F817
:1020B00017EB00094E41201EA4F10104DFDC484665
:1020C00031462A464346BDE8F09F00000649074ACC
:1020D0000868504343F239021044086040087047D2
:1020E0000149086070470000788200306D4EC6419B
:1020F00040EA01039B0703D009E008C9121F08C08A
:10210000042AFAD203E011F8013B00F8013B521E09
:10211000F9D27047D2B201E000F8012B491EFBD280
:1021200070470022F6E710B513460A4604461946E2
:10213000FFF7F0FF204610BD421C10F8011B0029DC
:10214000FBD1801A704730B504460020034600E0FA
:102150005B1C934203D2E05CCD5C401BF8D030BDE9
:1021600070B5054C054D03E0206820448047241DD0
:10217000AC42F9D170BD0000B41F0101B81F0101CC
:102180000EB540F2334102910021CDE900110A461B
:102190000B4600F0B4FA03B000BD0EB540F2334276
:1021A00002920022CDE90022134600F0A8FA03B003
:1021B00000BD20F00040C20DC0F3160040F4000046
:1021C0007F2A02DA0020014670470021962A03DCAC
:1021D000C2F19602D0407047963AAFF30080202AB1
:1021E00004DB203A00FA02F1002070479140C2F16E
:1021F000200320FA03F3194390407047FEE7FEE7FF
:1022000058585247010000001555000000200001F9
:10221000002000016EED52490101000000000000A5
:1022200000000000000000000000000000000000AE
:10223000000000000000000000000000000000009E
:1022400043F6512CC3F2000C60472DE9FE4F804647
:1022500081EA0300C00F0C46009021F0004123F0FA
:102260000045B8EB0200A94105D240462146904600
:102270001C460B46024623F00040104347D0270D72
:10228000C7F30A00C3F30A510290401A0190402894
:102290006BDAC3F3130040F4801B0098924620B120
:1022A0000023D2EB030A63EB0B0B01985946C0F1F4
:1022B00040025046FFF793FF06460D4650465946EA
:1022C000019A00F0C4F910EB08006141002487EA8C
:1022D000115284EAE7731A4340D0009A62B3019A1C
:1022E000012A4FEA075215DC001B61EB02014FF097
:1022F000004202EA0752CDE90042001C41F580117C
:1023000032462B4600F0FBF903B0BDE8F08F4046A3
:102310002146F9E7001B61EB0201001C41F5801327
:1023200000185B412018A2F5001747EB030140EAB3
:10233000D570B6196D4111E06D084FEA360645EAD1
:10234000C0754FEA0752001B61EB0201001C41F50A
:10235000801149084FEA30000019514132462B469E
:1023600003B0BDE8F04F00F0BBB900980122400077
:102370000023D0EB020263EBE073009821464FEAA2
:10238000E074B8EB000061EB0401E9E783F000437F
:102390005BE781F0004158E72DE9FE4F81EA030435
:1023A00004F0004421F0004100944FF0000B23F0B2
:1023B000004350EA01045ED052EA03045BD0C3F349
:1023C0000A54C1F30A552C44A4F2F3340194A0FB3F
:1023D0000254C1F3130141F48011C3F3130343F416
:1023E000801301FB024400FB034E840A970A44EA6F
:1023F000815447EA8357A4FB076802958D0A05FBC1
:1024000007854FEA932C04FB0C542705029D4FEAE5
:10241000065847EA1637B5EB08056EEB070C870E32
:10242000920E47EA811742EA8312A7FB0201B6EB3C
:102430000B0164EB00042B0D43EA0C335E1844EBF4
:102440001C50DA465146E7FB0201C5F313044FEA7C
:102450000B3343EA14534FEA0432019C43EA060368
:10246000A4F10C040294009CCDE900B400F047F9FB
:1024700003B0BDE8F08F00200146F9E72DE9F04DEB
:1024800081EA030404F0004B21F0004514464FF0AC
:10249000000A23F0004150EA050220D054EA01026C
:1024A0001DD0C5F30A570246C5F31303C1F3130049
:1024B000C1F30A5640F4801543F48013A7EB0608D5
:1024C000101BD64608F2FD3873EB050002D308F165
:1024D000010801E092185B41B8F1000F03DA002017
:1024E0000146BDE8F08D00204FF480110646844679
:1024F0000EE0171B73EB050705D3121B63EB0503F7
:1025000006434CEA010C49084FEA300092185B413F
:1025100050EA0107EDD152EA030012D082EA04002A
:1025200083EA0501084305D0101BAB4106D2012206
:10253000002306E000224FF0004302E06FF00102AA
:1025400053101AEB06004CEB085110EB0A0041EB5C
:102550000B01BDE8F04D00F0C3B870B5C1F30A52ED
:1025600001F000450024C1F3130140F2FF3341F4B0
:1025700080119A4201DA002070BD40F233439A4242
:10258000A2F2334203DC524200F051F800E09040E6
:102590002C43F1D0404270BDC1F30A5210B5C1F3D3
:1025A000130140F2FF3341F480119A4201DA002016
:1025B00010BD40F233439A42A2F2334203DC52424E
:1025C00000F035F810BD904010BD01F0004330B46C
:1025D00021F0004150EA010206D00A0DA2F5607216
:1025E000C1F31301002A02DC30BC00207047440F05
:1025F00044EAC104C100E01830BC00EBC25000F056
:1026000038B830B50B46014600202022012409E0ED
:1026100021FA02F59D4205D303FA02F5491B04FA9B
:1026200002F52844151EA2F10102F1DC30BD202A7A
:1026300004DB203A21FA02F00021704721FA02F36C
:10264000D040C2F120029140084319467047202A29
:1026500006DBCB17203A41FA02F043EAE07306E0CA
:1026600041FA02F3D040C2F12002914008431946DA
:1026700070470029A8BF7047401C490008BF20F0E0
:102680000100704710B4B0FA80FC00FA0CF050EA78
:10269000010404BF10BC704749B1CCF1200421FAF9
:1026A00004F411FA0CF118BF012121430843A3EBF4
:1026B0000C01CB1D4FEA00614FEA102042BF002001
:1026C00010BC704700EBC35010440029A4BF10BCDD
:1026D0007047401C490008BF20F0010010BC704743
:1026E00010B5141E73F1000408DA401C41F100011A
:1026F00092185B411A4301D120F0010010BD2DE971
:10270000F04D92469B4611B1B1FA81F202E0B0FA67
:1027100080F220329046FFF762FD04460F4640EA01
:102720000A0041EA0B0153465A46084313D01146AA
:1027300053EA010019D0C8F140025046FFF777FF75
:1027400005460E46504659464246FFF748FD0843A7
:1027500005D0012004E020463946BDE8F08D002078
:10276000054346EAE0762C4337430A986305E40ABA
:10277000A0EB08000022FD0A44EA47540A3002D5C3
:1027800000200146E9E7010510196941DDE9084526
:1027900000196941BDE8F04DA2E700002DE9F041C4
:1027A000054621F000400C46284309D0C4F30A50E6
:1027B00040F23341884205DD28462146BDE8F081DC
:1027C0002846FBE740F2FE31884210DC0CDB4FEA82
:1027D000043040EA155050EA053105D0104804F0A5
:1027E000004101430020E9E700200146E6E7A0F2AE
:1027F00033404642C6F1400228462146FFF7EFFC2F
:1028000007468846284621463246FFF710FF4346D2
:102810003A46FFF765FF3246BDE8F041FFF7DFBCFF
:102820000000F03FC1F30A52C1F3130140F2FF333D
:1028300041F480119A4202DA00200146704740F2CA
:1028400033439A42A2F2334202DC5242FFF7EFBE18
:10285000FFF7C5BC30B5041E71F1000404DB4FF076
:102860000044404264EB0101141E73F1000405DBD7
:102870001C464FF00043524263EB04038B4208BFF7
:10288000824230BD30B5041E71F1000404DB4FF00C
:102890000044404264EB0101141E73F1000405DBA7
:1028A0001C464FF00043524263EB0403994208BFB9
:1028B000904230BD064C074D06E0E06840F0010351
:1028C00094E8070098471034AC42F6D3FFF7BCFBFE
:1028D000641F0101B41F010170B58C1810F8015B71
:1028E00015F0070301D110F8013B2A1106D110F8A9
:1028F000012B03E010F8016B01F8016B5B1EF9D1AD
:102900002B0705D40023521E0DD401F8013BFAE732
:1029100010F8013BCB1A921C03E013F8015B01F89D
:10292000015B521EF9D5A142D8D3002070BD000032
:1029300010B51E480068002800D080471C480021C0
:102940000170881E1B490860192000F07AF91A4CA2
:10295000D4F8C002800704D4F42218A11CA004F407
:10296000A1F72A480168D4F8C40261F31D3040F091
:102970000100C4F8C40204F4B1F000214FF030406B
:10298000C1608161C1174161016204F463F00948CB
:102990004038016821F4800101601D48006800286A
:1029A00002D0BDE81040004710BD00006024800048
:1029B0007C81003044C500A000E000A072776970FF
:1029C0005F736C6565705F636F6D6D6F6E2E630016
:1029D0004D43555F5355422D3E424C455F44534C49
:1029E0004545505F434F52525F454E2026204D4390
:1029F000555F5355425F424C455F44534C454550EB
:102A00005F434F52525F48575F454E005424800049
:102A10006424800010B500214FF03040C160816116
:102A2000C11741610162022000F036F9BDE8104093
:102A3000012000F031B910B5012000F002F9BDE825
:102A40001040012000F028B9FEE7FEE730B500F0A5
:102A50000703C3F10704082C00D9082403F1080078
:102A6000072801D2002300E05B1C012505FA04F0D1
:102A7000401E084098409D406D1E1540284330BDC3
:102A8000FEE71BF42993FEE70249096801F00701FC
:102A90000170704704C500A030B4062821D2124945
:102AA0000A6802F00702824212D00A680F4B1A40ED
:102AB0000F4C22430A6000BF00BF00BF00BF0A687E
:102AC0001A400C4B024333F8203042EA83420A603A
:102AD0000849183951F820000749886030BC76F45D
:102AE000899230BC7047000004C500A0F8FFE3FFE6
:102AF00005000800FC080101007A00300448006865
:102B0000044900F0070051F820000349886070472D
:102B100004C500A0E4080101007A00300248016801
:102B200041F470010160704788ED00E002480068E0
:102B3000001D1EF491950000CC7B003002484068D7
:102B4000001D1EF489950000CC7B0030FEE70000DC
:102B50000FB4054B10B503A9044A029800F0B8FA67
:102B600010BC5DF814FB0000456F0001EC7B0030E9
:102B70000FB41CB50246002007AC00290BD0491E3B
:102B8000CDE90021054B6A462146069800F0A0FADF
:102B9000009A002111701CBC5DF814FBFF37000186
:102BA0000FB4084B10B504A902AA039800F090FADC
:102BB000044602A9002000F02DFE204610BC5DF85E
:102BC00014FB0000153800017CB5044600201D46AA
:102BD000164600290BD0491ECDE90041044B6A4638
:102BE0002946304600F074FA009A002111707CBD2D
:102BF000FF370001002809DB00F01F02012191408E
:102C00004009800000F1E020C0F8801270470028E1
:102C100009DB00F01F02012191404009800000F112
:102C2000E020C0F880127047002809DB00F01F0286
:102C3000012191404009800000F1E020C0F880129D
:102C40007047002809DB00F01F0201219140400974
:102C5000800000F1E020C0F880127047002809DBF6
:102C600000F01F02012191404009800000F1E020A6
:102C7000C0F88012704700280DDB00F01F02012110
:102C800091404009800000F1E020C0F88011BFF3BE
:102C90004F8FBFF36F8F704700280DDB00F01F02CE
:102CA000012191404009800000F1E020C0F880112E
:102CB000BFF34F8FBFF36F8F7047002809DB00F021
:102CC0001F02012191404009800000F1E020C0F87E
:102CD00000117047002809DB00F01F02012191401C
:102CE0004009800000F1E020C0F800117047002882
:102CF0000FDB4109890001F1E021D1F8001200F059
:102D00001F0201209040014201D0012070470020A5
:102D100070470020704700280FDB4109890001F14E
:102D2000E021D1F8001200F01F0201209040014282
:102D300001D0012070470020704700207047002814
:102D40000FDB4109890001F1E021D1F8001200F008
:102D50001F0201209040014201D001207047002055
:102D6000704700207047002804DB00F1E02090F855
:102D70000004704700F00F0000F1E02090F8140DFF
:102D80007047002804DB00F1E02090F80004704751
:102D900000F00F0000F1E02090F8140D70470028BB
:102DA00004DB00F1E02090F80004704700F00F0011
:102DB00000F1E02090F8140D704700000248006810
:102DC000C0F30220704700000CED00E002480068EC
:102DD000C0F30220704700000CED00E002480068DC
:102DE000C0F30220704700000CED00E0002809DB72
:102DF00000F01F02012191404009800000F1E02015
:102E0000C0F800127047002809DB00F01F02012102
:102E100091404009800000F1E020C0F800127047A6
:102E2000C9B2002804DB00F1E02080F800147047EC
:102E300000F00F0000F1E02080F8141D7047EFF360
:102E4000108070470000000010B52DED020B2DED35
:102E5000088B84B09DED0C0B51EC100BFFF79EFC22
:102E600041EC180B9DED0C0B53EC182B51EC100B97
:102E7000FFF78CFA41EC190B0D989FED290B10F020
:102E8000004F53EC102B51EC190B9FED21AB9FED34
:102E900022BB0ED0FFF7DEFC0ED953EC1B2B51ECFE
:102EA000190BFFF7EFFC1CD214E000BF41EC180B2C
:102EB00017E0FFF7CFFC06D253EC1A2B51EC180B9E
:102EC000FFF764FAF2E753EC1B2B51EC190BFFF7F9
:102ED000D9FC06D853EC1A2B51EC180BFFF7B5F9B7
:102EE000E4E78DED028B9DED0C0B18EE901A10EEC1
:102EF000900A8DED000B61F31E0003909DED020B17
:102F000004B0BDEC088B02B010BD00000000000052
:102F1000000000000000F03F000000000000E03F63
:102F2000000000000000E0BF02E008C8121F08C156
:102F3000002AFAD170477047002001E001C1121F3A
:102F4000002AFBD1704780F3108870472DE9FF5F9E
:102F500082B00021DDE90430020DDDF840B003430A
:102F600018D044F61050A2F2FF32424315141198C3
:102F700001281FD0A5EB0B00401C5FEA000A4FF0B0
:102F800000064E4FDFF83891B046504615D5CAF1CD
:102F9000000413E0119801244AA3012801D16FEA2B
:102FA0000B010298119AC0E90031C0E9024206B053
:102FB000BDE8F09FCBF10000DFE704460021404A66
:102FC000491842EB0450CDE9001012E0E00707D0A9
:102FD00032463B4640464946FFF7DEF98046894681
:102FE00032463B4610461946FFF7D6F906460F46CD
:102FF0006410002CEAD1DDE90401DDE90023BAF117
:10300000000F06DAFFF7C8F942464B46FFF7C4F94E
:1030100005E0FFF733FA42464B46FFF72FFA044626
:103020000E460022284BFFF72DFC03D84FF0FF304F
:10303000014607E00022254B20463146FFF705F9FF
:10304000FFF7F0FB102409E0002C0ADB0A22002322
:10305000FFF70AF8039B30321A55641E50EA01024A
:10306000F2D1641C039AC4F111031444119A012A89
:1030700003D0012208430DD10AE0084304D0002008
:103080004FF0110B119072E7A3EB0B056D1E0DE0D5
:103090005B4504DD4FF0000205F1010504E003DAB1
:1030A0004FF00002A5F10105002AECD00298119919
:1030B000C0E90231C0E9004579E700000000144092
:1030C0000000F03F300000000000F0430000E03F4F
:1030D0002DE9FF4F95B09B468946064600250FE235
:1030E000252877D100242746F84A0121059400E0DD
:1030F000044316F8013F203B01FA03F01042F7D1D8
:1031000030782A2811D06FF02F033078A0F13002E8
:10311000092A16D8059A44F0020402EB820203EB56
:1031200042021044761C0590EFE759F8042B0592F3
:10313000002A03DA504244F40054059044F002049B
:10314000761C30782E2816D116F8010F44F00404AE
:103150002A280DD06FF02F023078A0F13003092B10
:1031600009D807EB870302EB4303C718761CF3E784
:1031700059F8047B761C30786C280FD006DC4C287C
:1031800017D068280DD06A2814D104E0742810D014
:103190007A280FD10DE044F400140AE044F48014BE
:1031A00001E044F440147278824202D104F58014A4
:1031B000761C761C307866280BD013DC582877D024
:1031C00009DC002875D04528F6D04628F4D04728D9
:1031D0001AD19DE118E0632835D0642879D065289C
:1031E00012D195E1702873D008DC6728F1D06928E6
:1031F0006FD06E280DD06F2806D1B5E073282CD083
:10320000752875D0782874D05A46179990476D1C48
:1032100075E1C4F30250022809D003280DD0D9F873
:10322000001004280DD00D6009F1040967E1D9F8F8
:103230000010EA17C1E90052F6E7D9F800100D8036
:10324000F2E70D70F0E719F8041B8DF8001000206C
:103250008DF80100EA46012003E059F804AB4FF075
:10326000FF3061074FF0000102D40DE008F10101C9
:103270008846B9420FDA8045F8DB1AF808100029B1
:10328000F4D108E008F1010188468142FADB1AF81E
:1032900008100029F6D105985B46A0EB08072146E7
:1032A0003846179A00F094FA284400EB080507E026
:1032B0004DE029E10DE01AF8010B5A4617999047A5
:1032C000B8F10108F7D25B4621463846179A13E158
:1032D00042E00A220092C4F302524FF0000A022A8E
:1032E00008D059F804CB032A4FEAEC710AD00DE05C
:1032F00029E02AE009F1070121F00702F2E802C102
:10330000914609E00FFA8CFC4FEAEC71042A03D1D4
:103310004FFA8CFC4FEAEC71002907DA0A460021CB
:10332000DCF1000C61EB02012D2202E0220504D544
:103330002B228DF80420012203E0E20701D0202295
:10334000F7E7904659E00A2102E010220DE0102133
:103350004FF0000A00910BE010224FF0000A44F0F9
:1033600004040827009203E008224FF0000A0092AC
:10337000C4F30252022A05D059F804CB0021032AD3
:1033800008D009E009F1070121F00702F2E802C1C3
:10339000914605E01FFA8CFC042A01D10CF0FF0CC9
:1033A0004FF00008220728D5702806D0009B83F034
:1033B000100353EA0A0305D00EE040228DF80420E2
:1033C000012208E05CEA010206D030228DF80420D8
:1033D0008DF8050002229046009B83F0080353EA13
:1033E0000A030AD15CEA010201D1620705D5302245
:1033F0008DF804204FF001087F1E582804D034A017
:1034000003900EA802900DE036A0F9E753466046FF
:10341000009AFEF729FE84460398825C0298401EBB
:10342000029002705CEA0100F0D1029806A9081A25
:1034300000F1200A600702D524F4803400E001275F
:10344000574502DDA7EB0A0000E0002000EB0A016F
:10345000009005984144401A0590E00306D45B466D
:103460002146179A059800F0B3F90544002706E0B5
:1034700001A85A46C05D179990476D1C7F1C4745AF
:10348000F6DBE0030CD55B462146179A059800F061
:103490009FF9054404E030205A46179990476D1C67
:1034A0000099481E00900029F5DC08E00298029976
:1034B0005A460078491C0291179990476D1CBAF141
:1034C0000001AAF1010AF1DC65E100000928010010
:1034D000303132333435363738396162636465668A
:1034E000000000003031323334353637383941424C
:1034F000434445460000000000F058F90544761C9E
:10350000307800287FF4ECAD19B02846BDE8F08F84
:10351000620700D4062709F1070222F0070CFCE835
:103520000223E14603F000485FEA080C02D00FF2E4
:10353000702C0DE05FEA045C02D50FF2682C07E006
:103540005FEAC47C02D00FF2602C01E0AFF2700C95
:103550004FF0FF3823F00043CDF850C065280CD061
:1035600006DC452809D046281DD047283DD13DE03E
:10357000662818D067287ED138E00021112F01DBA2
:10358000112000E0781CCDE9000106A90EA8FFF784
:10359000DDFCDDE90F010E9A03910021009207F195
:1035A000010A04914DE04FF000400097CDE9011071
:1035B00006A90EA8FFF7CAFCDDE90F0203920E9BD5
:1035C00011990022DDF80CA00093049211B9791C26
:1035D00000EB010AB7EB0A0004D4C0F1FF3007F199
:1035E000010A0490AAEB0700019044E0012F00DAE1
:1035F00001270021112F01DD112000E03846CDE91F
:10360000000106A90EA8FFF7A1FCDDE90F010E9A43
:103610000391002104910092BA4621070CD403992A
:10362000514500DA8A46BAF1010F05DD009AAAF188
:103630000101515C302908D0B84202DA10F1040FC0
:1036400006DA0121CDE9011015E0AAF10101E9E74F
:10365000002805DC049901440491AAEB000102E072
:10366000411C514500DD8A460499401A401C0190D6
:103670004FF000400290200704D40198504501DB30
:10368000CDF8048000208DF84F0002980DF14F070F
:10369000B0F1004F25D02B200E9002984FF0020879
:1036A00000280CDA404202902D200E9007E00A21FB
:1036B0000298FEF7A6FF3031029007F8011DB8F11D
:1036C0000001A8F10108F2DC02980028EFD1791E70
:1036D0000E980870307800F0200040F0450007F8A0
:1036E000020D12A8C01B00F107081498007800B161
:1036F000012000EB0A01019801EBE07105984144BB
:10370000401A401E0590E00306D45B462146179AF6
:10371000059800F05DF805441498007818B15A46F1
:10372000179990476D1CE00324D55B462146179AF4
:10373000059800F04DF805441CE00498002807DBCC
:10374000DDE90301884203DD0098405C179901E040
:10375000179930205A469047049805F10105401CFE
:1037600004900198401E019004D12E205A461799CA
:1037700090476D1CBAF10001AAF1010ADDDC05E0F9
:1037800017F8010B5A46179990476D1CB8F10001C4
:10379000A8F10108F4DC5B462146179A0598ABE6D0
:1037A0002D0000002B000000200000002DE9F0415A
:1037B000044600251E461746880404D405E0394611
:1037C0002020B0476D1C641EF9D52846BDE8F08165
:1037D0002DE9F041044600251E469046C80301D558
:1037E000302700E02027880404D505E0414638460C
:1037F000B0476D1C641EF9D52846BDE8F0814A68C3
:10380000002A06D00A68531C0B6010704868401EDE
:10381000486070470A68531C0B60107070470000C6
:103820002DE9F05F0746894693464FEA5B04A246BE
:103830004D465F4EDFF87C81EFF31080012181F36C
:103840001088D8F8A41221F02001C8F8A41280F33F
:103850001088EFF31080012181F31088D8F8A012AE
:1038600021F02001C8F8A01280F31088306820F001
:1038700080403060504830603F20D8F8001160F33D
:103880000501C8F80011306820F4601040EAC74014
:103890003060306820F4E02040EA07403060052FB7
:1038A00003D1306840F400403060062F03D1306807
:1038B00040F480403060306840F400503060306840
:1038C00020F060503060306820F00F0040F00300BE
:1038D0003060EFF31080012181F31088344A3832D0
:1038E000116821F0E04141F08041116080F31088BF
:1038F000306840F08040306001E0D8F80000D8F82F
:103900000401C0F300200028F7D1EFF3108001215B
:1039100081F31088116841F00041116080F3108834
:1039200034E000204FF47A711AE0884217D93068E9
:1039300020F080403060306840F0004030603068F7
:1039400020F00040306007F05FFC1C480168491C13
:10395000016054464D46052078F451D16CE7401C77
:10396000D8F80421C2F30022002ADED0D8F80401DE
:1039700000F07F01A14200D92146002003E0D8F8E1
:10398000002004C5401C8842F9D3641A002CC8D119
:103990005FEACB7008D0D8F80401C0F300200028FB
:1039A000F9D0D8F800002880BDE8F05F07F02CBC03
:1039B00008C500A000E000A00A070807A8810030A1
:1039C0002DE9F04107460E464FF000080024274D30
:1039D0000BE004EBC40005EB8000801C0722394695
:1039E000FEF7B1FB40B1641CE4B22878A042F0D8E5
:1039F000B8F1000F18D102E04FF00108F8E728787D
:103A00000A21B0FBF1F201FB12040A2801D2401C8A
:103A1000287004EBC40105EB81003968C0F802107E
:103A2000B988C180B97901722B7811A210210020C8
:103A300003F43AF7307800070BD504EBC40005EB2C
:103A4000800006F14601BDE8F0410A301C22FEF775
:103A50004FBB04EBC40005EB800006F12A01BDE872
:103A6000F0410A301C22FEF743BB000000CF0030BB
:103A7000523A313A616464206C746B206974656DEC
:103A80002C206E756D203D2025640A000449896B49
:103A9000084004490A78104300220A707047000069
:103AA000002001A0107E00300C4900280BDC0868C3
:103AB000C0F34120012805D0086820F4C06040F41C
:103AC0000070086070470A28FCDB086810F4C06FBB
:103AD000F8D0086820F4C060086070470CC500A0EA
:103AE00006460F46154672B63846FEF725FB4028B7
:103AF00001D9402002E03846FEF71EFB80463046E2
:103B0000FEF71AFB402801D9402002E03046FEF7BC
:103B100013FB04469C211048FEF703FB424639463E
:103B20000D48FEF7E5FA0C48224631465C30FEF7B8
:103B3000DFFA09484FF0AA31016445644FF0BB3108
:103B400081644FF0CC3101654FF0DD31816500209B
:103B500000F004F8FEE70000C88D003030B5ADF28B
:103B60000C4D04464FF4806103A8FEF7DAFA194DB4
:103B7000202085F83F0085F89B003CB12846012CA9
:103B8000436DC26C09D0022C0CD00FE0114A12A177
:103B90005C3203A8FFF704F808E012A103A8FEF7BF
:103BA000FFFF03E017A103A8FEF7FAFF03A90CA289
:103BB000686CCDE90121009019A3064A19A10020E3
:103BC00000F056FD012C01D000F00AFD0DF20C4D65
:103BD00030BD0000C88D00305B4552524F525D2011
:103BE000257300005B5741524E494E475D2050619E
:103BF00072616D303A25642C506172616D313A25E5
:103C0000640000005B504152414D5D205061726183
:103C10006D303A25642C506172616D313A25640033
:103C2000000000006170705F6173736572742E63D1
:103C300000000000014877F41F960000F07B003080
:103C400006460F4690461D4672B64046FEF774FA89
:103C5000402801D9402002E04046FEF76DFA0446B4
:103C60009C210D48FEF75DFA224641460A48FEF7C0
:103C70003FFA09484FF05531016445644FF0663111
:103C80008164C6644FF0773101654765C94381653A
:103C90000220FFF763FFFEE7C88D00302DE9F041F9
:103CA00006460F4690461D464046FEF745FA402818
:103CB00001D9402002E04046FEF73EFA04469C212E
:103CC0000D48FEF72EFA224641460B48FEF710FA41
:103CD00009484FF011310164456449008164C664AC
:103CE0004FF03331016547654FF044318165BDE8E0
:103CF000F0410120FFF732BFC88D00303EB50446C9
:103D00004FF400711A48FEF70CFA207810B1012820
:103D100019D01DE000211748A28830F831309A42AE
:103D200007D100EBC10014A143681148FEF738FF2A
:103D30000EE02E2902D0491CC9B2EEE714A10C48AE
:103D4000FEF72EFF04E01DA109486268FEF728FF78
:103D5000074921A22069CDE901210090D4E902237D
:103D60001EA1002000F084FCBDE83E4000F04CBCE9
:103D7000C88B0030CC0901014572726F7220636FED
:103D80006465203078253034583A202573000000CF
:103D90004572726F7220636F64652030782530340D
:103DA000583A204E6F20666F756E6420696E666F9C
:103DB000726D6174696F6E2E0000000028257329F2
:103DC000206973206E6F742065737461626C69730F
:103DD0006865642E00000000257300006170705F4C
:103DE0006572726F722E63002DE9F0410146002961
:103DF0001BD000240F4E0E4A357814E002EB04105D
:103E00000F780378BB420CD14B684068034208D05E
:103E1000707808B900F0C2FB2046BDE8F04100F020
:103E2000EBBA641CE4B2AC42E8D3BDE8F081000018
:103E3000748E0030FC7B00307CB505460E46002DAC
:103E400001D0002418E0E5207CBD05EB041041689A
:103E50000091017A8DF80410417A8DF80510072140
:103E60008DF80610C26800780023694600F048F813
:103E70000028E9D1641CE4B2B442E6D300207CBD42
:103E800010B50C46062833D2DFE800F00303031E0A
:103E90002710184951F830002104090C04D018B13A
:103EA000214605F01BFD1FE0E42010BD2004000C9E
:103EB00003D0A1B2104805F011FD200C14D0210C44
:103EC0000E4805F00BFD0FE014F0FF0F03D0204665
:103ED00005F0F8FA08E0E42010BD14F0FF0F05D05B
:103EE0002146002005F06CFD002010BDE42010BD2F
:103EF000E62010BD28090101000001A0001001A06A
:103F00002DE9F05F05460C46904699462768002645
:103F1000042D13D039462846FFF7B2FF2146284624
:103F200000F0ACF800280AD1032D0AD0052D2ED0C0
:103F30004FF0100B2807060E002491E0E620BDE8A4
:103F4000F09F4FF0080B2079042806D0052809D0EF
:103F500006280DD0072815D110E00021384600F4BE
:103F600030F20FE040F20111384600F42AF209E085
:103F70004FF00111384600F424F203E03B49384683
:103F800000F41FF24FF0007075F4B2D0D4E74FF098
:103F9000200BD1E7F80760D0062D65D2DFE805F0E9
:103FA000030303466425324800EBC50090F904A0E2
:103FB000BAF1000F17D0EFF31081012080F31088C1
:103FC000A01900EB40022B4800EB8200C0F80480EF
:103FD000C0F8089081F31088504618F41DD150465F
:103FE00018F438D139E0E420A9E7EFF3108201207A
:103FF00080F31088A0191F4B00EB400003EB8001F9
:10400000C1F80480C1F80890052103F8201082F35C
:104010001088062018F400D1062018F41BD10720C0
:1040200018F4FAD0072018F415D116E0EFF3108138
:10403000012080F31088A01900EB40020E4800EB2D
:104040008200C0F80480C0F8089081F31088122024
:1040500018F4E2D0122018F4FDD07F08641CE4B2FA
:104060005C4597D300206AE7E62068E7010101007C
:1040700028090101FC8700307C89003070B58EB0C2
:1040800005460C46564901F164004DC8CDE90A02C7
:10409000CDE90C36D1E91E23486F06AED1F8801069
:1040A0000DC6099114224E49843101A8FEF720F86B
:1040B000ACB14C4906200BF0CBFB4B4907200BF071
:1040C000C7FB4A4912200BF0C3FB4549444A2C3137
:1040D000062D7CD2DFE805F0060606415921E520D1
:1040E0000EB070BD207931F810000B90607932F875
:1040F00010000C90A0790D9020680A903848143078
:1041000050F8350021880904090C04D018B10AA917
:1041100005F032FC59E0E420E2E7207931F81000A4
:104120000B90607932F810000C90A0790D90206807
:104130000A9020680104090C05D080B20A900AA9EF
:104140002B4805F019FC2068010C3ED0000C0A90A9
:104150000AA9284805F010FC37E0207901EB40005F
:10416000408A0790607902EB4000C0880890A079EF
:10417000099020680690207810F0FF0F03D006A861
:1041800005F0F2F921E0E420AAE72079031F032BD0
:1041900001D8E720A4E702281AD001200290207954
:1041A00001EB4000808C0390607902EB4000808935
:1041B0000490A079059020680190207810F0FF0FFE
:1041C00009D001A9002005F053FC002088E704E095
:1041D00002200290E3E7E42082E7E62080E7000087
:1041E00014090101BB428000B5428000B142800049
:1041F000000001A0001001A010B502460C460020EE
:10420000062A26D2DFE802F00303031A1F0B114827
:1042100050F83200A1B2BDE8104015F458942104C2
:10422000090C03D0A1B20C4815F451D4210C10D0C4
:10423000210CBDE81040094815F44994A0B2BDE82E
:10424000104013F41794A1B2BDE81040002005F00F
:1042500012BC10BD28090101000001A0001001A03E
:10426000002803D0024908600120704700207047F1
:10427000047C003070B505460024091F062917D2BA
:10428000DFE801F003070C111315284600F0A4F82D
:104290000EE00124284600F09FF809E00224284699
:1042A00000F09AF804E0032402E0042400E005246E
:1042B000034A214628461268BDE8704010470000B6
:1042C000047C00302DE9F0410446204600F0AEF8B1
:1042D00001462E4800230826025D00F10A0700F17E
:1042E0001405AAB1052A33D0082A2AD1092945D0B4
:1042F000082926D1295D491CC9B22955142920D382
:104300002B5506552046BDE8F0410821FFF7B2BF06
:10431000052913D0042916D0072914D0082910D153
:10432000295D491CC9B2295514290AD32B550655B4
:104330002046BDE8F0410821FFF79CBF3B55052111
:104340000155BDE8F0812046BDE8F041FFF792BF7E
:1043500005290CD0395D491CC9B239553229F0D331
:1043600003552046BDE8F0410521FFF783BF035503
:104370002046BDE8F0410621FFF77CBF03552046EB
:10438000BDE8F0410921FFF775BF0000548F0030F0
:1043900070B504460D4600F00FF808B100F014F9AE
:1043A0000348044A2946005D5268BDE87040104742
:1043B000688E0030FC7B00300020064911F8102088
:1043C0000AB100207047401CC0B20A28F6D3012071
:1043D00070470000728F00300349002201F810205E
:1043E00001EB400042707047728F0030014A02F8C2
:1043F00010107047728F0030024A012102EB40001A
:1044000041707047728F003070B50024064D05EB87
:104410004400407810B12046FFF754FF641CE4B21A
:104420000A2CF4D370BD0000728F003070B50021EB
:104430001D4B03F132051A5C002A09D0002403F158
:104440000A06012A0AD0022A12D0032A24D11FE028
:1044500015F8102002B301221A541DE015F810209F
:104460001AB1345402221A5416E01C54042113E0E9
:1044700015F810204AB1325C521CD2B23254642A70
:104480000AD3072103221A5406E005211C5403E035
:1044900015F8101011B10821084670BD1C54FFF723
:1044A0009BFF0921F8E70000408F003070470000B3
:1044B0002DE9F0410E4617460A2E02D80FB100230F
:1044C00020E00020BDE8F08103EB430410F8241045
:1044D000052901D0032913D100EB8405114AA97ADB
:1044E000D154104910F824200C3101EB0314227030
:1044F00069686160297A2172697A61720A49E160AA
:104500005B1CDBB2B342DFD3064831460C30FFF709
:1045100093FC0648067047600548FFF7A1FE01209E
:10452000D0E70000688E0030E93D0001FC7B0030E0
:10453000914300012DE9F0410024124FDFF848803B
:1045400019E0002607EB041528786968FFF754FE88
:1045500010B9697A012902D0012802D005E00126AC
:1045600003E0687A022800D1012631462046FFF791
:104570003DFF641CE4B298F800008442E1D3BDE83A
:10458000F0810000748E0030FC7B003010B5FFF726
:10459000D1FFBDE81040FFF737BF000010B5074A54
:1045A0000121074800F074F900220A21044800F0B4
:1045B000C5FA04490120487010BD00008D45000176
:1045C000188F0030FC7B003010B5034800F08EF9E6
:1045D00002490020487010BD188F0030FC7B00306D
:1045E0000248406A002800D000477047A08B003086
:1045F000002806D0002904D0024AD269002A00D03F
:1046000010477047A08B00300248006A002800D095
:1046100000477047A08B003070B50D4616460D4C14
:1046200000280AD00178032911D80121A17601467A
:104630001A222046FDF75CFD05E00020A0761A2135
:104640000448FDF76EFDE5612662002070BD012083
:1046500070BD0000A08B0030044A1044807D0842E9
:1046600001D001207047002070470000A08B00306F
:104670002DE9FE4F0746924699460024A046CDF804
:104680000480CDF8088059480178B94202D2807E72
:1046900000287DD10EAD0095EFF311860220FEF7C4
:1046A00070FB8346FEF792FB401C012181400BEB1F
:1046B0000100C0B280F3118801213846FFF7CCFF1A
:1046C00038B14B484B4950F82720204600F0A4F859
:1046D00004461C213846FFF7BFFF00285ED046A2E3
:1046E0004449204600F098F8204484B2042138461A
:1046F000FFF7B2FFF8B152463E49204600F08CF871
:10470000204484B208213846FFF7A6FF38B13BA207
:104710003849204600F080F8204484B20BE0102194
:104720003846FFF799FF30B135A23249204600F0F4
:1047300073F8204484B208213846FFF78DFF90B10A
:104740004A462C49204600F067F8204484B21021E4
:104750003846FFF781FF30B12AA22649204600F0F3
:104760005BF8204484B210213846FFF775FF60B132
:1047700026A2052101A80C9BFEF7FAF901AA1D4902
:10478000204600F049F8204484B221A2194900E0F3
:1047900029E0204600F040F8204484B21548C4F5D2
:1047A000807120442B460D9AFEF70EFACDF800805A
:1047B0004FF48071002804DB2044884201DC85B27C
:1047C00000E00D46A81C884200D9FE2511A2094927
:1047D000284600F021F8284481B20648FFF708FF78
:1047E000F0B280F31188BDE8FE8F0000A08B00308E
:1047F000DC7B0030A08A0030280000002000000090
:104800003A000000204C696E653A0000256C640097
:10481000292000000D0A000030B5054600200029BF
:104820000CD0002A0AD006E02B18FF2B06D8CC5457
:10483000521C401C80B21478002CF5D130BD000011
:1048400010B5064A06214CF2010009F0ADF901F05D
:10485000AFFDBDE81040022074F404923C0B01014E
:1048600010B50848017800290AD1012101700648D5
:1048700074F448D0BDE810400021044874F4A492B8
:1048800010BD0000C87B0030D142800055E200011D
:104890002DE9F04104460D461746002D04D0012DA8
:1048A00002D00120BDE8F081E4B1DFB160780128D9
:1048B0001AD0EFF311860220FEF755FA8046FEF774
:1048C0007DFA401C0121814008EB0100C0B280F359
:1048D000118800206070A570E761F0B280F3118844
:1048E0000020DFE70120DDE70620DBE710B5044606
:1048F000002C0CD0204600F0B3F9FF20607000219E
:10490000A160E160216161610020E06110BD0120D2
:1049100010BDF0B5DDE90745059981614FF47A7660
:10492000A2FB061C03FB06C3002702FB0732C0E9FB
:10493000021209196A41C0E9041200210162F0BDA6
:104940002DE9F0410446002C13D0EFF3118502202D
:10495000FEF709FA0746FEF731FA401C012606FA6F
:1049600000F03844C0B280F311881248002121625F
:104970000EE00020BDE8F081D4E90432D1E9047CE6
:10498000DB1B72EB0C0202D2016A216203E00846D3
:10499000016A0029F0D10462667006481038016887
:1049A000491C0160016B4160E8B280F3118801206D
:1049B000E0E70000408A00302DE9F0410546002480
:1049C000EFF311860220FEF7CEF90746FEF7F6F95F
:1049D000401C012181407818C0B280F31188134A2D
:1049E000106BE8B115B102F1100010E00446206A26
:1049F00010631068401E10600CE0A94206D11168D7
:104A0000491E1160296A01622C4603E00846016ACA
:104A10000029F2D124B1002020626070106B506038
:104A2000F0B280F311882046BDE8F081308A003072
:104A30002DE9F041EFF311870220FEF794F90446C7
:104A4000FEF7BCF9401C012181406018C0B280F320
:104A50001188114D002608E02078012804D1E16971
:104A600009B1A069884726702D6A2C6A002CF3D101
:104A7000094D103D07E0E16909B1A069884726703A
:104A8000206AA8632662AC6B002CF4D1F8B280F3E4
:104A900011880120BDE8F081408A00302DE9F04105
:104AA000EFF311870220FEF75EF90446FEF786F960
:104AB000401C012606FA00F02044C0B280F31188A1
:104AC0001D4DA5F110082DE0D4E90430D8E90212FB
:104AD0005B1A60EB0200D8E91021D21A814124D37D
:104AE00026702046FFF768FFA078012806D01248FC
:104AF000283000212162016861B10FE0D8E902206D
:104B0000D4E9021351185841C4E904102046FFF7B4
:104B100017FF07E0046005E001F1200001680029AB
:104B2000FAD104602C6A002CCED1F8B280F311883F
:104B30000120BDE8F0810000408A00302DE9FF5FD0
:104B400082460E4693464FF00008BAF1000F20D07F
:104B5000414886421DD8E6B1EFF311870220FEF7E7
:104B600002F90446FEF72AF9401C01218140601831
:104B7000C0B280F31188504606F0AAF810B19AF836
:104B8000010040B1F8B280F311880F2004B0BDE8F5
:104B9000F09F0120FAE708F0C3FC04460D464FF4ED
:104BA0007A7106FB01F022462B46002106F060F8E0
:104BB000DFF8A890B0B1D9F8040048B1D0E90410EA
:104BC000091B60EB0500C9E9021008F03DFD04E097
:104BD0000021C9F80810C9F80C104FF00108D9E9F4
:104BE000020106E0D9F80400D0E90421101B61EBB2
:104BF0000501CDE9020132460023CDF800B0504650
:104C0000FFF787FE5046FFF79BFE0AF0BFFC4FF010
:104C1000E024D4F800014FF0806510F0806F01D0DF
:104C2000012000E0002020B91A20FDF7E3FFC4F8BE
:104C30000051B8F1000F0AD0D9F80400D0E90431CE
:104C4000D9E90202181A61EB020108F09FFCF8B2E0
:104C500080F31188002099E7008AB907308A003074
:104C60002DE9F04104460025002C39D0EFF31187DF
:104C70000220FEF778F80646FEF7A0F8401C012156
:104C800081407018C0B280F311886078012824D167
:104C9000144E7068A0420BD108F042FCD4E90432F3
:104CA000181A62EB0102C6E9020208F0CDFC0125E8
:104CB0002046FFF781FE5DB1706848B1D0E904215C
:104CC000D6E90203101A61EB030108F05FFC04E06F
:104CD0001DB9706808B908F0B7FCF8B280F3118804
:104CE000BDE8F081308A003070B504461A4D55F8A1
:104CF0002400703009F0C3FE82B21646A2B155F806
:104D0000240090F8011101290ED0012180F804112E
:104D1000802A0FD355F82400802200F180017030E2
:104D200009F0C2FE80260CE055F82410002081F81E
:104D3000000170BD55F8240000F18001703009F0C9
:104D4000B3FE55F82400324600F18001001D1CF42A
:104D500071D60028EDD170BDCC7B003070470000CB
:104D60002DE9F84304464D4F57F82400061D022C48
:104D70007ED290F86C1000297AD0012978D190F871
:104D80000011012974D190F80111002970D101217D
:104D900080F80111002157F82400D0E903231344BF
:104DA000027D02F00102D21D9D184268D36FC3F349
:104DB0008003002BFAD090F80421A2B1384A13687E
:104DC000491C90F83B20102A06D08268B3FBF2F20F
:104DD0006A43B1EBC21FF3D957F82400703009F0D1
:104DE0004EFE85B226E0B0F82480C58C001D1CF470
:104DF00099D257F8240041F2883300EB0801491B8F
:104E00008031001D2A461CF4DAD5E5E757F8240066
:104E100001227030694609F047FE57F824004068C7
:104E2000C16FC1F340010029FAD09DF80010016064
:104E30006D1EADB2002DE9D157F82400703009F095
:104E40001EFE0028C8D1306841694906FCD5EFF341
:104E50001085012080F3108857F82400703009F085
:104E60000EFE68B1EFF31081012080F3108800E09E
:104E700011E03068426842F08202426081F310889B
:104E800057F82410002081F8000157F8241081F809
:104E9000010185F31088BDE8F8830000CC7B003069
:104EA000087A00302DE9F04105460F46002D06D066
:104EB0002AB12C78022C04D3E820BDE8F081E5204B
:104EC000FBE7304E05F1580046F82400D2E90031E6
:104ED0000A467030194609F0BDFD291D286D0BF0FA
:104EE00011FA0028E9D156F82410281D486656F812
:104EF0002400076056F824001822083005F140010C
:104F0000FDF7F6F8204856F8241000EBC405686851
:104F1000486056F82400001D05F010F856F82400EB
:104F2000001D05F041F8184801220321103809F04E
:104F3000BBF956F82410012081F86C0056F82410B3
:104F4000002081F8000156F8241081F8010156F87C
:104F5000241081F8020156F8241081F803010B494E
:104F60000C200AF075FC0A490D200AF071FC95F935
:104F7000010017F451D195F9010017F46BD100200D
:104F80009BE70000CC7B0030BC0901012D2B000108
:104F90003D2B00012DE9F04104461A4D55F824003F
:104FA000703009F06CFD82B2164600277AB155F8D0
:104FB000240090F80111012909D0802A0ED300F1B4
:104FC00080017030802209F06FFD80260BE055F8DB
:104FD000240080F800710020BDE8F08100F180011C
:104FE000703009F061FD55F8240080F8047155F81F
:104FF0002400324600F18001001D1CF461D5002818
:10500000EAD1E9E7CC7B003070B5022801D3E82073
:1050100070BD104D55F8204064B194F86C604EB1ED
:1050200051B14AB15E1C09D044F62066B34205D99D
:10503000E42070BDE52070BDE42070BD002684F83A
:10504000026155F82000001D1CF4B9D40028F4D1E9
:1050500070BD0000CC7B00302DE9F04106460C46C7
:10506000174604F10805204670F4A6D3C3B21B48C6
:10507000E1184268914202DD0320BDE8F081184941
:10508000184A006809681268891A081A001FE91886
:1050900081421CD94FF4004513A22946002002F496
:1050A00003F401F079FA30B118A22946002002F485
:1050B000FBF30820E1E71DA22946002002F4F4F3E7
:1050C0003A4621463046BDE8F0410BF04FBB3A4628
:1050D00021463046BDE8F0410BF048BBD832800095
:1050E000D0238000CC238000523A353A4E564453A8
:1050F0002061726561206973206265696E67206353
:105100006F6D7061637465642E0D0A00523A353A12
:10511000436F6D70616374696E67204E564453200F
:105120006661696C65640D0A00000000523A353A08
:10513000436F6D70616374696E67204E56445320EF
:105140007375636365737366756C0D0A0000000008
:105150007CB50D46002200920192694602F4A6F346
:10516000044634BB4FF42051684602F4A1F3B8B9A9
:1051700042F60101684602F49BF388B942F6030146
:10518000684602F495F358B942F60201684602F403
:105190008FF328B94FF42451684602F489F308B11B
:1051A000062406E00098C5F30B01808808430099A7
:1051B000888020467CBD00002DE9F04105460C4664
:1051C000FF26217A1E2905D022480279521E52B2AA
:1051D00000683AE004F10801284602F46BF3064641
:1051E00035E010F832308B422DD11B4E56F8250099
:1051F000406F30B300273B4618A24021002002F444
:1052000053F3062000EB05202BF4B4D0C00605D5DF
:10521000002717A24021002002F446F321460C3952
:1052200056F82500743002F447F30020A0800126D0
:105230006FB115A2402102F437F3284602F43EF381
:1052400005E00127D7E7521E52B2002AC9DA3046DC
:10525000BDE8F0817C058000C40E8000523A333AEC
:10526000657865637574653D307825780A000000BF
:10527000523A333A636F6E6E656374206E6F7420BA
:1052800063666D0A00000000523A333A737461722B
:105290007420657865637574650A000003480249E7
:1052A00001600D2141607047D08000307C05800096
:1052B0002DE9FF5F81460F460024A246CDF808A0E5
:1052C000CDF80CA0584850F82900603002F4F8F2EC
:1052D00080463D1F79882888544BCDE9001054A2A0
:1052E0004021002002F4E0F22888E8BB48460FF491
:1052F00095D6401E2880002611E007EB460002AB41
:1053000082880021484602F4DDF2C4B2CDF808A03C
:10531000CDF80CA00CB1B0463BE0761CB6B2788854
:10532000B042EAD835E007EB48006B46818801AA15
:10533000484602F4C9F2C4B23CBBBDF80400298857
:10534000884200D3084686B2022106F108002AF4FA
:10535000BBD58346ABF8046032460BF106000099DA
:10536000FCF7C6FE304800E013E050F8290059462B
:10537000603002F4A1F2484602F4A8F22888801BAB
:10538000288008F101081FFA88F8CDF808A0CDF8A8
:105390000CA07888404503D9288808B1002CC2D0D9
:1053A00044BB48460FF43AD62988401A401E86B2BC
:1053B0000025062000EB09230F2204214846009611
:1053C0002DF432D18246AAF80260174850F829001D
:1053D000066E0AE00AEB0500B288001DB11DFCF75D
:1053E00087FEB088284485B23668002EF2D1504638
:1053F00002F46EF24CB1062C07D007EB4800397866
:1054000082882346484602F465F2084B14A24021E4
:105410000020009402F448F2062C03D0002004B0CF
:10542000BDE8F09F0120FAE7C40E8000380D0101AD
:10543000523A333A5B25735D20656E7465722C2099
:105440006E625F68616E646C653D307825782C20F3
:1054500072655F6C656E3D307825780A000000004B
:10546000523A333A5B25735D20657869742C20735A
:1054700074617475733D307825780A0010B5002189
:105480000A4C0023002001EB410202EBC10204EBB5
:10549000420222F81030401CC0B20A28F9D313751A
:1054A000491CC9B20A29EDD310BD000084D00030D8
:1054B0001FB50F4890F80201002818D068464EF436
:1054C00039D7DDE900010B4CCDE90201E168084460
:1054D000094920F07040486008464FF4C1D1607817
:1054E00018B1BDE81F4009F049BC09F063FC1FBDBD
:1054F000C01A8000B4800030B41A800010B586B0A5
:10550000002061F4C7D004464CB114220A4901A816
:10551000FCF7EEFDADF8084001A8FEF7EFFB0749E8
:105520004888401C4880C2074FF0010002D04870F4
:1055300006B010BD0870FBE77C0B01019C7D0030BC
:1055400002460020002152F821300BB1401CC0B2AD
:10555000491CC9B20C29F6D3704710B507F0ECFA14
:10556000BDE8104002F082BE07F07CB810B58CB0E8
:1055700008A80AF075FBBDF8221009989DF82120B3
:10558000CDE904109DF820303FA040F20F11CDE985
:105590000232CDE90010464B46A24CA10220FFF793
:1055A00067F80AA860F404D5044654B114224049AF
:1055B000103103A8FCF79CFDADF8104003A8FEF7DE
:1055C0009DFB9DF828009DF82910CDE906109DF857
:1055D0002A209DF82B30CDE904329DF82C109DF83F
:1055E0002D003CA24FF48A73CDE90032CDE90201CF
:1055F0002F4B30A235A10220FFF73AF840A04FF41C
:105600008E71CDE900102A4B2AA230A10220FFF7AB
:105610002FF802F0FFFA404A01214048FFF738F91D
:10562000044654B114222249243103A8FCF760FD3A
:10563000ADF8104003A8FEF761FB002241F288316B
:105640003648FFF77BFA044654B114221849383122
:1056500003A8FCF74DFDADF8104003A8FEF74EFB84
:105660002F49002000F080F90446002C0AD01422B3
:105670000F494C3103A8FCF73BFDADF8104003A8DF
:10568000FEF73CFB0CB010BD476F6F646978204299
:105690004C452053444B205625642E25642E25640A
:1056A0002028636F6D6D6974202578290000000043
:1056B000DC0B01012E2E5C5372635C757365725CAA
:1056C000757365725F6170702E6300004E4F5F549A
:1056D000414700004C6F63616C20426F617264202F
:1056E000253032583A253032583A253032583A254A
:1056F0003032583A253032583A253032582E000090
:10570000426561636F6E206578616D706C652073B2
:105710007461727465642E00FD54000118CC003071
:10572000A07D00302DE9F0410546884628466AF400
:1057300007D5C0B22449097888420DD200EB400059
:10574000213040F400404246AC2108F02DFA0446D6
:10575000200032D0012430E06AF436D5C7B207EB1E
:10576000470606F1200040F400402A46072108F0D1
:105770001BFA10B10120BDE8F081384676F474D6EA
:1057800006F1210040F400404246AC2108F00CFA3A
:105790000446200001D00120EDE7223646F4004007
:1057A00008F058F80949C7EBC70009680844296898
:1057B0000160A9888180A97981711CB94146284678
:1057C000FEF7FEF82046D6E7382380003C23800011
:1057D00010B500F013F809F047FB09F077FB09F06A
:1057E000E1FA08F033FF0AF029FC00F051FC09F05F
:1057F00081FBBDE8104000F01BBB000010B507495D
:10580000074803F06FFD0749074803F06BFDBDE84B
:1058100010400649064803F065BD0000A9A5000137
:10582000A1B90200255700017D5A0600E9AC00012C
:10583000C106030008F08EBE10B506F0A9F807F007
:1058400091FA06F0D1F806F0E3FC06F031F905F024
:1058500059FCFFF723FD03F0D1F809F0DFFB09F055
:10586000D5FFBDE81040FFF709BE00000148FFF773
:1058700067BE0000B413800010B5FFF7DBFF0549D9
:1058800003480860BDE81040034876F45F900000CC
:1058900017B8800474C500A00087930310B50446B0
:1058A000002C0CD0204600F0DFF9002807D1044975
:1058B0004968002903D02046BDE81040084710BDC4
:1058C000EC7E00300EB50188B1F5807F0ED0A1F5D9
:1058D000007107390ED001291BD0FF2918D100799A
:1058E00003B001215DF804EB61F45E91BDE80E4068
:1058F000FFF73CBE408800280AD009A1F722CDE975
:10590000002102900F4B10A215A10320FEF7B0FE5C
:105910000EBD40880028FBD1BDE80E400AF090BDC6
:10592000416476657274696E672073746172746520
:1059300064206661696C65642830582530325829C6
:105940002E000000CC0B01012E2E5C5372635C759F
:105950007365725C757365725F6170702E630000B1
:105960004E4F5F54414700002DE9F84307460D466E
:10597000EFF311860220FDF712FA0446FDF72EFA26
:10598000401C012181406018C0B280F311886AF484
:10599000ADD48046052F06D350A21021002001F47B
:1059A00083F7152487E09DB14F48C7EBC70100EB93
:1059B0008104E06860B1607A08B168F4F1D3607A7C
:1059C00068B14AA21021002001F46EF70F2472E0A2
:1059D00049A21021002001F467F702246BE020693E
:1059E000F8B9E068017841B1012910D045A2102131
:1059F000002001F459F723245DE08078400710D49B
:105A000043A21021002001F44FF7232453E08078B3
:105A1000800706D441A21021002001F445F7232479
:105A200049E0E06841888A0704D50278012A01D15B
:105A300062691AB10278022A07D008E03AA210215E
:105A4000002001F431F7252435E0A26962B109078D
:105A500011D5298809B180290DD936A2102100203D
:105A600001F422F7262426E035A21021002001F4BB
:105A70001BF724241FE0407802280CD1288818B195
:105A800044F25061884206D930A21021002001F46E
:105A90000BF726240FE0E06928B90021042065F403
:105AA00023D7E061B8B1E069296801603946002078
:105AB0006AF478D500243B4627A2102100200094E8
:105AC00001F4F2F640466AF4DBD3F0B280F31188B9
:105AD0002046BDE8F8831024EDE70000523A313A41
:105AE000453A310A000000007C278000523A313AE2
:105AF000453A330A00000000523A313A453A320A38
:105B000000000000523A313A453A360A00000000DF
:105B1000523A313A453A340A00000000523A313ADA
:105B2000453A350A00000000523A313A453A370A00
:105B300000000000523A313A453A390A00000000AC
:105B4000523A313A453A380A00000000523A313AA6
:105B5000453A31300A000000523A313A6164765FCA
:105B600073746172745B25645D3A20453A30782520
:105B70003032780A000000000A2805D2034A0021CA
:105B800052F8200080F88F1070470000C40E80008B
:105B900010B503460C46184609F0FEF9002805D159
:105BA0002146BDE81040184663F4049210BD000081
:105BB00000B58BB0094901200870FF22282101A8F7
:105BC000FCF7A8FA4FF48070ADF804000020ADF89F
:105BD000060001A8FFF762FE0BB000BDEC7E0030AE
:105BE00010B506480068002800D08047FEF79EDE0A
:105BF00008B1012010BD002010BD000084810030DC
:105C000010B540F4404007F025FE10BD38B50C46F5
:105C10002178009140F44040694607F08FFE002251
:105C200008B1227038BDBDF80010FF2902D92270DA
:105C3000012038BD217038BD10B540F4404007F058
:105C4000B3FF10BD0449016004494160044981600B
:105C50000449C1607047000041C206000D5C0001AC
:105C6000395C0001015C000170B50446002C1FD0B6
:105C70004FF6FF731946208840F20155A0F20152F9
:105C80004FF48076A8424AD01BDC40F20245A0F2D5
:105C90000242A84232D00DDCA0F54070013823D07A
:105CA000012821D0FF2827D0B0422CD121892AE019
:105CB000002070BD012A23D0022A23D0FE2A22D13F
:105CC00028E0052A2BD008DC012A28D0022A26D079
:105CD000032A24D0042A16D121E0062A1FD0B2427A
:105CE00022D0B2F5007F0ED1204603F04BF92046BA
:105CF00002F0E6FF002070BD218904E0218902E066
:105D0000618900E0218A994213D0204603F04AF9C4
:105D1000012070BD204603F067F8002070BD2046CA
:105D200002F0DEFF002070BD204602F019FD0020C9
:105D300070BD002070BD000070B5C0B0F8203F906D
:105D400040F28C413348FCF7ECF96BF495D100201C
:105D5000304CFF21C0EBC00204EB82021172401CE8
:105D6000C0B20528F6D3002004EB001282F8B01070
:105D7000401CC0B20528F7D384F8981084F8A4100A
:105D800084F8941084F800112348002606702348F4
:105D90000670234800688047608840F002006080F9
:105DA00001AA3FA90220FFF731FF1E4D48B31E484C
:105DB000FCF7C2F9401CC2B284F877211A49284680
:105DC000FCF796F90820A4F872020A20A4F87402DD
:105DD000A4F87662C820A4F87802267150211348EE
:105DE000FCF79FF90020114A4FF6FF7122F830109E
:105DF000401CC0B20A28F9D300206DF43DD140B058
:105E000070BD9DF8FC2084F8772101A92846FCF795
:105E10006FF9D7E77C2780000822800009228000E4
:105E20000C228000F428800088D307002A278000F5
:105E300004490348086005490348086070470000AA
:105E4000FD7600010C2280003179000118228000CB
:105E500070B50026150A0E4805EB450200EB02144A
:105E6000098821800120A0702846FFF785FE0020C8
:105E70006AF406D20748016829B10B681BB1228871
:105E80000021284698476AF431D2304670BD0000A0
:105E9000D42E8000B82280003EB500241D0A0A7866
:105EA000122A02D0132A04D006E000208DF8000048
:105EB00002E001208DF800008888ADF804004888D1
:105EC000ADF80200891D029100206AF4D9D10B4877
:105ED000016829B18A691AB169462846904708E0E5
:105EE0009DF80000012804D1BDF804102846FFF7F2
:105EF0004FFE6AF4FBD120463EBD0000B422800074
:105F00000148007870470000758200307CB50E466D
:105F1000150A0020009001906946284674F42ED29C
:105F20009DF806206946284602F02AFC0446CCB1BA
:105F300064F42CD0C0B164F429D0C01C81B2328882
:105F4000002320466EF40AD46946284609F0A2F8D8
:105F500040B106A24021002001F4A6F42146684683
:105F60005FF472D500207CBD0020E7E7523A333A57
:105F70007361766520636363640A00002DE9F0476E
:105F80000646DDE908890F4614461D461EA2042177
:105F9000002001F489F422494B2065F415D5002135
:105FA0004B2065F40FD539463046FCF7BAF8294640
:105FB0002046FCF7B6F849464046FCF7B2F866F4CE
:105FC0003FD120B1294620465FF4D0D404E015A289
:105FD0000421002001F468F44946404668F4E2D008
:105FE00068F45CD062F44AD73946304668F464D02D
:105FF00074F4FED0174866F497D2FFF79DFEBDE813
:10600000F04708F069B90000523A5B53444B5D62B7
:106010006C655F73646B5F696E69740A00000000F1
:1060200054238000523A5B53444B5D4E56445320F8
:10603000616E6420426F6E64204D616E61676572AF
:1060400020617265206E6F7420617661696C616297
:106050006C650A004423800010B522210A4808F02C
:10606000ABF90721094808F0A1F9012106480838D1
:1060700008F096F9FFF7E0FB0520FFF775FABDE899
:106080001040FFF76ABA0000107C0030207D00301D
:1060900002490148086070477D5F00014823800085
:1060A00010B588B0044668F42BD00020079007A8EC
:1060B00055F4D2D60798FFF7C5FD206801906068B7
:1060C0000290A0680390E0680490208AADF8140064
:1060D000608AADF81600A08AADF81800E08AADF825
:1060E0001A0001A855F4E2D655F4C2D60348016857
:1060F00001614168416108B010BD0000300100B08D
:1061000010B58AB00446FF2228216846FCF702F841
:1061100040F20271ADF800100021ADF802108DF8C8
:1061200004406846FFF7BAFB0AB010BD00230849D7
:10613000496808E00A89824204D84A89824201D328
:10614000CB6802E009680029F4D1184670470000C6
:106150009C81003070B519480468194D28780028D2
:1061600001D0002070BD4FF0806072F4C1D700F400
:1061700067F4600873F4CCD6124908608817114997
:1061800001262C3908601920FCF75BFD0E497006CA
:1061900008604FF03041086B40F007000863094C7D
:1061A000303C206840F4E020206000F48BF42E7036
:1061B000206820F4E0202060012070BD6C24800065
:1061C0007C81003070C500A000E100E070B50024C3
:1061D000EFF31086012080F3108800F48EF4104D48
:1061E00028B102242968B9B10220884714E0FFF7DA
:1061F000F7FC20B1296879B1002088470CE0FFF74F
:10620000A9FF28B10224296831B10220884703E0A0
:10621000296809B10020884786F31088204670BDA0
:106220005C24800010B5084A1378002B01D00F20A1
:1062300010BD31B150600448243000F013F8002044
:1062400010BD022010BD0000EC7E003070B5044689
:106250000D46FFF701FF29462046BDE87040FFF7D5
:10626000E1BF00002DE9FC4705460C46FFF7B0FAF8
:106270006AF43CD007463648006800B1804735498B
:10628000012009F0E5FA3449022009F0E1FA012081
:10629000FBF726FFA08E81B2206B01F0D3FFDFF861
:1062A000BC90DFF8BC80E16999F8000098F8002004
:1062B0000244B1FBF2F1CEB216FB00F1A06966F424
:1062C00075D0286864F404D4686860F411D3286930
:1062D00067F4B0D7A86862F4A9D5E86862F44ED62E
:1062E00020484DF4D7D120484DF4DAD11F484DF461
:1062F000DDD11F4855F406D61E484DF481D11E4805
:106300004DF484D11D484DF487D11D4866F422D048
:106310004FF0806072F4ECD62046FFF7C1FED4E95E
:106320000A01CDE9000199F80010A06916FB0100EF
:1063300098F8001016FB01F1D4E90823114C2468E9
:10634000A047384669F49CD7BDE8FC4766F4E69060
:106350008026800039380600DD37060029D5070081
:106360002AD50700119F0700B9C3060065C40600BF
:10637000EDAF0700FD67000145ED06000B68000169
:10638000799B070048238000034900EB800001EB64
:106390008000808870470000C07F0030034A00EB17
:1063A000800002EB8000818070470000C07F0030D9
:1063B00010B500F067F800F049F8BDE8104000F0B3
:1063C00001B8000000B58FB005208DF800004FF433
:1063D000805101918DF8080001218DF809100022EB
:1063E0008DF80A208DF80C004A0304928DF81400F1
:1063F0008DF815108DF816108DF81800CA03079245
:106400008DF820008DF8211003228DF822208DF8C0
:1064100024008B030A938DF82C008DF82D10022395
:106420008DF82E308DF830200D938DF838008DF8D2
:10643000391004208DF83A00034A05216846FEF71A
:1064400037F80FB000BD0000AD4400017CB5102648
:10645000009602248DF804408DF8054007258DF83C
:10646000065069460520FDF709FE00968DF80440A8
:106470008DF805408DF8065069460420FDF7FEFDB5
:106480007CBD000000B587B000F01EF803208DF839
:1064900000001D208DF8160001208DF817008DF8E2
:1064A00018008DF81900044A04496846FEF7B4F84C
:1064B000FDF7C0FB07B000BDC16400011965000114
:1064C0000020FEF74DBC00001CB5114800904FF4B1
:1064D0008062019200F58060002101704FF4E13389
:1064E0000364032343648164C16401650121416540
:1064F00005230374CC0244610224447401760371C1
:106500008260447101736A460249FEF7CBFC1CBDF0
:106510009C8200305D4D00010A4601464FF47A73BB
:106520000020FEF771BD000003480078952801D3D4
:106530000120704700207047123280000E4910F190
:10654000210F06DA086820F4704040F440500860DB
:10655000704710F11D0206D3086820F4704040F423
:106560008040086070470A28FCDD086820F470400D
:1065700040F4A0400860704724C500A010B508F0A2
:1065800087FC07F07BFE09F09BFB00F02BFBBDE8CE
:10659000104008F0EBBB00002DE9F04F87B07B48BE
:1065A000D0F8009000240025A246002609F04EFDF8
:1065B00077480168C9F800104068C9F804007548B8
:1065C00000680830059009F108000690042203A92C
:1065D000059800F0D3FABDF80C10A1F57F40FF3804
:1065E00043D0082203A9059800F0C8FABDF80E00B0
:1065F0006FF4E2D000F0FF08BDF80C00002867D06F
:106600000698A9EB000707F58057BDF80E1008F1B2
:10661000080083460844B84263D805AB082203A9A2
:1066200006A800F0F9F8BDF80E00002300EB080200
:1066300005A906A807F09EFE641CBDF80E0058448C
:10664000B842C3D10020CDE9006053464A462146F6
:10665000284609F0A1FF002826D182460026002402
:10666000CDF818906D1CEDB2B0E70020CDE90060C8
:1066700053464A462146284609F08EFF002813D18A
:106680006D1CECB2434D4FF48057434E08E0286830
:1066900000EB0430394603F097F840B1641CE4B2D3
:1066A000707AA042F3D8002007B0BDE8F08F3B48D5
:1066B0008169407A40F27C42CDE900200291384B5A
:1066C00038A24FF40041002001F4EEF00920EBE77E
:1066D000BDF80E00059908F10808084440440590EB
:1066E00074E7082F29D305AB082203A906A800F0F8
:1066F00093F8083F2FB100233A4605A906A807F0F2
:1067000039FE611C0020CDE9006053464A46284608
:1067100009F042FF0028C7D18246BDF80E00404470
:10672000C61B0024CDF818906D1CEDB20023324634
:1067300005A906A807F01EFE48E705AB3A4603A9DF
:1067400006A800F069F8611C03A8CDE90060534673
:106750004A46284609F020FF0028A5D1C7F1080ABB
:10676000BDF80E0000EB08060024CDF818906D1C53
:10677000EDB20123524605A906A807F0FBFD002350
:10678000324605A906A807F0F5FD1FE75C7E00303C
:10679000ACD50700CC238000D8328000641F800075
:1067A000E20C0101523A353A25732C204C25642025
:1067B000666C61736820737461746520307825306D
:1067C00032582C206572726F72203078253038581C
:1067D0000D0A00000221B0FBF1F2FF2A04D8B0FB41
:1067E000F1F201FB12022AB1491CC9B24029F2D3CD
:1067F00000207047B0FBF1F0C0B2704710B568F4EC
:1068000091D2BDE8104008F037B810B568F4AAD2AC
:10681000BDE8104008F030B870B5044615461E4675
:106820002A462068FBF764FC306828443060206802
:106830002844206070BD000010B50548017B491C4C
:106840000173002073F4D2D1BDE8104000F044B8C9
:10685000707F00303EB5FEF7EDFF1A48016821F465
:1068600000310160174D083D2868174980B2084380
:106870002860164803C8CDE9000112482C3800688A
:1068800000F007011DF80100C82110FB01F402F01F
:10689000DBFE0F4841684268521AA242FBD302F065
:1068A000B7FE07F02FFD02909DF8080028B19DF873
:1068B0000800084948618861C861286820F07F4065
:1068C00028603EBD30C500A000008F11186B00018C
:1068D000001000E0707F00302DE9FC41294D286850
:1068E00020F07F4040F088502860274803C8CDE959
:1068F0000001244824380068C82100F007001DF872
:10690000000010FB01F402F09FFE2048416842683D
:10691000521AA242FBD302F07BFE002607F0F2FCE3
:106920000446DFF86C80D8F81800844201D90127AA
:1069300000E0002773F400D040B91FB1D8F8180068
:10694000201A02E0D8F81800001BC6B2D8F81800C8
:10695000C8F82000B6EB900F03D8292C01D8112CD1
:1069600002D200F017F807E000EBC00020440A2133
:10697000B0FBF1F0C8F81800286820F07F402860CC
:10698000BDE8FC8128C500A0186B0001001000E0E4
:10699000707F00302DE9FF5F4FF0000B0824DFF817
:1069A0006C811A20C8F8140059480168594A89B204
:1069B0001143016003A8FCF767F80220FCF76CF8AC
:1069C000DFF84C9109F10809D9F8000020F47C3077
:1069D00040F42030C9F800004FA003C8CDE9000101
:1069E000DFF82CA1AAF1240ADAF80000C82100F08F
:1069F00007001DF8000010FB01F502F025FE484FCE
:106A000078687968091AA942FBD302F001FE07F001
:106A100079FC02909DF80810D8F81400814204D93E
:106A20009DF80820811C8A425AD99DF8081081429D
:106A300004D29DF80820811E8A4251D29DF8081088
:106A4000814201D9012500E0002515B1641C64B222
:106A500001E0641E64B2202C11D3D9F8000020F4A8
:106A60007C3040F42030C9F80000D8F83C00401CCD
:106A7000C8F83C00002002904FF0010B30E0D9F83C
:106A8000000020F47C3040EA043040F40030C9F8C3
:106A9000000021A003C8CDE90001DAF8000064215C
:106AA00000F007001DF8000010FB01F602F0CCFD1D
:106AB00078687968091AB142FBD302F0A9FD07F0A2
:106AC00021FC029035B19DF80800D8F814108842D6
:106AD000BBD805E09DF80800D8F814108842B4D35C
:106AE0009DF80C00FBF7D8FF0948016821F07F41B1
:106AF00001609DF80800C8F81800D8F82400401C70
:106B0000C8F8240004B05846BDE8F09F707F0030FC
:106B100028C500A000008F11403010181020000080
:106B2000001000E030B54FF0FF330022064C07E0C4
:106B3000855C5D40EDB254F8255085EA1323521C64
:106B40008A42F5D3D84330BD080E01010A493228E4
:106B500008DDD1F8200220F4706040F44070C1F8E4
:106B6000200270472828FCDAD1F8200220F4706057
:106B7000C1F820027047000000E000A02DE9F041BC
:106B800005460E461746094C2378002B02D00020FC
:106B90006FF486D13A463146284602F055FE054646
:106BA00020786FF47DD12846BDE8F081C9238000AC
:106BB0002DE9F04105460E461746094C2378002B77
:106BC00002D000206FF46CD13A463146284602F0DC
:106BD0004BFE054620786FF463D12846BDE8F0816E
:106BE000C92380000121024A002068F4BD970000FB
:106BF0007591000110B5104C02220421204604F0CA
:106C000069FD01221021204604F064FD022280214A
:106C1000204604F05FFD02224021204604F05AFD88
:106C200002222021204604F055FD20460222BDE824
:106C30001040082104F04EBD001001A02DE9F047DE
:106C400082462DED028B84B0894617469846002077
:106C50000290039000250026019001A808F09AFEFA
:106C60003748016821F4C07141F08001016041683A
:106C700021F4805141600024504608F04DFC07F09B
:106C800057FC02F0B3F9029002980644484608F017
:106C900043FC07F04DFC02F0A9F90390DDE9021076
:106CA000401A0544641C072CE6DB2846FBF768FA0B
:106CB0009FED248B53EC182BFBF7E0FB41EC100B02
:106CC000FCF7C2F851EC100BFBF766FC04463046AB
:106CD000FBF756FA53EC182BFBF7D0FB41EC100BEB
:106CE000FCF7B2F851EC100BFBF756FC0346002002
:106CF000164A1CE000FB04F1B1FBF7F119440291C4
:106D0000134D0299B5FBF1F108F80010114D0299ED
:106D1000B5FBF1F19DF804502944C9B21154802902
:106D200003D90D4D2D7829441154401CC0B2B842EE
:106D3000E0D307F0D9FB04B0BDEC028BBDE8F087CF
:106D4000802001B00000000000001C40B0D20030E4
:106D500000C0A8320080D725888100302DE9FE4F81
:106D600007460D4602AA2946384609F039FA10B1FD
:106D70000298BDE8FE8F029C00260296DFF868802C
:106D800098F8000010B100206FF48AD0DFF85CA002
:106D90004FF6FF7908226946204602F055FDBDF8FE
:106DA0000000484502D12E80029617E0B84206D175
:106DB00015B1BDF802002880083402940EE0BDF839
:106DC00002006EF4F9D4BDF80210083021444418D2
:106DD000DAF800008442DDD32E80029698F8000095
:106DE0006FF45ED00298C4E7C9238000D0238000EE
:106DF00070B506460024094D0BE004EBC40005EB1A
:106E00008000801C07223146FBF79DF920B1641CED
:106E1000E4B22878A042F0D8204670BD00CF003000
:106E200010B50021084B5A695B8809E052F83140DF
:106E3000844203D102EBC100406810BD491C89B2F5
:106E40009942F3D310BD0000C87D003010B5002179
:106E5000084B5A681B8809E052F83140844203D13C
:106E600002EBC100406810BD491C89B29942F3D3BE
:106E700010BD0000F07D00300349095C002902D0FC
:106E8000002105F073B970476AD0003070B5044630
:106E900000BFFBF7D4FF05460120FCF754F8094872
:106EA000047024B9482208490848FBF721F91DB9A4
:106EB0000020FCF748F802E00120FCF744F800BF8E
:106EC00070BD0000C07D003088CC0030002000E0A4
:106ED00010B5074840680749486006480830402216
:106EE00003490831FBF704F903200249086010BD8B
:106EF00040CC0030002000E070B500BFFBF79FFFE2
:106F000005460120FCF71FF80B48047834B94822E5
:106F10000A490B48FBF7ECF8FFF7DAFF01200649B6
:106F200008701DB90020FCF70EF802E00120FCF704
:106F30000AF800BF204670BDC07D0030002000E090
:106F400088CC003013B501216846FDF751FB0120C4
:106F50001CBD00002DE9FC410C46474A6178A07831
:106F600052F82110CDE90010237844A2102100200E
:106F700000F49AF4607801264F4F052530B10128BE
:106F800037D0022849D0032872D15AE020786BF418
:106F900085D3C0B2C0EBC00107EB81014D72A2786E
:106FA000452A09D1CA681278022A17D091F8202000
:106FB000022A01D081F8206091F82020012A04D013
:106FC000022A02D0032281F8202091F82020022AF0
:106FD0004ED0C9680978022906D102E007224A7218
:106FE000EAE7A178452943D0344A00211268904746
:106FF0003EE087F89950A078452805D197F89C0085
:10700000022801D087F89C6097F89C0002282FD0B6
:107010002B490020096888472AE087F8A550A07806
:10702000452805D197F8A800062801D087F8A86060
:1070300097F8A80006281BD0224900200968884735
:1070400016E020786BF48CD3C0B207EB001181F806
:10705000B150A278462A01D0CE2A01D181F8B3508E
:1070600091F8B310022903D0174A00211268904703
:107070000020BDE8FC81000068228000523A313ACD
:107080006163742073746F707065642C2061637425
:107090005F6964783A2025642C206163745F747999
:1070A00070653A2025732C20726561736F6E3A20EB
:1070B0003078253032780A007C278000102280004A
:1070C00014228000182280001C22800010B58AB093
:1070D0000C46FF2228216846FBF71CF840F20A20E4
:1070E000ADF80000ADF802406846FEF7D7FB0AB0E5
:1070F00010BD10B58AB00446FF2228216846FBF770
:1071000009F840F20D20ADF800000020ADF80200B3
:107110001C22214602A8FAF7EBFF1C3409946846AA
:10712000FEF7BCFB0AB010BD30B58BB005460C466F
:10713000FF22282101A8FAF7EDFF40F20722ADF85F
:107140000420ADF806408DF8085001A8FEF7A6FB14
:107150000BB030BD37B58AB005460C46FF2228215A
:107160006846FAF7D7FF4FF40272ADF80020ADF889
:1071700002408DF804509DF830008DF808006846F4
:10718000FEF78CFB0DB030BD00B58BB0FF2228217F
:1071900001A8FAF7BFFF4FF44170ADF804000020DA
:1071A000ADF8060001A8FEF779FB0BB000BD0000AA
:1071B0002DE9FF470C4666788DF80D6020784FEA80
:1071C0001329CDE900905A4B5AA2102102960020B3
:1071D00000F46AF320786449644F4FF0000801EB33
:1071E000C905092861D008DC092824D2DFE800F0AD
:1071F0009A8B9A4A4A9A9A24240017282FD004DCA2
:107200000B2807D0142816D16AE0182814D01928A2
:1072100011D111E0607822280DD1002069F430D01E
:107220005348006828B143681BB100220F2148462B
:10723000984769F45BD075E069F418D7044685F87F
:107240000580002069F41CD0386828B1436D1BB15B
:10725000224631464846984769F448D062E069F4CE
:1072600005D7044685F80480002069F409D0386801
:1072700028B183681BB1224631464846984769F4D5
:1072800035D04FE069F4F2D6044685F80680002038
:1072900068F4F6D7386828B1836D1BB122463146B1
:1072A0004846984769F422D03CE069F4DFD60446AA
:1072B00085F80280002068F4E3D7386830B1C36CE9
:1072C00023B136B1224631464846984769F40ED07C
:1072D00028E0002CFAD02246314648469847F5E788
:1072E00069F4C4D6044685F80380002068F4C8D742
:1072F000386828B1C36D1BB12246314648469847CD
:1073000068F4F4D70EE0607860B1002068F4B8D774
:10731000386828B1C36B1BB1617800224846984792
:1073200068F4E4D769F4A8D604B00020BDE8F0877B
:10733000EF0C0101523A313A25733A20636F6E69BE
:107340006478203D2025642C206F70636F64652075
:107350003D20305825782C206572726F72203D20B8
:1073600030582578000000002A27800098218000EE
:10737000EC23800010B58AB00446FF22282168461D
:10738000FAF7C8FE40F20331ADF80010ADF8024044
:107390006846FEF783FA0AB010BD70B58AB005469C
:1073A0000C461646FF2228216846FAF7B3FE40F243
:1073B0000131ADF80010ADF802408DF804501222F2
:1073C000314602A8FAF794FE6846FEF767FA0AB05B
:1073D00070BD70B58AB006460D461446FF222821BE
:1073E0006846FAF797FE4FF44273ADF80030ADF8F7
:1073F00002508DF8046020680290A088ADF80C005F
:107400006846FEF74BFA0AB070BD00002DE9F04166
:10741000ADF50E7D0C461E0A304661F4DBD40746FE
:10742000304661F4D7D4002834D04DA100913346C2
:107430004DA21021002000F437F2FF2E5BD0574DF3
:107440002088288060886880A088A880E088E880FC
:10745000207A2872607A68722F74D4F80A00C5F80E
:107460000A00E089E8814E4A002102EBC600016073
:107470004160218822F836104FF4CA7129A8FAF722
:1074800050FE29A85EF4CED1687ADFF81881012871
:1074900016D101E044A1C9E7E87B0121B1EB901FBF
:1074A0000ED198F81C0140070AD59DF8A40038B108
:1074B000A02101A8FAF735FE002429AD01AF3DE077
:1074C00004F10A02617A1546304672F475D7617A82
:1074D0002A46304601F0A0F9354C6FB1002068F41F
:1074E000CFD6206828B1836B1BB12C4A00213046CF
:1074F000984768F4FBD62DE0032088F8A800D8F858
:10750000AC000078012825D1002068F4B9D62168A4
:1075100029B18B6B1BB1214A00213046984768F492
:10752000E5D617E004EB840005EBC001093107EB59
:1075300004101022FAF7DCFD641CE4B29DF8A400EC
:10754000A042EFD815499DF8A43001AA0A3130466F
:107550006BF4D8D50DF50E7D0020BDE8F08100005C
:10756000534C415645000000523A313A636F6E6EFB
:10757000656374696F6E5F7265715F696E645F6881
:10758000616E646C65723A20636F6E696478202561
:10759000642C20726F6C652025730A001827800008
:1075A0002A2780007C2780004D415354455200001B
:1075B0009821800070B58AB006460D461446FF2219
:1075C00028216846FAF7A6FD40F20533ADF80030F1
:1075D000ADF802508DF8046020680290A088ADF8E4
:1075E0000C006846FEF75AF90AB070BD30B58BB092
:1075F00005460C46FF22282101A8FAF78BFD40F230
:107600000632ADF804200022ADF806208DF80850AF
:10761000206803906068049001A8FEF73FF90BB062
:1076200030BD70B58AB00C46E079FF282FD0002518
:107630006BF414D0C6B216B1032E05D008E0E07981
:107640006BF42CD0C5B203E0E0796BF489D0C5B2FD
:10765000002068F415D6FF2228216846FAF75AFD63
:1076600040F21220ADF800000020ADF802008DF8C5
:1076700004508DF808602068CDF80900A088ADF8A6
:107680000D006846FEF70AF968F430D61AE00021CA
:107690000E2064F429D10546A5B101202870206888
:1076A000C5F80300A088A5F80700A0796872E07902
:1076B0006AF4F4D7A8700E21284669F4EBD4284662
:1076C00064F410D10AB0002070BD30B58BB0044610
:1076D0000D46FF22282101A8FAF71CFD40F20622E0
:1076E000ADF80420ADF806400E22294603A8FAF7AB
:1076F000FFFC01A8FEF7D2F80BB030BD30B58DB05D
:1077000006200C90504C032020700F206070002544
:1077100084F82F5084F82E504FF40070E0842085B8
:107720000A2084F82A00FB20608440F64800A084E8
:107730000AAA0CA90120FEF769FA18B106A808F0F8
:107740005DF9D0B1A5764FF461706080208C40F077
:107750008000208404A84CF4EDD5049805990844D1
:10776000FAF7BEFC009501950295039506A808F06E
:1077700045F9354C0A34E8B35EE00120A076334881
:10778000007820B39DF81800412813D09DF82200FE
:1077900020719DF8250060719DF82600A0719DF86C
:1077A0002700E07108F062FA2072C02141EA10203F
:1077B0006072C8E79DF8200020719DF8210060717B
:1077C0009DF82200A0719DF82300E071EAE79DF882
:1077D0001800412815D09DF82200A0719DF82500C1
:1077E000E0719DF8260020729DF8270040F0C0004F
:1077F000607200E014E008F039FA6071000A20714C
:10780000A1E79DF82000A0719DF82100E0719DF88E
:10781000220020729DF8230040F0C0006072E8E76B
:107820001022694606A8FAF78EFC28B1102206A994
:107830002046FAF75DFC02E0204672F409D502F01A
:10784000B3FF0DB030BD00007E2880002C7E0030DC
:1078500070B58AB005460C461646FF2228216846B8
:10786000FAF758FC40F20233ADF80030ADF80240B0
:107870008DF804508DF808606846FEF70FF80AB0DE
:1078800070BD000070B50D46EFF311801D490A78F8
:107890001D490968C1F30221491C01248C401119BA
:1078A000C9B281F311881C0A1849002301EBC402F4
:1078B000136053604FF6FF7221F83420C0B280F39A
:1078C0001188AB7812A210210020FFF7EDDF2046CF
:1078D00072F40AD620466DF47FD2204672F40CD59D
:1078E000002068F4CDD4114802683AB1D36B2BB1B3
:1078F000A8789030C2B200212046984768F4F6D4A8
:10790000002070BD02E400E00CED00E02A278000BA
:10791000523A313A646973636F6E6E2072656173B7
:107920006F6E203D20307825780A00009821800075
:107930002DE9FC5F0446EFF311870220FBF72FFAD5
:107940000546FBF74BFA401C4FF0010B0BFA00F019
:107950002844C0B280F3118868F4C8D48146674DCA
:107960000094DFF89C8195F8A50066A2102158F8D4
:1079700020300020FFF798DF8DF8054095F8A530FE
:1079800007200C210D2200264FF0090A0A2B74D281
:10799000DFE803F0050C9C9C9C19283C424D6AF4DE
:1079A00011D085F8A5B085F8A86095E0002C09D025
:1079B00085F8A56085F8A6608DF8041001A900205F
:1079C00068F45AD588E095F8A600A22804D06AF495
:1079D000E7D185F8A5A07FE06CF4B4D0062085F847
:1079E000A50079E04CB16AF4DBD185F8A5A00420AC
:1079F00085F8A80085F8A9406EE085F8A5008DF807
:107A0000041001A9002068F437D565E06CF4ECD1CE
:107A1000082085F8A5005FE0002C5DD085F8A50062
:107A20008DF8042001A9002068F426D554E0A4357F
:107A30006E70FF2028702879A43D042807D00628FE
:107A400012D03D4C012819D0032824D044E085F8F9
:107A5000A8608DF8041095F8A9008DF8050001A91B
:107A6000002068F409D537E085F8A8608DF8042077
:107A700001A9002068F400D52EE027E085F8A86071
:107A8000002068F4FDD3206810B1406C00B180473D
:107A900068F42CD420E085F8A860D5F8AC00007814
:107AA000012819D0002068F4EBD3206858B1806B0E
:107AB00048B1224800886DF4B5D62168C0B21F4A8B
:107AC0008B6B0021984768F411D405E04FF477726E
:107AD0001BA121A0FFF7E6DE95F8A5001FA210214B
