:020000040100F9
:10200000000084004122000149220001354880007F
:10201000FF210001FD210001593F000100000000E7
:10202000000000000000000000000000DD4980000A
:102030005322000100000000552200015922000136
:1020400000F002F800F0C2F80AA090E8000C824408
:102050008344AAF10107DA4501D100F0B7F8AFF2E5
:10206000090EBAE80F0013F0010F18BFFB1A43F076
:1020700001031847F8D7000048D800000A444FF081
:10208000000C10F8013B13F0070408BF10F8014BD7
:102090001D1108BF10F8015B641E05D010F8016B1C
:1020A000641E01F8016BF9D113F0080F1EBF10F880
:1020B000014BAD1C0C1B09D16D1E58BF01F801CBA3
:1020C000FAD505E014F8016B01F8016B6D1EF9D526
:1020D0009142D6D370470000103A24BF78C878C127
:1020E000FAD8520724BF30C830C144BF04680C601E
:1020F000704700000023002400250026103A28BF66
:1021000078C1FBD8520728BF30C148BF0B60704769
:102110006E2900F02284702900F0C78166290DF035
:10212000C38165290DF0C08167290DF0BD8161294A
:102130000DF0BC8103681B0A28BF41F080016929AA
:1021400000F03881642900F03581752900F0328172
:102150006F2900F02285782900F09381E92900F0A9
:10216000BD84E42900F0BA84F52900F0B784EF2992
:1021700000F01F85F82900F092810368DB0928BF71
:1021800041F08001632900F02C84732900F0318430
:10219000E32901F0F580F32901F0FA80002070476F
:1021A0001FB50DF04DF901F023F9040000200021C6
:1021B0000CF034FC401C6060002000210CF018FC86
:1021C000E06000F04DFB1FBD10B510BDDFF80CD076
:1021D000FFF7E6FF0AF08EF801F0C0F90000840076
:1021E00003B4FFF7F1FF03BC01F0FBFE02F0FF03B5
:1021F00043EA032242EA024200F0EABAFEE7FEE7BF
:1022000058585247010000001555000000200001F9
:10221000002000016EED52490101000000000000A5
:1022200000000000000000000000000000000000AE
:10223000000000000000000000000000000000009E
:102240000648804706480047FEE7FEE7FEE7FEE750
:10225000FEE7FEE7FEE7FEE7FEE70000293F00019C
:1022600059C400017CB51D4616460C00009001D0F3
:102270002044401E074B7B442A4669460190304665
:1022800000F085FB05461CB10020694600F092FB7A
:1022900028467CBD450700000FB4044910B503AAC9
:1022A000029800F0ABFB10BC5DF814FBF443800017
:1022B0000FB41CB5084B06AA7B44694600900598EC
:1022C00000F065FB04460020694600F073FB2046E1
:1022D0001CBC5DF814FB0000F90600000FB47CB5CF
:1022E0000C0009AA009001D02044401E084B7B44FA
:1022F00069460190089800F04AFB05461CB1002091
:10230000694600F057FB28467CBC5DF814FB0000D2
:10231000CD06000070B5044685690068C10601D588
:10232000302600E02026C00707D070BDD4E9012187
:1023300030469047206A401C20626D1EF6D570BD65
:1023400070B5044685690078C00707D170BDD4E92F
:10235000012120209047206A401C20626D1EF6D586
:1023600070BD70B50C460546012A05D02878800658
:1023700000D5EA69002302E0012305E05B1C9342DB
:1023800002D2E05C0028F9D1A869E618C01AA86159
:10239000286A184428622846FFF7BCFF04E0D5E904
:1023A000012114F8010B9047B442F8D32846FFF7F7
:1023B000C7FF70BD2DE9F04106460024106875295D
:1023C000314616A510D000F05DFA002802DA40422E
:1023D00013A507E031688A0701D512A502E0490775
:1023E00004D511A5012401E000F055FA00210A22CC
:1023F00006F1240709E0B0FBF2FCB0FBF2F302FBAC
:102400001C00303078541846491C0028F3D123466C
:102410002A463046BDE8F04100F046BA0000000010
:102420002D0000002B00000020000000F0B40D463D
:102430000188090502D5214C7C4402E01F4C7C44F4
:102440000E34002100F1240608E002F00F07120903
:10245000E75D42EA03721B097754491C52EA0307FD
:10246000F3D102780023120704D5702D06D009B1EC
:10247000022311342246F0BC00F016BA01231034B6
:10248000F8E770B504460D462146106800F003FADF
:10249000024629462046BDE870400023C6E7D21D0B
:1024A00022F00703D3E90023C0E70368126843F072
:1024B000200303600823C3610023B7E7F4D20000C0
:1024C0002DE9F05F894604464FF0000ADFF874B149
:1024D000FB44C0F820A02046E1688847002874D05B
:1024E000252806D0D4E901219047206A401C2062AB
:1024F000F1E700265F462046E16888472028054628
:1025000007DB312D05D2781910F8200C08B10643ED
:10251000F1E7B00701D526F00406C4F81CA0002797
:10252000C4F818A02A2D09D0284601F053FD38B36D
:1025300004EB8708303DC8F8185019E059F8041B1F
:10254000204604EB87029161E1688847012F054628
:1025500018D1E069002820DA26F020061DE0D8F81E
:10256000180000EB800005EB40003038C8F8180078
:102570002046E1688847054601F02CFD0028EED191
:10258000012F0AD02E2D08D12046E16888477F1CF4
:102590000546022F46F02006C4DBA069002803DAB6
:1025A000404246F00106A061F00701D026F0100677
:1025B0006C2D0BD0682D09D04C2D39D06A2D35D01B
:1025C000742D35D07A2D33D016E038E0E1682F46EF
:1025D00020468847B842054609D16C2F26D04FF4D3
:1025E0008060E168064320468847054604E06C2F7A
:1025F0001AD04FF4807006430DB3A5F1410019289D
:1026000002D8203546F400664A4629462046266010
:102610004E46FFF77DFD80B101280BD0F61D26F058
:10262000070000F1080956E74020E4E78020D8E7DA
:102630000020D6E706F104094DE7284652E7206A54
:10264000BDE8F09F84D2000040EA010310B59B076B
:102650000FD1042A0DD310C808C9121F9C42F8D00C
:1026600020BA19BA884201D9012010BD4FF0FF30BD
:1026700010BD1AB1D30703D0521C07E0002010BDD3
:1026800010F8013B11F8014B1B1B07D110F8013B5F
:1026900011F8014B1B1B01D1921EF1D1184610BD40
:1026A00010B5431C02E010F8011B71B18107FAD18B
:1026B0004FF0013202C88C1A8C4314EAC211F9D0CF
:1026C000C01A0A0603D0C01E10BDC01A10BD0A04ED
:1026D00001D0801E10BD0902FCD0401E10BD032A8F
:1026E00040F2308010F0030C00F0158011F8013B2F
:1026F000BCF1020F624498BF11F801CB00F8013B16
:1027000038BF11F8013BA2F1040298BF00F801CBD9
:1027100038BF00F8013B11F0030300F02580083AB0
:10272000C0F0088051F8043B083A51F804CBA0E807
:102730000810F5E7121D5CBF51F8043B40F8043B5C
:10274000AFF30080D20724BF11F8013B11F801CB91
:1027500048BF11F8012B24BF00F8013B00F801CB62
:1027600048BF00F8012B704710B5203AC0F00B802D
:10277000B1E81850203AA0E81850B1E81850A0E885
:102780001850BFF4F5AF5FEA027C24BFB1E81850DF
:10279000A0E8185044BF18C918C0BDE810405FEA4F
:1027A000827C24BF51F8043B40F8043B08BF7047CB
:1027B000D20728BF31F8023B48BF11F8012B28BFD0
:1027C00020F8023B48BF00F8012B70474FF0000291
:1027D0000429C0F0128010F0030C00F01B80CCF133
:1027E000040CBCF1020F18BF00F8012BA8BF20F8A1
:1027F000022BA1EB0C0100F00DB85FEAC17C24BFF5
:1028000000F8012B00F8012B48BF00F8012B70479E
:102810004FF0000200B5134694469646203922BF79
:10282000A0E80C50A0E80C50B1F12001BFF4F7AFC4
:10283000090728BFA0E80C5048BF0CC05DF804EBA6
:10284000890028BF40F8042B08BF704748BF20F814
:10285000022B11F0804F18BF00F8012B70470000C9
:1028600070B5064C7C44064D7D4403E0206820444E
:102870008047241DAC42F9D170BD000080D100001A
:1028800080D1000009684A0501D540B27047C905EA
:10289000FCD500B2704709684A0501D5C0B270473F
:1028A000C905FCD580B270472DE9F0470D46994621
:1028B0009246044600F124080168880604D5E069C0
:1028C00021F01001216000E00120A84201DD471B3A
:1028D00000E00027A1697A1902EB0900081AA0613B
:1028E0002078C00602D42046FFF714FD002608E039
:1028F000D4E901211AF806009047206A401C761C92
:1029000020624E45F4DB2078C0060AD52046FFF74A
:1029100001FD06E0D4E9012130209047206A401CE7
:102920002062381EA7F10107F4DC07E0D4E9012199
:1029300018F805009047206A401C2062281EA5F167
:102940000105F3DC2046FFF7FBFC2078000602D5EA
:102950000220BDE8F0870120FBE711680268006AE9
:10296000530501D508700AE0D30501D5088006E0BB
:10297000130603D5C217C1E9000200E00860012078
:102980007047000001694A1C02610878704700B571
:102990008FB0CDE901310021059105497944CDE998
:1029A000031011466846FFF78BFD0FB000BD000015
:1029B000E5FFFFFF0A6802F8010B0A607047D1E9E2
:1029C00000239A4202D2531C0B601070704710B55E
:1029D000436913B1AFF3008001E0FFF7C2FC0120AF
:1029E00010BD127800F124010A7000224A70012201
:1029F000EDE711684FF0FF32E9E70000074B70B5D3
:102A00000D467B44FFF7C3FF0446284600F0C4FC94
:102A100010B14FF0FF3070BD204670BDD7430000AD
:102A20002DE9FF5F15468A460446DFF8AC80F8447E
:102A30000027D8E900103E46CDE9001010E03AF832
:102A400016106A4602A800F0ABFC411C07D02178A2
:102A5000890603D5E269391891420DD80744761CDE
:102A60002078800602D5E069B84205DDAE42E6DB9B
:102A70003AF816000028E2D1A069C01BA0612046E8
:102A8000FFF748FCD8E90010CDE90010002017E05E
:102A90003AF818106A4602A800F082FCB0F1FF3F35
:102AA00081460BD000250DF1080B05E0D4E901218A
:102AB0001BF8050090476D1C4D45F7D308F1010048
:102AC000B0428046E4DB206A384420622046FFF7AB
:102AD00037FCBDE8FF9F00003ACD00002DE9F04132
:102AE0008046D21D22F007020025D2E90002F52916
:102AF00015A614D0011E72F1000106DA0023D0EBF6
:102B0000030063EB020211A608E0D8F800108B075F
:102B100001D50FA602E0490701D50EA601251146F1
:102B2000002408F1240704E000F04EF830323A5552
:102B3000641C50EA0102F7D12B463246214640463A
:102B4000BDE8F041FFF7B0BE000000002D0000001E
:102B50002B0000002000000030B4002100F124040C
:102B600008E002F00705D208303542EA4372DB087C
:102B70006554491C52EA0305F3D10468002310A2EE
:102B8000250707D5A40600D421B1C46901230DA2ED
:102B9000641EC46130BCFFF787BE10B504462146F1
:102BA0001068FFF778FE02462046BDE8104000237B
:102BB000D2E7D21D22F00701D1E90023CCE70000C3
:102BC000000000003000000030B5B0F10A024FEA0A
:102BD000900E71F100034EEA817EB0EB0E0061EBC6
:102BE00091014FEA101E4EEA017E10EB0E0041EB00
:102BF00011114FEA102E4EEA016E10EB0E0041EB60
:102C000011214FEA104E4EEA014E10EB0E0041EB3F
:102C10001141401841F100014FEAD00040EA4170F3
:102C20004FEAD10110EB80054FEA810444EA907429
:102C300044EB01046D1944EB0404521BA3414FF013
:102C4000000348BF0A3200D530BD401C41F10001ED
:102C500030BD70472DE9FF4F0C461E464FF0FF3741
:102C60008BB0D2E90001DDF860800A908A46C1F39A
:102C70000A5505B93D46002108464FF00000BAF15B
:102C8000000F00F4400005DA00EB80004FF4400133
:102C900001EA50004FEA9059B9F1010F00DDB94641
:102CA0000A9850EA4A000ED044F61050A5F2FF35BB
:102CB00045432F14B8F1000F1ED07542291E1EDDAA
:102CC000C9F100021CE0B8F1010F4FF0000001D083
:102CD000302103E0F24305E02154401CB042FBDB0D
:102CE00030460022002121540B99C1F80880C1E927
:102CF00000200FB0BDE8F08FBD1B6D1CDEE74A461B
:102D000000DA694206A800F0B7FB06AB93E80700BB
:102D100003AB83E8070050460A9900F069FC8DE890
:102D20000700A0F500501F3800900398002D0ADD21
:102D300042F21F014A460844002303A90390684653
:102D400000F0D2FE09E0A0F500504A461F380023EB
:102D500003A90390684600F0DCFE8DE8070000043C
:102D6000000C03D04FF0FF30410800E01046B8F1EE
:102D7000000F03D00022009215461EE0751E05D4F8
:102D8000FFF722FF303262556D1EF9D5B34601229E
:102D9000084302D000227F1C04E02078302801D1B3
:102DA00000227F1E002A099784D01DE0112D07DA2A
:102DB000FFF70AFF303262556D1C50EA0102F5D16F
:102DC000084302D00098C8B10EE00021681E05E05B
:102DD000235C625C63542254401E491C8142F7DB31
:102DE000AB46A81B401E0990002004F80B000B986E
:102DF000099AC0F80880C0E9002B7AE711264FF045
:102E0000000857E72DE9F04F88460446D21D22F00E
:102E1000070191B0D1E90001CDE90A0101F09DF867
:102E200002460B98C00F01D02D2007E020688107D3
:102E300001D52B2002E0202101EAC000032A0990DD
:102E400001D0072A05DB03464146204600F0D4FAAC
:102E50000BE12078800601D5E06900E00620B8F19A
:102E6000650F814606D0B8F1660F18D0B8F1670F2C
:102E700070D131E00020B9F1110F009001DB112376
:102E800001E009F101030AAA01A90CA8FFF7E2FE7B
:102E9000DDE90C70002609F10105834647E00120B9
:102EA0004B4600904FF000470AAA01A90CA8FFF773
:102EB000D1FEDDE90DB00C995D46002610B909F18F
:102EC00001000D18B9EB050003D4C0F1FF3609F17C
:102ED0000105A5EB09002BE0B9F1010F01DA4FF074
:102EE00001090020B9F1110F0090484601DD1123BE
:102EF00000E003460AAA01A90CA8FFF7ABFEDDE932
:102F00000C704D4600268346207800070AD4AB4556
:102F100000DA5D4601A8012D04DD411911F8011CFC
:102F2000302907D04F4502DA17F1040F04DA0120E7
:102F300082460FE06D1EEEE7002F02DCED1B3E44E3
:102F400003E0781CA84200DD7D1CB81B00F1010ADB
:102F50004FF000472078000703D4AA4501DB4FF06B
:102F6000FF3A0021B7F1004F0DF143088DF84310EF
:102F700024D002202B23002F01DA7F422D230A21A7
:102F8000021EA0F1010000DC5FB197FBF1FC97FB92
:102F9000F1F201FB1C7C17460CF1300C08F801CD56
:102FA000EEE7A8F1010003702188090501D545214C
:102FB00000E06521A0F1010800F8011C09980FA9A3
:102FC000A1EB0807FF1D00B10120411901EBEA70D8
:102FD000A1693844081A401EA0612078C00602D4B6
:102FE0002046FFF797F9099828B1D4E901219047C5
:102FF000206A401C20622078C00622D52046FFF7B8
:1030000089F91EE0002E04DBB34502DD01A8805DD6
:1030100000E03020D4E901219047206A401C206262
:10302000761CAAF101005FEA000A0AD100F0E0F97B
:10303000C0680168405CD4E901219047206A401CC7
:103040002062281EA5F10105DCDC07E0D4E901219E
:1030500018F8010B9047206A401C2062381EA7F127
:103060000107F3DC2046FFF76BF9032011B041E6BE
:103070002DE9F04F04460D46D21D22F0070089B01D
:10308000D0E900974846394600F067FF0246F80F3E
:1030900001D02D2307E02068810701D52B2302E012
:1030A000202101EAC0038DF820300BB1012000E09F
:1030B0000020032A824601D0072A04DB2946204645
:1030C00000F09AF93FE12078800601D40D2500E058
:1030D000E569C7F30A560D2D49DA00214FEA175B5F
:1030E00008464FF00000002F00F4400007DA00EB24
:1030F00080004FF4400100EBD07001EA60008115C0
:10310000012901DD4FF0FF3100224FEA850CBCF1AF
:10311000180F06D31346ACF118004FF08052C2408E
:1031200003E04FF4801323FA0CF30CF10C0CBCF108
:10313000200F04D3ACF1200C09FA0CF001E007FADF
:103140000CF000294FF0004801DD18B90FE00ED156
:1031500040450CD319EB02095F4121B9404502D12A
:103160009F4329EA0209BBEB175F00D0761C208839
:10317000000502D57B48784402E07A487844193843
:1031800008AA302302F80A30037C0AF10101002E5C
:103190000AF1020A53546A4602DC4FF0300101E0A2
:1031A0004FF031014FF001088DF8001002D0A6F267
:1031B000FF3603E059EA470100D06B4E002D02DCD8
:1031C0002178090704D54FF002082E218DF801104F
:1031D000C44600210BE0C7F303433F01C35C491C15
:1031E0006D1E02F80830052908F1010801DA002DEA
:1031F000F1DC00210CE000EB1973491C1B786D1EFB
:10320000082902F808304FEA091908F1010801DA23
:10321000002DF0DC21688B0602D516E0A8F101082C
:10322000E04505DD02EB080313F8013C302BF5D037
:10323000B8F1000F09DD02EB080313F8013C2E2B57
:1032400003D1090701D4A8F10108002D05DD3E21B5
:1032500002F808106D1E08F10108407C002E02F8EB
:10326000080008F1010804DA2D20764202F808006F
:1032700002E02B2002F808000A214FF47A708642FF
:1032800008F101080BDB96FBF0F3303302F808304D
:1032900096FBF0F308F1010800FB136601E0642ED1
:1032A0000CDB642096FBF0F3303302F8083096FB19
:1032B000F0F308F1010800FB136601E00A2E06DBBB
:1032C00096FBF1F0303002F8080008F1010896FB97
:1032D000F1F001FB1060303002F80800A16908F13C
:1032E000010808EB050202EB0A00081AA061207829
:1032F000C00602D42046FFF70DF8216A08AE01EBA4
:103300000A00206204E0D4E9012116F8010B90477D
:10331000BAF1010AF7D22078C00602D52046FEF79E
:10332000F9FF6E4609E016F8010B3E280FD0D4E9EC
:1033300001219047206A401C2062B8F10108F2D2B6
:103340002046FEF7FDFF09B00320BDE8F08F206A9C
:103350002844206203E0D4E90121302090476D1E0B
:10336000EBD3F8E70DC6000002FCFFFF10B5436980
:1033700013B1AFF3008001E0FFF752FB012010BD55
:10338000128800F1240182840022C2840122EDE728
:1033900011684FF0FF32E9E7007B00F080007047D2
:1033A00070B516460C46054600F01AF8036893F807
:1033B0000101012806D0FF2C0FD8185D68B101204B
:1033C0002C7070BDD3F807013246214603F2071373
:1033D00003442846BDE8704018474FF0FF3070BDE9
:1033E00010B500F005F8001D10BD00BF31B600009B
:1033F00000487047407880002DE9F0411F460446A0
:1034000003260168072A01F4006004DB08B116A551
:1034100005E016A503E008B115A500E015A521F00B
:1034200010002060A069C01EA0610FB1401EA06105
:103430002046FEF76FFF4FB1D4E90121384690478F
:10344000206A401C2062C01C206206E0206AFAE765
:10345000D4E9012115F8010B9047761EF8D22046D9
:10346000FEF76EFFBDE8F0814E414E006E616E00CA
:10347000494E4600696E66002DE9F04781461646C2
:103480008AB0354878440DC88DE80D00324878443C
:10349000801C03AC0DC884E80D0041F69B30084445
:1034A000372190FBF1F290FBF1F5A5F1800501FBCE
:1034B00012041B3C02D56442012000E00020DFF82A
:1034C00098A080460027FA44AAF1BE0A0EE0E00761
:1034D0000AD03246684607EB470101230AEB810117
:1034E00000F017FB8DE8070064107F1C002CEED164
:1034F000194F7F44AE3F19E0E80715D007EB0410E1
:103500000DF1180A90E80E008AE80E00C068F0423B
:1035100001D1981908903246012306A903A800F0AA
:10352000F8FA03AB83E807006D10641C002DE3D1AB
:103530004FF0010332466946B8F1000F03A802D0EC
:1035400000F0D2FA01E000F0E4FAC9E90001C9F89C
:1035500008200AB0BDE8F08790C3000010B504460B
:10356000AFF300802046BDE81040FEF739BE0000F2
:103570004FF0013C50F8042B51F8043B9A4221D102
:10358000A2EB0C03934313EACC1317D150F8042B8E
:1035900051F8043B9A4215D1A2EB0C03934313EA72
:1035A000CC130BD150F8042B51F8043B9A4209D1AB
:1035B000A2EB0C03934313EACC13DBD04FF00000D3
:1035C000704700BFD01A01BAB1FA81F101F01801B9
:1035D00022FA01F0CB40C1F12001DBB2C0B2C01A27
:1035E0002CFA01F3D11A914311EAC311E6D17047C5
:1035F0005FEA400C08BF91F0000F4FEA8C234FEABE
:10360000C12243EA51514FEA1C5018BF00F5F04067
:103610004FEA300018BF41F000415FEA6C5C00F0F7
:103620002980BCF1FF3F08BF40F080407047130C79
:1036300006BF12044FF0100C4FF0000C130E04BF25
:1036400012020CF1080C130F04BF12010CF1040C50
:10365000930F04BF92000CF1020CD30F04BF520071
:103660000CF1010C11464FF00002A0F11F00A0EB7D
:103670000C00704711F0004F08BF704731F0004157
:103680003FF4D5AF0B0C06BF09044FF0100C4FF000
:10369000000C0B0E04BF09020CF1080C0B0F04BF49
:1036A00009010CF1040C8B0F04BF89000CF1020C12
:1036B000CB0F04BF49000CF1010CCCF12003A0EBAF
:1036C0000C0022FA03F302FA0CF241EA030100F1C2
:1036D0000100704720F07F4C80EA030023F07F4711
:1036E000ACEB070303F57C5300F0004003F1FF034C
:1036F0002DE980494FEA154B09B44FEA144325EAF6
:103700000B4E24EA03480FF2042606EB1327490860
:103710003E785FEA320203FB0667C7F5000707FB46
:1037200006F64FEA54374FEAD64606F1020607FB83
:10373000066CCCF1005C4FEA1C472CEA074C07FBF7
:1037400006F40CFB06F504EB15464FEA961634BF5B
:1037500000204FF000404FEAD13706FB07FC4FEA4C
:103760001C4C0CFB0BF7D21B03FB0CF761EB0701A6
:103770000CFB0EF7B0EB074072EB17420CFB08F79F
:1037800034BFA2EB0742B2EB074261EB17414FEAAD
:103790000C444FEA910706FB07FC4FEA1C4C0CFB5C
:1037A0000BF7B0EBC74072EB573203FB0CF734BF9B
:1037B000A2EBC742B2EBC74261EB57310CFB0EF7ED
:1037C000B0EBC70072EB57720CFB08F734BFA2EBEB
:1037D000C702B2EBC70261EB5771039F4FEA8161E9
:1037E00041EA921104EBCC044FEAD1374FEA8262EE
:1037F00006FB07FC42EA90124FEA80604FEA1C4C3D
:103800000CFB0BF7D21B03FB0CF761EB07010CFB66
:103810000EF7B0EB074072EB17420CFB08F734BF12
:10382000A2EB0742B2EB074261EB17414FEA8C551E
:103830004FEA910704EB9C2406FB07FC4FEA1C4C63
:103840000CFB0BF7B0EBC74072EB573203FB0CF7E6
:1038500034BFA2EBC742B2EBC74261EB57310CFB5E
:103860000EF7B0EBC70072EB57720CFB08F734BFD2
:10387000A2EBC702B2EBC70261EB577115EB4C2507
:103880004FEA816141EA92114FEA82624FEAD137F1
:1038900042EA901206FB07FC44F100044FEA806004
:1038A0004FEA1C4C0CFB0BF7D21B03FB0CF761EB34
:1038B00007010CFB0EF7B0EB074072EB17420CFB55
:1038C00008F734BFA2EB0742B2EB074261EB1741A6
:1038D00015EB1C154FEA813141EA92414FEA8232E1
:1038E00042EA90424FEA80304FEA0C7644F10004FD
:1038F00048EA03434EEA0B484FF0000EB2EB080CC7
:1039000071EB030724BF624639464EEB0E0E4FF0B3
:10391000000B0018524149414BEB0B0BB2EB080C6A
:1039200071EB03077BF1000B24BF624639464EEB77
:103930000E0E4FF0000B0018524149414BEB0B0BA0
:10394000B2EB080C71EB03077BF1000B24BF62465E
:1039500039464EEB0E0E51EA020718BF46F001063B
:1039600016EB0E7655F1000254F1000103D5BDE8C7
:103970008901BDE80088BDE88901BDE80048B619A5
:10398000524141EB0101A3F10103704780807F7E2A
:103990007D7C7B7A797877767675747372717170C5
:1039A0006F6E6E6D6C6C6B6A6A6968686766666577
:1039B0006464636362616160605F5F5E5E5D5D5C05
:1039C0005C5B5B5A5A595958585757565655555576
:1039D0005454535352525251515050504F4F4F4ED6
:1039E0004E4D4D4D4C4C4C4B4B4B4A4A4A49494924
:1039F0004848484747474746464645454544444466
:103A0000444343434342424242414141002B9C468E
:103A100030D477002BD01CB54FEA370703B44FF0F2
:103A200010004FF01001BAF1000F06D0BCF1000FEA
:103A3000DCBF40F0080040F008014FF000000FBC70
:103A4000BDE810400BF1010BBBF1010F08BF5FEAAD
:103A5000170722BF12F1010211F101014FF00041DD
:103A600043F1000300F0004043EA00007047F9D33F
:103A70005708D0E746EA064613F1400F4FEA1646CC
:103A80001FDD13F1200FDFBF16430A46002120334C
:103A90005B42BED0C3F1200746EA064602FA07F7AA
:103AA0004FEA164646EA0706C3F1200722FA03F258
:103AB00001FA07F721FA03F14FF0000342EA070287
:103AC000A7E746EA020646EA06464FEA164646EAEF
:103AD0000106BCBF46EA0646360C4FF000034FF025
:103AE00000024FF0000194E72DE9804C9A4693467E
:103AF00070B491E8380007C831EA400C48BF34EA96
:103B0000430C03D5FFF7E6FDFFF780FFF0BCBDE8EF
:103B1000008C2DE9804C9A46934670B491E83800A9
:103B200007C810F0804F08BF13F0804F03D100F09A
:103B300005F8FFF76BFFF0BCBDE8008C20F07F4775
:103B400080EA030023F07F4C07EB0C03A3F57C53C2
:103B500000F00040A3F1FE0392F0000F00F0B380EC
:103B600095F0000F00F077802DE901494FEA1140F0
:103B70004FEA144621EA004800FB06FC24EA064707
:103B800008FB06F607FB08F800FB07F718EB0648EA
:103B90004CEB164C4FEA124B18EB07484FEA154610
:103BA0004CEB174022EA0B4E0BFB06FC25EA0647BE
:103BB0000EFB06F607FB0EFE0BFB07F71EEB064E91
:103BC0004CEB164C4FF000061EEB074E4CEB174B20
:103BD00018EB0B0840F1000018EB0E0B58EB000837
:103BE00040F100008F1A4FF000013CBFC943661B33
:103BF00014BFB5EB040C00213CBFC943F61B4FEAD0
:103C000017444EEA8E0E27EA04454FEA1C4704FB90
:103C100007622CEA074C05FB07F70CFB05F604FBD3
:103C20000CFC16EB074642EB174216EB0C4642EB38
:103C30001C421BEB060658EB0202414146EA9E0677
:103C400001D5BDE80189B619524141EB0101A3F14B
:103C50000103BDE801894FEA14454FEA114724EA00
:103C6000054621EA074C05FB07F406FB07F70CFBAA
:103C700006F105FB0CFC11EB074144EB17444FEA3E
:103C8000124711EB0C4144EB1C4422EA074C05FBA4
:103C900007F206FB07F70CFB06F605FB0CFC16EB20
:103CA000074642EB174216EB0C4642EB1C456A18DE
:103CB00054F1000148BF7047B619524141EB010170
:103CC000A3F10103704795F0000F37D04FEA11427E
:103CD0004FEA144721EA024624EA074C02FB07F1A7
:103CE00006FB07F70CFB06F402FB0CFC14EB074485
:103CF00041EB17414FEA154714EB0C4441EB1C41D3
:103D000025EA074C02FB07F506FB07F70CFB06F656
:103D100002FB0CFC16EB074645EB174516EB0C4671
:103D200045EB1C42121951F1000148BF7047B6190A
:103D3000524141EB0101A3F1010370474FEA1445E1
:103D40004FEA114724EA054621EA074C05FB07F133
:103D500006FB07F70CFB06F24FF0000605FB0CFC18
:103D600012EB074241EB174112EB0C4251EB1C41A5
:103D700048BF7047921841EB0101A3F1010370475E
:103D800010B51E480068002800D080471C4900205C
:103D90000870811E1B4801601B494FF000700860CD
:103DA0001A4CD4F8C002800704D4F42218A11DA034
:103DB00002F418F62A480168D4F8C40261F31D30F1
:103DC00040F00100C4F8C40202F484F100214FF075
:103DD0003040C1608161C1174161016202F436F176
:103DE00008484038016821F4800101601D480068DE
:103DF000002802D0BDE81040004710BD60248000BC
:103E00006846800044C500A080E200E000E000A019
:103E1000727769705F736C6565705F636F6D6D6FEE
:103E20006E2E63004D43555F5355422D3E424C4527
:103E30005F44534C4545505F434F52525F454E20BF
:103E400026204D43555F5355425F424C455F4453D6
:103E50004C4545505F434F52525F48575F454E00B7
:103E6000542480006424800000214FF03040C16061
:103E70008161C117416101620649022004220A6082
:103E8000BFF34F8FBFF36F8F0860BFF34F8FBFF348
:103E90006F8F704780E100E004490220C1F8000103
:103EA0000860BFF34F8FBFF36F8F704780E100E072
:103EB0001AF412910249096801F007010170704774
:103EC00004C500A030B4062821D212490A6802F0C5
:103ED0000702824212D00A680F4B1A400F4C22434D
:103EE0000A6000BF00BF00BF00BF0A681A400C4B49
:103EF000024333F8203042EA83420A600849183905
:103F000051F820000749486030BC75F4739030BC0C
:103F10007047000004C500A0F8FFE3FF050008009B
:103F2000D0F40001004180000248016841F47001B2
:103F30000160704788ED00E002480068001D1DF434
:103F40008B930000DC43800002484068001D1DF494
:103F500083930000DC438000FEE703B40198410036
:103F6000009850EAC12018BF04204A0D18BF40F045
:103F7000010040F2FF72B2EB515F08BF40F0020057
:103F8000012808BF052002B07047002804DB00F1BB
:103F9000E02090F80004704700F00F0000F1E020EE
:103FA00090F8140D7047002804DB00F1E02090F831
:103FB0000004704700F00F0000F1E02090F8140DAD
:103FC0007047000002480068C0F3022070470000FC
:103FD0000CED00E030380A2801D2012070470020A3
:103FE000704770472DE9F05F0746894693464FEAD0
:103FF0005B04A2464D465F4EDFF87C81EFF31080F4
:10400000012181F31088D8F8A41221F02001C8F80A
:10401000A41280F31088EFF31080012181F310883F
:10402000D8F8A01221F02001C8F8A01280F310885F
:10403000306820F080403060504830603F20D8F831
:10404000001160F30501C8F80011306820F4601019
:1040500040EAC7403060306820F4E02040EA074082
:104060003060052F03D1306840F400403060062FE7
:1040700003D1306840F480403060306840F4005034
:104080003060306820F060503060306820F00F0001
:1040900040F003003060EFF31080012181F31088BD
:1040A000344A3832116821F0E04141F0804111601A
:1040B00080F31088306840F08040306001E0D8F82C
:1040C0000000D8F80401C0F300200028F7D1EFF376
:1040D0001080012181F31088116841F000411160C6
:1040E00080F3108834E000204FF47A711AE088429F
:1040F00017D9306820F080403060306840F00040D0
:104100003060306820F00040306007F05FFA1C48F3
:104110000168491C016054464D46052077F46FD56F
:104120006CE7401CD8F80421C2F30022002ADED03C
:10413000D8F8040100F07F01A14200D921460020F7
:1041400003E0D8F8002004C5401C8842F9D3641A63
:10415000002CC8D15FEACB7008D0D8F80401C0F3B6
:1041600000200028F9D0D8F800002880BDE8F05FD2
:1041700007F02CBA08C500A000E000A00A07080755
:10418000104880002DE9F04107460E464FF0000828
:104190000024274D0BE004EBC40005EB8000801CDD
:1041A00007223946FEF750FA40B1641CE4B2287881
:1041B000A042F0D8B8F1000F18D102E04FF001088A
:1041C000F8E728780A21B0FBF1F201FB12040A2873
:1041D00001D2401C287004EBC40105EB8100396852
:1041E000C0F80210B988C180B97901722B7811A288
:1041F0001021002002F4F8F3307800070BD504EB0F
:10420000C40005EB800006F14601BDE8F0410A302C
:104210001C22FEF764BA04EBC40005EB800006F133
:104220002A01BDE8F0410A301C22FEF758BA00000E
:1042300050758000523A313A616464206C746B208E
:104240006974656D2C206E756D203D2025640A0013
:104250000449896B084004490A78104300220A7017
:1042600070470000002001A044448000104A11491A
:1042700000280EDC0868C0F34120012808D0506CEB
:10428000401C5064086820F4C06040F4007008606E
:1042900070470A28FCDB086810F4C06FF8D0106C77
:1042A000401C1064086820F4C0600860704700007B
:1042B0009C4480000CC500A006460F46154672B609
:1042C0003846FEF7EDF9402801D9402002E0384693
:1042D000FEF7E6F980463046FEF7E2F9402801D9BC
:1042E000402002E03046FEF7DBF904469C211048EE
:1042F000FEF78EFA424639460D48FEF7F0F90C48B3
:10430000224631465C30FEF7EAF909484FF0AA31FF
:10431000016445644FF0BB3181644FF0CC310165DD
:104320004FF0DD318165002000F004F8FEE7000069
:10433000A874800030B5ADF20C4D04464FF4806196
:1043400003A8FEF765FA184D202085F83F0085F890
:104350009B003CB12846012C436DC26C09D0022C55
:104360000CD00FE0104A11A15C3203A8FDF7A0FFAA
:1043700008E011A103A8FDF79BFF03E016A103A825
:10438000FDF796FF03A90BA2686CCDE9012100900F
:1043900018A3054A18A1002000F0D6FC00F0A0FCEC
:1043A0000DF20C4D30BD0000A87480005B455252E8
:1043B0004F525D20257300005B5741524E494E47D6
:1043C0005D20506172616D303A25642C50617261DC
:1043D0006D313A25640000005B504152414D5D2033
:1043E000506172616D303A25642C506172616D319B
:1043F0003A256400000000006170705F61737365AE
:1044000072742E6300000000014877F435920000BA
:10441000F843800006460F4690461D4672B6404659
:10442000FEF73EF9402801D9402002E04046FEF761
:1044300037F904469C210D48FEF7EAF92246414629
:104440000A48FEF74CF909484FF0553101644564BC
:104450004FF066318164C6644FF07731016547657E
:10446000C94381650220FFF765FFFEE7A87480005D
:104470002DE9F04106460F4690461D464046FEF7A0
:104480000FF9402801D9402002E04046FEF708F924
:1044900004469C210D48FEF7BBF9224641460B48D5
:1044A000FEF71DF909484FF01131016445644900D8
:1044B0008164C6644FF03331016547654FF0443184
:1044C0008165BDE8F0410120FFF734BFA87480008A
:1044D0002DE9F041014600291BD000240F4E0E4A61
:1044E000357814E002EB04100F780378BB420CD14E
:1044F0004B684068034208D0707808B900F0C2FBEE
:104500002046BDE8F04100F0EBBA641CE4B2AC42D6
:10451000E8D3BDE8F081000014708000CC43800037
:104520007CB505460E46002D01D0002418E005207C
:104530007CBD05EB041041680091017A8DF80410F0
:10454000417A8DF8051007218DF80610C2680078B1
:104550000023694600F048F80028E9D1641CE4B261
:10456000B442E6D300207CBD10B50C46062833D2F9
:10457000DFE800F0030303101E27184951F830004C
:104580002104090C04D018B1214605F0EDF91FE013
:10459000042010BD2004000C03D0A1B2104805F087
:1045A000E3F9200C14D0210C0E4805F0DDF90FE0E2
:1045B00014F0FF0F03D0204604F0ECFA08E00420CA
:1045C00010BD14F0FF0F05D02146002005F03EFA83
:1045D000002010BD042010BD062010BDFCF4000119
:1045E000000001A0001001A02DE9F05F05460C4677
:1045F0009046994627680026052D13D0394628464F
:10460000FFF7B2FF2146284600F0ACF800280AD197
:10461000042D0AD0032D2ED04FF0100B2807060EC4
:10462000002491E00620BDE8F09F4FF0080B2079B0
:10463000042806D0052809D006280DD0072815D152
:1046400010E00021384600F44EF20FE040F2011174
:10465000384600F448F209E04FF00111384600F402
:1046600042F203E03B49384600F43DF24FF000705F
:1046700074F43ED5D4E74FF0200BD1E7F80760D0B3
:10468000052D65D2DFE805F0030303254600324817
:1046900000EBC50090F904A0BAF1000F17D0EFF3BA
:1046A0001081012080F31088A01900EB40022B48F4
:1046B00000EB8200C0F80480C0F8089081F31088F5
:1046C000504617F4A9D5504617F4C4D539E0042054
:1046D000A9E7EFF31082012080F31088A0191F4B87
:1046E00000EB400003EB8001C1F80480C1F80890A2
:1046F000032103F8201082F31088062017F48CD5CC
:10470000062017F4A7D5072017F486D5072017F43D
:10471000A1D516E0EFF31081012080F31088A019D5
:1047200000EB40020E4800EB8200C0F80480C0F8A5
:10473000089081F31088122017F46ED5122017F418
:1047400089D57F08641CE4B25C4597D300206AE7F2
:10475000062068E701010100FCF40001A47180005B
:104760002473800070B58EB005460C46564901F1A1
:1047700064004DC8CDE90A02CDE90C36D1E91E230B
:10478000486F06AED1F880100DC6099114224E492B
:10479000843101A8FDF7E8FFACB14C49062009F0CF
:1047A000F9F94B49072009F0F5F94A49122009F0B7
:1047B000F1F94549444A2C31062D7CD2DFE805F059
:1047C00006060621415905200EB070BD207931F84A
:1047D00010000B90607932F810000C90A0790D90C9
:1047E00020680A903848143050F8350021880904B0
:1047F000090C04D018B10AA905F004F959E0042005
:10480000E2E7207931F810000B90607932F810005F
:104810000C90A0790D9020680A9020680104090C82
:1048200005D080B20A900AA92B4805F0EBF8206861
:10483000010C3ED0000C0A900AA9284805F0E2F8C5
:1048400037E0207901EB4000408A0790607902EB65
:104850004000C0880890A0790990206806902078D0
:1048600010F0FF0F03D006A804F0E6F921E00420C1
:10487000AAE72079031F032B01D80720A4E7022809
:104880001AD001200290207901EB4000808C039027
:10489000607902EB400080890490A079059020683F
:1048A0000190207810F0FF0F09D001A9002005F039
:1048B00025F9002088E704E002200290E3E70420C5
:1048C00082E7062080E70000E8F400015F4A8000EC
:1048D000594A8000554A8000000001A0001001A044
:1048E00010B502460C460020062A26D2DFE802F068
:1048F0000303030B1A1F114850F83200A1B2BDE8A0
:10490000104015F4E4902104090C03D0A1B20C4826
:1049100015F4DDD0210C10D0210CBDE81040094861
:1049200015F4D590A0B2BDE8104013F4A390A1B245
:10493000BDE81040002005F0E4B810BDFCF4000113
:10494000000001A0001001A0002803D00249086067
:104950000120704700207047C843800070B50546AD
:104960000024091F062917D2DFE801F003070C1104
:104970001315284600F0A4F80EE00124284600F0A4
:104980009FF809E00224284600F09AF804E0032486
:1049900002E0042400E00524034A21462846126868
:1049A000BDE8704010470000C84380002DE9F04189
:1049B0000446204600F0AEF801462E4800230826A3
:1049C000025D00F10A0700F11405AAB1052A33D0EF
:1049D000082A2AD1092945D0082926D1295D491C50
:1049E000C9B22955142920D32B5506552046BDE8B8
:1049F000F0410821FFF7B2BF052913D0042916D0D2
:104A0000072914D0082910D1295D491CC9B229559C
:104A100014290AD32B5506552046BDE8F04108213C
:104A2000FFF79CBF3B5505210155BDE8F0812046AD
:104A3000BDE8F041FFF792BF05290CD0395D491C54
:104A4000C9B239553229F0D303552046BDE8F041AB
:104A50000521FFF783BF03552046BDE8F04106213D
:104A6000FFF77CBF03552046BDE8F0410921FFF761
:104A700075BF0000D46F800070B504460D4600F08D
:104A80000FF808B100F014F90348044A2946005D04
:104A90005268BDE87040104708708000CC43800029
:104AA0000020064911F810200AB100207047401C70
:104AB000C0B20A28F6D3012070470000F26F8000D0
:104AC0000349002201F8102001EB400042707047BA
:104AD000F26F8000014A02F810107047F26F8000F8
:104AE000024A012102EB400041707047F26F8000E2
:104AF00070B50024064D05EB4400407810B1204607
:104B0000FFF754FF641CE4B20A2CF4D370BD00001C
:104B1000F26F800070B500211D4B03F132051A5C65
:104B2000002A09D0002403F10A06012A0AD0022A29
:104B300012D0032A24D11FE015F8102002B301225D
:104B40001A541DE015F810201AB1345402221A54D8
:104B500016E01C54042113E015F810204AB1325C11
:104B6000521CD2B23254642A0AD3072103221A54A7
:104B700006E005211C5403E015F8101011B10821BE
:104B8000084670BD1C54FFF79BFF0921F8E70000A1
:104B9000C06F8000704700002DE9F0410E461746B7
:104BA0000A2E02D80FB1002320E00020BDE8F081DA
:104BB00003EB430410F82410032901D0042913D176
:104BC00000EB8405114AA97AD154104910F8242029
:104BD0000C3101EB0314227069686160297A21723B
:104BE000697A61720A49E1605B1CDBB2B342DFD3D0
:104BF000064831460C30FFF793FC064806704760C4
:104C00000548FFF7A1FE0120D0E7000008708000F2
:104C1000D1440001CC438000794A00012DE9F041E4
:104C20000024124FDFF8488019E0002607EB041536
:104C300028786968FFF754FE10B9697A012902D013
:104C4000012802D005E0012603E0687A022800D19D
:104C5000012631462046FFF73DFF641CE4B298F878
:104C600000008442E1D3BDE8F081000014708000B0
:104C7000CC43800010B5FFF7D1FFBDE81040FFF72F
:104C800037BF000010B5074A0121074800F044FB78
:104C900000220A21044800F08DFC044901204870DC
:104CA00010BD0000754C0001B8708000CC4380003E
:104CB00010B5034800F059FB02490020487010BDB0
:104CC000B8708000CC438000002806D0002904D0B2
:104CD000024AD269002A00D01047704784748000CD
:104CE0000248006A002800D00047704784748000A2
:104CF00070B50D4616460D4C00280AD001780329E0
:104D000011D80121A17601461A222046FDF7E7FCC1
:104D100005E00020A0761A210448FDF779FDE56141
:104D20002662002070BD012070BD000084748000E8
:104D3000044A1044807D084201D0012070470020C1
:104D400070470000847480002DE9FE4FDDF830B01C
:104D500006469246994600240027019702975A4832
:104D60000178B14202D2807E00287DD10DF1380851
:104D7000CDF80080EFF311850220FFF714F901460A
:104D800052480068C0F30220401C0122824088186B
:104D9000C0B280F3118801213046FFF7C9FF38B156
:104DA0004B484C4950F82620204600F0A5F8044610
:104DB0001C213046FFF7BCFF00285ED046A24549C3
:104DC000204600F099F8204484B204213046FFF7D1
:104DD000AFFFF8B152463F49204600F08DF820441D
:104DE00084B208213046FFF7A3FF38B13BA239490E
:104DF000204600F081F8204484B20BE010213046B8
:104E0000FFF796FF30B136A23249204600F074F821
:104E1000204484B208213046FFF78AFF90B14A4609
:104E20002C49204600F068F8204484B21021304616
:104E3000FFF77EFF30B12BA22649204600F05CF838
:104E4000204484B210213046FFF772FF70B15B46F8
:104E500026A2052101A8FDF741FA01AA1D49204615
:104E600000F04AF8204400E02BE084B220A2194967
:104E7000204600F041F8204484B21648C4F5807101
:104E8000204443460D9AFDF7EDF900974FF48071E9
:104E9000002804DB2044884201DC86B200E00E4694
:104EA000B01C884200D9FE2612A20A49304600F002
:104EB00023F8304481B20748FFF706FFE8B280F3D9
:104EC0001188BDE8FE8F0000847480000CED00E0C6
:104ED000E44380008473800028000000200000006C
:104EE0003A000000204C696E653A0000256C6400B1
:104EF000292000000D0A000030B5054600200029D9
:104F00000CD0002A0AD006E02B18FF2B06D8CC5470
:104F1000521C401C80B21478002CF5D130BD00002A
:104F20002DE9F04F89B0584800F09AF913208DF818
:104F30001D0005208DF81C0014208DF81B004FF07B
:104F4000080B8DF81AB000208DF819008DF81800A4
:104F50008DF81E00ADF8200006A800F09FF900248F
:104F60004A4FDFF82C814B4E4BA003C8CDE903011B
:104F7000386800F0070103A8455C49484543D8F864
:104F80000090D6F800A04846514604F0A9FB70688E
:104F90007168091AA942FBD35146484604F080FBC8
:104FA00006A800F049F99DF81E303E4D9DF8180006
:104FB0009DF8191055F823309DF81A20CDE90210FC
:104FC000CDE900329DF81D309DF81B209DF81C1086
:104FD00035A0FDF761F9641C052CC5D301208DF8BF
:104FE0001600FF218DF817108DF815B08DF81400FC
:104FF0003BA0FDF751F905A800F064F9002426A0B4
:1050000003C8CDE90301386800F0070103A810F8D0
:105010000190234809FB00F9D8F800A0D6F800B0A9
:105020005046594604F05CFB70687168091A49459E
:10503000FBD35946504604F033FB06A800F0FCF8B9
:105040009DF81E309DF818209DF8190055F8233062
:105050009DF81A10CDE90202CDE900319DF81D300E
:105060009DF81B209DF81C1028A0FDF715F9641C65
:105070000C2CC4D333A0FDF70FF90A2000F036F949
:1050800009B0BDE8F08F00008151000104C500A007
:10509000FCED00E0001000E040301018102000008F
:1050A00040420F00A4F500014170702063757272D8
:1050B000656E742074696D653A20253032642E2542
:1050C0003032642E2530326420257320253032643E
:1050D0003A253032643A253032640D0A000000006F
:1050E0005365742061206461746520616C61726D28
:1050F0002065766572792064617920617420382E8C
:10510000303120616D2E0D0A00000000415050200A
:1051100063757272656E742074696D653A2025300E
:1051200032642E253032642E2530326420257320DF
:10513000253032643A253032643A253032640D0A23
:105140000000000053657420616E207469636B2059
:10515000616C61726D206576657279203130206DE9
:10516000732E0D0A0000000008B500910348016885
:10517000002901D06846884708BD000028718000DA
:1051800010B588B004462078002802D117A0FDF79A
:1051900083F82078012827D1184C2068401C206013
:1051A0006421B0FBF1F201FB120000281CD105A81C
:1051B00000F042F823689DF814009DF815109DF842
:1051C0001620CDE90303CDE901219DF81A000C4911
:1051D0009DF8193051F8200000909DF817209DF897
:1051E000181008A0FDF758F808B010BD44617465A8
:1051F00020616C61726D2E0D0A0000000444800075
:10520000A4F500015469636B20616C61726D2C2000
:10521000253032642E253032642E2530326420252C
:105220007320253032643A253032643A25303264B6
:105230002C2025642E0D0A0010B5084A92F824107F
:10524000002907D040B10146101D03F083FD00285E
:10525000FFD110BD092010BD052010BD28718000B0
:1052600010B50C4C20600C49212008F093FC201D47
:1052700003F03AFD00280BD1201D03F0F3FD0028B8
:1052800006D1012084F82400C00673F431D7002031
:1052900010BD000028718000054A800010B5084A42
:1052A00092F82410002907D040B10146101D03F0E8
:1052B0005BFE0028FFD110BD092010BD052010BDE8
:1052C0002871800010B5084A92F82410002907D0F0
:1052D00040B10146101D04F053F80028FFD110BD65
:1052E000092010BD052010BD2871800010B5094AA5
:1052F00092F82410002903D0052803D2042010BD01
:10530000092010BD0146101D04F008F90028F8D14D
:1053100010BD0000287180002DE9F04104460D46C3
:105320001746002D04D0012D02D00120BDE8F081E8
:10533000CCB1C7B1EFF311860220FEF726FE8046FE
:10534000FEF740FE401C0121814008EB0100C0B285
:1053500080F3118800206070A570E761F0B280F3DF
:1053600011880020E2E70120E0E710B50446002C98
:105370000CD0204600F0B0F9FF2060700021A16041
:10538000E160216161610020E06110BD012010BD7C
:10539000F0B5DDE90745059981614FF47A76A2FB06
:1053A000061C03FB06C3002702FB0732C0E90212FA
:1053B00009196A41C0E9041200210162F0BD000030
:1053C0002DE9F0410446002C13D0EFF311850220A3
:1053D000FEF7DBFD0746FEF7F5FD401C012606FA49
:1053E00000F03844C0B280F31188124800212162D5
:1053F0000EE00020BDE8F081D4E90432D1E9047C5C
:10540000DB1B72EB0C0202D2016A216203E0084648
:10541000016A0029F0D104626670064820380168EC
:10542000491C0160016C4160E8B280F311880120E1
:10543000E0E70000007180002DE9F04105460024FE
:10544000EFF311860220FEF7A0FD0746FEF7BAFD36
:10545000401C012181407818C0B280F31188134AA2
:10546000106CE8B115B102F1200010E00446206A8A
:1054700010641068401E10600CE0A94206D111684B
:10548000491E1160296A01622C4603E00846016A40
:105490000029F2D124B1002020626070106C5060AD
:1054A000F0B280F311882046BDE8F081E070800002
:1054B0002DE9F041EFF311870220FEF766FD044667
:1054C000FEF780FD401C012181406018C0B280F3CE
:1054D0001188114D002608E02078012804D1E169E7
:1054E00009B1A069884726702D6A2C6A002CF3D177
:1054F000094D203D07E0E16909B1A06988472670A0
:10550000206AA8602662AC68002CF4D1F8B280F35F
:1055100011880120BDE8F081007180002DE9F04183
:10552000EFF311870220FEF730FD0446FEF74AFD37
:10553000401C012606FA00F02044C0B280F3118816
:105540001B4DA5F1200829E0D4E90420D8E9041373
:10555000521A60EB0300D8E906319A1A814120D330
:1055600026702046FFF768FFA078012802D0104877
:1055700018380DE0D8E90430D4E902219A184841DE
:10558000C4E904202046FFF71BFF07E001F12000DB
:1055900001680029FAD12162006804622C6A002C9B
:1055A000D2D1F8B280F311880120BDE8F08100006B
:1055B000007180002DE9FF5F82460E4693464FF052
:1055C0000008BAF1000F20D0414886421DD8E6B14C
:1055D000EFF311870220FEF7D8FC0446FEF7F2FC39
:1055E000401C012181406018C0B280F311885046F0
:1055F00005F05CFD10B19AF8010040B1F8B280F3FB
:1056000011880F2004B0BDE8F09F0120FAE706F0F2
:105610009FFD04460D464FF47A7106FB01F02246C9
:105620002B46002105F012FDDFF8A890B0B1D9F8A3
:10563000040048B1D0E90410091B60EB0500C9E97A
:10564000041006F021FE04E00021C9F81010C9F88A
:1056500014104FF00108D9E9040106E0D9F804005C
:10566000D0E90421101B61EB0501CDE902013246AE
:105670000023CDF800B05046FFF78AFE5046FFF7F2
:105680009FFE08F05DFA4FF0E021D1F800014FF0E5
:10569000806210F0806F01D0012000E0002018B976
:1056A000C1F88022C1F80021B8F1000F0AD0D9F862
:1056B0000400D0E90431D9E90402181A61EB0201AF
:1056C00006F07CFDF8B280F3118800209AE7000014
:1056D000008AB907E07080002DE9F04104460025FA
:1056E000002C39D0EFF311870220FEF74EFC06465E
:1056F000FEF768FC401C012181407018C0B280F3A5
:1057000011886078012824D1144E7068A0420BD112
:1057100006F01EFDD4E90432181A62EB0102C6E954
:10572000040206F0B1FD01252046FFF785FE5DB1BC
:10573000706848B1D0E90421D6E90403101A61EB7E
:10574000030106F03BFD04E01DB9706808B906F0DE
:105750009BFDF8B280F31188BDE8F081E070800015
:1057600070B504461A4D55F82400703007F01FFE3E
:1057700082B21646A2B155F8240090F80111012911
:105780000ED0012180F80411802A0FD355F824008F
:10579000802200F18001703007F01EFE80260CE0B0
:1057A00055F82410002081F8000170BD55F8240040
:1057B00000F18001703007F00FFE55F824003246EA
:1057C00000F18001001D1CF435D10028EDD170BD21
:1057D000DC438000704700002DE9F8430446464F43
:1057E00057F82400061D022C7DD290F86C10002979
:1057F00079D001297ED180F80111002157F82400C9
:10580000D0E903231344027D02F00102D21D9D184A
:105810004268D36FC3F38003002BFAD090F80421C1
:10582000A2B1364A1368491C90F83B20102A06D0D2
:105830008268B3FBF2F26A43B1EBC21FF3D957F8A7
:105840002400703007F0B3FD85B226E0B0F8248064
:10585000C58C001D1BF466D557F8240041F288332F
:1058600000EB0801491B8031001D2A461CF4A7D01B
:10587000E5E757F8240001227030694607F0ACFDD7
:1058800057F824004068C16FC1F340010029FAD0E5
:105890009DF8001001606D1EADB2002DE9D157F8E2
:1058A0002400703007F083FD0028C8D130684169BA
:1058B0004906FCD5EFF31085012080F3108857F8D6
:1058C0002400703007F073FD58B1EFF31081012010
:1058D00080F310883068426842F08202426081F3AF
:1058E0001088002000E005E057F8241081F801013D
:1058F00085F31088BDE8F883DC4380000441800014
:105900002DE9F04389B0054688462C78002D06D055
:105910002AB1022C05D3082009B0BDE8F083052088
:10592000FAE7384E05F1580046F82400D2E9003174
:105930000A467030194607F025FD291D89462422A4
:105940000C316846FCF710FF291D286D0EC908F0C0
:10595000C5FD0028E0D12C490C2008F01BF92B498B
:105960000D2008F017F92A4800EBC40797F9010049
:1059700016F452D497F9010016F46CD456F82400AA
:10598000C0F8649056F82400C0F8008056F824004F
:105990001822083005F14001FCF7E6FE56F8241005
:1059A0007868486056F82400001D04F0ABF956F8FA
:1059B0002400001D04F0DCF9351F0127287850B9B8
:1059C0002F7013480321103007F0F6FA6880002882
:1059D00001DA0420A0E756F8240080F86C7056F82D
:1059E0002410002081F8000156F8241081F80101EC
:1059F00056F8241081F8020156F8241081F80301AA
:105A00008AE70000DC438000393F0001493F000184
:105A100088F500012DE9F04104461A4D55F824009F
:105A2000703007F0C4FC82B2164600277AB155F8F0
:105A3000240090F80111012909D0802A0ED300F129
:105A400080017030802207F0C7FC80260BE055F8FB
:105A5000240080F800710020BDE8F08100F1800191
:105A6000703007F0B9FC55F8240080F8047155F83F
:105A70002400324600F18001001D1CF421D00028D2
:105A8000EAD1E9E7DC43800070B5022801D30820A1
:105A900070BD0C4D55F820407CB194F86C6066B137
:105AA00069B162B1002684F8026155F82000001D3A
:105AB0001BF485D70028EBD170BD052070BD0420F4
:105AC00070BD0000DC4380002DE9F04106460C4625
:105AD000174604F1080520466FF46ED6C3B21B4882
:105AE000E1184268914202DD0320BDE8F0811849C7
:105AF000184A006809681268891A081A001FE9180C
:105B000081421CD94FF4004513A22946002000F41D
:105B10006BF700F01FFD30B118A22946002000F4F9
:105B200063F70820E1E71DA22946002000F45CF796
:105B30003A4621463046BDE8F04108F0A1BE3A465B
:105B400021463046BDE8F04108F09ABED8328000C8
:105B5000D0238000CC238000523A353A4E5644532D
:105B60002061726561206973206265696E672063D8
:105B70006F6D7061637465642E0D0A00523A353A98
:105B8000436F6D70616374696E67204E5644532095
:105B90006661696C65640D0A00000000523A353A8E
:105BA000436F6D70616374696E67204E5644532075
:105BB0007375636365737366756C0D0A000000008E
:105BC0007CB50D46002200920192694600F40EF762
:105BD000044634BB4FF42051684600F409F7B8B9C5
:105BE00042F60101684600F403F788B942F6030162
:105BF000684600F4FDF658B942F60201684600F422
:105C0000F7F628B94FF42451684600F4F1F608B1CC
:105C1000062406E00098C5F30B018088084300992C
:105C2000888020467CBD00002DE9F04105460C46E9
:105C3000FF26217A1E2905D022480279521E52B22F
:105C400000683AE004F10801284600F4D3F606465D
:105C500035E010F832308B422DD11B4E56F825001E
:105C6000406F30B300273B4618A24021002000F4CB
:105C7000BBF6062000EB05202AF47CD3C00605D530
:105C8000002717A24021002000F4AEF621460C396F
:105C900056F82500743000F4AFF60020A0800126ED
:105CA0006FB115A2402100F49FF6284600F4A6F635
:105CB00005E00127D7E7521E52B2002AC9DA304662
:105CC000BDE8F0817C058000C40E8000523A333A72
:105CD000657865637574653D307825780A00000045
:105CE000523A333A636F6E6E656374206E6F742040
:105CF00063666D0A00000000523A333A73746172B1
:105D00007420657865637574650A00002DE9F041BB
:105D10000546884628466AF413D2C0B22449097859
:105D200088420DD200EB4000213040F40040424652
:105D3000AC2106F06DFD0446200032D0012430E095
:105D40006AF442D2C7B207EB470606F1200040F4DE
:105D500000402A46072106F05BFD10B10120BDE896
:105D6000F081384676F480D306F1210040F40040FB
:105D70004246AC2106F04CFD0446200001D0012033
:105D8000EDE7223646F4004006F098FB0949C7EBE0
:105D9000C7000968084429680160A9888180A97939
:105DA00081711CB941462846FEF7ECF92046D6E73A
:105DB000382380003C23800007F030BA10B5FFF78D
:105DC000FBFF054903480860BDE81040034875F42F
:105DD000BD95000017B8800474C500A00087930328
:105DE00010B50446002C0CD0204600F051F80028D5
:105DF00007D104494968002903D02046BDE8104076
:105E0000084710BD004780000A2805D2034A002138
:105E100052F8200080F88F1070470000C40E8000F8
:105E200070B504460D46204607F0E0FB002805D17A
:105E300029462046BDE8704063F4BC9070BD000068
:105E400000B58BB0094901200870FF22282101A864
:105E5000FCF7CCF94FF48070ADF804000020ADF8E9
:105E6000060001A8FFF7BCFF0BB000BD0047800093
:105E700010B506480068002800D08047FFF7E2DA36
:105E800008B1012010BD002010BD00007046800048
:105E900070B50446002C1FD04FF6FF7319462288B8
:105EA00040F20155A2F201504FF48076AA424CD044
:105EB0001BDC40F20245A2F20240AA4234D00DDCC3
:105EC000A2F54072013A25D0012A23D0FF2A29D019
:105ED000B2422ED121892CE0002070BD012825D0AE
:105EE000022825D0FE2824D12AE004282DD006DC63
:105EF00001282AD0022828D003281AD125E0052815
:105F000023D0062821D0B04213D1204602F05CF9FC
:105F1000002070BD204602F079FC204602F08AFB8A
:105F2000002070BD218904E0218902E0618900E040
:105F3000218A99420ED0204602F078FC012070BDE3
:105F4000204602F00BFC002070BD204602F082FBD0
:105F5000002070BD002070BD70B50026150A0E48E7
:105F600005EB450200EB0214098821800120A07096
:105F70002846FFF749FF00206AF482D107480168EC
:105F800029B10B681BB122880021284698476AF482
:105F9000ADD1304670BD0000D42E8000B822800004
:105FA0003EB500241D0A0A78122A02D0132A04D012
:105FB00006E000208DF8000002E001208DF80000CE
:105FC0008888ADF804004888ADF80200891D029168
:105FD00000206AF455D10B48016829B18A691AB1C9
:105FE00069462846904708E09DF80000012804D142
:105FF000BDF804102846FFF713FF6AF477D1204656
:106000003EBD0000B42280000148007870470000C7
:10601000204880007CB50E46150A002000900190B3
:106020006946284674F4AAD19DF806206946284698
:1060300002F0DAF80446CCB163F4A8D7C0B163F437
:10604000A5D7C01C81B23288002320466EF486D3C7
:106050006946284607F032FB40B106A240210020E5
:1060600000F4C2F4214668465FF4EED400207CBD03
:106070000020E7E7523A333A736176652063636341
:10608000640A000010B58AB00446FF222821684641
:10609000FCF7ACF840F20271ADF800100021ADF849
:1060A00002108DF804406846FFF79AFE0AB010BD52
:1060B00000230849496808E0CA88824204D80A894E
:1060C000824201D3CB6802E009680029F4D1184666
:1060D000704700001448800070B519480468194DD5
:1060E0002878002801D0002070BD4FF0806072F445
:1060F000FFD7FFF7A1DF600873F40AD712490860E1
:106100008817114901262C39086010497006C1F81A
:10611000FC01C8674FF03041086B40F0070008638E
:10612000094C303C206840F4E0202060FFF7C6DFD7
:106130002E70206820F4E0202060012070BD000057
:106140006C2480006846800070C500A084E000E0F8
:1061500070B50024EFF31086012080F31088FFF75C
:10616000C8DF104D28B102242968B9B10220884740
:1061700014E0FFF77DFE20B1296879B1002088473F
:106180000CE0FFF7A9FF28B10224296831B10220F1
:10619000884703E0296809B10020884786F3108802
:1061A000204670BD5C248000034900EB800001EBB9
:1061B0008000808870470000F4448000034A00EBB0
:1061C000800002EB8000818070470000F444800072
:1061D00010B500F065F800F047F8BDE8104000F099
:1061E00001B8000000B58FB003228DF800204FF4F5
:1061F0008050019005218DF8081001208DF80900CC
:1062000000238DF80A308DF80C20430304938DF899
:1062100014108DF815008DF816008DF81820C303A2
:1062200007938DF820108DF821008DF822208DF82D
:10623000242082030A928DF82C108DF82D00022262
:106240008DF82E2004238DF830300D928DF8381003
:106250008DF839008DF83A30024A6846FEF79CFC0A
:106260000FB000BD954B00017CB5102600960224AE
:106270008DF804408DF8054007258DF806506946D5
:106280000320FEF76FFA00968DF804408DF8054064
:106290008DF8065069460520FEF764FA7CBD0000C3
:1062A00000B587B000F01EF803208DF800001D2017
:1062B0008DF8160001208DF817008DF818008DF864
:1062C0001900044A04496846FEF712FDFEF79CF8DF
:1062D00007B000BDDD620001356300010020FFF75B
:1062E0007BBA00001CB5114800904FF48064019403
:1062F00000F58060002101704FF4E1320264032256
:1063000042648164C1640165012141650274CB026C
:106310004361022343740176027184604371017307
:106320006A460349FFF7ECFA1CBD0000606A800072
:10633000D55700010A4601464FF47A730020FFF753
:10634000A3BB000030B591B005460C461C223D4968
:106350000AA8FCF709FA1C223A491C3103A8FCF7E9
:1063600003FA394884420AD33848B4FBF0F2A2F564
:106370002852CD3AB4FBF0F100FB114101E00022BC
:1063800000213C23B1FBF3F003FB10108DF800005B
:10639000B1FBF3F0B0FBF3F103FB11018DF8011039
:1063A000B0FBF3F08DF802004FF4FA63901D072163
:1063B000B0FBF1F401FB14008DF8060040F2B5507B
:1063C000B2FBF0F103EB81018BB2B2FBF0F100FB09
:1063D00011214FF4B770814201D303AA00E00AAA49
:1063E00081420AD3491E40F26D10B1FBF0F4234400
:1063F0009BB2B1FBF0F400FB14111F20B1FBF0F0D5
:10640000401CC4B28DF8044032F81400884202D80F
:10641000641C8DF804409DF80400401E12F8100022
:10642000081A401C8DF80300A3F5FA638DF80530B7
:106430000098286001986860BDF80800288111B0B4
:1064400030BD00001CF6000180436D388051010012
:1064500070B54279642302F5FA62B2FBF3F403FBF0
:10646000142242F6CD2340F26D145443D51C04EBA4
:1064700095041C44037940F26F1513FB05F50C26B7
:10648000A5F5B57595FBF6F5022B01D8002202E0C3
:10649000920716D00222AA1A2244C378521E13442D
:1064A000094A534382784FF4616412FB04F4427842
:1064B0000078C2EB021204EB820218441044086018
:1064C00070BD0122E7E700008051010070B506466B
:1064D00042F2107405F06CF9054605F069F9A8421E
:1064E00001D0641EF6D114B13060002070BD0020D0
:1064F0003060012070BD00000E4910F1210F06DA56
:10650000086820F4704040F440500860704710F173
:106510001D0206D3086820F4704040F480400860F3
:1065200070470A28FCDD086820F4704040F4A04061
:106530000860704724C500A010B507F019F806F0F0
:1065400025FD07F01FFD00F021FBBDE8104007F01E
:1065500007B800002DE9F04F87B07B48D0F80090D5
:1065600000240025A246002607F05CFE774801685B
:10657000C9F800104068C9F8040075480068083080
:10658000059009F108000690042203A9059800F07F
:10659000C9FABDF80C10A1F57F40FF3843D008229E
:1065A00003A9059800F0BEFABDF80E006FF404D1FF
:1065B00000F0FF08BDF80C00002867D00698A9EB92
:1065C000000707F58057BDF80E1008F10800834654
:1065D0000844B84263D805AB082203A906A800F016
:1065E000D7F8BDF80E00002300EB080205A906A8A5
:1065F00006F060FD641CBDF80E005844B842C3D1DB
:106600000020CDE9006053464A462146284608F05E
:106610004DF8002826D1824600260024CDF8189097
:106620006D1CEDB2B0E70020CDE9006053464A464C
:106630002146284608F03AF8002813D16D1CECB228
:10664000434D4FF48057434E08E0286800EB043078
:10665000394603F0FFF840B1641CE4B2707AA042FE
:10666000F3D8002007B0BDE8F08F3B488169407A3D
:1066700040F27C42CDE900200291384B38A24FF421
:106680000041002000F4B0F10920EBE7BDF80E0056
:10669000059908F1080808444044059074E7082F5C
:1066A00029D305AB082203A906A800F071F8083F1A
:1066B0002FB100233A4605A906A806F0FBFC611C91
:1066C0000020CDE9006053464A46284607F0EEFF19
:1066D0000028C7D18246BDF80E004044C61B0024E6
:1066E000CDF818906D1CEDB20023324605A906A81E
:1066F00006F0E0FC48E705AB3A4603A906A800F01F
:1067000047F8611C03A8CDE9006053464A46284675
:1067100007F0CCFF0028A5D1C7F1080ABDF80E008C
:1067200000EB08060024CDF818906D1CEDB2012393
:10673000524605A906A806F0BDFC0023324605A96D
:1067400006A806F0B7FC1FE798448000ACD5070008
:10675000CC238000D8328000641F8000A4F60001A2
:10676000523A353A25732C204C256420666C6173AF
:1067700068207374617465203078253032582C207D
:106780006572726F72203078253038580D0A00001B
:1067900070B5044615461E462A462068FBF79FFF43
:1067A00030682844306020682844206070BD0000B4
:1067B00010B50548017B491C0173002073F416D203
:1067C000BDE8104000F050B89C4480002DE9FE4325
:1067D000FFF7F2FA1E48016821F4003101601C4EF7
:1067E000083E30681B4980B2084330601A4803C82D
:1067F000CDE9000116482C380068C82100F00700D8
:106800001DF8000010FB01F514480768144CD4F87B
:1068100000803846414602F063FF62686068831A70
:10682000AB42FBD34146384602F03AFF06F002FC89
:1068300002909DF8080028B19DF8080009494861B8
:106840008861C861306820F07F403060BDE8FE8319
:1068500030C500A000008F11E46A0001FCED00E0EB
:10686000001000E09C4480002DE9FC412D4E306872
:1068700020F07F4040F0885030602B4803C8CDE9BD
:10688000000128482438006800F007011DF80100C5
:10689000C82110FB01F525480768254CD4F8008075
:1068A0003846414602F01CFF62686368981AA842A5
:1068B000FBD34146384602F0F3FE002506F0BAFB52
:1068C0000446DFF87080D8F81800844201D9012707
:1068D00000E0002773F430D040B91FB1D8F8180099
:1068E000201A02E0D8F81800001BC5B2D8F818002A
:1068F000C8F82000B5EB900F03D8292C01D8112C33
:1069000002D200F019F807E000EBC00020440A2191
:10691000B0FBF1F0C8F81800306820F07F4030601C
:10692000BDE8FC8128C500A0E46A0001FCED00E0A0
:10693000001000E09C4480002DE9F04F87B000205B
:1069400006900824DFF890811A20C8F814006348E4
:106950000168634A89B21143016005A8FDF7AAFAEC
:106960000220FDF7AFFADFF8749109F10809D9F8B0
:10697000000020F47C3040F42030C9F8000059A019
:1069800003C8CDE90201DFF854A1AAF1240ADAF81C
:10699000000002A900F00700085CC82110FB01F507
:1069A000DFF848B1DBF800000190514F3E680198D4
:1069B000314602F095FE78687968091AA942FBD33E
:1069C0003146019802F06CFE06F034FB04909DF80D
:1069D0001010D8F81400814204D99DF81020811CB1
:1069E0008A4263D99DF81010814204D29DF810208C
:1069F000811E8A425AD29DF81010814201D9012588
:106A000000E0002515B1641C64B201E0641E64B2AC
:106A1000202C11D3D9F8000020F47C3040F4203031
:106A2000C9F80000D8F83C00401CC8F83C00002021
:106A300004900120069039E0D9F8000020F47C3061
:106A400040EA043040F40030C9F8000025A003C833
:106A5000CDE90201DAF8000002A900F00700085CA5
:106A6000642110FB01F6DBF800000190386800900B
:106A7000DDE9001002F034FE78687968091AB14245
:106A8000FBD3DDE9001002F00BFE06F0D3FA049010
:106A900035B19DF81000D8F814108842B2D805E03E
:106AA0009DF81000D8F814108842ABD39DF814005C
:106AB000FDF708FA0948016821F07F4101609DF85F
:106AC0001000C8F81800D8F82400401CC8F82400AA
:106AD000069807B0BDE8F08F9C44800028C500A050
:106AE00000008F114030101810200000FCED00E075
:106AF000001000E00A49322808DDD1F8200220F415
:106B0000706040F44070C1F8200270472828FCDA19
:106B1000D1F8200220F47060C1F820027047000014
:106B200000E000A02DE9F04105460E461746094C4D
:106B30002378002B02D000206FF4B2D13A463146C0
:106B4000284602F0C7FE054620786FF4A9D12846F2
:106B5000BDE8F081C92380002DE9F04105460E46CD
:106B60001746094C2378002B02D000206FF498D1EF
:106B70003A463146284602F0BDFE054620786FF4BD
:106B80008FD12846BDE8F081C92380000121024A47
:106B9000002068F4E9970000D589000110B5104C79
:106BA00002220421204604F04FFE0122102120463B
:106BB00004F04AFE02228021204604F045FE022213
:106BC0004021204604F040FE02222021204604F00D
:106BD0003BFE20460222BDE81040082104F034BEEE
:106BE000001001A02DE9FE4F07460D4602AA2946D6
:106BF000384607F0E1FB10B10298BDE8FE8F029C19
:106C000000260296DFF8688098F8000010B1002096
:106C10006FF446D1DFF85CA04FF6FF790822694691
:106C2000204602F057FEBDF80000484502D12E80F4
:106C3000029617E0B84206D115B1BDF802002880CF
:106C4000083402940EE0BDF802006EF4B5D5BDF82C
:106C50000210083021444418DAF800008442DDD3E1
:106C60002E80029698F800006FF41AD10298C4E7BB
:106C7000C9238000D023800070B506460024094D4A
:106C80000BE004EBC40005EB8000801C07223146BA
:106C9000FBF7DAFC20B1641CE4B22878A042F0D8FB
:106CA000204670BD5075800010B50021084B5A6811
:106CB0001B8809E052F83140844203D102EBC10045
:106CC000406810BD491C89B29942F3D310BD000041
:106CD0001844800010B50021084B5A681B8809E051
:106CE00052F83140844203D102EBC100406810BD2C
:106CF000491C89B29942F3D310BD00000C448000B6
:106D000010B50021084B5A681B8809E052F8314041
:106D1000844203D102EBC100406810BD491C89B216
:106D20009942F3D310BD0000204480000349095C60
:106D3000002902D0002104F0EDBE7047BA76800031
:106D400010B5884210D808290ED2094B074A5A605C
:106D500006E003EB8002946844F001049460401C58
:106D60008842F6DD0320186010BD000000400030AE
:106D7000002000E02DE9F047164F3868002826D0A3
:106D80004FF00009002400250526DFF84C8013E0B1
:106D900005EB4501012018F8212090403A68104287
:106DA00008D008EB81032246D3E90101641CE4B258
:106DB00000F01CF86D1CEDB2B54201D2062CE7D3F1
:106DC000641EE1B24846BDE8F047FFF7B9BFBDE831
:106DD000F087000008448000C0F5000113B50121D0
:106DE0006846FDF771FF01201CBD000070B5054627
:106DF0001446114840F8345000EBC4004160284666
:106E000001F010FE0646FF2001F016FE014625F0B7
:106E100001000A4B850703EB8402094B06D0801E54
:106E2000906006EB014043F8240002E0906043F8D4
:106E30002410204670BD0000643D8000002000E06A
:106E4000004000302DE9FC410C46474A6178A078AB
:106E500052F82110CDE90010237844A2102100201F
:106E6000FFF7C2DD607801264F4F052530B10128BC
:106E700037D0022849D0032872D15AE020786BF429
:106E80000DD4C0B2C0EBC00107EB81014D72A278F6
:106E9000452A09D1CA681278022A17D091F8202011
:106EA000022A01D081F8206091F82020012A04D024
:106EB000022A02D0032281F8202091F82020022A01
:106EC0004ED0C9680978022906D102E007224A7229
:106ED000EAE7A178452943D0344A00211268904757
:106EE0003EE087F89950A078452805D197F89C0096
:106EF000022801D087F89C6097F89C0002282FD0C8
:106F00002B490020096888472AE087F8A550A07817
:106F1000452805D197F8A800062801D087F8A86071
:106F200097F8A80006281BD0224900200968884746
:106F300016E020786BF414D4C0B207EB001181F88E
:106F4000B150A278462A01D0CE2A01D181F8B3509F
:106F500091F8B310022903D0174A00211268904714
:106F60000020BDE8FC81000068228000523A313ADE
:106F70006163742073746F707065642C2061637436
:106F80005F6964783A2025642C206163745F7479AA
:106F900070653A2025732C20726561736F6E3A20FC
:106FA0003078253032780A007C278000102280005B
:106FB00014228000182280001C22800010B58AB0A4
:106FC0000C46FF2228216846FBF710F940F20A2000
:106FD000ADF80000ADF802406846FEF701FF0AB0C8
:106FE00010BD10B58AB00446FF2228216846FBF781
:106FF000FDF840F20D20ADF800000020ADF80200D1
:107000001C22214602A8FBF76AFB1C34099468463F
:10701000FEF7E6FE0AB010BD30B58BB005460C4653
:10702000FF22282101A8FBF7E1F840F20722ADF882
:107030000420ADF806408DF8085001A8FEF7D0FEF8
:107040000BB030BD37B58AB005460C46FF2228216B
:107050006846FBF7CBF84FF40272ADF80020ADF8AC
:1070600002408DF804509DF830008DF80800684605
:10707000FEF7B6FE0DB030BD00B58BB0FF22282163
:1070800001A8FBF7B3F84FF44170ADF804000020FD
:10709000ADF8060001A8FEF7A3FE0BB000BD00008E
:1070A0002DE9FF470C4666788DF80D6020784FEA91
:1070B0001329CDE900905A4B5AA2102102960020C4
:1070C000FFF792DC20786449644F4FF0000801EB31
:1070D000C905092861D008DC092824D2DFE800F0BE
:1070E0009A8B9A4A4A9A9A24240017282FD004DCB3
:1070F0000B2807D0142816D16AE0182814D01928B4
:1071000011D111E0607822280DD1002069F4B8D0A7
:107110005348006828B143681BB100220F2148463C
:10712000984769F4E3D075E069F4A0D7044685F880
:107130000580002069F4A4D0386828B1436D1BB1E4
:10714000224631464846984769F4D0D062E069F457
:107150008DD7044685F80480002069F491D0386802
:1071600028B183681BB1224631464846984769F4E6
:10717000BDD04FE069F47AD7044685F80680002038
:1071800069F47ED0386828B1836D1BB12246314640
:107190004846984769F4AAD03CE069F467D70446AA
:1071A00085F80280002069F46BD0386830B1C36C78
:1071B00023B136B1224631464846984769F496D005
:1071C00028E0002CFAD02246314648469847F5E799
:1071D00069F44CD7044685F80380002069F450D048
:1071E000386828B1C36D1BB12246314648469847DE
:1071F00069F47CD00EE0607860B1002069F440D082
:10720000386828B1C36B1BB16178002248469847A3
:1072100069F46CD069F430D704B00020BDE8F08781
:10722000B1F60001523A313A25733A20636F6E6924
:107230006478203D2025642C206F70636F64652086
:107240003D20305825782C206572726F72203D20C9
:1072500030582578000000002A27800098218000FF
:10726000EC23800010B58AB00446FF22282168462E
:10727000FAF7BCFF40F20331ADF80010ADF8024060
:107280006846FEF7ADFD0AB010BD70B58AB0054680
:107290000C461646FF2228216846FAF7A7FF40F25F
:1072A0000131ADF80010ADF802408DF80450122203
:1072B000314602A8FBF713FA6846FEF791FD0AB0C3
:1072C00070BD70B58AB006460D461446FF222821CF
:1072D0006846FAF78BFF4FF44273ADF80030ADF813
:1072E00002508DF8046020680290A088ADF80C0070
:1072F0006846FEF775FD0AB070BD00002DE9F0414B
:10730000ADF50E7D0C461E0A304661F463D5074686
:10731000304661F45FD5002834D04DA1009133464A
:107320004DA210210020FFF75FDBFF2E5BD0574DF1
:107330002088288060886880A088A880E088E8800D
:10734000207A2872607A68722F74D4F80A00C5F81F
:107350000A00E089E8814E4A002102EBC600016084
:107360004160218822F836104FF4CA7129A8FBF732
:107370004FFA29A85EF456D2687ADFF818810128FE
:1073800016D101E044A1C9E7E87B0121B1EB901FD0
:107390000ED198F81C0140070AD59DF8A40038B119
:1073A000A02101A8FBF734FA002429AD01AF3DE08C
:1073B00004F10A02617A1546304672F4FDD7617A0B
:1073C0002A46304600F05CFF354C6FB1002068F46F
:1073D00057D7206828B1836B1BB12C4A0021304657
:1073E000984768F483D72DE0032088F8A800D8F8E0
:1073F000AC000078012825D1002068F441D721682D
:1074000029B18B6B1BB1214A00213046984768F4A3
:107410006DD717E004EB840005EBC001093107EBE1
:1074200004101022FBF75BF9641CE4B29DF8A40081
:10743000A042EFD815499DF8A43001AA0A31304680
:107440006BF460D60DF50E7D0020BDE8F0810000E4
:10745000534C415645000000523A313A636F6E6E0C
:10746000656374696F6E5F7265715F696E645F6892
:10747000616E646C65723A20636F6E696478202572
:10748000642C20726F6C652025730A001827800019
:107490002A2780007C2780004D415354455200002C
:1074A0009821800070B58AB006460D461446FF222A
:1074B00028216846FAF79AFE40F20533ADF800300D
:1074C000ADF802508DF8046020680290A088ADF8F5
:1074D0000C006846FEF784FC0AB070BD30B58BB076
:1074E00005460C46FF22282101A8FAF77FFE40F24C
:1074F0000632ADF804200022ADF806208DF80850C1
:10750000206803906068049001A8FEF769FC0BB046
:1075100030BD00002DE9F0410D46E879FF2819D073
:107520001B4FB96889B300246BF498D0C6B216B16A
:10753000032E05D008E0E8796BF4B0D0C4B203E0C4
:10754000E8796BF40DD1C4B2BB682A4621463046B7
:1075500098471AE000210E2064F4C6D10446A4B175
:10756000012020702868C4F80300A888A4F8070048
:10757000A8796072E8796BF491D0A0700E21204652
:1075800069F488D5204664F4ADD10020BDE8F081CF
:107590006444800030B58BB004460D46FF2228219C
:1075A00001A8FAF723FE40F20622ADF80420ADF858
:1075B00006400E22294603A8FBF791F801A8FEF722
:1075C0000FFC0BB030BD70B58AB005460C461646B0
:1075D000FF2228216846FAF709FE40F20233ADF88F
:1075E0000030ADF802408DF804508DF80860684610
:1075F000FEF7F6FB0AB070BD70B50D46EFF31180D3
:107600001D490A781D490968C1F30221491C01245A
:107610008C401119C9B281F311881C0A1849002342
:1076200001EBC402136053604FF6FF7221F834205F
:10763000C0B280F31188AB7812A210210020FFF7AE
:10764000D3D9204672F450D720466DF4C5D32046D6
:1076500072F452D6002068F413D6114802683AB189
:10766000D36B2BB1A8789030C2B200212046984746
:1076700068F43CD6002070BD02E400E00CED00E0B0
:107680002A278000523A313A646973636F6E6E2024
:10769000726561736F6E203D20307825780A000096
:1076A0009821800070B58AB006460D461446FF2228
:1076B00028216846FAF79AFD40F20A33ADF8003007
:1076C000ADF802508DF80460206802906068039065
:1076D0006846FEF785FB0AB070BD30B58BB0054635
:1076E0000C46FF22282101A8FAF780FD4FF6FF7211
:1076F000ADF80420ADF8065034B1012C09D0022CAD
:107700000CD0032C13D10EE04FF40070ADF8040040
:107710000DE040F20120ADF8040008E040F2022044
:10772000ADF8040003E040F20320ADF8040001A826
:10773000FEF756FB0BB030BD70B58AB006460D465D
:107740001446FF2228216846FAF750FD40F209331B
:10775000ADF80030ADF802508DF80460206802905A
:10776000606803902089ADF810006846FEF738FB8A
:107770000AB070BD30B58BB005460C46FF222821FB
:1077800001A8FAF733FD40F20731ADF804100021EB
:10779000ADF806108DF808502068039060680490DA
:1077A0000834059401A8FEF71BFB0BB030BD70B583
:1077B0008AB005460C461646FF2228216846FAF78D
:1077C00015FD4FF44073ADF80030ADF802408DF870
:1077D00004503088ADF808006846FEF701FB0AB097
:1077E00070BD30B58BB004460D46FF22282101A89C
:1077F000FAF7FCFC4FF6FF72ADF80420ADF8064036
:1078000045B140F20520ADF8040001A8FEF7E8FA02
:107810000BB030BD4FF40170ADF80400F5E730B5A2
:107820008BB005460C46FF22282101A8FAF7DEFCA2
:1078300040F21122ADF80420ADF806502068039004
:10784000A088ADF81000A0798DF8120001A8FEF70D
:10785000C7FA0BB030BD10B58AB00C46FF22282104
:107860006846FAF7C3FC40F20920ADF8000000209A
:10787000ADF8020020680290A088ADF80C00A07955
:107880008DF80E006846FEF7ABFA0AB010BD10B5D1
:107890008AB00446FF2228216846FAF7A7FC40F286
:1078A0000B21ADF80010ADF802406846FEF798FADB
:1078B0000AB010BD13B58AB00446FF2228216846DD
:1078C000FAF794FC4FF40371ADF80010ADF80240E4
:1078D0009DF82C008DF808006846FEF781FA0CB080
:1078E00010BD30B58BB005460C46FF22282101A8FB
:1078F000FAF77CFC40F20F22ADF80420ADF8064008
:107900008DF8085001A8FEF76BFA0BB030BD70B5CA
:107910008AB004460D461646FF2228216846FAF72B
:1079200065FC40F20E20ADF80000ADF802501022C8
:10793000314602A8FAF7D3FE8DF804406846FEF7F8
:107940004FFA0AB070BD10B58AB00446FF22282154
:107950006846FAF74BFC4FF40471ADF800100021B3
:10796000ADF802108DF804406846FEF739FA0AB007
:1079700010BD00002DE9F041044618460026002302
:1079800000256FF48857E4191C4F06D0012C07D04E
:10799000022C0CD0032C0CD105E03B687D6808E07C
:1079A000BB68FD6805E0BB69FD69087801E03B69DB
:1079B0007D6900241CE033F83470874217D103EB53
:1079C000C4035C68B4B10E4B9C4204D1034602F080
:1079D000A9FD06460EE00B4B9C4204D1034602F083
:1079E0001DFA064606E00346A047064602E0641C70
:1079F000AC42E0D33046BDE8F08100007002800068
:107A0000116F02009D3E02002DE9FC410E4629A0A7
:107A100003C8CDE900016A46314601200BF414D6B3
:107A20000746012F43D1304609F4C0D2C4B2C4BBCB
:107A300009F448D3C5B2FF2D09D03078A02808D06A
:107A4000A1280CD0A22816D0A32819D10DE04B24D0
:107A500027E03146284609F4DFD7044610E03146D6
:107A600028460BF4ABD704460AE0314628460BF40F
:107A7000C5D4044604E03146284600F0F9F8C4B203
:107A80007CB9707868B90D4890F86E10C90708D0B5
:107A900000EB8501C96850F8662FC1F81620808870
:107AA000488324B1064A214601201268904738468F
:107AB000BDE8FC81A0A1A3A200000000000E800090
:107AC000EC038000074A906800280AD051880029FA
:107AD00007D01278002A04D001EB81014900FAF79F
