:020000040100F9
:102000000000840059210001612100016548800021
:102010000D2A0001FF210001B92A00010000000083
:10202000000000000000000000000000794880006F
:102030006B210001000000006D21000171210001F1
:1020400000F002F800F077F80AA090E8000C824453
:102050008344AAF10107DA4501D100F06CF8AFF230
:10206000090EBAE80F0013F0010F18BFFB1A43F076
:10207000010318479CB30000ECB300000A444FF082
:10208000000C10F8013B13F0070408BF10F8014BD7
:102090001D1108BF10F8015B641E05D010F8016B1C
:1020A000641E01F8016BF9D113F0080F1EBF10F880
:1020B000014BAD1C0C1B09D16D1E58BF01F801CBA3
:1020C000FAD505E014F8016B01F8016B6D1EF9D526
:1020D0009142D6D370470000103A24BF78C878C127
:1020E000FAD8520724BF30C830C144BF04680C601E
:1020F000704700000023002400250026103A28BF66
:1021000078C1FBD8520728BF30C148BF0B60704769
:10211000642900F0E580782900F04981732900F0F6
:10212000B883002070471FB50AF0CEFF00F016FB01
:102130001FBD10B510BDDFF810D0FFF7F4FF07F09A
:1021400045FE00F0C1FB00000000840003B4FFF76F
:10215000F0FF03BC00F0CFFC06488047064800476C
:10216000FEE7FEE7FEE7FEE7FEE7FEE7FEE7FEE747
:10217000FEE70000892A000139A100010FB40449DB
:1021800010B503AA029800F089FB10BC5DF814FB9F
:10219000E04380000FB41CB5084B06AA7B44694697
:1021A0000090059800F04BFB04460020694600F0C3
:1021B00059FB20461CBC5DF814FB0000C50600005E
:1021C00010B5431C02E010F8011B71B18107FAD170
:1021D0004FF0013202C88C1A8C4314EAC211F9D0B4
:1021E000C01A0A0603D0C01E10BDC01A10BD0A04D2
:1021F00001D0801E10BD0902FCD0401E10BDFEE7BC
:1022000058585247010000001555000000200001F9
:10221000002000016EED52490101000000000000A5
:1022200000000000000000000000000000000000AE
:10223000000000000000000000000000000000009E
:1022400070B5044685690068C10601D5302600E0F6
:102250002026C00707D070BDD4E901213046904741
:10226000206A401C20626D1EF6D570BD70B5044614
:1022700085690078C00707D170BDD4E9012120200D
:102280009047206A401C20626D1EF6D570BD70B567
:102290000C460546012A05D02878800600D5EA6953
:1022A000002302E0012305E05B1C934202D2E05CC4
:1022B0000028F9D1A869E618C01AA861286A18444C
:1022C00028622846FFF7BCFF04E0D5E9012114F895
:1022D000010B9047B442F8D32846FFF7C7FF70BD03
:1022E0002DE9F0410646002410687529314616A5EF
:1022F00010D0AFF30080002802DA404213A507E0B7
:1023000031688A0701D512A502E0490704D511A555
:10231000012401E0AFF3008000210A2206F1240726
:1023200009E0B0FBF2FCB0FBF2F302FB1C00303022
:1023300078541846491C0028F3D123462A463046D3
:10234000BDE8F04100F01CBA000000002D000000C4
:102350002B00000020000000F0B40D4601880905A4
:1023600002D5214C7C4402E01F4C7C440E340021F9
:1023700000F1240608E002F00F071209E75D42EAC7
:1023800003721B097754491C52EA0307F3D1027800
:102390000023120704D5702D06D009B10223113491
:1023A0002246F0BC00F0ECB901231034F8E770B518
:1023B00004460D4621461068AFF3008002462946C8
:1023C0002046BDE870400023C6E7D21D22F0070377
:1023D000D3E90023C0E70368126843F020030360D9
:1023E0000823C3610023B7E70CB000002DE9F05FBC
:1023F000894604464FF0000ADFF874B1FB44C0F888
:1024000020A02046E1688847002874D0252806D0FF
:10241000D4E901219047206A401C2062F1E70026A0
:102420005F462046E16888472028054607DB312DB6
:1024300005D2781910F8200C08B10643F1E7B0076F
:1024400001D526F00406C4F81CA00027C4F818A083
:102450002A2D09D0284600F047FB38B304EB870843
:10246000303DC8F8185019E059F8041B204604EB19
:1024700087029161E1688847012F054618D1E0691C
:10248000002820DA26F020061DE0D8F8180000EB1E
:10249000800005EB40003038C8F818002046E1689D
:1024A0008847054600F020FB0028EED1012F0AD016
:1024B0002E2D08D12046E16888477F1C0546022F53
:1024C00046F02006C4DBA069002803DA404246F04B
:1024D0000106A061F00701D026F010066C2D0BD08C
:1024E000682D09D04C2D39D06A2D35D0742D35D0BA
:1024F0007A2D33D016E038E0E1682F462046884731
:10250000B842054609D16C2F26D04FF48060E168AF
:10251000064320468847054604E06C2F1AD04FF446
:10252000807006430DB3A5F14100192802D820356B
:1025300046F400664A462946204626604E46FFF786
:10254000E7FD80B101280BD0F61D26F0070000F151
:10255000080956E74020E4E78020D8E70020D6E7C6
:1025600006F104094DE7284652E7206ABDE8F09FCE
:102570009CAF000040EA010310B59B070FD1042A6D
:102580000DD310C808C9121F9C42F8D020BA19BA3E
:10259000884201D9012010BD4FF0FF3010BD1AB1A3
:1025A000D30703D0521C07E0002010BD10F8013BF8
:1025B00011F8014B1B1B07D110F8013B11F8014B1F
:1025C0001B1B01D1921EF1D1184610BD032A40F207
:1025D000308010F0030C00F0158011F8013BBCF1C5
:1025E000020F624498BF11F801CB00F8013B38BFDD
:1025F00011F8013BA2F1040298BF00F801CB38BFEB
:1026000000F8013B11F0030300F02580083AC0F008
:10261000088051F8043B083A51F804CBA0E80810B0
:10262000F5E7121D5CBF51F8043B40F8043BAFF3E3
:102630000080D20724BF11F8013B11F801CB48BF3D
:1026400011F8012B24BF00F8013B00F801CB48BF73
:1026500000F8012B704710B5203AC0F00B80B1E8AC
:102660001850203AA0E81850B1E81850A0E81850C7
:10267000BFF4F5AF5FEA027C24BFB1E81850A0E8D0
:10268000185044BF18C918C0BDE810405FEA827CEA
:1026900024BF51F8043B40F8043B08BF7047D20701
:1026A00028BF31F8023B48BF11F8012B28BF20F8A2
:1026B000023B48BF00F8012B704702F0FF0343EADA
:1026C000032242EA024200F002B84FF0000204295D
:1026D000C0F0128010F0030C00F01B80CCF1040C51
:1026E000BCF1020F18BF00F8012BA8BF20F8022B85
:1026F000A1EB0C0100F00DB85FEAC17C24BF00F82B
:10270000012B00F8012B48BF00F8012B70474FF058
:10271000000200B5134694469646203922BFA0E831
:102720000C50A0E80C50B1F12001BFF4F7AF09073D
:1027300028BFA0E80C5048BF0CC05DF804EB89002E
:1027400028BF40F8042B08BF704748BF20F8022B71
:1027500011F0804F18BF00F8012B704770B5064C80
:102760007C44064D7D4403E0206820448047241DBE
:10277000AC42F9D170BD0000FCAC0000FCAC000024
:102780002DE9F0470D4699469246044600F124088B
:102790000168880604D5E06921F01001216000E09D
:1027A0000120A84201DD471B00E00027A1697A193A
:1027B00002EB0900081AA0612078C00602D4204666
:1027C000FFF73EFD002608E0D4E901211AF80600D3
:1027D0009047206A401C761C20624E45F4DB20782E
:1027E000C0060AD52046FFF72BFD06E0D4E90121FB
:1027F00030209047206A401C2062381EA7F1010754
:10280000F4DC07E0D4E9012118F805009047206ABC
:10281000401C2062281EA5F10105F3DC2046FFF7CD
:1028200025FD2078000602D50220BDE8F0870120B2
:10283000FBE7000001694A1C02610878704700B597
:102840008FB0CDE901310021059105497944CDE9E9
:10285000031011466846FFF7C9FD0FB000BD000028
:10286000E5FFFFFF0A6802F8010B0A60704710B528
:10287000436913B1AFF3008001E0FFF708FD0120C9
:1028800010BD127800F124010A7000224A70012262
:10289000EDE711684FF0FF32E9E70000074B70B534
:1028A0000D467B44FFF7CBFF0446284600F008F8AE
:1028B00010B14FF0FF3070BD204670BDDF28000022
:1028C000007B00F08000704710B50446AFF3008035
:1028D0002046BDE81040FFF739BC000010B51E4887
:1028E0000068002800D080471C4900200870811E25
:1028F0001B4801601B494FF0007008601A4CD4F867
:10290000C002800704D4F42218A11DA004F4B8F07A
:102910002A480168D4F8C40261F31D3040F0010078
:10292000C4F8C40203F406F400214FF03040C16043
:102930008161C1174161016203F4B8F3084840386E
:10294000016821F4800101601D480068002802D060
:10295000BDE81040004710BD602480009046800014
:1029600044C500A080E200E000E000A0727769703A
:102970005F736C6565705F636F6D6D6F6E2E630066
:102980004D43555F5355422D3E424C455F44534C99
:102990004545505F434F52525F454E2026204D43E0
:1029A000555F5355425F424C455F44534C4545503B
:1029B0005F434F52525F48575F454E00542480009A
:1029C0006424800000214FF03040C1608161C11754
:1029D000416101620649022004220A60BFF34F8F61
:1029E000BFF36F8F0860BFF34F8FBFF36F8F7047D8
:1029F00080E100E004490220C1F800010860BFF353
:102A00004F8FBFF36F8F704780E100E0FEE71BF44C
:102A1000639300000249096801F0070101707047E3
:102A200004C500A030B4062821D212490A6802F079
:102A30000702824212D00A680F4B1A400F4C224301
:102A40000A6000BF00BF00BF00BF0A681A400C4BFD
:102A5000024333F8203042EA83420A6008491839B9
:102A600051F820000749486030BC76F4C39230BC6E
:102A70007047000004C500A0F8FFE3FF0500080050
:102A800050D10001004180000248016841F470010A
:102A90000160704788ED00E002480068001D1EF4E8
:102AA000DB950000D443800002484068001D1EF4FE
:102AB000D3950000D4438000FEE7002804DB00F13A
:102AC000E02090F80004704700F00F0000F1E020D3
:102AD00090F8140D7047000002480068C0F302200F
:102AE000704700000CED00E030380A2801D20120C8
:102AF00070470020704770472DE9F05F0746894610
:102B000093464FEA5B04A2464D465F4EDFF87C8158
:102B1000EFF31080012181F31088D8F8A41221F07E
:102B20002001C8F8A41280F31088EFF3108001216F
:102B300081F31088D8F8A01221F02001C8F8A01263
:102B400080F31088306820F080403060504830605A
:102B50003F20D8F8001160F30501C8F80011306873
:102B600020F4601040EAC7403060306820F4E02074
:102B700040EA07403060052F03D1306840F4004040
:102B80003060062F03D1306840F4804030603068F8
:102B900040F400503060306820F0605030603068A1
:102BA00020F00F0040F003003060EFF310800121AF
:102BB00081F31088344A3832116821F0E04141F045
:102BC0008041116080F31088306840F080403060B0
:102BD00001E0D8F80000D8F80401C0F30020002874
:102BE000F7D1EFF31080012181F31088116841F0D3
:102BF0000041116080F3108834E000204FF47A71B6
:102C00001AE0884217D9306820F080403060306880
:102C100040F000403060306820F00040306006F046
:102C200083FA1C480168491C016054464D46052042
:102C300078F4E5D76CE7401CD8F80421C2F30022F1
:102C4000002ADED0D8F8040100F07F01A14200D9AB
:102C50002146002003E0D8F8002004C5401C88422B
:102C6000F9D3641A002CC8D15FEACB7008D0D8F829
:102C70000401C0F300200028F9D0D8F80000288013
:102C8000BDE8F05F06F050BA08C500A000E000A063
:102C90000A070807404880002DE9F04107460E4624
:102CA0004FF000080024274D0BE004EBC40005EBB7
:102CB0008000801C07223946FFF75CFC40B1641C91
:102CC000E4B22878A042F0D8B8F1000F18D102E0A1
:102CD0004FF00108F8E728780A21B0FBF1F201FB78
:102CE00012040A2801D2401C287004EBC40105EB31
:102CF00081003968C0F80210B988C180B9790172C1
:102D00002B7811A21021002003F4BCF630780007C4
:102D10000BD504EBC40005EB800006F14601BDE8CD
:102D2000F0410A301C22FFF751BC04EBC40005EB54
:102D3000800006F12A01BDE8F0410A301C22FFF7AD
:102D400045BC0000E8798000523A313A6164642061
:102D50006C746B206974656D2C206E756D203D2040
:102D600025640A000449896B084004490A78104325
:102D700000220A7070470000002001A07844800003
:102D8000104A114900280EDC0868C0F341200128D0
:102D900008D0506C401C5064086820F4C06040F4B7
:102DA0000070086070470A28FCDB086810F4C06FE8
:102DB000F8D0106C401C1064086820F4C0600860F3
:102DC00070470000DC4480000CC500A0014878F486
:102DD00053950000E443800008B5012000900029CD
:102DE00001D100200090044840680168002901D00A
:102DF0006846884708BD0000C84380000078002866
:102E000002D102A0FFF7BAB970470000436F6D709E
:102E1000206973207472696767657265642E0D0A94
:102E200000000000F8B504460E46002C2CD01F4DC3
:102E300004F11C006860E068009094E80E0060698E
:102E400001F0BEFC002820D119491B2008F012FD1A
:102E50001B2019F4E1D11B2019F4FCD16868C4616E
:102E6000066010340ECC041D0EC4001D04F00CF9D5
:102E700000280AD16868001D04F026F9002804D152
:102E80002878012410B10BE00520F8BD2C70012139
:102E9000084807F001FF6880002801DA0420F8BD27
:102EA000686880F820400020F8BD0000C84380001A
:102EB000C348800070D1000110B50A4C606800283A
:102EC0000DD090F8200050B14FF0005076F410D1A2
:102ED0006068001D15F450D10028FFD110BD0920F5
:102EE00010BD0000C84380002DE9F04101460029D3
:102EF0001BD000240F4E0E4A357814E002EB04106C
:102F00000F780378BB420CD14B684068034208D06D
:102F1000707808B900F0C2FB2046BDE8F04100F02F
:102F2000EBBA641CE4B2AC42E8D3BDE8F081000027
:102F300014748000F04380007CB505460E46002DD9
:102F400001D0002418E005207CBD05EB0410416889
:102F50000091017A8DF80410417A8DF8051007214F
:102F60008DF80610C26800780023694600F048F822
:102F70000028E9D1641CE4B2B442E6D300207CBD51
:102F800010B50C46062833D2DFE800F00303031027
:102F90001E27184951F830002104090C04D018B13B
:102FA000214604F065FA1FE0042010BD2004000C47
:102FB00003D0A1B2104804F05BFA200C14D0210C0D
:102FC0000E4804F055FA0FE014F0FF0F03D020462E
:102FD00003F0B4FF08E0042010BD14F0FF0F05D08B
:102FE0002146002004F0B6FA002010BD042010BDD8
:102FF000062010BD90D10001000001A0001001A02A
:103000002DE9F05F05460C46904699462768002654
:10301000052D13D039462846FFF7B2FF2146284632
:1030200000F0ACF800280AD1042D0AD0032D2ED0D0
:103030004FF0100B2807060E002491E00620BDE893
:10304000F09F4FF0080B2079042806D0052809D0FE
:1030500006280DD0072815D110E00021384601F4CC
:1030600090F50FE040F20111384601F48AF509E0CD
:103070004FF00111384601F484F503E03B4938462E
:1030800001F47FF54FF0007076F432D0D4E74FF0C2
:10309000200BD1E7F80760D0052D65D2DFE805F0F9
:1030A000030303254600324800EBC50090F904A055
:1030B000BAF1000F17D0EFF31081012080F31088D0
:1030C000A01900EB40022B4800EB8200C0F80480FE
:1030D000C0F8089081F31088504619F49DD05046EE
:1030E00019F4B8D039E00420A9E7EFF310820120E9
:1030F00080F31088A0191F4B00EB400003EB800108
:10310000C1F80480C1F80890032103F8201082F36D
:103110001088062019F480D0062019F49BD00720CF
:1031200019F47AD0072019F495D016E0EFF3108146
:10313000012080F31088A01900EB40020E4800EB3C
:103140008200C0F80480C0F8089081F31088122033
:1031500019F462D0122019F47DD07F08641CE4B207
:103160005C4597D300206AE7062068E7010101006B
:1031700090D10001B47080003472800070B58EB0C0
:1031800005460C46564901F164004DC8CDE90A02D6
:10319000CDE90C36D1E91E23486F06AED1F8801078
:1031A0000DC6099114224E49843101A8FFF753FA44
:1031B000ACB14C49062008F05DFB4B49072008F0F4
:1031C00059FB4A49122008F055FB4549444A2C3125
:1031D000062D7CD2DFE805F00606062141590520C0
:1031E0000EB070BD207931F810000B90607932F884
:1031F00010000C90A0790D9020680A903848143087
:1032000050F8350021880904090C04D018B10AA926
:1032100004F07CF959E00420E2E7207931F810004D
:103220000B90607932F810000C90A0790D90206816
:103230000A9020680104090C05D080B20A900AA9FE
:103240002B4804F063F92068010C3ED0000C0A9072
:103250000AA9284804F05AF937E0207901EB400028
:10326000408A0790607902EB4000C0880890A079FE
:10327000099020680690207810F0FF0F03D006A870
:1032800003F0AEFE21E00420AAE72079031F032B00
:1032900001D80720A4E702281AD001200290207943
:1032A00001EB4000808C0390607902EB4000808944
:1032B0000490A079059020680190207810F0FF0F0D
:1032C00009D001A9002004F09DF9002088E704E05E
:1032D00002200290E3E7042082E7062080E7000056
:1032E0007CD100011F4980001949800015498000E8
:1032F000000001A0001001A010B502460C460020FD
:10330000062A26D2DFE802F00303030B1A1F114836
:1033100050F83200A1B2BDE8104016F4D893210451
:10332000090C03D0A1B20C4816F4D1D3210C10D053
:10333000210CBDE81040094816F4C993A0B2BDE8BD
:10334000104014F49793A1B2BDE81040002004F09F
:103350005CB910BD90D10001000001A0001001A0D7
:10336000002803D002490860012070470020704700
:10337000F843800070B505460024091F062917D2BE
:10338000DFE801F003070C111315284600F0A4F83C
:103390000EE00124284600F09FF809E002242846A8
:1033A00000F09AF804E0032402E0042400E005247D
:1033B000034A214628461268BDE8704010470000C5
:1033C000F84380002DE9F0410446204600F0AEF8B5
:1033D00001462E4800230826025D00F10A0700F18D
:1033E0001405AAB1052A33D0082A2AD1092945D0C3
:1033F000082926D1295D491CC9B22955142920D391
:103400002B5506552046BDE8F0410821FFF7B2BF15
:10341000052913D0042916D0072914D0082910D162
:10342000295D491CC9B2295514290AD32B550655C3
:103430002046BDE8F0410821FFF79CBF3B55052120
:103440000155BDE8F0812046BDE8F041FFF792BF8D
:1034500005290CD0395D491CC9B239553229F0D340
:1034600003552046BDE8F0410521FFF783BF035512
:103470002046BDE8F0410621FFF77CBF03552046FA
:10348000BDE8F0410921FFF775BF0000F47480002A
:1034900070B504460D4600F00FF808B100F014F9BD
:1034A0000348044A2946005D5268BDE87040104751
:1034B00008748000F04380000020064911F81020B5
:1034C0000AB100207047401CC0B20A28F6D3012080
:1034D00070470000127580000349002201F8102097
:1034E00001EB40004270704712758000014A02F8FB
:1034F0001010704712758000024A012102EB400053
:10350000417070471275800070B50024064D05EBC0
:103510004400407810B12046FFF754FF641CE4B229
:103520000A2CF4D370BD00001275800070B5002124
:103530001D4B03F132051A5C002A09D0002403F167
:103540000A06012A0AD0022A12D0032A24D11FE037
:1035500015F8102002B301221A541DE015F81020AE
:103560001AB1345402221A5416E01C54042113E0F8
:1035700015F810204AB1325C521CD2B23254642A7F
:103580000AD3072103221A5406E005211C5403E044
:1035900015F8101011B10821084670BD1C54FFF732
:1035A0009BFF0921F8E70000E074800070470000ED
:1035B0002DE9F0410E4617460A2E02D80FB100231E
:1035C00020E00020BDE8F08103EB430410F8241054
:1035D000032901D0042913D100EB8405114AA97AEB
:1035E000D154104910F824200C3101EB031422703F
:1035F00069686160297A2172697A61720A49E160B9
:103600005B1CDBB2B342DFD3064831460C30FFF718
:1036100093FC0648067047600548FFF7A1FE0120AD
:10362000D0E7000008748000E92E0001F04380001C
:10363000913400012DE9F0410024124FDFF8488059
:1036400019E0002607EB041528786968FFF754FE97
:1036500010B9697A012902D0012802D005E00126BB
:1036600003E0687A022800D1012631462046FFF7A0
:103670003DFF641CE4B298F800008442E1D3BDE849
:10368000F081000014748000F043800010B5FFF753
:10369000D1FFBDE81040FFF737BF000010B5074A63
:1036A0000121074800F048F800220A21044800F0F0
:1036B00091F904490120487010BD00008D360001C9
:1036C000B8748000F043800010B5034800F05DF846
:1036D00002490020487010BDB8748000F04380009B
:1036E000002806D0002904D0024AD269002A00D05E
:1036F00010477047E073800070B50D4616460D4CBC
:1037000000280AD00178032911D80121A1760146A9
:103710001A222046FEF75AFF05E00020A0761A2163
:103720000448FEF7F4FFE5612662002070BD012029
:1037300070BD0000E07380002DE9F04104460D46A5
:103740001746002D04D0012D02D00120BDE8F081E4
:10375000CCB1C7B1EFF311860220FFF7AEF9804676
:10376000FFF7BAF9401C0121814008EB0100C0B20B
:1037700080F3118800206070A570E761F0B280F3DB
:1037800011880020E2E70120E0E710B50446002C94
:103790000CD0204600F0B0F9FF2060700021A1603D
:1037A000E160216161610020E06110BD012010BD78
:1037B000F0B5DDE90745059981614FF47A76A2FB02
:1037C000061C03FB06C3002702FB0732C0E90212F6
:1037D00009196A41C0E9041200210162F0BD00002C
:1037E0002DE9F0410446002C13D0EFF3118502209F
:1037F000FFF763F90746FFF76FF9401C012606FA49
:1038000000F03844C0B280F31188124800212162D0
:103810000EE00020BDE8F081D4E90432D1E9047C57
:10382000DB1B72EB0C0202D2016A216203E0084644
:10383000016A0029F0D104626670064820380168E8
:10384000491C0160016C4160E8B280F311880120DD
:10385000E0E70000B87280002DE9F0410546002441
:10386000EFF311860220FFF728F90746FFF734F936
:10387000401C012181407818C0B280F31188134A9E
:10388000106CE8B115B102F1200010E00446206A86
:1038900010641068401E10600CE0A94206D1116847
:1038A000491E1160296A01622C4603E00846016A3C
:1038B0000029F2D124B1002020626070106C5060A9
:1038C000F0B280F311882046BDE8F0819872800044
:1038D0002DE9F041EFF311870220FFF7EEF80446DF
:1038E000FFF7FAF8401C012181406018C0B280F354
:1038F0001188114D002608E02078012804D1E169E3
:1039000009B1A069884726702D6A2C6A002CF3D172
:10391000094D203D07E0E16909B1A069884726709B
:10392000206AA8602662AC68002CF4D1F8B280F35B
:1039300011880120BDE8F081B87280002DE9F041C6
:10394000EFF311870220FFF7B8F80446FFF7C4F839
:10395000401C012606FA00F02044C0B280F3118812
:103960001B4DA5F1200829E0D4E90420D8E904136F
:10397000521A60EB0300D8E906319A1A814120D32C
:1039800026702046FFF768FFA078012802D0104873
:1039900018380DE0D8E90430D4E902219A184841DA
:1039A000C4E904202046FFF71BFF07E001F12000D7
:1039B00001680029FAD12162006804622C6A002C97
:1039C000D2D1F8B280F311880120BDE8F081000067
:1039D000B87280002DE9FF5F82460E4693464FF095
:1039E0000008BAF1000F20D0414886421DD8E6B148
:1039F000EFF311870220FFF760F80446FFF76CF839
:103A0000401C012181406018C0B280F311885046EB
:103A100005F0FAF810B19AF8010040B1F8B280F35D
:103A200011880F2004B0BDE8F09F0120FAE706F0EE
:103A3000FBF804460D464FF47A7106FB01F022466E
:103A40002B46002105F0B0F8DFF8A890B0B1D9F806
:103A5000040048B1D0E90410091B60EB0500C9E976
:103A6000041006F07DF904E00021C9F81010C9F82F
:103A700014104FF00108D9E9040106E0D9F8040058
:103A8000D0E90421101B61EB0501CDE902013246AA
:103A90000023CDF800B05046FFF78AFE5046FFF7EE
:103AA0009FFE07F0BDFE4FF0E021D1F800014FF07E
:103AB000806210F0806F01D0012000E0002018B972
:103AC000C1F88022C1F80021B8F1000F0AD0D9F85E
:103AD0000400D0E90431D9E90402181A61EB0201AB
:103AE00006F0D8F8F8B280F3118800209AE70000B9
:103AF000008AB907987280002DE9F041044600253C
:103B0000002C39D0EFF311870220FEF7D6FF0646CE
:103B1000FEF7E2FF401C012181407018C0B280F323
:103B200011886078012824D1144E7068A0420BD10E
:103B300006F07AF8D4E90432181A62EB0102C6E9F9
:103B4000040206F00DF901252046FFF785FE5DB160
:103B5000706848B1D0E90421D6E90403101A61EB7A
:103B6000030106F097F804E01DB9706808B906F083
:103B7000F7F8F8B280F31188BDE8F0819872800000
:103B800070B504461A4D55F82400703007F07FFADE
:103B900082B21646A2B155F8240090F8011101290D
:103BA0000ED0012180F80411802A0FD355F824008B
:103BB000802200F18001703007F07EFA80260CE050
:103BC00055F82410002081F8000170BD55F824003C
:103BD00000F18001703007F06FFA55F8240032468A
:103BE00000F18001001D1DF425D70028EDD170BD26
:103BF000D4438000704700002DE9F8430446464F47
:103C000057F82400061D022C7DD290F86C10002974
:103C100079D001297ED180F80111002157F82400C4
:103C2000D0E903231344027D02F00102D21D9D1846
:103C30004268D36FC3F38003002BFAD090F80421BD
:103C4000A2B1364A1368491C90F83B20102A06D0CE
:103C50008268B3FBF2F26A43B1EBC21FF3D957F8A3
:103C60002400703007F013FA85B226E0B0F8248003
:103C7000C58C001D1DF456D357F8240041F288333B
:103C800000EB0801491B8031001D2A461DF497D620
:103C9000E5E757F8240001227030694607F00CFA76
:103CA00057F824004068C16FC1F340010029FAD0E1
:103CB0009DF8001001606D1EADB2002DE9D157F8DE
:103CC0002400703007F0E3F90028C8D1306841695A
:103CD0004906FCD5EFF31085012080F3108857F8D2
:103CE0002400703007F0D3F958B1EFF310810120B0
:103CF00080F310883068426842F08202426081F3AB
:103D00001088002000E005E057F8241081F8010138
:103D100085F31088BDE8F883D44380000441800017
:103D20002DE9F04389B0054688462C78002D06D051
:103D30002AB1022C05D3082009B0BDE8F083052084
:103D4000FAE7384E05F1580046F82400D2E9003170
:103D50000A467030194607F085F9291D8946242244
:103D60000C316846FEF777FC291D286D0EC908F056
:103D700025FA0028E0D12C490C2007F07BFD2B49C7
:103D80000D2007F077FD2A4800EBC40797F90100E2
:103D900018F442D297F9010018F45CD256F82400C6
:103DA000C0F8649056F82400C0F8008056F824004B
:103DB0001822083005F14001FEF74DFC56F824109A
:103DC0007868486056F82400001D03F01FFD56F87F
:103DD0002400001D03F050FD351F0127287850B93D
:103DE0002F7013480321103006F056FF688000281A
:103DF00001DA0420A0E756F8240080F86C7056F829
:103E00002410002081F8000156F8241081F80101E7
:103E100056F8241081F8020156F8241081F80301A5
:103E20008AE70000D4438000992A0001A92A0001F2
:103E30001CD200012DE9F04104461A4D55F824002A
:103E4000703007F024F982B2164600277AB155F88F
:103E5000240090F80111012909D0802A0ED300F125
:103E600080017030802207F027F980260BE055F89A
:103E7000240080F800710020BDE8F08100F180018D
:103E8000703007F019F955F8240080F8047155F8DE
:103E90002400324600F18001001D1DF411D60028D7
:103EA000EAD1E9E7D443800070B5022801D30820A5
:103EB00070BD0C4D55F820407CB194F86C6066B133
:103EC00069B162B1002684F8026155F82000001D36
:103ED0001DF475D50028EBD170BD052070BD042000
:103EE00070BD0000D44380002DE9F04106460C4629
:103EF000174604F10805204671F45ED4C3B21B488E
:103F0000E1184268914202DD0320BDE8F0811849C2
:103F1000184A006809681268891A081A001FE91807
:103F200081421CD94FF4004513A22946002002F417
:103F3000A9F500F095FC30B118A22946002002F442
:103F4000A1F50820E1E71DA22946002002F49AF518
:103F50003A4621463046BDE8F04108F001BB3A46FA
:103F600021463046BDE8F04108F0FABAD832800068
:103F7000D0238000CC238000523A353A4E56445329
:103F80002061726561206973206265696E672063D4
:103F90006F6D7061637465642E0D0A00523A353A94
:103FA000436F6D70616374696E67204E5644532091
:103FB0006661696C65640D0A00000000523A353A8A
:103FC000436F6D70616374696E67204E5644532071
:103FD0007375636365737366756C0D0A000000008A
:103FE0007CB50D46002200920192694602F44CF520
:103FF000044634BB4FF42051684602F447F5B8B983
:1040000042F60101684602F441F588B942F603011F
:10401000684602F43BF558B942F60201684602F4DC
:1040200035F528B94FF42451684602F42FF508B14C
:10403000062406E00098C5F30B0180880843009928
:10404000888020467CBD00002DE9F04105460C46E5
:10405000FF26217A1E2905D022480279521E52B22B
:1040600000683AE004F10801284602F411F506461A
:1040700035E010F832308B422DD11B4E56F825001A
:10408000406F30B300273B4618A24021002002F4C5
:10409000F9F4062000EB05202CF46CD1C00605D500
:1040A000002717A24021002002F4ECF421460C392D
:1040B00056F82500743002F4EDF40020A0800126AB
:1040C0006FB115A2402102F4DDF4284602F4E4F4B5
:1040D00005E00127D7E7521E52B2002AC9DA30465E
:1040E000BDE8F0817C058000C40E8000523A333A6E
:1040F000657865637574653D307825780A00000041
:10410000523A333A636F6E6E656374206E6F74203B
:1041100063666D0A00000000523A333A73746172AC
:104120007420657865637574650A00002DE9F041B7
:104130000546884628466CF403D0C0B22449097865
:1041400088420DD200EB4000213040F4004042464E
:10415000AC2106F0CDF90446200032D0012430E035
:104160006CF432D0C7B207EB470606F1200040F4EA
:1041700000402A46072106F0BBF910B10120BDE836
:10418000F081384678F470D106F1210040F4004007
:104190004246AC2106F0ACF90446200001D00120D3
:1041A000EDE7223646F4004005F0F8FF0949C7EB79
:1041B000C7000968084429680160A9888180A97935
:1041C00081711CB941462846FEF766FD2046D6E7B8
:1041D000382380003C23800006F090BE10B5FFF726
:1041E000FBFF054903480860BDE81040034877F429
:1041F000AD93000017B8800474C500A00087930336
:1042000010B50446002C0CD0204600F051F80028D0
:1042100007D104494968002903D02046BDE8104071
:10422000084710BD304780000A2805D2034A002104
:1042300052F8200080F88F1070470000C40E8000F4
:1042400070B504460D46204607F040F8002805D119
:1042500029462046BDE8704064F4AC9670BD00006D
:1042600000B58BB0094901200870FF22282101A860
:10427000FEF723FA4FF48070ADF804000020ADF88B
:10428000060001A8FFF7BCFF0BB000BD304780005F
:1042900010B506480068002800D0804701F402F1FC
:1042A00008B1012010BD002010BD0000984680001C
:1042B00070B50446002C1FD04FF6FF7319462288B4
:1042C00040F20155A2F201504FF48076AA424CD040
:1042D0001BDC40F20245A2F20240AA4234D00DDCBF
:1042E000A2F54072013A25D0012A23D0FF2A29D015
:1042F000B2422ED121892CE0002070BD012825D0AA
:10430000022825D0FE2824D12AE004282DD006DC5E
:1043100001282AD0022828D003281AD125E0052810
:1043200023D0062821D0B04213D1204602F020F934
:10433000002070BD204602F03DFC204602F04EFBFE
:10434000002070BD218904E0218902E0618900E03C
:10435000218A99420ED0204602F03CFC012070BD1B
:10436000204602F0CFFB002070BD204602F046FB45
:10437000002070BD002070BD70B50026150A0E48E3
:1043800005EB450200EB0214098821800120A07092
:104390002846FFF749FF00206BF472D707480168F1
:1043A00029B10B681BB122880021284698476BF47D
:1043B0009DD7304670BD0000D42E8000B82280000A
:1043C0003EB500241D0A0A78122A02D0132A04D00E
:1043D00006E000208DF8000002E001208DF80000CA
:1043E0008888ADF804004888ADF80200891D029164
:1043F00000206BF445D70B48016829B18A691AB1CE
:1044000069462846904708E09DF80000012804D13D
:10441000BDF804102846FFF713FF6BF467D720465A
:104420003EBD0000B42280000148007870470000C3
:10443000504880007CB50E46150A0020009001907F
:104440006946284675F49AD79DF80620694628469D
:1044500002F09EF80446CCB165F498D5C0B165F47D
:1044600095D5C01C81B232880023204670F476D1E5
:104470006946284606F092FF40B106A2402100207E
:1044800002F400F32146684661F4DED200207CBDD0
:104490000020E7E7523A333A73617665206363633D
:1044A000640A000010B58AB00446FF22282168463D
:1044B000FEF703F940F20271ADF800100021ADF8EB
:1044C00002108DF804406846FFF79AFE0AB010BD4E
:1044D00000230849496808E0CA88824204D80A894A
:1044E000824201D3CB6802E009680029F4D1184662
:1044F000704700004448800070B519480468194DA1
:104500002878002801D0002070BD4FF0806074F43E
:10451000EFD501F4C1F5600875F4FAD412490860CA
:104520008817114901262C39086010497006C1F816
:10453000FC01C8674FF03041086B40F0070008638A
:10454000094C303C206840F4E020206001F4E6F59E
:104550002E70206820F4E0202060012070BD000053
:104560006C2480009046800070C500A084E000E0CC
:1045700070B50024EFF31086012080F3108801F459
:10458000E8F5104D28B102242968B9B10220884706
:1045900014E0FFF77DFE20B1296879B1002088473B
:1045A0000CE0FFF7A9FF28B10224296831B10220ED
:1045B000884703E0296809B10020884786F31088FE
:1045C000204670BD5C248000034900EB800001EBB5
:1045D000800080887047000034458000034A00EB6B
:1045E000800002EB8000818070470000344580002D
:1045F00010B500F065F800F047F8BDE8104000F095
:1046000001B8000000B58FB003228DF800204FF4F0
:104610008050019005218DF8081001208DF80900C7
:1046200000238DF80A308DF80C20430304938DF895
:1046300014108DF815008DF816008DF81820C3039E
:1046400007938DF820108DF821008DF822208DF829
:10465000242082030A928DF82C108DF82D0002225E
:104660008DF82E2004238DF830300D928DF83810FF
:104670008DF839008DF83A30024A6846FEF798FF07
:104680000FB000BDAD3500017CB5102600960224A8
:104690008DF804408DF8054007258DF806506946D1
:1046A0000320FEF76BFD00968DF804408DF8054061
:1046B0008DF8065069460520FEF760FD7CBD0000C0
:1046C00000B587B000F01EF803208DF800001D2013
:1046D0008DF8160001208DF817008DF818008DF860
:1046E0001900044A04496846FFF706F8FEF76EFB16
:1046F00007B000BDFD460001554700010020FFF74F
:104700007BBA00001CB5114800904FF480640194FE
:1047100000F58060002101704FF4E1320264032251
:1047200042648164C1640165012141650274CB0268
:104730004361022343740176027184604371017303
:104740006A460349FFF7ECFA1CBD0000006B8000CD
:10475000F53B00010A4601464FF47A730020FFF74B
:10476000A3BB00000E4910F1210F06DA086820F4FF
:10477000704040F440500860704710F11D0206D3AD
:10478000086820F4704040F48040086070470A28B0
:10479000FCDD086820F4704040F4A04008607047D9
:1047A00024C500A010B506F053FD06F05FFA07F02F
:1047B00059FA00F071FBBDE8104006F041BD000061
:1047C0000FB41CB5044614484068019008208DF8C9
:1047D000040000208DF80500069800909DF8150053
:1047E0008DF806009DF814006946FEF7C7FC002806
:1047F0000ED1302C0CD0382C0AD0089800909DF89F
:104800001D008DF806009DF81C006946FEF7B6FCF9
:104810001CBC5DF814FB000068D1000110B5044910
:104820000448FEF7FFFABDE81040FEF745BB000064
:10483000FD2D0001FC43800010B50848406890F849
:104840002010012908D1EFF3108481F31088001D96
:1048500013F4D8D484F31088012010BDC84380001D
:104860002DE9F04F87B07B48D0F800900024002558
:10487000A246002607F046FB77480168C9F80010F9
:104880004068C9F80400754800680830059009F1CF
:1048900008000690042203A9059800F0C9FABDF8A3
:1048A0000C10A1F57F40FF3843D0082203A90598DA
:1048B00000F0BEFABDF80E0070F47ED700F0FF08DD
:1048C000BDF80C00002867D00698A9EB000707F593
:1048D0008057BDF80E1008F1080083460844B8421E
:1048E00063D805AB082203A906A800F0D7F8BDF8E5
:1048F0000E00002300EB080205A906A806F04AFAFC
:10490000641CBDF80E005844B842C3D10020CDE964
:10491000006053464A462146284607F037FD0028E6
:1049200026D1824600260024CDF818906D1CEDB2E9
:10493000B0E70020CDE9006053464A4621462846AC
:1049400007F024FD002813D16D1CECB2434D4FF449
:104950008057434E08E0286800EB0430394602F0E7
:10496000FDFC40B1641CE4B2707AA042F3D8002090
:1049700007B0BDE8F08F3B488169407A40F27C4245
:10498000CDE900200291384B38A24FF400410020BD
:1049900002F478F00920EBE7BDF80E00059908F164
:1049A000080808444044059074E7082F29D305AB54
:1049B000082203A906A800F071F8083F2FB10023D0
:1049C0003A4605A906A806F0E5F9611C0020CDE9E4
:1049D000006053464A46284607F0D8FC0028C7D155
:1049E0008246BDF80E004044C61B0024CDF8189046
:1049F0006D1CEDB20023324605A906A806F0CAF9DF
:104A000048E705AB3A4603A906A800F047F8611C41
:104A100003A8CDE9006053464A46284607F0B6FC95
:104A20000028A5D1C7F1080ABDF80E0000EB080662
:104A30000024CDF818906D1CEDB20123524605A953
:104A400006A806F0A7F90023324605A906A806F035
:104A5000A1F91FE7D8448000ACD50700CC23800023
:104A6000D8328000641F8000E6D20001523A353A05
:104A700025732C204C256420666C61736820737448
:104A8000617465203078253032582C206572726F41
:104A900072203078253038580D0A000070B5044671
:104AA00015461E462A462068FDF790FD30682844CA
:104AB000306020682844206070BD000010B50548B3
:104AC000017B491C0173002075F490D0BDE81040B3
:104AD00000F050B8DC4480002DE9FE43FFF77CFB7A
:104AE0001E48016821F4003101601C4E083E306808
:104AF0001B4980B2084330601A4803C8CDE9000161
:104B000016482C380068C82100F007001DF8000086
:104B100010FB01F514480768144CD4F8008038469F
:104B2000414602F061FB62686068831AAB42FBD3C6
:104B30004146384602F038FB06F0ECF802909DF84A
:104B4000080028B19DF80800094948618861C861DA
:104B5000306820F07F403060BDE8FE8330C500A0A3
:104B600000008F11F04D0001FCED00E0001000E0AE
:104B7000DC4480002DE9FC412D4E306820F07F4060
:104B800040F0885030602B4803C8CDE90001284828
:104B90002438006800F007011DF80100C82110FB4F
:104BA00001F525480768254CD4F800803846414671
:104BB00002F01AFB62686368981AA842FBD3414668
:104BC000384602F0F1FA002506F0A4F80446DFF8B2
:104BD0007080D8F81800844201D9012700E000272E
:104BE00074F4AAD640B91FB1D8F81800201A02E010
:104BF000D8F81800001BC5B2D8F81800C8F8200073
:104C0000B5EB900F03D8292C01D8112C02D200F05B
:104C100019F807E000EBC00020440A21B0FBF1F0D6
:104C2000C8F81800306820F07F403060BDE8FC8193
:104C300028C500A0F04D0001FCED00E0001000E0F0
:104C4000DC4480002DE9F04F87B000200690082456
:104C5000DFF890811A20C8F8140063480168634A9D
:104C600089B21143016005A8FDF7D4FE0220FDF7CB
:104C7000D9FEDFF8749109F10809D9F8000020F491
:104C80007C3040F42030C9F8000059A003C8CDE9B9
:104C90000201DFF854A1AAF1240ADAF8000002A9FF
:104CA00000F00700085CC82110FB01F5DFF848B1EF
:104CB000DBF800000190514F3E680198314602F048
:104CC00093FA78687968091AA942FBD331460198AA
:104CD00002F06AFA06F01EF804909DF81010D8F859
:104CE0001400814204D99DF81020811C8A4263D9A6
:104CF0009DF81010814204D29DF81020811E8A4236
:104D00005AD29DF81010814201D9012500E00025FA
:104D100015B1641C64B201E0641E64B2202C11D38E
:104D2000D9F8000020F47C3040F42030C9F80000AD
:104D3000D8F83C00401CC8F83C000020049001203A
:104D4000069039E0D9F8000020F47C3040EA0430C5
:104D500040F40030C9F8000025A003C8CDE90201E5
:104D6000DAF8000002A900F00700085C642110FBDB
:104D700001F6DBF80000019038680090DDE90010D2
:104D800002F032FA78687968091AB142FBD3DDE99A
:104D9000001002F009FA05F0BDFF049035B19DF84E
:104DA0001000D8F814108842B2D805E09DF8100021
:104DB000D8F814108842ABD39DF81400FDF732FEEA
:104DC0000948016821F07F4101609DF81000C8F892
:104DD0001800D8F82400401CC8F82400069807B032
:104DE000BDE8F08FDC44800028C500A000008F11D2
:104DF0004030101810200000FCED00E0001000E032
:104E00000A49322808DDD1F8200220F4706040F40D
:104E10004070C1F8200270472828FCDAD1F820023F
:104E200020F47060C1F820027047000000E000A08C
:104E30002DE9F04105460E461746094C2378002B14
:104E400002D0002071F42CD03A463146284602F0B8
:104E5000C5FA0546207871F423D02846BDE8F081D4
:104E6000C92380002DE9F04105460E461746094C3E
:104E70002378002B02D0002071F412D03A4631463C
:104E8000284602F0BBFA0546207871F409D028467E
:104E9000BDE8F081C92380000121024A00206AF4A4
:104EA000639600007D6D000110B5104C02220421B4
:104EB000204604F035FA01221021204604F030FA91
:104EC00002228021204604F02BFA022240212046B3
:104ED00004F026FA02222021204604F021FA20467E
:104EE0000222BDE81040082104F01ABA001001A007
:104EF0002DE9F04106460F461C4C4FF6FF75238CFA
:104F0000102B0AD3208821466084CD835B1E0B843E
:104F10001E22891C2046FDF759FB608C324639461B
:104F200005F0E6FA10B10C20BDE8F081208C1028C5
:104F300004D3401C2084608CE08308E0618C24F85A
:104F40001010208C401C2084608C401C608400F079
:104F50000FF80028E8D0218C491E89B22184628C88
:104F6000521E628424F81150DEE700002879800088
:104F700010B5054A24214FF4204005F0B9FA08B1D4
:104F80000C2010BD002010BD287980002DE9FE4FB7
:104F900007460D4602AA2946384607F07DF810B1AB
:104FA0000298BDE8FE8F029C00260296DFF868801A
:104FB00098F8000010B1002070F472D7DFF85CA000
:104FC0004FF6FF7908226946204602F007FABDF83D
:104FD0000000484502D12E80029617E0B84206D163
:104FE00015B1BDF802002880083402940EE0BDF827
:104FF000020070F4E1D3BDF80210083021444418D7
:10500000DAF800008442DDD32E80029698F8000082
:1050100070F446D70298C4E7C9238000D0238000EB
:1050200070B506460024094D0BE004EBC40005EB07
:105030008000801C07223146FDF79CFA20B1641CD9
:10504000E4B22878A042F0D8204670BDE87980000C
:1050500010B50021084B5A681B8809E052F831400E
:10506000844203D102EBC100406810BD491C89B2E3
:105070009942F3D310BD00004C44800010B50021CC
:10508000084B5A681B8809E052F83140844203D12A
:1050900002EBC100406810BD491C89B29942F3D3AC
:1050A00010BD00004044800010B50021084B5A6834
:1050B0001B8809E052F83140844203D102EBC10061
:1050C000406810BD491C89B29942F3D310BD00005D
:1050D000544480000349095C002902D0002104F0F7
:1050E00085BA7047527B800010B5884210D80829D5
:1050F0000ED2094B074A5A6006E003EB800294681F
:1051000044F001049460401C8842F6DD03201860DE
:1051100010BD000000400030002000E02DE9F04705
:10512000164F3868002826D04FF0000900240025CB
:105130000526DFF84C8013E005EB4501012018F847
:10514000212090403A68104208D008EB81032246A3
:10515000D3E90101641CE4B200F01CF86D1CEDB24F
:10516000B54201D2062CE7D3641EE1B24846BDE841
:10517000F047FFF7B9BFBDE8F08700003C4480006E
:1051800038D2000113B501216846FEF7A9FA0120C3
:105190001CBD000070B505461446114840F8345057
:1051A00000EBC4004160284601F010FE0646FF20D7
:1051B00001F016FE014625F001000A4B850703EBBE
:1051C0008402094B06D0801E906006EB014043F834
:1051D000240002E0906043F82410204670BD0000D7
:1051E000643D8000002000E0004000302DE9FC41DB
:1051F0000C46474A6178A07852F82110CDE900109A
:10520000237844A21021002001F43CF460780126A8
:105210004F4F052530B1012837D0022849D0032847
:1052200072D15AE020786DF439D2C0B2C0EBC0011F
:1052300007EB81014D72A278452A09D1CA6812781C
:10524000022A17D091F82020022A01D081F820608C
:1052500091F82020012A04D0022A02D0032281F8EA
:10526000202091F82020022A4ED0C968097802290E
:1052700006D102E007224A72EAE7A178452943D025
:10528000344A0021126890473EE087F89950A07890
:10529000452805D197F89C00022801D087F89C602A
:1052A00097F89C0002282FD02B49002009688847D6
:1052B0002AE087F8A550A078452805D197F8A800DE
:1052C000062801D087F8A86097F8A80006281BD008
:1052D000224900200968884716E020786DF440D202
:1052E000C0B207EB001181F8B150A278462A01D074
:1052F000CE2A01D181F8B35091F8B310022903D01E
:10530000174A0021126890470020BDE8FC81000088
:1053100068228000523A313A6163742073746F706E
:105320007065642C206163745F6964783A20256439
:105330002C206163745F747970653A2025732C208A
:10534000726561736F6E3A203078253032780A00CA
:105350007C27800010228000142280001822800008
:105360001C22800010B58AB00C46FF222821684616
:10537000FDF7A3F940F20A20ADF80000ADF80240B5
:105380006846FEF73DFF0AB010BD10B58AB004466E
:10539000FF2228216846FDF790F940F20D20ADF874
:1053A00000000020ADF802001C22214602A8FDF7F3
:1053B0000DF91C3409946846FEF722FF0AB010BDAF
:1053C00030B58BB005460C46FF22282101A8FDF719
:1053D00074F940F20722ADF80420ADF806408DF8CC
:1053E000085001A8FEF70CFF0BB030BD37B58AB0EE
:1053F00005460C46FF2228216846FDF75EF94FF46A
:105400000272ADF80020ADF802408DF804509DF80E
:1054100030008DF808006846FEF7F2FE0DB030BD92
:1054200000B58BB0FF22282101A8FDF746F94FF403
:105430004170ADF804000020ADF8060001A8FEF7A9
:10544000DFFE0BB000BD00002DE9FF470C4666787B
:105450008DF80D6020784FEA1329CDE900905A4B62
:105460005AA210210296002001F40CF3207864491E
:10547000644F4FF0000801EBC905092861D008DC32
:10548000092824D2DFE800F09A8B9A4A4A9A9A2493
:10549000240017282FD004DC0B2807D0142816D19D
:1054A0006AE0182814D0192811D111E06078222858
:1054B0000DD100206AF4E4D65348006828B143684F
:1054C0001BB100220F21484698476AF40FD775E0B8
:1054D0006BF4CCD5044685F8058000206AF4D0D65C
:1054E000386828B1436D1BB122463146484698477B
:1054F0006AF4FCD662E06BF4B9D5044685F8048002
:1055000000206AF4BDD6386828B183681BB12246F2
:105510003146484698476AF4E9D64FE06BF4A6D581
:10552000044685F8068000206AF4AAD6386828B1B7
:10553000836D1BB122463146484698476AF4D6D659
:105540003CE06BF493D5044685F8028000206AF4B1
:1055500097D6386830B1C36C23B136B12246314694
:10556000484698476AF4C2D628E0002CFAD0224672
:10557000314648469847F5E76BF478D5044685F8F8
:10558000038000206AF47CD6386828B1C36D1BB153
:1055900022463146484698476AF4A8D60EE060781D
:1055A00060B100206AF46CD6386828B1C36B1BB1B7
:1055B00061780022484698476AF498D66BF45CD527
:1055C00004B00020BDE8F087F3D20001523A313A2E
:1055D00025733A20636F6E696478203D2025642C22
:1055E000206F70636F6465203D20305825782C2033
:1055F0006572726F72203D203058257800000000DF
:105600002A27800098218000EC23800010B58AB002
:105610000446FF2228216846FDF74FF840F2033187
:10562000ADF80010ADF802406846FEF7E9FD0AB09B
:1056300010BD70B58AB005460C461646FF222821DB
:105640006846FDF73AF840F20131ADF80010ADF8C8
:1056500002408DF804501222314602A8FCF7B6FF32
:105660006846FEF7CDFD0AB070BD70B58AB006463B
:105670000D461446FF2228216846FDF71EF84FF418
:105680004273ADF80030ADF802508DF80460206828
:105690000290A088ADF80C006846FEF7B1FD0AB094
:1056A00070BD00002DE9F041ADF50E7D0C461E0ADF
:1056B000304663F48FD30746304663F48BD300281B
:1056C00034D04DA1009133464DA21021002001F4A9
:1056D000D9F1FF2E5BD0574D2088288060886880E4
:1056E000A088A880E088E880207A2872607A6872B2
:1056F0002F74D4F80A00C5F80A00E089E8814E4A00
:10570000002102EBC60001604160218822F83610BA
:105710004FF4CA7129A8FCF7FAFF29A860F482D0D7
:10572000687ADFF81881012816D101E044A1C9E7A1
:10573000E87B0121B1EB901F0ED198F81C014007C6
:105740000AD59DF8A40038B1A02101A8FCF7DFFF1D
:10575000002429AD01AF3DE004F10A02617A15464B
:10576000304674F429D6617A2A46304600F05CFF50
:10577000354C6FB100206AF483D5206828B1836B63
:105780001BB12C4A0021304698476AF4AFD52DE072
:10579000032088F8A800D8F8AC000078012825D1AB
:1057A00000206AF46DD5216829B18B6B1BB1214AA9
:1057B0000021304698476AF499D517E004EB84003D
:1057C00005EBC001093107EB04101022FCF7FEFEC7
:1057D000641CE4B29DF8A400A042EFD815499DF8DE
:1057E000A43001AA0A3130466DF48CD40DF50E7D3B
:1057F0000020BDE8F0810000534C415645000000F8
:10580000523A313A636F6E6E656374696F6E5F72A0
:1058100065715F696E645F68616E646C65723A2081
:10582000636F6E6964782025642C20726F6C65202C
:1058300025730A00182780002A2780007C27800013
:105840004D415354455200009821800070B58AB0F4
:1058500006460D461446FF2228216846FCF72DFF18
:1058600040F20533ADF80030ADF802508DF8046019
:1058700020680290A088ADF80C006846FEF7C0FCD6
:105880000AB070BD30B58BB005460C46FF2228210A
:1058900001A8FCF712FF40F20632ADF80420002206
:1058A000ADF806208DF808502068039060680490D9
:1058B00001A8FEF7A5FC0BB030BD00002DE9F041BA
:1058C0000D46E879FF2819D01B4FB96889B3002429
:1058D0006CF4C4D6C6B216B1032E05D008E0E87940
:1058E0006CF4DCD6C4B203E0E8796CF439D7C4B206
:1058F000BB682A462146304698471AE000210E2010
:1059000065F4F2D70446A4B1012020702868C4F8D9
:105910000300A888A4F80700A8796072E8796CF4FD
:10592000BDD6A0700E2120466BF4B4D3204665F49A
:10593000D9D70020BDE8F081AC44800030B58BB0F1
:1059400004460D46FF22282101A8FCF7B6FE40F2CE
:105950000622ADF80420ADF806400E22294603A821
:10596000FCF734FE01A8FEF74BFC0BB030BD70B560
:105970008AB005460C461646FF2228216846FCF7E9
:105980009CFE40F20233ADF80030ADF802408DF8D5
:1059900004508DF808606846FEF732FC0AB070BD0E
:1059A00070B50D46EFF311801D490A781D4909684D
:1059B000C1F30221491C01248C401119C9B281F3A1
:1059C00011881C0A1849002301EBC40213605360BC
:1059D0004FF6FF7221F83420C0B280F31188AB7803
:1059E00012A21021002001F44DF0204674F47CD561
:1059F00020466FF4F1D1204674F47ED400206AF47E
:105A00003FD4114802683AB1D36B2BB1A8789030DB
:105A1000C2B20021204698476AF468D4002070BDC5
:105A200002E400E00CED00E02A278000523A313A0F
:105A3000646973636F6E6E20726561736F6E203D73
:105A400020307825780A00009821800070B58AB04F
:105A500006460D461446FF2228216846FCF72DFE17
:105A600040F20A33ADF80030ADF802508DF8046012
:105A700020680290606803906846FEF7C1FB0AB098
:105A800070BD30B58BB005460C46FF22282101A819
:105A9000FCF713FE4FF6FF72ADF80420ADF8065088
:105AA00034B1012C09D0022C0CD0032C13D10EE000
:105AB0004FF40070ADF804000DE040F20120ADF8A5
:105AC000040008E040F20220ADF8040003E040F2D8
:105AD0000320ADF8040001A8FEF792FB0BB030BD27
:105AE00070B58AB006460D461446FF222821684646
:105AF000FCF7E3FD40F20933ADF80030ADF8025099
:105B00008DF8046020680290606803902089ADF8E9
:105B100010006846FEF774FB0AB070BD30B58BB05C
:105B200005460C46FF22282101A8FCF7C6FD40F2DD
:105B30000731ADF804100021ADF806108DF80850BB
:105B400020680390606804900834059401A8FEF76B
:105B500057FB0BB030BD70B58AB005460C461646F3
:105B6000FF2228216846FCF7A8FD4FF44073ADF8EA
:105B70000030ADF802408DF804503088ADF80800D0
:105B80006846FEF73DFB0AB070BD30B58BB00446E9
:105B90000D46FF22282101A8FCF78FFD4FF6FF726A
:105BA000ADF80420ADF8064045B140F20520ADF84F
:105BB000040001A8FEF724FB0BB030BD4FF40170C8
:105BC000ADF80400F5E730B58BB005460C46FF2272
:105BD000282101A8FCF771FD40F21122ADF8042044
:105BE000ADF8065020680390A088ADF81000A079A9
:105BF0008DF8120001A8FEF703FB0BB030BD10B505
:105C00008AB00C46FF2228216846FCF756FD40F278
:105C10000920ADF800000020ADF8020020680290D5
:105C2000A088ADF80C00A0798DF80E006846FEF74C
:105C3000E7FA0AB010BD10B58AB00446FF22282149
:105C40006846FCF73AFD40F20B21ADF80010ADF8C4
:105C500002406846FEF7D4FA0AB010BD13B58AB008
:105C60000446FF2228216846FCF727FD4FF4037104
:105C7000ADF80010ADF802409DF82C008DF808003A
:105C80006846FEF7BDFA0CB010BD30B58BB00546C6
:105C90000C46FF22282101A8FCF70FFD40F20F223D
:105CA000ADF80420ADF806408DF8085001A8FEF7C5
:105CB000A7FA0BB030BD70B58AB004460D46164643
:105CC000FF2228216846FCF7F8FC40F20E20ADF8D0
:105CD0000000ADF802501022314602A8FCF776FC15
:105CE0008DF804406846FEF78BFA0AB070BD10B517
:105CF0008AB00446FF2228216846FCF7DEFC4FF4F8
:105D00000471ADF800100021ADF802108DF80440C8
:105D10006846FEF775FA0AB010BD00002DE9F041A3
:105D2000044618460026002300256FF48857E4191E
:105D30001C4F06D0012C07D0022C0CD0032C0CD108
:105D400005E03B687D6808E0BB68FD6805E0BB696D
:105D5000FD69087801E03B697D6900241CE033F8A7
:105D60003470874217D103EBC4035C68B4B10E4BA7
:105D70009C4204D1034602F083F906460EE00B4B29
:105D80009C4204D1034601F0F7FD064606E00346B7
:105D9000A047064602E0641CAC42E0D33046BDE8B2
:105DA000F081000070028000116F02009D3E020031
:105DB0002DE9FC410E4629A003C8CDE900016A4641
:105DC000314601200DF440D40746012F43D130461F
:105DD0000BF4ECD0C4B2C4BB0BF474D1C5B2FF2D2C
:105DE00009D03078A02808D0A1280CD0A22816D03D
:105DF000A32819D10DE04B2427E0314628460BF4A7
:105E00000BD6044610E0314628460DF4D7D504469B
:105E10000AE0314628460DF4F1D2044604E031464A
:105E2000284600F0F9F8C4B27CB9707868B90D481A
:105E300090F86E10C90708D000EB8501C96850F8CA
:105E4000662FC1F816208088488324B1064A21466F
:105E50000120126890473846BDE8FC81A0A1A3A2AA
:105E600000000000000E8000EC038000074A9068EC
:105E700000280AD05188002907D01278002A04D0BF
:105E800001EB81014900FCF720BC704768448000A9
:105E9000F0B5ADB004460D4616461F4628780328D7
:105EA00004D0012809D0172812D008E002200CF4F1
:105EB0008BD2F821FEF794F801E003F0BFF82DB083
:105EC0003B46324629462046BDE8F0406EF4B2918A
:105ED0006BF4CCD0044620780A2825D300202B90E0
:105EE0002C90687870B96946E01D5FF4FFD49DF886
:105EF00029008DF8B200DDF823002B90BDF82700B3
:105F0000ADF8B000244E706848B100206AF4B8D1F2
:105F10007368227868782BA998476AF4E7D16BF404
:105F2000ABD000202DB0F0BD68781C4E20B3308877
:105F30006FF478D4C4B202A80090184B69780A3381
:105F4000727A1D46204674F49BD7717A2A46204601
:105F500000F06AFB00206AF493D11148016829B16E
:105F60008B6B1BB10D4A0021204698476AF4BED1C5
:105F70006BF482D00020D5E702A9E01D5FF4B6D40F
:105F80009DF831007072DDF82B00C6F80A00BDF8EC
:105F90002F00F0812478CEE7AC44800018278000E1
:105FA000982180002DE9F0410F461E460021002473
:105FB00000256FF48852801804D0012806D00328E9
:105FC0000CD107E011480468456807E010480468F0
:105FD000456803E00F48046845683E78002210E0F9
:105FE00034F83200B0420BD104EBC200406850B12B
:105FF000FFF72EF80246394630469047014602E048
:10600000521CAA42ECD30846BDE8F081E8048000A7
:10601000E0048000D804800070B504460E460025D8
:10602000194890F86C100520884301D0432522E0E0
:1060300070780CF4EBD500B30CF4BED1400702D558
:10604000707802281BD0582120460AF497D70446BE
:10605000BCB1022060737078607401200CF428D306
:10606000A0820A4820600A4860600A48A0600021B7
:1060700020460AF4A3D7284670BD4025FBE74925F2
:10608000F9E74B25F7E70000000E8000996000015A
:10609000216100011D2A01002DE9F04104468846D6
:1060A00008F102051D4F97F87900FF2806D197F8EF
:1060B0006D0097F87D1008440A2801D343262AE092
:1060C00028460CF4DBD3C6B22EBB2878A073002080
:1060D00084F85500382208F1020104F11C00FCF795
:1060E00075FA6A8822B1072140F6B1502AF460D4CB
:1060F000A07B012803D197F87E0084F854007937FB
:10610000207B7870207B38703879401C38712946A4
:1061100020460CF48ED43046BDE8F081000E80009D
:1061200010B50446E08B002804D0072140F6B1509A
:106130002AF4AED30449207B81F87A002046BDE8DA
:1061400010400CF46D940000000E80002DE9F04129
:1061500005460F461C484468A41C42F2420606232A
:106160003246002141F205102AF41AD007700022AD
:106170004270A17801B10121144B1970A97B40F242
:10618000FF374FF4806C012909D091B1A18941807A
:10619000E189818025F404D46E82BDE8F081A18973
:1061A0004B1EBB4202D2A0F802C000E041808280B8
:1061B000F0E7A1894B1EBB4202D2A0F802C000E06A
:1061C00041808280E6E70000000E80006844800085
:1061D0002DE9FC5F0C4692A00068019001AA2146BF
:1061E00000200DF431D28346BBF1010F7DD1002692
:1061F000607800F00F07DFF82C8298F86C00607070
:10620000002008B14226FBE0A18C608C0CF460D029
:1062100008B14026F4E04FF0000A88F86EA088F834
:106220006CA000F43BF40A20B8434FF4006902D09C
:106230000520B8437ED17C480078C0077BD01F2062
:1062400094F82010490606D57F2098F86E1041F08A
:10625000200188F86E1017F0050F04D0A17E4907C1
:1062600001D540F4C07040F4C06588F880A0208C4F
:10627000000402D5012088F88000208C400405D558
:1062800098F8800040F0020088F88000A08B294632
:106290000CF4D8D2064630007ED194F8200010F0DD
:1062A000380F15D004200CF48FD094F82010C1F3CF
:1062B000C202521E4FF6FF7101EA82020C2100F465
:1062C000EFF304200CF480D049460A4600F4E8F3CA
:1062D00094F82000400717D002200CF475D094F8F1
:1062E000201001F00702521E00E08FE04FF6FF7110
:1062F00001EA82020C2100F4D3F302200CF464D0F2
:1063000049460A4600F4CCF315F4C06F1AD00021B8
:10631000002005F001021144C9B26D08401CC0B252
:106320002028F6D3B8F8500028B1CDF800A0491EB7
:10633000084401E01EE005E080B26B460022012126
:1063400000F4B0F338480078800713D594F82000A3
:10635000000605D598F86E0040F0400088F86E0001
:1063600094F82000C0F3C011E08B10F461D0064611
:10637000300045D102204CF413D588F86C700CF431
:1063800077D488F875A094F82A0088F8740098F8F3
:106390006C00800822D000E032E04120E17E88F8E5
:1063A0006F108A0704D421F0020088F86F001720CC
:1063B000E18C494500D349468946484500D9814684
:1063C0001FFA89F1A8F87010228D8A4200D2114676
:1063D000884200D80846A8F8720001E088F86FA04B
:1063E0001048102204F10A015630FCF7EFF8A07EA5
:1063F000C00705D06068C8F866002089A8F86A0060
:106400003EB10A4A31460020126890475846BDE81E
:10641000FC9F074A0021084612689047F6E70000F3
:1064200003000000000E8000F8038000EC038000F1
:10643000FC0380002DE9FE4F8246884691460020ED
:10644000019002902F4B30A2402100F41BF3324800
:106450000068002854D005684AE0A888401C84B22F
:10646000EF88288971F4DCD6064623462BA240210A
:106470000020009700F406F337E001A920465EF4FF
:1064800041D528BB42F6021101A85EF441D5F8B10E
:1064900023462BA24021002000F4F4F263F476D5C9
:1064A00080B163F473D5C01CA04204D12146484694
:1064B0006EF4ECD140B15EB1306948B1B8F1000F73
:1064C0000CD106E00020EFE70021504662F484D4AE
:1064D00009E0214648466EF4D9D120B9336900223B
:1064E000214650469847641CA4B2BC42C5D92D68C9
:1064F000002DB2D1034B1AA24021002000F4C2F2B9
:10650000BDE8FE8F35D30001523A333A5B25735D07
:1065100020656E7465720A00E0228000523A333AB8
:1065200073746172745F68646C3D307825782C20D8
:10653000656E645F68646C3D307825780A00000001
:10654000523A333A636C656172206363636420611D
:10655000742068616E646C653D307825780A0000AF
:10656000523A333A5B25735D20657869740A0000FE
:1065700070B505460548446804E0E16809B128465D
:1065800088472468002CF8D170BD00004448800082
:1065900010B50E4B1B78984210D200EB40030C480C
:1065A000006800EB83100B68C0F803308988A0F8FE
:1065B00007108270012100F8021B10BD05A24021C6
:1065C000002000F45FF2002010BD0000E4238000F2
:1065D000DC228000523A333A676174742066696E37
:1065E00064206974656D2C206E6F7420666F756E03
:1065F000640A000070B58AB005460C461646FF22B4
:1066000028216846FCF759F84FF4C063ADF8003014
:10661000ADF802408DF80450ADF806606846FDF70D
:10662000EFFD0AB070BD00002DE9FC4107460E46A3
:106630001446234B23A24021002000F423F200251E
:1066400038466EF449D78DF8066020680090A0881F
:10665000ADF80400324621463846FFF799FF04465C
:106660007CB1214668465FF49DD003465BB119A218
:106670004021002000F406F2384600F071F80125B0
:106680000EE001250CE0237A19A24021002000F43D
:10669000F9F1207A88B12246694638466EF4FAD379
:1066A000224629463846FFF7C5FE054B1AA240216F
:1066B000002000F4E7F1BDE8FC810125F0E70000CF
:1066C0004BD30001523A333A5B25735D20656E74FB
:1066D00065720A00523A333A626F6E64206D6772D7
:1066E00020676574206572723D307825780A000055
:1066F000523A333A626F6E64206465762072656345
:106700006F6E6E6563742C2063636364206E756DB9
:106710003D307825780A0000523A333A5B25735DA4
:1067200020657869740A000030B58BB004460D46C8
:106730000A4B00221A70FF22282101A8FBF7BDFF97
:1067400040F20162ADF80420ADF806408DF80A5021
:1067500001A8FDF755FD0BB030BD00004448800096
:1067600070B504460BA24021002000F48BF11048C4
:10677000007884420DD20F4D04EB4404C0212868F8
:1067800000EB8410FBF7A1FF2968002001EB8411C6
:10679000087070BD523A333A676174742072656D47
:1067A0006F7665206974656D20656E7465720A0088
:1067B000E4238000DC22800070B58AB006460D46D6
:1067C0001446FF2228216846FBF777FF40F2045267
:1067D000ADF80020ADF802508DF8046034F8040BD9
:1067E000ADF8080003946846FDF70AFD0AB070BDD5
:1067F00070B58AB006460D461446FF222821684629
:10680000FBF75BFF40F20352ADF80020ADF80250F9
:106810008DF8046034F8040BADF808000394684662
:10682000FDF7EEFC0AB070BD2DE9FF5F0D46029842
:106830004FEA1029022148460EF470D4002876D081
:106840000178152901D0162971D14FF000088088F0
:10685000C0B100218A46604E56F8292034321068B3
:10686000002430B18788A7F540631A3B01D10C3072
:1068700004462878801E062819D2DFE800F011119E
:10688000131618064FF0440890E03CB1104600F48F
:106890000BF1204629F4D0D4002401E04FF0410848
:1068A000012104E04FF0050A01E04FF0070AE9BBBF
:1068B0005FE000F4F9F00746B888A0F540610439BC
:1068C00005D04FF04108384629F4ACD451E03D469C
:1068D0000C3568882988401A86B2642E00D964264F
:1068E00006EB460000EBC601162000EB4100834694
:1068F000022128F4A9D748B3022148460EF446D411
:1069000001461FFA8BF340F61A40029A29F448D444
:106910000446288860826888A082287920702A79B5
:10692000691D601CFBF752FE384601E018E04CE0A0
:1069300029F478D486B121460C39274850F829002B
:10694000343000F4B3F04FF0040A12E04FF04B087B
:10695000384629F467D40CE0204629F46DD400248D
:106960001D4850F8290034300168D9B100210029B0
:106970009FD0BAF1000F19D0B4B1029A0A23114680
:1069800040F6034029F40CD480F800A0618A491C29
:106990008180A18AC180022141700021018129F4F6
:1069A0004BD403E00121E2E74FF04108B8F1000FBA
:1069B00006D1094850F82900406B50B1002020B1A1
:1069C0004246022148460FF411D004B00020BDE831
:1069D000F09F0120F3E70000C40E800070B505466B
:1069E0000548846804E0E16809B1284688472468BE
:1069F000002CF8D170BD00004448800070B50546F9
:106A00000548846804E0E16809B12846884724689D
:106A1000002CF8D170BD00004448800070B58AB0E9
:106A200006460D461446FF2228216846FBF745FE20
:106A300040F20252ADF80020ADF802508DF804602B
:106A400034F8040BADF8080003946846FDF7D8FB52
:106A50000AB070BD30B58BB005460C46FF22282128
:106A600001A8FBF72AFE40F20752ADF804200022ED
:106A7000ADF806208DF80850D4E901022168CDE96F
:106A80000402039101A8FDF7BBFB0BB030BD70B54C
:106A90008AB006460D461446FF2228216846FBF7B9
:106AA0000CFE40F20552ADF80020ADF802508DF812
:106AB000046034F8040BADF8080003946846FDF751
:106AC0009FFB0AB070BD70B58AB006460D461446ED
:106AD000FF2228216846FBF7F0FD4FF4A061ADF8D6
:106AE0000010ADF802508DF804601622214602A86D
:106AF000FBF76CFD163408946846FDF781FB0AB07D
:106B000070BD000070B50546002D12D0FDF78CFC5D
:106B10000C48846805F1090609E020792A7A904238
:106B200004D13146A068FBF725FD18B12468002C7C
:106B3000F3D170BDE1680029FBD02846BDE8704064
:106B4000084700004448800070B58AB006460D46EC
:106B50001446FF2228216846FBF7AFFD40F20152A0
:106B6000ADF80020ADF802508DF8046034F8040B45
:106B7000ADF8080003946846FDF742FB0AB070BD0B
:106B800070B58AB005460C461646FF222821684695
:106B9000FBF793FD40F20653ADF80030ADF802402C
:106BA0008DF80450ADF808606846FDF729FB0AB07F
:106BB00070BD000070B505460548446804E0E16812
:106BC00009B1284688472468002CF8D170BD000020
:106BD0004448800010B504460846FDF779FC01469C
:106BE000002903D02046BDE81040084710BD0178B9
:106BF00082781144C9B201710846704730B500224D
:106C00004271438805E044798D5C2C444471521CE8
:106C100092B29342F7D8407930BD000030B50246B9
:106C2000002400200021084B53F820502DB1914240
:106C300001D1044605E0491CC9B2401CC0B20A2873
:106C4000F2D3204630BD0000CC0D800070B5064662
:106C50002DED068B88B00D469FED368B20216846C2
:106C6000FBF755FD0024102269463046FBF744FF30
:106C70000020694600F1080231F81220224494B243
:106C8000401CC0B20828F5D3E408052E02D0062E19
:106C900024D046E0688805F084FF41EC180B288872
:106CA00005F07FFF41EC190B204605F07AFF53EC0D
:106CB000192B06F0D9F853EC182B05F0BDFD9FED0C
:106CC0001F1B53EC112B05F0B7FD9FED1E1B53EC62
:106CD000112B06F0BDF841EC180B22E09FED1B0BC9
:106CE00051EC100B05F0F4FC41EC190B688805F031
:106CF00058FF41EC1A0BA88805F053FF41EC180B24
:106D0000204605F04EFF53EC182B06F0ADF853EC7F
:106D10001A2B05F091FD53EC192B05F09BFF41EC6C
:106D2000180B08B0B0EE480AF0EE680ABDEC068B0E
:106D300070BD0000000000000000000079E926316D
:106D400008AC5CBF0000000000003940B76DDBB646
:106D50006DDB0E4010B5024600200021064B53F8B3
:106D600021401CB1914205D0401CC0B2491CC9B29F
:106D70000A29F4D310BD0000CC0D80001CB5426878
:106D80000121117000214FF48A2205E012F8013B25
:106D90004468491C6354C9B20829F7D3094906C994
:106DA000CDE900124168009A41F8092F019A4A6022
:106DB00002884068112168F499D6034900200870C0
:106DC0001CBD00006CD3000148258000008870477E
:106DD000002101E0491C4008C207FBD0084670476B
:106DE00040F45F4070470000014617480068C0F358
:106DF000C220DC2901DA06207047A1F1DC020A2A50
:106E000003D20428F8D006207047A1F1E602142A24
:106E100001D804207047A1F1FB02092A03D20328FC
:106E2000F8D004207047A1F58272282A01D80320E7
:106E30007047A1F22D11092903D20228F8D00320AE
:106E4000704702207047000010C500A001461E4890
:106E50000068C0F3C220DC2901DA07207047A1F1E5
:106E6000DC020A2A03D20528F8D007207047A1F1D6
:106E7000E602142A01D805207047A1F1FB02092A75
:106E800003D20428F8D005207047A1F58272282A81
:106E900001D804207047A1F22D12092A03D2032839
:106EA000F8D004207047A1F59B723C2A01D803203A
:106EB0007047A1F27311092903D20228F8D00320E8
:106EC000704702207047000010C500A0024800680B
:106ED00000F480707047000078C500A00548006885
:106EE000C00F002804D00448007908B10120704781
:106EF0000020704740C500A0DC448000FEB5054678
:106F0000002404208DF8000000260B4FE8070CD069
:106F10000120A040019004EB440007EB8000816851
:106F20000291416809B168468847641CA4B26D08A3
:106F3000761C082EEADBFEBD3472800010B5EFF33C
:106F40001084012181F3108800F004F884F3108884
:106F500010BD00002DE9F0410446204602F080F902
:106F6000E0B2EFF31081012282F31088194A13680E
:106F700083430343136081F310881748446284639A
:106F80004FF6FF7000EA0421E0B2124B0C3B1A6886
:106F9000084382431A6019E094FAA4F0B0FA80F131
:106FA00001208840611E0C40072290FAA0F1B1FA3E
:106FB00081F18900094D2E680F278F40BE438A401A
:106FC00016432E60196821EA00401860002CE3D1B6
:106FD000BDE8F0815CC500A0002001A090E200A007
:106FE00070B50546064810F451D5EFF31084012121
:106FF00081F31088284600F005F884F3108870BDEE
:107000003C46800000B585B001680091017901F02F
:107010000301019181680291C168039140680009F0
:107020000490684602F090F805B000BD10B5FF204E
:10703000FBF798FE80B2002821D011498863EFF356
:107040001081012282F310880E4A6FEA0043136018
:1070500081F310886FF0040111600A494039096812
:10706000C1F3001139B1202805D0BDE8104020F04F
:10707000200010F48394BDE8104010F47F9410BDFC
:10708000002001A044C500A070B50446002C15D016
:10709000207B012814D0012020732DF4D9D2094877
:1070A0004FF0FF314160816000250570204600F0FF
:1070B00075F8256165732573002070BD012070BDD2
:1070C000022070BD7C4480002DE9F041044600267A
:1070D000002C08D0207B012808D001272773607B73
:1070E000002528B108E00120BDE8F0810220FBE77F
:1070F0002573204600F053F820462DF4B1D2014606
:10710000094A106800F00703084843601268C2F398
:10711000C20282600770012903D001262573304620
:10712000E2E725616773F9E74CC500A07C44800065
:1071300070B5184D2968C1F30011002929D01549EF
:1071400008310A6802F007030A68C2F3C2020C6839
:1071500024F0070414430C60DC000E6826F03806A7
:1071600026430E60EFF31081012484F310882C680D
:1071700024F010042C6081F31088417B022908D18F
:1071800005494C68A34204D189688A4201D100F0C4
:1071900007F870BD44C500A07C448000704770476C
:1071A0000021FBF719BE000010B5EFF31083012298
:1071B00082F31088094A1468002C02D01468641EF7
:1071C000146012683AB920F0807021F00101044A7D
:1071D00011600449086083F3108810BD7444800076
:1071E000001000E0FCED00E010B5EFF31082012389
:1071F00083F31088074B1C68641C1C60064B40F02E
:107200008070186041F001000449086082F3108822
:1072100010BD000074448000FCED00E0001000E0B0
:1072200010B50446002C1DD0207A01281CD0012066
:1072300020721A48006818B1416809B12046884791
:107240001748016821F480610160EFF3108101208B
:1072500080F310881348026822F00202026000687E
:1072600020B114E0012010BD022010BD0E4842687C
:1072700042F001024260C26842F00072C2600268DD
:1072800042F001020260C26842F08072C26081F383
:1072900010880020E0606072207210BD84038000BE
:1072A00014C500A024468000A0E200A070B50446EA
:1072B000002C03D023492068884201D0012070BDF2
:1072C000207A012805D001252572607A002610B1A8
:1072D0001EE0022070BD26721B48016821F00101EA
:1072E0000160816821F000718160EFF3108001215D
:1072F00081F3108815490A6842F002020A6080F39F
:1073000010881348006818B1016809B12046884701
:10731000022060720F48016841F48061016060687A
:10732000012809D02068016821F4805101603046AD
:10733000E6606572207270BD2068016841F480517A
:107340000160F4E7006401A0A4E200A024468000EC
:107350008403800014C500A012F46C9010B50B4695
:10736000024600210348FEF702DC08B1002010BDF0
:10737000012010BD641F800038B5022000906846CF
:10738000FBF748FB114C206880B911482060114977
:107390000160012141608160EB21C1600E499DF8CF
:1073A000002051F8221001610021416174F4DED502
:1073B00008B1012000E00020A072044811F4CED7EB
:1073C00008B1002038BD012038BD0000641F8000D6
:1073D000281F800000D000A0C044800010B51446D3
:1073E0000A46014623460448FFF7B6FF08B10020CD
:1073F00010BD204610BD0000641F80002DE9F0473D
:10740000C0B081468A4617463B4652464946174811
:10741000FEF7A3DA18BB00243D464FF480784745B9
:1074200001D9464600E03E4609EB040133466A4670
:107430000E48FFF791FF90B90AEB04003246694607
:10744000FBF798F858B9AD1B6DB134444646B542C8
:1074500000D82E46BC4202D2A019B842E4D900207E
:1074600040B0BDE8F0873846FAE70000641F8000AE
:1074700070B505460E46074812F432D3EFF3108478
:10748000012282F310883146284612F4F1D284F3A7
:10749000108870BD404680002DE9FE4307460E4629
:1074A0003046FFF795FC85B20024DFF85490DFF8F2
:1074B000548059F83400B8421DD105EB041085B250
:1074C00005EB450218F82200032807D08DF800408C
:1074D0000D48874206D13004019004E003208DF866
:1074E0000000F5E7019608EB82008168029142688E
:1074F0000AB168469047641C032CDADBBDE8FE83C2
:1075000090D10001B4708000001001A070B5054654
:107510000E46074812F4E4D2EFF31084012282F3FE
:1075200010883146284612F4D0D284F3108870BDFA
:107530004046800010B5064818F4F2D1EFF31084ED
:10754000012080F3108814F493D584F3108810BDC3
:1075500034468000F0B54FF0F85000EA01604FF477
:10756000F81202EA0142254B1C680243944304438B
:107570001C6001F01F00EFF31082012484F31088D7
:107580001C1D256885430543256082F310884FF450
:10759000F85202EA01221D6885431D60EFF3108056
:1075A000012383F3108823689343236080F31088BA
:1075B00020E091FAA1F0B0FA80F2012090404A1E3A
:1075C0001140072390FAA0F2B2FA82F292000C4E18
:1075D00035680F279740BD4393401D433560EFF357
:1075E0001082012383F31088236823EA80502060EF
:1075F00082F310880029DCD1F0BD00003CC500A05A
:1076000094E200A0084601F0ADBE084614F4BE9511
:107610007047704770B504460D46044816F4B0D460
:1076200029462046BDE8704016F46A943176000180
:107630002DE9F0410020FCF70FF90546224FD5E96E
:107640000412C7E904122148081A72F11E0017D368
:1076500007F120000EE0D6E90412D7E90434B1EBBB
:10766000030C72EB040C04D3C91A62EB0402C6E9E2
:107670000412006A066A002EEDD100213961796199
:10768000A87801280AD1D7E90430D5E9021259189F
:107690005041C5E904102846FCF7A2F8FCF74EF962
:1076A000786840B1D0E90431D7E90402181A61EBD7
:1076B000020102F0EFFAE96909B1A8698847BDE85B
:1076C000F041FCF705B90000987280000010C32C4F
:1076D00010B5032806D0FFF79DFF0349012008706D
:1076E000002010BD012010BD8844800010B5114855
:1076F0008178002909D11049096801F0405101221F
:107700008270B1F1805F00D14270407870B19FED1E
:107710000B0B0C4853EC102B90ED000B51EC100BA5
:1077200004F0E2FFBDE8104005F00EBABDE81040DD
:1077300074F470938844800050C500A000000000DD
:107740000000E03F9844800008B5002000906946A2
:107750004FF00040FDF742DA08B1002008BD009864
:1077600008BD000001480078704700008844800090
:1077700010B500210320FFF74DFF024900200870DB
:1077800010BD0000884480001CB504F005FD0521F3
:107790008DF800100649002251F8203083F80021AE
:1077A00051F820000168002901D0684688471CBDB7
:1077B000D44380001CB504F0EFFC04218DF80010C8
:1077C0000649002251F8203083F8002151F82000AA
:1077D0000168002901D0684688471CBDD443800059
:1077E0001CB504F0D9FC03218DF8001006490022D5
:1077F00051F8203083F8002151F820000168002959
:1078000001D0684688471CBDD443800070B505464A
:1078100006481AF47DD0EFF31084012181F310881B
:10782000284619F429D684F3108870BD4446800098
:107830001CB50446204604F0AFFC00228DF8002061
:10784000E16B0191064951F8203083F8002151F88D
:1078500020000168002901D0684688471CBD00004F
:10786000D4438000002804D010F8371F4078084324
:10787000704700207047000070B5054606481AF4AE
:1078800047D0EFF31084012181F31088284619F4C2
:10789000E1D684F3108870BD44468000704770477D
:1078A0001CB50446204604F077FC02218DF8001038
:1078B000218D628D891AADF80410044951F8200019
:1078C0000168002901D0684688471CBDD443800068
:1078D0007CB50546284604F05FFC044601208DF87F
:1078E0000000288C698C401AADF804000C4D55F846
:1078F000240090F8040118B12046FCF741F902E099
:107900002046FCF797FA55F8240090F8001100295A
:1079100004D10168002901D0684688477CBD000079
:10792000D44380002DE9F04F87B00468456886682D
:10793000C768D0F81080D0F81490D0F818A0D0F80C
:107940001CB04FF480610A48FAF7E1FE8DE8C00FE1
:107950002B46224607490648FAF71CFC0448FAF76A
:107960002FFC07B081B2BDE8F04F0148FDF7C0BA67
:1079700028758000B0D3000170B50C461546284626
:1079800028F4F8D42D0A3F281DD0284607F4B2D495
:107990000346A2782179284608F488D20B4850F88B
:1079A00025008289FF2A09D0207808B1903000E0B4
:1079B0000020C3B20121284608F48BD222796188C5
:1079C00028460AF4D5D3002070BD0000CC0D8000FD
:1079D0002DE9FC4104460F46217800260025601C55
:1079E0004AF410D1142808D20C4900EB800001EBB6
:1079F000400090F82903C0F34005CDE900652378E5
:107A000004F11702E11D601C43F494D60146384688
:107A10004AF4CAD00020BDE8FC810000A414800014
:107A20002DE9F04104460E460C2502F0D3F8B0B320
:107A30002178012903D9FF2901D0122538E0601CE3
:107A40004AF4E0D005461E4F142D09D205EB8500FF
:107A500007EB400090F82903800706D5122527E0A0
:107A60004AF4BED00546142D1AD005EB850007EB6D
:107A7000400000F54870D4F801100160B4F805101A
:107A8000818021780172417A41F0010141F00201C7
:107A900041722178601C4AF445D218B107E007E032
:107AA000072505E02278611C284647F473D6002597
:107AB000294630464AF478D00020BDE8F081000025
:107AC000A414800010B50C4643F408D700212046CA
:107AD0004AF46AD0002010BD70B50E460C2402F0A6
