:020000040100F9
:102000000000043059210001D9290001014180005C
:10201000FF210001FB210001BD2A0001000000009A
:1020200000000000000000000000000015418000DA
:10203000FD210001000000000F2A0001152A000107
:1020400000F002F800F077F80AA090E8000C824453
:102050008344AAF10107DA4501D100F06CF8AFF230
:10206000090EBAE80F0013F0010F18BFFB1A43F076
:1020700001031847F4760000447700000A444FF04B
:10208000000C10F8013B13F0070408BF10F8014BD7
:102090001D1108BF10F8015B641E05D010F8016B1C
:1020A000641E01F8016BF9D113F0080F1EBF10F880
:1020B000014BAD1C0C1B09D16D1E58BF01F801CBA3
:1020C000FAD505E014F8016B01F8016B6D1EF9D526
:1020D0009142D6D370470000103A24BF78C878C127
:1020E000FAD8520724BF30C830C144BF04680C601E
:1020F000704700000023002400250026103A28BF66
:1021000078C1FBD8520728BF30C148BF0B60704769
:10211000642900F0BF80782900F02381732900F042
:10212000AA83002070471FB507F0CEF900F008FB26
:102130001FBD10B510BDDFF810D0FFF7F4FF04F09D
:102140005FFA00F0B3FB00000000043003B4FFF7B7
:10215000F0FF03BC00F091FD0148804701480047B3
:102160008D2A00019D6900010FB4044910B503AA2E
:10217000029800F085FB10BC5DF814FBDC660030B3
:102180000FB41CB5084B06AA7B446946009005981D
:1021900000F047FB04460020694600F055FB20464E
:1021A0001CBC5DF814FB0000BD06000070B50446C1
:1021B00085690068C10601D5302600E02026C007E9
:1021C00007D070BDD4E9012130469047206A401CF9
:1021D00020626D1EF6D570BD70B504468569007825
:1021E000C00707D170BDD4E9012120209047206AA3
:1021F000401C20626D1EF6D570BDFEE7FEE7FEE7CF
:1022000058585247010000001555000000200001F9
:10221000002000016EED52490101000000000000A5
:1022200000000000000000000000000000000000AE
:10223000000000000000000000000000000000009E
:1022400070B50C460546012A05D02878800600D5D1
:10225000EA69002302E0012305E05B1C934202D2FD
:10226000E05C0028F9D1A869E618C01AA861286ABC
:10227000184428622846FFF799FF04E0D5E90121B8
:1022800014F8010B9047B442F8D32846FFF7A4FF97
:1022900070BD00002DE9F041064600241068752944
:1022A000314616A510D0AFF30080002802DA404274
:1022B00013A507E031688A0701D512A502E0490796
:1022C00004D511A5012401E0AFF3008000210A220A
:1022D00006F1240709E0B0FBF2FCB0FBF2F302FBCD
:1022E0001C00303078541846491C0028F3D123468E
:1022F0002A463046BDE8F04100F034BA0000000044
:102300002D0000002B00000020000000F0B40D465E
:102310000188090502D5214C7C4402E01F4C7C4415
:102320000E34002100F1240608E002F00F07120924
:10233000E75D42EA03721B097754491C52EA03071E
:10234000F3D102780023120704D5702D06D009B10D
:10235000022311342246F0BC00F004BA01231034E9
:10236000F8E770B504460D4621461068AFF30080CB
:10237000024629462046BDE870400023C6E7D21D2C
:1023800022F00703D3E90023C0E70368126843F093
:10239000200303600823C3610023B7E7B073000084
:1023A0002DE9F05F894604464FF0000ADFF874B16A
:1023B000FB44C0F820A02046E1688847002874D07C
:1023C000252806D0D4E901219047206A401C2062CC
:1023D000F1E700265F462046E16888472028054649
:1023E00007DB312D05D2781910F8200C08B106430F
:1023F000F1E7B00701D526F00406C4F81CA00027B9
:10240000C4F818A02A2D09D0284600F02FFC38B3B4
:1024100004EB8708303DC8F8185019E059F8041B40
:10242000204604EB87029161E1688847012F054649
:1024300018D1E069002820DA26F020061DE0D8F83F
:10244000180000EB800005EB40003038C8F8180099
:102450002046E1688847054600F008FC0028EED1D8
:10246000012F0AD02E2D08D12046E16888477F1C15
:102470000546022F46F02006C4DBA069002803DAD7
:10248000404246F00106A061F00701D026F0100698
:102490006C2D0BD0682D09D04C2D39D06A2D35D03C
:1024A000742D35D07A2D33D016E038E0E1682F4610
:1024B00020468847B842054609D16C2F26D04FF4F4
:1024C0008060E168064320468847054604E06C2F9B
:1024D0001AD04FF4807006430DB3A5F141001928BE
:1024E00002D8203546F400664A4629462046266032
:1024F0004E46FFF70DFE80B101280BD0F61D26F0E9
:10250000070000F1080956E74020E4E78020D8E7FB
:102510000020D6E706F104094DE7284652E7206A75
:10252000BDE8F09F4073000040EA010310B59B072F
:102530000FD1042A0DD310C808C9121F9C42F8D02D
:1025400020BA19BA884201D9012010BD4FF0FF30DE
:1025500010BD1AB1D30703D0521C07E0002010BDF4
:1025600010F8013B11F8014B1B1B07D110F8013B80
:1025700011F8014B1B1B01D1921EF1D1184610BD61
:1025800010B5431C02E010F8011B71B18107FAD1AC
:102590004FF0013202C88C1A8C4314EAC211F9D0F0
:1025A000C01A0A0603D0C01E10BDC01A10BD0A040E
:1025B00001D0801E10BD0902FCD0401E10BD032AB0
:1025C00040F2308010F0030C00F0158011F8013B50
:1025D000BCF1020F624498BF11F801CB00F8013B37
:1025E00038BF11F8013BA2F1040298BF00F801CBFB
:1025F00038BF00F8013B11F0030300F02580083AD2
:10260000C0F0088051F8043B083A51F804CBA0E828
:102610000810F5E7121D5CBF51F8043B40F8043B7D
:10262000AFF30080D20724BF11F8013B11F801CBB2
:1026300048BF11F8012B24BF00F8013B00F801CB83
:1026400048BF00F8012B704710B5203AC0F00B804E
:10265000B1E81850203AA0E81850B1E81850A0E8A6
:102660001850BFF4F5AF5FEA027C24BFB1E8185000
:10267000A0E8185044BF18C918C0BDE810405FEA70
:10268000827C24BF51F8043B40F8043B08BF7047EC
:10269000D20728BF31F8023B48BF11F8012B28BFF1
:1026A00020F8023B48BF00F8012B70474FF00002B2
:1026B0000429C0F0128010F0030C00F01B80CCF154
:1026C000040CBCF1020F18BF00F8012BA8BF20F8C2
:1026D000022BA1EB0C0100F00DB85FEAC17C24BF16
:1026E00000F8012B00F8012B48BF00F8012B7047C0
:1026F0004FF0000200B5134694469646203922BF9B
:10270000A0E80C50A0E80C50B1F12001BFF4F7AFE5
:10271000090728BFA0E80C5048BF0CC05DF804EBC7
:10272000890028BF40F8042B08BF704748BF20F835
:10273000022B11F0804F18BF00F8012B70470000EA
:1027400070B5064C7C44064D7D4403E0206820446F
:102750008047241DAC42F9D170BD000070700000AC
:10276000707000002DE9F0470D46994692460446E8
:1027700000F124080168880604D5E06921F0100101
:10278000216000E00120A84201DD471B00E0002796
:10279000A1697A1902EB0900081AA0612078C00625
:1027A00002D42046FFF702FD002608E0D4E901210B
:1027B0001AF806009047206A401C761C20624E459D
:1027C000F4DB2078C0060AD52046FFF7EFFC06E0D0
:1027D000D4E9012130209047206A401C2062381E35
:1027E000A7F10107F4DC07E0D4E9012118F805009E
:1027F0009047206A401C2062281EA5F10105F3DCE9
:102800002046FFF7E9FC2078000602D50220BDE84B
:10281000F0870120FBE7000001694A1C026108788B
:10282000704700B58FB0CDE9013100210591054910
:102830007944CDE9031011466846FFF7B1FD0FB0AA
:1028400000BD0000E5FFFFFF0A6802F8010B0A6007
:10285000704710B5436913B1AFF3008001E0FFF793
:10286000EFFC012010BD127800F124010A70002253
:102870004A700122EDE711684FF0FF32E9E70000EE
:10288000074B70B50D467B44FFF7CBFF0446284647
:1028900000F008F810B14FF0FF3070BD204670BD59
:1028A00007240000007B00F08000704710B504464C
:1028B000AFF300802046BDE81040FFF747BC0000A2
:1028C00010B51E480068002800D080471C48002131
:1028D0000170881E1B490860192000F017F91A4C76
:1028E000D4F8C002800704D4F42218A11CA003F479
:1028F00097F52A480168D4F8C40261F31D3040F00E
:102900000100C4F8C40203F4EDF000214FF03040A0
:10291000C1608161C1174161016203F49FF0094800
:102920004038016821F4800101601D4800680028DA
:1029300002D0BDE81040004710BD000060248000B8
:102940002C69003044C500A000E000A072776970D7
:102950005F736C6565705F636F6D6D6F6E2E630086
:102960004D43555F5355422D3E424C455F44534CB9
:102970004545505F434F52525F454E2026204D4300
:10298000555F5355425F424C455F44534C4545505B
:102990005F434F52525F48575F454E0054248000BA
:1029A0006424800010B500214FF03040C160816187
:1029B000C11741610162022000F0C6F8BDE8104075
:1029C000012000F0C1B810B5012000F09FF8BDE86B
:1029D0001040012000F0B8B8FEE730B500F0070362
:1029E000C3F10704082C00D9082403F108000728C4
:1029F00001D2002300E05B1C012505FA04F0401E13
:102A0000084098409D406D1E1540284330BDFEE7AC
:102A10001BF46293FEE700000249096801F0070118
:102A20000170704704C500A030B4062821D21249B5
:102A30000A6802F00702824212D00A680F4B1A405D
:102A40000F4C22430A6000BF00BF00BF00BF0A68EE
:102A50001A400C4B024333F8203042EA83420A60AA
:102A60000849183951F820000749886030BC76F4CD
:102A7000C19230BC7047000004C500A0F8FFE3FF1E
:102A80000500080058950001006500300248016803
:102A900041F470010160704788ED00E00248006871
:102AA000001D1EF4D9950000D06600300248406831
:102AB000001D1EF4D1950000D0660030FEE700280E
:102AC00009DB00F01F02012191404009800000F164
:102AD000E020C0F880127047002809DB00F01F02D8
:102AE000012191404009800000F1E020C0F88012EF
:102AF0007047002809DB00F01F02012191404009C6
:102B0000800000F1E020C0F880127047002809DB47
:102B100000F01F02012191404009800000F1E020F7
:102B2000C0F88012704700280DDB00F01F02012161
:102B300091404009800000F1E020C0F88011BFF30F
:102B40004F8FBFF36F8F704700280DDB00F01F021F
:102B5000012191404009800000F1E020C0F880117F
:102B6000BFF34F8FBFF36F8F7047002809DB00F072
:102B70001F02012191404009800000F1E020C0F8CF
:102B80000011704700280FDB4109890001F1E021A5
:102B9000D1F8001200F01F0201209040014201D044
:102BA00001207047002070470020704700280FDB8D
:102BB0004109890001F1E021D1F8001200F01F0263
:102BC00001209040014201D0012070470020704751
:102BD0000020704700280FDB4109890001F1E02146
:102BE000D1F8001200F01F0201209040014201D0F4
:102BF000012070470020704700207047002804DB48
:102C000000F1E02090F80004704700F00F0000F1A0
:102C1000E02090F8140D704702480068C0F30220CD
:102C2000704700000CED00E0002809DB00F01F02F7
:102C3000012191404009800000F1E020C0F800121D
:102C40007047C9B2002804DB00F1E02080F80014CE
:102C5000704700F00F0000F1E02080F8141D70476D
:102C6000EFF31080704780F31088704730380A28DF
:102C700001D2012070470020704770472DE9F05FB6
:102C80000746894693464FEA5B04A2464D465F4E8F
:102C9000DFF87C81EFF31080012181F31088D8F8F0
:102CA000A41221F02001C8F8A41280F31088EFF3D9
:102CB0001080012181F31088D8F8A01221F02001A2
:102CC000C8F8A01280F31088306820F0804030608F
:102CD000504830603F20D8F8001160F30501C8F873
:102CE0000011306820F4601040EAC740306030685E
:102CF00020F4E02040EA07403060052F03D130681F
:102D000040F400403060062F03D1306840F480402A
:102D10003060306840F400503060306820F060501F
:102D20003060306820F00F0040F003003060EFF3B7
:102D30001080012181F31088344A3832116821F063
:102D4000E04141F08041116080F31088306840F02C
:102D50008040306001E0D8F80000D8F80401C0F3EA
:102D600000200028F7D1EFF31080012181F31088B3
:102D7000116841F00041116080F3108834E00020B8
:102D80004FF47A711AE0884217D9306820F08040F9
:102D90003060306840F000403060306820F0004023
:102DA000306003F0AFF91C480168491C01605446CB
:102DB0004D46052078F423D76CE7401CD8F8042151
:102DC000C2F30022002ADED0D8F8040100F07F010F
:102DD000A14200D92146002003E0D8F8002004C514
:102DE000401C8842F9D3641A002CC8D15FEACB702A
:102DF00008D0D8F80401C0F300200028F9D0D8F892
:102E000000002880BDE8F05F03F07CB908C500A091
:102E100000E000A00A070807406900300449896BF8
:102E2000084004490A78104300220A7070470000E5
:102E3000002001A04C6700300C4900280BDC08681A
:102E4000C0F34120012805D0086820F4C06040F498
:102E50000070086070470A28FCDB086810F4C06F37
:102E6000F8D0086820F4C060086070470CC500A066
:102E7000014878F401950000E066003008B50120B3
:102E80000090002901D100200090044800680168EA
:102E9000002901D06846884708BD0000C866003098
:102EA0000078002802D102A0FFF75EB97047000049
:102EB000436F6D702069732074726967676572650E
:102EC000642E0D0A00000000F8B504460E46002CE2
:102ED00033D01B4D04F11C002860E068009094E89A
:102EE0000E00606901F074FA002825D12868C461D9
:102EF000066010340ECC041D0EC4001D02F0B8F99B
:102F0000002819D12868001D02F0D2F9002813D139
:102F1000082201210B4804F0ABFA2968012081F84E
:102F2000200009491B2004F015FE1B2019F474D160
:102F30001B2019F48FD10020F8BDE520F8BD00005A
:102F4000C8660030709500013F41800010B50A4C02
:102F5000206800280DD090F8200050B14FF00050AC
:102F600076F4C6D02068001D15F406D10028FFD1E4
:102F700010BDE92010BD0000C86600302DE9F04109
:102F8000014600291BD000240F4E0E4A357814E06C
:102F900002EB04100F780378BB420CD14B684068F9
:102FA000034208D0707808B900F0C2FB2046BDE8A3
:102FB000F04100F0EBBA641CE4B2AC42E8D3BDE8E7
:102FC000F08100003C730030EC6600307CB50546B3
:102FD0000E46002D01D0002418E0E5207CBD05EB55
:102FE000041041680091017A8DF80410417A8DF83F
:102FF000051007218DF80610C26800780023694685
:1030000000F048F80028E9D1641CE4B2B442E6D3E9
:1030100000207CBD10B50C46062833D2DFE800F056
:103020000303031E2710184951F830002104090C2E
:1030300004D018B1214602F011FB1FE0E42010BDBE
:103040002004000C03D0A1B2104802F007FB200CB2
:1030500014D0210C0E4802F001FB0FE014F0FF0F1A
:1030600003D0204602F05EF808E0E42010BD14F022
:10307000FF0F05D02146002002F062FB002010BDAA
:10308000E42010BDE62010BD94950001000001A0D1
:10309000001001A02DE9F05F05460C4690469946C8
:1030A00027680026042D13D039462846FFF7B2FFC3
:1030B0002146284600F0ACF800280AD1032D0AD09A
:1030C000052D2ED04FF0100B2807060E002491E09E
:1030D000E620BDE8F09F4FF0080B2079042806D0C9
:1030E000052809D006280DD0072815D110E00021A9
:1030F000384601F4A2F10FE040F20111384601F424
:103100009CF109E04FF00111384601F496F103E01B
:103110003B49384601F491F14FF0007075F4E8D75F
:10312000D4E74FF0200BD1E7F80760D0062D65D229
:10313000DFE805F0030303466425324800EBC500D1
:1031400090F904A0BAF1000F17D0EFF3108101201D
:1031500080F31088A01900EB40022B4800EB82009E
:10316000C0F80480C0F8089081F31088504619F424
:1031700053D0504619F46ED039E0E420A9E7EFF3BC
:103180001082012080F31088A0191F4B00EB400033
:1031900003EB8001C1F80480C1F80890052103F811
:1031A000201082F31088062019F436D0062019F476
:1031B00051D0072019F430D0072019F44BD016E075
:1031C000EFF31081012080F31088A01900EB40027A
:1031D0000E4800EB8200C0F80480C0F8089081F32C
:1031E0001088122019F418D0122019F433D07F0857
:1031F000641CE4B25C4597D300206AE7E62068E7E8
:103200000101010094950001DC6F00305C71003019
:1032100070B58EB005460C46564901F164004DC8A4
:10322000CDE90A02CDE90C36D1E91E23486F06AE7E
:10323000D1F880100DC6099114224E49843101A89D
:10324000FFF702FAACB14C49062004F083FC4B496D
:10325000072004F07FFC4A49122004F07BFC45491A
:10326000444A2C31062D7CD2DFE805F006060641E3
:103270005921E5200EB070BD207931F810000B9077
:10328000607932F810000C90A0790D9020680A90B7
:103290003848143050F8350021880904090C04D04E
:1032A00018B10AA902F028FA59E0E420E2E72079EF
:1032B00031F810000B90607932F810000C90A07972
:1032C0000D9020680A9020680104090C05D080B296
:1032D0000A900AA92B4802F00FFA2068010C3ED090
:1032E000000C0A900AA9284802F006FA37E0207973
:1032F00001EB4000408A0790607902EB4000C088F3
:103300000890A079099020680690207810F0FF0FAF
:1033100003D006A801F058FF21E0E420AAE72079B5
:10332000031F032B01D8E720A4E702281AD00120AD
:103330000290207901EB4000808C0390607902EBD1
:10334000400080890490A079059020680190207841
:1033500010F0FF0F09D001A9002002F049FA002067
:1033600088E704E002200290E3E7E42082E7E62019
:1033700080E70000809500018B418000854180003E
:1033800081418000000001A0001001A010B502469C
:103390000C460020062A26D2DFE802F00303031AB7
:1033A0001F0B114850F83200A1B2BDE8104016F4CE
:1033B0008E932104090C03D0A1B20C4816F487D3D4
:1033C000210C10D0210CBDE81040094816F47F9361
:1033D000A0B2BDE8104014F44D93A1B2BDE8104076
:1033E000002002F008BA10BD94950001000001A071
:1033F000001001A0002803D0024908600120704796
:1034000000207047F466003070B505460024091F9F
:10341000062917D2DFE801F003070C11131528461F
:1034200000F0A4F80EE00124284600F09FF809E01F
:103430000224284600F09AF804E0032402E0042461
:1034400000E00524034A214628461268BDE8704082
:1034500010470000F46600302DE9F0410446204694
:1034600000F0AEF801462E4800230826025D00F168
:103470000A0700F11405AAB1052A33D0082A2AD177
:10348000092945D0082926D1295D491CC9B22955E9
:10349000142920D32B5506552046BDE8F0410821BC
:1034A000FFF7B2BF052913D0042916D0072914D07D
:1034B000082910D1295D491CC9B2295514290AD3FC
:1034C0002B5506552046BDE8F0410821FFF79CBF6B
:1034D0003B5505210155BDE8F0812046BDE8F0418E
:1034E000FFF792BF05290CD0395D491CC9B2395587
:1034F0003229F0D303552046BDE8F0410521FFF7FE
:1035000083BF03552046BDE8F0410621FFF77CBF8D
:1035100003552046BDE8F0410921FFF775BF0000C3
:103520001C74003070B504460D4600F00FF808B169
:1035300000F014F90348044A2946005D5268BDE8CA
:103540007040104730730030EC66003000200649B0
:1035500011F810200AB100207047401CC0B20A28A0
:10356000F6D30120704700003A740030034900226E
:1035700001F8102001EB4000427070473A740030AF
:10358000014A02F8101070473A740030024A0121D3
:1035900002EB4000417070473A74003070B500246F
:1035A000064D05EB4400407810B12046FFF754FF6C
:1035B000641CE4B20A2CF4D370BD00003A740030ED
:1035C00070B500211D4B03F132051A5C002A09D0A9
:1035D000002403F10A06012A0AD0022A12D0032A83
:1035E00024D11FE015F8102002B301221A541DE067
:1035F00015F810201AB1345402221A5416E01C5443
:10360000042113E015F810204AB1325C521CD2B2EA
:103610003254642A0AD3072103221A5406E00521F2
:103620001C5403E015F8101011B10821084670BDB4
:103630001C54FFF79BFF0921F8E7000008740030D5
:10364000704700002DE9F0410E4617460A2E02D8B9
:103650000FB1002320E00020BDE8F08103EB43041C
:1036600010F82410052901D0032913D100EB84059B
:10367000114AA97AD154104910F824200C3101EBD9
:103680000314227069686160297A2172697A617213
:103690000A49E1605B1CDBB2B342DFD30648314626
:1036A0000C30FFF793FC0648067047600548FFF7AB
:1036B000A1FE0120D0E70000307300307D2F000113
:1036C000EC660030253500012DE9F0410024124F51
:1036D000DFF8488019E0002607EB041528786968B0
:1036E000FFF754FE10B9697A012902D0012802D0EF
:1036F00005E0012603E0687A022800D10126314660
:103700002046FFF73DFF641CE4B298F800008442B5
:10371000E1D3BDE8F08100003C730030EC6600307E
:1037200010B5FFF7D1FFBDE81040FFF737BF00002D
:1037300010B5074A0121074800F060F800220A216D
:10374000044800F0B1F904490120487010BD0000A0
:1037500021370001E0730030EC66003010B50348FB
:1037600000F07AF802490020487010BDE073003084
:10377000EC660030002806D0002904D0024AD26945
:10378000002A00D0104770470873003070B50D460E
:1037900016460D4C00280AD00178032911D80121C2
:1037A000A17601461A222046FEF709FF05E0002017
:1037B000A0761A210448FEF79BFFE56126620020EF
:1037C00070BD012070BD00000873003010B50848BE
:1037D000017800290AD101210170064875F492D0C0
:1037E000BDE810400021044875F4EE9210BD0000C1
:1037F000CC6600304D4180001D7400012DE9F04180
:1038000004460D461746002D04D0012D02D001209C
:10381000BDE8F081E4B1DFB1607801281AD0EFF3A0
:1038200011860220FFF7EAF98046FFF7F5F9401C00
:103830000121814008EB0100C0B280F31188002013
:103840006070A570E761F0B280F311880020DFE7B7
:103850000120DDE70620DBE710B50446002C0CD084
:10386000204600F0B3F9FF2060700021A160E16004
:10387000216161610020E06110BD012010BDF0B543
:10388000DDE90745059981614FF47A76A2FB061CB4
:1038900003FB06C3002702FB0732C0E90212091925
:1038A0006A41C0E9041200210162F0BD2DE9F04136
:1038B0000446002C13D0EFF311850220FFF79EF988
:1038C0000746FFF7A9F9401C012606FA00F0384424
:1038D000C0B280F311881248002121620EE000205E
:1038E000BDE8F081D4E90432D1E9047CDB1B72EB42
:1038F0000C0202D2016A216203E00846016A002933
:10390000F0D104626670064810380168491C0160F5
:10391000016B4160E8B280F311880120E0E700000C
:10392000D07100302DE9F04105460024EFF31186F7
:103930000220FFF763F90746FFF76EF9401C0121EB
:1039400081407818C0B280F31188134A106BE8B137
:1039500015B102F1100010E00446206A10631068EF
:10396000401E10600CE0A94206D11168491E11608A
:10397000296A01622C4603E00846016A0029F2D157
:1039800024B1002020626070106B5060F0B280F3B0
:1039900011882046BDE8F081C07100302DE9F0416A
:1039A000EFF311870220FFF729F90446FFF734F9F6
:1039B000401C012181406018C0B280F31188114D74
:1039C000002608E02078012804D1E16909B1A06946
:1039D000884726702D6A2C6A002CF3D1094D103DC2
:1039E00007E0E16909B1A06988472670206AA863E9
:1039F0002662AC6B002CF4D1F8B280F31188012060
:103A0000BDE8F081D07100302DE9F041EFF311876E
:103A10000220FFF7F3F80446FFF7FEF8401C0126EA
:103A200006FA00F02044C0B280F311881D4DA5F1C4
:103A300010082DE0D4E90430D8E902125B1A60EBDB
:103A40000200D8E91021D21A814124D326702046E1
:103A5000FFF768FFA078012806D01248283000211F
:103A60002162016861B10FE0D8E90220D4E90213B4
:103A700051185841C4E904102046FFF717FF07E02A
:103A8000046005E001F1200001680029FAD104601A
:103A90002C6A002CCED1F8B280F311880120BDE849
:103AA000F0810000D07100302DE9FF5F82460E46A4
:103AB00093464FF00008BAF1000F20D041488642EB
:103AC0001DD8E6B1EFF311870220FFF797F80446FF
:103AD000FFF7A2F8401C012181406018C0B280F3BA
:103AE0001188504602F092FA10B19AF8010040B1E4
:103AF000F8B280F311880F2004B0BDE8F09F0120D8
:103B0000FAE702F0BFFC04460D464FF47A7106FB5B
:103B100001F022462B46002102F048FADFF8A89077
:103B2000B0B1D9F8040048B1D0E90410091B60EB2A
:103B30000500C9E9021002F039FD04E00021C9F8CE
:103B40000810C9F80C104FF00108D9E9020106E08D
:103B5000D9F80400D0E90421101B61EB0501CDE97F
:103B6000020132460023CDF800B05046FFF787FE31
:103B70005046FFF79BFE03F0C3FF4FF0E024D4F85C
:103B800000014FF0806510F0806F01D0012000E04F
:103B9000002020B91A20FEF792FFC4F80051B8F1B6
:103BA000000F0AD0D9F80400D0E90431D9E90202A3
:103BB000181A61EB020102F09BFCF8B280F3118845
:103BC000002099E7008AB907C07100302DE9F04163
:103BD00004460025002C39D0EFF311870220FFF7AF
:103BE0000DF80646FFF718F8401C012181407018B7
:103BF000C0B280F311886078012824D1144E706817
:103C0000A0420BD102F03EFCD4E90432181A62EB58
:103C10000102C6E9020202F0C9FC01252046FFF7B5
:103C200081FE5DB1706848B1D0E90421D6E9020394
:103C3000101A61EB030102F05BFC04E01DB970682F
:103C400008B902F0B3FCF8B280F31188BDE8F08146
:103C5000C071003070B504461A4D55F8240070301C
:103C600003F0D3FD82B21646A2B155F8240090F8B5
:103C7000011101290ED0012180F80411802A0FD3EF
:103C800055F82400802200F18001703003F0D2FD4D
:103C900080260CE055F82410002081F8000170BD4A
:103CA00055F8240000F18001703003F0C3FD55F891
:103CB0002400324600F18001001D1DF4BBD600280F
:103CC000EDD170BDD0660030704700002DE9F8439B
:103CD00004464D4F57F82400061D022C7ED290F862
:103CE0006C1000297AD0012978D190F800110129AF
:103CF00074D190F80111002970D1012180F80111CF
:103D0000002157F82400D0E903231344027D02F078
:103D10000102D21D9D184268D36FC3F38003002BAC
:103D2000FAD090F80421A2B1384A1368491C90F8DF
:103D30003B20102A06D08268B3FBF2F26A43B1EB53
:103D4000C21FF3D957F82400703003F05EFD85B22E
:103D500026E0B0F82480C58C001D1DF4E3D257F88E
:103D6000240041F2883300EB0801491B8031001D1B
:103D70002A461DF424D6E5E757F8240001227030C6
:103D8000694603F057FD57F824004068C16FC1F33E
:103D900040010029FAD09DF8001001606D1EADB2FF
:103DA000002DE9D157F82400703003F02EFD0028D3
:103DB000C8D1306841694906FCD5EFF31085012070
:103DC00080F3108857F82400703003F01EFD68B1AE
:103DD000EFF31081012080F3108800E011E03068DB
:103DE000426842F08202426081F3108857F8241042
:103DF000002081F8000157F8241081F8010185F3B3
:103E00001088BDE8F8830000D066003008650030F7
:103E10002DE9F04105460F46002D06D02AB12C7839
:103E2000022C04D3E820BDE8F081E520FBE7304E0A
:103E300005F1580046F82400D2E900310A467030F6
:103E4000194603F0CDFC291D286D04F081FB0028E4
:103E5000E9D156F82410281D486656F8240007605A
:103E600056F824001822083005F14001FEF7ECFB5B
:103E7000204856F8241000EBC4056868486056F8DE
:103E80002400001D01F0EAFD56F82400001D01F099
:103E90001BFE184801220321103803F0E9FA56F8F6
:103EA0002410012081F86C0056F82410002081F8BD
:103EB000000156F8241081F8010156F8241081F809
:103EC000020156F8241081F803010B490C2003F07D
:103ED00041FE0A490D2003F03DFE95F9010018F45A
:103EE0009BD195F9010018F4B5D100209BE70000A3
:103EF000D0660030289600019D2A0001AD2A0001FD
:103F00002DE9F04104461A4D55F82400703003F0B5
:103F10007CFC82B2164600277AB155F8240090F84E
:103F20000111012909D0802A0ED300F180017030DF
:103F3000802203F07FFC80260BE055F8240080F8F7
:103F400000710020BDE8F08100F18001703003F0C5
:103F500071FC55F8240080F8047155F824003246AD
:103F600000F18001001D1DF4ABD50028EAD1E9E77E
:103F7000D066003070B5022801D3E82070BD104D26
:103F800055F8204064B194F86C604EB151B14AB11B
:103F90005E1C09D044F62066B34205D9E42070BD0A
:103FA000E52070BDE42070BD002684F8026155F85C
:103FB0002000001D1DF403D50028F4D170BD0000C1
:103FC000D06600302DE9F04106460C46174604F154
:103FD0000805204671F4F0D3C3B21B48E1184268CB
:103FE000914202DD0320BDE8F0811849184A0068BB
:103FF00009681268891A081A001FE91881421CD939
:104000004FF4004513A22946002008F4C7D600F05B
:104010002FFA30B118A22946002008F4BFD6082094
:10402000E1E71DA22946002008F4B8D63A46214609
:104030003046BDE8F04104F061BC3A4621463046C6
:10404000BDE8F04104F05ABCD8328000D023800093
:10405000CC238000523A353A4E5644532061726563
:1040600061206973206265696E6720636F6D70619E
:10407000637465642E0D0A00523A353A436F6D70D1
:10408000616374696E67204E564453206661696CA3
:1040900065640D0A00000000523A353A436F6D70B6
:1040A000616374696E67204E564453207375636371
:1040B00065737366756C0D0A0000000003F0DCBACE
:1040C00010B5FFF7FBFF054903480860BDE8104045
:1040D000034877F43B94000017B8800474C500A02F
:1040E0000087930310B506480068002800D0804779
:1040F00000F43AF408B1012010BD002010BD00000A
:104100003469003070B519480468194D28780028C2
:1041100001D0002070BD4FF0806074F4E9D701F445
:1041200093F4600875F4F4D61249086088171149B1
:1041300001262C3908601920FEF7E8FC0E497006AC
:1041400008604FF03041086B40F007000863094CED
:10415000303C206840F4E020206001F4B7F42E7079
:10416000206820F4E0202060012070BD6C248000D5
:104170002C69003070C500A000E100E070B500249B
:10418000EFF31086012080F3108801F4BAF4104D8B
:1041900028B102242968B9B10220884714E0FFF74A
:1041A000A1FF20B1296879B1002088470CE0FFF712
:1041B000A9FF28B10224296831B10220884703E011
:1041C000296809B10020884786F31088204670BD11
:1041D0005C248000034900EB800001EB80008088B4
:1041E000704700001C680030034A00EB800002EBBF
:1041F00080008180704700001C68003010B500F01E
:1042000067F800F049F8BDE8104000F001B8000080
:1042100000B58FB005208DF800004FF4805101915A
:104220008DF8080001218DF8091000228DF80A2070
:104230008DF80C004A0304928DF814008DF81510C7
:104240008DF816108DF81800CA0307928DF820001B
:104250008DF8211003228DF822208DF824008B0385
:104260000A938DF82C008DF82D1002238DF82E3036
:104270008DF830200D938DF838008DF8391004201A
:104280008DF83A00034A05216846FFF7DBF90FB0C5
:1042900000BD0000413600017CB5102600960224C6
:1042A0008DF804408DF8054007258DF806506946C5
:1042B0000520FEF7ADFF00968DF804408DF805400F
:1042C0008DF8065069460420FEF7A2FF7CBD000071
:1042D00000B587B000F01EF803208DF800001D2007
:1042E0008DF8160001208DF817008DF818008DF854
:1042F0001900044A04496846FFF748FAFEF7B8FD7A
:1043000007B000BD0D430001654300010020FFF729
:10431000DDBC00001CB5114800904FF48062019292
:1043200000F58060002101704FF4E1330364032342
:1043300043648164C16401650121416505230374FF
:10434000CC0244610224447401760371826044719A
:1043500001736A460249FFF75BFD1CBD2C6A003001
:10436000C93C00010A4601464FF47A730020FFF76A
:1043700001BE00000E4910F1210F06DA086820F492
:10438000704040F440500860704710F11D0206D3A1
:10439000086820F4704040F48040086070470A28A4
:1043A000FCDD086820F4704040F4A04008607047CD
:1043B00024C500A010B503F053FB03F043F803F04D
:1043C000C9FD00F045FBBDE8104003F041BB000013
:1043D0000FB41CB504461448C068019008208DF83D
:1043E000040000208DF80500069800909DF8150047
:1043F0008DF806009DF814006946FEF709FF0028B5
:104400000ED1302C0CD0382C0AD0089800909DF892
:104410001D008DF806009DF81C006946FEF7F8FEA9
:104420001CBC5DF814FB00007095000110B5044938
:104430000448FEF749FDBDE81040FEF787BD0000C7
:10444000A12E0001F866003010B50848006890F809
:104450002010012908D1EFF3108481F31088001D8A
:1044600013F4D0D684F31088012010BDC866003044
:104470002DE9F04F87B07B48D0F80090002400254C
:10448000A246002603F008FF77480168C9F800102B
:104490004068C9F80400754800680830059009F1C3
:1044A00008000690042203A9059800F09DFABDF8C3
:1044B0000C10A1F57F40FF3843D0082203A90598CE
:1044C00000F092FABDF80E0071F476D100F0FF080A
:1044D000BDF80C00002867D00698A9EB000707F587
:1044E0008057BDF80E1008F1080083460844B84212
:1044F00063D805AB082203A906A800F0D7F8BDF8D9
:104500000E00002300EB080205A906A803F000F83E
:10451000641CBDF80E005844B842C3D10020CDE958
:10452000006053464A462146284604F0FDF800281C
:1045300026D1824600260024CDF818906D1CEDB2DD
:10454000B0E70020CDE9006053464A4621462846A0
:1045500004F0EAF8002813D16D1CECB2434D4FF47F
:104560008057434E08E0286800EB0430394600F0DD
:10457000EBFF40B1641CE4B2707AA042F3D8002093
:1045800007B0BDE8F08F3B488169407A40F27C4239
:10459000CDE900200291384B38A24FF400410020B1
:1045A00008F4FCD30920EBE7BDF80E00059908F1EB
:1045B000080808444044059074E7082F29D305AB48
:1045C000082203A906A800F071F8083F2FB10023C4
:1045D0003A4605A906A802F09BFF611C0020CDE920
:1045E000006053464A46284604F09EF80028C7D18A
:1045F0008246BDF80E004044C61B0024CDF818903A
:104600006D1CEDB20023324605A906A802F080FF1A
:1046100048E705AB3A4603A906A800F047F8611C35
:1046200003A8CDE9006053464A46284604F07CF8CA
:104630000028A5D1C7F1080ABDF80E0000EB080656
:104640000024CDF818906D1CEDB20123524605A947
:1046500006A802F05DFF0023324605A906A802F075
:1046600057FF1FE78C670030ACD50700CC238000D4
:10467000D8328000641F80008A960001523A353A91
:1046800025732C204C256420666C6173682073743C
:10469000617465203078253032582C206572726F35
:1046A00072203078253038580D0A000070B5044665
:1046B00015461E462A462068FDF781FF30682844CB
:1046C000306020682844206070BD000010B50548A7
:1046D000017B491C0173002075F488D2BDE81040AD
:1046E00000F044B8CC6700303EB5FFF7E7FC1A484D
:1046F000016821F400310160174D083D2868174911
:1047000080B208432860164803C8CDE9000112486A
:104710002C38006800F007011DF80100C82110FBCB
:1047200001F400F051FE0F4841684268521AA2425B
:10473000FBD300F02DFE02F0B3FE02909DF80800BE
:1047400028B19DF80800084948618861C861286857
:1047500020F07F4028603EBD30C500A000008F11D2
:10476000AC490001001000E0CC6700302DE9FC41AD
:10477000294D286820F07F4040F088502860274865
:1047800003C8CDE90001244824380068C82100F09E
:1047900007001DF8000010FB01F400F015FE204892
:1047A00041684268521AA242FBD300F0F1FD002694
:1047B00002F076FE0446DFF86C80D8F818008442D8
:1047C00001D9012700E0002775F4B6D040B91FB128
:1047D000D8F81800201A02E0D8F81800001BC6B25A
:1047E000D8F81800C8F82000B6EB900F03D8292C91
:1047F00001D8112C02D200F017F807E000EBC0003E
:1048000020440A21B0FBF1F0C8F81800286820F015
:104810007F402860BDE8FC8128C500A0AC490001AC
:10482000001000E0CC6700302DE9FF5F4FF0000B77
:104830000824DFF86C811A20C8F814005948016870
:10484000594A89B21143016003A8FEF7E5F8022036
:10485000FEF7EAF8DFF84C9109F10809D9F80000F1
:1048600020F47C3040F42030C9F800004FA003C889
:10487000CDE90001DFF82CA1AAF1240ADAF8000042
:10488000C82100F007001DF8000010FB01F500F042
:104890009BFD484F78687968091AA942FBD300F05C
:1048A00077FD02F0FDFD02909DF80810D8F8140085
:1048B000814204D99DF80820811C8A425AD99DF86A
:1048C0000810814204D29DF80820811E8A4251D2EC
:1048D0009DF80810814201D9012500E0002515B19D
:1048E000641C64B201E0641E64B2202C11D3D9F8B8
:1048F000000020F47C3040F42030C9F80000D8F8E3
:104900003C00401CC8F83C00002002904FF0010B16
:1049100030E0D9F8000020F47C3040EA043040F464
:104920000030C9F8000021A003C8CDE90001DAF881
:104930000000642100F007001DF8000010FB01F6E4
:1049400000F042FD78687968091AB142FBD300F0A3
:104950001FFD02F0A5FD029035B19DF80800D8F8C2
:1049600014108842BBD805E09DF80800D8F8141050
:104970008842B4D39DF80C00FEF756F80948016848
:1049800021F07F4101609DF80800C8F81800D8F8B0
:104990002400401CC8F8240004B05846BDE8F09F2D
:1049A000CC67003028C500A000008F1140301018DF
:1049B00010200000001000E00A49322808DDD1F87C
:1049C000200220F4706040F44070C1F8200270476B
:1049D0002828FCDAD1F8200220F47060C1F8200207
:1049E0007047000000E000A02DE9F04105460E46AA
:1049F0001746094C2378002B02D0002071F450D2C6
:104A00003A463146284600F0DFFD0546207871F42D
:104A100047D22846BDE8F081C92380002DE9F04146
:104A200005460E461746094C2378002B02D000207D
:104A300071F436D23A463146284600F0D5FD054697
:104A4000207871F42DD22846BDE8F081C92380007A
:104A50000121024A00206BF487900000D54D00012F
:104A600010B5104C02220421204601F047FC01221F
:104A70001021204601F042FC02228021204601F054
:104A80003DFC02224021204601F038FC0222202178
:104A9000204601F033FC20460222BDE810400821E8
:104AA00001F02CBC001001A02DE9F04106460F4694
:104AB0001C4C4FF6FF75238C102B0AD320882146FF
:104AC0006084CD835B1E0B841E22891C2046FDF76B
:104AD00076FD608C3246394602F062F910B10C2046
:104AE000BDE8F081208C102804D3401C2084608C09
:104AF000E08308E0618C24F81010208C401C208496
:104B0000608C401C608400F00FF80028E8D0218CF5
:104B1000491E89B22184628C521E628424F811508D
:104B2000DEE700005078003010B5054A24214FF42C
:104B3000204002F035F908B10C2010BD002010BD56
:104B4000507800302DE9FE4F07460D4602AA29464F
:104B5000384603F06BFC10B10298BDE8FE8F029C52
:104B600000260296DFF8688098F8000010B1002057
:104B700071F496D1DFF85CA04FF6FF790822694600
:104B8000204600F021FDBDF80000484502D12E80EE
:104B9000029617E0B84206D115B1BDF80200288090
:104BA000083402940EE0BDF8020070F405D6BDF89A
:104BB0000210083021444418DAF800008442DDD3A2
:104BC0002E80029698F8000071F46AD10298C4E72A
:104BD000C9238000D023800070B5044600BFFEF7D3
:104BE0003FF805460120FEF73EF80948047024B955
:104BF000482208490848FDF727FD1DB90020FEF7A7
:104C000032F802E00120FEF72EF800BF70BD000070
:104C1000386700304C790030002000E010B50748BC
:104C20004068074948600648083040220349083177
:104C3000FDF70AFD03200249086010BD0479003029
:104C4000002000E070B500BFFEF70AF8054601201D
:104C5000FEF709F80B48047834B948220A490B4892
:104C6000FDF7F2FCFFF7DAFF0120064908701DB9D5
:104C70000020FDF7F8FF02E00120FDF7F4FF00BF80
:104C8000204670BD38670030002000E04C790030CD
:104C900013B501216846FEF76DFD01201CBD0178AA
:104CA00082781144C9B201710846704730B50022BC
:104CB0004271438805E044798D5C2C444471521C58
:104CC00092B29342F7D8407930BD000070B50646E5
:104CD0002DED068B88B00D469FED368B2021684662
:104CE000FDF706FD0024102269463046FDF7C6FF99
:104CF0000020694600F1080231F81220224494B2E3
:104D0000401CC0B20828F5D3E408052E02D0062EB8
:104D100024D046E0688804F044F941EC180B288858
:104D200004F03FF941EC190B204604F03AF953EC3A
:104D3000192B04F099FA53EC182B03F07DFF9FED2B
:104D40001F1B53EC112B03F077FF9FED1E1B53EC41
:104D5000112B04F07DFA41EC180B22E09FED1B0BA8
:104D600051EC100B03F082FE41EC190B688804F043
:104D700018F941EC1A0BA88804F013F941EC180B50
:104D8000204604F00EF953EC182B04F06DFA53ECA6
:104D90001A2B03F051FF53EC192B04F05BF941EC93
:104DA000180B08B0B0EE480AF0EE680ABDEC068BAE
:104DB00070BD0000000000000000000079E926310D
:104DC00008AC5CBF0000000000003940B76DDBB6E6
:104DD0006DDB0E401CB542680121117000214FF4BB
:104DE0008A2205E012F8013B4468491C6354C9B2A9
:104DF0000829F7D3094906C9CDE900124168009A8C
:104E000041F8092F019A4A600288406811216AF42A
:104E10006DD60349002008701CBD0000C496000137
:104E200048258000024600210BE0084850F8313048
:104E3000501E834204D1054800EBC1004068704712
:104E4000491C1029F1DB0020F9E7000094790030BB
:104E5000002101E0491C4008C207FBD0084670470A
:104E6000014617480068C0F3C220DC2901DA062099
:104E70007047A1F1DC020A2A03D20428F8D00620E8
:104E80007047A1F1E602142A01D804207047A1F16D
:104E9000FB02092A03D20328F8D004207047A1F5A9
:104EA0008272282A01D803207047A1F22D11092906
:104EB00003D20228F8D00320704702207047000078
:104EC00010C500A001461E480068C0F3C220DC29BE
:104ED00001DA07207047A1F1DC020A2A03D2052873
:104EE000F8D007207047A1F1E602142A01D8052066
:104EF0007047A1F1FB02092A03D20428F8D005204B
:104F00007047A1F58272282A01D804207047A1F2C7
:104F10002D12092A03D20328F8D004207047A1F5E6
:104F20009B723C2A01D803207047A1F27311092912
:104F300003D20228F8D003207047022070470000F7
:104F400010C500A02DE9F04704460D464FF00008BB
:104F500000BFFDF785FE81460120FDF784FE304845
:104F60000068102802D34FF0FF384BE048222D494B
:104F70002D48FDF769FB48222C492A48FDF764FBC0
:104F80002B482749096840F831402549096800EB5A
:104F9000C100456027884DF6FF7624F0010425F016
:104FA000010504F0030080B1A01E40F001011D487E
:104FB00008301B4A126840F8221007EB06401D49D2
:104FC000174A126841F822000CE044F0010115482C
:104FD0000830134A126840F8221016481049096830
:104FE00040F8216048220F491048FDF72DFB482268
:104FF0000D490C48FDF728FB09480068401C08498A
:10500000086000BFB9F1000F03D10020FDF72BFEAF
:1050100002E00120FDF727FE00BF4046BDE8F08713
:105020003C670030002000E04C790030047900300B
:1050300094790030007B003070B5044600BFFDF766
:105040000FFE05460120FDF70EFE002014490870F2
:105050001448154908601548154908604822154943
:105060001548FDF7F1FA1548124948600320086019
:1050700048221348FDF7E8FA48220F490D48FDF78A
:10508000E3FA882C01D002F067FF1DB90020FDF77C
:10509000EAFD02E00120FDF7E6FD00BF70BD000063
:1050A00038670030D94B0001EC268000454C0001E8
:1050B000E8268000002000E04C790030007B0030C2
:1050C0000479003005480068C00F002804D0044867
:1050D000007908B1012070470020704740C500A04A
:1050E000CC670030FEB50546002403208DF8000093
:1050F00000260B4FE8070CD00120A040019004EBE4
:10510000440007EB800081680291416809B168465C
:105110008847641CA4B26D08761C082EEADBFEBD2D
:105120005C71003010B5EFF31084012181F3108819
:1051300000F004F884F3108810BD00002DE9F04160
:105140000446204601F07AF8E0B2EFF31081012224
:1051500082F31088194A136883430343136081F371
:1051600010881748446284634FF6FF7000EA0421F8
:10517000E0B2124B0C3B1A68084382431A6019E0F4
:1051800094FAA4F0B0FA80F101208840611E0C402E
:10519000072290FAA0F1B1FA81F18900094D2E6839
:1051A0000F278F40BE438A4016432E60196821EABC
:1051B00000401860002CE3D1BDE8F0815CC500A080
:1051C000002001A090E200A070B50546064812F448
:1051D0005DD4EFF31084012181F31088284600F09C
:1051E00005F884F3108870BD9867003000B585B06D
:1051F00001680091017901F0030101918168029138
:10520000C1680391406800090490684600F08AFF75
:1052100005B000BD10B5FF20FDF700FE80B20028EC
:1052200021D011498863EFF31081012282F31088A5
:105230000E4A6FEA0043136081F310886FF0040197
:1052400011600A4940390968C1F3001139B12028B9
:1052500005D0BDE8104020F0200012F48F93BDE887
:10526000104012F48B9310BD002001A044C500A093
:1052700070B50446002C15D0207B012814D00120E5
:1052800020732FF4E5D109484FF0FF314160816070
:1052900000250570204600F075F8256165732573BB
:1052A000002070BD012070BD022070BD506700302D
:1052B0002DE9F04104460026002C08D0207B01286F
:1052C00008D001272773607B002528B108E0012062
:1052D000BDE8F0810220FBE72573204600F053F87B
:1052E00020462FF4BDD10146094A106800F007039B
:1052F000084843601268C2F3C20282600770012945
:1053000003D0012625733046E2E725616773F9E78C
:105310004CC500A05067003070B5184D2968C1F326
:105320000011002929D0154908310A6802F0070345
:105330000A68C2F3C2020C6824F0070414430C602C
:10534000DC000E6826F0380626430E60EFF310816D
:10535000012484F310882C6824F010042C6081F35D
:105360001088417B022908D105494C68A34204D129
:1053700089688A4201D100F007F870BD44C500A0D9
:1053800050670030704770470021FDF777BD00007F
:10539000EFF31081012080F3108808480268521E44
:1053A00002600268002A05D18268054B1A604068D5
:1053B000044A106081F31088704700004067003095
:1053C000001000E0FCED00E010B5EFF310810120CB
:1053D00080F310880B480268002A0DD10A4B1A6826
:1053E00042600A4A14688460446844F080741C6017
:1053F000836843F0010313600268521C026081F36A
:10540000108810BD40670030FCED00E0001000E0A7
:1054100010B50446002C1DD0207A01281CD0012094
:1054200020721A48006818B1416809B120468847BF
:105430001748016821F480610160EFF310810120B9
:1054400080F310881348026822F0020202600068AC
:1054500020B114E0012010BD022010BD0E484268AA
:1054600042F001024260C26842F00072C26002680B
:1054700042F001020260C26842F08072C26081F3B1
:1054800010880020E0606072207210BD84038000EC
:1054900014C500A00C690030A0E200A070B504465D
:1054A000002C03D023492068884201D0012070BD20
:1054B000207A012805D001252572607A002610B1D6
:1054C0001EE0022070BD26721B48016821F0010118
:1054D0000160816821F000718160EFF3108001218B
:1054E00081F3108815490A6842F002020A6080F3CD
:1054F00010881348006818B1016809B12046884730
:10550000022060720F48016841F4806101606068A8
:10551000012809D02068016821F4805101603046DB
:10552000E6606572207270BD2068016841F48051A8
:105530000160F4E7006401A0A4E200A00C6900305F
:105540008403800014C500A010B50B46024600215C
:105550000348FFF710DF08B1002010BD012010BD87
:10556000641F800038B5022000906846FDF754FAA9
:10557000114C206880B91148206011490160012157
:1055800041608160EB21C1600E499DF8002051F817
:10559000221001610021416176F4E8D408B10120B4
:1055A00000E00020A072044813F4D8D608B100200F
:1055B00038BD012038BD0000641F8000281F800016
:1055C00000D000A07467003010B514460A460146AA
:1055D0002346044800F432F308B1002010BD2046F1
:1055E00010BD0000641F80002DE9F047C0B0814667
:1055F0008A4617463B46524649461748FFF7B1DDF3
:1056000018BB00243D464FF48078474501D94646F3
:1056100000E03E4609EB040133466A460E4800F4BA
:105620000DF390B90AEB040032466946FCF77CFFA3
:1056300058B9AD1B6DB134444646B54200D82E462C
:10564000BC4202D2A019B842E4D9002040B0BDE863
:10565000F0873846FAE70000641F800070B5054601
:105660000E46074814F43CD2EFF31084012282F373
:1056700010883146284614F4FBD184F3108870BD9D
:105680009C6700302DE9FE4307460E463046FFF783
:10569000DFFB85B20024DFF85490DFF8548059F81E
:1056A0003400B8421DD105EB041085B205EB45026C
:1056B00018F82200052807D08DF800400D488742D1
:1056C00006D13004019004E005208DF80000F5E7D4
:1056D000019608EB82008168029142680AB168462F
:1056E0009047641C032CDADBBDE8FE83949500012F
:1056F000DC6F0030001001A070B505460E4607486B
:1057000014F4EED1EFF31084012282F310883146B5
:10571000284614F4DAD184F3108870BD9C670030F9
:1057200010B506481AF4FCD0EFF31084012080F382
:10573000108816F49DD484F3108810BD9067003053
:10574000F0B54FF0F85000EA01604FF4F81202EAA9
:105750000142254B1C680243944304431C6001F042
:105760001F00EFF31082012484F310881C1D2568AC
:1057700085430543256082F310884FF4F85202EA0E
:1057800001221D6885431D60EFF31080012383F320
:10579000108823689343236080F3108820E091FAF7
:1057A000A1F0B0FA80F2012090404A1E1140072378
:1057B00090FAA0F2B2FA82F292000C4E35680F27EE
:1057C0009740BD4393401D433560EFF310820123A2
:1057D00083F31088236823EA8050206082F31088C6
:1057E0000029DCD1F0BD00003CC500A094E200A07F
:1057F000084600F0A5BD084616F4C89470477047E7
:10580000012080F310880F48016821F08071016049
:1058100001210C4A38321160016841F000710160C9
:10582000084A6FF04001143A11600021026861F3E8
:10583000DF620260054A04491160016841F080712D
:105840000160FEE758C500A0646F6F6700708000BC
:1058500070B504460D46044818F492D329462046F4
:10586000BDE8704018F44C936D5800012DE9F041EB
:10587000EFF311870220FDF7C1F90446FDF7CCF9DB
:10588000401C012181406018C0B280F311880020C3
:10589000FEF748F80546254ED5E90412C6E902127E
:1058A0002348081A72F11E0019D306F110000EE009
:1058B000DCE90412D6E90234B1EB030872EB040808
:1058C00004D3C91A62EB0402CCE90412006AD0F8CE
:1058D00020C0BCF1000FEBD10021B160F160A878CD
:1058E00001280AD1D6E90230D5E9021259185041EF
:1058F000C5E904102846FDF7D9FFF8B280F31188F6
:10590000FEF782F8706840B1D0E90421D6E90203BD
:10591000101A61EB030100F0EBFDE96909B1A86918
:105920008847BDE8F041FEF739B80000C07100308B
:105930000010C32C10B5032806D0FFF789FF0349D8
:1059400001200870002010BD012010BD5C670030F0
:105950000E488178002909D10D49096801F04051AC
:1059600001228270B1F1805F00D14270407858B15D
:105970000848F6EE000A90ED000A30EE200ABCEE70
:10598000C00A10EE100A704776F444925C6700304B
:1059900050C500A06467003008B50020009069463B
:1059A0004FF00040FEF776DD08B1002008BD0098FA
:1059B00008BD000001480078704700005C670030B7
:1059C00010B500210320FFF743FF024900200870B3
:1059D00010BD00005C6700301CB502F0A7FD05217A
:1059E0008DF800100649002251F8203083F800217C
:1059F00051F820000168002901D0684688471CBD85
:105A0000D06600301CB502F091FD04218DF8001025
:105A10000649002251F8203083F8002151F8200077
:105A20000168002901D0684688471CBDD066003057
:105A30001CB502F07BFD03218DF800100649002201
:105A400051F8203083F8002151F820000168002926
:105A500001D0684688471CBDD066003070B5054649
:105A600006481BF455D7EFF31084012181F3108809
:105A700028461BF401D584F3108870BDA067003060
:105A80001CB50446204602F051FD00228DF800208E
:105A9000E16B0191064951F8203083F8002151F85B
:105AA00020000168002901D0684688471CBD00001D
:105AB000D0660030002804D010F8371F4078084323
:105AC000704700207047000070B5054606481BF47B
:105AD0001FD7EFF31084012181F3108828461BF4AF
:105AE000B9D584F3108870BDA06700307047704747
:105AF0001CB50446204602F019FD02218DF8001065
:105B0000218D628D891AADF80410044951F82000E6
:105B10000168002901D0684688471CBDD066003066
:105B20007CB50546284602F001FD044601208DF8AB
:105B30000000288C698C401AADF804000C4D55F813
:105B4000240090F8040118B12046FEF783F802E023
:105B50002046FEF7D5F955F8240090F800110029E9
:105B600004D10168002901D0684688477CBD000047
:105B7000D06600302DE9F04F87B00468456886682C
:105B8000C768D0F81080D0F81490D0F818A0D0F8DA
:105B90001CB04FF480610A48FCF7AAFD8DE8C00FE5
:105BA0002B46224607490648FCF7EAFA0448FCF768
:105BB000E7FC07B081B2BDE8F04F0148FEF774BFC3
:105BC000507400300897000138B500200090124C46
:105BD0002078902808D015D294F8280000F07F0093
:105BE00000F14600009012E0684602F0E7F894F8F1
:105BF0002800BDF80010884209D900F07F00463027
:105C0000009004E0A07C00F07F0012380090BDF806
:105C1000000000F07F0038BD12328000F0B585B082
:105C20000446224F21033868FFF78EFC204E4FF4C4
:105C30000045D8B11F4801680391406804900822CC
:105C400003A93868FEF7EAFE08281ED0B069717A09
:105C500040F26A22CDE900210290174B17A2294693
:105C6000002007F49BD0092005B0F0BDB069717A1F
:105C70004FF41572CDE9002102900F4B0FA2294677
:105C8000002007F48BD00920EEE7184808210160B6
:105C90006FF0130101EB04334360447214A22946F0
:105CA000002007F47BD00020DEE70000CC2380003A
:105CB000641F8000ACD507004B960001523A353A7C
:105CC00025732C204C256420666C617368207374E6
:105CD000617465203078253032582C206572726FDF
:105CE00072203078253038580D0A0000D8328000F4
:105CF000523A353A496E697469616C697A65207502
:105D00006E75736564206E7664732C2061766169AC
:105D10006C5F73697A653D25640D0A002DE9FC5FAF
:105D20004A490C6808344A4F7872082139606FF08C
:105D3000130101EB003808F1080078604FF0010909
:105D40004FF0000ADFF80CB19BF80000002802D0E9
:105D5000002070F4A5D0042269462046FFF734FCE9
:105D6000BDF80010A1F57F40FF3826D00822694613
:105D70002046FFF729FCBDF8020000F108056FF48A
:105D80001BD5C6B2BDF8000000282BD0684602F033
:105D90008FFCA8B17868A919401A786000281BDA2E
:105DA0002DA24FF40041002006F4F8D79BF8000024
:105DB00070F476D00120BDE8FC9F4FF0010A1AE094
:105DC00033A24FF40041002006F4E8D79BF800000E
:105DD00070F466D00920EEE74FF0000921466846CE
:105DE00002F068FA3968A819014439600444374858
:105DF00000688442AFD39BF8000070F451D0BAF130
:105E0000000F05D0B9F1000F04D0C7F804800AE0F4
:105E10000120D0E77868082802D90838786002E0C5
:105E20003872002078607B68434507D828A24FF479
:105E30000041002006F4B2D70020BCE72FA24FF4A7
:105E40000041002006F4AAD70120B4E7CC2380004B
:105E5000D8328000C9238000523A353A4E56445316
:105E600020696E697469616C697A6174696F6E200A
:105E70006661696C656420666F722077726F6E6709
:105E800020746167206C656E6774680D0A000000FD
:105E9000523A353A4E56445320696E697469616CC2
:105EA000697A6174696F6E206661696C65642066E9
:105EB0006F7220696E76616C696420646174612020
:105EC000696E20466C6173680D0A0000D023800063
:105ED000523A353A496E697469616C697A65207520
:105EE000736564206E7664732C20617661696C5FE3
:105EF00073697A653D25750D0A000000523A353AFE
:105F00004E56445320696E697469616C697A617494
:105F1000696F6E206661696C656420666F722069C6
:105F20006C6C6567616C20617661696C5F73697A1E
:105F3000653D25750D0A000010B50446FFF744FEC7
:105F4000B4F5A37F10DA4FF48C718C4200DA0C4662
:105F5000614201EB810140F6B24202EB41021121A4
:105F600092FBF1F1401AC0B203490A6822F0FE42E6
:105F700042EA0060086010BD0CC500A070B5034681
:105F80000E46154608480468324621461846FFF773
:105F90001BFB324629462046FCF7C6FA08B1002012
:105FA00070BD012070BD00008C6700302DE9F04706
:105FB00005460E4617469846EFF311840220FCF77B
:105FC0001DFE8146FCF728FE401C0121814009EBA3
:105FD0000100C0B280F311880B48406848B1E81B4B
:105FE00076EB08060AD2E0B280F311880120BDE802
:105FF000F087E0B280F311880120F8E7E0B280F387
:1060000011880020F3E70000C0710030002805D09F
:10601000C16919B1807818B1012801D000207047FA
:10602000012070477CB5044600200090019068462E
:1060300001F032FF00285ED101F01AFF80F001006C
:1060400020B301F0F5FE02002B482C4909D090F84E
:10605000280008300A6822F0FE4242EA0060086028
:1060600014E090F82800322C07DB08300A6822F090
:10607000FE4242EA0060086008E0282C06DCC01CF2
:106080000A6822F0FE4242EA006008609DF80400BF
:1060900000F01F029DF8020000F01F0502210420FD
:1060A00001233C2C02DD0421062007E0202C02DD28
:1060B0000321052002E01B2C00DB0023002B1AD05B
:1060C00029441F2900D31F21824201D9101A00E060
:1060D00000200B4AD072094A1832136823F41F03B8
:1060E00043EA014111600549091D0A6822F478025A
:1060F00042EAC04008607CBD123280000CC500A09E
:10610000CC670030EFF31080012181F3108804493F
:106110000A6822F000420A6080F31088704700008D
:1061200040C500A02DE9F041044620683B4D1FE02A
:1061300090FAA0F1B1FA81F201219140421E104083
:10614000E26891FAA1F3B3FA83F39B00DFF8D0C0C1
:10615000DCF890720F269E40B74302FA03F31F4308
:10616000CCF89072072A25D02A6842EA01412960BA
:106170000028DDD12168A0684FF6FF7202EA0122F3
:10618000C9B2B0F5807F1AD00023012819D00020B1
:106190002E6811438E43184306432E60616802291E
:1061A00011D0206800F05EF820681E4948626068DF
:1061B00070B130E02A6822EA01412960D8E713462D
:1061C000E3E70846E4E70021206800F04BF8EBE73E
:1061D00020688863206901280CD0022804D0032895
:1061E0000ED0042817D111E0206848638862206827
:1061F000086210E0206808638862206808620AE08C
:1062000020680863C8622068086204E02068486368
:10621000C862206808620120BDE8F08150C500A076
:1062200000E000A0002001A00349096A884301D0D2
:106230000020704701207047002001A010B5EFF347
:106240001081012282F31088054B1A684FF6FF7403
:1062500004EA002082431A6081F3108810BD000018
:106260005CC500A010B5C0B2EFF31082012383F328
:106270001088054B1C688443002900D0002004438B
:106280001C6082F3108810BD5CC500A00548016841
:1062900021F0404141F080410160024838300068FF
:1062A000704700005CC500A0EFF31080012181F36E
:1062B0001088034A6FF48071116080F31088704772
:1062C00044C500A0EFF31080012181F31088054937
:1062D0000A6822F040420A6080F310880148383092
:1062E000006870475CC500A003490A6822F4E062B8
:1062F00002430A607047000018C500A010B50E4B9D
:10630000984201D1002000E0102081400B4BD3F8CF
:1063100010428C43022A0DD000200443C3F81042DF
:10632000D3F808028843012A00D000210843C3F8AB
:10633000080210BD0846F0E7000001A000E000A040
:106340002DE9F04104462168404D26E091FAA1F084
:10635000B0FA80F2012090404A1E1140226990FA62
:10636000A0F3B3FA83F39B00394F3E684FF00F0C54
:106370000CFA03FC26EA0C0602FA03F31E433E6005
:10638000072A19D0EFF31082012383F310882B68BA
:1063900043EA8050286082F310880029D6D1E16852
:1063A00020682A4E361F29B34FF4F85202EA002221
:1063B00001290DD000210CE0EFF31082012383F3BB
:1063C00010882B6823EA8050286082F31088E4E765
:1063D0001146336800F01F0083433360EFF31080F1
:1063E000012383F310882B6893430B432B6080F3C6
:1063F000108804E0316800F01F0001433160A1689B
:10640000206800F027F8208862684FF0F85101EA10
:1064100000614FF4F81303EA004082B1032A09D067
:10642000336840EA0104A343012A00D1084603432C
:10643000336008E0326808438243326003E0326828
:106440000843024332600120BDE8F08140C500A04E
:1064500094E200A010B500F01F00012901D0002136
:1064600000E00146EFF31082012383F31088044B10
:106470001C6884430C431C6082F3108810BD00002C
:1064800040C500A070B5FFF787FA0446601C24D011
:10649000FFF75EFA00EE100A9FED131AF8EE400ABD
:1064A00000EE104AB8EE400A20EE011A81EE200AF2
:1064B00010EE100A03F012F80C4A536883B1D3E9C6
:1064C0000463D2E90254721B63EB0403141A73EBE6
:1064D000010401D21046194670BD0020014670BD6E
:1064E0000020014670BD000000247449C0710030D6
:1064F00070B505462DED028B82B00E460024FFF7E5
:1065000027FA02F04EFD41EC180B2846314602F006
:106510005BFD53EC182B02F09DFD9FED1C1B53EC13
:10652000112B02F089FB9FED1B1B53EC112B02F08A
:10653000DBFA02F009FD01460120FFF7FBF9174DD8
:1065400017E017A003C8CDE900011748006800F064
:1065500007001DF80060FEF737FF68686968091AD0
:10656000B142FBD3FEF714FF2046641CB0F57A7FDE
:1065700007D2FFF71FFA0028E3D0FFF70DFA401CFF
:10658000DFD002B0BDEC028B70BD00000000000047
:1065900080842E41000000000000E03F001000E079
:1065A000403010181020000004C500A07CB5002465
:1065B000FFF706FA0F4D17E00F4803C8CDE90001B9
:1065C0000E48006800F007001DF80060FEF7FCFEB2
:1065D00068686968091AB142FBD3FEF7D9FE204604
:1065E000641CB0F57A7F03D2FFF7E4F90028E3D109
:1065F0007CBD0000001000E0A065000104C500A003
:106600001CB5FDF7FBFD24A0FBF7AEFD23A0FBF7B7
:10661000ABFD31A0FBF7A8FD3EA0FBF7A5FD4CA00C
:10662000FBF7A2FD59A0FBF79FFD3AA0FBF79CFDED
:1066300065A0FBF799FD73A0FBF796FD80A0FBF723
:1066400093FD8EA0FBF790FD9BA0FBF78DFDA9A00D
:10665000FBF78AFDB6A0FBF787FD0FA0FBF784FDD3
:10666000C2A003C8CDE90001C248006800F00700DD
:106670001DF80040C0484443FEF7A6FEBF484168ED
:106680004268521AA242FBD3FEF782FEFDF7CEFE0D
:10669000BBA0FBF769FDFEE70D0A00002A2A2A2AA3
:1066A0002A2A2A2A2A2A2A2A2A2A2A2A2A2A2A2A4A
:1066B0002A2A2A2A2A2A2A2A2A2A2A2A2A2A2A2A3A
:1066C0002A2A2A2A2A2A2A2A2A2A2A2A2A2A2A2A2A
:1066D0002A2A0D0A000000002A2020202020202045
:1066E000202020202020202020202020434F4D50FB
:1066F000206578616D706C652E2020202020202080
:1067000020202020202020202020202020202A0D92
:106710000A0000002A2020202020202020202020E5
:106720002020202020202020202020202020202069
:106730002020202020202020202020202020202059
:10674000202020202020202020202A0D0A000000C8
:106750002A20202020202020434F4D505F494E50BA
:1067600055542020203C2D2D2D2D2D202020202063
:106770004D53494F414E2020202020202020202012
:106780002020202020202A0D0A0000002A2020207E
:1067900020202020434F4D505F5652454620202058
:1067A000203C2D2D2D2D2D202020202056524546D9
:1067B00020202020202020202020202020202020D9
:1067C00020202A0D0A0000002A20506C65617365A4
:1067D00020636F6E6E656374207369676E616C20F1
:1067E000746F204D53494F414E2E202020202020F1
:1067F00020202020202020202020202020202A0DA2
:106800000A0000002A2049662074686520496E70DD
:1068100075742073696E676C652069732068696799
:10682000686572207468616E2074686520526566C0
:106830006572656E63652C2020202A0D0A00000019
:106840002A2074686520636F6D70617261746F7265
:1068500020696E746572727570742077696C6C2033
:106860006265207472696767657265642E202020F6
:106870002020202020202A0D0A0000002A20475234
:1068800035353236205265666572656E6365203D2A
:1068900020372E356D76202A207265665F76616C12
:1068A00075652E2020202020202020202020202040
:1068B00020202A0D0A0000002A2047523533337861
:1068C000205265666572656E6365203D2035302E09
:1068D00038326E41202A20283136364B202A207249
:1068E00065665F76616C7565292E202020202A0D53
:1068F0000A0000002A20475235353178205265665B
:106900006572656E6365203D2033306D76202A20E8
:106910007265665F76616C75652E202020202020D0
:10692000202020202020202020202A0D0A000000E6
:106930002A2A2A2A2A2A2A2A2A2A2A2A2A2A2A2AB7
:106940002A2A2A2A2A2A2A2A2A2A2A2A2A2A2A2AA7
:106950002A2A2A2A2A2A2A2A2A2A2A2A2A2A2A2A97
:106960002A2A2A2A2A2A2A0D0A0000004030101852
:106970001020000004C500A040420F00001000E0FD
:106980000D0A54686973206578616D706C652064C8
:10699000656D6F20656E642E0D0A000010B572F4EF
:1069A000A7D010B101F0B2FEFEE7BDE81040FBF742
:1069B00047BB00002DE9FF410446002000900190F4
:1069C0000290039021482249B0F1807F02D9B0F1B2
:1069D000887F08D3C0F31300C1F3130100F060F8FF
:1069E00021680843206000251A4F1B48C61B10E091
:1069F00007EB051110226846FBF7E1FD0198C0F393
:106A000013000299014400F04BF82168084320600C
:106A10006D1CB5EB161FEBD31048C0F313001049E3
:106A2000C1F3130100F03CF82168084320600D48D1
:106A3000C0F313000C49C1F31301884204D000F0E5
:106A40002FF8216808432060BDE8FF810020000185
:106A5000BC97000168970001B897000100C003309F
:106A60000000043000B0033000C0033038B50B49DB
:106A70000091012808D04FF0FF342046FEF7E3DAFA
:106A80002046FEF702DB38BD6846FFF793FF00980B
:106A9000FEF7D9DA0098FEF7F8DA38BD0F00C03FEC
:106AA000F0B5024600200025002300260024124FE6
:106AB00057F824C06544AA4201D2234603E0641C6F
:106AC000E4B20B2CF4D30024002257F822502C44BB
:106AD000A14201D8164603E0521CD2B20B2AF4D3CD
:106AE000032405E05A0004FA02F108435B1CDBB200
:106AF000B342F7D9F0BD0000989600017CB504467A
:106B00000D46002001900090694601A86FF46ED1F7
:106B10006FF4C2D105FB00F11CB90098441A04F1CE
:106B200080742046FEF710FD08B100207CBD0920CE
:106B30007CBD00002DE9FF5F07460D4616464A481A
:106B4000007800280CD03DB12C882CB126B11FB1A3
:106B50004FF6FF7A574505D1052004B0BDE8F09FF8
:106B60000120FAE74FF00009A5F8009003A9384684
:106B7000FDF7E8FF80465FEA08001FD0BDF80C2053
:106B8000944219D33146FEF71FFD8346092408229B
:106B900001A9A8F10800FDF727FF08280FD101A8D7
:106BA00001F086FD58B1314601A801F08CFD30B1ED
:106BB000A5F800B0002402E0042400E00224022C26
:106BC00050D1CDF80490CDF80890CDF800906FF436
:106BD0004040381802D0B02844D134E001A801F078
:106BE00049F878BB9DF8040070B99DF8051059B9B3
:106BF0009DF8061041B99DF8071029B99DF80810B5
:106C000011B99DF80910E9B1FF2813D19DF80500CD
:106C1000FF280FD19DF80600FF280BD19DF8070033
:106C2000FF2807D19DF80800FF2803D19DF809002F
:106C3000FF2817D001983060BDF80800B08006200A
:106C4000288000240EE0684601F004F850B9BDF831
:106C5000000038B1504505D0BDF80000308002205A
:106C600028800024204678E7C823800070B588B0CB
:106C700005460C46002C0AD006A907A86FF4B6D02A
:106C80002C4E8DB1280504D0062008B070BD072019
:106C9000FBE7069805EB043100F18070814201D8D2
:106CA000356008E00620F0E70699604201EB00300D
:106CB00000F1807030604FF49E711F48FBF718FDA3
:106CC0001E4D0020287030681D4900EB043008601C
:106CD0006FF498D01B490870082204A93068FDF7AA
:106CE00083FE082810D018488169407A4FF48972D1
:106CF000CDE900200291154B15A24FF40041002070
:106D000006F44CD00920C0E708221D4904A8FBF76F
:106D10000BFC28B12046FEF781FF0028B5D104E026
:106D20002046FEF7FBFF0028AFD10120287000208D
:106D3000ABE70000CC238000D8328000C82380005D
:106D4000D0238000C9238000641F80003896000192
:106D5000523A353A25732C204C256420666C6173B9
:106D600068207374617465203078253032582C2087
:106D70006572726F72203078253038580D0A000025
:106D8000ACD5070010B5054C01212046FFF7B6FE33
:106D90002046BDE810400121FFF768BF00F00F0159
:106DA0002DE9FE4306460C461746FDF787F92C48A9
:106DB000007878B37FB374B340F6EC7084422BD87C
:106DC0004EB3A6F57F40FF3826D002A93046FDF726
:106DD000B9FE0546002D3DD008226946A5F1080000
:106DE000FDF702FE684601F063FCC8B1BDF808007B
:106DF0004FF40048A04221D13A4621462846FFF7E9
:106E0000BDF878B117A24146002005F4C7D700208D
:106E1000BDE8FE8302E0FFE70520F9E70120F7E780
:106E20000920F5E716A24146002005F4B7D73B46F6
:106E300022463146284600F081FBE9E71BA2414685
:106E4000002005F4ABD73B4622463146284600F0E9
:106E500075FBDDE73A4621463046FDF7B3F8D7E744
:106E6000C8238000523A353A6E7664735F70757449
:106E700028292073616D6520646174610D0A00002A
:106E8000523A353A6E7664735F70757428292072B1
:106E900065706C61636520646174612077697468F2
:106EA0002073616D65206C656E0D0A00523A353AAB
:106EB0006E7664735F7075742829207265706C61DA
:106EC0006365206461746120776974682064696611
:106ED00066206C656E0D0A0010B501210348FFF7AE
:106EE000C5FE002801D0FFF74DFF10BD00F00F01D7
:106EF0000220FEF7A1B800002DE9F04104460D463E
:106F000016461F4601F00AF8384600F031FC3146BB
:106F1000284600F073F9284600F0C0F900F014F894
:106F20000648074910F82420486962F3030064F317
:106F30004710486103480470BDE8F081589500018E
:106F4000101F8000C067003010B5FDF724DD012858
:106F5000FBD0BDE810401320FDF7149D10B5054986
:106F6000EB20086104490968C8600348FDF709DEA1
:106F700010BD0000101F8000641F80007CB5464CCF
:106F80002068000602D4206840061FD5206820F43F
:106F900080502060206820F400602060206840F06D
:106FA00040002060206840F480702060206820F05D
:106FB00040002060206840F080002060206840F49D
:106FC00000702060206820F080002060324840304F
:106FD0000168C1F3801121B130490A7842F00402FE
:106FE0000A702F4901600020012341B2002909DB0A
:106FF00001F01F0503FA05F24909890001F1E021BA
:10700000C1F88022401CC0B22228EED3002001F03B
:1070100085FB00252846FDF7DDF801462846FDF7EB
:10702000E3F80120FFF722FDFFF756FF642000F090
:107030005DF900234FF4FA7201211846FFF75CFF57
:1070400000F092F801F01DF80020FBF7EDFC0020A5
:1070500001F01CF813A003C8CDE90001206800F07E
:1070600007001DF8004011484443FEF7ADF91048F1
:1070700041684268521AA242FBD3FEF789F9FDF734
:107080003FDA00F01BFCFDF7EBFC002000F036F9C6
:10709000BDE87C40FCF79ABB04C500A00065003049
:1070A000A0FEFFFF4030101810200000A086010055
:1070B000001000E02DE9F04100242A4EDFF8A08006
:1070C000274F08F17C0806F150053868C0F30170BD
:1070D000012833D004EB84007179B37905EB80008B
:1070E000194401EBC103C26803EB011102EB8102F9
:1070F000C260026902EB41010161D8F80000C006DC
:1071000016D547F6122074F48BD604EB840005EBF9
:1071100080004FF47A6101614900C16002218171F0
:10712000418801F57A714180818801F57A71818009
:10713000641CE4B20C2CC8D3BDE8F08104EB8400DD
:1071400005EB80007179B379C2681944C1EB411134
:1071500002EB4102C260026911440161CDE7000007
:1071600050C500A0CC67003008B51A49192000F0BE
:10717000F1FC00F0FBFFFDF71DF918491648886285
:107180001748C8621749086000F0FAFEFFF792FF3F
:1071900069F4ACD0144801781048503071F4B2D47E
:1071A000002069F46DD011494FF47A7008801149BC
:1071B0000F480860002000906A4601214CF215003B
:1071C000FFF7EEFDFDF790FABDE808400A4872F4BB
:1071D000E7940000D1370600415C8000CC670030A6
:1071E000875C80006C078000C06700304624800008
:1071F00045C30700A8268000CD460001FEB50D4618
:1072000002264FF4FA7102911F4A116821F0405191
:1072100001280BD0106808431060002D05D002AA89
:1072200031464CF20700FFF7BBFDFEBD0295164844
:107230003038036843F08003036041F080501060F1
:1072400011482838016841F0800101600F484088EA
:107250004FF47A7148430EA106C9CDE900120A49DC
:107260004C39096801F007011DF80140444300282A
:10727000D3D0FEF7A9F80848426843689B1AA34296
:10728000FBD3FEF785F8C8E750C500A0C067003003
:107290004030101810200000001000E010B5124916
:1072A000096801280AD0022811D0FDF774DB0128F3
:1072B000FBD0BDE810400620FDF7649BFDF76BDBBB
:1072C0000128FBD0BDE810400720FDF75B9BFDF7D0
:1072D00062DB0128FBD00820FDF754DBBDE810403D
:1072E00046F2905074F49C9550C500A0642801D3D8
:1072F0000149488070470000C06700302DE9F04F19
:1073000087B0182101A8FBF7F3F9EFF311853C488A
:1073100001783C480068C0F30220401C01228240F2
:107320008818C0B280F31188FDF7CCFE002860D128
:10733000DFF8D4A0DAF80060DFF8CCB00BF1380B3E
:10734000DBF8000000F07047DFF8C090D9F800814A
:1073500001A800F00FFC98BBBDF8040080B372F4E4
:10736000EBD208B1FDF702FA00F07AF901A9052085
:10737000FDF7ACFC51EC100B01F0B6FD244C206382
:1073800000F136019A2902D201F094F802E0607B04
:10739000401C607301A90620FDF798FC9FED1D1BA2
:1073A00051EC100B53EC112B01F054FE01F09CFD3D
:1073B0006063A0F1AB01E52903D201F05FF903E0BE
:1073C00005E0607B401C6073A06B401CA063C9F8A3
:1073D0000081CAF80060EFF31080012181F310886A
:1073E000DBF8001021F070413943CBF8001080F336
:1073F0001088E8B280F3118807B0BDE8F08F000074
:1074000002E400E00CED00E008C500A000E000A0F0
:10741000CC670030000000000000594070B5012525
:107420000024074E56F8241019B1096809B188479D
:1074300020B1641C102CF5D3284670BD0025FBE755
:107440008C6F00300249014808607047593700309E
:10745000A026800010B505480078002802D0FDF76E
:107460004CDD10BDFDF733DD10BD00003869003084
:1074700070B506460D461446FCF7A8F9102C02D24A
:10748000681E022801D9102070BD044840F824600D
:10749000204480F84050204670BD00008C6F0030C2
:1074A0002DE9FC4700250024DFF85080DFF850A0CC
:1074B000144EE946D8F8340205EB106512A003C853
:1074C000CDE90001DAF8000000F0070019F800002B
:1074D00000EB80004700FDF777FF70687168091ABC
:1074E000B942FBD3FDF754FF641C0A2CE2DB0A20EF
:1074F000B5FBF0F0C0B2BDE8FC87000000E000A0E2
:1075000004C500A0001000E040301018102000005A
:1075100070B504460D46164628682168002B03D036
:107520003246FDF761FA02E03246FEF74DF8286870
:107530003044286020683044206070BD2DE9F0435D
:1075400087B00F469046994600250695A0F108069B
:107550000324022206A93046FDF760FA022803D070
:10756000641E14F0FF04F4D1022812D01B48816974
:10757000407A40F26932CDE900200291184B19A2FD
:107580004FF40041002005F409D4092007B0BDE8FC
:10759000F083082204A93046FDF726FABDF8120050
:1075A0006EF40AD1C0B21B4A516871B1BDF81230F5
:1075B0000830194408445060384600F097FE4A46A7
:1075C00041463846FCF7FEFCE0E7117ABDF8123080
:1075D0001944084450601572EEE70000641F8000F3
:1075E0005C960001523A353A25732C204C256420D4
:1075F000666C61736820737461746520307825301F
:1076000032582C206572726F7220307825303858CD
:107610000D0A0000D8328000104A1049483228284C
:1076200008DD086840F4C0500860106840F47060DD
:1076300010607047002808DD086820F4C05008601A
:10764000106840F4706010607047086840F4C050E3
:107650000860106840F47060106070470CC500A0AE
:1076600010B571F4F9D2022804D0BDE81040012011
:1076700072F4BC9210BD000010B53C480168C1F323
:107680008011002904D00168C1F3C01100296CD118
:10769000016841F400710160016841F080010160FE
:1076A000016821F400710160016841F0400101604E
:1076B000016821F4807101602C4960310A6822F070
:1076C0004C6242F04C620A60091D0A6822F04C626A
:1076D00042F008620A6025497C310A68C2F3400220
:1076E000002AFAD1214B0A2280331A600A6842F03C
:1076F00001020A600A68C2F34002002AFAD1016856
:1077000021F400610160016821F480510160016889
:1077100041F400610160016841F480510160012081
:1077200074F46DD2EFF31081012080F310880F48BC
:107730003C30026822F48022026081F31088EFF36B
:107740001081012282F31088026822F480320260E4
:1077500081F31088EFF31081012282F31088026810
:1077600022F40032026081F3108810BD04C500A02D
:1077700011B583B00020029002210191BDF80C20C8
:107780004CF2B104002A03D003AA2046FFF708FBFD
:1077900002AA01A92046FFF7CDF978B14FF4802065
:1077A0000B490A680B4B1A4002430A6008680A49F1
:1077B000C0F388200880FDF797DA1FBD9DF8080008
:1077C0009DF8091040EA0120044901EA8020E7E71A
:1077D00038C500A0FF03F8FFDC670030FFFF07009B
:1077E00010B500290FD070B16AB1EFF310830124F6
:1077F00084F310880260416000218160C16083F3DE
:107800001088012010BD002010BD00280AD0EFF321
:107810001083012181F310888168C2688A4203D8ED
:10782000881A04E0002070470068801A084483F337
:10783000108870472DE9F04705468A464FF000084A
:10784000EFF31089012080F31088AF68EE68002DF7
:107850002ED0696861B3BAF1000F29D0B74204D3C2
:10786000BC1BA2420DD814460BE02868831BDC1910
:10787000A24200D814463219824202D3A219A2EBC6
:107880000008A4EB080231445046FAF798FE0AEBD0
:107890000400A0EB080042466968FAF790FE301930
:1078A0002968814202D8B84200D9401AE86000E055
:1078B000002489F310882046BDE8F0872DE9F04FB9
:1078C0002DED028B85B00026B14600275748006891
:1078D000C0F30060564C574D002818D0FEF7D6FC78
:1078E000B0F5967F7DD3206820B168685249C043C7
:1078F000884276D3EFF310800490012080F3108843
:107900004FF0000A00200390206818B10BE04FF000
:107910000109EFE701264948D0F800A04AF080713C
:10792000016028680390B9F1000F34D04FF47A78E1
:107930003E483830C0F800803C4C206840F0007071
:107940002060FEF7A3FC4045FBD1206840F080702A
:1079500020603BA003C8CDE90101344854380068D9
:1079600001A900F00700095C642011FB00F1DFF8B9
:10797000CCC0DCF8003043F08070CCF800002C68FC
:1079800044F00100286068686A68121A8A42FBD3D2
:107990002C60CCF8003000244EB1286820F00100A3
:1079A000286000206860286840F001002860FEF729
:1079B0006DFC8046D5F804B0FEF768FCA8EB00002B
:1079C0006428F9D96868A0EB0B000744641CA4B2D2
:1079D000002CE1D026B1039828601848C0F800A018
:1079E00000E01EE0B9F1000F04D01048016821F05A
:1079F00080710160049880F31088384601F0D1FA54
:107A000041EC180B104864210068A0FB010101F053
:107A1000DBFA53EC182B01F00FF901F095FA0B4942
:107A2000886005B0BDEC028BBDE8F08F58C500A0A2
:107A300040670030001000E000350C00FCED00E075
:107A400040301018102000000865003060670030DA
:107A50000249014808607047995B8000000580007A
:107A60000749064808600849064808600849074869
:107A70000860094907480860FCF722BB7D41000106
:107A800080248000375B800068248000635B800076
:107A9000802380004D5B80009C2380007FB5002008
:107AA00000900190029003900024124D124E05EBBD
:107AB0000410D0E905230169C0698DE80E00039028
:107AC0000198B04212D20D490398884205D1DDE9F0
:107AD00001020099FAF773FD08E0084903981C3188
