:020000040100F9
:10200000000084001921000121210001694A80009B
:10201000F7210001F5210001F92100010000000075
:10202000000000000000000000000000114C8000D3
:102030002B21000100000000B520000185290001CE
:10204000DFF810D000F0C8FB00F008F900480047A6
:1020500019A10001000084002C4B19680868B0E841
:10206000F04F80F30988BFF36F8F4FF0000080F3CB
:10207000118870470000000008480068006880F37D
:1020800008884FF0000080F3148862B661B6BFF391
:102090004F8FBFF36F8F00DF00BF00BF08ED00E080
:1020A000DFF80C00016841F470010160704700BF67
:1020B00088ED00E0EFF30980BFF36F8F134B1A68D0
:1020C0001EF0100F08BF20ED108A20E9F04F1060BD
:1020D00009B44FF0300080F31188BFF34F8FBFF386
:1020E0006F8F0BF037F84FF0000080F3118809BCB8
:1020F00019680868B0E8F04F1EF0100F08BFB0EC88
:10210000108A80F30988BFF36F8F7047784480008E
:10211000EFF30580704700000648804706480047F7
:10212000FEE7FEE7FEE7FEE7FEE7FEE7FEE7FEE787
:10213000FEE70000312A000149A100012DE9F05F0E
:102140000546002092469B46884606468146402426
:102150001BE0284641464746224600F08DFA53468A
:102160005A46C01A914110D311461846224600F033
:1021700074FA2D1A67EB01084F4622460120002110
:1021800000F06BFA17EB00094E41201EA4F1010488
:10219000DFDC484631462A464346BDE8F09F40EA28
:1021A00001039B0703D009E008C9121F08C0042AD5
:1021B000FAD203E011F8013B00F8013B521EF9D2BC
:1021C0007047D2B201E000F8012B491EFBD27047E4
:1021D0000022F6E710B513460A4604461946FFF7F3
:1021E000F0FF204610BD421C10F8011B0029FBD156
:1021F000801A7047FEE7FEE7FEE7704770477047BA
:1022000058585247010000001555000000200001F9
:10221000002000016EED52490101000000000000A5
:1022200000000000000000000000000000000000AE
:10223000000000000000000000000000000000009E
:1022400030B504460020034600E05B1C934203D2F5
:10225000E05CCD5C401BF8D030BD000070B5054C93
:10226000054D03E0206820448047241DAC42F9D18D
:1022700070BD000078E100017CE100012DE9FE4F16
:10228000804681EA0300C00F0C46009021F0004117
:1022900023F00045B8EB0200A94105D24046214693
:1022A00090461C460B46024623F00040104347D0A0
:1022B000270DC7F30A00C3F30A510290401A019098
:1022C00040286BDAC3F3130040F4801B0098924659
:1022D00020B10023D2EB030A63EB0B0B01985946A4
:1022E000C0F14002504600F0B8F906460D4650468F
:1022F0005946019A00F0D0F910EB08006141002422
:1023000087EA115284EAE7731A4340D0009A62B315
:10231000019A012A4FEA075215DC001B61EB02010A
:102320004FF0004202EA0752CDE90042001C41F59D
:10233000801132462B4600F0D0F903B0BDE8F08F93
:1023400040462146F9E7001B61EB0201001C41F504
:10235000801300185B412018A2F5001747EB03011A
:1023600040EAD570B6196D4111E06D084FEA3606A6
:1023700045EAC0754FEA0752001B61EB0201001CE1
:1023800041F5801149084FEA3000001951413246A9
:102390002B4603B0BDE8F04F00F090B90098012241
:1023A00040000023D0EB020263EBE073009821466B
:1023B0004FEAE074B8EB000061EB0401E9E783F059
:1023C00000435BE781F0004158E72DE9FE4F81EAC9
:1023D000030404F0004421F0004100944FF0000B8E
:1023E00023F0004350EA01045ED052EA03045BD0BC
:1023F000C3F30A54C1F30A552C44A4F2F3340194F4
:10240000A0FB0254C1F3130141F48011C3F3130381
:1024100043F4801301FB024400FB034E840A970A35
:1024200044EA815447EA8357A4FB076802958D0A62
:1024300005FB07854FEA932C04FB0C542705029DEE
:102440004FEA065847EA1637B5EB08056EEB070C5E
:10245000870E920E47EA811742EA8312A7FB020118
:10246000B6EB0B0164EB00042B0D43EA0C335E1852
:1024700044EB1C50DA465146E7FB0201C5F3130456
:102480004FEA0B3343EA14534FEA0432019C43EA08
:102490000603A4F10C040294009CCDE900B400F002
:1024A0001CF903B0BDE8F08F00200146F9E72DE9E3
:1024B000F04D81EA030404F0004B21F0004514467E
:1024C0004FF0000A23F0004150EA050220D054EA00
:1024D00001021DD0C5F30A570246C5F31303C1F329
:1024E0001300C1F30A5640F4801543F48013A7EBA0
:1024F0000608101BD64608F2FD3873EB050002D320
:1025000008F1010801E092185B41B8F1000F03DA0D
:1025100000200146BDE8F08D00204FF480110646F2
:1025200084460EE0171B73EB050705D3121B63EB04
:10253000050306434CEA010C49084FEA30009218A3
:102540005B4150EA0107EDD152EA030012D082EA62
:10255000040083EA0501084305D0101BAB4106D2F5
:102560000122002306E000224FF0004302E06FF05A
:10257000010253101AEB06004CEB085110EB0A0055
:1025800041EB0B01BDE8F04D00F098B80EB540F2FC
:10259000334102910021CDE900110A460B4600F0BB
:1025A0009CF803B000BD0EB540F233420292002207
:1025B000CDE90022134600F090F803B000BD70B5DD
:1025C000C1F30A5201F000450024C1F3130140F2A7
:1025D000FF3341F480119A4201DA002070BD40F2CD
:1025E00033439A42A2F2334203DC524200F044F8F1
:1025F00000E090402C43F1D0404270BDC1F30A523C
:1026000010B5C1F3130140F2FF3341F480119A4237
:1026100001DA002010BD40F233439A42A2F2334265
:1026200003DC524200F028F810BD904010BD30B5D8
:102630000B46014600202022012409E021FA02F580
:102640009D4205D303FA02F5491B04FA02F528441A
:10265000151EA2F10102F1DC30BD202A04DB203A74
:1026600000FA02F1002070479140C2F1200320FAE5
:1026700003F3194390407047202A04DB203A21FAE3
:1026800002F00021704721FA02F3D040C2F120028B
:102690009140084319467047202A06DBCB17203AA1
:1026A00041FA02F043EAE07306E041FA02F3D04057
:1026B000C2F12002914008431946704710B5141E1C
:1026C00073F1000408DA401C41F1000192185B41EB
:1026D0001A4301D120F0010010BD2DE9F04D9246C2
:1026E0009B4611B1B1FA81F202E0B0FA80F22032D9
:1026F0009046FFF7B2FF04460F4640EA0A0041EA5F
:102700000B0153465A46084313D0114653EA0100C1
:1027100019D0C8F140025046FFF7AEFF05460E46FD
:10272000504659464246FFF798FF084305D001201E
:1027300004E020463946BDE8F08D0020054346EA16
:10274000E0762C4337430A986305E40AA0EB0800BF
:102750000022FD0A44EA47540A3002D5002001460F
:10276000E9E7010510196941DDE9084500196941EA
:10277000BDE8F04DA2E7C1F30A52C1F3130140F2E4
:10278000FF3341F480119A4202DA0020014670477B
:1027900040F233439A42A2F2334202DC5242FFF744
:1027A0006BBFFFF75ABF000030B5041E71F1000483
:1027B00004DB4FF00044404264EB0101141E73F14E
:1027C000000405DB1C464FF00043524263EB040358
:1027D000994208BF904230BD064C074D06E0E068C4
:1027E00040F0010394E8070098471034AC42F6D358
:1027F000FFF72AFC28E1000178E1000170B58C1890
:1028000010F8015B15F0070301D110F8013B2A1104
:1028100006D110F8012B03E010F8016B01F8016BF1
:102820005B1EF9D12B0705D40023521E0DD401F8ED
:10283000013BFAE710F8013BCB1A921C03E013F8B6
:10284000015B01F8015B521EF9D5A142D8D30020EB
:1028500070BD000010B51E480068002800D08047F9
:102860001C4900200870811E1B4801601B494FF065
:10287000007008601A4CD4F8C002800704D4F42217
:1028800018A11DA004F468F32A480168D4F8C40212
:1028900061F31D3040F00100C4F8C40202F4C4F436
:1028A00000214FF03040C1608161C1174161016278
:1028B00002F476F408484038016821F48001016090
:1028C0001D480068002802D0BDE81040004710BD38
:1028D000602480009C48800044C500A080E200E0A5
:1028E00000E000A0727769705F736C6565705F636C
:1028F0006F6D6D6F6E2E63004D43555F5355422DC6
:102900003E424C455F44534C4545505F434F525205
:102910005F454E2026204D43555F5355425F424C44
:10292000455F44534C4545505F434F52525F4857B3
:102930005F454E00542480006424800000214FF045
:102940003040C1608161C1174161016206490220C6
:1029500004220A60BFF34F8FBFF36F8F0860BFF38D
:102960004F8FBFF36F8F704780E100E00449022072
:10297000C1F800010860BFF34F8FBFF36F8F70473E
:1029800080E100E010B5302080F31188BFF34F8F55
:10299000BFF36F8F07480078012806D10BF0CCF801
:1029A00018B105494FF080500860002080F311886D
:1029B00010BD00005044800004ED00E002490968A9
:1029C00001F007010170704704C500A030B406286B
:1029D00021D212490A6802F00702824212D00A6824
:1029E0000F4B1A400F4C22430A6000BF00BF00BFCC
:1029F00000BF0A681A400C4B024333F8203042EA09
:102A000083420A600849183951F820000749486094
:102A100030BC76F4EF9230BC7047000004C500A0D3
:102A2000F8FFE3FF05000800F8DE00010041800028
:102A30000248016841F470010160704788ED00E0D0
:102A400002480068001D1EF407960000CC43800079
:102A500002484068001D1EF4FF950000CC43800032
:102A60000FB4054B10B503A9044A029800F028F9E9
:102A700010BC5DF814FB0000ED580001E443800039
:102A80000FB41CB50246002007AC00290BD0491E2C
:102A9000CDE90021054B6A462146069800F010F961
:102AA000009A002111701CBC5DF814FBEF3300018B
:102AB0000FB4084B10B504A902AA039800F000F95E
:102AC000044602A9002000F09DFC204610BC5DF8E1
:102AD00014FB0000053400017CB5044600201D46AF
:102AE000164600290BD0491ECDE90041044B6A4629
:102AF0002946304600F0E4F8009A002111707CBDB0
:102B0000EF330001002804DB00F1E02090F800041E
:102B1000704700F00F0000F1E02090F8140D7047AE
:102B200002E008C8121F08C1002AFAD1704700202D
:102B300001E001C1121F002AFBD170472DE9FF5FA0
:102B400082B00021DDE90430020DDDF840B003431E
:102B500018D044F61050A2F2FF32424315141198D7
:102B600001281FD0A5EB0B00401C5FEA000A4FF0C4
:102B700000064E4FDFF83891B046504615D5CAF1E1
:102B8000000413E0119801244AA3012801D16FEA3F
:102B90000B010298119AC0E90031C0E9024206B067
:102BA000BDE8F09FCBF10000DFE704460021404A7A
:102BB000491842EB0450CDE9001012E0E00707D0BD
:102BC00032463B4640464946FFF7FFFB8046894672
:102BD00032463B4610461946FFF7F7FB06460F46BE
:102BE0006410002CEAD1DDE90401DDE90023BAF12B
:102BF000000F06DAFFF7E9FB42464B46FFF7E5FB1D
:102C000005E0FFF754FC42464B46FFF750FC0446F4
:102C10000E460022284BFFF7C7FD03D84FF0FF30C8
:102C2000014607E00022254B20463146FFF726FBF0
:102C3000FFF7A1FD102409E0002C0ADB0A22002383
:102C4000FFF77CFA039B30321A55641E50EA0102EA
:102C5000F2D1641C039AC4F111031444119A012A9D
:102C600003D0012208430DD10AE0084304D000201C
:102C70004FF0110B119072E7A3EB0B056D1E0DE0E9
:102C80005B4504DD4FF0000205F1010504E003DAC5
:102C90004FF00002A5F10105002AECD0029811992D
:102CA000C0E90231C0E9004579E7000000001440A6
:102CB0000000F03F300000000000F0430000E03F63
:102CC0002DE9FF4F95B09B468946064600250FE249
:102CD000252877D100242746F84A0121059400E0F1
:102CE000044316F8013F203B01FA03F01042F7D1EC
:102CF00030782A2811D06FF02F033078A0F13002FD
:102D0000092A16D8059A44F0020402EB820203EB6A
:102D100042021044761C0590EFE759F8042B059207
:102D2000002A03DA504244F40054059044F00204AF
:102D3000761C30782E2816D116F8010F44F00404C2
:102D40002A280DD06FF02F023078A0F13003092B24
:102D500009D807EB870302EB4303C718761CF3E798
:102D600059F8047B761C30786C280FD006DC4C2890
:102D700017D068280DD06A2814D104E0742810D028
:102D80007A280FD10DE044F400140AE044F48014D2
:102D900001E044F440147278824202D104F58014B8
:102DA000761C761C307866280BD013DC582877D038
:102DB00009DC002875D04528F6D04628F4D04728ED
:102DC0001AD19DE118E0632835D0642879D06528B0
:102DD00012D195E1702873D008DC6728F1D06928FA
:102DE0006FD06E280DD06F2806D1B5E073282CD097
:102DF000752875D0782874D05A46179990476D1C5D
:102E000075E1C4F30250022809D003280DD0D9F887
:102E1000001004280DD00D6009F1040967E1D9F80C
:102E20000010EA17C1E90052F6E7D9F800100D804A
:102E3000F2E70D70F0E719F8041B8DF80010002080
:102E40008DF80100EA46012003E059F804AB4FF089
:102E5000FF3061074FF0000102D40DE008F10101DD
:102E60008846B9420FDA8045F8DB1AF808100029C5
:102E7000F4D108E008F1010188468142FADB1AF832
:102E800008100029F6D105985B46A0EB08072146FB
:102E90003846179A00F094FA284400EB080507E03A
:102EA0004DE029E10DE01AF8010B5A4617999047B9
:102EB000B8F10108F7D25B4621463846179A13E16C
:102EC00042E00A220092C4F302524FF0000A022AA2
:102ED00008D059F804CB032A4FEAEC710AD00DE070
:102EE00029E02AE009F1070121F00702F2E802C116
:102EF000914609E00FFA8CFC4FEAEC71042A03D1E9
:102F00004FFA8CFC4FEAEC71002907DA0A460021DF
:102F1000DCF1000C61EB02012D2202E0220504D558
:102F20002B228DF80420012203E0E20701D02022A9
:102F3000F7E7904659E00A2102E010220DE0102147
:102F40004FF0000A00910BE010224FF0000A44F00D
:102F500004040827009203E008224FF0000A0092C0
:102F6000C4F30252022A05D059F804CB0021032AE7
:102F700008D009E009F1070121F00702F2E802C1D7
:102F8000914605E01FFA8CFC042A01D10CF0FF0CDD
:102F90004FF00008220728D5702806D0009B83F048
:102FA000100353EA0A0305D00EE040228DF80420F6
:102FB000012208E05CEA010206D030228DF80420EC
:102FC0008DF8050002229046009B83F0080353EA27
:102FD0000A030AD15CEA010201D1620705D5302259
:102FE0008DF804204FF001087F1E582804D034A02B
:102FF00003900EA802900DE036A0F9E75346604614
:10300000009AFFF79BF884460398825C0298401E62
:10301000029002705CEA0100F0D1029806A9081A39
:1030200000F1200A600702D524F4803400E0012773
:10303000574502DDA7EB0A0000E0002000EB0A0183
:10304000009005984144401A0590E00306D45B4681
:103050002146179A059800F0B3F90544002706E0C9
:1030600001A85A46C05D179990476D1C7F1C4745C3
:10307000F6DBE0030CD55B462146179A059800F075
:103080009FF9054404E030205A46179990476D1C7B
:103090000099481E00900029F5DC08E0029802998A
:1030A0005A460078491C0291179990476D1CBAF155
:1030B0000001AAF1010AF1DC65E100000928010024
:1030C000303132333435363738396162636465669E
:1030D0000000000030313233343536373839414260
:1030E000434445460000000000F058F90544761CB2
:1030F000307800287FF4ECAD19B02846BDE8F08F99
:10310000620700D4062709F1070222F0070CFCE849
:103110000223E14603F000485FEA080C02D00FF2F8
:10312000702C0DE05FEA045C02D50FF2682C07E01A
:103130005FEAC47C02D00FF2602C01E0AFF2700CA9
:103140004FF0FF3823F00043CDF850C065280CD075
:1031500006DC452809D046281DD047283DD13DE052
:10316000662818D067287ED138E00021112F01DBB6
:10317000112000E0781CCDE9000106A90EA8FFF798
:10318000DDFCDDE90F010E9A03910021009207F1A9
:10319000010A04914DE04FF000400097CDE9011085
:1031A00006A90EA8FFF7CAFCDDE90F0203920E9BE9
:1031B00011990022DDF80CA00093049211B9791C3A
:1031C00000EB010AB7EB0A0004D4C0F1FF3007F1AD
:1031D000010A0490AAEB0700019044E0012F00DAF5
:1031E00001270021112F01DD112000E03846CDE933
:1031F000000106A90EA8FFF7A1FCDDE90F010E9A58
:103200000391002104910092BA4621070CD403993E
:10321000514500DA8A46BAF1010F05DD009AAAF19C
:103220000101515C302908D0B84202DA10F1040FD4
:1032300006DA0121CDE9011015E0AAF10101E9E763
:10324000002805DC049901440491AAEB000102E086
:10325000411C514500DD8A460499401A401C0190EA
:103260004FF000400290200704D40198504501DB44
:10327000CDF8048000208DF84F0002980DF14F0723
:10328000B0F1004F25D02B200E9002984FF002088D
:1032900000280CDA404202902D200E9007E00A210F
:1032A0000298FFF7C4F93031029007F8011DB8F118
:1032B0000001A8F10108F2DC02980028EFD1791E84
:1032C0000E980870307800F0200040F0450007F8B4
:1032D000020D12A8C01B00F107081498007800B175
:1032E000012000EB0A01019801EBE07105984144CF
:1032F000401A401E0590E00306D45B462146179A0B
:10330000059800F05DF805441498007818B15A4605
:10331000179990476D1CE00324D55B462146179A08
:10332000059800F04DF805441CE00498002807DBE0
:10333000DDE90301884203DD0098405C179901E054
:10334000179930205A469047049805F10105401C12
:1033500004900198401E019004D12E205A461799DE
:1033600090476D1CBAF10001AAF1010ADDDC05E00D
:1033700017F8010B5A46179990476D1CB8F10001D8
:10338000A8F10108F4DC5B462146179A0598ABE6E4
:103390002D0000002B000000200000002DE9F0416E
:1033A000044600251E461746880404D405E0394625
:1033B0002020B0476D1C641EF9D52846BDE8F08179
:1033C0002DE9F041044600251E469046C80301D56C
:1033D000302700E02027880404D505E04146384620
:1033E000B0476D1C641EF9D52846BDE8F0814A68D7
:1033F000002A06D00A68531C0B6010704868401EF3
:10340000486070470A68531C0B60107070470000DA
:103410002DE9F05F0746894693464FEA5B04A246D2
:103420004D465F4EDFF87C81EFF31080012181F380
:103430001088D8F8A41221F02001C8F8A41280F353
:103440001088EFF31080012181F31088D8F8A012C2
:1034500021F02001C8F8A01280F31088306820F015
:1034600080403060504830603F20D8F8001160F351
:103470000501C8F80011306820F4601040EAC74028
:103480003060306820F4E02040EA07403060052FCB
:1034900003D1306840F400403060062F03D130681B
:1034A00040F480403060306840F400503060306854
:1034B00020F060503060306820F00F0040F00300D2
:1034C0003060EFF31080012181F31088344A3832E4
:1034D000116821F0E04141F08041116080F31088D3
:1034E000306840F08040306001E0D8F80000D8F843
:1034F0000401C0F300200028F7D1EFF31080012170
:1035000081F31088116841F00041116080F3108848
:1035100034E000204FF47A711AE0884217D93068FD
:1035200020F080403060306840F00040306030680B
:1035300020F00040306006F06FF81C480168491C1C
:10354000016054464D46052078F459D36CE7401C81
:10355000D8F80421C2F30022002ADED0D8F80401F2
:1035600000F07F01A14200D92146002003E0D8F8F5
:10357000002004C5401C8842F9D3641A002CC8D12D
:103580005FEACB7008D0D8F80401C0F3002000280F
:10359000F9D0D8F800002880BDE8F05F06F03CB80C
:1035A00008C500A000E000A00A070807444A800000
:1035B0002DE9F04107460E464FF000080024274D44
:1035C0000BE004EBC40005EB8000801C07223946A9
:1035D000FEF736FE40B1641CE4B22878A042F0D871
:1035E000B8F1000F18D102E04FF00108F8E7287891
:1035F0000A21B0FBF1F201FB12040A2801D2401C9F
:10360000287004EBC40105EB81003968C0F8021092
:10361000B988C180B97901722B7811A210210020DC
:1036200003F49CF4307800070BD504EBC40005EBE1
:10363000800006F14601BDE8F0410A301C22FEF789
:10364000AEBD04EBC40005EB800006F12A01BDE825
:10365000F0410A301C22FEF7A2BD0000C62B8100FB
:10366000523A313A616464206C746B206974656D00
:103670002C206E756D203D2025640A000449896B5D
:10368000084004490A78104300220A70704700007D
:10369000002001A084468000104A114900280EDC59
:1036A0000868C0F34120012808D0506C401C5064C9
:1036B000086820F4C06040F40070086070470A2871
:1036C000FCDB086810F4C06FF8D0106C401C10646C
:1036D000086820F4C060086070470000F44680006D
:1036E0000CC500A006460F46154672B63846FEF7D2
:1036F0007AFD402801D9402002E03846FEF773FDEC
:1037000080463046FEF76FFD402801D9402002E098
:103710003046FEF768FD04469C211048FEF758FD30
:10372000424639460D48FEF73AFD0C4822463146DE
:103730005C30FEF734FD09484FF0AA31016445645E
:103740004FF0BB3181644FF0CC3101654FF0DD317A
:103750008165002000F004F8FEE700009878800002
:1037600030B5ADF20C4D04464FF4806103A8FEF76E
:103770002FFD184D202085F83F0085F89B003CB1B7
:103780002846012C436DC26C09D0022C0CD00FE0EE
:10379000104A11A15C3203A8FFF78AF908E011A1D1
:1037A00003A8FFF785F903E016A103A8FFF780F946
:1037B00003A90BA2686CCDE90121009018A3054A6A
:1037C00018A1002000F0DAFC00F0A4FC0DF20C4D72
:1037D00030BD0000987880005B4552524F525D200A
:1037E000257300005B5741524E494E475D205061A2
:1037F00072616D303A25642C506172616D313A25E9
:10380000640000005B504152414D5D205061726187
:103810006D303A25642C506172616D313A25640037
:10382000000000006170705F6173736572742E63D5
:1038300000000000014878F41F900000E843800079
:1038400006460F4690461D4672B64046FEF7CBFC34
:10385000402801D9402002E04046FEF7C4FC04465F
:103860009C210D48FEF7B4FC224641460A48FEF76B
:1038700096FC09484FF05531016445644FF06631BC
:103880008164C6644FF0773101654765C94381653E
:103890000220FFF765FFFEE7987880002DE9F041F0
:1038A00006460F4690461D464046FEF79CFC4028C3
:1038B00001D9402002E04046FEF795FC04469C21D9
:1038C0000D48FEF785FC224641460B48FEF767FC93
:1038D00009484FF011310164456449008164C664B0
:1038E0004FF03331016547654FF044318165BDE8E4
:1038F000F0410120FFF734BF987880002DE9F041B6
:10390000014600291BD000240F4E0E4A357814E0E2
:1039100002EB04100F780378BB420CD14B6840686F
:10392000034208D0707808B900F0C8FB2046BDE813
:10393000F04100F0EBBA641CE4B2AC42E8D3BDE85D
:10394000F081000040798000F44380007CB505469A
:103950000E46002D01D0002418E005207CBD05EBAB
:10396000041041680091017A8DF80410417A8DF8B5
:10397000051007218DF80610C268007800236946FB
:1039800000F048F80028E9D1641CE4B2B442E6D360
:1039900000207CBD10B50C46062833D2DFE800F0CD
:1039A000030303101E27184951F830002104090CA5
:1039B00004D018B1214604F07FF81FE0042010BDA8
:1039C0002004000C03D0A1B2104804F075F8200CBC
:1039D00014D0210C0E4804F06FF80FE014F0FF0F24
:1039E00003D0204603F05EFE08E0042010BD14F072
:1039F000FF0F05D02146002004F0D0F8002010BDB4
:103A0000042010BD062010BD24DF0001000001A02D
:103A1000001001A02DE9F05F05460C46904699463E
:103A200027680026052D13D039462846FFF7B2FF38
:103A30002146284600F0ACF800280AD1042D0AD00F
:103A4000032D2ED04FF0100B2807060E002491E016
:103A50000620BDE8F09F4FF0080B2079042806D01F
:103A6000052809D006280DD0072815D110E000211F
:103A7000384601F4F2F20FE040F20111384601F449
:103A8000ECF209E04FF00111384601F4E6F203E0F0
:103A90003B49384601F4E1F24FF0007075F428D349
:103AA000D4E74FF0200BD1E7F80760D0052D65D2A1
:103AB000DFE805F0030303254600324800EBC500AC
:103AC00090F904A0BAF1000F17D0EFF31081012094
:103AD00080F31088A01900EB40022B4800EB820015
:103AE000C0F80480C0F8089081F31088504618F49C
:103AF00093D3504618F4AED339E00420A9E7EFF38E
:103B00001082012080F31088A0191F4B00EB4000A9
:103B100003EB8001C1F80480C1F80890032103F889
:103B2000201082F31088062018F476D3062018F4AB
:103B300091D3072018F470D3072018F48BD316E024
:103B4000EFF31081012080F31088A01900EB4002F0
:103B50000E4800EB8200C0F80480C0F8089081F3A2
:103B60001088122018F458D3122018F473D37F0849
:103B7000641CE4B25C4597D300206AE7062068E73E
:103B80000101010024DF000140758000C076800043
:103B900070B58EB005460C46564901F164004DC81B
:103BA000CDE90A02CDE90C36D1E91E23486F06AEF5
:103BB000D1F880100DC6099114224E49843101A814
:103BC000FEF7EDFAACB14C49062008F0B3FA4B49C8
:103BD000072008F0AFFA4A49122008F0ABFA45492D
:103BE000444A2C31062D7CD2DFE805F0060606217A
:103BF000415905200EB070BD207931F810000B90AE
:103C0000607932F810000C90A0790D9020680A902D
:103C10003848143050F8350021880904090C04D0C4
:103C200018B10AA903F096FF59E00420E2E72079D1
:103C300031F810000B90607932F810000C90A079E8
:103C40000D9020680A9020680104090C05D080B20C
:103C50000A900AA92B4803F07DFF2068010C3ED092
:103C6000000C0A900AA9284803F074FF37E0207975
:103C700001EB4000408A0790607902EB4000C08869
:103C80000890A079099020680690207810F0FF0F26
:103C900003D006A803F058FD21E00420AAE720790C
:103CA000031F032B01D80720A4E702281AD0012004
:103CB0000290207901EB4000808C0390607902EB48
:103CC000400080890490A0790590206801902078B8
:103CD00010F0FF0F09D001A9002003F0B7FF00206A
:103CE00088E704E002200290E3E7042082E7062050
:103CF00080E7000010DF0001434C80003D4C800055
:103D0000394C8000000001A0001001A010B502464F
:103D10000C460020062A26D2DFE802F00303030B3C
:103D20001A1F114850F83200A1B2BDE8104015F436
:103D3000CE962104090C03D0A1B20C4815F4C7D6C5
:103D4000210C10D0210CBDE81040094815F4BF9695
:103D5000A0B2BDE8104013F48D96A1B2BDE81040AA
:103D6000002003F076BF10BD24DF0001000001A099
:103D7000001001A0002803D002490860012070470C
:103D8000002070470044800070B505460024091FDC
:103D9000062917D2DFE801F003070C111315284696
:103DA00000F0A4F80EE00124284600F09FF809E096
:103DB0000224284600F09AF804E0032402E00424D8
:103DC00000E00524034A214628461268BDE87040F9
:103DD00010470000004480002DE9F04104462046D1
:103DE00000F0AEF801462E4800230826025D00F1DF
:103DF0000A0700F11405AAB1052A33D0082A2AD1EE
:103E0000092945D0082926D1295D491CC9B229555F
:103E1000142920D32B5506552046BDE8F041082132
:103E2000FFF7B2BF052913D0042916D0072914D0F3
:103E3000082910D1295D491CC9B2295514290AD372
:103E40002B5506552046BDE8F0410821FFF79CBFE1
:103E50003B5505210155BDE8F0812046BDE8F04104
:103E6000FFF792BF05290CD0395D491CC9B23955FD
:103E70003229F0D303552046BDE8F0410521FFF774
:103E800083BF03552046BDE8F0410621FFF77CBF04
:103E900003552046BDE8F0410921FFF775BF00003A
:103EA000F479800070B504460D4600F00FF808B1B3
:103EB00000F016F90348044A2946005D9268BDE8FF
:103EC0007040104734798000F44380000020064998
:103ED00011F810200AB100207047401CC0B20A2817
:103EE000F6D3012070470000127A800003490022B7
:103EF00001F8102001EB400042707047127A8000F8
:103F0000014A02F810107047127A8000024A01211B
:103F100002EB400041707047127A800070B50024B7
:103F2000064D05EB4400407810B12046FFF754FFE2
:103F3000641CE4B20A2CF4D370BD0000127A800035
:103F400070B500211D4B03F132051A5C002A09D01F
:103F5000002403F10A06012A0AD0022A12D0032AF9
:103F600024D11FE015F8102002B301221A541DE0DD
:103F700015F810201AB1345402221A5416E01C54B9
:103F8000042113E015F810204AB1325C521CD2B261
:103F90003254642A0AD3072103221A5406E0052169
:103FA0001C5403E015F8101011B10821084670BD2B
:103FB0001C54FFF79BFF0921F8E70000E07980001F
:103FC000F8B50E4617460A2E02D80FB100231FE09F
:103FD0000020F8BD03EB430410F82410032901D09E
:103FE000042913D100EB8405154AA97AD154144948
:103FF00010F824200C3101EB031422706968616011
:10400000297A2172697A61720E49E1605B1CDBB228
:10401000B342DFD30A4831460C30FFF797FC0A4C15
:104020002670A7600948FFF7A5FE09480023009005
:1040300001220A21184609F0EFFE60600120F8BD58
:1040400034798000FD380001F4438000A53E000172
:10405000AD4000012DE9F0410024124FDFF8488007
:1040600019E0002607EB041528786968FFF74EFE73
:1040700010B9697A012902D0012802D005E0012691
:1040800003E0687A022800D1012631462046FFF776
:1040900037FF641CE4B298F800008442E1D3BDE825
:1040A000F081000040798000F443800010B5FFF7F4
:1040B000D1FFBDE81040FFF731BF000038B509F06F
:1040C00035FD02460020054C03460090062160683D
:1040D00009F0D8FE0120607038BD0000F443800074
:1040E00038B50024044D0094234622460821686810
:1040F00009F0C8FE6C7038BDF4438000002806D07B
:10410000002904D0024AD269002A00D01047704723
:10411000747880000248006A002800D00047704789
:104120007478800070B50D4616460D4C00280AD0F4
:104130000178032911D80121A17601461A222046CF
:10414000FEF72DF805E00020A0761A210448FEF7BE
:104150003FF8E5612662002070BD012070BD0000BF
:1041600074788000044A1044807D084201D0012008
:104170007047002070470000747880002DE9FE4FE2
:10418000DDF830B006469246994600240027019794
:1041900002975A480178B14202D2807E00287DD130
:1041A0000DF13808CDF80080EFF311850220FEF7FD
:1041B000A9FC014652480068C0F30220401C0122BD
:1041C00082408818C0B280F3118801213046FFF781
:1041D000C9FF38B14B484C4950F82620204600F022
:1041E000A5F804461C213046FFF7BCFF00285ED02E
:1041F00046A24549204600F099F8204484B20421A3
:104200003046FFF7AFFFF8B152463F49204600F075
:104210008DF8204484B208213046FFF7A3FF38B15F
:104220003BA23949204600F081F8204484B20BE0DB
:1042300010213046FFF796FF30B136A232492046B2
:1042400000F074F8204484B208213046FFF78AFF5A
:1042500090B14A462C49204600F068F8204484B2C8
:1042600010213046FFF77EFF30B12BA226492046B1
:1042700000F05CF8204484B210213046FFF772FF52
:1042800070B15B4626A2052101A8FEF7F9FB01AA41
:104290001D49204600F04AF8204400E02BE084B29B
:1042A00020A21949204600F041F8204484B2164863
:1042B000C4F58071204443460D9AFEF70DFC00972B
:1042C0004FF48071002804DB2044884201DC86B270
:1042D00000E00E46B01C884200D9FE2612A20A4910
:1042E000304600F023F8304481B20748FFF706FF5C
:1042F000E8B280F31188BDE8FE8F0000747880007A
:104300000CED00E0D44380007477800028000000AA
:10431000200000003A000000204C696E653A000061
:10432000256C6400292000000D0A000030B5054608
:10433000002000290CD0002A0AD006E02B18FF2B01
:1043400006D8CC54521C401C80B21478002CF5D1F5
:1043500030BD10B500F084FDBDE81040022074F4BB
:104360008194000008B500210091007802280ED148
:1043700007486946006809F036FA0098012806D116
:10438000044900070860BFF34F8FBFF36F8F08BD6C
:10439000E044800004ED00E070B504461A4D55F885
:1043A0002400703007F0E3FA82B21646A2B155F845
:1043B000240090F8011101290ED0012180F8041188
:1043C000802A0FD355F82400802200F1800170303C
:1043D00007F0E2FA80260CE055F82410002081F85E
:1043E000000170BD55F8240000F18001703007F025
:1043F000D3FA55F82400324600F18001001D1DF467
:1044000019D30028EDD170BDCC4380002DE9F843CD
:104410000446464F57F82400061D022C7DD290F822
:104420006C10002979D001297ED180F8011100217A
:1044300057F82400D0E903231344027D02F001025F
:10444000D21D9D184268D36FC3F38003002BFAD0AE
:1044500090F80421A2B1364A1368491C90F83B2019
:10446000102A06D08268B3FBF2F26A43B1EBC21F96
:10447000F3D957F82400703007F079FA85B226E0B6
:10448000B0F82480C58C001D1CF44CD757F82400CC
:1044900041F2883300EB0801491B8031001D2A4698
:1044A0001DF48DD2E5E757F82400012270306946EB
:1044B00007F072FA57F824004068C16FC1F3400159
:1044C0000029FAD09DF8001001606D1EADB2002DDC
:1044D000E9D157F82400703007F049FA0028C8D114
:1044E000306841694906FCD5EFF31085012080F35F
:1044F000108857F82400703007F039FA58B1EFF3FC
:104500001081012080F310883068426842F08202F6
:10451000426081F31088002000E005E057F8241085
:1045200081F8010185F31088BDE8F883CC43800051
:10453000044180002DE9F04389B0054688462C7877
:10454000002D06D02AB1022C05D3082009B0BDE801
:10455000F0830520FAE7384E05F1580046F82400AC
:10456000D2E900310A467030194607F0EBF9291DEF
:10457000894624220C316846FDF711FE291D286D5D
:104580000EC908F057FB0028E0D12C490C2007F099
:10459000D1FD2B490D2007F0CDFD2A4800EBC407C3
:1045A00097F9010017F438D697F9010017F452D69D
:1045B00056F82400C0F8649056F82400C0F8008033
:1045C00056F824001822083005F14001FDF7E7FDF8
:1045D00056F824107868486056F82400001D03F04F
:1045E000ADFB56F82400001D03F0DEFB351F01274C
:1045F000287850B92F7013480321103006F0AAFF15
:104600006880002801DA0420A0E756F8240080F82A
:104610006C7056F82410002081F8000156F8241020
:1046200081F8010156F8241081F8020156F824108F
:1046300081F803018AE70000CC438000412A000191
:10464000512A0001B0DF000170B5022801D3082013
:1046500070BD134C54F820304BB193F86C5035B109
:1046600039B132B193F80351012D04D010E0052087
:1046700070BD042070BD002583F8035154F820302C
:104680005B680225C3F8885054F820305B681B68CB
:1046900054F82000001D03F09BFB0028EAD170BDF8
:1046A000CC4380002DE9F04104461A4D55F8240012
:1046B000703007F05CF982B2164600277AB155F8DF
:1046C000240090F80111012909D0802A0ED300F1AD
:1046D00080017030802207F05FF980260BE055F8EA
:1046E000240080F800710020BDE8F08100F1800115
:1046F000703007F051F955F8240080F8047155F82E
:104700002400324600F18001001D1DF4D9D100289B
:10471000EAD1E9E7CC43800070B5022801D3082034
:1047200070BD0C4D55F820407CB194F86C6066B1BA
:1047300069B162B1002684F8026155F82000001DBD
:104740001DF43DD10028EBD170BD052070BD0420C3
:1047500070BD0000CC4380002DE9F04106460C46B8
:10476000174604F10805204671F426D0C3B21B4851
:10477000E1184268914202DD0320BDE8F08118494A
:10478000184A006809681268891A081A001FE9188F
:1047900081421CD94FF4004513A22946002002F49F
:1047A000DDF300F045FC30B118A22946002002F4E8
:1047B000D5F30820E1E71DA22946002002F4CEF33C
:1047C0003A4621463046BDE8F04108F027BE3A4659
:1047D00021463046BDE8F04108F020BED8328000C6
:1047E000D0238000CC238000523A353A4E564453B1
:1047F0002061726561206973206265696E6720635C
:104800006F6D7061637465642E0D0A00523A353A1B
:10481000436F6D70616374696E67204E5644532018
:104820006661696C65640D0A00000000523A353A11
:10483000436F6D70616374696E67204E56445320F8
:104840007375636365737366756C0D0A0000000011
:104850007CB50D46002200920192694602F480F375
:10486000044634BB4FF42051684602F47BF3B8B9D8
:1048700042F60101684602F475F388B942F6030175
:10488000684602F46FF358B942F60201684602F432
:1048900069F328B94FF42451684602F463F308B170
:1048A000062406E00098C5F30B01808808430099B0
:1048B000888020467CBD00002DE9F04105460C466D
:1048C000FF26217A1E2905D022480279521E52B2B3
:1048D00000683AE004F10801284602F445F3064670
:1048E00035E010F832308B422DD11B4E56F82500A2
:1048F000406F30B300273B4618A24021002002F44D
:104900002DF3062000EB05202BF434D5C00605D589
:10491000002717A24021002002F420F321460C3981
:1049200056F82500743002F421F30020A0800126FF
:104930006FB115A2402102F411F3284602F418F3D6
:1049400005E00127D7E7521E52B2002AC9DA3046E5
:10495000BDE8F0817C058000C40E8000523A333AF5
:10496000657865637574653D307825780A000000C8
:10497000523A333A636F6E6E656374206E6F7420C3
:1049800063666D0A00000000523A333A7374617234
:104990007420657865637574650A00002DE9F0413F
:1049A0000546884628466BF4CBD3C0B22449097823
:1049B00088420DD200EB4000213040F400404246D6
:1049C000AC2105F09DFD0446200032D0012430E0EA
:1049D0006BF4FAD3C7B207EB470606F1200040F4A8
:1049E00000402A46072105F08BFD10B10120BDE8EB
:1049F000F081384677F438D506F1210040F40040C4
:104A00004246AC2105F07CFD0446200001D0012087
:104A1000EDE7223646F4004005F0C8FB0949C7EB34
:104A2000C7000968084429680160A9888180A979BC
:104A300081711CB941462846FEF7BAFD2046D6E7EB
:104A4000382380003C23800006F0C8BE10B5FFF775
:104A5000FBFF054903480860BDE81040034876F4B1
:104A60007597000017B8800474C500A000879303F1
:104A700010B50446002C0CD0204600F051F8002858
:104A800007D104494968002903D02046BDE81040F9
:104A9000084710BD344980000A2805D2034A002186
:104AA00052F8200080F88F1070470000C40E80007C
:104AB00070B504460D46204607F078F8002805D169
:104AC00029462046BDE8704064F4749270BD000031
:104AD00000B58BB0094901200870FF22282101A8E8
:104AE000FDF76FFB4FF48070ADF804000020ADF8C7
:104AF000060001A8FFF7BCFF0BB000BD34498000E1
:104B000010B506480068002800D0804701F46EF018
:104B100008B1012010BD002010BD0000A448800095
:104B200070B50446002C1FD04FF6FF73194622883B
:104B300040F20155A2F201504FF48076AA424CD0C7
:104B40001BDC40F20245A2F20240AA4234D00DDC46
:104B5000A2F54072013A25D0012A23D0FF2A29D09C
:104B6000B2422ED121892CE0002070BD012825D031
:104B7000022825D0FE2824D12AE004282DD006DCE6
:104B800001282AD0022828D003281AD125E0052898
:104B900023D0062821D0B04213D1204602F09CF841
:104BA000002070BD204602F0B9FB204602F0CAFA90
:104BB000002070BD218904E0218902E0618900E0C4
:104BC000218A99420ED0204602F0B8FB012070BD28
:104BD000204602F04BFB002070BD204602F0C2FAD6
:104BE000002070BD002070BD70B50026150A0E486B
:104BF00005EB450200EB0214098821800120A0701A
:104C00002846FFF749FF00206BF43AD307480168B4
:104C100029B10B681BB122880021284698476BF404
:104C200065D3304670BD0000D42E8000B8228000CD
:104C30003EB500241D0A0A78122A02D0132A04D095
:104C400006E000208DF8000002E001208DF8000051
:104C50008888ADF804004888ADF80200891D0291EB
:104C600000206BF40DD30B48016829B18A691AB191
:104C700069462846904708E09DF80000012804D1C5
:104C8000BDF804102846FFF713FF6BF42FD320461E
:104C90003EBD0000B422800001480078704700004B
:104CA000544A80007CB50E46150A00200090019001
:104CB0006946284675F462D39DF806206946284661
:104CC00002F01AF80446CCB165F460D1C0B165F4C5
:104CD0005DD1C01C81B23288002320466FF43ED5DE
:104CE0006946284606F0CAFF40B106A240210020CE
:104CF00002F434F12146684660F4A6D600207CBD5B
:104D00000020E7E7523A333A7361766520636363C4
:104D1000640A000010B58AB00446FF2228216846C4
:104D2000FDF74FFA40F20271ADF800100021ADF826
:104D300002108DF804406846FFF79AFE0AB010BDD5
:104D400000230849496808E0CA88824204D80A89D1
:104D5000824201D3CB6802E009680029F4D11846E9
:104D600070470000484A800070B519480468194D22
:104D70002878002801D0002070BD4FF0806074F4C6
:104D8000B7D100F403F2600875F4C2D0124908608C
:104D90008817114901262C39086010497006C1F89E
:104DA000FC01C8674FF03041086B40F00700086312
:104DB000094C303C206840F4E020206000F428F2E8
:104DC0002E70206820F4E0202060012070BD0000DB
:104DD0006C2480009C48800070C500A084E000E046
:104DE00070B50024EFF31086012080F3108800F4E2
:104DF0002AF2104D28B102242968B9B1022088474F
:104E000014E0FFF77DFE20B1296879B100208847C2
:104E10000CE0FFF7A9FF28B10224296831B1022074
:104E2000884703E0296809B10020884786F3108885
:104E3000204670BD5C248000034900EB800001EB3C
:104E400080008088704700004C478000034A00EBD8
:104E5000800002EB80008180704700004C4780009A
:104E600010B500F065F800F047F8BDE8104000F01C
:104E700001B8000000B58FB003228DF800204FF478
:104E80008050019005218DF8081001208DF809004F
:104E900000238DF80A308DF80C20430304938DF81D
:104EA00014108DF815008DF816008DF81820C30326
:104EB00007938DF820108DF821008DF822208DF8B1
:104EC000242082030A928DF82C108DF82D000222E6
:104ED0008DF82E2004238DF830300D928DF8381087
:104EE0008DF839008DF83A30024A6846FFF768F8C5
:104EF0000FB000BDFD2100017CB5102600960224F4
:104F00008DF804408DF8054007258DF80650694658
:104F10000320FEF73DFE00968DF804408DF8054015
:104F20008DF8065069460520FEF732FE7CBD000074
:104F300000B587B000F01EF803208DF800001D209A
:104F40008DF8160001208DF817008DF818008DF8E7
:104F50001900044A04496846FFF7E4F8FEF76AFCC2
:104F600007B000BD6D4F0001C54F00010020FFF7E5
:104F70004DBA00001CB5114800904FF480640194B4
:104F800000F58060002101704FF4E13202640322D9
:104F900042648164C1640165012141650274CB02F0
:104FA000436102234374017602718460437101738B
:104FB0006A460349FFF7BEFA1CBD0000E06F80009F
:104FC000FF2100010A4601464FF47A730020FFF7E3
:104FD000A3BB00000E4910F1210F06DA086820F487
:104FE000704040F440500860704710F11D0206D335
:104FF000086820F4704040F48040086070470A2838
:10500000FCDD086820F4704040F4A0400860704760
:1050100024C500A010B506F08BFD06F085FA07F058
:1050200081FA00F021FBBDE8104006F079BD0000D8
:105030002DE9F04F87B07B48D0F800900024002580
:10504000A246002607F0BEFB77480168C9F80010A9
:105050004068C9F80400754800680830059009F1F7
:1050600008000690042203A9059800F0C9FABDF8CB
:105070000C10A1F57F40FF3843D0082203A9059802
:1050800000F0BEFABDF80E0070F496D300F0FF08F1
:10509000BDF80C00002867D00698A9EB000707F5BB
:1050A0008057BDF80E1008F1080083460844B84246
:1050B00063D805AB082203A906A800F0D7F8BDF80D
:1050C0000E00002300EB080205A906A806F0D2FA9C
:1050D000641CBDF80E005844B842C3D10020CDE98D
:1050E000006053464A462146284608F0ADF800289D
:1050F00026D1824600260024CDF818906D1CEDB212
:10510000B0E70020CDE9006053464A4621462846D4
:1051100008F09AF8002813D16D1CECB2434D4FF4FF
:105120008057434E08E0286800EB0430394602F00F
:1051300039FC40B1641CE4B2707AA042F3D800207C
:1051400007B0BDE8F08F3B488169407A40F27C426D
:10515000CDE900200291384B38A24FF400410020E5
:1051600001F4FCF60920EBE7BDF80E00059908F103
:10517000080808444044059074E7082F29D305AB7C
:10518000082203A906A800F071F8083F2FB10023F8
:105190003A4605A906A806F06DFA611C0020CDE983
:1051A000006053464A46284608F04EF80028C7D10A
:1051B0008246BDF80E004044C61B0024CDF818906E
:1051C0006D1CEDB20023324605A906A806F052FA7E
:1051D00048E705AB3A4603A906A800F047F8611C6A
:1051E00003A8CDE9006053464A46284608F02CF84B
:1051F0000028A5D1C7F1080ABDF80E0000EB08068B
:105200000024CDF818906D1CEDB20123524605A97B
:1052100006A806F02FFA0023324605A906A806F0D4
:1052200029FA1FE7F0468000ACD50700CC238000A8
:10523000D8328000641F80007AE00001523A353A8B
:1052400025732C204C256420666C61736820737470
:10525000617465203078253032582C206572726F69
:1052600072203078253038580D0A000070B5044699
:1052700015461E462A462068FCF791FF30682844F0
:10528000306020682844206070BD000010B50548DB
:10529000017B491C0173002074F4A8D4BDE81040C0
:1052A00000F050B8F44680002DE9FE43FFF7CCFB38
:1052B0001E48016821F4003101601C4E083E306830
:1052C0001B4980B2084330601A4803C8CDE9000189
:1052D00016482C380068C82100F007001DF80000AF
:1052E00010FB01F514480768144CD4F800803846C8
:1052F000414602F09DFA62686068831AAB42FBD3B4
:105300004146384602F074FA06F074F902909DF8AE
:10531000080028B19DF80800094948618861C86102
:10532000306820F07F403060BDE8FE8330C500A0CB
:1053300000008F11C0550001FCED00E0001000E0FE
:10534000F44680002DE9FC412D4E306820F07F406E
:1053500040F0885030602B4803C8CDE90001284850
:105360002438006800F007011DF80100C82110FB77
:1053700001F525480768254CD4F800803846414699
:1053800002F056FA62686368981AA842FBD3414655
:10539000384602F02DFA002506F02CF90446DFF815
:1053A0007080D8F81800844201D9012700E0002756
:1053B00074F4C2D240B91FB1D8F81800201A02E024
:1053C000D8F81800001BC5B2D8F81800C8F820009B
:1053D000B5EB900F03D8292C01D8112C02D200F084
:1053E00019F807E000EBC00020440A21B0FBF1F0FF
:1053F000C8F81800306820F07F403060BDE8FC81BC
:1054000028C500A0C0550001FCED00E0001000E040
:10541000F44680002DE9F04F87B000200690082464
:10542000DFF890811A20C8F8140063480168634AC5
:1054300089B21143016005A8FDF7C0FA0220FDF70B
:10544000C5FADFF8749109F10809D9F8000020F4D1
:105450007C3040F42030C9F8000059A003C8CDE9E1
:105460000201DFF854A1AAF1240ADAF8000002A927
:1054700000F00700085CC82110FB01F5DFF848B117
:10548000DBF800000190514F3E680198314602F070
:10549000CFF978687968091AA942FBD33146019897
:1054A00002F0A6F906F0A6F804909DF81010D8F8BE
:1054B0001400814204D99DF81020811C8A4263D9CE
:1054C0009DF81010814204D29DF81020811E8A425E
:1054D0005AD29DF81010814201D9012500E0002523
:1054E00015B1641C64B201E0641E64B2202C11D3B7
:1054F000D9F8000020F47C3040F42030C9F80000D6
:10550000D8F83C00401CC8F83C0000200490012062
:10551000069039E0D9F8000020F47C3040EA0430ED
:1055200040F40030C9F8000025A003C8CDE902010D
:10553000DAF8000002A900F00700085C642110FB03
:1055400001F6DBF80000019038680090DDE90010FA
:1055500002F06EF978687968091AB142FBD3DDE987
:10556000001002F045F906F045F8049035B19DF8B9
:105570001000D8F814108842B2D805E09DF8100049
:10558000D8F814108842ABD39DF81400FDF71EFA2A
:105590000948016821F07F4101609DF81000C8F8BA
:1055A0001800D8F82400401CC8F82400069807B05A
:1055B000BDE8F08FF446800028C500A000008F11E0
:1055C0004030101810200000FCED00E0001000E05A
:1055D0000A49322808DDD1F8200220F4706040F436
:1055E0004070C1F8200270472828FCDAD1F8200268
:1055F00020F47060C1F820027047000000E000A0B5
:105600002DE9F04105460E461746094C2378002B3C
:1056100002D0002070F444D43A463146284602F0C5
:1056200001FA0546207870F43BD42846BDE8F081A5
:10563000C92380002DE9F04105460E461746094C66
:105640002378002B02D0002070F42AD43A46314649
:10565000284602F0F7F90546207870F421D4284650
:10566000BDE8F081C92380000121024A00206AF4CC
:105670007B920000E574000101200A4909680029B5
:1056800001D0002070470849CA690AB1002070475C
:10569000044A283212688968491E8A42F7D10220DA
:1056A00070470000407B80007844800010B5104CAB
:1056B00002220421204604F0ABF8012210212046EA
:1056C00004F0A6F802228021204604F0A1F802226C
:1056D0004021204604F09CF802222021204604F0BC
:1056E00097F820460222BDE81040082104F090B847
:1056F000001001A02DE9FE4F07460D4602AA2946DB
:10570000384607F029F910B10298BDE8FE8F029CD7
:1057100000260296DFF8688098F8000010B100209B
:1057200070F4BED3DFF85CA04FF6FF79082269461B
:10573000204602F077F9BDF80000484502D12E80DE
:10574000029617E0B84206D115B1BDF802002880D4
:10575000083402940EE0BDF8020070F42DD0BDF8BC
:105760000210083021444418DAF800008442DDD3E6
:105770002E80029698F8000070F492D30298C4E745
:10578000C9238000D023800070B506460024094D4F
:105790000BE004EBC40005EB8000801C07223146BF
:1057A000FCF74EFD20B1641CE4B22878A042F0D88A
:1057B000204670BDC62B810010B50021084B5A68E9
:1057C0001B8809E052F83140844203D102EBC1004A
:1057D000406810BD491C89B29942F3D310BD000046
:1057E0005846800010B50021084B5A681B8809E014
:1057F00052F83140844203D102EBC100406810BD31
:10580000491C89B29942F3D310BD00004C46800078
:1058100010B50021084B5A681B8809E052F8314046
:10582000844203D102EBC100406810BD491C89B21B
:105830009942F3D310BD0000604680000349095C23
:10584000002902D0002104F049B97047302D8100B1
:1058500010B5884210D808290ED2094B074A5A6061
:1058600006E003EB8002946844F001049460401C5D
:105870008842F6DD0320186010BD000000400030B3
:10588000002000E02DE9F047164F3868002826D0A8
:105890004FF00009002400250526DFF84C8013E0B6
:1058A00005EB4501012018F8212090403A6810428C
:1058B00008D008EB81032246D3E90101641CE4B25D
:1058C00000F01CF86D1CEDB2B54201D2062CE7D3F6
:1058D000641EE1B24846BDE8F047FFF7B9BFBDE836
:1058E000F087000048468000CCDF000113B501219D
:1058F0006846FEF703FC01201CBD000070B505469C
:105900001446114840F8345000EBC400416028466A
:1059100001F010FE0646FF2001F016FE014625F0BC
:1059200001000A4B850703EB8402094B06D0801E59
:10593000906006EB014043F8240002E0906043F8D9
:105940002410204670BD0000643D8000002000E06F
:10595000004000302DE9FC410C46474A6178A078B0
:1059600052F82110CDE90010237844A21021002024
:1059700001F4F4F2607801264F4F052530B101287B
:1059800037D0022849D0032872D15AE020786CF42D
:1059900085D6C0B2C0EBC00107EB81014D72A27881
:1059A000452A09D1CA681278022A17D091F8202016
:1059B000022A01D081F8206091F82020012A04D029
:1059C000022A02D0032281F8202091F82020022A06
:1059D0004ED0C9680978022906D102E007224A722E
:1059E000EAE7A178452943D0344A0021126890475C
:1059F0003EE087F89950A078452805D197F89C009B
:105A0000022801D087F89C6097F89C0002282FD0CC
:105A10002B490020096888472AE087F8A550A0781C
:105A2000452805D197F8A800062801D087F8A86076
:105A300097F8A80006281BD022490020096888474B
:105A400016E020786CF48CD6C0B207EB001181F818
:105A5000B150A278462A01D0CE2A01D181F8B350A4
:105A600091F8B310022903D0174A00211268904719
:105A70000020BDE8FC81000068228000523A313AE3
:105A80006163742073746F707065642C206163743B
:105A90005F6964783A2025642C206163745F7479AF
:105AA00070653A2025732C20726561736F6E3A2001
:105AB0003078253032780A007C2780001022800060
:105AC00014228000182280001C22800010B58AB0A9
:105AD0000C46FF2228216846FCF773FB40F20A209F
:105AE000ADF80000ADF802406846FEF7C1FF0AB00D
:105AF00010BD10B58AB00446FF2228216846FCF785
:105B000060FB40F20D20ADF800000020ADF802006F
:105B10001C22214602A8FCF742FB1C34099468466B
:105B2000FEF7A6FF0AB010BD30B58BB005460C4697
:105B3000FF22282101A8FCF744FB40F20722ADF820
:105B40000420ADF806408DF8085001A8FEF790FF3C
:105B50000BB030BD37B58AB005460C46FF22282170
:105B60006846FCF72EFB4FF40272ADF80020ADF84A
:105B700002408DF804509DF830008DF8080068460A
:105B8000FEF776FF0DB030BD00B58BB0FF222821A7
:105B900001A8FCF716FB4FF44170ADF8040000209B
:105BA000ADF8060001A8FEF763FF0BB000BD0000D2
:105BB0002DE9FF470C4666788DF80D6020784FEA96
:105BC0001329CDE900905A4B5AA2102102960020C9
:105BD00001F4C4F120786449644F4FF0000801EBF0
:105BE000C905092861D008DC092824D2DFE800F0C3
:105BF0009A8B9A4A4A9A9A24240017282FD004DCB8
:105C00000B2807D0142816D16AE0182814D01928B8
:105C100011D111E0607822280DD100206AF430D330
:105C20005348006828B143681BB100220F21484641
:105C300098476AF45BD375E06BF418D2044685F894
:105C4000058000206AF41CD3386828B1436D1BB16D
:105C500022463146484698476AF448D362E06BF4DE
:105C600005D2044685F8048000206AF409D3386818
:105C700028B183681BB122463146484698476AF4EA
:105C800035D34FE06BF4F2D1044685F8068000204E
:105C90006AF4F6D2386828B1836D1BB122463146CA
:105CA000484698476AF422D33CE06BF4DFD10446BF
:105CB00085F8028000206AF4E3D2386830B1C36C02
:105CC00023B136B122463146484698476AF40ED38E
:105CD00028E0002CFAD02246314648469847F5E79E
:105CE0006BF4C4D1044685F8038000206AF4C8D25E
:105CF000386828B1C36D1BB12246314648469847E3
:105D00006AF4F4D20EE0607860B100206AF4B8D290
:105D1000386828B1C36B1BB16178002248469847A8
:105D20006AF4E4D26BF4A8D104B00020BDE8F08797
:105D300087E00001523A313A25733A20636F6E6969
:105D40006478203D2025642C206F70636F6465208B
:105D50003D20305825782C206572726F72203D20CE
:105D600030582578000000002A2780009821800004
:105D7000EC23800010B58AB00446FF222821684633
:105D8000FCF71FFA40F20331ADF80010ADF8024005
:105D90006846FEF76DFE0AB010BD70B58AB00546C4
:105DA0000C461646FF2228216846FCF70AFA40F204
:105DB0000131ADF80010ADF802408DF80450122208
:105DC000314602A8FCF7EBF96846FEF751FE0AB02F
:105DD00070BD70B58AB006460D461446FF222821D4
:105DE0006846FCF7EEF94FF44273ADF80030ADF8B9
:105DF00002508DF8046020680290A088ADF80C0075
:105E00006846FEF735FE0AB070BD00002DE9F0418E
:105E1000ADF50E7D0C461E0A304662F4DBD7074610
:105E2000304662F4D7D7002834D04DA100913346D4
:105E30004DA21021002001F491F0FF2E5BD0574DB0
:105E40002088288060886880A088A880E088E88012
:105E5000207A2872607A68722F74D4F80A00C5F824
:105E60000A00E089E8814E4A002102EBC600016089
:105E70004160218822F836104FF4CA7129A8FCF736
:105E8000A7F929A85FF4CED4687ADFF81881012831
:105E900016D101E044A1C9E7E87B0121B1EB901FD5
:105EA0000ED198F81C0140070AD59DF8A40038B11E
:105EB000A02101A8FCF78CF9002429AD01AF3DE039
:105EC00004F10A02617A1546304674F475D2617A9B
:105ED0002A46304600F05CFF354C6FB100206AF472
:105EE000CFD1206828B1836B1BB12C4A00213046EA
:105EF00098476AF4FBD12DE0032088F8A800D8F871
:105F0000AC000078012825D100206AF4B9D12168BD
:105F100029B18B6B1BB1214A0021304698476AF4A6
:105F2000E5D117E004EB840005EBC001093107EB74
:105F300004101022FCF733F9641CE4B29DF8A400AD
:105F4000A042EFD815499DF8A43001AA0A31304685
:105F50006DF4D8D00DF50E7D0020BDE8F081000075
:105F6000534C415645000000523A313A636F6E6E11
:105F7000656374696F6E5F7265715F696E645F6897
:105F8000616E646C65723A20636F6E696478202577
:105F9000642C20726F6C652025730A00182780001E
:105FA0002A2780007C2780004D4153544552000031
:105FB0009821800070B58AB006460D461446FF222F
:105FC00028216846FCF7FDF840F20533ADF80030B3
:105FD000ADF802508DF8046020680290A088ADF8FA
:105FE0000C006846FEF744FD0AB070BD30B58BB0BA
:105FF00005460C46FF22282101A8FCF7E2F840F2F2
:106000000632ADF804200022ADF806208DF80850C5
:10601000206803906068049001A8FEF729FD0BB08A
:1060200030BD00002DE9F0410D46E879FF2819D078
:106030001B4FB96889B300246CF410D3C6B216B1F3
:10604000032E05D008E0E8796CF428D3C4B203E04D
:10605000E8796CF485D3C4B2BB682A462146304641
:1060600098471AE000210E2065F43ED40446A4B1FE
:10607000012020702868C4F80300A888A4F807004D
:10608000A8796072E8796CF409D3A0700E212046DB
:106090006BF400D0204665F425D40020BDE8F081E3
:1060A000BC46800030B58BB004460D46FF22282147
:1060B00001A8FCF786F840F20622ADF80420ADF8FE
:1060C00006400E22294603A8FCF769F801A8FEF74E
:1060D000CFFC0BB030BD70B58AB005460C461646F5
:1060E000FF2228216846FCF76CF840F20233ADF835
:1060F0000030ADF802408DF804508DF80860684615
:10610000FEF7B6FC0AB070BD70B50D46EFF3118016
:106110001D490A781D490968C1F30221491C01245F
:106120008C401119C9B281F311881C0A1849002347
:1061300001EBC402136053604FF6FF7221F8342064
:10614000C0B280F31188AB7812A21021002000F4B5
:1061500005F7204674F4C8D120466EF43DD620469B
:1061600074F4CAD000206AF48BD0114802683AB1A6
:10617000D36B2BB1A8789030C2B20021204698474B
:106180006AF4B4D0002070BD02E400E00CED00E041
:106190002A278000523A313A646973636F6E6E2029
:1061A000726561736F6E203D20307825780A00009B
:1061B0009821800070B58AB006460D461446FF222D
:1061C00028216846FBF7FDFF40F20A33ADF80030A6
:1061D000ADF802508DF8046020680290606803906A
:1061E0006846FEF745FC0AB070BD30B58BB0054679
:1061F0000C46FF22282101A8FBF7E3FF4FF6FF72B0
:10620000ADF80420ADF8065034B1012C09D0022CB1
:106210000CD0032C13D10EE04FF40070ADF8040045
:106220000DE040F20120ADF8040008E040F2022049
:10623000ADF8040003E040F20320ADF8040001A82B
:10624000FEF716FC0BB030BD70B58AB006460D46A1
:106250001446FF2228216846FBF7B3FF40F20933BA
:10626000ADF80030ADF802508DF80460206802905F
:10627000606803902089ADF810006846FEF7F8FBCF
:106280000AB070BD30B58BB005460C46FF22282100
:1062900001A8FBF796FF40F20731ADF8041000218A
:1062A000ADF806108DF808502068039060680490DF
:1062B0000834059401A8FEF7DBFB0BB030BD70B5C8
:1062C0008AB005460C461646FF2228216846FBF791
:1062D00078FF4FF44073ADF80030ADF802408DF810
:1062E00004503088ADF808006846FEF7C1FB0AB0DC
:1062F00070BD30B58BB004460D46FF22282101A8A1
:10630000FBF75FFF4FF6FF72ADF80420ADF80640D3
:1063100045B140F20520ADF8040001A8FEF7A8FB46
:106320000BB030BD4FF40170ADF80400F5E730B5A7
:106330008BB005460C46FF22282101A8FBF741FF40
:1063400040F21122ADF80420ADF806502068039009
:10635000A088ADF81000A0798DF8120001A8FEF712
:1063600087FB0BB030BD10B58AB00C46FF22282148
:106370006846FBF726FF40F20920ADF80000002038
:10638000ADF8020020680290A088ADF80C00A0795A
:106390008DF80E006846FEF76BFB0AB010BD10B515
:1063A0008AB00446FF2228216846FBF70AFF40F224
:1063B0000B21ADF80010ADF802406846FEF758FB1F
:1063C0000AB010BD13B58AB00446FF2228216846E2
:1063D000FBF7F7FE4FF40371ADF80010ADF8024083
:1063E0009DF82C008DF808006846FEF741FB0CB0C4
:1063F00010BD30B58BB005460C46FF22282101A800
:10640000FBF7DFFE40F20F22ADF80420ADF80640A6
:106410008DF8085001A8FEF72BFB0BB030BD70B50E
:106420008AB004460D461646FF2228216846FBF72F
:10643000C8FE40F20E20ADF80000ADF80250102268
:10644000314602A8FBF7ABFE8DF804406846FEF724
:106450000FFB0AB070BD10B58AB00446FF22282198
:106460006846FBF7AEFE4FF40471ADF80010002152
:10647000ADF802108DF804406846FEF7F9FA0AB04C
:1064800010BD00002DE9F041044618460026002307
:1064900000256FF48857E4191C4F06D0012C07D053
:1064A000022C0CD0032C0CD105E03B687D6808E081
:1064B000BB68FD6805E0BB69FD69087801E03B69E0
:1064C0007D6900241CE033F83470874217D103EB58
:1064D000C4035C68B4B10E4B9C4204D1034602F085
:1064E0006BF806460EE00B4B9C4204D1034601F0CC
:1064F000DFFC064606E00346A047064602E0641CB1
:10650000AC42E0D33046BDE8F0810000700280006C
:10651000116F02009D3E02002DE9FC410E4629A0AC
:1065200003C8CDE900016A46314601200DF48CD044
:106530000746012F43D130460AF438D5C4B2C4BB54
:106540000AF4C0D5C5B2FF2D09D03078A02808D0F4
:10655000A1280CD0A22816D0A32819D10DE04B24D5
:1065600027E0314628460BF457D2044610E0314666
:1065700028460DF423D204460AE0314628460CF49E
:106580003DD7044604E03146284600F0F9F8C4B28D
:106590007CB9707868B90D4890F86E10C90708D0BA
:1065A00000EB8501C96850F8662FC1F81620808875
:1065B000488324B1064A2146012012689047384694
:1065C000BDE8FC81A0A1A3A200000000000E800095
:1065D000EC038000074A906800280AD051880029FF
:1065E00007D01278002A04D001EB81014900FBF7A3
:1065F000EFBD704774468000F0B5ADB004460D465F
:1066000016461F462878032804D0012809D01728E9
:1066100012D008E002200BF4D7D6F821FEF718F9C3
:1066200001E002F083FF2DB03B463246294620466A
:10663000BDE8F0406DF4FE956AF418D50446207864
:106640000A2825D300202B902C90687870B96946D1
:10665000E01D5FF44BD19DF829008DF8B200DDF804
:1066600023002B90BDF82700ADF8B000244E7068D1
:1066700048B1002069F404D67368227868782BA9A1
:10668000984769F433D66AF4F7D400202DB0F0BDF2
:1066900068781C4E20B330886FF4C4D0C4B202A80E
:1066A0000090184B69780A33727A1D46204674F4BC
:1066B000E7D3717A2A46204600F06AFB002069F48D
:1066C000DFD51148016829B18B6B1BB10D4A002140
:1066D0002046984769F40AD66AF4CED40020D5E75C
:1066E00002A9E01D5FF402D19DF831007072DDF85F
:1066F0002B00C6F80A00BDF82F00F0812478CEE701
:10670000BC46800018278000982180002DE9F041C8
:106710000F461E460021002400256FF48852801881
:1067200004D0012806D003280CD107E011480468E2
:10673000456807E010480468456803E00F480468AE
:1067400045683E78002210E034F83200B0420BD1A8
:1067500004EBC200406850B1FFF72EF802463946FC
:1067600030469047014602E0521CAA42ECD308464C
:10677000BDE8F081E8048000E0048000D8048000D7
:1067800070B504460E460025194890F86C10052097
:10679000884301D0432522E070780CF437D200B34F
:1067A0000BF40AD6400702D5707802281BD0582176
:1067B00020460AF4E3D30446BCB10220607370782B
:1067C000607401200BF474D7A0820A4820600A4844
:1067D00060600A48A060002120460AF4EFD32846F2
:1067E00070BD4025FBE74925F9E74B25F7E7000099
:1067F000000E800001680001896800011D2A010067
:106800002DE9F0410446884608F102051D4F97F82E
:106810007900FF2806D197F86D0097F87D1008449D
:106820000A2801D343262AE028460CF427D0C6B212
:106830002EBB2878A073002084F85500382208F178
:10684000020104F11C00FBF7AAFC6A8822B10721AF
:1068500040F6B1502AF4ACD0A07B012803D197F8C0
:106860007E0084F854007937207B7870207B387064
:106870003879401C3871294620460CF4DAD030466D
:10688000BDE8F081000E800010B50446E08B0028C2
:1068900004D0072140F6B15029F4FAD70449207BEF
:1068A00081F87A002046BDE810400CF4B990000051
:1068B000000E80002DE9F04105460F461C48446853
:1068C000A41C42F2420606233246002141F2051082
:1068D00029F466D4077000224270A17801B1012129
:1068E000144B1970A97B40F2FF374FF4806C0129DB
:1068F00009D091B1A1894180E189818025F450D0EE
:106900006E82BDE8F081A1894B1EBB4202D2A0F885
:1069100002C000E041808280F0E7A1894B1EBB42AB
:1069200002D2A0F802C000E041808280E6E70000C9
:10693000000E8000744680002DE9FC5F0C4692A09A
:106940000068019001AA214600200CF47DD6834600
:10695000BBF1010F7DD10026607800F00F07DFF852
:106960002C8298F86C006070002008B14226FBE091
:10697000A18C608C0BF4ACD408B14026F4E04FF04D
:10698000000A88F86EA088F86CA000F4F3F20A20E0
:10699000B8434FF4006902D00520B8437ED17C484B
:1069A0000078C0077BD01F2094F82010490606D538
:1069B0007F2098F86E1041F0200188F86E1017F0D3
:1069C000050F04D0A17E490701D540F4C07040F402
:1069D000C06588F880A0208C000402D5012088F8CA
:1069E0008000208C400405D598F8800040F002001B
:1069F00088F88000A08B29460BF424D70646300087
:106A00007ED194F8200010F0380F15D004200BF43C
:106A1000DBD494F82010C1F3C202521E4FF6FF716E
:106A200001EA82020C2100F4A7F204200BF4CCD47A
:106A300049460A4600F4A0F294F82000400717D017
:106A400002200BF4C1D494F8201001F00702521E6A
:106A500000E08FE04FF6FF7101EA82020C2100F4A2
:106A60008BF202200BF4B0D449460A4600F484F2BB
:106A700015F4C06F1AD00021002005F00102114466
:106A8000C9B26D08401CC0B22028F6D3B8F8500037
:106A900028B1CDF800A0491E084401E01EE005E041
:106AA00080B26B460022012100F468F23848007879
:106AB000800713D594F82000000605D598F86E00DD
:106AC00040F0400088F86E0094F82000C0F3C01138
:106AD000E08B0FF4ADD40646300045D102204CF4D3
:106AE0005FD188F86C700CF4C3D088F875A094F866
:106AF0002A0088F8740098F86C00800822D000E022
:106B000032E04120E17E88F86F108A0704D421F03A
:106B1000020088F86F001720E18C494500D34946F0
:106B20008946484500D981461FFA89F1A8F87010B6
:106B3000228D8A4200D21146884200D80846A8F821
:106B4000720001E088F86FA01048102204F10A01D9
:106B50005630FBF724FBA07EC00705D06068C8F85C
:106B600066002089A8F86A003EB10A4A3146002032
:106B7000126890475846BDE8FC9F074A0021084626
:106B800012689047F6E7000003000000000E800046
:106B9000F8038000EC038000FC0380002DE9FE4F29
:106BA0008246884691460020019002902F4B30A2E9
:106BB000402100F4D3F132480068002854D0056821
:106BC0004AE0A888401C84B2EF88288971F428D351
:106BD000064623462BA240210020009700F4BEF178
:106BE00037E001A920465EF48DD128BB42F60211A0
:106BF00001A85EF48DD1F8B123462BA240210020DC
:106C000000F4ACF163F4C2D180B163F4BFD1C01C15
:106C1000A04204D1214648466DF438D640B15EB159
:106C2000306948B1B8F1000F0CD106E00020EFE761
:106C30000021504662F4D0D009E0214648466DF468
:106C400025D620B933690022214650469847641C56
:106C5000A4B2BC42C5D92D68002DB2D1034B1AA2F3
:106C60004021002000F47AF1BDE8FE8FC9E0000168
:106C7000523A333A5B25735D20656E7465720A0083
:106C8000E0228000523A333A73746172745F686430
:106C90006C3D307825782C20656E645F68646C3DAF
:106CA000307825780A000000523A333A636C656107
:106CB0007220636363642061742068616E646C6534
:106CC0003D307825780A0000523A333A5B25735DEF
:106CD00020657869740A000070B505460548446867
:106CE00004E0E16809B1284688472468002CF8D1FF
:106CF00070BD0000484A800010B50E4B1B789842CA
:106D000010D200EB40030C48006800EB83100B68C6
:106D1000C0F803308988A0F807108270012100F8BC
:106D2000021B10BD05A24021002000F417F1002035
:106D300010BD0000E4238000DC228000523A333A88
:106D4000676174742066696E64206974656D2C20B7
:106D50006E6F7420666F756E640A000070B58AB03D
:106D600005460C461646FF2228216846FBF729FAFD
:106D70004FF4C063ADF80030ADF802408DF8045018
:106D8000ADF806606846FDF773FE0AB070BD0000FE
:106D90002DE9FC4107460E461446234B23A2402111
:106DA000002000F4DBF0002538466EF495D38DF812
:106DB000066020680090A088ADF8040032462146A5
:106DC0003846FFF799FF04467CB1214668465EF4D9
:106DD000E9D403465BB119A24021002000F4BEF0C3
:106DE000384600F071F801250EE001250CE0237A09
:106DF00019A24021002000F4B1F0207A88B1224687
:106E0000694638466EF446D0224629463846FFF792
:106E1000C5FE054B1AA24021002000F49FF0BDE8FA
:106E2000FC810125F0E70000DFE00001523A333A2F
:106E30005B25735D20656E7465720A00523A333AC1
:106E4000626F6E64206D6772206765742065727270
:106E50003D307825780A0000523A333A626F6E640A
:106E600020646576207265636F6E6E6563742C2096
:106E700063636364206E756D3D307825780A000089
:106E8000523A333A5B25735D20657869740A0000D5
:106E900030B58BB004460D460A4B00221A70FF2213
:106EA000282101A8FBF78DF940F20162ADF804201A
:106EB000ADF806408DF80A5001A8FDF7D9FD0BB0DA
:106EC00030BD0000484A800070B504460BA2402146
:106ED000002000F443F01048007884420DD20F4D9A
:106EE00004EB4404C021286800EB8410FBF770F920
:106EF0002968002001EB8411087070BD523A333AC2
:106F0000676174742072656D6F7665206974656D54
:106F100020656E7465720A00E4238000DC22800024
:106F200070B58AB006460D461446FF2228216846F1
:106F3000FBF747F940F20452ADF80020ADF80250DB
:106F40008DF8046034F8040BADF80800039468462B
:106F5000FDF78EFD0AB070BD70B58AB006460D46CD
:106F60001446FF2228216846FBF72BF940F2035212
:106F7000ADF80020ADF802508DF8046034F8040B31
:106F8000ADF8080003946846FDF772FD0AB070BDC5
:106F90002DE9FF5F0D4602984FEA1029022148466D
:106FA0000EF4BCD0002876D00178152901D016291E
:106FB00071D14FF000088088C0B100218A46604E30
:106FC00056F8292034321068002430B18788A7F59C
:106FD00040631A3B01D10C3004462878801E0628F5
:106FE00019D2DFE800F01111131618064FF044080B
:106FF00090E03CB11046FFF7C3DF204629F41CD1D6
:10700000002401E04FF04108012104E04FF0050A9F
:1070100001E04FF0070AE9BB5FE0FFF7B1DF074689
:10702000B888A0F54061043905D04FF041083846D2
:1070300029F4F8D051E03D460C3568882988401A7B
:1070400086B2642E00D9642606EB460000EBC6012A
:10705000162000EB41008346022128F4F5D348B303
:10706000022148460EF492D001461FFA8BF340F6F7
:107070001A40029A29F494D00446288860826888CD
:10708000A082287920702A79691D601CFBF787F897
:10709000384601E018E04CE029F4C4D086B121461E
:1070A0000C39274850F829003430FFF76BDF4FF0D8
:1070B000040A12E04FF04B08384629F4B3D00CE034
:1070C000204629F4B9D000241D4850F82900343056
:1070D0000168D9B1002100299FD0BAF1000F19D061
:1070E000B4B1029A0A23114640F6034029F458D05D
:1070F00080F800A0618A491C8180A18AC180022198
:1071000041700021018129F497D003E00121E2E7D9
:107110004FF04108B8F1000F06D1094850F8290096
:10712000406B50B1002020B14246022148460EF487
:107130005DD404B00020BDE8F09F0120F3E700001B
:10714000C40E800070B505460548846804E0E16817
:1071500009B1284688472468002CF8D170BD00008A
:10716000484A800070B505460548846804E0E16837
:1071700009B1284688472468002CF8D170BD00006A
:10718000484A800070B58AB006460D461446FF2274
:1071900028216846FBF715F840F20252ADF80020AE
:1071A000ADF802508DF8046034F8040BADF8080017
:1071B00003946846FDF75CFC0AB070BD30B58BB037
:1071C00005460C46FF22282101A8FAF7FAFF40F2F3
:1071D0000752ADF804200022ADF806208DF80850C3
:1071E000D4E901022168CDE90402039101A8FDF769
:1071F0003FFC0BB030BD70B58AB006460D46144654
:10720000FF2228216846FAF7DCFF40F20552ADF86C
:107210000020ADF802508DF8046034F8040BADF88E
:10722000080003946846FDF723FC0AB070BD70B5F2
:107230008AB006460D461446FF2228216846FAF712
:10724000C0FF4FF4A061ADF80010ADF802508DF80A
:1072500004601622214602A8FAF7A1FF163408940A
:107260006846FDF705FC0AB070BD000070B5054624
:10727000002D12D0FDF710FD0C48846805F10906B9
:1072800009E020792A7A904204D13146A068FAF7C1
:10729000D7FF18B12468002CF3D170BDE168002934
:1072A000FBD02846BDE8704008470000484A8000EF
:1072B00070B58AB006460D461446FF22282168465E
:1072C000FAF77FFF40F20152ADF80020ADF802500E
:1072D0008DF8046034F8040BADF808000394684698
:1072E000FDF7C6FB0AB070BD70B58AB005460C4606
:1072F0001646FF2228216846FAF763FF40F206533C
:10730000ADF80030ADF802408DF80450ADF80860DB
:107310006846FDF7ADFB0AB070BD000070B50546CC
:107320000548446804E0E16809B1284688472468B4
:10733000002CF8D170BD0000484A800010B504460A
:107340000846FDF7FDFC0146002903D02046BDE8B4
:107350001040084710BD017882781144C9B201710C
:107360000846704730B500224271438805E04479F1
:107370008D5C2C444471521C92B29342F7D84079F0
:1073800030BD000030B50246002400200021084B2B
:1073900053F820502DB1914201D1044605E0491C1B
:1073A000C9B2401CC0B20A28F2D3204630BD00004A
:1073B000CC0D800070B506462DED068B88B00D46CD
:1073C0009FED368B20216846FAF702FF0024102239
:1073D00069463046FCF71CF80020694600F10802B7
:1073E00031F81220224494B2401CC0B20828F5D3D0
:1073F000E408052E02D0062E24D046E06888FBF76C
:10740000C5F841EC180B2888FBF7C0F841EC190BC4
:107410002046FBF7BBF853EC192BFAF7D0FF53ECDF
:10742000182BFBF744F89FED1F1B53EC112BFBF7B8
:107430003EF89FED1E1B53EC112BFAF7C3FF41ECF6
:10744000180B22E09FED1B0B51EC100B81F000415B
:1074500041EC190B6888FBF799F841EC1A0BA888E6
:10746000FBF794F841EC180B2046FBF78FF853EC30
:10747000182BFAF7A4FF53EC1A2BFBF718F853EC70
:10748000192BFAF7A2FF41EC180B08B0B0EE480A2E
:10749000F0EE680ABDEC068B70BD00000000000035
:1074A0000000000079E9263108AC5CBF0000000054
:1074B00000003940B76DDBB66DDB0E4010B50246FB
:1074C00000200021064B53F821401CB1914205D009
:1074D000401CC0B2491CC9B20A29F4D310BD000037
:1074E000CC0D80001CB542680121117000214FF4C1
:1074F0008A2205E012F8013B4468491C6354C9B272
:107500000829F7D3094906C9CDE900124168009A54
:1075100041F8092F019A4A6002884068112168F4F5
:10752000E5D20349002008701CBD000000E1000105
:107530004825800000887047002101E0491C400870
:10754000C207FBD00846704740F45F407047000018
:10755000014617480068C0F3C220DC2901DA062082
:107560007047A1F1DC020A2A03D20428F8D00620D1
:107570007047A1F1E602142A01D804207047A1F156
:10758000FB02092A03D20328F8D004207047A1F592
:107590008272282A01D803207047A1F22D110929EF
:1075A00003D20228F8D00320704702207047000061
:1075B00010C500A001461E480068C0F3C220DC29A7
:1075C00001DA07207047A1F1DC020A2A03D205285C
:1075D000F8D007207047A1F1E602142A01D805204F
:1075E0007047A1F1FB02092A03D20428F8D0052034
:1075F0007047A1F58272282A01D804207047A1F2B1
:107600002D12092A03D20328F8D004207047A1F5CF
:107610009B723C2A01D803207047A1F273110929FB
:1076200003D20228F8D003207047022070470000E0
:1076300010C500A00248006800F480707047000088
:1076400078C500A005480068C00F002804D0044891
:10765000007908B1012070470020704740C500A0A4
:10766000F4468000FEB50546002404208DF8000095
:1076700000260B4FE8070CD00120A040019004EB3E
:10768000440007EB800081680291416809B16846B7
:107690008847641CA4B26D08761C082EEADBFEBD88
:1076A000C076800010B5EFF31084012181F31088BB
:1076B00000F004F884F3108810BD00002DE9F041BB
:1076C0000446204602F044F8E0B2EFF310810122B4
:1076D00082F31088194A136883430343136081F3CC
:1076E00010881748446284634FF6FF7000EA042153
:1076F000E0B2124B0C3B1A68084382431A6019E04F
:1077000094FAA4F0B0FA80F101208840611E0C4088
:10771000072290FAA0F1B1FA81F18900094D2E6893
:107720000F278F40BE438A4016432E60196821EA16
:1077300000401860002CE3D1BDE8F0815CC500A0DA
:10774000002001A090E200A070B50546064810F4A4
:107750009DD1EFF31084012181F31088284600F0B9
:1077600005F884F3108870BD5448800000B585B0DA
:1077700001680091017901F0030101918168029192
:10778000C1680391406800090490684601F054FF05
:1077900005B000BD10B5FF20FBF770FF80B20028D8
:1077A00021D011498863EFF31081012282F3108800
:1077B0000E4A6FEA0043136081F310886FF00401F2
:1077C00011600A4940390968C1F3001139B1202814
:1077D00005D0BDE8104020F0200010F4CF90BDE8A7
:1077E000104010F4CB9010BD002001A044C500A0B3
:1077F00010B5EFF31083012282F31088094A146850
:10780000002C02D01468641E146012683AB920F08B
:10781000807021F00101044A11600449086083F37B
:10782000108810BD80468000001000E0FCED00E0F4
:1078300010B5EFF31082012383F31088074B1C6807
:10784000641C1C60064B40F08070186041F0010021
:107850000449086082F3108810BD00008046800053
:10786000FCED00E0001000E010B50446002C1DD037
:10787000207A01281CD0012020721A48006818B113
:10788000416809B1204688471748016821F48061A2
:107890000160EFF31081012080F310881348026823
:1078A00022F002020260006820B114E0012010BD45
:1078B000022010BD0E48426842F001024260C268D8
:1078C00042F00072C260026842F001020260C268C7
:1078D00042F08072C26081F310880020E060607224
:1078E000207210BD8403800014C500A03C488000B5
:1078F000A0E200A070B50446002C03D02349206804
:10790000884201D0012070BD207A012805D00125D0
:107910002572607A002610B11EE0022070BD26722A
:107920001B48016821F001010160816821F00071AC
:107930008160EFF31080012181F3108815490A68F6
:1079400042F002020A6080F310881348006818B100
:10795000016809B120468847022060720F4801681B
:1079600041F4806101606068012809D020680168E5
:1079700021F4805101603046E6606572207270BD6E
:107980002068016841F480510160F4E7006401A0BF
:10799000A4E200A03C4880008403800014C500A03D
:1079A00011F4489510B50B46024600210348FEF736
:1079B00082DC08B1002010BD012010BD641F8000D2
:1079C00038B5022000906846FAF7F8FF114C20689D
:1079D00080B9114820601149016001214160816036
:1079E000EB21C1600E499DF8002051F82210016181
:1079F0000021416174F4BAD208B1012000E00020F6
:107A0000A072044811F4AAD408B1002038BD0120A6
:107A100038BD0000641F8000281F800000D000A037
:107A2000D846800010B514460A460146234604484D
:107A3000FFF7B6FF08B1002010BD204610BD0000C2
:107A4000641F80002DE9F047C0B081468A46174682
:107A50003B46524649461748FEF723DB18BB002435
:107A60003D464FF48078474501D9464600E03E4602
:107A700009EB040133466A460E48FFF791FF90B9BF
:107A80000AEB040032466946FAF7DAFB58B9AD1B37
:107A90006DB134444646B54200D82E46BC4202D2AF
:107AA000A019B842E4D9002040B0BDE8F0873846BC
:107AB000FAE70000641F800070B505460E460748CF
:107AC00012F40ED0EFF31084012282F310883146B5
:107AD000284611F4CDD784F3108870BD5848800033
