:020000040100F9
:102000000000840059200001612000018D4A8000F9
:10201000FF210001FD210001452200010000000018
:10202000000000000000000000000000354C8000AF
:102030006B200001000000006D20000171200001F4
:10204000DFF810D000F0F2FB00F094F800480047F1
:102050009DEA0001000084000648804706480047CA
:10206000FEE7FEE7FEE7FEE7FEE7FEE7FEE7FEE748
:10207000FEE700006D2A0001BDEA00012DE9F05FD6
:102080000546002092469B468846064681464024E7
:102090001BE0284641464746224600F0BBFA53461D
:1020A0005A46C01A914110D311461846224600F0F4
:1020B000A2FA2D1A67EB01084F46224601200021A3
:1020C00000F099FA17EB00094E41201EA4F101041B
:1020D000DFDC484631462A464346BDE8F09F000013
:1020E0000649074A0868504343F239021044086021
:1020F000400870470149086070470000784A800036
:102100006D4EC64140EA01039B0703D009E008C9B0
:10211000121F08C0042AFAD203E011F8013B00F8AC
:10212000013B521EF9D27047D2B201E000F8012BF8
:10213000491EFBD270470022F6E710B513460A4647
:1021400004461946FFF7F0FF204610BD421C10F868
:10215000011B0029FBD1801A704730B504460020CE
:10216000034600E05B1C934203D2E05CCD5C401B65
:10217000F8D030BD70B5054C054D03E02068204413
:102180008047241DAC42F9D170BD0000B832010176
:10219000BC3201010EB540F2334102910021CDE97C
:1021A00000110A460B4600F066FA03B000BD0EB5FA
:1021B00040F2334202920022CDE90022134600F0A1
:1021C0005AFA03B000BD20F00040C20DC0F3160063
:1021D00040F400007F2A02DA002001467047002107
:1021E000962A03DCC2F19602D0407047963A00F07E
:1021F00002BA43F6C51CC3F2000C6047FEE7FEE7D7
:1022000058585247010000001555000000200001F9
:10221000002000016EED52490101000000000000A5
:1022200000000000000000000000000000000000AE
:10223000000000000000000000000000000000009E
:102240001BF44A97FEE7704770472DE9FE4F804622
:1022500081EA0300C00F0C46009021F0004123F0FA
:102260000045B8EB0200A94105D240462146904600
:102270001C460B46024623F00040104347D0270D72
:10228000C7F30A00C3F30A510290401A0190402894
:102290006BDAC3F3130040F4801B0098924620B120
:1022A0000023D2EB030A63EB0B0B01985946C0F1F4
:1022B0004002504600F09FF906460D4650465946EA
:1022C000019A00F0B7F910EB08006141002487EA99
:1022D000115284EAE7731A4340D0009A62B3019A1C
:1022E000012A4FEA075215DC001B61EB02014FF097
:1022F000004202EA0752CDE90042001C41F580117C
:1023000032462B4600F0B7F903B0BDE8F08F4046E7
:102310002146F9E7001B61EB0201001C41F5801327
:1023200000185B412018A2F5001747EB030140EAB3
:10233000D570B6196D4111E06D084FEA360645EAD1
:10234000C0754FEA0752001B61EB0201001C41F50A
:10235000801149084FEA30000019514132462B469E
:1023600003B0BDE8F04F00F077B9009801224000BB
:102370000023D0EB020263EBE073009821464FEAA2
:10238000E074B8EB000061EB0401E9E783F000437F
:102390005BE781F0004158E72DE9FE4F81EA030435
:1023A00004F0004421F0004100944FF0000B23F0B2
:1023B000004350EA01045ED052EA03045BD0C3F349
:1023C0000A54C1F30A552C44A4F2F3340194A0FB3F
:1023D0000254C1F3130141F48011C3F3130343F416
:1023E000801301FB024400FB034E840A970A44EA6F
:1023F000815447EA8357A4FB076802958D0A05FBC1
:1024000007854FEA932C04FB0C542705029D4FEAE5
:10241000065847EA1637B5EB08056EEB070C870E32
:10242000920E47EA811742EA8312A7FB0201B6EB3C
:102430000B0164EB00042B0D43EA0C335E1844EBF4
:102440001C50DA465146E7FB0201C5F313044FEA7C
:102450000B3343EA14534FEA0432019C43EA060368
:10246000A4F10C040294009CCDE900B400F003F93F
:1024700003B0BDE8F08F00200146F9E72DE9F04DEB
:1024800081EA030404F0004B21F0004514464FF0AC
:10249000000A23F0004150EA050220D054EA01026C
:1024A0001DD0C5F30A570246C5F31303C1F3130049
:1024B000C1F30A5640F4801543F48013A7EB0608D5
:1024C000101BD64608F2FD3873EB050002D308F165
:1024D000010801E092185B41B8F1000F03DA002017
:1024E0000146BDE8F08D00204FF480110646844679
:1024F0000EE0171B73EB050705D3121B63EB0503F7
:1025000006434CEA010C49084FEA300092185B413F
:1025100050EA0107EDD152EA030012D082EA04002A
:1025200083EA0501084305D0101BAB4106D2012206
:10253000002306E000224FF0004302E06FF00102AA
:1025400053101AEB06004CEB085110EB0A0041EB5C
:102550000B01BDE8F04D00F07FB870B5C1F30A5231
:1025600001F000450024C1F3130140F2FF3341F4B0
:1025700080119A4201DA002070BD40F233439A4242
:10258000A2F2334203DC524200F044F800E09040F3
:102590002C43F1D0404270BDC1F30A5210B5C1F3D3
:1025A000130140F2FF3341F480119A4201DA002016
:1025B00010BD40F233439A42A2F2334203DC52424E
:1025C00000F028F810BD904010BD30B50B46014614
:1025D00000202022012409E021FA02F59D4205D3C2
:1025E00003FA02F5491B04FA02F52844151EA2F16C
:1025F0000102F1DC30BD202A04DB203A00FA02F1AE
:10260000002070479140C2F1200320FA03F31943E0
:1026100090407047202A04DB203A21FA02F0002182
:10262000704721FA02F3D040C2F1200291400843E2
:1026300019467047202A06DBCB17203A41FA02F0F0
:1026400043EAE07306E041FA02F3D040C2F120020F
:10265000914008431946704710B5141E73F10004E9
:1026600008DA401C41F1000192185B411A4301D184
:1026700020F0010010BD2DE9F04D92469B4611B1AE
:10268000B1FA81F202E0B0FA80F220329046FFF710
:10269000B2FF04460F4640EA0A0041EA0B015346E6
:1026A0005A46084313D0114653EA010019D0C8F125
:1026B00040025046FFF7AEFF05460E4650465946CB
:1026C0004246FFF798FF084305D0012004E020466A
:1026D0003946BDE8F08D0020054346EAE0762C43FC
:1026E00037430A986305E40AA0EB08000022FD0ABC
:1026F00044EA47540A3002D500200146E9E70105C3
:1027000010196941DDE9084500196941BDE8F04D3E
:10271000A2E700002DE9F041054621F000400C46FB
:10272000284309D0C4F30A5040F23341884205DD02
:1027300028462146BDE8F0812846FBE740F2FE31FD
:10274000884210DC0CDB4FEA043040EA155050EAB6
:10275000053105D0104804F0004101430020E9E7AD
:1027600000200146E6E7A0F233404642C6F14002AF
:1027700028462146FFF73FFF074688462846214660
:102780003246FFF747FF43463A46FFF765FF3246BA
:10279000BDE8F041FFF72FBF0000F03FC1F30A5240
:1027A000C1F3130140F2FF3341F480119A4202DA7F
:1027B00000200146704740F233439A42A2F233426E
:1027C00002DC5242FFF726BFFFF715BF30B5041EEB
:1027D00071F1000404DB4FF00044404264EB01015E
:1027E000141E73F1000405DB1C464FF000435242F7
:1027F00063EB04038B4208BF824230BD30B5041E38
:1028000071F1000404DB4FF00044404264EB01012D
:10281000141E73F1000405DB1C464FF000435242C6
:1028200063EB0403994208BF904230BD064C074D4C
:1028300006E0E06840F0010394E807009847103490
:10284000AC42F6D3FFF700FC68320101B832010157
:1028500070B58C1810F8015B15F0070301D110F862
:10286000013B2A1106D110F8012B03E010F8016B8F
:1028700001F8016B5B1EF9D12B0705D40023521E12
:102880000DD401F8013BFAE710F8013BCB1A921C7A
:1028900003E013F8015B01F8015B521EF9D5A14278
:1028A000D8D3002070BD000010B51E480068002875
:1028B00000D080471C4900200870811E1B48016021
:1028C0001B494FF0007008601A4CD4F8C002800712
:1028D00004D4F42218A11DA005F426F42A480168A6
:1028E000D4F8C40261F31D3040F00100C4F8C40202
:1028F00004F424F300214FF03040C1608161C1171E
:102900004161016204F4D6F208484038016821F4BC
:10291000800101601D480068002802D0BDE8104019
:10292000004710BD602480007C49800044C500A0A1
:1029300080E200E000E000A0727769705F736C6570
:1029400065705F636F6D6D6F6E2E63004D43555FF5
:102950005355422D3E424C455F44534C4545505FD4
:10296000434F52525F454E2026204D43555F5355ED
:10297000425F424C455F44534C4545505F434F5284
:10298000525F48575F454E00542480006424800005
:1029900000214FF03040C1608161C1174161016287
:1029A0000649022004220A60BFF34F8FBFF36F8FE6
:1029B0000860BFF34F8FBFF36F8F704780E100E077
:1029C00004490220C1F800010860BFF34F8FBFF334
:1029D0006F8F704780E100E00249096801F007014C
:1029E0000170704704C500A030B4062821D21249F6
:1029F0000A6802F00702824212D00A680F4B1A409E
:102A00000F4C22430A6000BF00BF00BF00BF0A682E
:102A10001A400C4B024333F8203042EA83420A60EA
:102A20000849183951F820000749486030BC76F44D
:102A3000E19230BC7047000004C500A0F8FFE3FF3E
:102A400005000800001F01010041800004480068E3
:102A5000044900F0070051F820000349486070471E
:102A600004C500A0E81E0101004180000248016881
:102A700041F470010160704788ED00E00248006891
:102A8000001D1EF4E9950000CC4380000248406818
:102A9000001D1EF4E1950000CC4380000FB4054BEF
:102AA00010B503A9044A029800F0AEF910BC5DF815
:102AB00014FB000069810001F84380000FB41CB5CD
:102AC0000246002007AC00290BD0491ECDE90021A9
:102AD000054B6A462146069800F096F9009A0021B7
:102AE00011701CBC5DF814FB373500010FB4084BA6
:102AF00010B504A902AA039800F086F9044602A9B9
:102B0000002000F023FD204610BC5DF814FB0000FF
:102B10004D3500017CB5044600201D4616460029AF
:102B20000BD0491ECDE90041044B6A462946304688
:102B300000F06AF9009A002111707CBD3735000160
:102B4000002804DB00F1E02090F80004704700F05A
:102B50000F0000F1E02090F8140D7047002804DB0E
:102B600000F1E02090F80004704700F00F0000F141
:102B7000E02090F8140D704702480068C0F302206E
:102B8000704700000CED00E010B52DED020B2DEDAF
:102B9000088B84B09DED0C0B51EC100BFFF7BAFDC8
:102BA00041EC180B9DED0C0B53EC182B51EC100B5A
:102BB000FFF7ECFB41EC190B0D989FED290B10F082
:102BC000004F53EC102B51EC190B9FED21AB9FEDF7
:102BD00022BB0ED0FFF7FAFD0ED953EC1B2B51ECA4
:102BE000190BFFF70BFE1CD214E000BF41EC180BD1
:102BF00017E0FFF7EBFD06D253EC1A2B51EC180B44
:102C0000FFF7C4FBF2E753EC1B2B51EC190BFFF75A
:102C1000F5FD06D853EC1A2B51EC180BFFF715FBFA
:102C2000E4E78DED028B9DED0C0B18EE901A10EE83
:102C3000900A8DED000B61F31E0003909DED020BD9
:102C400004B0BDEC088B02B010BD00000000000015
:102C5000000000000000F03F000000000000E03F26
:102C6000000000000000E0BF02E008C8121F08C119
:102C7000002AFAD17047002001E001C1121F002A8A
:102C8000FBD170472DE9FF5F82B00021DDE9043000
:102C9000020DDDF840B0034318D044F61050A2F204
:102CA000FF3242431514119801281FD0A5EB0B00E9
:102CB000401C5FEA000A4FF000064E4FDFF83891E3
:102CC000B046504615D5CAF1000413E0119801240E
:102CD0004AA3012801D16FEA0B010298119AC0E9B9
:102CE0000031C0E9024206B0BDE8F09FCBF1000020
:102CF000DFE704460021404A491842EB0450CDE981
:102D0000001012E0E00707D032463B4640464946F5
:102D1000FFF742FB8046894632463B46104619463D
:102D2000FFF73AFB06460F466410002CEAD1DDE9B6
:102D30000401DDE90023BAF1000F06DAFFF72CFBEE
:102D400042464B46FFF728FB05E0FFF797FB42465C
:102D50004B46FFF793FB04460E460022284BFFF735
:102D60004DFD03D84FF0FF30014607E00022254B10
:102D700020463146FFF769FAFFF710FD102409E0FD
:102D8000002C0ADB0A220023FFF778F9039B30327C
:102D90001A55641E50EA0102F2D1641C039AC4F170
:102DA00011031444119A012A03D0012208430DD1C2
:102DB0000AE0084304D000204FF0110B119072E795
:102DC000A3EB0B056D1E0DE05B4504DD4FF000022B
:102DD00005F1010504E003DA4FF00002A5F1010559
:102DE000002AECD002981199C0E90231C0E90045EF
:102DF00079E70000000014400000F03F30000000C0
:102E00000000F0430000E03F2DE9FF4F95B09B46E6
:102E10008946064600250FE2252877D1002427465B
:102E2000F84A0121059400E0044316F8013F203BD5
:102E300001FA03F01042F7D130782A2811D06FF050
:102E40002F033078A0F13002092A16D8059A44F0F1
:102E5000020402EB820203EB42021044761C05904E
:102E6000EFE759F8042B0592002A03DA504244F4A4
:102E70000054059044F00204761C30782E2816D1B8
:102E800016F8010F44F004042A280DD06FF02F0229
:102E90003078A0F13003092B09D807EB870302EB48
:102EA0004303C718761CF3E759F8047B761C307887
:102EB0006C280FD006DC4C2817D068280DD06A2863
:102EC00014D104E0742810D07A280FD10DE044F416
:102ED00000140AE044F4801401E044F440147278D1
:102EE000824202D104F58014761C761C3078662864
:102EF0000BD013DC582877D009DC002875D0452882
:102F0000F6D04628F4D047281AD19DE118E063286E
:102F100035D0642879D0652812D195E1702873D016
:102F200008DC6728F1D069286FD06E280DD06F2893
:102F300006D1B5E073282CD0752875D0782874D0C8
:102F40005A46179990476D1C75E1C4F30250022848
:102F500009D003280DD0D9F8001004280DD00D6039
:102F600009F1040967E1D9F80010EA17C1E9005234
:102F7000F6E7D9F800100D80F2E70D70F0E719F8C8
:102F8000041B8DF8001000208DF80100EA46012096
:102F900003E059F804AB4FF0FF3061074FF0000138
:102FA00002D40DE008F101018846B9420FDA8045EC
:102FB000F8DB1AF808100029F4D108E008F1010143
:102FC00088468142FADB1AF808100029F6D10598E4
:102FD0005B46A0EB080721463846179A00F094FAA2
:102FE000284400EB080507E04DE029E10DE01AF860
:102FF000010B5A4617999047B8F10108F7D25B4682
:1030000021463846179A13E142E00A220092C4F39F
:1030100002524FF0000A022A08D059F804CB032AC2
:103020004FEAEC710AD00DE029E02AE009F107012E
:1030300021F00702F2E802C1914609E00FFA8CFC88
:103040004FEAEC71042A03D14FFA8CFC4FEAEC7181
:10305000002907DA0A460021DCF1000C61EB0201CD
:103060002D2202E0220504D52B228DF80420012216
:1030700003E0E20701D02022F7E7904659E00A2159
:1030800002E010220DE010214FF0000A00910BE049
:1030900010224FF0000A44F004040827009203E0D5
:1030A00008224FF0000A0092C4F30252022A05D00F
:1030B00059F804CB0021032A08D009E009F10701DF
:1030C00021F00702F2E802C1914605E01FFA8CFCEC
:1030D000042A01D10CF0FF0C4FF00008220728D57C
:1030E000702806D0009B83F0100353EA0A0305D032
:1030F0000EE040228DF80420012208E05CEA010283
:1031000006D030228DF804208DF80500022290466A
:10311000009B83F0080353EA0A030AD15CEA010228
:1031200001D1620705D530228DF804204FF0010847
:103130007F1E582804D034A003900EA802900DE002
:1031400036A0F9E753466046009AFEF797FF84469B
:103150000398825C0298401E029002705CEA0100B3
:10316000F0D1029806A9081A00F1200A600702D5DA
:1031700024F4803400E00127574502DDA7EB0A0064
:1031800000E0002000EB0A01009005984144401A3D
:103190000590E00306D45B462146179A059800F097
:1031A000B3F90544002706E001A85A46C05D179907
:1031B00090476D1C7F1C4745F6DBE0030CD55B4652
:1031C0002146179A059800F09FF9054404E0302045
:1031D0005A46179990476D1C0099481E0090002987
:1031E000F5DC08E0029802995A460078491C0291E1
:1031F000179990476D1CBAF10001AAF1010AF1DCA0
:1032000065E10000092801003031323334353637AA
:103210003839616263646566000000003031323322
:1032200034353637383941424344454600000000C2
:1032300000F058F90544761C307800287FF4ECAD96
:1032400019B02846BDE8F08F620700D4062709F1BF
:10325000070222F0070CFCE80223E14603F00048D5
:103260005FEA080C02D00FF2702C0DE05FEA045CFC
:1032700002D50FF2682C07E05FEAC47C02D00FF29F
:10328000602C01E0AFF2700C4FF0FF3823F00043E8
:10329000CDF850C065280CD006DC452809D046285A
:1032A0001DD047283DD13DE0662818D067287ED143
:1032B00038E00021112F01DB112000E0781CCDE95E
:1032C000000106A90EA8FFF7DDFCDDE90F010E9A4B
:1032D00003910021009207F1010A04914DE04FF0A3
:1032E00000400097CDE9011006A90EA8FFF7CAFC1F
:1032F000DDE90F0203920E9B11990022DDF80CA06C
:103300000093049211B9791C00EB010AB7EB0A0093
:1033100004D4C0F1FF3007F1010A0490AAEB0700C2
:10332000019044E0012F00DA01270021112F01DD77
:10333000112000E03846CDE9000106A90EA8FFF7EC
:10334000A1FCDDE90F010E9A039100210491009286
:10335000BA4621070CD40399514500DA8A46BAF1DE
:10336000010F05DD009AAAF10101515C302908D056
:10337000B84202DA10F1040F06DA0121CDE901109A
:1033800015E0AAF10101E9E7002805DC04990144F0
:103390000491AAEB000102E0411C514500DD8A4680
:1033A0000499401A401C01904FF000400290200701
:1033B00004D40198504501DBCDF8048000208DF83D
:1033C0004F0002980DF14F07B0F1004F25D02B2090
:1033D0000E9002984FF0020800280CDA404202904A
:1033E0002D200E9007E00A210298FFF7EEF8303109
:1033F000029007F8011DB8F10001A8F10108F2DC04
:1034000002980028EFD1791E0E980870307800F0ED
:10341000200040F0450007F8020D12A8C01B00F183
:1034200007081498007800B1012000EB0A01019808
:1034300001EBE07105984144401A401E0590E003FD
:1034400006D45B462146179A059800F05DF80544BE
:103450001498007818B15A46179990476D1CE003EC
:1034600024D55B462146179A059800F04DF805448F
:103470001CE00498002807DBDDE90301884203DD36
:103480000098405C179901E0179930205A46904700
:10349000049805F10105401C04900198401E01901C
:1034A00004D12E205A46179990476D1CBAF100019D
:1034B000AAF1010ADDDC05E017F8010B5A4617995D
:1034C00090476D1CB8F10001A8F10108F4DC5B46DF
:1034D0002146179A0598ABE62D0000002B0000004E
:1034E000200000002DE9F041044600251E46174645
:1034F000880404D405E039462020B0476D1C641EC2
:10350000F9D52846BDE8F0812DE9F04104460025B3
:103510001E469046C80301D5302700E020278804C6
:1035200004D505E041463846B0476D1C641EF9D508
:103530002846BDE8F0814A68002A06D00A68531C74
:103540000B6010704868401E486070470A68531C42
:103550000B601070704700002DE9F05F0746894648
:1035600093464FEA5B04A2464D465F4EDFF87C81EE
:10357000EFF31080012181F31088D8F8A41221F014
:103580002001C8F8A41280F31088EFF31080012105
:1035900081F31088D8F8A01221F02001C8F8A012F9
:1035A00080F31088306820F08040306050483060F0
:1035B0003F20D8F8001160F30501C8F80011306809
:1035C00020F4601040EAC7403060306820F4E0200A
:1035D00040EA07403060052F03D1306840F40040D6
:1035E0003060062F03D1306840F48040306030688E
:1035F00040F400503060306820F060503060306837
:1036000020F00F0040F003003060EFF31080012144
:1036100081F31088344A3832116821F0E04141F0DA
:103620008041116080F31088306840F08040306045
:1036300001E0D8F80000D8F80401C0F30020002809
:10364000F7D1EFF31080012181F31088116841F068
:103650000041116080F3108834E000204FF47A714B
:103660001AE0884217D9306820F080403060306816
:1036700040F000403060306820F00040306008F0DA
:103680008BFE1C480168491C016054464D460520CC
:1036900078F4B5D26CE7401CD8F80421C2F30022BC
:1036A000002ADED0D8F8040100F07F01A14200D941
:1036B0002146002003E0D8F8002004C5401C8842C1
:1036C000F9D3641A002CC8D15FEACB7008D0D8F8BF
:1036D0000401C0F300200028F9D0D8F800002880A9
:1036E000BDE8F05F08F058BE08C500A000E000A0EB
:1036F0000A070807684A80002DE9F04107460E4690
:103700004FF000080024274D0BE004EBC40005EB4C
:103710008000801C07223946FEF71FFD40B1641C63
:10372000E4B22878A042F0D8B8F1000F18D102E036
:103730004FF00108F8E728780A21B0FBF1F201FB0D
:1037400012040A2801D2401C287004EBC40105EBC6
:1037500081003968C0F80210B988C180B979017256
:103760002B7811A21021002004F4E0F43078000737
:103770000BD504EBC40005EB800006F14601BDE863
:10378000F0410A301C22FEF7BDBC04EBC40005EB7F
:10379000800006F12A01BDE8F0410A301C22FEF744
:1037A000B1BC00006CCF8000523A313A61646420B1
:1037B0006C746B206974656D2C206E756D203D20D6
:1037C00025640A000449896B084004490A781043BB
:1037D00000220A7070470000002001A010468000FF
:1037E000104A114900280EDC0868C0F34120012866
:1037F00008D0506C401C5064086820F4C06040F44D
:103800000070086070470A28FCDB086810F4C06F7D
:10381000F8D0106C401C1064086820F4C060086088
:10382000704700009C4780000CC500A006460F466C
:10383000154672B63846FEF789FC402801D940206B
:1038400002E03846FEF782FC80463046FEF77EFCFA
:10385000402801D9402002E03046FEF777FC0446BC
:103860009C211048FEF767FC424639460D48FEF79A
:1038700049FC0C48224631465C30FEF743FC0948BF
:103880004FF0AA31016445644FF0BB3181644FF0C1
:10389000CC3101654FF0DD318165002000F004F886
:1038A000FEE700006C8E800030B5ADF20C4D044692
:1038B0004FF4806103A8FEF73EFC184D202085F8E8
:1038C0003F0085F89B003CB12846012C436DC26C3B
:1038D00009D0022C0CD00FE0104A11A15C3203A8D1
:1038E000FFF704F908E011A103A8FFF7FFF803E0D0
:1038F00016A103A8FFF7FAF803A90BA2686CCDE99B
:103900000121009018A3054A18A1002000F00EFE26
:1039100000F0D8FD0DF20C4D30BD00006C8E800023
:103920005B4552524F525D20257300005B57415258
:103930004E494E475D20506172616D303A25642CCE
:10394000506172616D313A25640000005B50415254
:10395000414D5D20506172616D303A25642C50619B
:1039600072616D313A256400000000006170705F83
:103970006173736572742E6300000000014877F470
:103980007B9700006C45800006460F4690461D461A
:1039900072B64046FEF7DAFB402801D9402002E02B
:1039A0004046FEF7D3FB04469C210D48FEF7C3FBBF
:1039B000224641460A48FEF7A5FB09484FF055311B
:1039C000016445644FF066318164C6644FF077311D
:1039D00001654765C94381650220FFF765FFFEE782
:1039E0006C8E80002DE9F04106460F4690461D463C
:1039F0004046FEF7ABFB402801D9402002E040469C
:103A0000FEF7A4FB04469C210D48FEF794FB2246DA
:103A100041460B48FEF776FB09484FF0113101642F
:103A2000456449008164C6644FF0333101654765E0
:103A30004FF044318165BDE8F0410120FFF734BF0C
:103A40006C8E800010B588B0817AC27A037B447B8B
:103A5000CDE90443CDE90621817BC07B13A240F26E
:103A60008D13CDE90032CDE902011E4B1EA224A127
:103A7000022000F05BFD244803F072FD2248002282
:103A80004FF47A71283800F0BFFF0446002C0AD0AA
:103A900014221449183103A8FEF734FBADF8104086
:103AA00003A800F033F808B010BD0000436F6E6E3D
:103AB0006563746564207769746820746865207034
:103AC00065657220253032583A253032583A253013
:103AD00032583A253032583A253032583A25303269
:103AE000582E00008C2101012E2E5C5372635C75F0
:103AF0007365725C757365725F6170702E63000030
:103B00004E4F5F5441470000A0CD80003EB50446B3
:103B10004FF400711A48FEF70EFB207810B101280F
:103B200019D01DE000211748A28830F831309A42A0
:103B300007D100EBC10014A143681148FEF7D6FF7E
:103B40000EE02E2902D0491CC9B2EEE714A10C48A0
:103B5000FEF7CCFF04E01DA109486268FEF7C6FF2E
:103B6000074921A22069CDE901210090D4E902236F
:103B70001EA1002000F0DAFCBDE83E4000F0A2BC2F
:103B80006C8C8000FC4380004572726F7220636F02
:103B90006465203078253034583A202573000000C1
:103BA0004572726F7220636F6465203078253034FF
:103BB000583A204E6F20666F756E6420696E666F8E
:103BC000726D6174696F6E2E0000000028257329E4
:103BD000206973206E6F742065737461626C697301
:103BE0006865642E00000000257300006170705F3E
:103BF0006572726F722E63002DE9F0410146002953
:103C00001BD000240F4E0E4A357814E002EB04104E
:103C10000F780378BB420CD14B684068034208D050
:103C2000707808B900F020FC2046BDE8F04100F0B3
:103C3000EBBA641CE4B2AC42E8D3BDE8F08100000A
:103C40000C8A8000D84380007CB505460E46002DC6
:103C500001D0002418E005207CBD05EB041041686C
:103C60000091017A8DF80410417A8DF80510072132
:103C70008DF80610C26800780023694600F048F805
:103C80000028E9D1641CE4B2B442E6D300207CBD34
:103C900010B50C46062833D2DFE800F0030303100A
:103CA0001E27184951F830002104090C04D018B11E
:103CB000214606F0DDFE1FE0042010BD2004000CAC
:103CC00003D0A1B2104806F0D3FE200C14D0210C72
:103CD0000E4806F0CDFE0FE014F0FF0F03D0204693
:103CE00006F0BCFC08E0042010BD14F0FF0F05D066
:103CF0002146002006F02EFF002010BD042010BD3C
:103D0000062010BD2C1F0101000001A0001001A021
:103D10002DE9F05F05460C46904699462768002637
:103D2000052D13D039462846FFF7B2FF2146284615
:103D300000F0ACF800280AD1042D0AD0032D2ED0B3
:103D40004FF0100B2807060E002491E00620BDE876
:103D5000F09F4FF0080B2079042806D0052809D0E1
:103D600006280DD0072815D110E00021384600F4B0
:103D7000E0F70FE040F20111384600F4DAF709E00D
:103D80004FF00111384600F4D4F703E03B493846C0
:103D900000F4CFF74FF0007075F4AAD1D4E74FF0DC
:103DA000200BD1E7F80760D0052D65D2DFE805F0DC
:103DB000030303254600324800EBC50090F904A038
:103DC000BAF1000F17D0EFF31081012080F31088B3
:103DD000A01900EB40022B4800EB8200C0F80480E1
:103DE000C0F8089081F31088504618F415D2504658
:103DF00018F430D239E00420A9E7EFF31082012053
:103E000080F31088A0191F4B00EB400003EB8001EA
:103E1000C1F80480C1F80890032103F8201082F350
:103E20001088062018F4F8D1062018F413D20720C1
:103E300018F4F2D1072018F40DD216E0EFF3108138
:103E4000012080F31088A01900EB40020E4800EB1F
:103E50008200C0F80480C0F8089081F31088122016
:103E600018F4DAD1122018F4F5D17F08641CE4B2FA
:103E70005C4597D300206AE7062068E7010101004E
:103E80002C1F0101808780000089800070B58EB0F2
:103E900005460C46564901F164004DC8CDE90A02B9
:103EA000CDE90C36D1E91E23486F06AED1F880105B
:103EB0000DC6099114224E49843101A8FEF722F95A
:103EC000ACB14C4906200CF0E1FF4B4907200CF047
:103ED000DDFF4A4912200CF0D9FF4549444A2C31F4
:103EE000062D7CD2DFE805F00606062141590520A3
:103EF0000EB070BD207931F810000B90607932F867
:103F000010000C90A0790D9020680A903848143069
:103F100050F8350021880904090C04D018B10AA909
:103F200006F0F4FD59E00420E2E7207931F81000B2
:103F30000B90607932F810000C90A0790D902068F9
:103F40000A9020680104090C05D080B20A900AA9E1
:103F50002B4806F0DBFD2068010C3ED0000C0A90D7
:103F60000AA9284806F0D2FD37E0207901EB40008D
:103F7000408A0790607902EB4000C0880890A079E1
:103F8000099020680690207810F0FF0F03D006A853
:103F900006F0B6FB21E00420AAE72079031F032BDB
:103FA00001D80720A4E702281AD001200290207926
:103FB00001EB4000808C0390607902EB4000808927
:103FC0000490A079059020680190207810F0FF0FF0
:103FD00009D001A9002006F015FE002088E704E0C2
:103FE00002200290E3E7042082E7062080E7000039
:103FF000181F0101674C8000614C80005D4C8000FF
:10400000000001A0001001A010B502460C460020DF
:10401000062A26D2DFE802F00303030B1A1F114819
:1040200050F83200A1B2BDE8104015F450952104BB
:10403000090C03D0A1B20C4815F449D5210C10D0BD
:10404000210CBDE81040094815F44195A0B2BDE827
:10405000104013F40F95A1B2BDE81040002006F007
:10406000D4BD10BD2C1F0101000001A0001001A053
:10407000002803D0024908600120704700207047E3
:10408000E043800070B505460024091F062917D2B9
:10409000DFE801F003070C111315284600F0A4F81F
:1040A0000EE00124284600F09FF809E0022428468B
:1040B00000F09AF804E0032402E0042400E0052460
:1040C000034A214628461268BDE8704010470000A8
:1040D000E04380002DE9F0410446204600F0AEF8B0
:1040E00001462E4800230826025D00F10A0700F170
:1040F0001405AAB1052A33D0082A2AD1092945D0A6
:10410000082926D1295D491CC9B22955142920D373
:104110002B5506552046BDE8F0410821FFF7B2BFF8
:10412000052913D0042916D0072914D0082910D145
:10413000295D491CC9B2295514290AD32B550655A6
:104140002046BDE8F0410821FFF79CBF3B55052103
:104150000155BDE8F0812046BDE8F041FFF792BF70
:1041600005290CD0395D491CC9B239553229F0D323
:1041700003552046BDE8F0410521FFF783BF0355F5
:104180002046BDE8F0410621FFF77CBF03552046DD
:10419000BDE8F0410921FFF775BF0000EC8A8000FF
:1041A00070B504460D4600F00FF808B100F072F942
:1041B0000348044A2946005D5268BDE87040104734
:1041C000008A8000D84380000020064911F81020A2
:1041D0000AB100207047401CC0B20A28F6D3012063
:1041E000704700000A8B80000349002201F810206C
:1041F00001EB4000427070470A8B8000014A02F8D0
:10420000101070470A8B8000024A012102EB400027
:10421000417070470A8B800070B50024064D05EB95
:104220004400407810B12046FFF754FF641CE4B20C
:104230000A2CF4D370BD00000A8B800070B50021F9
:104240001D4B03F132051A5C002A09D0002403F14A
:104250000A06012A0AD0022A12D0032A24D11FE01A
:1042600015F8102002B301221A541DE015F8102091
:104270001AB1345402221A5416E01C54042113E0DB
:1042800015F810204AB1325C521CD2B23254642A62
:104290000AD3072103221A5406E005211C5403E027
:1042A00015F8101011B10821084670BD1C54FFF715
:1042B0009BFF0921F8E70000D88A800010B588B07C
:1042C00000282DD101292BD116A05521CDE90010B0
:1042D0001D4B1EA226A1032000F028F901208DF815
:1042E0000C0004208DF8160040F2E370ADF80E00CB
:1042F00002208DF810001C208DF8110016208DF87A
:1043000012008DF813001C4C20788DF8140000204A
:104310008DF8170003A803F0B9F820780A30207050
:1043200008B010BD4368616E6765204375727265A1
:104330006E742054696D652076616C7565206D61C1
:104340006E75616C6C792E00A92001012E2E5C53D4
:1043500072635C706C6174666F726D5C75736572AC
:104360005F7065726970685F73657475702E630045
:104370004E4F5F5441470000804580002DE9F041D9
:104380000E4617460A2E02D80FB1002320E0002067
:10439000BDE8F08103EB430410F82410032901D099
:1043A000042913D100EB8405114AA97AD15410498C
:1043B00010F824200C3101EB03142270696861604D
:1043C000297A2172697A61720A49E1605B1CDBB269
:1043D000B342DFD3064831460C30FFF735FC0648C0
:1043E000067047600548FFF743FE0120D0E7000054
:1043F000008A8000F93B0001D8438000A141000100
:104400002DE9F0410024124FDFF8488019E0002622
:1044100007EB041528786968FFF7F6FD10B9697A8B
:10442000012902D0012802D005E0012603E0687AC4
:10443000022800D1012631462046FFF7DFFE641C2A
:10444000E4B298F800008442E1D3BDE8F0810000B6
:104450000C8A8000D843800010B5FFF7D1FFBDE87B
:104460001040FFF7D9BE000010B5074A01210748E8
:1044700000F060F900220A21044800F0C5FA04495E
:104480000120487010BD000059440001B08A80002E
:10449000D843800010B5034800F075F902490020A8
:1044A000487010BDB08A8000D8438000002806D034
:1044B000002904D0024AD269002A00D01047704770
:1044C000488C80000248006A002800D000477047EE
:1044D000488C800070B50D4616460D4C00280AD059
:1044E0000178032911D80121A17601461A2220461C
:1044F000FDF708FE05E00020A0761A210448FDF72C
:104500001AFEE5612662002070BD012070BD00002A
:10451000488C8000044A1044807D084201D001206C
:104520007047002070470000488C80002DE9FE4F46
:10453000DDF830B0064692469946002400270197E0
:1045400002975A480178B14202D2807E00287DD17C
:104550000DF13808CDF80080EFF311850220FEF749
:10456000FDFA014652480068C0F30220401C0122B7
:1045700082408818C0B280F3118801213046FFF7CD
:10458000C9FF38B14B484C4950F82620204600F06E
:10459000A5F804461C213046FFF7BCFF00285ED07A
:1045A00046A24549204600F099F8204484B20421EF
:1045B0003046FFF7AFFFF8B152463F49204600F0C2
:1045C0008DF8204484B208213046FFF7A3FF38B1AC
:1045D0003BA23949204600F081F8204484B20BE028
:1045E00010213046FFF796FF30B136A232492046FF
:1045F00000F074F8204484B208213046FFF78AFFA7
:1046000090B14A462C49204600F068F8204484B214
:1046100010213046FFF77EFF30B12BA226492046FD
:1046200000F05CF8204484B210213046FFF772FF9E
:1046300070B15B4626A2052101A8FEF73FFA01AA48
:104640001D49204600F04AF8204400E02BE084B2E7
:1046500020A21949204600F041F8204484B21648AF
:10466000C4F58071204443460D9AFEF753FA009733
:104670004FF48071002804DB2044884201DC86B2BC
:1046800000E00E46B01C884200D9FE2612A20A495C
:10469000304600F023F8304481B20748FFF706FFA8
:1046A000E8B280F31188BDE8FE8F0000488C8000DE
:1046B0000CED00E0E8438000488B800028000000FB
:1046C000200000003A000000204C696E653A0000AE
:1046D000256C6400292000000D0A000030B5054655
:1046E000002000290CD0002A0AD006E02B18FF2B4E
:1046F00006D8CC54521C401C80B21478002CF5D142
:1047000030BD000010B5094A06214CF201000AF044
:10471000B1FB02F06DFAF4220549002000F0B4FB71
:10472000BDE81040002074F49D920000A320010118
:10473000DC8F80002DE9F04104460D461746002D20
:1047400004D0012D02D00120BDE8F081CCB1C7B169
:10475000EFF311860220FEF7F3F98046FEF70CFA1C
:10476000401C0121814008EB0100C0B280F3118898
:1047700000206070A570E761F0B280F3118800201E
:10478000E2E70120E0E710B50446002C0CD02046FB
:1047900000F0CCF9FF2060700021A160E160216190
:1047A00061610020E06110BD012010BD10B586B030
:1047B000094A01210948FFF7BDFF0446002C09D032
:1047C0001422074901A8FDF79DFCADF8084001A897
:1047D000FFF79CF906B010BD517D000178CD800037
:1047E00078210101F0B5DDE90745059981614FF4B4
:1047F0007A76A2FB061C03FB06C3002702FB0732E6
:10480000C0E9021209196A41C0E9041200210162DB
:10481000F0BD00002DE9F0410446002C13D0EFF369
:1048200011850220FEF78CF90746FEF7A5F9401C1A
:10483000012606FA00F03844C0B280F3118812480D
:10484000002121620EE00020BDE8F081D4E90432AD
:10485000D1E9047CDB1B72EB0C0202D2016A2162FB
:1048600003E00846016A0029F0D104626670064838
:1048700020380168491C0160016C4160E8B280F396
:1048800011880120E0E70000D88980002DE9F0417F
:1048900005460024EFF311860220FEF751F9074682
:1048A000FEF76AF9401C012181407818C0B280F3FC
:1048B0001188134A106CE8B115B102F1200010E024
:1048C0000446206A10641068401E10600CE0A94283
:1048D00006D11168491E1160296A01622C4603E065
:1048E0000846016A0029F2D124B1002020626070DC
:1048F000106C5060F0B280F311882046BDE8F08162
:10490000B88980002DE9F041EFF311870220FEF70E
:1049100017F90446FEF730F9401C01218140601868
:10492000C0B280F31188114D002608E020780128DC
:1049300004D1E16909B1A069884726702D6A2C6A03
:10494000002CF3D1094D203D07E0E16909B1A069D0
:1049500088472670206AA8602662AC68002CF4D1D3
:10496000F8B280F311880120BDE8F081D889800079
:104970002DE9F041EFF311870220FEF7E1F804463C
:10498000FEF7FAF8401C012606FA00F02044C0B2F7
:1049900080F311881B4DA5F1200829E0D4E90420FB
:1049A000D8E90413521A60EB0300D8E906319A1AC9
:1049B000814120D326702046FFF768FFA0780128A8
:1049C00002D0104818380DE0D8E90430D4E90221AB
:1049D0009A184841C4E904202046FFF71BFF07E06E
:1049E00001F1200001680029FAD121620068046207
:1049F0002C6A002CD2D1F8B280F311880120BDE8D6
:104A0000F0810000D88980002DE9FF5F82460E46C4
:104A100093464FF00008BAF1000F20D0414886427B
:104A20001DD8E6B1EFF311870220FEF789F804469E
:104A3000FEF7A2F8401C012181406018C0B280F34B
:104A40001188504607F00EFA10B19AF8010040B1F3
:104A5000F8B280F311880F2004B0BDE8F09F012068
:104A6000FAE709F049FF04460D464FF47A7106FB58
:104A700001F022462B46002107F0C4F9DFF8A89088
:104A8000B0B1D9F8040048B1D0E90410091B60EBBB
:104A90000500C9E9041009F0CBFF04E00021C9F8C2
:104AA0001010C9F814104FF00108D9E9040106E00C
:104AB000D9F80400D0E90421101B61EB0501CDE910
:104AC000020132460023CDF800B05046FFF78AFEBF
:104AD0005046FFF79FFE0CF077F84FF0E021D1F839
:104AE00000014FF0806210F0806F01D0012000E0E3
:104AF000002018B9C1F88022C1F80021B8F1000FD8
:104B00000AD0D9F80400D0E90431D9E90402181A0E
:104B100061EB020109F026FFF8B280F31188002052
:104B20009AE70000008AB907B88980002DE9F041B2
:104B300004460025002C39D0EFF311870220FDF741
:104B4000FFFF0646FEF718F8401C0121814070184F
:104B5000C0B280F311886078012824D1144E7068A7
:104B6000A0420BD109F0C8FED4E90432181A62EB56
:104B70000102C6E9040209F05BFF01252046FFF7A8
:104B800085FE5DB1706848B1D0E90421D6E904031F
:104B9000101A61EB030109F0E5FE04E01DB970682D
:104BA00008B909F045FFF8B280F31188BDE8F0813B
:104BB000B889800070B504461A4D55F8240070304D
:104BC0000BF083FA82B21646A2B155F8240090F891
:104BD000011101290ED0012180F80411802A0FD380
:104BE00055F82400802200F1800170300BF082FA29
:104BF00080260CE055F82410002081F8000170BDDB
:104C000055F8240000F1800170300BF073FA55F86C
:104C10002400324600F18001001D1CF40BD700284F
:104C2000EDD170BDCC43800010B5017802290AD1C6
:104C30008188054802F0CAFBF422BDE81040024911
:104C4000002000F021B910BDDC8F80002DE9F84371
:104C50000446464F57F82400061D022C7DD290F8DA
:104C60006C10002979D001297ED180F80111002132
:104C700057F82400D0E903231344027D02F0010217
:104C8000D21D9D184268D36FC3F38003002BFAD066
:104C900090F80421A2B1364A1368491C90F83B20D1
:104CA000102A06D08268B3FBF2F26A43B1EBC21F4E
:104CB000F3D957F8240070300BF007FA85B226E0DC
:104CC000B0F82480C58C001D1CF42CD357F82400A8
:104CD00041F2883300EB0801491B8031001D2A4650
:104CE0001CF46DD6E5E757F82400012270306946C0
:104CF0000BF000FA57F824004068C16FC1F340017F
:104D00000029FAD09DF8001001606D1EADB2002D93
:104D1000E9D157F8240070300BF0D7F90028C8D13A
:104D2000306841694906FCD5EFF31085012080F316
:104D3000108857F8240070300BF0C7F958B1EFF322
:104D40001081012080F310883068426842F08202AE
:104D5000426081F31088002000E005E057F824103D
:104D600081F8010185F31088BDE8F883CC43800009
:104D7000044180002DE9F04389B0054688462C782F
:104D8000002D06D02AB1022C05D3082009B0BDE8B9
:104D9000F0830520FAE7384E05F1580046F8240064
:104DA000D2E900310A46703019460BF079F9291D15
:104DB000894624220C316846FDF7A4F9291D286D87
:104DC0000EC90CF003FE0028E0D12C490C200CF099
:104DD0005DF82B490D200CF059F82A4800EBC40768
:104DE00097F9010017F418D297F9010017F432D29D
:104DF00056F82400C0F8649056F82400C0F80080EB
:104E000056F824001822083005F14001FDF77AF920
:104E100056F824107868486056F82400001D06F003
:104E200025F956F82400001D06F056F9351F012714
:104E3000287850B92F701348032110300AF058FC1D
:104E40006880002801DA0420A0E756F8240080F8E2
:104E50006C7056F82410002081F8000156F82410D8
:104E600081F8010156F8241081F8020156F8241047
:104E700081F803018AE70000CC4380007D2A00010D
:104E80008D2A0001B81F010170B5022801D3082046
:104E900070BD134C54F820304BB193F86C5035B1C1
:104EA00039B132B193F80351012D04D010E005203F
:104EB00070BD042070BD002583F8035154F82030E4
:104EC0005B680225C3F8885054F820305B681B6883
:104ED00054F82000001D06F013F90028EAD170BD37
:104EE000CC4380002DE9F04104461A4D55F82400CA
:104EF00070300BF0EAF882B2164600277AB155F806
:104F0000240090F80111012909D0802A0ED300F164
:104F10008001703080220BF0EDF880260BE055F810
:104F2000240080F800710020BDE8F08100F18001CC
:104F300070300BF0DFF855F8240080F8047155F854
:104F40002400324600F18001001D1CF4B9D5002870
:104F5000EAD1E9E7CC43800070B5022801D30820EC
:104F600070BD0C4D55F820407CB194F86C6066B172
:104F700069B162B1002684F8026155F82000001D75
:104F80001CF41DD50028EBD170BD052070BD042098
:104F900070BD0000CC4380002DE9F04106460C4670
:104FA000174604F10805204670F406D4C3B21B4826
:104FB000E1184268914202DD0320BDE8F081184902
:104FC000184A006809681268891A081A001FE91847
:104FD00081421CD94FF4004513A22946002003F456
:104FE000A5F001F0EDFE30B118A22946002003F42F
:104FF0009DF00820E1E71DA22946002003F496F069
:105000003A4621463046BDE8F0410CF0B1BE3A4682
:1050100021463046BDE8F0410CF0AABED8328000EF
:10502000D0238000CC238000523A353A4E56445368
:105030002061726561206973206265696E67206313
:105040006F6D7061637465642E0D0A00523A353AD3
:10505000436F6D70616374696E67204E56445320D0
:105060006661696C65640D0A00000000523A353AC9
:10507000436F6D70616374696E67204E56445320B0
:105080007375636365737366756C0D0A00000000C9
:105090007CB50D46002200920192694603F448F067
:1050A000044634BB4FF42051684603F443F0B8B9CA
:1050B00042F60101684603F43DF088B942F6030167
:1050C000684603F437F058B942F60201684603F423
:1050D00031F028B94FF42451684603F42BF008B19D
:1050E000062406E00098C5F30B0180880843009968
:1050F000888020467CBD00002DE9F04782460E46A0
:10510000174698464FF001090025D8F80040002CBA
:1051100018D11E48046815E03188A08881420BD35D
:10512000E088814204D82146504600F031F808B1A9
:10513000246807E0012505E02146504600F028F8E4
:1051400010B1246825B105E00125A0883080F9E779
:10515000002CE1D1B5B14FF00009A0883188884218
:1051600004D1201D38600120387109E0081A401E62
:1051700000EB400004EB40000E3038600020387136
:10518000C8F800404846BDE8F0870000F80E8000EF
:1051900070B586B0002200EB4003114C03EBC00356
:1051A00004EB43052C7D17E035F8123093B18E885F
:1051B0009E420FD8CE889E420CD3CA8889888DE83B
:1051C0001F00084B084A4021002002F4AFF70120DD
:1051D00006B070BD521CD2B29442E5D80020F7E769
:1051E000F0D0800026240101082C01012DE9F04FA8
:1051F0008BB007460C460025002008900990608877
:105200000790261FE188A288CDE901210090614B1B
:1052100061A24021002002F489F7308850B9384655
:105220000FF4FCD6401E30806088A188884200D8E8
:1052300000B90125DFF89091002D60D104F10A003A
:105240000DF1200A0DF1140B04F106080A90A08854
:10525000069004A8CDE9020BCDE9008A022306AA34
:1052600007A9384600F0ACF90546280008D00A2DF9
:1052700045D0062D43D0BDF81800401C079032E001
:10528000E088B0F5205F03D042F60101884208D1E2
:10529000BDF81000217AC3B2059A0A9802F44CF7BF
:1052A00048B92289BDF81000824218D105990A98A0
:1052B000FCF753FF98B9022108202AF405D60146CD
:1052C000BDF81C008880BDF81800C880083E59F859
:1052D0002700603002F432F7384602F431F7BDF8A7
:1052E0001800401C0790A088BDF81C10884206D307
:1052F000BDF81810884202D030880428A7D2062DA5
:1053000036D059F82700603002F41CF740B300246F
:105310004FF6FF7101EA8006062000EB0723072203
:105320000421384600962DF47FD101464E8059F86D
:105330002700006E0EE083880A1913711B0A53714F
:10534000A41CA4B2C3880A1913711B0A5371A41CAC
:10535000A4B200680028EED1084602F4F5F60AE08F
:1053600021780A23BDF81C20384602F4EFF602E04B
:10537000BDF81C006080074B14A24021002000955E
:1053800002F4D4F6062D03D000200BB0BDE8F08F58
:105390000120FAE7EE230101523A333A5B25735DAF
:1053A00020656E7465722C2073683D307825782CEA
:1053B0002065683D307825782C20747970653D3003
:1053C0007825780A00000000C40E8000523A333A73
:1053D0005B25735D20657869742C20737461747526
:1053E000733D307825780A002DE9F04F85B081466D
:1053F0000E4648460FF412D6801E1FFA80FAD04699
:105400000024B0887188CDE90010574B57A2402185
:10541000002002F48BF67088B188DFF874B18842FE
:1054200011D880B170880490002002900390019000
:1054300001AB02AA04A94846FFF75EFE0546280014
:1054400003D00A2542E0012540E0B088BDF81010E5
:10545000884232D3022118202AF436D5074601208B
:1054600000900023FA1DB91D02A802F471F605464A
:10547000280007D040F24E2346A22946BDF810006E
:1054800002F468F6BDF81000B88004B9BC79B879A8
:10549000A04203D038462AF497D317E05BF82900DE
:1054A0003946603002F44AF6A8EB0400801E1FFA69
:1054B00080F8BDF81000401C0490B188BDF81000C1
:1054C000814203D310B1A01C8045B1D25BF8290002
:1054D000006E18B1002018B19DB334E00120FAE746
:1054E0000026AAEB08081FFA88F00090062000EBBF
:1054F00009230522042148462DF496D00746022CA4
:1055000008D0022078707888404478805BF82900C1
:10551000046E10E00120F5E7A188B8198180B61C5F
:10552000B6B2B819A279001DE11DFCF7EBFDA07918
:10553000304486B22468002CEED1384602F404F6DA
:1055400007E0FFE70A25728831782B46484602F4C7
:10555000FDF5054B13A240210020009502F4E6F56D
:1055600005B00020BDE8F08FD5230101523A333A4F
:105570005B25735D20656E7465722C2073683D3009
:105580007825782C2065683D307825780A00000061
:10559000C40E8000617474735F70617463682E63FD
:1055A00000000000523A333A5B25735D206578694C
:1055B000742C207374617475733D307825780A00FB
:1055C0002DE9F04F87B08346DDF844900C46154630
:1055D0009A460026B4F800800027019701AB4A469E
:1055E00021465846FFF788FD10B12888208026E024
:1055F0002088298888421BD8002302AA06A9484689
:10560000009702F4A5F5014629B1208840F26913FC
:105610001AA202F49FF59DF8183002AA514610987C
:1056200002F48AF508B1012602E02088401C20809F
:105630002EB920882988884201D80028CED16EB1A1
:1056400022884B460021584602F486F5C6B22088CF
:10565000494602F483F5288026B10AE00A26A4F818
:10566000008006E02188DDE91223584602F478F52F
:10567000C6B207B03046BDE8F08F000061747473A5
:105680005F70617463682E63000000002DE9F041D3
:1056900005460C46FF26217A1E2905D022480279AC
:1056A000521E52B200683AE004F10801284602F4A2
:1056B00059F5064635E010F832308B422DD11B4E9D
:1056C00056F82500406F30B300273B4618A2402112
:1056D000002002F42BF5062000EB05202AF44AD620
:1056E000C00605D5002717A24021002002F41EF5B0
:1056F00021460C3956F82500743002F41FF50020BD
:10570000A08001266FB115A2402102F40FF52846B2
:1057100002F42AF505E00127D7E7521E52B2002A0B
:10572000C9DA3046BDE8F0817C058000C40E8000F7
:10573000523A333A657865637574653D30782578FB
:105740000A000000523A333A636F6E6E656374204C
:105750006E6F742063666D0A00000000523A333A9F
:10576000737461727420657865637574650A0000EE
:105770000348024901600D21416070473423010153
:105780007C0580002DE9F04F8BB082460C46002648
:10579000002009900A9060880890251FB04629884B
:1057A000A288CDE9012100906D4B6EA2402100201E
:1057B00002F4BCF4288850B950460FF42FD4801E50
:1057C00028806088A188884200D800B901267148E5
:1057D00050F82A00006E10B1002111B103E0012140
:1057E000FBE790F80680002E5DD104F1080BA0883D
:1057F000079006A805A909AACDE90210CDE900B2D3
:10580000A37907AA08A95046FFF7DAFE064630003A
:1058100049D1BDF81410884502D0B8F1000F42D12B
:105820002888001FFB22FB2800D31046814200D2AB
:10583000084687B2022107F10C002AF445D38146BD
:10584000BDF81480BDF82000A9F80400BDF81C00C4
:10585000A9F8060089F808703A4609F10900069986
:10586000FCF750FC2888C01B001F28804948494687
:1058700050F82A00603002F461F4BDF81400874249
:1058800002D1504602F45CF4BDF81C00411C89B200
:105890000891A2888A4206D3824204D0298808F15E
:1058A00004008142A3D2062E48D03A4D55F82A0072
:1058B000603002F447F4C0B3002755F82A100C6E8C
:1058C000217A091D41431FFA81F8062000EB0A23C3
:1058D000112204215046CDF800802CF4A5D60546AF
:1058E000A5F80280217A091D697018E0A188E819DD
:1058F0000171090A4171BF1CBAB2E188A81801718F
:10590000090A4171921C97B2E819227A001D04F12C
:105910000901FCF7F7FB207A384487B22468002C91
:10592000E4D1284602F410F40BE0FFE72178334677
:10593000BDF82020504602F409F402E0BDF8200032
:105940006080074B14A240210020009602F4EEF381
:10595000062E03D000200BB0BDE8F08F0120FAE73F
:10596000B5230101523A333A5B25735D20656E74AD
:1059700065722C2073683D307825782C2065683D51
:10598000307825782C2072655F6C656E3D30782507
:10599000780A0000C40E8000523A333A5B25735DEA
:1059A00020657869742C207374617475733D307848
:1059B00025780A002DE9F04F8BB082460C46002670
:1059C000002009900A9060880890251FB046A188A1
:1059D000694BCDE9000169A24021002002F4A6F341
:1059E000288850B950460FF419D3801E288060884B
:1059F000A188884200D800B90126694850F82A00D9
:105A0000016E11B1002010B103E00120FBE791F815
:105A10000680EEBB04F1080BA088079006A805AA33
:105A200009A9CDE90220CDE900B1A37907AA08A907
:105A30005046FFF7C5FD0646300047D1BDF81410AB
:105A4000884502D0B8F1000F40D12888801EFD2281
:105A5000FD2800D31046814200D2084687B20221B9
:105A600007F108002AF430D28146BDF81480BDF851
:105A70002000A9F8040089F806703A4609F10700E9
:105A80000699FCF73FFB2888C01B801E288000E099
:105A90001CE04348494650F82A00603002F44EF3B7
:105AA000BDF81400874202D1504602F449F3BDF814
:105AB0001C00411C89B20891A2888A4206D3824206
:105AC00004D0298808F102008142A5D2062E40D0D8
:105AD000334D55F82A00603002F434F380B30027C8
:105AE00055F82A100C6EA179891C41431FFA81F8E0
:105AF000062000EB0A23092204215046CDF800803D
:105B00002CF492D50546A5F80280A179891C69700C
:105B100010E0A188E8190171090A4171BF1CBFB2E8
:105B2000E819A279001DE11DFCF7ECFAA0793844D0
:105B300087B22468002CECD1284602F405F30BE070
:105B4000FFE721783346BDF82020504602F4FEF2EC
:105B500002E0BDF820006080074B12A24021002027
:105B6000009602F4E3F2062E03D000200BB0BDE84D
:105B7000F08F0120FAE700000A240101523A333A7B
:105B80005B25735D20656E7465722C2073683D30F3
:105B90007825782C2065683D307825780A0000004B
:105BA000C40E8000523A333A5B25735D20657869F4
:105BB000742C207374617475733D307825780A00F5
:105BC0002DE9FF5F81460F460024A246CDF808A0CC
:105BD000CDF80CA0584850F82900603002F4B2F219
:105BE00080463D1F79882888544BCDE9001054A287
:105BF0004021002002F49AF22888E8BB48460FF4BE
:105C00000DD2401E2880002611E007EB460002ABB3
:105C100082880021484602F49FF2C4B2CDF808A061
:105C2000CDF80CA00CB1B0463BE0761CB6B278883B
:105C3000B042EAD835E007EB48006B46818801AAFC
:105C4000484602F48DF2C4B23CBBBDF8040029887A
:105C5000884200D3084686B2022106F108002AF4E1
:105C600033D18346ABF8046032460BF1060000994D
:105C7000FCF748FA304800E013E050F82900594694
:105C8000603002F45BF2484602F45AF22888801B26
:105C9000288008F101081FFA88F8CDF808A0CDF88F
:105CA0000CA07888404503D9288808B1002CC2D0C0
:105CB00044BB48460FF4B2D12988401A401E86B230
:105CC0000025062000EB09230F22042148460096F8
:105CD0002CF4AAD48246AAF80260174850F829008A
:105CE000066E0AE00AEB0500B288001DB11DFCF744
:105CF00009FAB088284485B23668002EF2D15046A1
:105D000002F422F24CB1062C07D007EB4800397898
:105D100082882346484602F419F2084B14A2402117
:105D20000020009402F402F2062C03D0002004B0FC
:105D3000BDE8F09F0120FAE7C40E80009C2301011A
:105D4000523A333A5B25735D20656E7465722C2080
:105D50006E625F68616E646C653D307825782C20DA
:105D600072655F6C656E3D307825780A0000000032
:105D7000523A333A5B25735D20657869742C207341
:105D800074617475733D307825780A0010B5002170
:105D90000A4C0023002001EB410202EBC10204EB9C
:105DA000420222F81030401CC0B20A28F9D3137501
:105DB000491CC9B20A29EDD310BD0000F0D0800003
:105DC0001FB50F4890F80201002818D068464EF41D
:105DD000B1D2DDE900010B4CCDE90201E1680844D4
:105DE000094920F07040486008464EF439D5607883
:105DF00018B1BDE81F400AF09DBA0AF0B7FA1FBDFE
:105E0000C01A800024498000B41A80000246002095
:105E1000002152F821300BB1401CC0B2491CC9B25C
:105E20000C29F6D3704710B507F046FFBDE81040C7
:105E300003F03CBB07F0D6BC10B58CB008A80BF043
:105E400025FABDF8221009989DF82120CDE904100B
:105E50009DF820302FA04FF4E771CDE90232CDE953
:105E60000010364B36A23CA10220FEF75FFB0AA8C9
:105E700060F49ED0044654B114223049103103A876
:105E8000FCF740F9ADF8104003A8FDF73FFE9DF880
:105E900028009DF82910CDE906109DF82A209DF8CC
:105EA0002B30CDE904329DF82C109DF82D002CA24A
:105EB00040F2D313CDE90032CDE902011F4B20A2FD
:105EC00025A10220FEF732FB30A04FF4ED71CDE9A1
:105ED00000101A4B1AA220A10220FEF727FB0AF09D
:105EE000F7FD02F0CBFFFEF761FC3049002000F027
:105EF000C3F90446002C0AD014221049243103A807
:105F0000FCF700F9ADF8104003A8FDF7FFFD0CB059
:105F100010BD0000476F6F64697820424C452053E4
:105F2000444B205625642E25642E25642028636F5B
:105F30006D6D69742025782900000000DC210101C5
:105F40002E2E5C5372635C757365725C757365723B
:105F50005F6170702E6300004E4F5F544147000038
:105F60004C6F63616C20426F61726420253032583F
:105F70003A253032583A253032583A253032583A9C
:105F8000253032583A253032582E0000437572724F
:105F9000656E742054696D65206578616D706C65FF
:105FA00020737461727465642E000000BC4580002B
:105FB0002DE9F0410546884628466AF4C1D0C0B2B2
:105FC0002449097888420DD200EB4000213040F48A
:105FD00000404246AC2108F04DFF0446200032D07C
:105FE000012430E06AF4F0D0C7B207EB470606F1AF
:105FF000200040F400402A46072108F03BFF10B182
:106000000120BDE8F081384676F42ED206F1210059
:1060100040F400404246AC2108F02CFF044620002A
:1060200001D00120EDE7223646F4004008F078FD6B
:106030000949C7EBC7000968084429680160A988B5
:106040008180A97981711CB941462846FDF754FB2E
:106050002046D6E7382380003C238000002070478C
:1060600010B50AF0DDF90AF00DFA0AF077F909F037
:10607000FBFD0BF0A7FA00F0EDFB0AF017FA00F0B9
:1060800037FBBDE8104000F019BB09F071BD10B539
:1060900006F05CFD07F01CFF06F068FD07F078F9DC
:1060A00006F0C8FD06F0F8F8FFF762FB03F0AEFD5E
:1060B0000AF090FA0AF0C8FEBDE81040FFF766BE8D
:1060C0000148FFF7A3BE0000B413800010B5FFF72E
:1060D000DCFF054903480860BDE81040034875F43B
:1060E0003594000017B8800474C500A0008793039E
:1060F00010B50446002C0CD0204600F07BFA002896
:1061000007D104494968002903D02046BDE8104062
:10611000084710BDF846800010B586B0018840F2EF
:106120000133A1F2013299423CD01BDCB1F5807FF2
:1061300023D0A1F50071073924D0012910D1017AAB
:1061400000290DD1408800280AD12BA04FF4D97125
:10615000CDE900102E4B2FA234A10320FEF7E6F963
:1061600006B010BD012A23D0052AF9D1007906B066
:106170000121BDE8104060F4179506B0BDE810405D
:10618000FFF75ABE40880028EAD02AA140F2AB129D
:10619000CDE9002102901E4B1EA224A10320FEF790
:1061A000C5F9DDE706B00830BDE81040FDF74ABC90
:1061B000007A29A140F2BB12CDE900210290144BD4
:1061C00014A21AA10220FEF7B1F92948FEF7AEFC8D
:1061D0002849002000F050F80446002CC0D01422BA
:1061E0000B49103101A8FBF78DFFADF8084001A85D
:1061F000FDF78CFCB4E70000416476657274697346
:10620000696E672074696D656F75742E00000000FB
:10621000B82101012E2E5C5372635C757365725C4C
:10622000757365725F6170702E6300004E4F5F542E
:1062300041470000416476657274696E672073742B
:106240006172746564206661696C656428305825E4
:10625000303258292E000000446973636F6E6E65FA
:10626000637465642028307825303258292E000068
:1062700078CD8000BC4580002DE9F84307460D46E7
:10628000EFF311865948017859480068C0F302209D
:10629000401C012282408818C0B280F311886AF441
:1062A00025D08046052F06D352A21021002001F4EC
:1062B0003DF7152487E09DB15148C7EBC70100EBBE
:1062C0008104E06860B1607A08B167F469D7607AE8
:1062D00068B14CA21021002001F428F70F2472E0CD
:1062E0004BA21021002001F421F702246BE0206969
:1062F000F8B9E068017841B1012910D047A2102116
:10630000002001F413F723245DE08078400710D4C7
:1063100045A21021002001F409F7232453E08078DE
:10632000800706D443A21021002001F4FFF62324A5
:1063300049E0E06841888A0704D50278012A01D142
:1063400062691AB10278022A07D008E03CA2102143
:10635000002001F4EBF6252435E0A26962B10907BB
:1063600011D5298809B180290DD938A21021002022
:1063700001F4DCF6262426E037A21021002001F4E7
:10638000D5F624241FE0407802280CD1288818B1C3
:1063900044F25061884206D932A21021002001F453
:1063A000C5F626240FE0E06928B90021042065F431
:1063B0009BD2E061B8B1E0692968016039460020EC
:1063C0006AF4F0D000243B4629A21021002000945A
:1063D00001F4ACF6404669F453D7F0B280F311886B
:1063E0002046BDE8F8831024EDE7000002E400E059
:1063F0000CED00E0523A313A453A310A0000000013
:106400007C278000523A313A453A330A00000000B6
:10641000523A313A453A320A00000000523A313AD3
:10642000453A360A00000000523A313A453A340AF9
:1064300000000000523A313A453A350A00000000A7
:10644000523A313A453A370A00000000523A313A9E
:10645000453A390A00000000523A313A453A380AC2
:1064600000000000523A313A453A31300A0000004B
:10647000523A313A6164765F73746172745B256479
:106480005D3A20453A3078253032780A0000000025
:106490000A2805D2034A002152F8200080F88F1004
:1064A00070470000C40E800070B504460D462046BB
:1064B0000AF04EF8002805D129462046BDE8704074
:1064C00062F4789570BD70B504460D4620460AF01A
:1064D0003FF8002804D12946204663F417D680B23D
:1064E00070BD000070B505460E46002D05D00D4864
:1064F00068F43AD084B214B110E0022070BD1420C8
:1065000075F4ACD4014659B10D61CE60064A50789D
:106510000871401C5070101D05F039FF204670BDF9
:10652000102070BD1C2301019047800070B5044607
:106530000D4620460AF00CF8002805D129462046D1
:10654000BDE8704063F4289770BD70B504460D46F1
:10655000204609F0FDFF002804D12946204664F4B6
:1065600007D280B270BD000000B58BB00949012090
:106570000870FF22282101A8FBF7D6FD4FF4807098
:10658000ADF804000020ADF8060001A8FFF7B0FD4B
:106590000BB000BDF846800010B506480068002822
:1065A00000D08047FFF774D808B1012010BD00204B
:1065B00010BD00008449800010B540F4404008F050
:1065C000AFFA10BD10B540F4404008F053FC10BDC8
:1065D0000449016004494160044981600449C16083
:1065E0007047000041C2060015C20600C5650001E3
:1065F000B965000170B50446002C1FD04FF6FF733B
:106600001946228840F20155A2F201504FF48076DB
:10661000AA424CD01BDC40F20245A2F20240AA4240
:1066200034D00DDCA2F54072013A25D0012A23D0E6
:10663000FF2A29D0B2422ED121892CE0002070BD42
:10664000012825D0022825D0FE2824D12AE00428BC
:106650002DD006DC01282AD0022828D003281AD100
:1066600025E0052823D0062821D0B04213D12046AA
:1066700003F07EF9002070BD204603F0ADFD2046FA
:1066800003F026FC002070BD218904E0218902E08E
:10669000618900E0218A99420ED0204603F0ACFDCA
:1066A000012070BD204603F0A7FC002070BD2046ED
:1066B00003F01EFC002070BD002070BD10B521212C
:1066C000094809F087F90721084809F07DF90121F7
:1066D0000548083809F072F9FFF7D9FC0520FFF7E3
:1066E000A9FBFFF7A0FB10BD144180001C428000F5
:1066F00004490348086005490348086070470000E2
:10670000558900010C228000918B00011822800025
:1067100070B50026150A0E4805EB450200EB021481
:10672000098821800120A0702846FFF7B1FE0020D3
:1067300069F4A6D50748016829B10B681BB1228806
:1067400000212846984769F4D1D5304670BD000035
:10675000D42E8000B82280003EB500241D0A0A789D
:10676000122A02D0132A04D006E000208DF800007F
:1067700002E001208DF800008888ADF80400488808
:10678000ADF80200891D0291002069F479D50B480B
:10679000016829B18A691AB169462846904708E01C
:1067A0009DF80000012804D1BDF804102846FFF729
:1067B0007BFE69F49BD520463EBD0000B4228000DC
:1067C00001480078704700009C4980007CB50E4667
:1067D000150A0020009001906946284673F4CED532
:1067E0009DF806206946284603F0D2F80446CCB14D
:1067F00063F4CCD3C0B163F4C9D3C01C81B2328876
:10680000002320466DF4AAD76946284609F01EFFEA
:1068100040B106A24021002001F488F421466846D8
:106820005FF412D100207CBD0020E7E7523A333AF2
:106830007361766520636363640A00007CB5DDE9FB
:106840000654CDE9005467F4CDD1BDE87C4008F092
:106850008DBF000002490148086070473D68000193
:106860004823800010B588B0044667F449D400205E
:10687000079007A855F4F0D20798FFF7A9FE206803
:10688000019060680290A0680390E0680490208AFC
:10689000ADF81400608AADF81600A08AADF81800B3
:1068A000E08AADF81A0001A855F400D355F4E0D2FF
:1068B0000348016801614168416108B010BD0000F2
:1068C000300100B010B58AB00446FF222821684686
:1068D000FBF72AFC40F20271ADF800100021ADF880
:1068E00002108DF804406846FFF702FC0AB010BDA4
:1068F00030B58568027B002D02D0002001210CE01C
:10690000104630BDCB0801F00704EB5CE340DB0729
:1069100001D0401CC0B2491CC9B28A42F2D830BD75
:1069200000230849496808E0CA88824204D80A89D5
:10693000824201D3CB6802E009680029F4D11846ED
:10694000704700009047800001460548406803E01A
:1069500002798A4202D000680028F9D1704700000D
:106960009047800070B5104E3078FFF7EDFF044679
:10697000200006D0206963F4EDD50546280002D03A
:106980000DE00C2070BD2069FFF7B2FF01462069C1
:1069900002681288E280006800880844208130780C
:1069A000401C3070E8B270BD9047800070B5194847
:1069B0000468194D2878002801D0002070BD4FF0E0
:1069C000806072F495D300F46BF2600873F4A0D287
:1069D000124908608817114901262C3908601049AE
:1069E0007006C1F8FC01C8674FF03041086B40F0F9
:1069F00007000863094C303C206840F4E020206028
:106A000000F490F22E70206820F4E0202060012035
:106A100070BD00006C2480007C49800070C500A01F
:106A200084E000E070B50024EFF31086012080F3CD
:106A3000108800F492F2104D28B102242968B9B1EF
:106A40000220884714E0FFF7A7FD20B1296879B13B
:106A5000002088470CE0FFF7A9FF28B1022429682D
:106A600031B10220884703E0296809B10020884736
:106A700086F31088204670BD5C24800010B5084A5B
:106A80001378002B01D00F2010BD31B150600448A5
:106A9000243000F007F8002010BD022010BD0000D7
:106AA000F84680002DE9FC4705460C46FFF7D8FA6A
:106AB00069F41CD407463648006800B18047354960
:106AC00001200AF0E3F9344902200AF0DFF901203D
:106AD000FBF710FBA08E81B2206B02F0D3FCDFF835
:106AE000BC90DFF8BC80E16999F8000098F80020BC
:106AF0000244B1FBF2F1CEB216FB00F1A06965F4DD
:106B000055D4286863F4E4D768685FF4F1D628693F
:106B100067F490D3A86862F489D1E86862F42ED251
:106B200020484CF4B7D520484CF4BAD51F484CF453
:106B3000BDD51F4855F4E6D11E484CF461D51E481A
:106B40004CF464D51D484CF467D51D4865F402D457
:106B50004FF0806072F4CCD22046FFF783FED4E978
:106B60000A01CDE9000199F80010A06916FB0100A7
:106B700098F8001016FB01F1D4E90823114C2468A1
:106B8000A047384669F47CD3BDE8FC4765F4C69459
:106B90008026800039380600DD37060029D5070039
:106BA0002AD50700119F0700B9C3060065C4060077
:106BB000EDAF070025ED060045ED060065ED06008A
:106BC000799B070048238000034900EB800001EB1C
:106BD0008000808870470000F4478000034A00EB83
:106BE000800002EB8000818070470000F447800045
:106BF00010B500F065F800F047F8BDE8104000F06F
:106C000001B8000000B58FB003228DF800204FF4CA
:106C10008050019005218DF8081001208DF80900A1
:106C200000238DF80A308DF80C20430304938DF86F
:106C300014108DF815008DF816008DF81820C30378
:106C400007938DF820108DF821008DF822208DF803
:106C5000242082030A928DF82C108DF82D00022238
:106C60008DF82E2004238DF830300D928DF83810D9
:106C70008DF839008DF83A30024A6846FDF77EFB00
:106C80000FB000BDBD4200017CB510260096022465
:106C90008DF804408DF8054007258DF806506946AB
:106CA0000320FDF7F3F800968DF804408DF80540B9
:106CB0008DF8065069460520FDF7E8F87CBD000018
:106CC00000B587B000F01EF803208DF800001D20ED
:106CD0008DF8160001208DF817008DF818008DF83A
:106CE0001900044A04496846FDF7F4FBFCF746FE28
:106CF00007B000BDFD6C0001556D00010020FDF7DF
:106D0000A5BF00001CB5114800904FF480640194A9
:106D100000F58060002101704FF4E132026403222B
:106D200042648164C1640165012141650274CB0242
:106D300043610223437401760271846043710173DD
:106D40006A460349FEF716F81CBD00002082800049
:106D5000294C00010A4601464FF47A730020FEF7E1
:106D6000FBB800000E4910F1210F06DA086820F484
:106D7000704040F440500860704710F11D0206D387
:106D8000086820F4704040F48040086070470A288A
:106D9000FCDD086820F4704040F4A04008607047B3
:106DA00024C500A010B509F04FFB08F08BFC0AF0D9
:106DB0009FFA01F037F8BDE8104009F0B3BA0000BF
:106DC0002DE9F04F87B07B48D0F8009000240025D3
:106DD000A24600260AF0FEFB77480168C9F80010B9
:106DE0004068C9F80400754800680830059009F14A
:106DF00008000690042203A9059800F0DFFFBDF803
:106E00000C10A1F57F40FF3843D0082203A9059854
:106E100000F0D4FFBDF80E006EF4CED400F0FF08F1
:106E2000BDF80C00002867D00698A9EB000707F50D
:106E30008057BDF80E1008F1080083460844B84298
:106E400063D805AB082203A906A800F0EBF8BDF84B
:106E50000E00002300EB080205A906A808F0DCFCE0
:106E6000641CBDF80E005844B842C3D10020CDE9DF
:106E7000006053464A46214628460AF08FFE002805
:106E800026D1824600260024CDF818906D1CEDB264
:106E9000B0E70020CDE9006053464A462146284627
:106EA0000AF07CFE002813D16D1CECB2434D4FF468
:106EB0008057434E08E0286800EB0430394603F061
:106EC0004DFD40B1641CE4B2707AA042F3D80020BA
:106ED00007B0BDE8F08F3B488169407A40F27C42C0
:106EE000CDE900200291384B38A24FF40041002038
:106EF00001F41CF10920EBE7BDF80E00059908F13B
:106F0000080808444044059074E7082F29D305ABCE
:106F1000082203A906A800F085F8083F2FB1002336
:106F20003A4605A906A808F077FC611C0020CDE9C7
:106F3000006053464A4628460AF030FE0028C7D172
:106F40008246BDF80E004044C61B0024CDF81890C0
:106F50006D1CEDB20023324605A906A808F05CFCC2
:106F600048E705AB3A4603A906A800F05BF8611CA8
:106F700003A8CDE9006053464A4628460AF00EFEB3
:106F80000028A5D1C7F1080ABDF80E0000EB0806DD
:106F90000024CDF818906D1CEDB20123524605A9CE
:106FA00006A808F039FC0023324605A906A808F017
:106FB00033FC1FE768468000ACD50700CC23800077
:106FC000D8328000641F8000F2220101523A353A23
:106FD00025732C204C256420666C617368207374C3
:106FE000617465203078253032582C206572726FBC
:106FF00072203078253038580D0A00000221B0FB8D
:10700000F1F2FF2A04D8B0FBF1F201FB12022AB11F
:10701000491CC9B24029F2D300207047B0FBF1F0FF
:10702000C0B2704770B5044615461E462A46206811
:10703000FBF768F8306828443060206828442060F6
:1070400070BD000010B50548017B491C017300208C
:1070500072F4CCD5BDE8104000F050B89C478000D9
:107060002DE9FE43FFF711F81E48016821F40031B5
:1070700001601C4E083E30681B4980B208433060F6
:107080001A4803C8CDE9000116482C380068C82109
:1070900000F007001DF8000010FB01F51448076818
:1070A000144CD4F800803846414603F09DFB6268DA
:1070B0006068831AAB42FBD34146384603F074FB49
:1070C00008F06AFB02909DF8080028B19DF80800BE
:1070D000094948618861C861306820F07F403060AC
:1070E000BDE8FE8330C500A000008F117873000159
:1070F000FCED00E0001000E09C4780002DE9FC4121
:107100002D4E306820F07F4040F0885030602B4892
:1071100003C8CDE9000128482438006800F00701C1
:107120001DF80100C82110FB01F525480768254C12
:10713000D4F800803846414603F056FB6268636825
:10714000981AA842FBD34146384603F02DFB002590
:1071500008F022FB0446DFF87080D8F8180084425B
:1071600001D9012700E0002772F4E6D340B91FB12E
:10717000D8F81800201A02E0D8F81800001BC5B291
:10718000D8F81800C8F82000B5EB900F03D8292CC8
:1071900001D8112C02D200F019F807E000EBC00072
:1071A00020440A21B0FBF1F0C8F81800306820F044
:1071B0007F403060BDE8FC8128C500A078730001E5
:1071C000FCED00E0001000E09C4780002DE9F04F4E
:1071D00087B0002006900824DFF890811A20C8F8B4
:1071E000140063480168634A89B21143016005A82D
:1071F000FBF7F2FB0220FBF7F7FBDFF8749109F1D4
:107200000809D9F8000020F47C3040F42030C9F897
:10721000000059A003C8CDE90201DFF854A1AAF18A
:10722000240ADAF8000002A900F00700085CC8216F
:1072300010FB01F5DFF848B1DBF800000190514F79
:107240003E680198314603F0CFFA78687968091AE8
:10725000A942FBD33146019803F0A6FA08F09CFA44
:1072600004909DF81010D8F81400814204D99DF8BC
:107270001020811C8A4263D99DF81010814204D2EB
:107280009DF81020811E8A425AD29DF8101081422A
:1072900001D9012500E0002515B1641C64B201E0AC
:1072A000641E64B2202C11D3D9F8000020F47C3085
:1072B00040F42030C9F80000D8F83C00401CC8F861
:1072C0003C00002004900120069039E0D9F800002D
:1072D00020F47C3040EA043040F40030C9F800006B
:1072E00025A003C8CDE90201DAF8000002A900F0E8
:1072F0000700085C642110FB01F6DBF80000019038
:1073000038680090DDE9001003F06EFA786879685B
:10731000091AB142FBD3DDE9001003F045FA08F089
:107320003BFA049035B19DF81000D8F8141088424B
:10733000B2D805E09DF81000D8F814108842ABD3FD
:107340009DF81400FBF750FB0948016821F07F41CC
:1073500001609DF81000C8F81800D8F82400401CFF
:10736000C8F82400069807B0BDE8F08F9C4780005D
:1073700028C500A000008F11403010181020000018
:10738000FCED00E0001000E000281ED0028800F1B3
:107390000801B2F5806F0CD0A2F58062013A0BD0E3
:1073A000022A0CD0032A10D1428A018A007900F007
:1073B0003DB8007900F026B9007900F00BBA837867
:1073C0000A460079194600F013B9704770B50546B2
:1073D0000C46032212A12846FAF7BFFEE41E90B124
:1073E000032210A12846FAF7B8FE90B103220EA19D
:1073F0002846FAF7B2FE002811D1E1B2E81CBDE838
:10740000704007F03BB9A1B2E81CBDE8704008F03D
:1074100019BAA1B2E81CBDE8704000F061BA70BDB5
:1074200052573A0043573A004C573A00F0B587B0EC
:1074300006460F461546284608F003F900281ED0D8
:10744000114C0822231DA18B384608F0E0F80021DA
:107450008DF801108DF80060032807D1012D10D0A0
:1074600002208DF8010004EB4600C5839DF8010061
:10747000002804D02168002901D06846884707B059
:10748000F0BD0120EDE70000088F80000178CA07F9
:10749000104909D0D0F80220C1F80620D0F8062003
:1074A000C1F80A204289CA810278920702D502698E
:1074B000C1F816200278520701D582894A820278E3
:1074C000120701D5827B0A7500780874891D002097
:1074D00000F01EB8088F800070B505460C4629469E
:1074E000204608F0B8F8287AE071687A2072A87A05
:1074F000607270BD70B504460D4629460348FFF71B
:10750000EBFF0A206080A56070BD00000E8F800038
:1075100030B5054687B008461A2404A9FFF7DCFFFA
:107520000E4A02EB4500C08B012813D100208DF8D4
:107530000400918B121D022008F04EF8ADF80600F1
:107540000A20ADF8080004A8039001A92846FEF718
:10755000BAFF044607B0204630BD0000088F800007
:107560001C220149FAF7CEBD088F800010B5184CD7
:10757000217C017401461C222046FAF7C3FD04F168
:107580008000006DC4F81600124AE07A5070217B2A
:107590009170D378984203D812D1107881420FD9D4
:1075A0000121517110790A4AC0321074012802D0A9
:1075B000042803D006E00220207403E0217401E0D7
:1075C00000205071A11DBDE810400020FFF7A0BFB2
:1075D000088F80007A458000044A937C0B70127DEE
:1075E0004A7081600221418070470000088F80004E
:1075F0001078002802D10248017C01747047000015
:10760000088F800070B588B006460C78294D082296
:107610002B1DA98B204607F0FAFFADF8144000217E
:107620008DF81810022810D003281DD0052823D06B
:10763000072830D0ADF8161001208DF8180005A9E4
:107640003046FEF773FF08B070BD02A905A8FFF72A
:1076500051FF19A0CB21CDE900101E4B1EA22AA17B
:107660000220FCF763FFEAE70220ADF8160005EB05
:1076700046001E300790E2E704A905A8FFF7ACFF1B
:1076800023A0D821CDE90010124B13A21EA1022085
:10769000FCF74CFFD3E704A905A800F055F823A098
:1076A000E021CDE900100B4B0BA217A10220FCF743
:1076B0003DFFC4E7088F80005265616420637572E6
:1076C00072656E742074696D65207375636365738C
:1076D000732E0000142001012E2E5C2E2E5C2E2E07
:1076E0005C2E2E5C2E2E5C636F6D706F6E656E74FB
:1076F000735C70726F66696C65735C6374735C63F2
:1077000074732E63000000004E4F5F544147000029
:1077100052656164206C6F63616C2074696D6520D3
:10772000737563636573732E0000000052656164B6
:1077300020726566656E63652074696D652073757A
:1077400063636573732E0000064A937D0B70D37DCF
:107750004B70137E8B70527ECA7081600421418011
:1077600070470000088F800010B50446002C27D019
:1077700060211448FAF7DFFC1C2221461148FAF771
:10778000C1FC10482C2134300446FAF7D4FC0D49D2
:1077900000228A8301F11C034B630B488863081D98
:1077A000C863082081F8400081F85E2081F85F20DE
:1077B000064848642046BDE810400549FEF792BEE1
:1077C000022010BD088F800078458000D41F010181
:1077D00089730001F0B589B006460C462788334D01
:1077E00008222B1DA98B384607F011FFADF8047055
:1077F00000218DF806108DF809108DF80860022818
:1078000019D0032831D005283DD001208DF806007D
:1078100001A93046FEF799FE9DF80600012808D020
:107820009DF80900002804D02968002901D002A889
:10783000884709B0F0BD03208DF80900A0680390C7
:10784000A088ADF8100002A901A800F0DFF9ADF89A
:10785000100055F8060FCDF812006868CDF8160034
:10786000A868AD1FCDF81A00D2E7A06804F08AFD21
:10787000012806D002218DF8091005EB4601C883C6
:10788000C6E70121F7E704208DF80900A0680390FE
:10789000A088ADF8100002A901A806F043FFADF8DA
:1078A0001000D5F81200CDF81E00B1E7088F800057
:1078B0000A49322808DDD1F8200220F4706040F433
:1078C0004070C1F8200270472828FCDAD1F8200265
:1078D00020F47060C1F820027047000000E000A0B2
:1078E00030B58BB00D46ADF818500590204C61793D
:1078F000002921D004A900F089F9ADF8180090B151
:1079000003208DF81100ADF818501A480168CDF821
:107910001A104168CDF81E108168CDF8221050F879
:10792000061C04A888470020E070207011495A31D5
:10793000C87208730BB030BD0FA040F2B521CDE97D
:107940000010184B18A224A10220FCF7EFFD2078AC
:10795000E17823A240F2B623CDE90032CDE902104E
:10796000104B11A21CA10220FCF7E0FDE2E7000091
:107970007A4580000E8F80004974206973206E6FF5
:1079800074207570646174656420666F72206D6F19
:107990007265207468616E2031206D696E75746542
:1079A0000A2E0000552001012E2E5C2E2E5C2E2E5C
:1079B0005C2E2E5C2E2E5C636F6D706F6E656E7428
:1079C000735C70726F66696C65735C6374735C631F
:1079D00074732E63000000004E4F5F544147000057
:1079E000557064617461626C652074696D65206DA9
:1079F000696E757465733A20202564207365636F22
:107A00006E64733A3D202025642E000070B58AB064
:107A10000446607801282DD0022837D03B4D03283A
:107A20003FD0042830D1208900282DD0D4F816006A
:107A3000C5F8520036A0EA21CDE900103E4B3FA226
:107A400044A10320FCF772FD05F1400043A2017D33
:107A5000B0F91200EB23CDE90032CDE90201364B3B
:107A600036A23CA10320FCF761FD0AB0BDE87040DE
:107A700009F0D0BE40A0CF21CDE900102E4B2FA29F
:107A800034A10320FCF752FD0AB070BD44A0D321FD
:107A9000CDE90010284B29A22EA10320FCF746FDBA
:107AA000F2E720890028EFD00A34474E237A227962
:107AB000A079617956F82330CDE90532CDE9071078
:107AC0002288E178A07841A3CDE90132CDE9030114
:107AD000D9200090184B19A21EA10320FCF726FD07
