:020000040100F9
:10200000000084005920000161200001D54A8000B1
:10201000FF210001FD210001452200010000000018
:102020000000000000000000000000007D4C800067
:102030006B200001000000006D20000171200001F4
:10204000DFF810D000F0F2FB00F094F800480047F1
:1020500085E80001000084000648804706480047E4
:10206000FEE7FEE7FEE7FEE7FEE7FEE7FEE7FEE748
:10207000FEE700006D2A0001A5E800012DE9F05FF0
:102080000546002092469B468846064681464024E7
:102090001BE0284641464746224600F0BBFA53461D
:1020A0005A46C01A914110D311461846224600F0F4
:1020B000A2FA2D1A67EB01084F46224601200021A3
:1020C00000F099FA17EB00094E41201EA4F101041B
:1020D000DFDC484631462A464346BDE8F09F000013
:1020E0000649074A0868504343F239021044086021
:1020F000400870470149086070470000C04A8000EE
:102100006D4EC64140EA01039B0703D009E008C9B0
:10211000121F08C0042AFAD203E011F8013B00F8AC
:10212000013B521EF9D27047D2B201E000F8012BF8
:10213000491EFBD270470022F6E710B513460A4647
:1021400004461946FFF7F0FF204610BD421C10F868
:10215000011B0029FBD1801A704730B504460020CE
:10216000034600E05B1C934203D2E05CCD5C401B65
:10217000F8D030BD70B5054C054D03E02068204413
:102180008047241DAC42F9D170BD000088300101A8
:102190008C3001010EB540F2334102910021CDE9AE
:1021A00000110A460B4600F066FA03B000BD0EB5FA
:1021B00040F2334202920022CDE90022134600F0A1
:1021C0005AFA03B000BD20F00040C20DC0F3160063
:1021D00040F400007F2A02DA002001467047002107
:1021E000962A03DCC2F19602D0407047963A00F07E
:1021F00002BA43F6C51CC3F2000C6047FEE7FEE7D7
:1022000058585247010000001555000000200001F9
:10221000002000016EED52490101000000000000A5
:1022200000000000000000000000000000000000AE
:10223000000000000000000000000000000000009E
:102240001BF44A97FEE7704770472DE9FE4F804622
:1022500081EA0300C00F0C46009021F0004123F0FA
:102260000045B8EB0200A94105D240462146904600
:102270001C460B46024623F00040104347D0270D72
:10228000C7F30A00C3F30A510290401A0190402894
:102290006BDAC3F3130040F4801B0098924620B120
:1022A0000023D2EB030A63EB0B0B01985946C0F1F4
:1022B0004002504600F09FF906460D4650465946EA
:1022C000019A00F0B7F910EB08006141002487EA99
:1022D000115284EAE7731A4340D0009A62B3019A1C
:1022E000012A4FEA075215DC001B61EB02014FF097
:1022F000004202EA0752CDE90042001C41F580117C
:1023000032462B4600F0B7F903B0BDE8F08F4046E7
:102310002146F9E7001B61EB0201001C41F5801327
:1023200000185B412018A2F5001747EB030140EAB3
:10233000D570B6196D4111E06D084FEA360645EAD1
:10234000C0754FEA0752001B61EB0201001C41F50A
:10235000801149084FEA30000019514132462B469E
:1023600003B0BDE8F04F00F077B9009801224000BB
:102370000023D0EB020263EBE073009821464FEAA2
:10238000E074B8EB000061EB0401E9E783F000437F
:102390005BE781F0004158E72DE9FE4F81EA030435
:1023A00004F0004421F0004100944FF0000B23F0B2
:1023B000004350EA01045ED052EA03045BD0C3F349
:1023C0000A54C1F30A552C44A4F2F3340194A0FB3F
:1023D0000254C1F3130141F48011C3F3130343F416
:1023E000801301FB024400FB034E840A970A44EA6F
:1023F000815447EA8357A4FB076802958D0A05FBC1
:1024000007854FEA932C04FB0C542705029D4FEAE5
:10241000065847EA1637B5EB08056EEB070C870E32
:10242000920E47EA811742EA8312A7FB0201B6EB3C
:102430000B0164EB00042B0D43EA0C335E1844EBF4
:102440001C50DA465146E7FB0201C5F313044FEA7C
:102450000B3343EA14534FEA0432019C43EA060368
:10246000A4F10C040294009CCDE900B400F003F93F
:1024700003B0BDE8F08F00200146F9E72DE9F04DEB
:1024800081EA030404F0004B21F0004514464FF0AC
:10249000000A23F0004150EA050220D054EA01026C
:1024A0001DD0C5F30A570246C5F31303C1F3130049
:1024B000C1F30A5640F4801543F48013A7EB0608D5
:1024C000101BD64608F2FD3873EB050002D308F165
:1024D000010801E092185B41B8F1000F03DA002017
:1024E0000146BDE8F08D00204FF480110646844679
:1024F0000EE0171B73EB050705D3121B63EB0503F7
:1025000006434CEA010C49084FEA300092185B413F
:1025100050EA0107EDD152EA030012D082EA04002A
:1025200083EA0501084305D0101BAB4106D2012206
:10253000002306E000224FF0004302E06FF00102AA
:1025400053101AEB06004CEB085110EB0A0041EB5C
:102550000B01BDE8F04D00F07FB870B5C1F30A5231
:1025600001F000450024C1F3130140F2FF3341F4B0
:1025700080119A4201DA002070BD40F233439A4242
:10258000A2F2334203DC524200F044F800E09040F3
:102590002C43F1D0404270BDC1F30A5210B5C1F3D3
:1025A000130140F2FF3341F480119A4201DA002016
:1025B00010BD40F233439A42A2F2334203DC52424E
:1025C00000F028F810BD904010BD30B50B46014614
:1025D00000202022012409E021FA02F59D4205D3C2
:1025E00003FA02F5491B04FA02F52844151EA2F16C
:1025F0000102F1DC30BD202A04DB203A00FA02F1AE
:10260000002070479140C2F1200320FA03F31943E0
:1026100090407047202A04DB203A21FA02F0002182
:10262000704721FA02F3D040C2F1200291400843E2
:1026300019467047202A06DBCB17203A41FA02F0F0
:1026400043EAE07306E041FA02F3D040C2F120020F
:10265000914008431946704710B5141E73F10004E9
:1026600008DA401C41F1000192185B411A4301D184
:1026700020F0010010BD2DE9F04D92469B4611B1AE
:10268000B1FA81F202E0B0FA80F220329046FFF710
:10269000B2FF04460F4640EA0A0041EA0B015346E6
:1026A0005A46084313D0114653EA010019D0C8F125
:1026B00040025046FFF7AEFF05460E4650465946CB
:1026C0004246FFF798FF084305D0012004E020466A
:1026D0003946BDE8F08D0020054346EAE0762C43FC
:1026E00037430A986305E40AA0EB08000022FD0ABC
:1026F00044EA47540A3002D500200146E9E70105C3
:1027000010196941DDE9084500196941BDE8F04D3E
:10271000A2E700002DE9F041054621F000400C46FB
:10272000284309D0C4F30A5040F23341884205DD02
:1027300028462146BDE8F0812846FBE740F2FE31FD
:10274000884210DC0CDB4FEA043040EA155050EAB6
:10275000053105D0104804F0004101430020E9E7AD
:1027600000200146E6E7A0F233404642C6F14002AF
:1027700028462146FFF73FFF074688462846214660
:102780003246FFF747FF43463A46FFF765FF3246BA
:10279000BDE8F041FFF72FBF0000F03FC1F30A5240
:1027A000C1F3130140F2FF3341F480119A4202DA7F
:1027B00000200146704740F233439A42A2F233426E
:1027C00002DC5242FFF726BFFFF715BF30B5041EEB
:1027D00071F1000404DB4FF00044404264EB01015E
:1027E000141E73F1000405DB1C464FF000435242F7
:1027F00063EB04038B4208BF824230BD30B5041E38
:1028000071F1000404DB4FF00044404264EB01012D
:10281000141E73F1000405DB1C464FF000435242C6
:1028200063EB0403994208BF904230BD064C074D4C
:1028300006E0E06840F0010394E807009847103490
:10284000AC42F6D3FFF700FC3830010188300101BB
:1028500070B58C1810F8015B15F0070301D110F862
:10286000013B2A1106D110F8012B03E010F8016B8F
:1028700001F8016B5B1EF9D12B0705D40023521E12
:102880000DD401F8013BFAE710F8013BCB1A921C7A
:1028900003E013F8015B01F8015B521EF9D5A14278
:1028A000D8D3002070BD000010B51E480068002875
:1028B00000D080471C4900200870811E1B48016021
:1028C0001B494FF0007008601A4CD4F8C002800712
:1028D00004D4F42218A11DA005F44AF42A48016882
:1028E000D4F8C40261F31D3040F00100C4F8C40202
:1028F00004F448F300214FF03040C1608161C117FA
:102900004161016204F4FAF208484038016821F498
:10291000800101601D480068002802D0BDE8104019
:10292000004710BD60248000C449800044C500A059
:1029300080E200E000E000A0727769705F736C6570
:1029400065705F636F6D6D6F6E2E63004D43555FF5
:102950005355422D3E424C455F44534C4545505FD4
:10296000434F52525F454E2026204D43555F5355ED
:10297000425F424C455F44534C4545505F434F5284
:10298000525F48575F454E00542480006424800005
:1029900000214FF03040C1608161C1174161016287
:1029A0000649022004220A60BFF34F8FBFF36F8FE6
:1029B0000860BFF34F8FBFF36F8F704780E100E077
:1029C00004490220C1F800010860BFF34F8FBFF334
:1029D0006F8F704780E100E00249096801F007014C
:1029E0000170704704C500A030B4062821D21249F6
:1029F0000A6802F00702824212D00A680F4B1A409E
:102A00000F4C22430A6000BF00BF00BF00BF0A682E
:102A10001A400C4B024333F8203042EA83420A60EA
:102A20000849183951F820000749486030BC76F44D
:102A3000E19230BC7047000004C500A0F8FFE3FF3E
:102A400005000800E01B0101004180000448006807
:102A5000044900F0070051F820000349486070471E
:102A600004C500A0C81B01010041800002480168A4
:102A700041F470010160704788ED00E00248006891
:102A8000001D1EF4E9950000CC4380000248406818
:102A9000001D1EF4E1950000CC4380000FB4054BEF
:102AA00010B503A9044A029800F0AEF910BC5DF815
:102AB00014FB000095810001F84380000FB41CB5A1
:102AC0000246002007AC00290BD0491ECDE90021A9
:102AD000054B6A462146069800F096F9009A0021B7
:102AE00011701CBC5DF814FB373500010FB4084BA6
:102AF00010B504A902AA039800F086F9044602A9B9
:102B0000002000F023FD204610BC5DF814FB0000FF
:102B10004D3500017CB5044600201D4616460029AF
:102B20000BD0491ECDE90041044B6A462946304688
:102B300000F06AF9009A002111707CBD3735000160
:102B4000002804DB00F1E02090F80004704700F05A
:102B50000F0000F1E02090F8140D7047002804DB0E
:102B600000F1E02090F80004704700F00F0000F141
:102B7000E02090F8140D704702480068C0F302206E
:102B8000704700000CED00E010B52DED020B2DEDAF
:102B9000088B84B09DED0C0B51EC100BFFF7BAFDC8
:102BA00041EC180B9DED0C0B53EC182B51EC100B5A
:102BB000FFF7ECFB41EC190B0D989FED290B10F082
:102BC000004F53EC102B51EC190B9FED21AB9FEDF7
:102BD00022BB0ED0FFF7FAFD0ED953EC1B2B51ECA4
:102BE000190BFFF70BFE1CD214E000BF41EC180BD1
:102BF00017E0FFF7EBFD06D253EC1A2B51EC180B44
:102C0000FFF7C4FBF2E753EC1B2B51EC190BFFF75A
:102C1000F5FD06D853EC1A2B51EC180BFFF715FBFA
:102C2000E4E78DED028B9DED0C0B18EE901A10EE83
:102C3000900A8DED000B61F31E0003909DED020BD9
:102C400004B0BDEC088B02B010BD00000000000015
:102C5000000000000000F03F000000000000E03F26
:102C6000000000000000E0BF02E008C8121F08C119
:102C7000002AFAD17047002001E001C1121F002A8A
:102C8000FBD170472DE9FF5F82B00021DDE9043000
:102C9000020DDDF840B0034318D044F61050A2F204
:102CA000FF3242431514119801281FD0A5EB0B00E9
:102CB000401C5FEA000A4FF000064E4FDFF83891E3
:102CC000B046504615D5CAF1000413E0119801240E
:102CD0004AA3012801D16FEA0B010298119AC0E9B9
:102CE0000031C0E9024206B0BDE8F09FCBF1000020
:102CF000DFE704460021404A491842EB0450CDE981
:102D0000001012E0E00707D032463B4640464946F5
:102D1000FFF742FB8046894632463B46104619463D
:102D2000FFF73AFB06460F466410002CEAD1DDE9B6
:102D30000401DDE90023BAF1000F06DAFFF72CFBEE
:102D400042464B46FFF728FB05E0FFF797FB42465C
:102D50004B46FFF793FB04460E460022284BFFF735
:102D60004DFD03D84FF0FF30014607E00022254B10
:102D700020463146FFF769FAFFF710FD102409E0FD
:102D8000002C0ADB0A220023FFF778F9039B30327C
:102D90001A55641E50EA0102F2D1641C039AC4F170
:102DA00011031444119A012A03D0012208430DD1C2
:102DB0000AE0084304D000204FF0110B119072E795
:102DC000A3EB0B056D1E0DE05B4504DD4FF000022B
:102DD00005F1010504E003DA4FF00002A5F1010559
:102DE000002AECD002981199C0E90231C0E90045EF
:102DF00079E70000000014400000F03F30000000C0
:102E00000000F0430000E03F2DE9FF4F95B09B46E6
:102E10008946064600250FE2252877D1002427465B
:102E2000F84A0121059400E0044316F8013F203BD5
:102E300001FA03F01042F7D130782A2811D06FF050
:102E40002F033078A0F13002092A16D8059A44F0F1
:102E5000020402EB820203EB42021044761C05904E
:102E6000EFE759F8042B0592002A03DA504244F4A4
:102E70000054059044F00204761C30782E2816D1B8
:102E800016F8010F44F004042A280DD06FF02F0229
:102E90003078A0F13003092B09D807EB870302EB48
:102EA0004303C718761CF3E759F8047B761C307887
:102EB0006C280FD006DC4C2817D068280DD06A2863
:102EC00014D104E0742810D07A280FD10DE044F416
:102ED00000140AE044F4801401E044F440147278D1
:102EE000824202D104F58014761C761C3078662864
:102EF0000BD013DC582877D009DC002875D0452882
:102F0000F6D04628F4D047281AD19DE118E063286E
:102F100035D0642879D0652812D195E1702873D016
:102F200008DC6728F1D069286FD06E280DD06F2893
:102F300006D1B5E073282CD0752875D0782874D0C8
:102F40005A46179990476D1C75E1C4F30250022848
:102F500009D003280DD0D9F8001004280DD00D6039
:102F600009F1040967E1D9F80010EA17C1E9005234
:102F7000F6E7D9F800100D80F2E70D70F0E719F8C8
:102F8000041B8DF8001000208DF80100EA46012096
:102F900003E059F804AB4FF0FF3061074FF0000138
:102FA00002D40DE008F101018846B9420FDA8045EC
:102FB000F8DB1AF808100029F4D108E008F1010143
:102FC00088468142FADB1AF808100029F6D10598E4
:102FD0005B46A0EB080721463846179A00F094FAA2
:102FE000284400EB080507E04DE029E10DE01AF860
:102FF000010B5A4617999047B8F10108F7D25B4682
:1030000021463846179A13E142E00A220092C4F39F
:1030100002524FF0000A022A08D059F804CB032AC2
:103020004FEAEC710AD00DE029E02AE009F107012E
:1030300021F00702F2E802C1914609E00FFA8CFC88
:103040004FEAEC71042A03D14FFA8CFC4FEAEC7181
:10305000002907DA0A460021DCF1000C61EB0201CD
:103060002D2202E0220504D52B228DF80420012216
:1030700003E0E20701D02022F7E7904659E00A2159
:1030800002E010220DE010214FF0000A00910BE049
:1030900010224FF0000A44F004040827009203E0D5
:1030A00008224FF0000A0092C4F30252022A05D00F
:1030B00059F804CB0021032A08D009E009F10701DF
:1030C00021F00702F2E802C1914605E01FFA8CFCEC
:1030D000042A01D10CF0FF0C4FF00008220728D57C
:1030E000702806D0009B83F0100353EA0A0305D032
:1030F0000EE040228DF80420012208E05CEA010283
:1031000006D030228DF804208DF80500022290466A
:10311000009B83F0080353EA0A030AD15CEA010228
:1031200001D1620705D530228DF804204FF0010847
:103130007F1E582804D034A003900EA802900DE002
:1031400036A0F9E753466046009AFEF797FF84469B
:103150000398825C0298401E029002705CEA0100B3
:10316000F0D1029806A9081A00F1200A600702D5DA
:1031700024F4803400E00127574502DDA7EB0A0064
:1031800000E0002000EB0A01009005984144401A3D
:103190000590E00306D45B462146179A059800F097
:1031A000B3F90544002706E001A85A46C05D179907
:1031B00090476D1C7F1C4745F6DBE0030CD55B4652
:1031C0002146179A059800F09FF9054404E0302045
:1031D0005A46179990476D1C0099481E0090002987
:1031E000F5DC08E0029802995A460078491C0291E1
:1031F000179990476D1CBAF10001AAF1010AF1DCA0
:1032000065E10000092801003031323334353637AA
:103210003839616263646566000000003031323322
:1032200034353637383941424344454600000000C2
:1032300000F058F90544761C307800287FF4ECAD96
:1032400019B02846BDE8F08F620700D4062709F1BF
:10325000070222F0070CFCE80223E14603F00048D5
:103260005FEA080C02D00FF2702C0DE05FEA045CFC
:1032700002D50FF2682C07E05FEAC47C02D00FF29F
:10328000602C01E0AFF2700C4FF0FF3823F00043E8
:10329000CDF850C065280CD006DC452809D046285A
:1032A0001DD047283DD13DE0662818D067287ED143
:1032B00038E00021112F01DB112000E0781CCDE95E
:1032C000000106A90EA8FFF7DDFCDDE90F010E9A4B
:1032D00003910021009207F1010A04914DE04FF0A3
:1032E00000400097CDE9011006A90EA8FFF7CAFC1F
:1032F000DDE90F0203920E9B11990022DDF80CA06C
:103300000093049211B9791C00EB010AB7EB0A0093
:1033100004D4C0F1FF3007F1010A0490AAEB0700C2
:10332000019044E0012F00DA01270021112F01DD77
:10333000112000E03846CDE9000106A90EA8FFF7EC
:10334000A1FCDDE90F010E9A039100210491009286
:10335000BA4621070CD40399514500DA8A46BAF1DE
:10336000010F05DD009AAAF10101515C302908D056
:10337000B84202DA10F1040F06DA0121CDE901109A
:1033800015E0AAF10101E9E7002805DC04990144F0
:103390000491AAEB000102E0411C514500DD8A4680
:1033A0000499401A401C01904FF000400290200701
:1033B00004D40198504501DBCDF8048000208DF83D
:1033C0004F0002980DF14F07B0F1004F25D02B2090
:1033D0000E9002984FF0020800280CDA404202904A
:1033E0002D200E9007E00A210298FFF7EEF8303109
:1033F000029007F8011DB8F10001A8F10108F2DC04
:1034000002980028EFD1791E0E980870307800F0ED
:10341000200040F0450007F8020D12A8C01B00F183
:1034200007081498007800B1012000EB0A01019808
:1034300001EBE07105984144401A401E0590E003FD
:1034400006D45B462146179A059800F05DF80544BE
:103450001498007818B15A46179990476D1CE003EC
:1034600024D55B462146179A059800F04DF805448F
:103470001CE00498002807DBDDE90301884203DD36
:103480000098405C179901E0179930205A46904700
:10349000049805F10105401C04900198401E01901C
:1034A00004D12E205A46179990476D1CBAF100019D
:1034B000AAF1010ADDDC05E017F8010B5A4617995D
:1034C00090476D1CB8F10001A8F10108F4DC5B46DF
:1034D0002146179A0598ABE62D0000002B0000004E
:1034E000200000002DE9F041044600251E46174645
:1034F000880404D405E039462020B0476D1C641EC2
:10350000F9D52846BDE8F0812DE9F04104460025B3
:103510001E469046C80301D5302700E020278804C6
:1035200004D505E041463846B0476D1C641EF9D508
:103530002846BDE8F0814A68002A06D00A68531C74
:103540000B6010704868401E486070470A68531C42
:103550000B601070704700002DE9F05F0746894648
:1035600093464FEA5B04A2464D465F4EDFF87C81EE
:10357000EFF31080012181F31088D8F8A41221F014
:103580002001C8F8A41280F31088EFF31080012105
:1035900081F31088D8F8A01221F02001C8F8A012F9
:1035A00080F31088306820F08040306050483060F0
:1035B0003F20D8F8001160F30501C8F80011306809
:1035C00020F4601040EAC7403060306820F4E0200A
:1035D00040EA07403060052F03D1306840F40040D6
:1035E0003060062F03D1306840F48040306030688E
:1035F00040F400503060306820F060503060306837
:1036000020F00F0040F003003060EFF31080012144
:1036100081F31088344A3832116821F0E04141F0DA
:103620008041116080F31088306840F08040306045
:1036300001E0D8F80000D8F80401C0F30020002809
:10364000F7D1EFF31080012181F31088116841F068
:103650000041116080F3108834E000204FF47A714B
:103660001AE0884217D9306820F080403060306816
:1036700040F000403060306820F00040306008F0DA
:10368000BDFE1C480168491C016054464D4605209A
:1036900078F4B5D26CE7401CD8F80421C2F30022BC
:1036A000002ADED0D8F8040100F07F01A14200D941
:1036B0002146002003E0D8F8002004C5401C8842C1
:1036C000F9D3641A002CC8D15FEACB7008D0D8F8BF
:1036D0000401C0F300200028F9D0D8F800002880A9
:1036E000BDE8F05F08F08ABE08C500A000E000A0B9
:1036F0000A070807B04A80002DE9F04107460E4648
:103700004FF000080024274D0BE004EBC40005EB4C
:103710008000801C07223946FEF71FFD40B1641C63
:10372000E4B22878A042F0D8B8F1000F18D102E036
:103730004FF00108F8E728780A21B0FBF1F201FB0D
:1037400012040A2801D2401C287004EBC40105EBC6
:1037500081003968C0F80210B988C180B979017256
:103760002B7811A21021002004F404F53078000712
:103770000BD504EBC40005EB800006F14601BDE863
:10378000F0410A301C22FEF7BDBC04EBC40005EB7F
:10379000800006F12A01BDE8F0410A301C22FEF744
:1037A000B1BC000010D68000523A313A6164642006
:1037B0006C746B206974656D2C206E756D203D20D6
:1037C00025640A001CB502228DF80020CDF8010006
:1037D0008DF8051006226946002000F0C3F91CBDD3
:1037E00008B58DF8000000208DF801000E4A888889
:1037F0005388984208D105208DF801004A888868CE
:10380000114600F0EDF90AE01289904207D1062036
:103810008DF801004A888868114600F0AFF96846C3
:1038200000F076F808BD00009C95800008B58DF882
:10383000000000208DF801000B488388934206D1D8
:1038400019B107208DF8010008E00320FAE740894C
:10385000904203D131B107208DF80100684600F095
:1038600057F808BD0420F7E79C958000002819D080
:10387000028800F10801B2F5A06F08D0A2F5A0629D
:10388000063A0AD0012A0DD10079FFF7A9BF837843
:103890000A460079194600F0F5B802898178007966
:1038A000FFF7C4BF70470000002809D00549002277
:1038B0000A604A608A60C8600349044803F052BA4B
:1038C000022070479C9580006D3800018045800083
:1038D0001CB5019106494989002906D001AA009228
:1038E0000223002203F075FA1CBD01201CBD00005C
:1038F0009C95800000224FF47A71014801F006BCCB
:1039000038D48000014903F055BA0000804580009A
:103910000449C968002903D04278002A00D008472A
:10392000704700009C95800010B586B00446607812
:10393000082816D2DFE800F01504151735151541D3
:103940002078012100F08CF80446002C09D01422C4
:10395000204901A8FEF7D6FBADF8084001A800F009
:10396000DDFB06B010BD1CA0AA21CDE90010194B4B
:1039700025A2143B2AA1022001F004F9207801219C
:10398000FFF7A6FF0446002CEBD014221149143196
:1039900001A8FEF7B7FBADF8084001A800F0BEFB98
:1039A000DFE721A0B021CDE900100A4B16A2143B9D
:1039B0001BA1022001F0E6F8D3E725A0BA21CDE94A
:1039C0000010044B10A2143B15A1022001F0DAF8FC
:1039D000C7E70000F81D0101414E4353206E6F748C
:1039E000696669636174696F6E20736F7572636570
:1039F000206E6F74696669636174696F6E20656EAD
:103A000061626C65642E00002E2E5C5372635C75DF
:103A10007365725C757365725F6170702E63000010
:103A20004E4F5F5441470000414E43532064617440
:103A30006120736F75726365206E6F746966696368
:103A40006174696F6E20656E61626C65642E000042
:103A50005772697465206572726F722E00000000E3
:103A60001CB5019106498988002906D001AA009257
:103A70000223002203F0ADF91CBD01201CBD000093
:103A80009C9580002DE9F84315468DF800004FF015
:103A900002098DF80190287810284DD110222F4965
:103AA000681CFEF75AFB70BB2D4F688A38800020D7
:103AB0003AE000F1010841448CB200EB4002A969F0
:103AC00002EBC00011F81020032A02D0042A21D0F2
:103AD00027E009EB40068819204910221031FEF733
:103AE0003CFB88B1A8691D49304410222031FEF703
:103AF00034FB58B1A8691949304410223031FEF71F
:103B00002CFB28B10EE017E07C800BE0FC8009E084
:103B10003C8107E009EB4000085AA0F52451023926
:103B20000FD032B11FFA88F0AA8A698A521A8242EB
:103B3000BFDC01208DF801006846FFF7E9FEBDE813
:103B4000F8837888401CA04201D1BC80EAE738891C
:103B5000401CA042E6D17C81E4E70000B41C0101D6
:103B60009C95800008B51346009103490022C9883E
:103B700003F02FF908BD00009C95800070B5034646
:103B80000C46154D00266888002810D0134922469F
:103B900008441946FEF7B6FA68882A882044A0F13E
:103BA0000801914215D100F04BF86E8070BDD888A5
:103BB0002880224619460948FEF7A4FA2988A4F16C
:103BC0000800814203D100F03BF86E8070BD6C802C
:103BD00070BD688070BD000088458000AC95800095
:103BE00010B5044620460AF073FE6068BDE8104038
:103BF00000F0AEB80148406870470000884580007A
:103C00001CB500228DF80020CDF801008DF80510BC
:103C1000012909D0022907D0032905D006226946C7
:103C20000020FFF79FFF1CBDF4208DF80600012047
:103C30008DF80700082269460020FFF793FF1CBD9E
:103C400070B588B0234D287800210691D5F8011071
:103C50000791E9880691002803D0012837D1002474
:103C60002BE068791C49BDF818601CA251F82000AF
:103C7000BDF81C10CDE90306CDE901216E200090AE
:103C80001F4B20A22EA1022000F07CFF002406E0A2
:103C90002819017A2CA0FEF701FF641CA4B2B442DB
:103CA000F6D308B029A0BDE87040FEF7F7BE295D45
:103CB00025A0FEF7F3FE641CA4B2BDF818008442F0
:103CC000F5D308B021A0BDE87040FEF7E7BE08B00C
:103CD00070BD0000AC958000CC4580005549443D46
:103CE00025642C20415454525F49443A2025732CBA
:103CF00020415454525F53495A453D256400000009
:103D0000F41C01012E2E5C2E2E5C2E2E5C2E2E5CC1
:103D10002E2E5C636F6D706F6E656E74735C707267
:103D20006F66696C65735C616E63735F635C616E23
:103D300063735F70726F746F636F6C2E630000004B
:103D40004E4F5F5441470000256300000D0A0000FC
:103D50000149486070470000884580000449896B2C
:103D6000084004490A78104300220A707047000096
:103D7000002001A058468000104A114900280EDC9E
:103D80000868C0F34120012808D0506C401C5064E2
:103D9000086820F4C06040F40070086070470A288A
:103DA000FCDB086810F4C06FF8D0106C401C106485
:103DB000086820F4C060086070470000E447800095
:103DC0000CC500A006460F46154672B63846FEF7EB
:103DD000BDF9402801D9402002E03846FEF7B6F987
:103DE00080463046FEF7B2F9402801D9402002E073
:103DF0003046FEF7ABF904469C211048FEF79BF9CC
:103E0000424639460D48FEF77DF90C4822463146B8
:103E10005C30FEF777F909484FF0AA310164456438
:103E20004FF0BB3181644FF0CC3101654FF0DD3193
:103E30008165002000F004F8FEE70000AC8E8000F1
:103E400030B5ADF20C4D04464FF4806103A8FEF787
:103E500072F9184D202085F83F0085F89B003CB191
:103E60002846012C436DC26C09D0022C0CD00FE007
:103E7000104A11A15C3203A8FEF738FE08E011A138
:103E800003A8FEF733FE03E016A103A8FEF72EFEFB
:103E900003A90BA2686CCDE90121009018A3054A83
:103EA00018A1002000F06EFE00F038FE0DF20C4D5F
:103EB00030BD0000AC8E80005B4552524F525D20F9
:103EC000257300005B5741524E494E475D205061BB
:103ED00072616D303A25642C506172616D313A2502
:103EE000640000005B504152414D5D2050617261A1
:103EF0006D303A25642C506172616D313A25640051
:103F0000000000006170705F6173736572742E63EE
:103F100000000000014877F4AF9400006C45800079
:103F200006460F4690461D4672B64046FEF70EF90D
:103F3000402801D9402002E04046FEF707F9044638
:103F40009C210D48FEF7F7F8224641460A48FEF745
:103F5000D9F809484FF05531016445644FF0663196
:103F60008164C6644FF0773101654765C943816557
:103F70000220FFF765FFFEE7AC8E80002DE9F041DF
:103F800006460F4690461D464046FEF7DFF840289D
:103F900001D9402002E04046FEF7D8F804469C21B3
:103FA0000D48FEF7C8F8224641460B48FEF7AAF82E
:103FB00009484FF011310164456449008164C664C9
:103FC0004FF03331016547654FF044318165BDE8FD
:103FD000F0410120FFF734BFAC8E800070B588B08F
:103FE00006468A7ACB7A0C7B4D7BCDE90632CDE949
:103FF0000454887BC97B10A240F20F13CDE9003234
:10400000CDE902101A4B1BA220A1022000F0BAFD3C
:10401000304603F0A1F80446002C0AD014221449BB
:10402000183103A8FEF76EF8ADF8104003A800F0B1
:1040300075F808B070BD0000436F6E6E65637465FF
:1040400064207769746820746865207065657220E3
:10405000253032583A253032583A253032583A25F0
:104060003032583A253032583A253032582E000036
:10407000641E01012E2E5C5372635C757365725C65
:10408000757365725F6170702E6300004E4F5F54F0
:104090004147000010B586B0044610A24FF48F735C
:1040A000CDE900320291134B13A219A1022000F0B6
:1040B00069FD1949204602F0BBFC0446002C0AD0D9
:1040C00014220C491C3101A8FEF71CF8ADF8084079
:1040D00001A800F023F806B010BD00004469736326
:1040E0006F6E6E65637465642028307825303258B1
:1040F000292E0000901E01012E2E5C5372635C7508
:104100007365725C757365725F6170702E63000019
:104110004E4F5F5441470000244680003EB50446A0
:104120004FF400711A48FEF706F8207810B1012804
:1041300019D01DE000211748A28830F831309A428A
:1041400007D100EBC10014A143681148FEF7CEFC73
:104150000EE02E2902D0491CC9B2EEE714A10C488A
:10416000FEF7C4FC04E01DA109486268FEF7BEFC2E
:10417000074921A22069CDE901210090D4E9022359
:104180001EA1002000F0FEFCBDE83E4000F0C6BCD1
:10419000AC8C8000FC4380004572726F7220636FAC
:1041A0006465203078253034583A202573000000AB
:1041B0004572726F7220636F6465203078253034E9
:1041C000583A204E6F20666F756E6420696E666F78
:1041D000726D6174696F6E2E0000000028257329CE
:1041E000206973206E6F742065737461626C6973EB
:1041F0006865642E00000000257300006170705F28
:104200006572726F722E63002DE9F041014600293C
:104210001BD000240F4E0E4A357814E002EB041038
:104220000F780378BB420CD14B684068034208D03A
:10423000707808B900F044FC2046BDE8F04100F079
:10424000EBBA641CE4B2AC42E8D3BDE8F0810000F4
:104250004C8A8000D84380007CB505460E46002D70
:1042600001D0002418E005207CBD05EB0410416856
:104270000091017A8DF80410417A8DF8051007211C
:104280008DF80610C26800780023694600F048F8EF
:104290000028E9D1641CE4B2B442E6D300207CBD1E
:1042A00010B50C46062833D2DFE800F003030310F4
:1042B0001E27184951F830002104090C04D018B108
:1042C000214606F011FC1FE0042010BD2004000C64
:1042D00003D0A1B2104806F007FC200C14D0210C2A
:1042E0000E4806F001FC0FE014F0FF0F03D020464B
:1042F00006F0F0F908E0042010BD14F0FF0F05D01F
:104300002146002006F062FC002010BD042010BDF4
:10431000062010BD0C1C0101000001A0001001A02E
:104320002DE9F05F05460C46904699462768002621
:10433000052D13D039462846FFF7B2FF21462846FF
:1043400000F0ACF800280AD1042D0AD0032D2ED09D
:104350004FF0100B2807060E002491E00620BDE860
:10436000F09F4FF0080B2079042806D0052809D0CB
:1043700006280DD0072815D110E00021384600F49A
:10438000FCF40FE040F20111384600F4F6F409E0C5
:104390004FF00111384600F4F0F403E03B49384691
:1043A00000F4EBF44FF0007074F4A2D6D4E74FF0B1
:1043B000200BD1E7F80760D0052D65D2DFE805F0C6
:1043C000030303254600324800EBC50090F904A022
:1043D000BAF1000F17D0EFF31081012080F310889D
:1043E000A01900EB40022B4800EB8200C0F80480CB
:1043F000C0F8089081F31088504617F40DD7504646
:1044000017F428D739E00420A9E7EFF31082012040
:1044100080F31088A0191F4B00EB400003EB8001D4
:10442000C1F80480C1F80890032103F8201082F33A
:104430001088062017F4F0D6062017F40BD70720B3
:1044400017F4EAD6072017F405D716E0EFF310812A
:10445000012080F31088A01900EB40020E4800EB09
:104460008200C0F80480C0F8089081F31088122000
:1044700017F4D2D6122017F4EDD67F08641CE4B2EC
:104480005C4597D300206AE7062068E70101010038
:104490000C1C0101C08780004089800070B58EB07F
:1044A00005460C46564901F164004DC8CDE90A02A3
:1044B000CDE90C36D1E91E23486F06AED1F8801045
:1044C0000DC6099114224E49843101A8FDF71AFE48
:1044D000ACB14C4906200CF09DFB4B4907200CF079
:1044E00099FB4A4912200CF095FB4549444A2C316E
:1044F000062D7CD2DFE805F006060621415905208D
:104500000EB070BD207931F810000B90607932F850
:1045100010000C90A0790D9020680A903848143053
:1045200050F8350021880904090C04D018B10AA9F3
:1045300006F028FB59E00420E2E7207931F810006A
:104540000B90607932F810000C90A0790D902068E3
:104550000A9020680104090C05D080B20A900AA9CB
:104560002B4806F00FFB2068010C3ED0000C0A908F
:104570000AA9284806F006FB37E0207901EB400045
:10458000408A0790607902EB4000C0880890A079CB
:10459000099020680690207810F0FF0F03D006A83D
:1045A00006F0EAF821E00420AAE72079031F032B94
:1045B00001D80720A4E702281AD001200290207910
:1045C00001EB4000808C0390607902EB4000808911
:1045D0000490A079059020680190207810F0FF0FDA
:1045E00009D001A9002006F049FB002088E704E07B
:1045F00002200290E3E7042082E7062080E7000023
:10460000F81B0101AF4C8000A94C8000A54C800034
:10461000000001A0001001A010B502460C460020C9
:10462000062A26D2DFE802F00303030B1A1F114803
:1046300050F83200A1B2BDE8104015F448922104B0
:10464000090C03D0A1B20C4815F441D2210C10D0B2
:10465000210CBDE81040094815F43992A0B2BDE81C
:10466000104013F40792A1B2BDE81040002006F0FC
:1046700008BB10BD0C1C0101000001A0001001A02E
:10468000002803D0024908600120704700207047CD
:10469000E043800070B505460024091F062917D2A3
:1046A000DFE801F003070C111315284600F0A4F809
:1046B0000EE00124284600F09FF809E00224284675
:1046C00000F09AF804E0032402E0042400E005244A
:1046D000034A214628461268BDE870401047000092
:1046E000E04380002DE9F0410446204600F0AEF89A
:1046F00001462E4800230826025D00F10A0700F15A
:104700001405AAB1052A33D0082A2AD1092945D08F
:10471000082926D1295D491CC9B22955142920D35D
:104720002B5506552046BDE8F0410821FFF7B2BFE2
:10473000052913D0042916D0072914D0082910D12F
:10474000295D491CC9B2295514290AD32B55065590
:104750002046BDE8F0410821FFF79CBF3B550521ED
:104760000155BDE8F0812046BDE8F041FFF792BF5A
:1047700005290CD0395D491CC9B239553229F0D30D
:1047800003552046BDE8F0410521FFF783BF0355DF
:104790002046BDE8F0410621FFF77CBF03552046C7
:1047A000BDE8F0410921FFF775BF00002C8B8000A8
:1047B00070B504460D4600F00FF808B100F096F908
:1047C0000348044A2946005D5268BDE8704010471E
:1047D000408A8000D84380000020064911F810204C
:1047E0000AB100207047401CC0B20A28F6D301204D
:1047F000704700004A8B80000349002201F8102016
:1048000001EB4000427070474A8B8000014A02F879
:10481000101070474A8B8000024A012102EB4000D1
:10482000417070474A8B800070B50024064D05EB3F
:104830004400407810B12046FFF754FF641CE4B2F6
:104840000A2CF4D370BD00004A8B800070B50021A3
:104850001D4B03F132051A5C002A09D0002403F134
:104860000A06012A0AD0022A12D0032A24D11FE004
:1048700015F8102002B301221A541DE015F810207B
:104880001AB1345402221A5416E01C54042113E0C5
:1048900015F810204AB1325C521CD2B23254642A4C
:1048A0000AD3072103221A5406E005211C5403E011
:1048B00015F8101011B10821084670BD1C54FFF7FF
:1048C0009BFF0921F8E70000188B80001CB5012927
:1048D00053D1042815D002283BD003284DD127A05E
:1048E0005C21CDE900102A4B2AA233A1022000F05E
:1048F00049F9FFF77FF980B2BDE81C400021FEF7BF
:1049000061BF012074F4AED1FFF774F984B20021C5
:104910002046FFF775F901212046FFF771F90221C2
:104920002046FFF76DF903212046FFF769F90421BE
:104930002046FFF765F905212046FFF761F90621BA
:104940002046FFF75DF92046BDE81C400721FFF730
:1049500057B91BA05321CDE900100D4B0DA216A194
:10496000022000F00FF9FFF745F980B2002804D0CB
:10497000BDE81C400121FEF725BF1CBD70726573A8
:10498000736564206B657920726967687400000044
:104990002C1D01012E2E5C5372635C706C61746679
:1049A0006F726D5C757365725F7065726970685F58
:1049B00073657475702E63004E4F5F54414700005D
:1049C00070726573736564206B6579206C656674BD
:1049D000000000002DE9F0410E4617460A2E02D8CD
:1049E0000FB1002320E00020BDE8F08103EB430479
:1049F00010F82410032901D0042913D100EB8405F9
:104A0000114AA97AD154104910F824200C3101EB35
:104A10000314227069686160297A2172697A61726F
:104A20000A49E1605B1CDBB2B342DFD30648314682
:104A30000C30FFF711FC0648067047600548FFF789
:104A40001FFE0120D0E70000408A800009420001DB
:104A5000D8438000B14700012DE9F0410024124FF6
:104A6000DFF8488019E0002607EB0415287869680C
:104A7000FFF7D2FD10B9697A012902D0012802D0CE
:104A800005E0012603E0687A022800D101263146BC
:104A90002046FFF7BBFE641CE4B298F80000844295
:104AA000E1D3BDE8F08100004C8A8000D84380004B
:104AB00010B5FFF7D1FFBDE81040FFF7B5BE00000D
:104AC00010B5074A0121074800F0B6F900220A2173
:104AD000044800F01BFB04490120487010BD000091
:104AE000B14A0001F08A8000D843800010B5034825
:104AF00000F0CBF902490020487010BDF08A800018
:104B0000D8438000002806D0002904D0024AD26988
:104B1000002A00D010477047888C80000248006A45
:104B2000002800D000477047888C800070B50D4683
:104B300016460D4C00280AD00178032911D801210E
:104B4000A17601461A222046FDF7DCFA05E0002096
:104B5000A0761A210448FDF7EEFAE56126620020EE
:104B600070BD012070BD0000888C8000044A104494
:104B7000807D084201D0012070470020704700006E
:104B8000888C80002DE9FE4FDDF830B00646924655
:104B9000994600240027019702975A480178B142AC
:104BA00002D2807E00287DD10DF13808CDF800803A
:104BB000EFF311850220FDF7D1FF0146524800684E
:104BC000C0F30220401C012282408818C0B280F34A
:104BD000118801213046FFF7C9FF38B14B484C49D5
:104BE00050F82620204600F0A5F804461C21304647
:104BF000FFF7BCFF00285ED046A24549204600F0E2
:104C000099F8204484B204213046FFF7AFFFF8B191
:104C100052463F49204600F08DF8204484B20821D6
:104C20003046FFF7A3FF38B13BA23949204600F0D8
:104C300081F8204484B20BE010213046FFF796FF44
:104C400030B136A23249204600F074F8204484B2D4
:104C500008213046FFF78AFF90B14A462C4920468A
:104C600000F068F8204484B210213046FFF77EFF40
:104C700030B12BA22649204600F05CF8204484B2D3
:104C800010213046FFF772FF70B15B4626A2052166
:104C900001A8FDF713FF01AA1D49204600F04AF8BC
:104CA000204400E02BE084B220A21949204600F005
:104CB00041F8204484B21648C4F58071204443462C
:104CC0000D9AFDF727FF00974FF48071002804DB51
:104CD0002044884201DC86B200E00E46B01C8842C7
:104CE00000D9FE2612A20A49304600F023F83044CB
:104CF00081B20748FFF706FFE8B280F31188BDE8EC
:104D0000FE8F0000888C80000CED00E0E8438000FE
:104D1000888B800028000000200000003A0000007E
:104D2000204C696E653A0000256C64002920000063
:104D30000D0A000030B50546002000290CD0002ADD
:104D40000AD006E02B18FF2B06D8CC54521C401C6E
:104D500080B21478002CF5D130BD000010B5074AA0
:104D600006214CF201000AF081F802F055FC0CF02B
:104D7000D9FCBDE81040022073F47497261D010190
:104D800070B58CB006460C46002C30D0242103A808
:104D9000FDF7D1F920780025012410B1012822D196
:104DA00004E08DF80C508DF80D401CE011A0F921A5
:104DB000CDE90010174B18A21DA10220FFF7E2FE5B
:104DC0008DF80C408DF80D4010210DF10E00FDF70F
:104DD000B2F940208DF80E00E2208DF80F008DF81A
:104DE00010408DF8115003A9304669F42DD20CB053
:104DF00070BD0000506C6561736520496E707574FC
:104E00002070696E20636F64653A20313233343527
:104E1000362E0000481E01012E2E5C5372635C7515
:104E20007365725C757365725F6170702E630000EC
:104E30004E4F5F54414700002DE9F04104460D46B6
:104E40001746002D04D0012D02D00120BDE8F081CD
:104E5000CCB1C7B1EFF311860220FDF771FE804699
:104E6000FDF78AFE401C0121814008EB0100C0B221
:104E700080F3118800206070A570E761F0B280F3C4
:104E800011880020E2E70120E0E710B50446002C7D
:104E90000CD0204600F0CCF9FF2060700021A1600A
:104EA000E160216161610020E06110BD012010BD61
:104EB00010B586B0094A00210948FFF7BDFF044636
:104EC000002C09D01422074901A8FDF71BF9ADF801
:104ED000084001A8FFF722F906B010BD497E000185
:104EE00038D48000341E0101F0B5DDE9074505998D
:104EF00081614FF47A76A2FB061C03FB06C30027F0
:104F000002FB0732C0E9021209196A41C0E9041222
:104F100000210162F0BD00002DE9F0410446002CA3
:104F200013D0EFF311850220FDF70AFE0746FDF7C7
:104F300023FE401C012606FA00F03844C0B280F37C
:104F400011881248002121620EE00020BDE8F081A6
:104F5000D4E90432D1E9047CDB1B72EB0C0202D2EF
:104F6000016A216203E00846016A0029F0D1046267
:104F70006670064820380168491C0160016C416078
:104F8000E8B280F311880120E0E70000188A800071
:104F90002DE9F04105460024EFF311860220FDF7CC
:104FA000CFFD0746FDF7E8FD401C01218140781840
:104FB000C0B280F31188134A106CE8B115B102F148
:104FC000200010E00446206A10641068401E106043
:104FD0000CE0A94206D11168491E1160296A0162DC
:104FE0002C4603E00846016A0029F2D124B10020D2
:104FF00020626070106C5060F0B280F3118820461F
:10500000BDE8F081F88980002DE9F041EFF31187C8
:105010000220FDF795FD0446FDF7AEFD401C012181
:1050200081406018C0B280F31188114D002608E05D
:105030002078012804D1E16909B1A0698847267068
:105040002D6A2C6A002CF3D1094D203D07E0E1695F
:1050500009B1A06988472670206AA8602662AC68FA
:10506000002CF4D1F8B280F311880120BDE8F08162
:10507000188A80002DE9F041EFF311870220FDF737
:105080005FFD0446FDF778FD401C012606FA00F09E
:105090002044C0B280F311881B4DA5F1200829E0FF
:1050A000D4E90420D8E90413521A60EB0300D8E9CC
:1050B00006319A1A814120D326702046FFF768FFF7
:1050C000A078012802D0104818380DE0D8E9043043
:1050D000D4E902219A184841C4E904202046FFF788
:1050E0001BFF07E001F1200001680029FAD12162CD
:1050F000006804622C6A002CD2D1F8B280F31188C7
:105100000120BDE8F0810000188A80002DE9FF5FD2
:1051100082460E4693464FF00008BAF1000F20D0A9
:10512000414886421DD8E6B1EFF311870220FDF712
:1051300007FD0446FDF720FD401C01218140601859
:10514000C0B280F31188504606F0C4FE10B19AF840
:10515000010040B1F8B280F311880F2004B0BDE81F
:10516000F09F0120FAE709F0BBFA04460D464FF420
:105170007A7106FB01F022462B46002106F07AFEEA
:10518000DFF8A890B0B1D9F8040048B1D0E9041014
:10519000091B60EB0500C9E9041009F03DFB04E0C0
:1051A0000021C9F81010C9F814104FF00108D9E90E
:1051B000040106E0D9F80400D0E90421101B61EBDA
:1051C0000501CDE9020132460023CDF800B050467A
:1051D000FFF78AFE5046FFF79FFE0BF0B9FB4FF03A
:1051E000E021D1F800014FF0806210F0806F01D013
:1051F000012000E0002018B9C1F88022C1F8002188
:10520000B8F1000F0AD0D9F80400D0E90431D9E987
:105210000402181A61EB020109F098FAF8B280F35F
:10522000118800209AE70000008AB907F8898000F9
:105230002DE9F04104460025002C39D0EFF3118709
:105240000220FDF77DFC0646FDF796FC401C01217F
:1052500081407018C0B280F311886078012824D191
:10526000144E7068A0420BD109F03AFAD4E9043226
:10527000181A62EB0102C6E9040209F0CDFA012511
:105280002046FFF785FE5DB1706848B1D0E9042182
:10529000D6E90403101A61EB030109F057FA04E0A0
:1052A0001DB9706808B909F0B7FAF8B280F311882F
:1052B000BDE8F081F889800070B504461A4D55F8B4
:1052C000240070300AF0EFFD82B21646A2B155F804
:1052D000240090F8011101290ED0012180F8041159
:1052E000802A0FD355F82400802200F1800170300D
:1052F0000AF0EEFD80260CE055F82410002081F81D
:10530000000170BD55F8240000F1800170300AF0F2
:10531000DFFD55F82400324600F18001001D1CF429
:1053200089D30028EDD170BDCC4380002DE9F8432E
:105330000446464F57F82400061D022C7DD290F8F3
:105340006C10002979D001297ED180F8011100214B
:1053500057F82400D0E903231344027D02F0010230
:10536000D21D9D184268D36FC3F38003002BFAD07F
:1053700090F80421A2B1364A1368491C90F83B20EA
:10538000102A06D08268B3FBF2F26A43B1EBC21F67
:10539000F3D957F8240070300AF085FD85B226E075
:1053A000B0F82480C58C001D1BF4BCD757F824002E
:1053B00041F2883300EB0801491B8031001D2A4669
:1053C0001CF4FDD2E5E757F824000122703069464D
:1053D0000AF07EFD57F824004068C16FC1F3400118
:1053E0000029FAD09DF8001001606D1EADB2002DAD
:1053F000E9D157F8240070300AF055FD0028C8D1D3
:10540000306841694906FCD5EFF31085012080F32F
:10541000108857F8240070300AF045FD58B1EFF3BA
:105420001081012080F310883068426842F08202C7
:10543000426081F31088002000E005E057F8241056
:1054400081F8010185F31088BDE8F883CC43800022
:10545000044180002DE9F04389B0054688462C7848
:10546000002D06D02AB1022C05D3082009B0BDE8D2
:10547000F0830520FAE7384E05F1580046F824007D
:10548000D2E900310A46703019460AF0F7FC291DAE
:10549000894624220C316846FCF734FE291D286D0C
:1054A0000EC90CF0C7F80028E0D12C490C200BF0F5
:1054B000B1FB2B490D200BF0ADFB2A4800EBC407D4
:1054C00097F9010016F4A8D697F9010016F4C2D690
:1054D00056F82400C0F8649056F82400C0F8008004
:1054E00056F824001822083005F14001FCF70AFEA6
:1054F00056F824107868486056F82400001D05F01E
:10550000F1FD56F82400001D05F022FE351F01278D
:10551000287850B92F701348032110300AF092F800
:105520006880002801DA0420A0E756F8240080F8FB
:105530006C7056F82410002081F8000156F82410F1
:1055400081F8010156F8241081F8020156F8241060
:1055500081F803018AE70000CC4380007D2A000126
:105560008D2A0001981C010170B5022801D3082082
:1055700070BD134C54F820304BB193F86C5035B1DA
:1055800039B132B193F80351012D04D010E0052058
:1055900070BD042070BD002583F8035154F82030FD
:1055A0005B680225C3F8885054F820305B681B689C
:1055B00054F82000001D05F0DFFD0028EAD170BD81
:1055C000CC43800070B5007802285BD1FF25002411
:1055D00002222DA12D48FCF7C0FDC0B104222CA150
:1055E0002A48FCF7BAFDA8B104222BA12748FCF7F2
:1055F000B4FD90B105222AA12448FCF7AEFD78B194
:10560000022229A12148FCF7A8FD60B10DE0022487
:1056100000250AE00424012507E00424022504E013
:105620000524032501E0022404251848012204442E
:105630001EA12046FCF791FD80B1204601221CA14D
:10564000FCF78BFDA0B10124F4211048FCF773FD99
:1056500021462846BDE87040FFF738B920460222AF
:1056600014A1FCF77AFD08B10224EDE70324EBE76F
:105670002046022210A1FCF770FD08B10524E3E7E3
:105680000424E1E770BD00007570000048938000BD
:10569000646F776E000000006C65667400000000A7
:1056A00072696768740000006F6B00002B000000D7
:1056B0002D0000002B2B00002D2D00002DE9F041C6
:1056C00004461A4D55F8240070300AF0ECFB82B203
:1056D000164600277AB155F8240090F801110129E7
:1056E00009D0802A0ED300F18001703080220AF0A8
:1056F000EFFB80260BE055F8240080F800710020B5
:10570000BDE8F08100F1800170300AF0E1FB55F84E
:10571000240080F8047155F82400324600F180011D
:10572000001D1CF4CDD10028EAD1E9E7CC4380006C
:1057300070B5022801D3082070BD0C4D55F82040EB
:105740007CB194F86C6066B169B162B1002684F8EE
:10575000026155F82000001D1CF431D10028EBD166
:1057600070BD052070BD042070BD0000CC438000DA
:105770002DE9F04106460C46174604F1080520467F
:1057800070F41AD0C3B21B48E1184268914202DD9E
:105790000320BDE8F0811849184A006809681268BA
:1057A000891A081A001FE91881421CD94FF40045D4
:1057B00013A22946002002F4DDF402F015F830B1FE
:1057C00018A22946002002F4D5F40820E1E71DA222
:1057D0002946002002F4CEF43A4621463046BDE880
:1057E000F0410CF035B93A4621463046BDE8F0416B
:1057F0000CF02EB9D8328000D0238000CC2380005A
:10580000523A353A4E5644532061726561206973AD
:10581000206265696E6720636F6D70616374656493
:105820002E0D0A00523A353A436F6D706163746908
:105830006E67204E564453206661696C65640D0A9C
:1058400000000000523A353A436F6D70616374692D
:105850006E67204E56445320737563636573736699
:10586000756C0D0A000000007CB50D460022009208
:105870000192694602F480F4044634BB4FF420518F
:10588000684602F47BF4B8B942F60101684602F4B6
:1058900075F488B942F60301684602F46FF458B90A
:1058A00042F60201684602F469F428B94FF4245123
:1058B000684602F463F408B1062406E00098C5F3D4
:1058C0000B01808808430099888020467CBD000039
:1058D0002DE9F04782460E46174698464FF00109DB
:1058E0000025D8F80040002C18D11E48046815E0A7
:1058F0003188A08881420BD3E088814204D82146B8
:10590000504600F031F808B1246807E0012505E0B1
:105910002146504600F028F810B1246825B105E072
:105920000125A0883080F9E7002CE1D1B5B14FF016
:105930000009A0883188884204D1201D38600120E8
:10594000387109E0081A401E00EB400004EB4000EB
:105950000E30386000203871C8F800404846BDE875
:10596000F0870000F80E800070B586B0002200EBD2
:105970004003114C03EBC00304EB43052C7D17E0FF
:1059800035F8123093B18E889E420FD8CE889E4251
:105990000CD3CA8889888DE81F00084B084A40212B
:1059A000002002F4E7F3012006B070BD521CD2B211
:1059B0009442E5D80020F7E794D780001A2101012E
:1059C000D82901012DE9F04F8BB007460C46002580
:1059D00000200890099060880790261FE188A2881F
:1059E000CDE901210090614B61A24021002002F429
:1059F000C1F3308850B938460FF410D3401E3080C0
:105A00006088A188884200D800B90125DFF890910C
:105A1000002D60D104F10A000DF1200A0DF1140BE4
:105A200004F106080A90A088069004A8CDE9020BAC
:105A3000CDE9008A022306AA07A9384600F0ACF98E
:105A40000546280008D00A2D45D0062D43D0BDF8C4
:105A50001800401C079032E0E088B0F5205F03D0CA
:105A600042F60101884208D1BDF81000217AC3B284
:105A7000059A0A9802F484F348B92289BDF8100007
:105A8000824218D105990A98FCF767FB98B9022160
:105A900008202AF419D20146BDF81C008880BDF800
:105AA0001800C880083E59F82700603002F46AF3F5
:105AB000384602F469F3BDF81800401C0790A0882E
:105AC000BDF81C10884206D3BDF81810884202D0D9
:105AD00030880428A7D2062D36D059F82700603028
:105AE00002F454F340B300244FF6FF7101EA80063C
:105AF000062000EB072307220421384600962CF4E9
:105B000093D501464E8059F82700006E0EE0838839
:105B10000A1913711B0A5371A41CA4B2C3880A1971
:105B200013711B0A5371A41CA4B200680028EED1A3
:105B3000084602F42DF30AE021780A23BDF81C2060
:105B4000384602F427F302E0BDF81C006080074BE2
:105B500014A240210020009502F40CF3062D03D07E
:105B600000200BB0BDE8F08F0120FAE7E220010130
:105B7000523A333A5B25735D20656E7465722C2052
:105B800073683D307825782C2065683D307825781D
:105B90002C20747970653D307825780A000000006B
:105BA000C40E8000523A333A5B25735D20657869F4
:105BB000742C207374617475733D307825780A00F5
:105BC0002DE9F04F85B081460E4648460FF426D2A7
:105BD000801E1FFA80FAD0460024B0887188CDE973
:105BE0000010574B57A24021002002F4C3F27088E6
:105BF000B188DFF874B1884211D880B17088049000
:105C0000002002900390019001AB02AA04A948462B
:105C1000FFF75EFE0546280003D00A2542E0012575
:105C200040E0B088BDF81010884232D3022118201D
:105C30002AF44AD10746012000900023FA1DB91D1D
:105C400002A802F4A9F20546280007D040F24E232C
:105C500046A22946BDF8100002F4A0F2BDF81000DB
:105C6000B88004B9BC79B879A04203D0384629F489
:105C7000ABD717E05BF829003946603002F482F2B6
:105C8000A8EB0400801E1FFA80F8BDF81000401C2D
:105C90000490B188BDF81000814203D310B1A01C5C
:105CA0008045B1D25BF82900006E18B1002018B110
:105CB0009DB334E00120FAE70026AAEB08081FFA9A
:105CC00088F00090062000EB0923052204214846B5
:105CD0002CF4AAD40746022C08D0022078707888C9
:105CE000404478805BF82900046E10E00120F5E75D
:105CF000A188B8198180B61CB6B2B819A279001D66
:105D0000E11DFCF7FFF9A079304486B22468002C2D
:105D1000EED1384602F43CF207E0FFE70A2572882C
:105D200031782B46484602F435F2054B13A2402148
:105D30000020009502F41EF205B00020BDE8F08FAF
:105D4000C9200101523A333A5B25735D20656E74B8
:105D500065722C2073683D307825782C2065683D6D
:105D6000307825780A000000C40E800061747473D6
:105D70005F70617463682E6300000000523A333A2A
:105D80005B25735D20657869742C2073746174756C
:105D9000733D307825780A002DE9F04F87B08346AF
:105DA000DDF844900C4615469A460026B4F800806B
:105DB0000027019701AB4A4621465846FFF788FD68
:105DC00010B12888208026E02088298888421BD8A6
:105DD000002302AA06A94846009702F4DDF1014615
:105DE00029B1208840F269131AA202F4D7F19DF874
:105DF000183002AA5146109802F4C2F108B10126E7
:105E000002E02088401C20802EB920882988884202
:105E100001D80028CED16EB122884B4600215846C9
:105E200002F4BEF1C6B22088494602F4BBF12880D4
:105E300026B10AE00A26A4F8008006E02188DDE900
:105E40001223584602F4B0F1C6B207B03046BDE89E
:105E5000F08F0000617474735F70617463682E6307
:105E6000000000002DE9F04105460C46FF26217A8E
:105E70001E2905D022480279521E52B200683AE02B
:105E800004F10801284602F491F1064635E010F8C5
:105E900032308B422DD11B4E56F82500406F30B367
:105EA00000273B4618A24021002002F463F106209F
:105EB00000EB05202AF45ED2C00605D5002717A204
:105EC0004021002002F456F121460C3956F82500F5
:105ED000743002F457F10020A08001266FB115A2A2
:105EE000402102F447F1284602F462F105E001275F
:105EF000D7E7521E52B2002AC9DA3046BDE8F08117
:105F00007C058000C40E8000523A333A65786563A0
:105F10007574653D307825780A000000523A333AAE
:105F2000636F6E6E656374206E6F742063666D0AB6
:105F300000000000523A333A73746172742065783D
:105F400065637574650A00000348024901600D210C
:105F500041607047282001017C0580002DE9F04F49
:105F60008BB082460C460026002009900A9060887B
:105F70000890251FB0462988A288CDE9012100900C
:105F80006D4B6EA24021002002F4F4F0288850B935
:105F900050460FF443D0801E28806088A188884234
:105FA00000D800B90126714850F82A00006E10B1DF
:105FB000002111B103E00121FBE790F80680002EDB
:105FC0005DD104F1080BA088079006A805A909AACD
:105FD000CDE90210CDE900B2A37907AA08A950467D
:105FE000FFF7DAFE0646300049D1BDF814108845A7
:105FF00002D0B8F1000F42D12888001FFB22FB28F5
:1060000000D31046814200D2084687B2022107F130
:106010000C0029F459D78146BDF81480BDF8200042
:10602000A9F80400BDF81C00A9F8060089F808705A
:106030003A4609F109000699FCF764F82888C01B64
:10604000001F28804948494650F82A00603002F471
:1060500099F0BDF81400874202D1504602F494F042
:10606000BDF81C00411C89B20891A2888A4206D35F
:10607000824204D0298808F104008142A3D2062E6E
:1060800048D03A4D55F82A00603002F47FF0C0B392
:10609000002755F82A100C6E217A091D41431FFA7A
:1060A00081F8062000EB0A23112204215046CDF886
:1060B00000802CF4B9D20546A5F80280217A091D8A
:1060C000697018E0A188E8190171090A4171BF1CC3
:1060D000BAB2E188A8180171090A4171921C97B2FD
:1060E000E819227A001D04F10901FCF70BF8207A67
:1060F000384487B22468002CE4D1284602F448F0E2
:106100000BE0FFE721783346BDF82020504602F42B
:1061100041F002E0BDF820006080074B14A240214E
:106120000020009602F426F0062E03D000200BB0CB
:10613000BDE8F08F0120FAE7A9200101523A333A75
:106140005B25735D20656E7465722C2073683D302D
:106150007825782C2065683D307825782C2072656C
:106160005F6C656E3D307825780A0000C40E8000B3
:10617000523A333A5B25735D20657869742C20733D
:1061800074617475733D307825780A002DE9F04FFD
:106190008BB082460C460026002009900A90608849
:1061A0000890251FB046A188694BCDE9000169A27E
:1061B0004021002001F4DEF7288850B950460EF443
:1061C0002DD7801E28806088A188884200D800B919
:1061D0000126694850F82A00016E11B1002010B163
:1061E00003E00120FBE791F80680EEBB04F1080B09
:1061F000A088079006A805AA09A9CDE90220CDE943
:1062000000B1A37907AA08A95046FFF7C5FD0646C5
:10621000300047D1BDF81410884502D0B8F1000F06
:1062200040D12888801EFD22FD2800D310468142DF
:1062300000D2084687B2022107F1080029F444D6AB
:106240008146BDF81480BDF82000A9F8040089F843
:1062500006703A4609F107000699FBF753FF2888B4
:10626000C01B801E288000E01CE04348494650F8CF
:106270002A00603001F486F7BDF81400874202D18D
:10628000504601F481F7BDF81C00411C89B2089109
:10629000A2888A4206D3824204D0298808F10200EB
:1062A0008142A5D2062E40D0334D55F82A006030E9
:1062B00001F46CF780B3002755F82A100C6EA17911
:1062C000891C41431FFA81F8062000EB0A230922AA
:1062D00004215046CDF800802CF4A6D10546A5F83F
:1062E0000280A179891C697010E0A188E819017108
:1062F000090A4171BF1CBFB2E819A279001DE11D56
:10630000FBF700FFA079384487B22468002CECD159
:10631000284601F43DF70BE0FFE721783346BDF84E
:106320002020504601F436F702E0BDF820006080DE
:10633000074B12A240210020009601F41BF7062E05
:1063400003D000200BB0BDE8F08F0120FAE7000079
:10635000FE200101523A333A5B25735D20656E746D
:1063600065722C2073683D307825782C2065683D57
:10637000307825780A000000C40E8000523A333A83
:106380005B25735D20657869742C20737461747566
:10639000733D307825780A002DE9FF5F81460F466E
:1063A0000024A246CDF808A0CDF80CA0584850F81B
:1063B0002900603001F4EAF680463D1F798828887C
:1063C000544BCDE9001054A24021002001F4D2F634
:1063D0002888E8BB48460EF421D6401E28800026B7
:1063E00011E007EB460002AB82880021484601F429
:1063F000D7F6C4B2CDF808A0CDF80CA00CB1B046C9
:106400003BE0761CB6B27888B042EAD835E007EBBC
:1064100048006B46818801AA484601F4C5F6C4B21B
:106420003CBBBDF804002988884200D3084686B2E8
:10643000022106F1080029F447D58346ABF8046031
:1064400032460BF106000099FBF75CFE304800E095
:1064500013E050F829005946603001F493F648469D
:1064600001F492F62888801B288008F101081FFAA1
:1064700088F8CDF808A0CDF80CA07888404503D95D
:10648000288808B1002CC2D044BB48460EF4C6D5BB
:106490002988401A401E86B20025062000EB0923F9
:1064A0000F220421484600962CF4BED08246AAF85A
:1064B0000260174850F82900066E0AE00AEB050052
:1064C000B288001DB11DFBF71DFEB088284485B2BF
:1064D0003668002EF2D1504601F45AF64CB1062C23
:1064E00007D007EB4800397882882346484601F4F4
:1064F00051F6084B14A240210020009401F43AF612
:10650000062C03D0002004B0BDE8F09F0120FAE77C
:10651000C40E800090200101523A333A5B25735D2E
:1065200020656E7465722C206E625F68616E646CAB
:10653000653D307825782C2072655F6C656E3D3046
:106540007825780A00000000523A333A5B25735DE3
:1065500020657869742C207374617475733D30788C
:1065600025780A0010B500210A4C0023002001EB19
:10657000410202EBC10204EB420222F81030401C3F
:10658000C0B20A28F9D31375491CC9B20A29EDD340
:1065900010BD000094D780001FB50F4890F802018D
:1065A000002818D068464DF4C5D6DDE900010B4C33
:1065B000CDE90201E1680844094920F070404860D3
:1065C00008464EF44DD1607818B1BDE81F4009F07F
:1065D0009FBD09F0B9FD1FBDC01A80006C49800045
:1065E000B41A800002460020002152F821300BB17D
:1065F000401CC0B2491CC9B20C29F6D3704710B573
:1066000007F08CFBBDE8104002F08CBF07F01CB90E
:1066100010B58CB008A80AF0FDFCBDF8221009984E
:106620009DF82120CDE904109DF820302FA040F2E4
:106630006311CDE90232CDE90010364B36A23CA100
:106640000220FEF79FFA0AA85FF4B2D4044654B1C0
:1066500014223049103103A8FBF754FDADF8104067
:1066600003A8FDF75BFD9DF828009DF82910CDE9F2
:1066700006109DF82A209DF82B30CDE904329DF8B4
:106680002C109DF82D002CA24FF4B473CDE90032EC
:10669000CDE902011F4B20A225A10220FEF772FACC
:1066A00030A040F26F11CDE900101A4B1AA220A1C0
:1066B0000220FEF767FA0AF0F9F802F0F5FBFEF7A0
:1066C000F7FB3549002000F0B3F90446002C0AD04E
:1066D00014221049243103A8FBF714FDADF8104033
:1066E00003A8FDF71BFD0CB010BD0000476F6F64E1
:1066F000697820424C452053444B205625642E2572
:10670000642E25642028636F6D6D697420257829B7
:1067100000000000D01E01012E2E5C5372635C75D8
:106720007365725C757365725F6170702E630000D3
:106730004E4F5F54414700004C6F63616C20426FC5
:1067400061726420253032583A253032583A25306B
:1067500032583A253032583A253032583A253032BC
:10676000582E00004170706C65204E6F7469666928
:10677000636174696F6E2043656E74657220436C4B
:1067800069656E74206578616D706C6520737461E5
:10679000727465642E000000244680002DE9F041EB
:1067A00005468846284669F4CBD4C0B22449097806
:1067B00088420DD200EB4000213040F400404246B8
:1067C000AC2108F053FB0446200032D0012430E015
:1067D00069F4FAD4C7B207EB470606F1200040F48B
:1067E00000402A46072108F041FB10B10120BDE816
:1067F000F081384675F438D606F1210040F40040A7
:106800004246AC2108F032FB0446200001D00120B2
:10681000EDE7223646F4004008F07EF90949C7EB5F
:10682000C7000968084429680160A9888180A9799E
:1068300081711CB941462846FCF75EFF2046D6E729
:10684000382380003C2380000020704710B509F0F9
:10685000D5FC09F005FD09F06FFC09F0F3F80AF02A
:1068600075FD00F041FC09F00FFD00F08BFBBDE869
:10687000104000F06DBB09F069B810B506F098F94A
:1068800007F058FB06F0A4F906F0B4FD06F004FA90
:1068900005F03AFDFFF758FB03F0F4F909F088FD25
:1068A0000AF096F9BDE81040FFF75CBE0148FFF71B
:1068B00099BE0000B413800010B5FFF7DCFF054956
:1068C00003480860BDE81040034875F43F9000009D
:1068D00017B8800474C500A00087930310B5044660
:1068E000002C0CD0204600F0CFFA002807D1044934
:1068F0004968002903D02046BDE81040084710BD74
:10690000404780000EB5018840F20233A1F2023206
:10691000994246D013DCB1F5807F1FD0A1F50071FC
:1069200007391FD001292DD0FA292AD1027903B0C5
:1069300000F1080110465DF804EBFDF74FBB042A97
:1069400036D0A2F54072FE3A39D0012A19D14088DA
:10695000002816D1BDE80E40FCF7CCBFBDE80E40C4
:10696000FFF756BE408800280BD019A14FF49C7247
:10697000CDE9002102901F4B1FA225A10320FEF7A5
:1069800001F90EBD007A0028FBD123A040F23F118F
:10699000CDE90010174B18A21DA10320FEF7F2F855
:1069A0000EBD017A007903B05DF804EBFDF772BB10
:1069B000007903B001215DF804EB60F4F5900279F1
:1069C00003B0411D10465DF804EBFEF7D9B9000095
:1069D000416476657274696E672073746172746560
:1069E00064206661696C6564283058253032582906
:1069F0002E000000C01E01012E2E5C5372635C75D8
:106A00007365725C757365725F6170702E630000F0
:106A10004E4F5F544147000041647665727469735C
:106A2000696E672074696D656F75742E00000000D3
:106A30002DE9F84307460D46EFF3118659480178D2
:106A400059480068C0F30220401C01228240881887
:106A5000C0B280F3118869F449D48046052F06D36B
:106A600052A21021002001F485F3152487E09DB186
:106A70005148C7EBC70100EB8104E06860B1607A60
:106A800008B167F48DD3607A68B14CA21021002060
:106A900001F470F30F2472E04BA21021002001F4E6
:106AA00069F302246BE02069F8B9E068017841B12C
:106AB000012910D047A21021002001F45BF3232408
:106AC0005DE08078400710D445A21021002001F439
:106AD00051F3232453E08078800706D443A2102189
:106AE000002001F447F3232449E0E06841888A0745
:106AF00004D50278012A01D162691AB10278022A0A
:106B000007D008E03CA21021002001F433F3252433
:106B100035E0A26962B1090711D5298809B1802938
:106B20000DD938A21021002001F424F3262426E0F8
:106B300037A21021002001F41DF324241FE0407827
:106B400002280CD1288818B144F25061884206D935
:106B500032A21021002001F40DF326240FE0E06999
:106B600028B90021042064F4BFD6E061B8B1E0691F
:106B7000296801603946002069F414D500243B4699
:106B800029A210210020009401F4F4F2404669F497
:106B900077D3F0B280F311882046BDE8F883102443
:106BA000EDE7000002E400E00CED00E0523A313A7B
:106BB000453A310A000000007C278000523A313A01
:106BC000453A330A00000000523A313A453A320A57
:106BD00000000000523A313A453A360A00000000FF
:106BE000523A313A453A340A00000000523A313AFA
:106BF000453A350A00000000523A313A453A370A20
:106C000000000000523A313A453A390A00000000CB
:106C1000523A313A453A380A00000000523A313AC5
:106C2000453A31300A000000523A313A6164765FE9
:106C300073746172745B25645D3A20453A3078253F
:106C40003032780A000000002DE9F84304460D4672
:106C50000027EFF311862448017824480068C0F328
:106C60000220401C012282408818C0B280F31188A3
:106C700069F43CD3804623461DA2102100200095D4
:106C800001F478F27DB1601E4AF2B811884206D351
:106C900020A21021002001F46DF201271AE09528AE
:106CA00003D2962401E04FF461741F48A0F8044118
:106CB00035B190F81C1141F0040180F81C1105E079
:106CC00090F81C1121F0040180F81C11418841F05A
:106CD00002014180404669F4D3D2F0B280F31188BA
:106CE0003846BDE8F883000002E400E00CED00E067
:106CF000523A313A72656E65775F6475723A25640F
:106D00002C20656E61626C655F666C61673A256414
:106D10000A000000523A313A696E76616C6964206B
:106D2000706172616D0A00007C2780000A2805D21C
:106D3000034A002152F8200080F88F1070470000AD
:106D4000C40E800070B504460D46204609F0EEFAE8
:106D5000002805D129462046BDE8704062F42A91FA
:106D600070BD000038B504460D4600200090002C90
:106D700006D069460D485EF4D7D680B210B110E057
:106D8000022038BD142075F469D0014659B105CCF4
:106D9000C1E90102CD609DF800000874044805F0C7
:106DA00029FB002038BD102038BD00001C20010147
:106DB000E047800070B504460D46204609F0B6FA5B
:106DC000002805D129462046BDE8704062F43C9772
:106DD00070BD2DE9F8430546089C0E4617469846B7
:106DE000284609F0A3FA002806D143463A46314620
:106DF0002846009462F486D7BDE8F88300B58BB0CE
:106E0000094901200870FF22282101A8FBF78CF90D
:106E10004FF48070ADF804000020ADF8060001A822
:106E2000FFF75CFD0BB000BD4047800010B5064881
:106E30000068002800D08047FEF74EDC08B1012032
:106E400010BD002010BD0000CC49800010B540F4FA
:106E5000404007F061FE10BD10B540F4404008F01E
:106E600005F810BD0449016004494160044981608E
:106E70000449C1607047000041C2060015C2060007
:106E8000596E00014D6E000170B50446002C1FD0F4
:106E90004FF6FF731946228840F20155A2F20150C5
:106EA0004FF48076AA424CD01BDC40F20245A2F29D
:106EB0000240AA4234D00DDCA2F54072013A25D03E
:106EC000012A23D0FF2A29D0B2422ED121892CE0D9
:106ED000002070BD012825D0022825D0FE2824D10D
:106EE0002AE004282DD006DC01282AD0022828D048
:106EF00003281AD125E0052823D0062821D0B04246
:106F000013D1204602F070FD002070BD204603F032
:106F10009FF9204603F018F8002070BD218904E095
:106F2000218902E0618900E0218A99420ED0204641
:106F300003F09EF9012070BD204603F099F800206F
:106F400070BD204603F010F8002070BD002070BD19
:106F500010B52121094808F02BFC0721084808F04A
:106F600021FC01210548083808F016FCFFF785FCD4
:106F70000520FFF74BFBFFF742FB10BD14418000DB
:106F80001C42800004490348086005490348086022
:106F900070470000818900010C228000BD8B000138
:106FA0001822800070B50026150A0E4805EB450230
:106FB00000EB0214098821800120A0702846FFF709
:106FC000B5FE002069F45CD10748016829B10B685F
:106FD0001BB1228800212846984769F487D13046A2
:106FE00070BD0000D42E8000B82280003EB5002481
:106FF0001D0A0A78122A02D0132A04D006E00020C3
:107000008DF8000002E001208DF800008888ADF8BE
:1070100004004888ADF80200891D0291002069F43F
:107020002FD10B48016829B18A691AB169462846EF
:10703000904708E09DF80000012804D1BDF8041035
:107040002846FFF77FFE69F451D120463EBD00007F
:10705000B42280000148007870470000E4498000B5
:107060007CB50E46150A002000900190694628461E
:1070700073F484D19DF806206946284602F0C4FCCA
:107080000446CCB162F482D7C0B162F47FD7C01C91
:1070900081B23288002320466DF460D369462846C9
:1070A00009F0C2F940B106A24021002001F462F0CB
:1070B000214668465EF4C8D400207CBD0020E7E786
:1070C000523A333A7361766520636363640A000061
:1070D0007CB5DDE90654CDE9005466F483D5BDE8FE
:1070E0007C4008F0EDBA0000024901480860704792
:1070F000D17000014823800010B588B0044666F4C2
:10710000FFD70020079007A854F4A6D60798FFF7EA
:10711000A9FE2068019060680290A0680390E06872
:107120000490208AADF81400608AADF81600A08A99
:10713000ADF81800E08AADF81A0001A854F4B6D6EC
:1071400054F496D60348016801614168416108B072
:1071500010BD0000300100B02DE9F0438BB00546B2
:107160000027EFF311862C4801782C480068C0F303
:107170000220401C012282408818C0B280F311888E
:1071800069F4B4D0804626A22021002000F4F2F752
:107190000A2D01D3032706E0284661F41BD660B10F
:1071A000284673F455D6404669F46AD0F0B280F3AD
:1071B00011880BB03846BDE8F083DFF87490C5EB5A
:1071C000051000EB4004D9F8000010F82410012944
:1071D00008D100EB8400407AC00703D0284609F0AC
:1071E000FDF818B1284673F41BD6DCE7D9F8000087
:1071F000102200EB84014E310C460C316846FAF740
:1072000081FF21461C2204A8FAF77CFF04A9284626
:107210000EC973F495D0C6E702E400E00CED00E07F
:10722000523A323A737461727420656E630A0000D8
:10723000E823800010B58AB00446FF222821684662
:10724000FAF772FF40F20271ADF800100021ADF8BC
:1072500002108DF804406846FFF740FB0AB010BDED
:107260002DE9F04104460025EFF311862748017807
:1072700027480068C0F30220401C01228240881881
:10728000C0B280F3118869F431D007462CB121795E
:10729000C81F0A2803D301252BE0022529E0207806
:1072A000022801D0052804D1E278520701D4012533
:1072B0001FE003280AD1E278530701D5120701D451
:1072C000012516E0102901D2012512E0042801D081
:1072D000052807D1607940F004006071A07940F082
:1072E0000400A0710B4821680160A1888180A17908
:1072F0008171012060F424D3384668F4C1D7F0B21C
:1073000080F311882846BDE8F081000002E400E027
:107310000CED00E0F023800030B58568027B002D85
:1073200002D0002001210CE0104630BDCB0801F056
:107330000704EB5CE340DB0701D0401CC0B2491CF2
:10734000C9B28A42F2D830BD00230849496808E032
:10735000CA88824204D80A89824201D3CB6802E0FB
:1073600009680029F4D1184670470000D84780000A
:1073700001460548406803E002798A4202D000686D
:107380000028F9D170470000D847800070B5104E32
:107390003078FFF7EDFF0446200006D0206963F443
:1073A000D9D00546280002D00DE00C2070BD206920
:1073B000FFF7B2FF0146206902681288E280006888
:1073C0000088084420813078401C3070E8B270BDDD
:1073D000D847800070B519480468194D28780028EE
:1073E00001D0002070BD4FF0806071F481D6FFF7AE
:1073F0007BDD600872F48CD512490860881711494A
:1074000001262C39086010497006C1F8FC01C867D4
:107410004FF03041086B40F007000863094C303CE6
:10742000206840F4E0202060FFF7A0DD2E70206887
:1074300020F4E0202060012070BD00006C2480005A
:10744000C449800070C500A084E000E070B500244D
:10745000EFF31086012080F31088FFF7A2DD104DB6
:1074600028B102242968B9B10220884714E0FFF747
:10747000DDFC20B1296879B1002088470CE0FFF7D6
:10748000A9FF28B10224296831B10220884703E00E
:10749000296809B10020884786F31088204670BD0E
:1074A0005C24800010B5084A1378002B01D00F200F
:1074B00010BD31B150600448243000F007F80020BE
:1074C00010BD022010BD0000404780002DE9FC47A0
:1074D00005460C46FFF7BAF968F408D70746364860
:1074E000006800B180473549012009F093FB344919
:1074F000022009F08FFB0120FAF7FCFDA08E81B27B
:10750000206B01F0FBFFDFF8BC90DFF8BC80E16985
:1075100099F8000098F800200244B1FBF2F1CEB2D5
:1075200016FB00F1A06964F441D7286863F4D0D257
:1075300068685FF4DDD1286966F47CD6A86861F4D8
:1075400075D4E86861F41AD520484CF4A3D02048DB
:107550004CF4A6D01F484CF4A9D01F4854F4D2D400
:107560001E484CF44DD01E484CF450D01D484CF4ED
:1075700053D01D4864F4EED64FF0806071F4B8D556
:107580002046FFF7B9FDD4E90A01CDE9000199F8D9
:107590000010A06916FB010098F8001016FB01F11D
:1075A000D4E90823114C2468A047384668F468D60B
:1075B000BDE8FC4764F4B2978026800039380600A5
:1075C000DD37060029D507002AD50700119F0700DF
:1075D000B9C3060065C40600EDAF070025ED06003F
:1075E00045ED060065ED0600799B07004823800005
:1075F000034900EB800001EB8000808870470000A9
:107600003C488000034A00EB800002EB8000818050
:10761000704700003C48800010B500F065F800F0AD
:1076200047F8BDE8104000F001B8000000B58FB089
:1076300003228DF800204FF48050019005218DF831
:10764000081001208DF8090000238DF80A308DF80C
:107650000C20430304938DF814108DF815008DF859
:1076600016008DF81820C30307938DF820108DF8AD
:1076700021008DF822208DF8242082030A928DF8B3
:107680002C108DF82D0002228DF82E2004238DF869
:1076900030300D928DF838108DF839008DF83A3071
:1076A000024A6846FDF796F90FB000BDCD480001CB
:1076B0007CB51026009602248DF804408DF8054014
:1076C00007258DF8065069460320FCF7E7FE009673
:1076D0008DF804408DF805408DF806506946052068
:1076E000FCF7DCFE7CBD000000B587B000F01EF8A2
:1076F00003208DF800001D208DF8160001208DF864
:1077000017008DF818008DF81900044A04496846DE
:10771000FDF70CFAFCF7FEFB07B000BD2577000172
:107720007D7700010020FDF701BE00001CB5114867
:1077300000904FF48064019400F580600021017096
:107740004FF4E1320264032242648164C164016542
:10775000012141650274CB02436102234374017627
:1077600002718460437101736A460349FDF772FE3A
:107770001CBD000060828000492200010A460146CB
:107780004FF47A730020FDF7D3BF00000E4910F1CB
:10779000210F06DA086820F4704040F44050086079
:1077A000704710F11D0206D3086820F4704040F4C1
:1077B0008040086070470A28FCDD086820F47040AB
:1077C00040F4A0400860704724C500A010B508F040
:1077D00029FD07F021FF09F04FFC00F039FBBDE85F
:1077E000104008F08DBC00002DE9F04F87B07B48B9
:1077F000D0F8009000240025A246002609F0AEFD36
:1078000077480168C9F800104068C9F80400754855
:1078100000680830059009F108000690042203A9C9
:10782000059800F0DDFABDF80C10A1F57F40FF3897
:1078300043D0082203A9059800F0D2FABDF80E0043
:107840006DF4BAD700F0FF08BDF80C00002867D02F
:107850000698A9EB000707F58057BDF80E1008F150
:10786000080083460844B84263D805AB082203A940
:1078700006A800F0EBF8BDF80E00002300EB0802AC
:1078800005A906A807F072FF641CBDF80E00584455
:10789000B842C3D10020CDE9006053464A46214694
:1078A000284609F0EBFF002826D182460026002456
:1078B000CDF818906D1CEDB2B0E70020CDE9006066
:1078C00053464A462146284609F0D8FF002813D1DE
:1078D0006D1CECB2434D4FF48057434E08E02868CE
:1078E00000EB0430394603F075F840B1641CE4B293
:1078F000707AA042F3D8002007B0BDE8F08F3B4873
:107900008169407A40F27C42CDE900200291384BF7
:1079100038A24FF40041002000F42CF40920EBE7DA
:10792000BDF80E00059908F1080808444044059088
:1079300074E7082F29D305AB082203A906A800F095
:1079400085F8083F2FB100233A4605A906A807F09D
:107950000DFF611C0020CDE9006053464A462846D1
:1079600009F08CFF0028C7D18246BDF80E004044C4
:10797000C61B0024CDF818906D1CEDB200233246D2
:1079800005A906A807F0F2FE48E705AB3A4603A9A9
:1079900006A800F05BF8611C03A8CDE9006053461F
:1079A0004A46284609F06AFF0028A5D1C7F1080A0F
:1079B000BDF80E0000EB08060024CDF818906D1CF1
:1079C000EDB20123524605A906A807F0CFFE002319
:1079D000324605A906A807F0C9FE1FE7B046800099
:1079E000ACD50700CC238000D8328000641F800013
:1079F000E61F0101523A353A25732C204C256420AC
:107A0000666C61736820737461746520307825300A
:107A100032582C206572726F7220307825303858B9
:107A20000D0A00000221B0FBF1F2FF2A04D8B0FBDE
:107A3000F1F201FB12022AB1491CC9B24029F2D36A
:107A400000207047B0FBF1F0C0B2704770B504463B
:107A500015461E462A462068FAF754FB306828442B
:107A6000306020682844206070BD000010B50548D3
:107A7000017B491C0173002072F4B8D0BDE81040AE
:107A800000F050B8E44780002DE9FE43FEF7F3FE16
:107A90001E48016821F4003101601C4E083E306828
:107AA0001B4980B2084330601A4803C8CDE9000181
:107AB00016482C380068C82100F007001DF80000A7
:107AC00010FB01F514480768144CD4F800803846C0
:107AD000414602F0C5FE62686068831AAB42FBD380
