:020000040100F9
:10200000000084005920000161200001F148800097
:10201000FD210001FB210001FF2100010000000063
:10202000000000000000000000000000994A80004D
:102030006B200001000000006D20000171200001F4
:10204000DFF810D000F0CAFB00F08EF8004800471F
:1020500041C400010000840006488047064800474C
:10206000FEE7FEE7FEE7FEE7FEE7FEE7FEE7FEE748
:10207000FEE70000092A000169C400012DE9F05FB4
:102080000546002092469B468846064681464024E7
:102090001BE0284641464746224600F0ACFA53462C
:1020A0005A46C01A914110D311461846224600F0F4
:1020B00093FA2D1A67EB01084F46224601200021B2
:1020C00000F08AFA17EB00094E41201EA4F101042A
:1020D000DFDC484631462A464346BDE8F09F000013
:1020E0000649074A0868504343F239021044086021
:1020F000400870470149086070470000D8488000D8
:102100006D4EC64140EA01039B0703D009E008C9B0
:10211000121F08C0042AFAD203E011F8013B00F8AC
:10212000013B521EF9D27047D2B201E000F8012BF8
:10213000491EFBD270470022F6E710B513460A4647
:1021400004461946FFF7F0FF204610BD30B504469F
:102150000020034600E05B1C934203D2E05CCD5CB0
:10216000401BF8D030BD000070B5054C054D03E0B4
:10217000206820448047241DAC42F9D170BD000086
:1021800060030101640301010EB540F23341029185
:102190000021CDE900110A460B4600F05DFA03B0BC
:1021A00000BD0EB540F2334202920022CDE900227A
:1021B000134600F051FA03B000BD20F00040C20DFC
:1021C000C0F3160040F400007F2A02DA0020014626
:1021D00070470021962A03DCC2F19602D040704776
:1021E000963A00F0F9B943F6C10CC3F2000C60470F
:1021F00043F6C51CC3F2000C6047FEE7FEE7FEE7AE
:1022000058585247010000001555000000200001F9
:10221000002000016EED52490101000000000000A5
:1022200000000000000000000000000000000000AE
:10223000000000000000000000000000000000009E
:1022400004490220C1F800010860BFF34F8FBFF3BB
:102250006F8F704780E100E02DE9FE4F804681EAF4
:102260000300C00F0C46009021F0004123F0004510
:10227000B8EB0200A94105D24046214690461C46D3
:102280000B46024623F00040104347D0270DC7F30A
:102290000A00C3F30A510290401A019040286BDAF9
:1022A000C3F3130040F4801B0098924620B1002332
:1022B000D2EB030A63EB0B0B01985946C0F14002C5
:1022C000504600F089F906460D4650465946019A97
:1022D00000F0A1F910EB08006141002487EA1152D7
:1022E00084EAE7731A4340D0009A62B3019A012A44
:1022F0004FEA075215DC001B61EB02014FF0004270
:1023000002EA0752CDE90042001C41F58011324635
:102310002B4600F0A1F903B0BDE8F08F40462146FE
:10232000F9E7001B61EB0201001C41F58013001866
:102330005B412018A2F5001747EB030140EAD57076
:10234000B6196D4111E06D084FEA360645EAC075D1
:102350004FEA0752001B61EB0201001C41F580119E
:1023600049084FEA30000019514132462B4603B06C
:10237000BDE8F04F00F061B9009801224000002351
:10238000D0EB020263EBE073009821464FEAE07461
:10239000B8EB000061EB0401E9E783F000435BE781
:1023A00081F0004158E72DE9FE4F81EA030404F073
:1023B000004421F0004100944FF0000B23F0004353
:1023C00050EA01045ED052EA03045BD0C3F30A541E
:1023D000C1F30A552C44A4F2F3340194A0FB025437
:1023E000C1F3130141F48011C3F3130343F48013C9
:1023F00001FB024400FB034E840A970A44EA81541D
:1024000047EA8357A4FB076802958D0A05FB0785F9
:102410004FEA932C04FB0C542705029D4FEA065803
:1024200047EA1637B5EB08056EEB070C870E920EE0
:1024300047EA811742EA8312A7FB0201B6EB0B01C0
:1024400064EB00042B0D43EA0C335E1844EB1C5084
:10245000DA465146E7FB0201C5F313044FEA0B339A
:1024600043EA14534FEA0432019C43EA0603A4F101
:102470000C040294009CCDE900B400F0EDF803B028
:10248000BDE8F08F00200146F9E72DE9F04D81EA23
:10249000030404F0004B21F0004514464FF0000AFD
:1024A00023F0004150EA050220D054EA01021DD079
:1024B000C5F30A570246C5F31303C1F31300C1F372
:1024C0000A5640F4801543F48013A7EB0608101B4E
:1024D000D64608F2FD3873EB050002D308F1010877
:1024E00001E092185B41B8F1000F03DA00200146C9
:1024F000BDE8F08D00204FF48011064684460EE0C2
:10250000171B73EB050705D3121B63EB050306438B
:102510004CEA010C49084FEA300092185B4150EA3E
:102520000107EDD152EA030012D082EA040083EAE7
:102530000501084305D0101BAB4106D20122002340
:1025400006E000224FF0004302E06FF0010253105A
:102550001AEB06004CEB085110EB0A0041EB0B01A3
:10256000BDE8F04D00F069B870B5C1F30A5201F052
:1025700000450024C1F3130140F2FF3341F4801100
:102580009A4201DA002070BD40F233439A42A2F22F
:10259000334203DC524200F02EF800E090402C431E
:1025A000F1D0404270BDC1F30A5210B5C1F313011E
:1025B00040F2FF3341F480119A4201DA002010BD4D
:1025C00040F233439A42A2F2334203DC524200F01B
:1025D00012F810BD904010BD202A04DB203A00FA0A
:1025E00002F1002070479140C2F1200320FA03F36A
:1025F000194390407047202A04DB203A21FA02F068
:102600000021704721FA02F3D040C2F1200291402C
:10261000084319467047202A06DBCB17203A41FAB7
:1026200002F043EAE07306E041FA02F3D040C2F15F
:102630002002914008431946704710B5141E73F1EB
:10264000000408DA401C41F1000192185B411A4372
:1026500001D120F0010010BD2DE9F04D92469B46BE
:1026600011B1B1FA81F202E0B0FA80F22032904664
:10267000FFF7B2FF04460F4640EA0A0041EA0B01A9
:1026800053465A46084313D0114653EA010019D065
:10269000C8F140025046FFF7AEFF05460E465046D1
:1026A00059464246FFF798FF084305D0012004E051
:1026B00020463946BDE8F08D0020054346EAE07625
:1026C0002C4337430A986305E40AA0EB0800002274
:1026D000FD0A44EA47540A3002D500200146E9E7E2
:1026E000010510196941DDE9084500196941BDE896
:1026F000F04DA2E72DE9F041054621F000400C46DF
:10270000284309D0C4F30A5040F23341884205DD22
:1027100028462146BDE8F0812846FBE740F2FE311D
:10272000884210DC0CDB4FEA043040EA155050EAD6
:10273000053105D0104804F0004101430020E9E7CD
:1027400000200146E6E7A0F233404642C6F14002CF
:1027500028462146FFF740FF07468846284621467F
:102760003246FFF748FF43463A46FFF766FF3246D8
:10277000BDE8F041FFF730BF0000F03F30B5041E68
:1027800071F1000404DB4FF00044404264EB0101AE
:10279000141E73F1000405DB1C464FF00043524247
:1027A00063EB04038B4208BF824230BD30B5041E88
:1027B00071F1000404DB4FF00044404264EB01017E
:1027C000141E73F1000405DB1C464FF00043524217
:1027D00063EB0403994208BF904230BD064C074D9D
:1027E00006E0E06840F0010394E8070098471034E1
:1027F000AC42F6D3FFF728FC10030101600301018E
:1028000070B58C1810F8015B15F0070301D110F8B2
:10281000013B2A1106D110F8012B03E010F8016BDF
:1028200001F8016B5B1EF9D12B0705D40023521E62
:102830000DD401F8013BFAE710F8013BCB1A921CCA
:1028400003E013F8015B01F8015B521EF9D5A142C8
:10285000D8D3002070BD000010B51E4800680028C5
:1028600000D080471C4900200870811E1B48016071
:102870001B494FF0007008601A4CD4F8C002800762
:1028800004D4F42218A11DA005F436F32A480168E7
:10289000D4F8C40261F31D3040F00100C4F8C40252
:1028A00004F434F200214FF03040C1608161C1175F
:1028B0004161016204F4E6F108484038016821F4FE
:1028C000800101601D480068002802D0BDE810406A
:1028D000004710BD60248000DC47800044C500A094
:1028E00080E200E000E000A0727769705F736C65C1
:1028F00065705F636F6D6D6F6E2E63004D43555F46
:102900005355422D3E424C455F44534C4545505F24
:10291000434F52525F454E2026204D43555F53553D
:10292000425F424C455F44534C4545505F434F52D4
:10293000525F48575F454E00542480006424800055
:1029400000214FF03040C1608161C11741610162D7
:102950000649022004220A60BFF34F8FBFF36F8F36
:102960000860BFF34F8FBFF36F8F704780E100E0C7
:102970001BF4B2930249096801F007010170704726
:1029800004C500A030B4062821D212490A6802F01A
:102990000702824212D00A680F4B1A400F4C2243A2
:1029A0000A6000BF00BF00BF00BF0A681A400C4B9E
:1029B000024333F8203042EA83420A60084918395A
:1029C00051F820000749486030BC76F4139330BCBE
:1029D0007047000004C500A0F8FFE3FF05000800F1
:1029E000D4F700010041800004480068044900F069
:1029F000070051F8200003494860704704C500A053
:102A0000BCF70001004180000248016841F47001F8
:102A10000160704788ED00E00FB4054B10B503A9C5
:102A2000044A029800F0A0F810BC5DF814FB000006
:102A3000A15F0001DC488000002804DB00F1E020F9
:102A400090F80004704700F00F0000F1E02090F8CB
:102A5000140D704702480068C0F302207047000060
:102A60000CED00E00000000010B52DED020B2DED87
:102A7000088B84B09DED0C0B51EC100BFFF73AFE68
:102A800041EC180B9DED0C0B53EC182B51EC100B7B
:102A9000FFF783FC41EC190B0D989FED290B10F00B
:102AA000004F53EC102B51EC190B9FED21AB9FED18
:102AB00022BB0ED0FFF762FE0ED953EC1B2B51EC5C
:102AC000190BFFF773FE1CD214E000BF41EC180B8A
:102AD00017E0FFF753FE06D253EC1A2B51EC180BFC
:102AE000FFF75BFCF2E753EC1B2B51EC190BFFF7E4
:102AF0005DFE06D853EC1A2B51EC180BFFF7ACFB1C
:102B0000E4E78DED028B9DED0C0B18EE901A10EEA4
:102B1000900A8DED000B61F31E0003909DED020BFA
:102B200004B0BDEC088B02B010BD00000000000036
:102B3000000000000000F03F000000000000E03F47
:102B4000000000000000E0BF02E008C8121F08C13A
:102B5000002AFAD170477047002001E001C1121F1E
:102B6000002AFBD1704700002DE9FF4F8DB00F46C2
:102B70000546002606E025280BD0DDE90F12904718
:102B80006D1C761C28780028F5D111B03046BDE8C0
:102B9000F08F0024A246A1460122EC4900E0044344
:102BA00015F8013F203B02FA03F00842F7D12878DC
:102BB0002A2810D06FF02F022878A0F130010929BF
:102BC00014D80AEB8A0102EB410144F0020400EB45
:102BD000010A6D1CF0E701CF5FEA000A03D544F457
:102BE0000054CAF1000A44F002046D1C28782E2813
:102BF00017D115F8010F44F004042A280ED06FF005
:102C00002F022878A0F1300109290AD809EB89019F
:102C100002EB410100EB01096D1CF2E757F8049B40
:102C20006D1C28786C280FD006DC4C2817D068283B
:102C30000DD06A2814D104E0742810D07A280FD15E
:102C40000DE044F400140AE044F4801401E044F47C
:102C500040146978814202D104F580146D1C6D1C0A
:102C60002A786E2A1FD00CDC632A31D004DC002ABB
:102C70008BD0582A11D1A3E0642A68D0692A0CD1DC
:102C800065E0732A2ED004DC6F2A73D0702A04D139
:102C90009BE0752A6FD0782A6ED01046DDE90F12BE
:102CA0009047761C50E1C4F30250022806D0032856
:102CB00009D0042801CF09D0066045E101CFF11702
:102CC000C0E9006140E101CF06803DE106703BE1D3
:102CD00017F8040B8DF8000000208DF80100EB467A
:102CE000012003E057F804BB4FF0FF3061074FF0BD
:102CF000000102D40DE008F10101884649450FDAD0
:102D00008045F8DB1BF808100029F4D108E008F131
:102D1000010188468142FADB1BF808100029F6D130
:102D2000DDE90F23AAEB08008146214600F036F9C1
:102D3000304400EB080604E0DDE90F121BF8010B3C
:102D40009047B8F10108F7D221464846F7E00A213A
:102D5000C4F302534FF0000B0891022B04D001CFB3
:102D6000C117032B09D00AE0FF1D27F00707F7E87A
:102D7000020108E032E01FE020E000B2C117042B9E
:102D800001D140B2C117031E71F1000307DA4FF001
:102D9000000CD0EB0C006CEB01012D2302E02305AD
:102DA00004D52B238DF82430012303E0E30701D061
:102DB0002023F7E7984658E00A2110E010210EE0A2
:102DC00010204FF0000B08900CE010214FF0000B8A
:102DD00044F004044FF00809089103E008214FF083
:102DE000000B0891C4F30253022B04D001CF002141
:102DF000032B06D006E0FF1D27F00707F7E80201C6
:102E000003E080B2042B00D1C0B24FF000082307CA
:102E10002BD5702A07D0DDF820C08CF0100C5CEAAE
:102E20000B0C05D00EE040238DF82430012308E080
:102E300050EA010306D030238DF824308DF8252088
:102E400002239846DDF820C08CF0080C5CEA0B0CDD
:102E50000BD150EA010301D1630706D530238DF869
:102E600024304FF00108A9F10109582A04D038A2F2
:102E70000B9208AA0A920BE03AA2F9E75B46089A7D
:102E8000FFF7FCF80B9B9B5C0A9A521E0A92137088
:102E900050EA0102F2D10A98ADEB000000F1200BDC
:102EA000600702D524F4803401E04FF00109D945D0
:102EB00002DDA9EB0B0000E0002000EB0B01414418
:102EC0000890AAEB010AE00306D4DDE90F232146AE
:102ED000504600F063F806444FF0000908E009A9E5
:102EE00011F80900DDE90F12904709F10109761C7C
:102EF000C145F4DBE0030CD5DDE90F232146504644
:102F000000F04CF8064404E0DDE90F123020904751
:102F1000761C0899481E08900029F5DC08E00A98FC
:102F20000A990078491C0A91DDE90F129047761C36
:102F3000BBF10001ABF1010BF1DC21465046DDE9AC
:102F40000F2300F019F806446D1C1BE60928010048
:102F5000303132333435363738396162636465660F
:102F600000000000303132333435363738394142D1
:102F700043444546000000002DE9F0410446002589
:102F80001E461746880404D405E039462020B04781
:102F90006D1C641EF9D52846BDE8F0812DE9F0418D
:102FA000044600251E469046C80301D5302700E0A0
:102FB0002027880404D505E041463846B0476D1CFB
:102FC000641EF9D52846BDE8F08100002DE9F05FC8
:102FD0000746894693464FEA5B04A2464D465F4E3C
:102FE000DFF87C81EFF31080012181F31088D8F89D
:102FF000A41221F02001C8F8A41280F31088EFF386
:103000001080012181F31088D8F8A01221F020014E
:10301000C8F8A01280F31088306820F0804030603B
:10302000504830603F20D8F8001160F30501C8F81F
:103030000011306820F4601040EAC740306030680A
:1030400020F4E02040EA07403060052F03D13068CB
:1030500040F400403060062F03D1306840F48040D7
:103060003060306840F400503060306820F06050CC
:103070003060306820F00F0040F003003060EFF364
:103080001080012181F31088344A3832116821F010
:10309000E04141F08041116080F31088306840F0D9
:1030A0008040306001E0D8F80000D8F80401C0F397
:1030B00000200028F7D1EFF31080012181F3108860
:1030C000116841F00041116080F3108834E0002065
:1030D0004FF47A711AE0884217D9306820F08040A6
:1030E0003060306840F000403060306820F00040D0
:1030F000306006F061FF1C480168491C01605446BD
:103100004D46052078F47BD56CE7401CD8F80421A7
:10311000C2F30022002ADED0D8F8040100F07F01BB
:10312000A14200D92146002003E0D8F8002004C5C0
:10313000401C8842F9D3641A002CC8D15FEACB70D6
:1031400008D0D8F80401C0F300200028F9D0D8F83E
:1031500000002880BDE8F05F06F02EBF08C500A083
:1031600000E000A00A070807C84880002DE9F041E8
:1031700007460E464FF000080024274D0BE004EBF5
:10318000C40005EB8000801C07223946FEF7DEFFF5
:1031900040B1641CE4B22878A042F0D8B8F1000F26
:1031A00018D102E04FF00108F8E728780A21B0FBB7
:1031B000F1F201FB12040A2801D2401C287004EB32
:1031C000C40105EB81003968C0F80210B988C180DC
:1031D000B97901722B7811A21021002004F48EF627
:1031E000307800070BD504EBC40005EB800006F136
:1031F0004601BDE8F0410A301C22FEF783BF04EB14
:10320000C40005EB800006F12A01BDE8F0410A3058
:103210001C22FEF777BF0000FCC08000523A313A12
:10322000616464206C746B206974656D2C206E750C
:103230006D203D2025640A000449896B084004493B
:103240000A78104300220A7070470000002001A095
:1032500090448000104A114900280EDC0868C0F331
:103260004120012808D0506C401C5064086820F4AC
:10327000C06040F40070086070470A28FCDB0868F2
:1032800010F4C06FF8D0106C401C1064086820F473
:10329000C0600860704700001C4680000CC500A09C
:1032A0001CB5184C207800282AD0012051B18DF887
:1032B000000081208DF8010002226946002009F0FB
:1032C00017FD1BE08DF8000010788DF801001088C4
:1032D000000A8DF8020090788DF803005088000AEB
:1032E0008DF8040010798DF805009088000A8DF89B
:1032F000060007226946002009F0FAFC0020207031
:103300001CBD00000C44800008B50A480278002A61
:103310000DD00022027002208DF8000041B1812002
:103320008DF8010002226946002009F0E1FC08BD89
:103330000020F5E70C4480007CB505460E46002DC4
:1033400001D0002418E005207CBD05EB0410416885
:103350000091017A8DF80410417A8DF8051007214B
:103360008DF80610C26800780023694600F048F81E
:103370000028E9D1641CE4B2B442E6D300207CBD4D
:1033800010B50C46062833D2DFE800F00303031023
:103390001E27184951F830002104090C04D018B137
:1033A000214605F06BFA1FE0042010BD2004000C3C
:1033B00003D0A1B2104805F061FA200C14D0210C02
:1033C0000E4805F05BFA0FE014F0FF0F03D0204623
:1033D00005F04AF808E0042010BD14F0FF0F05D0F6
:1033E0002146002005F0BCFA002010BD042010BDCD
:1033F000062010BD00F80001000001A0001001A08F
:103400002DE9F05F05460C46904699462768002650
:10341000052D13D039462846FFF7B2FF214628462E
:1034200000F0ACF800280AD1042D0AD0032D2ED0CC
:103430004FF0100B2807060E002491E00620BDE88F
:10344000F09F4FF0080B2079042806D0052809D0FA
:1034500006280DD0072815D110E00021384601F4C8
:1034600050F30FE040F20111384601F44AF309E04D
:103470004FF00111384601F444F303E03B4938466C
:1034800001F43FF34FF0007075F432D6D4E74FF0FB
:10349000200BD1E7F80760D0052D65D2DFE805F0F5
:1034A000030303254600324800EBC50090F904A051
:1034B000BAF1000F17D0EFF31081012080F31088CC
:1034C000A01900EB40022B4800EB8200C0F80480FA
:1034D000C0F8089081F31088504618F49DD65046E5
:1034E00018F4B8D639E00420A9E7EFF310820120E0
:1034F00080F31088A0191F4B00EB400003EB800104
:10350000C1F80480C1F80890032103F8201082F369
:103510001088062018F480D6062018F49BD60720C1
:1035200018F47AD6072018F495D616E0EFF3108138
:10353000012080F31088A01900EB40020E4800EB38
:103540008200C0F80480C0F8089081F3108812202F
:1035500018F462D6122018F47DD67F08641CE4B2F9
:103560005C4597D300206AE7062068E70101010067
:1035700000F80001E07F80006081800070B58EB0AF
:1035800005460C46564901F164004DC8CDE90A02D2
:10359000CDE90C36D1E91E23486F06AED1F8801074
:1035A0000DC6099114224E49843101A8FEF7AAFDE7
:1035B000ACB14C4906200BF0E1F94B4907200BF068
:1035C000DDF94A4912200BF0D9F94549444A2C311A
:1035D000062D7CD2DFE805F00606062141590520BC
:1035E0000EB070BD207931F810000B90607932F880
:1035F00010000C90A0790D9020680A903848143083
:1036000050F8350021880904090C04D018B10AA922
:1036100005F082F959E00420E2E7207931F8100042
:103620000B90607932F810000C90A0790D90206812
:103630000A9020680104090C05D080B20A900AA9FA
:103640002B4805F069F92068010C3ED0000C0A9067
:103650000AA9284805F060F937E0207901EB40001D
:10366000408A0790607902EB4000C0880890A079FA
:10367000099020680690207810F0FF0F03D006A86C
:1036800004F044FF21E00420AAE72079031F032B64
:1036900001D80720A4E702281AD00120029020793F
:1036A00001EB4000808C0390607902EB4000808940
:1036B0000490A079059020680190207810F0FF0F09
:1036C00009D001A9002005F0A3F9002088E704E053
:1036D00002200290E3E7042082E7062080E7000052
:1036E000ECF70001CB4A8000C54A8000C14A800047
:1036F000000001A0001001A010B502460C460020F9
:10370000062A26D2DFE802F00303030B1A1F114832
:1037100050F83200A1B2BDE8104016F4D89121044F
:10372000090C03D0A1B20C4816F4D1D1210C10D051
:10373000210CBDE81040094816F4C991A0B2BDE8BB
:10374000104014F49791A1B2BDE81040002005F09C
:1037500062B910BD00F80001000001A0001001A036
:103760007047000010B5064A06214CF2010009F02E
:1037700057F80BF06BFEBDE81040022075F4729212
:103780003CF900012DE9F04104460D461746002D95
:1037900004D0012D02D00120BDE8F081CCB1C7B129
:1037A000EFF311860220FFF747F98046FFF752F941
:1037B000401C0121814008EB0100C0B280F3118858
:1037C00000206070A570E761F0B280F311880020DE
:1037D000E2E70120E0E710B50446002C0CD02046BB
:1037E00000F0B0F9FF2060700021A160E16021616C
:1037F00061610020E06110BD012010BDF0B5DDE980
:103800000745059981614FF47A76A2FB061C03FBFC
:1038100006C3002702FB0732C0E9021209196A41F8
:10382000C0E9041200210162F0BD00002DE9F04161
:103830000446002C13D0EFF311850220FFF7FCF8AB
:103840000746FFF707F9401C012606FA00F0384446
:10385000C0B280F311881248002121620EE00020DE
:10386000BDE8F081D4E90432D1E9047CDB1B72EBC2
:103870000C0202D2016A216203E00846016A0029B3
:10388000F0D104626670064820380168491C016066
:10389000016C4160E8B280F311880120E0E700008C
:1038A000E08180002DE9F04105460024EFF3118608
:1038B0000220FFF7C1F80746FFF7CCF8401C0121B2
:1038C00081407818C0B280F31188134A106CE8B1B7
:1038D00015B102F1200010E00446206A106410685F
:1038E000401E10600CE0A94206D11168491E11600B
:1038F000296A01622C4603E00846016A0029F2D1D8
:1039000024B1002020626070106C5060F0B280F32F
:1039100011882046BDE8F081C08180002DE9F0418A
:10392000EFF311870220FFF787F80446FFF792F8BC
:10393000401C012181406018C0B280F31188114DF4
:10394000002608E02078012804D1E16909B1A069C6
:10395000884726702D6A2C6A002CF3D1094D203D32
:1039600007E0E16909B1A06988472670206AA8606C
:103970002662AC68002CF4D1F8B280F311880120E3
:10398000BDE8F081E08180002DE9F041EFF311877F
:103990000220FFF751F80446FFF75CF8401C0126AF
:1039A00006FA00F02044C0B280F311881B4DA5F147
:1039B000200829E0D4E90420D8E90413521A60EB66
:1039C0000300D8E906319A1A814120D32670204697
:1039D000FFF768FFA078012802D0104818380DE0E2
:1039E000D8E90430D4E902219A184841C4E90420F6
:1039F0002046FFF71BFF07E001F1200001680029C6
:103A0000FAD12162006804622C6A002CD2D1F8B28B
:103A100080F311880120BDE8F0810000E081800082
:103A20002DE9FF5F82460E4693464FF00008BAF13B
:103A3000000F20D0414886421DD8E6B1EFF3118730
:103A40000220FEF7F9FF0446FFF704F8401C0121AD
:103A500081406018C0B280F31188504606F012F819
:103A600010B19AF8010040B1F8B280F311880F202C
:103A700004B0BDE8F09F0120FAE708F00FFC04460F
:103A80000D464FF47A7106FB01F022462B460021C9
:103A900005F0C8FFDFF8A890B0B1D9F8040048B12C
:103AA000D0E90410091B60EB0500C9E9041008F017
:103AB00091FC04E00021C9F81010C9F814104FF06F
:103AC0000108D9E9040106E0D9F80400D0E904218D
:103AD000101B61EB0501CDE9020132460023CDF850
:103AE00000B05046FFF78AFE5046FFF79FFE0AF0EF
:103AF000E3FD4FF0E021D1F800014FF0806210F0BB
:103B0000806F01D0012000E0002018B9C1F88022A8
:103B1000C1F80021B8F1000F0AD0D9F80400D0E9AB
:103B20000431D9E90402181A61EB020108F0ECFB38
:103B3000F8B280F3118800209AE70000008AB907E4
:103B4000C08180002DE9F04104460025002C39D0C9
:103B5000EFF311870220FEF76FFF0646FEF77AFFAC
:103B6000401C012181407018C0B280F31188607838
:103B7000012824D1144E7068A0420BD108F08EFBAE
:103B8000D4E90432181A62EB0102C6E9040208F013
:103B900021FC01252046FFF785FE5DB1706848B124
:103BA000D0E90421D6E90403101A61EB030108F0FF
:103BB000ABFB04E01DB9706808B908F00BFCF8B263
:103BC00080F31188BDE8F081C08180002DE9F041CB
:103BD00006460C46174604F10805204671F4ECD55C
:103BE000C3B21B48E1184268914202DD0320BDE8E0
:103BF000F0811849184A006809681268891A081A79
:103C0000001FE91881421CD94FF4004513A2294630
:103C1000002004F473F101F0F1FC30B118A2294640
:103C2000002004F46BF10820E1E71DA229460020E2
:103C300004F464F13A4621463046BDE8F0410BF009
:103C400001BD3A4621463046BDE8F0410BF0FABCD2
:103C5000D8328000D0238000CC238000523A353AFD
:103C60004E56445320617265612069732062656914
:103C70006E6720636F6D7061637465642E0D0A005A
:103C8000523A353A436F6D70616374696E67204EC6
:103C9000564453206661696C65640D0A000000009B
:103CA000523A353A436F6D70616374696E67204EA6
:103CB000564453207375636365737366756C0D0AA0
:103CC000000000007CB50D4600220092019269467A
:103CD00004F416F1044634BB4FF42051684604F452
:103CE00011F1B8B942F60101684604F40BF188B944
:103CF00042F60301684604F405F158B942F60201A0
:103D0000684604F4FFF028B94FF42451684604F4DF
:103D1000F9F008B1062406E00098C5F30B0180888D
:103D200008430099888020467CBD00002DE9F047BB
:103D300082460E46174698464FF001090025D8F8EE
:103D40000040002C18D11E48046815E03188A08876
:103D500081420BD3E088814204D82146504600F0CE
:103D600031F808B1246807E0012505E021465046F6
:103D700000F028F810B1246825B105E00125A088DD
:103D80003080F9E7002CE1D1B5B14FF00009A088EF
:103D90003188884204D1201D38600120387109E043
:103DA000081A401E00EB400004EB40000E30386063
:103DB00000203871C8F800404846BDE8F087000090
:103DC000F80E800070B586B0002200EB4003114C65
:103DD00003EBC00304EB43052C7D17E035F81230EC
:103DE00093B18E889E420FD8CE889E420CD3CA884B
:103DF00089888DE81F00084B084A4021002004F400
:103E00007DF0012006B070BD521CD2B29442E5D8BC
:103E10000020F7E780C2800026FB0001B0FC000113
:103E20002DE9F04F8BB007460C4600250020089086
:103E3000099060880790261FE188A288CDE90121BA
:103E40000090614B61A24021002004F457F03088BB
:103E500050B9384611F4E2D0401E30806088A18805
:103E6000884200D800B90125DFF89091002D60D17B
:103E700004F10A000DF1200A0DF1140B04F10608FB
:103E80000A90A088069004A8CDE9020BCDE9008A2B
:103E9000022306AA07A9384600F0ACF90546280017
:103EA00008D00A2D45D0062D43D0BDF81800401C7F
:103EB000079032E0E088B0F5205F03D042F60101C0
:103EC000884208D1BDF81000217AC3B2059A0A9839
:103ED00004F41AF048B92289BDF81000824218D1C2
:103EE00005990A98FEF732F998B9022108202BF4B7
:103EF000EBD70146BDF81C008880BDF81800C880CB
:103F0000083E59F82700603004F400F0384603F406
:103F1000FFF7BDF81800401C0790A088BDF81C10E2
:103F2000884206D3BDF81810884202D03088042891
:103F3000A7D2062D36D059F82700603003F4EAF7EF
:103F400040B300244FF6FF7101EA8006062000EB23
:103F5000072307220421384600962EF465D3014634
:103F60004E8059F82700006E0EE083880A191371FD
:103F70001B0A5371A41CA4B2C3880A1913711B0A2B
:103F80005371A41CA4B200680028EED1084603F4C3
:103F9000C3F70AE021780A23BDF81C20384603F451
:103FA000BDF702E0BDF81C006080074B14A2402161
:103FB0000020009503F4A2F7062D03D000200BB0DB
:103FC000BDE8F08F0120FAE7EEFA0001523A333AE9
:103FD0005B25735D20656E7465722C2073683D30BF
:103FE0007825782C2065683D307825782C207479E8
:103FF00070653D307825780A00000000C40E80000E
:10400000523A333A5B25735D20657869742C2073CE
:1040100074617475733D307825780A002DE9F04F8E
:1040200085B081460E46484610F4F8D7801E1FFA28
:1040300080FAD0460024B0887188CDE90010574B33
:1040400057A24021002003F459F77088B188DFF8A7
:1040500074B1884211D880B1708804900020029019
:104060000390019001AB02AA04A94846FFF75EFE47
:104070000546280003D00A2542E0012540E0B0882B
:10408000BDF81010884232D3022118202BF41CD71F
:104090000746012000900023FA1DB91D02A803F471
:1040A0003FF70546280007D040F24E2346A2294696
:1040B000BDF8100003F436F7BDF81000B88004B95D
:1040C000BC79B879A04203D038462BF47DD517E0EF
:1040D0005BF829003946603003F418F7A8EB0400B8
:1040E000801E1FFA80F8BDF81000401C0490B188B3
:1040F000BDF81000814203D310B1A01C8045B1D29D
:104100005BF82900006E18B1002018B19DB334E0AF
:104110000120FAE70026AAEB08081FFA88F00090B1
:10412000062000EB09230522042148462EF47CD208
:104130000746022C08D002207870788840447880A6
:104140005BF82900046E10E00120F5E7A188B8199A
:104150008180B61CB6B2B819A279001DE11DFDF729
:10416000D1FFA079304486B22468002CEED13846C5
:1041700003F4D2F607E0FFE70A25728831782B4670
:10418000484603F4CBF6054B13A2402100200095CE
:1041900003F4B4F605B00020BDE8F08FD5FA0001B5
:1041A000523A333A5B25735D20656E7465722C203C
:1041B00073683D307825782C2065683D3078257807
:1041C0000A000000C40E8000617474735F70617433
:1041D00063682E6300000000523A333A5B25735D3A
:1041E00020657869742C207374617475733D307820
:1041F00025780A002DE9F04F87B08346DDF844901A
:104200000C4615469A460026B4F800800027019710
:1042100001AB4A4621465846FFF788FD10B1288871
:10422000208026E02088298888421BD8002302AA03
:1042300006A94846009703F473F6014629B1208881
:1042400040F269131AA203F46DF69DF8183002AA21
:104250005146109803F458F608B1012602E0208870
:10426000401C20802EB920882988884201D8002847
:10427000CED16EB122884B460021584603F454F645
:10428000C6B22088494603F451F6288026B10AE0D8
:104290000A26A4F8008006E02188DDE912235846AA
:1042A00003F446F6C6B207B03046BDE8F08F000012
:1042B000617474735F70617463682E630000000042
:1042C0002DE9F04105460C46FF26217A1E2905D02E
:1042D00022480279521E52B200683AE004F1080105
:1042E000284603F427F6064635E010F832308B42B4
:1042F0002DD11B4E56F82500406F30B300273B46AA
:1043000018A24021002003F4F9F5062000EB052057
:104310002CF430D0C00605D5002717A2402100207C
:1043200003F4ECF521460C3956F82500743003F4FB
:10433000EDF50020A08001266FB115A2402103F405
:10434000DDF5284603F4F8F505E00127D7E7521E0E
:1043500052B2002AC9DA3046BDE8F0817C058000FF
:10436000C40E8000523A333A657865637574653DD2
:10437000307825780A000000523A333A636F6E6E47
:10438000656374206E6F742063666D0A0000000020
:10439000523A333A73746172742065786563757448
:1043A000650A00000348024901600D214160704721
:1043B00034FA00017C0580002DE9F04F8BB0824675
:1043C0000C460026002009900A9060880890251F5E
:1043D000B0462988A288CDE9012100906D4B6EA2DC
:1043E0004021002003F48AF5288850B9504610F483
:1043F00015D6801E28806088A188884200D800B920
:104400000126714850F82A00006E10B1002111B148
:1044100003E00121FBE790F80680002E5DD104F156
:10442000080BA088079006A805A909AACDE90210E3
:10443000CDE900B2A37907AA08A95046FFF7DAFE32
:104440000646300049D1BDF81410884502D0B8F1B5
:10445000000F42D12888001FFB22FB2800D3104602
:10446000814200D2084687B2022107F10C002BF4EA
:104470002BD58146BDF81480BDF82000A9F80400B2
:10448000BDF81C00A9F8060089F808703A4609F141
:1044900009000699FDF736FE2888C01B001F2880FA
:1044A0004948494650F82A00603003F42FF5BDF81A
:1044B0001400874202D1504603F42AF5BDF81C00CF
:1044C000411C89B20891A2888A4206D3824204D054
:1044D000298808F104008142A3D2062E48D03A4D23
:1044E00055F82A00603003F415F5C0B3002755F8DD
:1044F0002A100C6E217A091D41431FFA81F806200B
:1045000000EB0A23112204215046CDF800802EF43E
:104510008BD00546A5F80280217A091D697018E044
:10452000A188E8190171090A4171BF1CBAB2E1887A
:10453000A8180171090A4171921C97B2E819227AF0
:10454000001D04F10901FDF7DDFD207A384487B232
:104550002468002CE4D1284603F4DEF40BE0FFE7E6
:1045600021783346BDF82020504603F4D7F402E00A
:10457000BDF820006080074B14A240210020009667
:1045800003F4BCF4062E03D000200BB0BDE8F08F7E
:104590000120FAE7B5FA0001523A333A5B25735D20
:1045A00020656E7465722C2073683D307825782CF8
:1045B0002065683D307825782C2072655F6C656ECB
:1045C0003D307825780A0000C40E8000523A333A14
:1045D0005B25735D20657869742C20737461747534
:1045E000733D307825780A002DE9F04F8BB0824674
:1045F0000C460026002009900A9060880890251F2C
:10460000B046A188694BCDE9000169A24021002094
:1046100003F474F4288850B9504610F4FFD4801E77
:1046200028806088A188884200D800B9012669489E
:1046300050F82A00016E11B1002010B103E00120F2
:10464000FBE791F80680EEBB04F1080BA088079009
:1046500006A805AA09A9CDE90220CDE900B1A379F0
:1046600007AA08A95046FFF7C5FD0646300047D106
:10467000BDF81410884502D0B8F1000F40D1288849
:10468000801EFD22FD2800D31046814200D208463C
:1046900087B2022107F108002BF416D48146BDF839
:1046A0001480BDF82000A9F8040089F806703A4685
:1046B00009F107000699FDF725FD2888C01B801E1B
:1046C000288000E01CE04348494650F82A0060304A
:1046D00003F41CF4BDF81400874202D1504603F4E1
:1046E00017F4BDF81C00411C89B20891A2888A42C7
:1046F00006D3824204D0298808F102008142A5D263
:10470000062E40D0334D55F82A00603003F402F4F1
:1047100080B3002755F82A100C6EA179891C4143FB
:104720001FFA81F8062000EB0A23092204215046D3
:10473000CDF800802DF478D70546A5F80280A17940
:10474000891C697010E0A188E8190171090A41719A
:10475000BF1CBFB2E819A279001DE11DFDF7D2FC14
:10476000A079384487B22468002CECD1284603F4A1
:10477000D3F30BE0FFE721783346BDF82020504605
:1047800003F4CCF302E0BDF820006080074B12A2D6
:1047900040210020009603F4B1F3062E03D0002040
:1047A0000BB0BDE8F08F0120FAE700000AFB000122
:1047B000523A333A5B25735D20656E7465722C2026
:1047C00073683D307825782C2065683D30782578F1
:1047D0000A000000C40E8000523A333A5B25735D34
:1047E00020657869742C207374617475733D30781A
:1047F00025780A002DE9FF5F81460F460024A24676
:10480000CDF808A0CDF80CA0584850F82900603029
:1048100003F480F380463D1F79882888544BCDE906
:10482000001054A24021002003F468F32888E8BB5C
:10483000484610F4F3D3401E2880002611E007EB11
:10484000460002AB82880021484603F46DF3C4B2EF
:10485000CDF808A0CDF80CA00CB1B0463BE0761C1A
:10486000B6B27888B042EAD835E007EB48006B462C
:10487000818801AA484603F45BF3C4B23CBBBDF88F
:1048800004002988884200D3084686B2022106F136
:1048900008002BF419D38346ABF8046032460BF1C1
:1048A00006000099FDF72EFC304800E013E050F8B8
:1048B00029005946603003F429F3484603F428F3ED
:1048C0002888801B288008F101081FFA88F8CDF895
:1048D00008A0CDF80CA07888404503D9288808B1F5
:1048E000002CC2D044BB484610F498D32988401A03
:1048F000401E86B20025062000EB09230F2204216A
:10490000484600962DF490D68246AAF802601748D1
:1049100050F82900066E0AE00AEB0500B288001D77
:10492000B11DFDF7EFFBB088284485B23668002E34
:10493000F2D1504603F4F0F24CB1062C07D007EB4D
:104940004800397882882346484603F4E7F2084B4A
:1049500014A240210020009403F4D0F2062C03D0CE
:10496000002004B0BDE8F09F0120FAE7C40E8000EB
:104970009CFA0001523A333A5B25735D20656E74F0
:1049800065722C206E625F68616E646C653D307884
:1049900025782C2072655F6C656E3D307825780A2D
:1049A00000000000523A333A5B25735D2065786958
:1049B000742C207374617475733D307825780A0007
:1049C00010B500210A4C0023002001EB410202EB4C
:1049D000C10204EB420222F81030401CC0B20A2887
:1049E000F9D31375491CC9B20A29EDD310BD0000D3
:1049F00080C280001FB50F4890F80201002818D02F
:104A000068464FF497D4DDE900010B4CCDE9020173
:104A1000E1680844094920F07040486008464FF4B6
:104A20001FD7607818B1BDE81F4009F033BA09F00C
:104A30004DFA1FBDC01A800084478000B41A800060
:104A400002460020002152F821300BB1401CC0B2B8
:104A5000491CC9B20C29F6D3704710B506F03CFFCB
:104A6000BDE8104002F028BC06F0CCBC10B509F03F
:104A7000DFFD02F03FF9BDE8104001F0E1BB0000AE
:104A80002DE9F0410546884628466BF459D3C0B25B
:104A90002449097888420DD200EB4000213040F4CF
:104AA00000404246AC2107F0BBFE0446200032D055
:104AB000012430E06BF488D3C7B207EB470606F158
:104AC000200040F400402A46072107F0A9FE10B15B
:104AD0000120BDE8F081384677F4C6D406F1210004
:104AE00040F400404246AC2107F09AFE0446200004
:104AF00001D00120EDE7223646F4004007F0E6FC45
:104B00000949C7EBC7000968084429680160A988FA
:104B10008180A97981711CB941462846FEF726FBA0
:104B20002046D6E7382380003C23800000207047D1
:104B300010B509F025FA09F055FA09F0BFF908F0A7
:104B4000B1FE0AF0B1FA00F05DFB09F05FFA00F087
:104B5000A7FABDE8104000F089BA08F027BE10B5EA
:104B600005F004FE06F0C4FF05F010FE06F020FA82
:104B700005F070FE05F0A0F9FFF714FC02F04CFF01
:104B800009F0D8FA09F0D8FEBDE81040FFF718BFC9
:104B90000148FFF755BF0000B413800010B5FFF7C0
:104BA000DCFF054903480860BDE81040034876F47F
:104BB000CD96000017B8800474C500A00087930349
:104BC00010B50446002C0CD0204600F0EBF900286C
:104BD00007D104494968002903D02046BDE81040A8
:104BE000084710BD784580000188B1F5407F0ED0A0
:104BF00004DCB1F5807F15D1FFF738BFA1F5407116
:104C0000053908D001290DD1007961F4CD9781785B
:104C10000079FEF779BB0379817800F10802184624
:104C2000FEF73EBB704700002DE9F84307460D46EE
:104C3000EFF311865948017859480068C0F3022003
:104C4000401C012282408818C0B280F311886BF4A6
:104C50004DD38046052F06D352A21021002003F425
:104C60004DF1152487E09DB15148C7EBC70100EB1A
:104C70008104E06860B1607A08B169F491D2607A29
:104C800068B14CA21021002003F438F10F2472E027
:104C90004BA21021002003F431F102246BE02069C3
:104CA000F8B9E068017841B1012910D047A210217C
:104CB000002003F423F123245DE08078400710D422
:104CC00045A21021002003F419F1232453E0807839
:104CD000800706D443A21021002003F40FF12324FF
:104CE00049E0E06841888A0704D50278012A01D1A9
:104CF00062691AB10278022A07D008E03CA21021AA
:104D0000002003F4FBF0252435E0A26962B1090715
:104D100011D5298809B180290DD938A21021002088
:104D200003F4ECF0262426E037A21021002003F43F
:104D3000E5F024241FE0407802280CD1288818B11F
:104D400044F25061884206D932A21021002003F4B7
:104D5000D5F026240FE0E06928B90021042066F48C
:104D6000C3D5E061B8B1E069296801603946002027
:104D70006BF418D400243B4629A210210020009493
:104D800003F4BCF040466BF47BD2F0B280F31188A0
:104D90002046BDE8F8831024EDE7000002E400E0BF
:104DA0000CED00E0523A313A453A310A0000000079
:104DB0007C278000523A313A453A330A000000001D
:104DC000523A313A453A320A00000000523A313A3A
:104DD000453A360A00000000523A313A453A340A60
:104DE00000000000523A313A453A350A000000000E
:104DF000523A313A453A370A00000000523A313A05
:104E0000453A390A00000000523A313A453A380A28
:104E100000000000523A313A453A31300A000000B1
:104E2000523A313A6164765F73746172745B2564DF
:104E30005D3A20453A3078253032780A000000008B
:104E40000A2805D2034A002152F8200080F88F106A
:104E500070470000C40E800070B504460D46204621
:104E600009F026F9002805D129462046BDE8704002
:104E700064F4A09070BD70B504460D46204609F05C
:104E800017F9002804D12946204665F43FD180B2A5
:104E900070BD000070B505460E46002D05D00D48CA
:104EA00069F462D384B214B110E0022070BD142002
:104EB00076F4D4D7014659B10D61CE60064A5078D8
:104EC0000871401C5070101D05F071F8204670BD2F
:104ED000102070BD1CFA00011046800070B5044619
:104EE0000D46204609F0E4F8002805D12946204661
:104EF000BDE8704065F4509270BD70B504460D4633
:104F0000204609F0D5F8002804D12946204665F44A
:104F10002FD580B270BD000000B58BB009490120CB
:104F20000870FF22282101A8FDF7FEF84FF48070D9
:104F3000ADF804000020ADF8060001A8FFF740FE20
:104F40000BB000BD7845800010B506480068002809
:104F500000D0804700F484F208B1012010BD002089
:104F600010BD0000E447800010B540F4404007F059
:104F7000ADFA10BD10B540F4404007F051FC10BD33
:104F80000449016004494160044981600449C160E9
:104F90007047000041C2060015C20600754F0001AF
:104FA000694F000170B50446002C1FD04FF6FF7307
:104FB0001946228840F20155A2F201504FF4807642
:104FC000AA424CD01BDC40F20245A2F20240AA42A7
:104FD00034D00DDCA2F54072013A25D0012A23D04D
:104FE000FF2A29D0B2422ED121892CE0002070BDA9
:104FF000012825D0022825D0FE2824D12AE0042823
:105000002DD006DC01282AD0022828D003281AD166
:1050100025E0052823D0062821D0B04213D1204610
:1050200002F0ACFB002070BD204602F0DBFF204602
:1050300002F054FE002070BD218904E0218902E0C5
:10504000618900E0218A99420ED0204602F0DAFF01
:10505000012070BD204602F0D5FE002070BD204624
:1050600002F04CFE002070BD002070BD10B5212163
:10507000094808F0CDFA0721084808F0C3FA0121D1
:105080000548083808F0B8FAFFF769FD0520FFF772
:10509000EBFCFFF7E2FC10BD144180001C428000D5
:1050A0000449034808600549034808607047000048
:1050B000CD6700010C228000096A000118228000DF
:1050C00070B50026150A0E4805EB450200EB0214E8
:1050D000098821800120A0702846FFF7B1FE00203A
:1050E0006BF4CED00748016829B10B681BB1228848
:1050F0000021284698476BF4F9D0304670BD000077
:10510000D42E8000B82280003EB500241D0A0A7803
:10511000122A02D0132A04D006E000208DF80000E5
:1051200002E001208DF800008888ADF8040048886E
:10513000ADF80200891D029100206BF4A1D00B484C
:10514000016829B18A691AB169462846904708E082
:105150009DF80000012804D1BDF804102846FFF78F
:105160007BFE6BF4C3D020463EBD0000B42280001D
:105170000148007870470000FC4780007CB50E466F
:10518000150A0020009001906946284675F4F6D073
:105190009DF806206946284602F000FB0446CCB183
:1051A00064F4F4D6C0B164F4F1D6C01C81B2328884
:1051B000002320466FF4D2D26946284608F0F6FF55
:1051C00040B106A24021002002F498F6214668462C
:1051D00060F43AD400207CBD0020E7E7523A333A2D
:1051E0007361766520636363640A00007CB5DDE962
:1051F0000654CDE9005468F4F5D4BDE87C4008F0CD
:105200008FB900000249014808607047ED51000164
:105210004823800010B588B0044668F471D7002098
:10522000079007A856F418D60798FFF7A9FE20683C
:10523000019060680290A0680390E0680490208A62
:10524000ADF81400608AADF81600A08AADF8180019
:10525000E08AADF81A0001A856F428D656F408D60C
:105260000348016801614168416108B010BD000058
:10527000300100B010B58AB00446FF2228216846EC
:10528000FCF752FF40F20271ADF800100021ADF8BA
:1052900002108DF804406846FFF792FC0AB010BD7A
:1052A00030B58568027B002D02D0002001210CE082
:1052B000104630BDCB0801F00704EB5CE340DB0790
:1052C00001D0401CC0B2491CC9B28A42F2D830BDDC
:1052D00000230849496808E0CA88824204D80A893C
:1052E000824201D3CB6802E009680029F4D1184654
:1052F000704700001046800001460548406803E002
:1053000002798A4202D000680028F9D17047000073
:105310001046800070B5104E3078FFF7EDFF044660
:10532000200006D0206965F415D10546280002D07A
:105330000DE00C2070BD2069FFF7B2FF0146206927
:1053400002681288E2800068008808442081307872
:10535000401C3070E8B270BD1046800070B519482E
:105360000468194D2878002801D0002070BD4FF046
:10537000806073F4BDD601F47BF4600874F4C8D582
:10538000124908608817114901262C390860104914
:105390007006C1F8FC01C8674FF03041086B40F05F
:1053A00007000863094C303C206840F4E02020608E
:1053B00001F4A0F42E70206820F4E0202060012089
:1053C00070BD00006C248000DC47800070C500A028
:1053D00084E000E070B50024EFF31086012080F334
:1053E000108801F4A2F4104D28B102242968B9B143
:1053F0000220884714E0FFF7A7FD20B1296879B1A2
:10540000002088470CE0FFF7A9FF28B10224296893
:1054100031B10220884703E0296809B1002088479C
:1054200086F31088204670BD5C24800010B5084AC1
:105430001378002B01D00F2010BD31B1506004480B
:10544000243000F007F8002010BD022010BD00003D
:10545000784580002DE9FC4705460C46FFF768FBC0
:105460006AF444D707463648006800B1804735499A
:10547000012009F083FA3449022009F07FFA012063
:10548000FCF738FEA08E81B2206B01F001FFDFF83F
:10549000BC90DFF8BC80E16999F8000098F8002022
:1054A0000244B1FBF2F1CEB216FB00F1A06966F442
:1054B0007DD7286865F40CD3686861F419D228692F
:1054C00068F4B8D6A86863F4B1D4E86863F456D534
:1054D00020484EF4DFD020484EF4E2D01F484EF46E
:1054E000E5D01F4856F40ED51E484EF489D01E480C
:1054F0004EF48CD01D484EF48FD01D4866F42AD748
:105500004FF0806073F4F4D52046FFF783FED4E9B2
:105510000A01CDE9000199F80010A06916FB01000D
:1055200098F8001016FB01F1D4E90823114C246807
:10553000A04738466AF4A4D6BDE8FC4766F4EE9767
:105540008026800039380600DD37060029D507009F
:105550002AD50700119F0700B9C3060065C40600DD
:10556000EDAF070025ED060045ED060065ED0600F0
:10557000799B070048238000034900EB800001EB82
:10558000800080887047000074468000034A00EB6A
:10559000800002EB8000818070470000744680002C
:1055A0000E4910F1210F06DA086820F4704040F42B
:1055B00040500860704710F11D0206D3086820F4BF
:1055C000704040F48040086070470A28FCDD08689D
:1055D00020F4704040F4A0400860704724C500A04B
:1055E00010B508F0E1FC07F085FF09F0F3FB00F0CF
:1055F00035FBBDE8104008F045BC00002DE9F04F38
:1056000087B07B48D0F8009000240025A2460026F1
:1056100009F052FD77480168C9F800104068C9F8E0
:105620000400754800680830059009F108000690EC
:10563000042203A9059800F0DDFABDF80C10A1F5CD
:105640007F40FF3843D0082203A9059800F0D2FA22
:10565000BDF80E0070F4B0D000F0FF08BDF80C00EB
:10566000002867D00698A9EB000707F58057BDF81A
:105670000E1008F1080083460844B84263D805AB11
:10568000082203A906A800F0EBF8BDF80E000023DD
:1056900000EB080205A906A807F098FF641CBDF8F6
:1056A0000E005844B842C3D10020CDE900605346F3
:1056B0004A462146284609F0DBFE002826D18246CC
:1056C00000260024CDF818906D1CEDB2B0E7002044
:1056D000CDE9006053464A462146284609F0C8FEF7
:1056E000002813D16D1CECB2434D4FF48057434E4C
:1056F00008E0286800EB0430394603F035F840B183
:10570000641CE4B2707AA042F3D8002007B0BDE870
:10571000F08F3B488169407A40F27C42CDE900201D
:105720000291384B38A24FF40041002002F4E6F316
:105730000920EBE7BDF80E00059908F108080844B8
:105740004044059074E7082F29D305AB082203A92C
:1057500006A800F085F8083F2FB100233A4605A9B6
:1057600006A807F033FF611C0020CDE90060534616
:105770004A46284609F07CFE0028C7D18246BDF87B
:105780000E004044C61B0024CDF818906D1CEDB2ED
:105790000023324605A906A807F018FF48E705AB25
:1057A0003A4603A906A800F05BF8611C03A8CDE9FE
:1057B000006053464A46284609F05AFE0028A5D103
:1057C000C7F1080ABDF80E0000EB08060024CDF86A
:1057D00018906D1CEDB20123524605A906A807F0EA
:1057E000F5FE0023324605A906A807F0EFFE1FE7E5
:1057F000E8448000ACD50700CC238000D83280007C
:10580000641F8000F2F90001523A353A25732C20CA
:105810004C256420666C6173682073746174652024
:105820003078253032582C206572726F72203078B3
:10583000253038580D0A00000221B0FBF1F2FF2A92
:1058400004D8B0FBF1F201FB12022AB1491CC9B223
:105850004029F2D300207047B0FBF1F0C0B270478E
:1058600070B5044615461E462A462068FCF74AFCD9
:1058700030682844306020682844206070BD0000F3
:1058800010B50548017B491C0173002074F4AED1AA
:10589000BDE8104000F050B81C4680002DE9FE43E2
:1058A000FFF75BF91E48016821F4003101601C4ECE
:1058B000083E30681B4980B2084330601A4803C86C
:1058C000CDE9000116482C380068C82100F0070017
:1058D0001DF8000010FB01F514480768144CD4F8BB
:1058E00000803846414602F085FE62686068831A8F
:1058F000AB42FBD34146384602F05CFE07F026FE81
:1059000002909DF8080028B19DF8080009494861F7
:105910008861C861306820F07F403060BDE8FE8358
:1059200030C500A000008F11B45B0001FCED00E069
:10593000001000E01C4680002DE9FC412D4E30682F
:1059400020F07F4040F0885030602B4803C8CDE9FC
:10595000000128482438006800F007011DF8010004
:10596000C82110FB01F525480768254CD4F80080B4
:105970003846414602F03EFE62686368981AA842C3
:10598000FBD34146384602F015FE002507F0DEFD48
:105990000446DFF87080D8F81800844201D9012746
:1059A00000E0002773F4C8D740B91FB1D8F8180039
:1059B000201A02E0D8F81800001BC5B2D8F8180069
:1059C000C8F82000B5EB900F03D8292C01D8112C72
:1059D00002D200F019F807E000EBC00020440A21D1
:1059E000B0FBF1F0C8F81800306820F07F4030605C
:1059F000BDE8FC8128C500A0B45B0001FCED00E01F
:105A0000001000E01C4680002DE9F04F87B0002018
:105A100006900824DFF890811A20C8F81400634823
:105A20000168634A89B21143016005A8FCF7A2FF2F
:105A30000220FCF7A7FFDFF8749109F10809D9F8F3
:105A4000000020F47C3040F42030C9F8000059A058
:105A500003C8CDE90201DFF854A1AAF1240ADAF85B
:105A6000000002A900F00700085CC82110FB01F546
:105A7000DFF848B1DBF800000190514F3E68019813
:105A8000314602F0B7FD78687968091AA942FBD35C
:105A90003146019802F08EFD07F058FD04909DF804
:105AA0001010D8F81400814204D99DF81020811CF0
:105AB0008A4263D99DF81010814204D29DF81020CB
:105AC000811E8A425AD29DF81010814201D90125C7
:105AD00000E0002515B1641C64B201E0641E64B2EC
:105AE000202C11D3D9F8000020F47C3040F4203071
:105AF000C9F80000D8F83C00401CC8F83C00002061
:105B000004900120069039E0D9F8000020F47C30A0
:105B100040EA043040F40030C9F8000025A003C872
:105B2000CDE90201DAF8000002A900F00700085CE4
:105B3000642110FB01F6DBF800000190386800904A
:105B4000DDE9001002F056FD78687968091AB14263
:105B5000FBD3DDE9001002F02DFD07F0F7FC049007
:105B600035B19DF81000D8F814108842B2D805E07D
:105B70009DF81000D8F814108842ABD39DF814009B
:105B8000FCF700FF0948016821F07F4101609DF8A2
:105B90001000C8F81800D8F82400401CC8F82400E9
:105BA000069807B0BDE8F08F1C46800028C500A00D
:105BB00000008F114030101810200000FCED00E0B4
:105BC000001000E00A49322808DDD1F8200220F454
:105BD000706040F44070C1F8200270472828FCDA59
:105BE000D1F8200220F47060C1F820027047000054
:105BF00000E000A02DE9F04105460E461746094C8D
:105C00002378002B02D0002070F44AD13A46314666
:105C1000284602F0E9FD0546207870F441D1284677
:105C2000BDE8F081C92380002DE9F04105460E460C
:105C30001746094C2378002B02D0002070F430D195
:105C40003A463146284602F0DFFD0546207870F4DA
:105C500027D12846BDE8F081C92380000121024AEE
:105C6000002069F481970000A982000110B5104C52
:105C700002220421204604F011FC012210212046BA
:105C800004F00CFC02228021204604F007FC0222D2
:105C90004021204604F002FC02222021204604F08C
:105CA000FDFB20460222BDE81040082104F0F6BBAF
:105CB000001001A02DE9F04782462DED028B84B043
:105CC000894617469846002002900390002500263A
:105CD000019001A808F0ECFE3748016821F4C0717A
:105CE00041F080010160416821F48051416000244D
:105CF000504608F0A7FC07F047FD02F011FA0290A9
:105D000002980644484608F09DFC07F03DFD02F06D
:105D100007FA0390DDE90210401A0544641C072CC1
:105D2000E6DB2846FCF730FA9FED248B53EC182B6A
:105D3000FCF7ABFB41EC100BFCF796FE51EC100BA3
:105D4000FCF731FC04463046FCF71EFA53EC182BE6
:105D5000FCF79BFB41EC100BFCF786FE51EC100BA3
:105D6000FCF721FC03460020164A1CE000FB04F16E
:105D7000B1FBF7F119440291134D0299B5FBF1F112
:105D800008F80010114D0299B5FBF1F19DF804508F
:105D90002944C9B21154802903D90D4D2D782944C5
:105DA0001154401CC0B2B842E0D307F0C9FC04B0A3
:105DB000BDEC028BBDE8F087802001B00000000040
:105DC00000001C408CC4800000C0A8320080D72591
:105DD000E84780002DE9FE4F07460D4602AA2946F6
:105DE000384609F033FA10B10298BDE8FE8F029CE4
:105DF00000260296DFF8688098F8000010B10020B5
:105E000070F44ED0DFF85CA04FF6FF7908226946A7
:105E1000204602F0E9FCBDF80000484502D12E8082
:105E2000029617E0B84206D115B1BDF802002880ED
:105E3000083402940EE0BDF802006FF4BDD4BDF842
:105E40000210083021444418DAF800008442DDD3FF
:105E50002E80029698F8000070F422D00298C4E7D1
:105E6000C9238000D023800070B506460024094D68
:105E70000BE004EBC40005EB8000801C07223146D8
:105E8000FCF764F920B1641CE4B22878A042F0D891
:105E9000204670BDFCC0800010B50021084B5A6838
:105EA0001B8809E052F83140844203D102EBC10063
:105EB000406810BD491C89B29942F3D310BD00005F
:105EC0006444800010B50021084B5A681B8809E023
:105ED00052F83140844203D102EBC100406810BD4A
:105EE000491C89B29942F3D310BD00007844800068
:105EF0000349095C002902D0002104F0FBBF704770
:105F000066C2800010B5884210D808290ED2094B0D
:105F1000074A5A6006E003EB8002946844F00104EB
:105F20009460401C8842F6DD0320186010BD00001C
:105F300000400030002000E02DE9F047164F38689F
:105F4000002826D04FF00009002400250526DFF8A0
:105F50004C8013E005EB4501012018F8212090400A
:105F60003A68104208D008EB81032246D3E90101C8
:105F7000641CE4B200F01EF86D1CEDB2B54201D213
:105F8000062CE7D3641EE1B24846BDE8F047FFF7B0
:105F9000B9BFBDE8F08700006044800044F900010B
:105FA00038B504468DF8000069460320ABBE204694
:105FB00038BD000070B505461446114840F834500D
:105FC00000EBC4004160284602F096F90646FF2027
:105FD00002F09CF9014625F001000A4B850703EB0E
:105FE0008402094B06D0801E906006EB014043F806
:105FF000240002E0906043F82410204670BD0000A9
:10600000643D8000002000E0004000302DE9FC41AC
:106010000C46474A6178A07852F82110CDE900106B
:10602000237844A21021002001F468F7607801264B
:106030004F4F052530B1012837D0022849D0032819
:1060400072D15AE020786CF429D3C0B2C0EBC00101
:1060500007EB81014D72A278452A09D1CA681278EE
:10606000022A17D091F82020022A01D081F820605E
:1060700091F82020012A04D0022A02D0032281F8BC
:10608000202091F82020022A4ED0C96809780229E0
:1060900006D102E007224A72EAE7A178452943D0F7
:1060A000344A0021126890473EE087F89950A07862
:1060B000452805D197F89C00022801D087F89C60FC
:1060C00097F89C0002282FD02B49002009688847A8
:1060D0002AE087F8A550A078452805D197F8A800B0
:1060E000062801D087F8A86097F8A80006281BD0DA
:1060F000224900200968884716E020786CF430D3E4
:10610000C0B207EB001181F8B150A278462A01D045
:10611000CE2A01D181F8B35091F8B310022903D0EF
:10612000174A0021126890470020BDE8FC8100005A
:1061300068228000523A313A6163742073746F7040
:106140007065642C206163745F6964783A2025640B
:106150002C206163745F747970653A2025732C205C
:10616000726561736F6E3A203078253032780A009C
:106170007C278000102280001422800018228000DA
:106180001C22800010B58AB00C46FF2228216846E8
:10619000FBF7CAFF40F20A20ADF80000ADF802405C
:1061A0006846FEF70DFD0AB010BD10B58AB0044672
:1061B000FF2228216846FBF7B7FF40F20D20ADF81B
:1061C00000000020ADF802001C22214602A8FBF7C7
:1061D00099FF1C3409946846FEF7F2FC0AB010BD22
:1061E00030B58BB005460C46FF22282101A8FBF7ED
:1061F0009BFF40F20722ADF80420ADF806408DF871
:10620000085001A8FEF7DCFC0BB030BD37B58AB0F2
:1062100005460C46FF2228216846FBF785FF4FF410
:106220000272ADF80020ADF802408DF804509DF8E0
:1062300030008DF808006846FEF7C2FC0DB030BD96
:1062400010B500210B4A08465FF4F2D70948002137
:1062500012300246037F08465FF462D7064840F6D4
:10626000B8310180002181700146BDE81040002056
:10627000FEF7DABC1CBF80001444800000B58BB070
:10628000FF22282101A8FBF74FFF4FF44170ADF822
:1062900004000020ADF8060001A8FEF791FC0BB049
:1062A00000BD00002DE9FF470C4666788DF80D60B3
:1062B00020784FEA1329CDE900905A4B5AA21021B9
:1062C0000296002001F41AF620786449644F4FF0DA
:1062D000000801EBC905092861D008DC092824D28F
:1062E000DFE800F09A8B9A4A4A9A9A2424001728E9
:1062F0002FD004DC0B2807D0142816D16AE0182808
:1063000014D0192811D111E0607822280DD1002075
:1063100069F4B6D75348006828B143681BB100221E
:106320000F214846984769F4E1D775E06AF49ED694
:10633000044685F80580002069F4A2D7386828B1A2
:10634000436D1BB1224631464846984769F4CED783
:1063500062E06AF48BD6044685F80480002069F474
:106360008FD7386828B183681BB12246314648462A
:10637000984769F4BBD74FE06AF478D6044685F8AD
:106380000680002069F47CD7386828B1836D1BB182
:10639000224631464846984769F4A8D73CE06AF45B
:1063A00065D6044685F80280002069F469D738680C
:1063B00030B1C36C23B136B12246314648469847C6
:1063C00069F494D728E0002CFAD02246314648469A
:1063D0009847F5E76AF44AD6044685F8038000201A
:1063E00069F44ED7386828B1C36D1BB122463146D7
:1063F0004846984769F47AD70EE0607860B100208B
:1064000069F43ED7386828B1C36B1BB161780022AC
:106410004846984769F46AD76AF42ED604B000203B
:10642000BDE8F087FFF90001523A313A25733A206E
:10643000636F6E696478203D2025642C206F706343
:106440006F6465203D20305825782C206572726F6E
:1064500072203D2030582578000000002A27800057
:1064600098218000EC23800010B58AB00446FF22FA
:1064700028216846FBF758FE40F20331ADF80010C2
:10648000ADF802406846FEF79BFB0AB010BD70B540
:106490008AB005460C461646FF2228216846FBF7BF
:1064A00043FE40F20131ADF80010ADF802408DF826
:1064B00004501222314602A8FBF724FE6846FEF77C
:1064C0007FFB0AB070BD70B58AB006460D46144613
:1064D000FF2228216846FBF727FE4FF44273ADF8F0
:1064E0000030ADF802508DF8046020680290A0885A
:1064F000ADF80C006846FEF763FB0AB070BD000003
:106500002DE9F041ADF50E7D0C461E0A304662F4D1
:1065100061D40746304662F45DD4002834D04DA1E2
:10652000009133464DA21021002001F4E7F4FF2E24
:106530005BD0574D2088288060886880A088A8801C
:10654000E088E880207A2872607A68722F74D4F824
:106550000A00C5F80A00E089E8814E4A002102EBF2
:10656000C60001604160218822F836104FF4CA71DC
:1065700029A8FBF7E0FD29A85FF454D1687ADFF879
:106580001881012816D101E044A1C9E7E87B012167
:10659000B1EB901F0ED198F81C0140070AD59DF869
:1065A000A40038B1A02101A8FBF7C5FD002429AD46
:1065B00001AF3DE004F10A02617A1546304673F4FA
:1065C000FBD6617A2A46304601F034F9354C6FB17A
:1065D000002069F455D6206828B1836B1BB12C4A82
:1065E00000213046984769F481D62DE0032088F8D1
:1065F000A800D8F8AC000078012825D1002069F463
:106600003FD6216829B18B6B1BB1214A002130464E
:10661000984769F46BD617E004EB840005EBC001E2
:10662000093107EB04101022FBF76CFD641CE4B287
:106630009DF8A400A042EFD815499DF8A43001AA06
:106640000A3130466CF45ED50DF50E7D0020BDE8B4
:10665000F0810000534C415645000000523A313A57
:10666000636F6E6E656374696F6E5F7265715F698B
:106670006E645F68616E646C65723A20636F6E6908
:1066800064782025642C20726F6C652025730A00C5
:10669000182780002A2780007C2780004D41535412
:1066A000455200009821800070B58AB006460D461C
:1066B0001446FF2228216846FBF736FD40F20533D9
:1066C000ADF80030ADF802508DF8046020680290FB
:1066D000A088ADF80C006846FEF772FA0AB070BDEB
:1066E00030B58BB005460C46FF22282101A8FBF7E8
:1066F0001BFD40F20632ADF804200022ADF8062062
:106700008DF80850206803906068049001A8FEF797
:1067100057FA0BB030BD00002DE9F0410D46E87985
:10672000FF2819D01B4FB96889B300246BF496D7A2
:10673000C6B216B1032E05D008E0E8796BF4AED7E7
:10674000C4B203E0E8796CF40BD0C4B2BB682A464B
:106750002146304698471AE000210E2065F4C4D047
:106760000446A4B1012020702868C4F80300A8885A
:10677000A4F80700A8796072E8796BF48FD7A0704D
:106780000E2120466AF486D4204665F4ABD0002062
:10679000BDE8F081B444800030B58BB004460D46AE
:1067A000FF22282101A8FBF7BFFC40F20622ADF82A
:1067B0000420ADF806400E22294603A8FBF7A2FCF0
:1067C00001A8FEF7FDF90BB030BD000030B58FB069
:1067D00006200E9000250795514C032020700F20B5
:1067E000607084F82F5084F82E504FF40070E084CD
:1067F00020850A2084F82A001B2060844FF4A470AE
:10680000A0840CAA0EA9012065F404D538B108A80B
:1068100008F082F918B907A808F0B0FAD0B1A57647
:106820004FF461706080208C40F08000208405A8C7
:106830004DF480D5059806990844FBF75BFC01955B
:1068400002950395049508A808F066F9344C0A34BB
:10685000E8B35EE00120A0763248007820B39DF8CE
:106860002000412813D09DF82A0020719DF82D00AA
:1068700060719DF82E00A0719DF82F00E071BDF8A9
:106880001C002072C02141EA10206072C8E79DF808
:10689000280020719DF8290060719DF82A00A071E0
:1068A0009DF82B00E071EAE79DF82000412815D003
:1068B0009DF82A00A0719DF82D00E0719DF82E0032
:1068C00020729DF82F0040F0C000607200E014E0DC
:1068D000BDF81C006071000A2071A1E79DF8280036
:1068E000A0719DF82900E0719DF82A0020729DF8A2
:1068F0002B0040F0C0006072E8E7102201A908A850
:10690000FBF724FC28B1102208A92046FBF7FAFB6C
:1069100002E0204673F49CD402F016FE0FB030BDA6
:106920007E288000B444800070B58AB005460C46CD
:106930001646FF2228216846FBF7F6FB40F2023399
:10694000ADF80030ADF802408DF804508DF80860C5
:106950006846FEF735F90AB070BD000070B50D4607
:10696000EFF311801D490A781D490968C1F302211E
:10697000491C01248C401119C9B281F311881C0AE9
:106980001849002301EBC402136053604FF6FF72F5
:1069900021F83420C0B280F31188AB7812A2102104
:1069A000002001F4ABF2204673F49ED520466EF42D
:1069B00013D2204673F4A0D4002069F461D41148A6
:1069C00002683AB1D36B2BB1A8789030C2B20021E3
:1069D0002046984769F48AD4002070BD02E400E0A4
:1069E0000CED00E02A278000523A313A6469736363
:1069F0006F6E6E20726561736F6E203D203078255A
:106A0000780A0000982180002DE9FC5F0446EFF32E
:106A100011877048017870480068C0F30220401C5C
:106A20004FF0010B0BFA00F00844C0B280F311885C
:106A300069F45CD48146694D0094DFF8A48195F82F
:106A4000A50068A2102158F82030002001F456F269
:106A50008DF8054095F8A53007200C210D22002661
:106A60004FF0090A0A2B74D2DFE803F0050C9C9C56
:106A70009C19283C424D6AF4A5D785F8A5B085F845
:106A8000A86095E0002C09D085F8A56085F8A6607F
:106A90008DF8041001A9002069F4EED488E095F87F
:106AA000A600A22804D06BF47BD185F8A5A07FE0D6
:106AB0006DF448D0062085F8A50079E04CB16BF460
:106AC0006FD185F8A5A0042085F8A80085F8A94015
:106AD0006EE085F8A5008DF8041001A9002069F486
:106AE000CBD465E06DF480D1082085F8A5005FE087
:106AF000002C5DD085F8A5008DF8042001A90020A8
:106B000069F4BAD454E0A4356E70FF202870287957
:106B1000A43D042807D0062812D03F4C012819D0E4
:106B2000032824D044E085F8A8608DF8041095F877
:106B3000A9008DF8050001A9002069F49DD437E073
:106B400085F8A8608DF8042001A9002069F494D488
:106B50002EE027E085F8A860002069F491D3206832
:106B600010B1406C00B1804769F4C0D320E085F8D3
:106B7000A860D5F8AC000078012819D0002069F48D
:106B80007FD3206858B1806B48B1244800886EF4E8
:106B900049D62168C0B2214A8B6B0021984769F41D
:106BA000A5D305E040F2C2321DA123A001F4A4F157
:106BB00095F8A50021A2102158F82030002001F4FA
:106BC0009DF1484669F45CD3F8B280F31188BDE8C2
:106BD000FC9F000002E400E00CED00E07C27800058
:106BE00028228000523A313A696E69745F66736D8B
:106BF00020656E7465722C20696E69745F737461B0
:106C000074653A2025732C20737461747573203D6C
:106C10002025640A000000009821800018278000C9
:106C2000626C655F73646B5F6761706D5F706174E8
:106C300063682E630000000030000000523A313AD1
:106C4000696E69745F66736D20657869742C20695C
:106C50006E69745F73746174653A20257300000077
:106C600070B58AB006460D461446FF2228216846B4
:106C7000FBF75AFA40F20A33ADF80030ADF8025093
:106C80008DF8046020680290606803906846FDF704
:106C900097FF0AB070BD30B58BB005460C46FF2299
:106CA000282101A8FBF740FA4FF6FF72ADF8042047
:106CB000ADF8065034B1012C09D0022C0CD0032CB5
:106CC00013D10EE04FF40070ADF804000DE040F277
:106CD0000120ADF8040008E040F20220ADF8040005
:106CE00003E040F20320ADF8040001A8FDF768FFBF
:106CF0000BB030BD10B50C2214A1002060F490D16F
:106D00000021084661F456D21C2214491448FBF7AE
:106D1000F9F913491C20087711484FF4C86112385B
:106D2000818141810021017007228273012242701A
:106D3000817040F64801FB2060F438D00122F72131
:106D4000BDE81040084660F49F940000476F6F64F0
:106D500069785F506F7765720000000042448000E0
:106D60002EBF800070B58AB006460D461446FF223D
:106D700028216846FBF7D8F940F20933ADF8003016
:106D8000ADF802508DF804602068029060680390AE
:106D90002089ADF810006846FDF712FF0AB070BDFB
:106DA00030B58BB005460C46FF22282101A8FBF721
:106DB000BBF940F20731ADF804100021ADF8061020
:106DC0008DF808502068039060680490083405949A
:106DD00001A8FDF7F5FE0BB030BD70B58AB00546D1
:106DE0000C461646FF2228216846FBF79DF94FF412
:106DF0004073ADF80030ADF802408DF80450308893
:106E0000ADF808006846FDF7DBFE0AB070BD30B58E
:106E10008BB004460D46FF22282101A8FBF784F918
:106E20004FF6FF72ADF80420ADF8064045B140F2D0
:106E30000520ADF8040001A8FDF7C2FE0BB030BD7F
:106E40004FF40170ADF80400F5E730B58BB005469E
:106E50000C46FF22282101A8FBF766F940F2112217
:106E6000ADF80420ADF8065020680390A088ADF876
:106E70001000A0798DF8120001A8FDF7A1FE0BB05B
:106E800030BD10B58AB00C46FF2228216846FBF7BA
:106E90004BF940F20920ADF800000020ADF80200E7
:106EA00020680290A088ADF80C00A0798DF80E0043
:106EB0006846FDF785FE0AB010BD10B58AB00446DD
:106EC000FF2228216846FBF72FF940F20B21ADF88D
:106ED0000010ADF802406846FDF772FE0AB010BD22
:106EE00013B58AB00446FF2228216846FBF71CF937
:106EF0004FF40371ADF80010ADF802409DF82C007E
:106F00008DF808006846FDF75BFE0CB010BD30B58B
:106F10008BB005460C46FF22282101A8FBF704F997
:106F200040F20F22ADF80420ADF806408DF808506D
:106F300001A8FDF745FE0BB030BD70B58AB0044620
:106F40000D461646FF2228216846FBF7EDF840F271
:106F50000E20ADF80000ADF802501022314602A814
:106F6000FBF7D0F88DF804406846FDF729FE0AB01B
:106F700070BD10B58AB00446FF2228216846FBF791
:106F8000D3F84FF40471ADF800100021ADF80210F1
:106F90008DF804406846FDF713FE0AB010BD0000EE
:106FA0002DE9F041044618460026002300256FF421
:106FB0008857E4191C4F06D0012C07D0022C0CD0A6
:106FC000032C0CD105E03B687D6808E0BB68FD68D8
:106FD00005E0BB69FD69087801E03B697D69002433
:106FE0001CE033F83470874217D103EBC4035C68AC
:106FF000B4B10E4B9C4204D1034602F07DF8064624
:107000000EE00B4B9C4204D1034601F0F3FE064612
:1070100006E00346A047064602E0641CAC42E0D30B
:107020003046BDE8F081000070028000116F020060
:107030009D3E020070B540240221C588584BEA07E6
:1070400004D093F86D100A2909D00A214279042A44
:107050000CD354A21021002000F450F79EE04324EA
:107060005C4A1021002000F449F797E012B1032A8E
:1070700000D00A2193F86C30994306D0422456A2DE
:107080001021002000F43AF788E00379022B05D99B
:107090005DA21021002000F431F77FE0690706D5DA
:1070A0002AB1664A1021002000F428F776E053B197
:1070B00025F01001C1800D0730D5614A1021002054
:1070C00000F41CF76AE045F01001C1808D0601D480
:1070D0004D0605D55B4A1021002000F40FF75DE056
:1070E000CD0711D04D0707D48D070DD4564A102176
:1070F000002000F403F751E08D0705D5534A102115
:10710000002000F4FBF649E04D0730D5C9072ED129
:107110004F4A1021002000F4F1F63FE0012B02D08D
:10712000CD071ED119E0CD0707D08D0705D5494AF7
:107130001021002000F4E2F630E08D0617D5012A78
:1071400005D0022A03D0CD0701D189070FD5414AC6
:107150001021002000F4D2F620E08D0701D489062A
:1071600005D53D4A1021002000F4C8F616E0022B98
:1071700013D2407A032805D938A21021002000F448
:10718000BDF60BE0012A01D0022A06D128B13F4A00
:107190001021002000F4B2F600E00024204670BD6B
:1071A000000E8000523A313A5B4552525F494E56CA
:1071B000414C49445F504152414D5D3A204368651E
:1071C000636B20646973636F76657279206D6F6499
:1071D00065210A00A4000101523A313A5B4552523E
:1071E0005F4E4F545F535550504F525445445D3A93
:1071F00020726F6C65206E6F7420737570706F7283
:10720000746564210A000000523A313A5B455252DB
:107210005F494E56414C49445F504152414D5D3AA1
:1072200020436865636B2061647665727469736975
:107230006E672074797065210A0000004401010125
:10724000EC00010178FF0001640201010402010168
:10725000C0020101A0010101D8FF0001523A313AF8
:107260005B4552525F494E56414C49445F50415232
:10727000414D5D3A20436865636B2066696C7465B7
:107280007220706F6C696379210A00003800010177
:1072900000280CD059B1092909D9064A90600A2062
:1072A000B1FBF0F05080002090800120704700205A
:1072B00070470000A84780000249014808607047F5
:1072C00035700001F4038000F0B5ADB004460D4602
:1072D00016461F462878032804D0012809D017280D
:1072E00012D008E002200BF46FD0F821FCF7EAFC82
:1072F00001E002F0E1FD2DB03B4632462946204632
:10730000BDE8F0406CF4969769F4B0D60446207856
:107310000A2825D300202B902C90687870B96946F4
:10732000E01D5EF4E3D29DF829008DF8B200DDF88F
:1073300023002B90BDF82700ADF8B000244E7068F4
:1073400048B1002068F49CD77368227868782BA92C
:10735000984768F4CBD769F48FD600202DB0F0BDE4
:1073600068781C4E20B330886EF45CD2C4B202A898
:107370000090184B69780A33727A1D46204673F4E0
:107380007FD5717A2A46204600F054FA002068F42E
:1073900077D71148016829B18B6B1BB10D4A0021C9
:1073A0002046984768F4A2D769F466D60020D5E74E
:1073B00002A9E01D5EF49AD29DF831007072DDF8EA
:1073C0002B00C6F80A00BDF82F00F0812478CEE724
:1073D000B444800018278000982180002DE9FC5FCC
:1073E0000C4692A00068019001AA214600200CF4EE
:1073F0002BD18346BBF1010F7DD10026607800F0D0
:107400000F07DFF82C8298F86C006070002008B13C
:107410004226FBE0A18C608C0AF45AD708B14026C2
:10742000F4E04FF0000A88F86EA088F86CA000F431
:1074300085F50A20B8434FF4006902D00520B8430F
:107440007ED17C480078C0077BD01F2094F82010A4
:10745000490606D57F2098F86E1041F0200188F883
:107460006E1017F0050F04D0A17E490701D540F436
:10747000C07040F4C06588F880A0208C000402D55C
:10748000012088F88000208C400405D598F8800001
:1074900040F0020088F88000A08B29460BF4D2D17E
:1074A000064630007ED194F8200010F0380F15D039
:1074B00004200AF489D794F82010C1F3C202521EA6
:1074C0004FF6FF7101EA82020C2100F439F5042025
:1074D0000AF47AD749460A4600F432F594F82000B7
:1074E000400717D002200AF46FD794F8201001F05B
:1074F0000702521E00E08FE04FF6FF7101EA8202A0
:107500000C2100F41DF502200AF45ED749460A4614
:1075100000F416F515F4C06F1AD00021002005F014
:1075200001021144C9B26D08401CC0B22028F6D334
:10753000B8F8500028B1CDF800A0491E084401E079
:107540001EE005E080B26B460022012100F4FAF44F
:1075500038480078800713D594F82000000605D538
:1075600098F86E0040F0400088F86E0094F8200013
:10757000C0F3C011E08B0EF45BD70646300045D156
:1075800002204BF40DD488F86C700BF471D388F89A
:1075900075A094F82A0088F8740098F86C008008A8
:1075A00022D000E032E04120E17E88F86F108A07A7
:1075B00004D421F0020088F86F001720E18C4945BF
:1075C00000D349468946484500D981461FFA89F1CA
:1075D000A8F87010228D8A4200D21146884200D845
:1075E0000846A8F8720001E088F86FA01048102241
:1075F00004F10A015630FAF785FDA07EC00705D0D8
:107600006068C8F866002089A8F86A003EB10A4A96
:1076100031460020126890475846BDE8FC9F074A53
:107620000021084612689047F6E7000003000000BA
:10763000000E8000F8038000EC038000FC03800053
:107640002DE9FE4F82468846914600200190029027
:107650002F4B30A2402100F451F43248006800283A
:1076600054D005684AE0A888401C84B2EF88288975
:1076700070F4D6D5064623462BA240210020009761
:1076800000F43CF437E001A920465DF43BD428BB6C
:1076900042F6021101A85DF43BD4F8B123462BA2B7
:1076A0004021002000F42AF462F470D480B162F426
:1076B0006DD4C01CA04204D1214648466DF4E6D0EA
:1076C00040B15EB1306948B1B8F1000F0CD106E0AD
:1076D0000020EFE70021504661F47ED309E0214607
:1076E00048466DF4D3D020B9336900222146504674
:1076F0009847641CA4B2BC42C5D92D68002DB2D1F4
:10770000034B1AA24021002000F4F8F3BDE8FE8FDD
:10771000FDFB0001523A333A5B25735D20656E74C0
:1077200065720A00E0228000523A333A7374617243
:10773000745F68646C3D307825782C20656E645FDA
:1077400068646C3D307825780A000000523A333A7C
:10775000636C656172206363636420617420686197
:107760006E646C653D307825780A0000523A333AF1
:107770005B25735D20657869740A000070B5054665
:107780000548446804E0E16809B128468847246850
:10779000002CF8D170BD00001046800010B50E4BD3
:1077A0001B78984210D200EB40030C48006800EBB5
:1077B00083100B68C0F803308988A0F80710827026
:1077C000012100F8021B10BD05A24021002000F499
:1077D00095F3002010BD0000E4238000DC2280002F
:1077E000523A333A676174742066696E6420697432
:1077F000656D2C206E6F7420666F756E640A0000D4
:1078000070B58AB005460C461646FF222821684608
:10781000FAF78AFC4FF4C063ADF80030ADF80240CF
:107820008DF80450ADF806606846FDF7C9F90AB056
:1078300070BD00002DE9FC4107460E461446234B5F
:1078400023A24021002000F459F3002538466DF4AE
:1078500043D68DF8066020680090A088ADF804003B
:10786000324621463846FFF799FF04467CB121464F
:1078700068465DF497D703465BB119A2402100200A
:1078800000F43CF3384600F0EBF801250EE001254A
:107890000CE0237A19A24021002000F42FF3207A73
:1078A00088B12246694638466DF4F4D2224629460C
:1078B0003846FFF7C5FE054B1AA24021002000F410
:1078C0001DF3BDE8FC810125F0E7000013FC000179
:1078D000523A333A5B25735D20656E7465720A0017
:1078E000523A333A626F6E64206D67722067657436
:1078F000206572723D307825780A0000523A333A9A
:10790000626F6E6420646576207265636F6E6E656B
:1079100063742C2063636364206E756D3D3078253D
:10792000780A0000523A333A5B25735D2065786926
:10793000740A00003EB505461B4B1CA240210020E6
:1079400000F4DCF201A9284606F030FC00281DD026
:107950001AA24021002000F4D1F29DF80A2001A9CA
:107960002846FFF71BFF044684B118A240210020DF
:1079700000F4C4F2207A0090E3791AA2402100209A
:1079800000F4BCF2214601A85EF45ED0284600F067
:1079900067F828466DF4B8D5034B1BA240210020A0
:1079A00000F4ACF23EBD0000DCFB0001523A333A79
:1079B0005B25735D20656E7465720A00523A333A36
:1079C000626F6E646564206465760A00523A333AE9
:1079D00073617665206363636420696E206E7664EC
:1079E000730A0000523A333A7570645F666C6167DF
:1079F000203D2025642C20636363645F6E756D20D9
:107A00003D2025640A000000523A333A5B25735D3D
:107A100020657869740A00000249014808607047CF
:107A200035790001D822800030B58BB004460D4670
:107A30000A4B00221A70FF22282101A8FAF774FBD2
:107A400040F20162ADF80420ADF806408DF80A500E
:107A500001A8FDF7B5F80BB030BD0000104680005E
:107A600070B504460BA24021002000F447F21048F4
:107A7000007884420DD20F4D04EB4404C0212868E5
:107A800000EB8410FAF757FB2968002001EB841102
:107A9000087070BD523A333A676174742072656D34
:107AA0006F7665206974656D20656E7465720A0075
:107AB000E4238000DC22800070B58AB006460D46C3
:107AC0001446FF2228216846FAF72EFB40F20452A2
:107AD000ADF80020ADF802508DF8046034F8040BC6
