:020000040100F9
:10200000000084005920000161200001894A8000FD
:10201000FF210001FD210001452200010000000018
:10202000000000000000000000000000314C8000B3
:102030006B200001000000006D20000171200001F4
:10204000DFF810D000F058FC00F094F8004800478A
:10205000210401010000840006488047064800472B
:10206000FEE7FEE7FEE7FEE7FEE7FEE7FEE7FEE748
:10207000FEE70000392B0001450401012DE9F05F66
:102080000546002092469B468846064681464024E7
:102090001BE0284641464746224600F0EAFA5346EE
:1020A0005A46C01A914110D311461846224600F0F4
:1020B000D1FA2D1A67EB01084F4622460120002174
:1020C00000F0C8FA17EB00094E41201EA4F10104EC
:1020D000DFDC484631462A464346BDE8F09F000013
:1020E0000649074A0868504343F239021044086021
:1020F000400870470149086070470000744A80003A
:102100006D4EC64140EA01039B0703D009E008C9B0
:10211000121F08C0042AFAD203E011F8013B00F8AC
:10212000013B521EF9D27047D2B201E000F8012BF8
:10213000491EFBD270470022F6E710B513460A4647
:1021400004461946FFF7F0FF204610BD421C10F868
:10215000011B0029FBD1801A704730B504460020CE
:10216000034600E05B1C934203D2E05CCD5C401B65
:10217000F8D030BD70B5054C054D03E02068204413
:102180008047241DAC42F9D170BD0000344A0101E2
:10219000384A01010EB540F2334102910021CDE9E8
:1021A00000110A460B4600F0CCFA03B000BD0EB594
:1021B00040F2334202920022CDE90022134600F0A1
:1021C000C0FA03B000BD20F00040C20DC0F31600FD
:1021D00040F400007F2A02DA002001467047002107
:1021E000962A03DCC2F19602D0407047963A00F07E
:1021F00031BA43F6C51CC3F2000C6047FEE7FEE7A8
:1022000058585247010000001555000000200001F9
:10221000002000016EED52490101000000000000A5
:1022200000000000000000000000000000000000AE
:10223000000000000000000000000000000000009E
:102240001BF44A97FEE7704770472DE9FE4F804622
:1022500081EA0300C00F0C46009021F0004123F0FA
:102260000045B8EB0200A94105D240462146904600
:102270001C460B46024623F00040104347D0270D72
:10228000C7F30A00C3F30A510290401A0190402894
:102290006BDAC3F3130040F4801B0098924620B120
:1022A0000023D2EB030A63EB0B0B01985946C0F1F4
:1022B0004002504600F0CEF906460D4650465946BB
:1022C000019A00F0E6F910EB08006141002487EA6A
:1022D000115284EAE7731A4340D0009A62B3019A1C
:1022E000012A4FEA075215DC001B61EB02014FF097
:1022F000004202EA0752CDE90042001C41F580117C
:1023000032462B4600F01DFA03B0BDE8F08F404680
:102310002146F9E7001B61EB0201001C41F5801327
:1023200000185B412018A2F5001747EB030140EAB3
:10233000D570B6196D4111E06D084FEA360645EAD1
:10234000C0754FEA0752001B61EB0201001C41F50A
:10235000801149084FEA30000019514132462B469E
:1023600003B0BDE8F04F00F0DDB900980122400055
:102370000023D0EB020263EBE073009821464FEAA2
:10238000E074B8EB000061EB0401E9E783F000437F
:102390005BE781F0004158E72DE9FE4F81EA030435
:1023A00004F0004421F0004100944FF0000B23F0B2
:1023B000004350EA01045ED052EA03045BD0C3F349
:1023C0000A54C1F30A552C44A4F2F3340194A0FB3F
:1023D0000254C1F3130141F48011C3F3130343F416
:1023E000801301FB024400FB034E840A970A44EA6F
:1023F000815447EA8357A4FB076802958D0A05FBC1
:1024000007854FEA932C04FB0C542705029D4FEAE5
:10241000065847EA1637B5EB08056EEB070C870E32
:10242000920E47EA811742EA8312A7FB0201B6EB3C
:102430000B0164EB00042B0D43EA0C335E1844EBF4
:102440001C50DA465146E7FB0201C5F313044FEA7C
:102450000B3343EA14534FEA0432019C43EA060368
:10246000A4F10C040294009CCDE900B400F069F9D9
:1024700003B0BDE8F08F00200146F9E72DE9F04DEB
:1024800081EA030404F0004B21F0004514464FF0AC
:10249000000A23F0004150EA050220D054EA01026C
:1024A0001DD0C5F30A570246C5F31303C1F3130049
:1024B000C1F30A5640F4801543F48013A7EB0608D5
:1024C000101BD64608F2FD3873EB050002D308F165
:1024D000010801E092185B41B8F1000F03DA002017
:1024E0000146BDE8F08D00204FF480110646844679
:1024F0000EE0171B73EB050705D3121B63EB0503F7
:1025000006434CEA010C49084FEA300092185B413F
:1025100050EA0107EDD152EA030012D082EA04002A
:1025200083EA0501084305D0101BAB4106D2012206
:10253000002306E000224FF0004302E06FF00102AA
:1025400053101AEB06004CEB085110EB0A0041EB5C
:102550000B01BDE8F04D00F0E5B870B5C1F30A52CB
:1025600001F000450024C1F3130140F2FF3341F4B0
:1025700080119A4201DA002070BD40F233439A4242
:10258000A2F2334203DC524200F073F800E09040C4
:102590002C43F1D0404270BDC1F30A5210B5C1F3D3
:1025A000130140F2FF3341F480119A4201DA002016
:1025B00010BD40F233439A42A2F2334203DC52424E
:1025C00000F057F810BD904010BD00F0004230F010
:1025D00000400AD0C10D01F56071C0F3160042EA57
:1025E0000151C2084007114370470020014670475F
:1025F00001F0004330B421F0004150EA010206D05E
:102600000A0DA2F56072C1F31301002A02DC30BC8E
:1026100000207047440F44EAC104C100E01830BCF8
:1026200000EBC25000F047B830B50B460146002021
:102630002022012409E021FA02F59D4205D303FA84
:1026400002F5491B04FA02F52844151EA2F1010205
:10265000F1DC30BD202A04DB203A00FA02F1002030
:1026600070479140C2F1200320FA03F319439040D0
:102670007047202A04DB203A21FA02F0002170473B
:1026800021FA02F3D040C2F12002914008431946DA
:102690007047202A06DBCB17203A41FA02F043EAC2
:1026A000E07306E041FA02F3D040C2F1200291400B
:1026B0000843194670470029A8BF7047401C4900CD
:1026C00008BF20F00100704710B4B0FA80FC00FA97
:1026D0000CF050EA010404BF10BC704749B1CCF1C2
:1026E000200421FA04F411FA0CF118BF012121434E
:1026F0000843A3EB0C01CB1D4FEA00614FEA102009
:1027000042BF002010BC704700EBC35010440029AA
:10271000A4BF10BC7047401C490008BF20F0010056
:1027200010BC704710B5141E73F1000408DA401C89
:1027300041F1000192185B411A4301D120F00100E0
:1027400010BD2DE9F04D92469B4611B1B1FA81F2D0
:1027500002E0B0FA80F220329046FFF77BFF044699
:102760000F4640EA0A0041EA0B0153465A46084325
:1027700013D0114653EA010019D0C8F14002504667
:10278000FFF777FF05460E46504659464246FFF78B
:1027900061FF084305D0012004E020463946BDE82A
:1027A000F08D0020054346EAE0762C4337430A9833
:1027B0006305E40AA0EB08000022FD0A44EA47543E
:1027C0000A3002D500200146E9E7010510196941E8
:1027D000DDE9084500196941BDE8F04DA2E70000B8
:1027E0002DE9F041054621F000400C46284309D070
:1027F000C4F30A5040F23341884205DD28462146A1
:10280000BDE8F0812846FBE740F2FE31884210DC4B
:102810000CDB4FEA043040EA155050EA053105D090
:10282000104804F0004101430020E9E70020014680
:10283000E6E7A0F233404642C6F140022846214670
:10284000FFF708FF07468846284621463246FFF72D
:1028500010FF43463A46FFF765FF3246BDE8F041B8
:10286000FFF7F8BE0000F03FC1F30A52C1F31301B5
:1028700040F2FF3341F480119A4202DA002001460F
:10288000704740F233439A42A2F2334202DC524292
:10289000FFF7EFBEFFF7DEBE30B5041E71F1000496
:1028A00004DB4FF00044404264EB0101141E73F15D
:1028B000000405DB1C464FF00043524263EB040367
:1028C0008B4208BF824230BD30B5041E71F1000456
:1028D00004DB4FF00044404264EB0101141E73F12D
:1028E000000405DB1C464FF00043524263EB040337
:1028F000994208BF904230BD064C074D06E0E068A3
:1029000040F0010394E8070098471034AC42F6D336
:10291000FFF79AFBE4490101344A010170B58C18B4
:1029200010F8015B15F0070301D110F8013B2A11E3
:1029300006D110F8012B03E010F8016B01F8016BD0
:102940005B1EF9D12B0705D40023521E0DD401F8CC
:10295000013BFAE710F8013BCB1A921C03E013F895
:10296000015B01F8015B521EF9D5A142D8D30020CA
:1029700070BD000010B51E480068002800D08047D8
:102980001C4900200870811E1B4801601B494FF044
:10299000007008601A4CD4F8C002800704D4F422F6
:1029A00018A11DA006F4AEF22A480168D4F8C402AA
:1029B00061F31D3040F00100C4F8C40205F404F1D5
:1029C00000214FF03040C1608161C1174161016257
:1029D00005F4B6F008484038016821F48001016030
:1029E0001D480068002802D0BDE81040004710BD17
:1029F000602480007849800044C500A080E200E0A7
:102A000000E000A0727769705F736C6565705F634A
:102A10006F6D6D6F6E2E63004D43555F5355422DA4
:102A20003E424C455F44534C4545505F434F5252E4
:102A30005F454E2026204D43555F5355425F424C23
:102A4000455F44534C4545505F434F52525F485792
:102A50005F454E00542480006424800000214FF024
:102A60003040C1608161C1174161016206490220A5
:102A700004220A60BFF34F8FBFF36F8F0860BFF36C
:102A80004F8FBFF36F8F704780E100E00449022051
:102A9000C1F800010860BFF34F8FBFF36F8F70471D
:102AA00080E100E00249096801F007010170704708
:102AB00004C500A030B4062821D212490A6802F0E9
:102AC0000702824212D00A680F4B1A400F4C224371
:102AD0000A6000BF00BF00BF00BF0A681A400C4B6D
:102AE000024333F8203042EA83420A600849183929
:102AF00051F820000749486030BC76F47B9230BC26
:102B00007047000004C500A0F8FFE3FF05000800BF
:102B1000543801010041800004480068044900F075
:102B2000070051F8200003494860704704C500A021
:102B30003C380101004180000248016841F4700105
:102B40000160704788ED00E002480068001D1EF437
:102B500083950000CC43800002484068001D1EF4AD
:102B60007B950000CC4380000FB4054B10B503A942
:102B7000044A029800F0B0F910BC5DF814FB0000A4
:102B8000C5830001F84380000FB41CB50246002045
:102B900007AC00290BD0491ECDE90021054B6A4640
:102BA0002146069800F098F9009A002111701CBC8B
:102BB0005DF814FB073600010FB4084B10B504A9EB
:102BC00002AA039800F088F9044602A9002000F048
:102BD00025FD204610BC5DF814FB00001D360001E9
:102BE0007CB5044600201D46164600290BD0491E20
:102BF000CDE90041044B6A462946304600F06CF9A5
:102C0000009A002111707CBD07360001002804DB0A
:102C100000F1E02090F80004704700F00F0000F190
:102C2000E02090F8140D7047002804DB00F1E0204C
:102C300090F80004704700F00F0000F1E02090F8D9
:102C4000140D704702480068C0F30220704700006E
:102C50000CED00E00000000010B52DED020B2DED95
:102C6000088B84B09DED0C0B51EC100BFFF7B8FDF9
:102C700041EC180B9DED0C0B53EC182B51EC100B89
:102C8000FFF784FB41EC190B0D989FED290B10F019
:102C9000004F53EC102B51EC190B9FED21AB9FED26
:102CA00022BB0ED0FFF7F8FD0ED953EC1B2B51ECD5
:102CB000190BFFF709FE1CD214E000BF41EC180B02
:102CC00017E0FFF7E9FD06D253EC1A2B51EC180B75
:102CD000FFF75CFBF2E753EC1B2B51EC190BFFF7F2
:102CE000F3FD06D853EC1A2B51EC180BFFF7ADFA95
:102CF000E4E78DED028B9DED0C0B18EE901A10EEB3
:102D0000900A8DED000B61F31E0003909DED020B08
:102D100004B0BDEC088B02B010BD00000000000044
:102D2000000000000000F03F000000000000E03F55
:102D3000000000000000E0BF02E008C8121F08C148
:102D4000002AFAD17047002001E001C1121F002AB9
:102D5000FBD170472DE9FF5F82B00021DDE904302F
:102D6000020DDDF840B0034318D044F61050A2F233
:102D7000FF3242431514119801281FD0A5EB0B0018
:102D8000401C5FEA000A4FF000064E4FDFF8389112
:102D9000B046504615D5CAF1000413E0119801243D
:102DA0004AA3012801D16FEA0B010298119AC0E9E8
:102DB0000031C0E9024206B0BDE8F09FCBF100004F
:102DC000DFE704460021404A491842EB0450CDE9B0
:102DD000001012E0E00707D032463B464046494625
:102DE000FFF7DAFA8046894632463B4610461946D6
:102DF000FFF7D2FA06460F466410002CEAD1DDE94F
:102E00000401DDE90023BAF1000F06DAFFF7C4FA86
:102E100042464B46FFF7C0FA05E0FFF72FFB42465C
:102E20004B46FFF72BFB04460E460022284BFFF7CC
:102E30004BFD03D84FF0FF30014607E00022254B41
:102E400020463146FFF701FAFFF70EFD102409E096
:102E5000002C0ADB0A220023FFF710F9039B303213
:102E60001A55641E50EA0102F2D1641C039AC4F19F
:102E700011031444119A012A03D0012208430DD1F1
:102E80000AE0084304D000204FF0110B119072E7C4
:102E9000A3EB0B056D1E0DE05B4504DD4FF000025A
:102EA00005F1010504E003DA4FF00002A5F1010588
:102EB000002AECD002981199C0E90231C0E900451E
:102EC00079E70000000014400000F03F30000000EF
:102ED0000000F0430000E03F2DE9FF4F95B09B4616
:102EE0008946064600250FE2252877D1002427468B
:102EF000F84A0121059400E0044316F8013F203B05
:102F000001FA03F01042F7D130782A2811D06FF07F
:102F10002F033078A0F13002092A16D8059A44F020
:102F2000020402EB820203EB42021044761C05907D
:102F3000EFE759F8042B0592002A03DA504244F4D3
:102F40000054059044F00204761C30782E2816D1E7
:102F500016F8010F44F004042A280DD06FF02F0258
:102F60003078A0F13003092B09D807EB870302EB77
:102F70004303C718761CF3E759F8047B761C3078B6
:102F80006C280FD006DC4C2817D068280DD06A2892
:102F900014D104E0742810D07A280FD10DE044F445
:102FA00000140AE044F4801401E044F44014727800
:102FB000824202D104F58014761C761C3078662893
:102FC0000BD013DC582877D009DC002875D04528B1
:102FD000F6D04628F4D047281AD19DE118E063289E
:102FE00035D0642879D0652812D195E1702873D046
:102FF00008DC6728F1D069286FD06E280DD06F28C3
:1030000006D1B5E073282CD0752875D0782874D0F7
:103010005A46179990476D1C75E1C4F30250022877
:1030200009D003280DD0D9F8001004280DD00D6068
:1030300009F1040967E1D9F80010EA17C1E9005263
:10304000F6E7D9F800100D80F2E70D70F0E719F8F7
:10305000041B8DF8001000208DF80100EA460120C5
:1030600003E059F804AB4FF0FF3061074FF0000167
:1030700002D40DE008F101018846B9420FDA80451B
:10308000F8DB1AF808100029F4D108E008F1010172
:1030900088468142FADB1AF808100029F6D1059813
:1030A0005B46A0EB080721463846179A00F094FAD1
:1030B000284400EB080507E04DE029E10DE01AF88F
:1030C000010B5A4617999047B8F10108F7D25B46B1
:1030D00021463846179A13E142E00A220092C4F3CF
:1030E00002524FF0000A022A08D059F804CB032AF2
:1030F0004FEAEC710AD00DE029E02AE009F107015E
:1031000021F00702F2E802C1914609E00FFA8CFCB7
:103110004FEAEC71042A03D14FFA8CFC4FEAEC71B0
:10312000002907DA0A460021DCF1000C61EB0201FC
:103130002D2202E0220504D52B228DF80420012245
:1031400003E0E20701D02022F7E7904659E00A2188
:1031500002E010220DE010214FF0000A00910BE078
:1031600010224FF0000A44F004040827009203E004
:1031700008224FF0000A0092C4F30252022A05D03E
:1031800059F804CB0021032A08D009E009F107010E
:1031900021F00702F2E802C1914605E01FFA8CFC1B
:1031A000042A01D10CF0FF0C4FF00008220728D5AB
:1031B000702806D0009B83F0100353EA0A0305D061
:1031C0000EE040228DF80420012208E05CEA0102B2
:1031D00006D030228DF804208DF80500022290469A
:1031E000009B83F0080353EA0A030AD15CEA010258
:1031F00001D1620705D530228DF804204FF0010877
:103200007F1E582804D034A003900EA802900DE031
:1032100036A0F9E753466046009AFEF72FFF844632
:103220000398825C0298401E029002705CEA0100E2
:10323000F0D1029806A9081A00F1200A600702D509
:1032400024F4803400E00127574502DDA7EB0A0093
:1032500000E0002000EB0A01009005984144401A6C
:103260000590E00306D45B462146179A059800F0C6
:10327000B3F90544002706E001A85A46C05D179936
:1032800090476D1C7F1C4745F6DBE0030CD55B4681
:103290002146179A059800F09FF9054404E0302074
:1032A0005A46179990476D1C0099481E00900029B6
:1032B000F5DC08E0029802995A460078491C029110
:1032C000179990476D1CBAF10001AAF1010AF1DCCF
:1032D00065E10000092801003031323334353637DA
:1032E0003839616263646566000000003031323352
:1032F00034353637383941424344454600000000F2
:1033000000F058F90544761C307800287FF4ECADC5
:1033100019B02846BDE8F08F620700D4062709F1EE
:10332000070222F0070CFCE80223E14603F0004804
:103330005FEA080C02D00FF2702C0DE05FEA045C2B
:1033400002D50FF2682C07E05FEAC47C02D00FF2CE
:10335000602C01E0AFF2700C4FF0FF3823F0004317
:10336000CDF850C065280CD006DC452809D0462889
:103370001DD047283DD13DE0662818D067287ED172
:1033800038E00021112F01DB112000E0781CCDE98D
:10339000000106A90EA8FFF7DDFCDDE90F010E9A7A
:1033A00003910021009207F1010A04914DE04FF0D2
:1033B00000400097CDE9011006A90EA8FFF7CAFC4E
:1033C000DDE90F0203920E9B11990022DDF80CA09B
:1033D0000093049211B9791C00EB010AB7EB0A00C3
:1033E00004D4C0F1FF3007F1010A0490AAEB0700F2
:1033F000019044E0012F00DA01270021112F01DDA7
:10340000112000E03846CDE9000106A90EA8FFF71B
:10341000A1FCDDE90F010E9A0391002104910092B5
:10342000BA4621070CD40399514500DA8A46BAF10D
:10343000010F05DD009AAAF10101515C302908D085
:10344000B84202DA10F1040F06DA0121CDE90110C9
:1034500015E0AAF10101E9E7002805DC049901441F
:103460000491AAEB000102E0411C514500DD8A46AF
:103470000499401A401C01904FF000400290200730
:1034800004D40198504501DBCDF8048000208DF86C
:103490004F0002980DF14F07B0F1004F25D02B20BF
:1034A0000E9002984FF0020800280CDA4042029079
:1034B0002D200E9007E00A210298FFF7B5F8303171
:1034C000029007F8011DB8F10001A8F10108F2DC33
:1034D00002980028EFD1791E0E980870307800F01D
:1034E000200040F0450007F8020D12A8C01B00F1B3
:1034F00007081498007800B1012000EB0A01019838
:1035000001EBE07105984144401A401E0590E0032C
:1035100006D45B462146179A059800F05DF80544ED
:103520001498007818B15A46179990476D1CE0031B
:1035300024D55B462146179A059800F04DF80544BE
:103540001CE00498002807DBDDE90301884203DD65
:103550000098405C179901E0179930205A4690472F
:10356000049805F10105401C04900198401E01904B
:1035700004D12E205A46179990476D1CBAF10001CC
:10358000AAF1010ADDDC05E017F8010B5A4617998C
:1035900090476D1CB8F10001A8F10108F4DC5B460E
:1035A0002146179A0598ABE62D0000002B0000007D
:1035B000200000002DE9F041044600251E46174674
:1035C000880404D405E039462020B0476D1C641EF1
:1035D000F9D52846BDE8F0812DE9F04104460025E3
:1035E0001E469046C80301D5302700E020278804F6
:1035F00004D505E041463846B0476D1C641EF9D538
:103600002846BDE8F0814A68002A06D00A68531CA3
:103610000B6010704868401E486070470A68531C71
:103620000B601070704700002DE9F05F0746894677
:1036300093464FEA5B04A2464D465F4EDFF87C811D
:10364000EFF31080012181F31088D8F8A41221F043
:103650002001C8F8A41280F31088EFF31080012134
:1036600081F31088D8F8A01221F02001C8F8A01228
:1036700080F31088306820F080403060504830601F
:103680003F20D8F8001160F30501C8F80011306838
:1036900020F4601040EAC7403060306820F4E02039
:1036A00040EA07403060052F03D1306840F4004005
:1036B0003060062F03D1306840F4804030603068BD
:1036C00040F400503060306820F060503060306866
:1036D00020F00F0040F003003060EFF31080012174
:1036E00081F31088344A3832116821F0E04141F00A
:1036F0008041116080F31088306840F08040306075
:1037000001E0D8F80000D8F80401C0F30020002838
:10371000F7D1EFF31080012181F31088116841F097
:103720000041116080F3108834E000204FF47A717A
:103730001AE0884217D9306820F080403060306845
:1037400040F000403060306820F0004030600AF007
:103750002DF81C480168491C016054464D4605205F
:1037600078F44DD26CE7401CD8F80421C2F3002253
:10377000002ADED0D8F8040100F07F01A14200D970
:103780002146002003E0D8F8002004C5401C8842F0
:10379000F9D3641A002CC8D15FEACB7008D0D8F8EE
:1037A0000401C0F300200028F9D0D8F800002880D8
:1037B000BDE8F05F09F0FABF08C500A000E000A076
:1037C0000A070807644A80002DE9F04107460E46C3
:1037D0004FF000080024274D0BE004EBC40005EB7C
:1037E0008000801C07223946FEF7B7FC40B1641CFC
:1037F000E4B22878A042F0D8B8F1000F18D102E066
:103800004FF00108F8E728780A21B0FBF1F201FB3C
:1038100012040A2801D2401C287004EBC40105EBF5
:1038200081003968C0F80210B988C180B979017285
:103830002B7811A21021002005F466F330780007E0
:103840000BD504EBC40005EB800006F14601BDE892
:10385000F0410A301C22FEF755BC04EBC40005EB16
:10386000800006F12A01BDE8F0410A301C22FEF773
:1038700049BC0000ECE18000523A313A61646420B6
:103880006C746B206974656D2C206E756D203D2005
:1038900025640A000449896B084004490A781043EA
:1038A00000220A7070470000002001A01846800026
:1038B000104A114900280EDC0868C0F34120012895
:1038C00008D0506C401C5064086820F4C06040F47C
:1038D0000070086070470A28FCDB086810F4C06FAD
:1038E000F8D0106C401C1064086820F4C0600860B8
:1038F00070470000A44780000CC500A006460F4694
:10390000154672B63846FEF721FC402801D9402002
:1039100002E03846FEF71AFC80463046FEF716FCF9
:10392000402801D9402002E03046FEF70FFC044653
:103930009C211048FEF7FFFB424639460D48FEF732
:10394000E1FB0C48224631465C30FEF7DBFB0948C0
:103950004FF0AA31016445644FF0BB3181644FF0F0
:10396000CC3101654FF0DD318165002000F004F8B5
:10397000FEE70000D49C800030B5ADF20C4D04464B
:103980004FF4806103A8FEF7D6FB184D202085F880
:103990003F0085F89B003CB12846012C436DC26C6A
:1039A00009D0022C0CD00FE0104A11A15C3203A800
:1039B000FFF702F908E011A103A8FFF7FDF803E003
:1039C00016A103A8FFF7F8F803A90BA2686CCDE9CC
:1039D0000121009018A3054A18A1002000F0D4FD91
:1039E00000F09EFD0DF20C4D30BD0000D49C800017
:1039F0005B4552524F525D20257300005B57415288
:103A00004E494E475D20506172616D303A25642CFD
:103A1000506172616D313A25640000005B50415283
:103A2000414D5D20506172616D303A25642C5061CA
:103A300072616D313A256400000000006170705FB2
:103A40006173736572742E6300000000014877F49F
:103A5000139700006C45800006460F4690461D46B1
:103A600072B64046FEF772FB402801D9402002E0C2
:103A70004046FEF76BFB04469C210D48FEF75BFBBE
:103A8000224641460A48FEF73DFB09484FF05531B2
:103A9000016445644FF066318164C6644FF077314C
:103AA00001654765C94381650220FFF765FFFEE7B1
:103AB000D49C80002DE9F04106460F4690461D46F5
:103AC0004046FEF743FB402801D9402002E0404633
:103AD000FEF73CFB04469C210D48FEF72CFB2246DA
:103AE00041460B48FEF70EFB09484FF011310164C7
:103AF000456449008164C6644FF033310165476510
:103B00004FF044318165BDE8F0410120FFF734BF3B
:103B1000D49C800010B586B003F08CF80446002CCD
:103B200009D01422054901A8FEF7ECFAADF80840C7
:103B300001A800F005F806B010BD0000783A0101B8
:103B40003EB504464FF400711A48FEF7F4FA2078A7
:103B500010B1012819D01DE000211748A28830F8C3
:103B600031309A4207D100EBC10014A143681148DB
:103B7000FFF722F80EE02E2902D0491CC9B2EEE769
:103B800014A10C48FFF718F804E01DA10948626869
:103B9000FFF712F8074921A22069CDE90121009021
:103BA000D4E902231EA1002000F0EEFCBDE83E4057
:103BB00000F0B6BCD49A8000FC4380004572726F5E
:103BC0007220636F6465203078253034583A2025A0
:103BD000730000004572726F7220636F646520305D
:103BE00078253034583A204E6F20666F756E642009
:103BF000696E666F726D6174696F6E2E00000000F1
:103C000028257329206973206E6F74206573746191
:103C1000626C69736865642E000000002573000003
:103C20006170705F6572726F722E63002DE9F041F2
:103C3000014600291BD000240F4E0E4A357814E0AF
:103C400002EB04100F780378BB420CD14B6840683C
:103C5000034208D0707808B900F034FC2046BDE873
:103C6000F04100F0EBBA641CE4B2AC42E8D3BDE82A
:103C7000F08100002C988000D44380007CB505467C
:103C80000E46002D01D0002418E005207CBD05EB78
:103C9000041041680091017A8DF80410417A8DF882
:103CA000051007218DF80610C268007800236946C8
:103CB00000F048F80028E9D1641CE4B2B442E6D32D
:103CC00000207CBD10B50C46062833D2DFE800F09A
:103CD000030303101E27184951F830002104090C72
:103CE00004D018B1214607F021FA1FE0042010BDCE
:103CF0002004000C03D0A1B2104807F017FA200CE2
:103D000014D0210C0E4807F011FA0FE014F0FF0F49
:103D100003D0204607F000F808E0042010BD14F09E
:103D2000FF0F05D02146002007F072FA002010BDD9
:103D3000042010BD062010BD80380101000001A044
:103D4000001001A02DE9F05F05460C46904699460B
:103D500027680026052D13D039462846FFF7B2FF05
:103D60002146284600F0ACF800280AD1042D0AD0DC
:103D7000032D2ED04FF0100B2807060E002491E0E3
:103D80000620BDE8F09F4FF0080B2079042806D0EC
:103D9000052809D006280DD0072815D110E00021EC
:103DA000384600F4C4F70FE040F20111384600F441
:103DB000BEF709E04FF00111384600F4B8F703E010
:103DC0003B49384600F4B3F74FF0007075F490D1DA
:103DD000D4E74FF0200BD1E7F80760D0052D65D26E
:103DE000DFE805F0030303254600324800EBC50079
:103DF00090F904A0BAF1000F17D0EFF31081012061
:103E000080F31088A01900EB40022B4800EB8200E1
:103E1000C0F80480C0F8089081F31088504618F468
:103E2000FBD1504618F416D239E00420A9E7EFF38D
:103E30001082012080F31088A0191F4B00EB400076
:103E400003EB8001C1F80480C1F80890032103F856
:103E5000201082F31088062018F4DED1062018F412
:103E6000F9D1072018F4D8D1072018F4F3D116E0BF
:103E7000EFF31081012080F31088A01900EB4002BD
:103E80000E4800EB8200C0F80480C0F8089081F36F
:103E90001088122018F4C0D1122018F4DBD17F084A
:103EA000641CE4B25C4597D300206AE7062068E70B
:103EB0000101010080380101A09580002097800059
:103EC00070B58EB005460C46564901F164004DC8E8
:103ED000CDE90A02CDE90C36D1E91E23486F06AEC2
:103EE000D1F880100DC6099114224E49843101A8E1
:103EF000FEF708F9ACB14C4906200EF067FC4B49BF
:103F000007200EF063FC4A4912200EF05FFC454981
:103F1000444A2C31062D7CD2DFE805F00606062146
:103F2000415905200EB070BD207931F810000B907A
:103F3000607932F810000C90A0790D9020680A90FA
:103F40003848143050F8350021880904090C04D091
:103F500018B10AA907F038F959E00420E2E72079FE
:103F600031F810000B90607932F810000C90A079B5
:103F70000D9020680A9020680104090C05D080B2D9
:103F80000A900AA92B4807F01FF92068010C3ED0BF
:103F9000000C0A900AA9284807F016F937E02079A2
:103FA00001EB4000408A0790607902EB4000C08836
:103FB0000890A079099020680690207810F0FF0FF3
:103FC00003D006A806F0FAFE21E00420AAE7207933
:103FD000031F032B01D80720A4E702281AD00120D1
:103FE0000290207901EB4000808C0390607902EB15
:103FF000400080890490A079059020680190207885
:1040000010F0FF0F09D001A9002007F059F9002096
:1040100088E704E002200290E3E7042082E706201C
:1040200080E700006C380101634C80005D4C80002B
:10403000594C8000000001A0001001A010B50246FC
:104040000C460020062A26D2DFE802F00303030B09
:104050001A1F114850F83200A1B2BDE8104015F403
:1040600036952104090C03D0A1B20C4815F42FD5C4
:10407000210C10D0210CBDE81040094815F42795FB
:10408000A0B2BDE8104013F4F594A1B2BDE8104011
:10409000002007F018B910BD80380101000001A010
:1040A000001001A0002803D00249086001207047D9
:1040B00000207047DC43800070B505460024091FCE
:1040C000062917D2DFE801F003070C111315284663
:1040D00000F0A4F80EE00124284600F09FF809E063
:1040E0000224284600F09AF804E0032402E00424A5
:1040F00000E00524034A214628461268BDE87040C6
:1041000010470000DC4380002DE9F04104462046C2
:1041100000F0AEF801462E4800230826025D00F1AB
:104120000A0700F11405AAB1052A33D0082A2AD1BA
:10413000092945D0082926D1295D491CC9B229552C
:10414000142920D32B5506552046BDE8F0410821FF
:10415000FFF7B2BF052913D0042916D0072914D0C0
:10416000082910D1295D491CC9B2295514290AD33F
:104170002B5506552046BDE8F0410821FFF79CBFAE
:104180003B5505210155BDE8F0812046BDE8F041D1
:10419000FFF792BF05290CD0395D491CC9B23955CA
:1041A0003229F0D303552046BDE8F0410521FFF741
:1041B00083BF03552046BDE8F0410621FFF77CBFD1
:1041C00003552046BDE8F0410921FFF775BF000007
:1041D0000C99800070B504460D4600F00FF808B148
:1041E00000F086F90348044A2946005D5268BDE89C
:1041F0007040104720988000D4438000002006497A
:1042000011F810200AB100207047401CC0B20A28E3
:10421000F6D30120704700002A998000034900224C
:1042200001F8102001EB4000427070472A9980008D
:10423000014A02F8101070472A998000024A0121B1
:1042400002EB4000417070472A99800070B500244D
:10425000064D05EB4400407810B12046FFF754FFAF
:10426000641CE4B20A2CF4D370BD00002A998000CB
:1042700070B500211D4B03F132051A5C002A09D0EC
:10428000002403F10A06012A0AD0022A12D0032AC6
:1042900024D11FE015F8102002B301221A541DE0AA
:1042A00015F810201AB1345402221A5416E01C5486
:1042B000042113E015F810204AB1325C521CD2B22E
:1042C0003254642A0AD3072103221A5406E0052136
:1042D0001C5403E015F8101011B10821084670BDF8
:1042E0001C54FFF79BFF0921F8E70000F8988000B5
:1042F0001CB5042815D1012914D0022924D0032982
:104300000FD174F4A9D420B3002074F4ABD418A056
:104310005B21CDE900101D4B1DA226A1022000F05B
:1043200033F91CBD254C0020217801F05DFD20787B
:1043300080F0010020706178002008F0F3FB6078C5
:1043400080F0010060701CBDBDE81C40002001F041
:104350005DBD022074F486D419A05621CDE9001069
:104360000A4B0BA213A1022000F00EF91CBD0000A5
:1043700053797374656D20476F546F20416374697E
:104380007665204D6F64650A000000002E3901013A
:104390002E2E5C5372635C706C6174666F726D5C20
:1043A000757365725F7065726970685F7365747547
:1043B000702E63004E4F5F54414700009C458000C3
:1043C00053797374656D20476F546F20536C656526
:1043D00070204D6F64650A002DE9F0410E461746C6
:1043E0000A2E02D80FB1002320E00020BDE8F081A2
:1043F00003EB430410F82410032901D0042913D13E
:1044000000EB8405114AA97AD154104910F82420F0
:104410000C3101EB0314227069686160297A217202
:10442000697A61720A49E1605B1CDBB2B342DFD397
:10443000064831460C30FFF721FC064806704760FD
:104440000548FFF72FFE0120D0E7000020988000EC
:104450002D3C0001D4438000D54100012DE9F041FD
:104460000024124FDFF8488019E0002607EB0415FE
:1044700028786968FFF7E2FD10B9697A012902D04E
:10448000012802D005E0012603E0687A022800D165
:10449000012631462046FFF7CBFE641CE4B298F8B3
:1044A00000008442E1D3BDE8F08100002C98800038
:1044B000D443800010B5FFF7D1FFBDE81040FFF7EF
:1044C000C5BE000010B5074A0121074800F058F9A1
:1044D00000220A21044800F0A1FA04490120487092
:1044E00010BD0000B5440001D0988000D443800086
:1044F00010B5034800F06DF902490020487010BD66
:10450000D0988000D4438000002806D0002904D031
:10451000024AD269002A00D010477047B09A800042
:104520000248006A002800D000477047B09A800017
:1045300070B50D4616460D4C00280AD001780329A7
:1045400011D80121A17601461A222046FDF7DAFD95
:1045500005E00020A0761A210448FDF7ECFDE56196
:104560002662002070BD012070BD0000B09A80005E
:10457000044A1044807D084201D001207047002089
:1045800070470000B09A80002DE9FE4FDDF830B092
:1045900006469246994600240027019702975A48FA
:1045A0000178B14202D2807E00287DD10DF1380819
:1045B000CDF80080EFF311850220FEF735FB0146B0
:1045C00052480068C0F30220401C01228240881833
:1045D000C0B280F3118801213046FFF7C9FF38B11E
:1045E0004B484C4950F82620204600F0A5F80446D8
:1045F0001C213046FFF7BCFF00285ED046A245498B
:10460000204600F099F8204484B204213046FFF798
:10461000AFFFF8B152463F49204600F08DF82044E4
:1046200084B208213046FFF7A3FF38B13BA23949D5
:10463000204600F081F8204484B20BE0102130467F
:10464000FFF796FF30B136A23249204600F074F8E9
:10465000204484B208213046FFF78AFF90B14A46D1
:104660002C49204600F068F8204484B210213046DE
:10467000FFF77EFF30B12BA22649204600F05CF800
:10468000204484B210213046FFF772FF70B15B46C0
:1046900026A2052101A8FEF777FA01AA1D492046A6
:1046A00000F04AF8204400E02BE084B220A219492F
:1046B000204600F041F8204484B21648C4F58071C9
:1046C000204443460D9AFEF78BFA00974FF4807111
:1046D000002804DB2044884201DC86B200E00E465C
:1046E000B01C884200D9FE2612A20A49304600F0CA
:1046F00023F8304481B20748FFF706FFE8B280F3A1
:104700001188BDE8FE8F0000B09A80000CED00E03B
:10471000E8438000B09980002800000020000000DD
:104720003A000000204C696E653A0000256C640078
:10473000292000000D0A000030B5054600200029A0
:104740000CD0002A0AD006E02B18FF2B06D8CC5438
:10475000521C401C80B21478002CF5D130BD0000F2
:1047600010B5064A06214CF201000CF047F802F0A1
:104770004FFDBDE81040022074F474922839010105
:104780002DE9F04104460D461746002D04D0012DB9
:1047900002D00120BDE8F081CCB1C7B1EFF31186A2
:1047A0000220FEF733FA8046FEF74CFA401C012146
:1047B000814008EB0100C0B280F3118800206070D6
:1047C000A570E761F0B280F311880020E2E70120D4
:1047D000E0E710B50446002C0CD0204600F0B0F9FC
:1047E000FF2060700021A160E16021616161002013
:1047F000E06110BD012010BDF0B5DDE90745059968
:1048000081614FF47A76A2FB061C03FB06C30027E6
:1048100002FB0732C0E9021209196A41C0E9041219
:1048200000210162F0BD00002DE9F0410446002C9A
:1048300013D0EFF311850220FEF7E8F90746FEF7E3
:1048400001FA401C012606FA00F03844C0B280F399
:1048500011881248002121620EE00020BDE8F0819D
:10486000D4E90432D1E9047CDB1B72EB0C0202D2E6
:10487000016A216203E00846016A0029F0D104625E
:104880006670064820380168491C0160016C41606F
:10489000E8B280F311880120E0E700006099800011
:1048A0002DE9F04105460024EFF311860220FEF7C2
:1048B000ADF90746FEF7C6F9401C01218140781882
:1048C000C0B280F31188134A106CE8B115B102F13F
:1048D000200010E00446206A10641068401E10603A
:1048E0000CE0A94206D11168491E1160296A0162D3
:1048F0002C4603E00846016A0029F2D124B10020C9
:1049000020626070106C5060F0B280F31188204615
:10491000BDE8F081409980002DE9F041EFF3118767
:104920000220FEF773F90446FEF78CF9401C0121C2
:1049300081406018C0B280F31188114D002608E054
:104940002078012804D1E16909B1A069884726705F
:104950002D6A2C6A002CF3D1094D203D07E0E16956
:1049600009B1A06988472670206AA8602662AC68F1
:10497000002CF4D1F8B280F311880120BDE8F08159
:10498000609980002DE9F041EFF311870220FEF7D6
:104990003DF90446FEF756F9401C012606FA00F0E0
:1049A0002044C0B280F311881B4DA5F1200829E0F6
:1049B000D4E90420D8E90413521A60EB0300D8E9C3
:1049C00006319A1A814120D326702046FFF768FFEE
:1049D000A078012802D0104818380DE0D8E904303A
:1049E000D4E902219A184841C4E904202046FFF77F
:1049F0001BFF07E001F1200001680029FAD12162C4
:104A0000006804622C6A002CD2D1F8B280F31188BD
:104A10000120BDE8F0810000609980002DE9FF5F72
:104A200082460E4693464FF00008BAF1000F20D0A0
:104A3000414886421DD8E6B1EFF311870220FEF708
:104A4000E5F80446FEF7FEF8401C0121814060189D
:104A5000C0B280F31188504608F014FC10B19AF8E7
:104A6000010040B1F8B280F311880F2004B0BDE816
:104A7000F09F0120FAE70BF001FC04460D464FF4CD
:104A80007A7106FB01F022462B46002108F0CAFB92
:104A9000DFF8A890B0B1D9F8040048B1D0E904100B
:104AA000091B60EB0500C9E904100BF083FC04E06E
:104AB0000021C9F81010C9F814104FF00108D9E905
:104AC000040106E0D9F80400D0E90421101B61EBD1
:104AD0000501CDE9020132460023CDF800B0504671
:104AE000FFF78AFE5046FFF79FFE0DF00DFD4FF0D9
:104AF000E021D1F800014FF0806210F0806F01D00A
:104B0000012000E0002018B9C1F88022C1F800217E
:104B1000B8F1000F0AD0D9F80400D0E90431D9E97E
:104B20000402181A61EB02010BF0DEFBF8B280F30D
:104B3000118800209AE70000008AB9074099800098
:104B40002DE9F04104460025002C39D0EFF3118700
:104B50000220FEF75BF80646FEF774F8401C0121C0
:104B600081407018C0B280F311886078012824D188
:104B7000144E7068A0420BD10BF080FBD4E90432D4
:104B8000181A62EB0102C6E904020BF013FC0125BE
:104B90002046FFF785FE5DB1706848B1D0E9042179
:104BA000D6E90403101A61EB03010BF09DFB04E04E
:104BB0001DB9706808B90BF0FDFBF8B280F31188DD
:104BC000BDE8F0814099800070B504461A4D55F853
:104BD000240070300CF033FF82B21646A2B155F8B3
:104BE000240090F8011101290ED0012180F8041150
:104BF000802A0FD355F82400802200F18001703004
:104C00000CF032FF80260CE055F82410002081F8CB
:104C1000000170BD55F8240000F1800170300CF0E7
:104C200023FF55F82400324600F18001001D1CF4DA
:104C300001D70028EDD170BDCC4380002DE9F843A9
:104C40000446464F57F82400061D022C7DD290F8EA
:104C50006C10002979D001297ED180F80111002142
:104C600057F82400D0E903231344027D02F0010227
:104C7000D21D9D184268D36FC3F38003002BFAD076
:104C800090F80421A2B1364A1368491C90F83B20E1
:104C9000102A06D08268B3FBF2F26A43B1EBC21F5E
:104CA000F3D957F8240070300CF0C9FE85B226E025
:104CB000B0F82480C58C001D1CF434D357F82400B0
:104CC00041F2883300EB0801491B8031001D2A4660
:104CD0001CF475D6E5E757F82400012270306946C8
:104CE0000CF0C2FE57F824004068C16FC1F34001C8
:104CF0000029FAD09DF8001001606D1EADB2002DA4
:104D0000E9D157F8240070300CF099FE0028C8D182
:104D1000306841694906FCD5EFF31085012080F326
:104D2000108857F8240070300CF089FE58B1EFF36A
:104D30001081012080F310883068426842F08202BE
:104D4000426081F31088002000E005E057F824104D
:104D500081F8010185F31088BDE8F883CC43800019
:104D6000044180002DE9F04389B0054688462C783F
:104D7000002D06D02AB1022C05D3082009B0BDE8C9
:104D8000F0830520FAE7384E05F1580046F8240074
:104D9000D2E900310A46703019460CF03BFE291D5D
:104DA000894624220C316846FDF7ACF9291D286D8F
:104DB0000EC90EF0B5FA0028E0D12C490C200DF0F8
:104DC00005FD2B490D200DF001FD2A4800EBC4071D
:104DD00097F9010017F420D297F9010017F43AD29D
:104DE00056F82400C0F8649056F82400C0F80080FB
:104DF00056F824001822083005F14001FDF782F929
:104E000056F824107868486056F82400001D06F013
:104E10008BFC56F82400001D06F0BCFC351F012752
:104E2000287850B92F701348032110300CF0D6F9B0
:104E30006880002801DA0420A0E756F8240080F8F2
:104E40006C7056F82410002081F8000156F82410E8
:104E500081F8010156F8241081F8020156F8241057
:104E600081F803018AE70000CC438000492B000150
:104E7000592B00010C3901012DE9F04104461A4D6E
:104E800055F8240070300CF0DAFD82B21646002787
:104E90007AB155F8240090F80111012909D0802A2F
:104EA0000ED300F18001703080220CF0DDFD8026F1
:104EB0000BE055F8240080F800710020BDE8F08177
:104EC00000F1800170300CF0CFFD55F8240080F81F
:104ED000047155F82400324600F18001001D1CF4D5
:104EE000EFD50028EAD1E9E7CC43800070B502286D
:104EF00001D3082070BD0C4D55F820407CB194F8CA
:104F00006C6066B169B162B1002684F8026155F83F
:104F10002000001D1CF453D50028EBD170BD0520E6
:104F200070BD042070BD0000CC4380002DE9F0412D
:104F300006460C46174604F10805204670F43CD49A
:104F4000C3B21B48E1184268914202DD0320BDE86C
:104F5000F0811849184A006809681268891A081A05
:104F6000001FE91881421CD94FF4004513A22946BD
:104F7000002003F4C9F702F0F7FA30B118A229466D
:104F8000002003F4C1F70820E1E71DA22946002014
:104F900003F4BAF73A4621463046BDE8F0410EF038
:104FA00091BB3A4621463046BDE8F0410EF08ABB3F
:104FB000D8328000D0238000CC238000523A353A8A
:104FC0004E564453206172656120697320626569A1
:104FD0006E6720636F6D7061637465642E0D0A00E7
:104FE000523A353A436F6D70616374696E67204E53
:104FF000564453206661696C65640D0A0000000028
:10500000523A353A436F6D70616374696E67204E32
:10501000564453207375636365737366756C0D0A2C
:10502000000000007CB50D46002200920192694606
:1050300003F46CF7044634BB4FF42051684603F484
:1050400067F7B8B942F60101684603F461F788B919
:1050500042F60301684603F45BF758B942F60201D1
:10506000684603F455F728B94FF42451684603F411
:105070004FF708B1062406E00098C5F30B018088BD
:1050800008430099888020467CBD00002DE9F04748
:1050900082460E46174698464FF001090025D8F87B
:1050A0000040002C18D11E48046815E03188A08803
:1050B00081420BD3E088814204D82146504600F05B
:1050C00031F808B1246807E0012505E02146504683
:1050D00000F028F810B1246825B105E00125A0886A
:1050E0003080F9E7002CE1D1B5B14FF00009A0887C
:1050F0003188884204D1201D38600120387109E0D0
:10510000081A401E00EB400004EB40000E303860EF
:1051100000203871C8F800404846BDE8F08700001C
:10512000F80E800070B586B0002200EB4003114CF1
:1051300003EBC00304EB43052C7D17E035F8123078
:1051400093B18E889E420FD8CE889E420CD3CA88D7
:1051500089888DE81F00084B084A4021002003F48D
:10516000D3F6012006B070BD521CD2B29442E5D8ED
:105170000020F7E770E38000063D01010C450101C6
:105180002DE9F04F8BB007460C4600250020089013
:10519000099060880790261FE188A288CDE9012147
:1051A0000090614B61A24021002003F4ADF63088ED
:1051B00050B938460FF432D7401E30806088A1883D
:1051C000884200D800B90125DFF89091002D60D108
:1051D00004F10A000DF1200A0DF1140B04F1060888
:1051E0000A90A088069004A8CDE9020BCDE9008AB8
:1051F000022306AA07A9384600F0ACF905462800A4
:1052000008D00A2D45D0062D43D0BDF81800401C0B
:10521000079032E0E088B0F5205F03D042F601014C
:10522000884208D1BDF81000217AC3B2059A0A98C5
:1052300003F470F648B92289BDF81000824218D1F3
:1052400005990A98FCF789FF98B9022108202AF4E9
:105250003BD60146BDF81C008880BDF81800C88008
:10526000083E59F82700603003F456F6384603F438
:1052700055F6BDF81800401C0790A088BDF81C101A
:10528000884206D3BDF81810884202D0308804281E
:10529000A7D2062D36D059F82700603003F440F627
:1052A00040B300244FF6FF7101EA8006062000EBB0
:1052B000072307220421384600962DF4B5D1014674
:1052C0004E8059F82700006E0EE083880A1913718A
:1052D0001B0A5371A41CA4B2C3880A1913711B0AB8
:1052E0005371A41CA4B200680028EED1084603F450
:1052F00019F60AE021780A23BDF81C20384603F489
:1053000013F602E0BDF81C006080074B14A2402198
:105310000020009503F4F8F5062D03D000200BB013
:10532000BDE8F08F0120FAE7CE3C0101523A333A52
:105330005B25735D20656E7465722C2073683D304B
:105340007825782C2065683D307825782C20747974
:1053500070653D307825780A00000000C40E80009A
:10536000523A333A5B25735D20657869742C20735B
:1053700074617475733D307825780A002DE9F04F1B
:1053800085B081460E4648460FF448D6801E1FFA67
:1053900080FAD0460024B0887188CDE90010574BC0
:1053A00057A24021002003F4AFF57088B188DFF8E0
:1053B00074B1884211D880B17088049000200290A6
:1053C0000390019001AB02AA04A94846FFF75EFED4
:1053D0000546280003D00A2542E0012540E0B088B8
:1053E000BDF81010884232D3022118202AF46CD55F
:1053F0000746012000900023FA1DB91D02A803F4FE
:1054000095F50546280007D040F24E2346A22946CE
:10541000BDF8100003F48CF5BDF81000B88004B995
:10542000BC79B879A04203D038462AF4CDD317E02E
:105430005BF829003946603003F46EF5A8EB0400F0
:10544000801E1FFA80F8BDF81000401C0490B1883F
:10545000BDF81000814203D310B1A01C8045B1D229
:105460005BF82900006E18B1002018B19DB334E03C
:105470000120FAE70026AAEB08081FFA88F000903E
:10548000062000EB09230522042148462DF4CCD048
:105490000746022C08D00220787078884044788033
:1054A0005BF82900046E10E00120F5E7A188B81927
:1054B0008180B61CB6B2B819A279001DE11DFCF7B7
:1054C00021FEA079304486B22468002CEED1384603
:1054D00003F428F507E0FFE70A25728831782B46A8
:1054E000484603F421F5054B13A240210020009506
:1054F00003F40AF505B00020BDE8F08FB53C0101CA
:10550000523A333A5B25735D20656E7465722C20C8
:1055100073683D307825782C2065683D3078257893
:105520000A000000C40E8000617474735F706174BF
:1055300063682E6300000000523A333A5B25735DC6
:1055400020657869742C207374617475733D3078AC
:1055500025780A002DE9F04F87B08346DDF84490A6
:105560000C4615469A460026B4F80080002701979D
:1055700001AB4A4621465846FFF788FD10B12888FE
:10558000208026E02088298888421BD8002302AA90
:1055900006A94846009703F4C9F4014629B12088BA
:1055A00040F269131AA203F4C3F49DF8183002AA5A
:1055B0005146109803F4AEF408B1012602E02088A9
:1055C000401C20802EB920882988884201D80028D4
:1055D000CED16EB122884B460021584603F4AAF47E
:1055E000C6B22088494603F4A7F4288026B10AE011
:1055F0000A26A4F8008006E02188DDE91223584637
:1056000003F49CF4C6B207B03046BDE8F08F00004A
:10561000617474735F70617463682E6300000000CE
:105620002DE9F04105460C46FF26217A1E2905D0BA
:1056300022480279521E52B200683AE004F1080191
:10564000284603F47DF4064635E010F832308B42EC
:105650002DD11B4E56F82500406F30B300273B4636
:1056600018A24021002003F44FF4062000EB05208F
:105670002AF480D6C00605D5002717A240210020B5
:1056800003F442F421460C3956F82500743003F433
:1056900043F40020A08001266FB115A2402103F43D
:1056A00033F4284603F44EF405E00127D7E7521EF1
:1056B00052B2002AC9DA3046BDE8F0817C0580008C
:1056C000C40E8000523A333A657865637574653D5F
:1056D000307825780A000000523A333A636F6E6ED4
:1056E000656374206E6F742063666D0A00000000AD
:1056F000523A333A737461727420657865637574D5
:10570000650A00000348024901600D2141607047AD
:10571000143C01017C0580002DE9F04F8BB08246DE
:105720000C460026002009900A9060880890251FEA
:10573000B0462988A288CDE9012100906D4B6EA268
:105740004021002003F4E0F3288850B950460FF4BC
:1057500065D4801E28806088A188884200D800B95E
:105760000126714850F82A00006E10B1002111B1D5
:1057700003E00121FBE790F80680002E5DD104F1E3
:10578000080BA088079006A805A909AACDE9021070
:10579000CDE900B2A37907AA08A95046FFF7DAFEBF
:1057A0000646300049D1BDF81410884502D0B8F142
:1057B000000F42D12888001FFB22FB2800D310468F
:1057C000814200D2084687B2022107F10C002AF478
:1057D0007BD38146BDF81480BDF82000A9F80400F1
:1057E000BDF81C00A9F8060089F808703A4609F1CE
:1057F00009000699FCF786FC2888C01B001F28803A
:105800004948494650F82A00603003F485F3BDF852
:105810001400874202D1504603F480F3BDF81C0007
:10582000411C89B20891A2888A4206D3824204D0E0
:10583000298808F104008142A3D2062E48D03A4DAF
:1058400055F82A00603003F46BF3C0B3002755F815
:105850002A100C6E217A091D41431FFA81F8062097
:1058600000EB0A23112204215046CDF800802CF4CD
:10587000DBD60546A5F80280217A091D697018E07B
:10588000A188E8190171090A4171BF1CBAB2E18807
:10589000A8180171090A4171921C97B2E819227A7D
:1058A000001D04F10901FCF72DFC207A384487B271
:1058B0002468002CE4D1284603F434F30BE0FFE71E
:1058C00021783346BDF82020504603F42DF302E042
:1058D000BDF820006080074B14A2402100200096F4
:1058E00003F412F3062E03D000200BB0BDE8F08FB6
:1058F0000120FAE7953C0101523A333A5B25735D8A
:1059000020656E7465722C2073683D307825782C84
:105910002065683D307825782C2072655F6C656E57
:105920003D307825780A0000C40E8000523A333AA0
:105930005B25735D20657869742C207374617475C0
:10594000733D307825780A002DE9F04F8BB0824600
:105950000C460026002009900A9060880890251FB8
:10596000B046A188694BCDE9000169A24021002021
:1059700003F4CAF2288850B950460FF44FD3801E62
:1059800028806088A188884200D800B9012669482B
:1059900050F82A00016E11B1002010B103E001207F
:1059A000FBE791F80680EEBB04F1080BA088079096
:1059B00006A805AA09A9CDE90220CDE900B1A3797D
:1059C00007AA08A95046FFF7C5FD0646300047D193
:1059D000BDF81410884502D0B8F1000F40D12888D6
:1059E000801EFD22FD2800D31046814200D20846C9
:1059F00087B2022107F108002AF466D28146BDF879
:105A00001480BDF82000A9F8040089F806703A4611
:105A100009F107000699FCF775FB2888C01B801E5A
:105A2000288000E01CE04348494650F82A006030D6
:105A300003F472F2BDF81400874202D1504603F419
:105A40006DF2BDF81C00411C89B20891A2888A42FF
:105A500006D3824204D0298808F102008142A5D2EF
:105A6000062E40D0334D55F82A00603003F458F22A
:105A700080B3002755F82A100C6EA179891C414388
:105A80001FFA81F8062000EB0A2309220421504660
:105A9000CDF800802CF4C8D50546A5F80280A17980
:105AA000891C697010E0A188E8190171090A417127
:105AB000BF1CBFB2E819A279001DE11DFCF722FB53
:105AC000A079384487B22468002CECD1284603F42E
:105AD00029F20BE0FFE721783346BDF8202050463D
:105AE00003F422F202E0BDF820006080074B12A20E
:105AF00040210020009603F407F2062E03D0002078
:105B00000BB0BDE8F08F0120FAE70000EA3C01018C
:105B1000523A333A5B25735D20656E7465722C20B2
:105B200073683D307825782C2065683D307825787D
:105B30000A000000C40E8000523A333A5B25735DC0
:105B400020657869742C207374617475733D3078A6
:105B500025780A002DE9FF5F81460F460024A24602
:105B6000CDF808A0CDF80CA0584850F829006030B6
:105B700003F4D6F180463D1F79882888544BCDE93F
:105B8000001054A24021002003F4BEF12888E8BB95
:105B900048460FF443D2401E2880002611E007EB50
:105BA000460002AB82880021484603F4C3F1C4B228
:105BB000CDF808A0CDF80CA00CB1B0463BE0761CA7
:105BC000B6B27888B042EAD835E007EB48006B46B9
:105BD000818801AA484603F4B1F1C4B23CBBBDF8C8
:105BE00004002988884200D3084686B2022106F1C3
:105BF00008002AF469D18346ABF8046032460BF101
:105C000006000099FCF77EFA304800E013E050F8F7
:105C100029005946603003F47FF1484603F47EF1D1
:105C20002888801B288008F101081FFA88F8CDF821
:105C300008A0CDF80CA07888404503D9288808B181
:105C4000002CC2D044BB48460FF4E8D12988401A42
:105C5000401E86B20025062000EB09230F220421F6
:105C6000484600962CF4E0D48246AAF80260174811
:105C700050F82900066E0AE00AEB0500B288001D04
:105C8000B11DFCF73FFAB088284485B23668002E73
:105C9000F2D1504603F446F14CB1062C07D007EB85
:105CA0004800397882882346484603F43DF1084B82
:105CB00014A240210020009403F426F1062C03D006
:105CC000002004B0BDE8F09F0120FAE7C40E800078
:105CD0007C3C0101523A333A5B25735D20656E745A
:105CE00065722C206E625F68616E646C653D307811
:105CF00025782C2072655F6C656E3D307825780ABA
:105D000000000000523A333A5B25735D20657869E4
:105D1000742C207374617475733D307825780A0093
:105D200010B500210A4C0023002001EB410202EBD8
:105D3000C10204EB420222F81030401CC0B20A2813
:105D4000F9D31375491CC9B20A29EDD310BD00005F
:105D500070E3800008B58DF8000000208DF8010088
:105D6000074A88889288904209D105208DF8010061
:105D7000886800788DF80200684600F07FF808BD5A
:105D8000709D800008B58DF8000000208DF801009E
:105D9000002910D1506808490088898888420AD1B2
:105DA00005208DF801005068806800788DF80200A9
:105DB000684600F063F808BD709D800008B58DF856
:105DC000000000208DF801000648C088904203D1F1
:105DD00031B104208DF80100684600F04FF808BD8D
:105DE0000320F7E7709D80001CB501910649C98822
:105DF000002906D001AA00920223002200F074FCC0
:105E00001CBD04201CBD0000709D800004498988D1
:105E1000002902D0002200F047BC04207047000097
:105E2000709D8000002821D0028800F10801B2F5A1
:105E3000A06F0AD0A2F5A062053A0CD0012A10D0BA
:105E4000022A13D10079FFF785BF83780A460079CB
:105E5000194600F0A7B883780A4600791946FFF77B
:105E600091BF028981780079FFF7A8BF70470000D1
:105E7000014900F02ABC00007C4580000449C96843
:105E8000002903D04278002A00D00847704700005C
:105E9000709D800010B586B004466178012912D04B
:105EA00003292DD005290CD1A0781BA14FF48772AE
:105EB000CDE9002102901D4B1DA223A10220FEF777
:105EC00063FB06B010BD22A04FF48271CDE9001033
:105ED000164B17A21CA10220FEF756FB207801F0FA
:105EE000F5FE0446002CECD014221049143101A810
:105EF000FCF708F9ADF8084001A8FDF721FEE0E73E
:105F00001DA04FF48571CDE90010084B08A20EA129
:105F10000220FEF739FBD4E7426174746572792080
:105F20004C6576656C3A202564252500FC39010115
:105F30002E2E5C5372635C757365725C757365724B
:105F40005F6170702E6300004E4F5F544147000048
:105F50004261747465727920536572766963652055
:105F6000646973636F7665727920636F6D706C65B9
:105F700074656C792E00000042617474657279203A
:105F80004C6576656C204E6F7469666963617469EF
:105F90006F6E20686164206265656E207365742E83
:105FA000000000002DE9F8438DF800004FF0020CCE
:105FB0008DF801C0572932D071BB5078917840EAF2
:105FC0000120A0F5C0510F3926D11F4E578A3780C6
:105FD000918A71800020A1EB070818E000EB4001D6
:105FE00001EBC005946903230CEB450103EB45036A
:105FF000615CE35C41EA0323411C394489B214F833
:106000001540032C0DD0042C11D014B1401C804538
:10601000E4D801208DF801006846FFF72FFFBDE8A6
:10602000F883A3F52854193CF0D1B180EEE7A3F52D
:106030002454023C05D0A3F52454043CE6D131811C
:10604000E4E7F180E2E70000709D8000002809D0BD
:10605000054900220A604A608A60C8600349044812
:1060600000F0FABA02207047709D8000255E0001A2
:106070007C4580001FB50F4890F80201002818D019
:1060800068464EF457D1DDE900010B4CCDE9020121
:10609000E1680844094920F07040486008464EF421
:1060A000DFD3607818B1BDE81F400BF0FDBD0BF0E9
:1060B00017FE1FBDC01A80002C498000B41A800052
:1060C00008F0ACBB10B58CB008A80CF0A9FDBDF869
:1060D000221009989DF82120CDE904109DF8203068
:1060E0003CA04FF4FD71CDE90232CDE90010434BE5
:1060F00043A249A10220FEF747FA0AA85FF458D745
:10610000044654B114223D49103103A8FBF7FAFFAD
:10611000ADF8104003A8FDF713FD9DF828009DF889
:106120002910CDE906109DF82A209DF82B30CDE9E5
:1061300004329DF82C109DF82D0039A240F2FF1377
:10614000CDE90032CDE902012C4B2DA232A1022073
:10615000FEF71AFA3DA040F20621CDE90010274BC8
:1061600027A22DA10220FEF70FFA4348FFF76EFF8A
:10617000044654B114222149243103A8FBF7C2FF7D
:10618000ADF8104003A8FDF7DBFC3C4801F052FFDE
:10619000044654B114221949383103A8FBF7B2FF61
:1061A000ADF8104003A8FDF7CBFC354806F07CFDA8
:1061B000044654B1142211494C3103A8FBF7A2FF45
:1061C000ADF8104003A8FDF7BBFC03F015F80CB0C8
:1061D00010BD0000476F6F64697820424C45205322
:1061E000444B205625642E25642E25642028636F99
:1061F0006D6D697420257829000000009C3A01012A
:106200002E2E5C5372635C757365725C7573657278
:106210005F6170702E6300004E4F5F544147000075
:106220004C6F63616C20426F61726420253032587C
:106230003A253032583A253032583A253032583AD9
:10624000253032583A253032582E000048656172A8
:1062500074205261746520536572766963652043CA
:106260006C69656E74206578616D706C65207374FF
:1062700061727465642E0000955E0001F17C00017E
:1062800021CA00012DE9F04105468846284669F4F7
:1062900057D7C0B22449097888420DD200EB40009C
:1062A000213040F400404246AC210AF0A7FA0446EF
:1062B000200032D0012430E069F486D7C7B207EB62
:1062C000470606F1200040F400402A4607210AF064
:1062D00095FA10B10120BDE8F081384676F4C4D0BB
:1062E00006F1210040F400404246AC210AF086FA53
:1062F0000446200001D00120EDE7223646F400409C
:106300000AF0D2F80949C7EBC700096808442968B0
:106310000160A9888180A97981711CB9414628460C
:10632000FDF752FA2046D6E7382380003C23800050
:106330000020704710B50BF02DFD0BF07DFD0BF02C
:10634000C7FC0BF04BF90CF087FE00F093FD0BF04F
:106350008FFD00F0DDFCBDE8104000F0BFBC0BF08D
:10636000C1B810B507F0FCFD08F086FB07F008FE89
:1063700008F018FA07F068FE07F09EF9FFF7C2F977
:1063800003F0A2FF0BF008FE0CF0FEF9BDE8104090
:10639000FFF7C6BC10B5FFF7E2FF054903480860E8
:1063A000BDE81040034875F4D192000017B880048E
:1063B00074C500A00087930310B50446002C0CD0D0
:1063C000204600F0EDF9002807D10449496800296A
:1063D00003D02046BDE81040084710BD00478000AC
:1063E0003EB50446608800281ED1204600F022FBFE
:1063F000208840F20132A0F20131904230D014DC0A
:10640000A0F500700B381BD001280DD1207A002890
:106410000AD126A04FF4EA71CDE90010274B28A23B
:106420002DA10320FEF7B0F83EBD012927D0052994
:10643000FAD1207903B00121BDE8304060F4B49373
:1064400060880028F0D026A140F2CD12CDE90021CD
:1064500002901A4B1AA220A10320FEF795F83EBD28
:1064600060880028FBD126A04FF4EF71CDE9001021
:10647000124B13A218A10320FEF786F83EBD6088D8
:106480000028FBD1207A21A140F2E512CDE90021BC
:1064900002900A4B0AA210A10320FEF775F8217A98
:1064A000207903B0BDE83040FDF734BB5363616E23
:1064B0002054696D656F75742E0000008C3A0101DF
:1064C0002E2E5C5372635C757365725C75736572B6
:1064D0005F6170702E6300004E4F5F5441470000B3
:1064E0005363616E207374617274656420666169C0
:1064F0006C656428305825303258292E0000000081
:10650000436F6E6E65637465642E00004469736347
:106510006F6E6E656374656420283078253032585C
:10652000292E00002DE9F04782460D460026EFF3A4
:1065300011883148027831480068C0F30221491CB3
:10654000012088401044C0B280F3118869F4CED68F
:1065500081462DB12A4F97F8A50018B10F2637E0D4
:10656000022635E0D7F8AC0030B90021382065F4B8
:10657000BBD1C7F8AC00D8B3D7F8AC40382120461F
:10658000FBF7D9FD87F8A7A028782070607840F045
:10659000010060702889A0816889E081A889208233
:1065A000E8896082288A60801020A080E080E879F5
:1065B00000F00100E871D5F801002063B5F805008E
:1065C000A086E87984F836000021062069F4EAD72D
:1065D00033460CA21021002002F496F4484669F4D8
:1065E0004FD608F0FF0080F311883046BDE8F087F1
:1065F000FFE71026ECE7000002E400E00CED00E00D
:106600007C278000523A313A636F6E6E6563742C5A
:1066100020737461747573203D2025640A000000A6
:106620000A2805D2034A002152F8200080F88F1072
:1066300070470000C40E800070B504460D46204629
:106640000BF068FC002805D129462046BDE87040C3
:1066500062F4B09470BD000038B504460D460020C9
:106660000090002C06D069460D485FF45DD280B2E0
:1066700010B110E0022038BD142075F4EFD30146AC
:1066800059B105CCC1E90102CD609DF80000087444
:10669000044807F087F8002038BD102038BD0000FE
:1066A000083C0101A047800070B504460D4616461F
:1066B00020460BF02FFC002806D132462946204602
:1066C000BDE8704063F4D29170BD70B504460D46CC
:1066D00020460BF01FFC002805D129462046BDE8C6
:1066E000704063F4B19270BD2DE9F8430546089CF3
:1066F0000E461746984628460BF00CFC002806D19B
:1067000043463A4631462846009463F4FBD2BDE83E
:10671000F883000000B58BB0094901200870FF2202
:10672000282101A8FBF700FD4FF48070ADF80400AC
:106730000020ADF8060001A8FFF73EFE0BB000BD3B
:106740000047800010B506480068002800D0804748
:10675000FEF79CDF08B1012010BD002010BD000035
:106760008049800010B540F4404009F09DFE10BD06
:1067700010B540F440400AF041F810BD04490160F2
:1067800004494160044981600449C16070470000C8
:1067900041C2060015C2060071670001656700016D
:1067A00070B50446002C1FD04FF6FF73194622889F
:1067B00040F20155A2F201504FF48076AA424CD02B
:1067C0001BDC40F20245A2F20240AA4234D00DDCAA
:1067D000A2F54072013A25D0012A23D0FF2A29D000
:1067E000B2422ED121892CE0002070BD012825D095
:1067F000022825D0FE2824D12AE004282DD006DC4A
:1068000001282AD0022828D003281AD125E00528FB
:1068100023D0062821D0B04213D1204603F006FC35
:10682000002070BD204604F035F8204603F0AEFE8F
:10683000002070BD218904E0218902E0618900E027
:10684000218A99420ED0204604F034F8012070BD10
:10685000204603F02FFF002070BD204603F0A6FE67
:10686000002070BD002070BD10B508F0C7FA09F017
:1068700079FB08F0D9FE03F02BF803F003F9BDE82B
:1068800010400BF0EDBA00002DE9F04706460C462B
:10689000002E4DD0002C4BD0EC212046FBF74BFCBA
:1068A00030782070707C6073D6F80200C4F806005F
:1068B000F0886081307A20733648D6F80210016083
:1068C000F1888180317A81710020F56996F81A800B
:1068D000012704F1240929E0411C285CC9B20028E1
:1068E00026D0401E00F0FF0A481CC6B2685C06288D
:1068F00048D006DC062810D2DFE800F00F1C343444
:106900003C3C092822D004DC07283BD0082804D1CD
:106910001CE0192812D0FF281ED0A91904F1700319
:10692000524600F079F906EB0A00C0B24045D3D3D5
:10693000BDE8F087A85DA0736770F4E7A919A85DAA
:10694000497840EA01202082A770ECE7A81960612D
:10695000A4F818A0E770E6E7A819E061A4F820A061
:106960002771E0E7A8194B460222514600F078F95A
:106970006771D8E7A8194B460422514600F070F918
:106980006771D0E7A8194B461022514600F068F90C
:106990006771C8E7E19780000349496A002902D07E
:1069A000002800D008477047D497800010B586B003
:1069B0000178042913D006290FD1007906F01EF8BA
:1069C0000446002C09D014220B4901A8FBF79AFBBE
:1069D000ADF8084001A8FDF7B3F806B010BD07A058
:1069E0005521CDE90010044B0AA21B3B0FA1022048
:1069F000FDF7CAFDF1E7000070390101466F756EC1
:106A00006420746172676574206465766963652EBD
:106A1000000000002E2E5C5372635C757365725C1F
:106A2000757365725F6170702E6300004E4F5F5426
:106A300041470000002813D00188A1F500710B39EF
:106A40000ED0012906D0022907D0F62908D10079F5
:106A500009F0BABF007A09F0C9BF083009F076BF63
:106A600070470000024988700120087070470000DC
:106A7000FC9780002DE9F04105460C46002020607F
:106A80002F4F4FF0010697F82900C00709D0288B37
:106A90003A8E904205D1F96A6869FBF75EFB00B94E
:106AA000267097F82900800704D5288AB98E884275
:106AB00000D1667097F82900400707D5204805F1F6
:106AC0002401383000F050F800B1A67097F8290082
:106AD000000707D51A480722A91D4030FBF73DFBE8
:106AE00000B9E67097F82A00012814D097F8290019
:106AF000C10701D02178D1B1810701D56178C1B139
:106B0000410701D5A178B1B1000701D5E078A0B166
:106B10000120BDE8F081207828B9607818B9A07804
:106B200008B9E07808B10120F3E70020F1E7002080
:106B3000EFE70020EDE70020EBE70020E9E70000A9
:106B4000D497800010B50024002909D0054A82F8A6
:106B5000290004481C222C30FBF7D4FA204610BD33
:106B6000012010BDD497800070B505460C46A8885A
:106B700002280ED1002609E004EB4601091D02227D
:106B80002868FBF7EAFA40B1761CF6B22078B042EA
:106B9000F2D8A888042802D010E0012070BD002699
:106BA00009E004EB8601203104222868FBF7D5FABE
:106BB00040B1761CF6B26078B042F2D8A8881028AE
:106BC00002D010E0012070BD002609E004EB0611A0
:106BD0003C3110222868FBF7C0FA30B1761CF6B2BF
:106BE000A078B042F2D8002070BD012070BD000036
:106BF00010B500280BD0014628220648FBF782FA80
:106C00000449BDE81040891C002061F45394012020
:106C100010BD0000D497800010B51C7804EB44042C
:106C200003EB84042071A160A2811878401C1870C5
:106C300010BD000000B5BDB007484179002906D05D
:106C400001218DF80410016A09B101A8884761F497
:106C5000A5D43DB000BD0000D497800061F4E49459
:106C60002DE9F0410746884616461D46002F32D0D2
:106C7000002D30D000242CE0022E06D0042E11D09E
:106C8000102E28D1A87820BB19E028780E2820D211
:106C9000411C2970391905EB400009888180A41C2A
:106CA000E4B216E06878072813D2411C69703919DC
:106CB00005EB400009684160241DE4B209E00120B1
:106CC000A87005F13C0039191022FBF71BFA1034AB
:106CD000E4B24445D0D3BDE8F081000010B52321D3
:106CE00009480AF031FB0A2108480AF027FB032172
:106CF000064850300AF01CFBFFF733FB0520FFF776
:106D0000DFF9FFF7B1FD10BD0C4180002442800087
:106D100004490348086005490348086070470000BB
:106D2000B18B00010C228000ED8D00011822800043
:106D300070B50026150A0E4805EB450200EB02145B
:106D4000098821800120A0702846FFF769FC0020F7
:106D500069F496D20748016829B10B681BB12288F3
:106D600000212846984769F4C1D2304670BD000022
:106D7000D42E8000B82280003EB500241D0A0A7877
:106D8000122A02D0132A04D006E000208DF8000059
:106D900002E001208DF800008888ADF804004888E2
:106DA000ADF80200891D0291002069F469D20B48F8
:106DB000016829B18A691AB169462846904708E0F6
:106DC0009DF80000012804D1BDF804102846FFF703
:106DD00033FC69F48BD220463EBD0000B422800013
:106DE0000148007870470000984980007CB50E4645
:106DF000150A0020009001906946284673F4BED21F
:106E00009DF806206946284603F020F90446CCB1D7
:106E100063F4BCD0C0B163F4B9D0C01C81B2328875
:106E2000002320466DF49AD4694628460BF0F0F80A
:106E300040B106A24021002002F466F021466846D7
:106E40005EF402D600207CBD0020E7E7523A333AD8
:106E50007361766520636363640A00007CB5DDE9D5
:106E60000654CDE9005466F4BDD6BDE87C400AF076
:106E7000F3B9000002490148086070475D6E0001E7
:106E80004823800010B588B0044667F439D100204B
:106E9000079007A854F4E0D70798FFF76FFC206825
:106EA000019060680290A0680390E0680490208AD6
:106EB000ADF81400608AADF81600A08AADF818008D
:106EC000E08AADF81A0001A854F4F0D754F4D0D7F2
:106ED0000348016801614168416108B010BD0000CC
:106EE000300100B010B58AB00446FF222821684660
:106EF000FBF71AF940F20271ADF800100021ADF86D
:106F000002108DF804406846FFF756FA0AB010BD2B
:106F100030B58568027B002D02D0002001210CE0F5
:106F2000104630BDCB0801F00704EB5CE340DB0703
:106F300001D0401CC0B2491CC9B28A42F2D830BD4F
:106F400000230849496808E0CA88824204D80A89AF
:106F5000824201D3CB6802E009680029F4D11846C7
:106F6000704700009847800001460548406803E0EC
:106F700002798A4202D000680028F9D170470000E7
:106F80009847800070B5104E3078FFF7EDFF04464B
:106F9000200006D0206963F4DDD20546280002D027
:106FA0000DE00C2070BD2069FFF7B2FF014620699B
:106FB00002681288E28000680088084420813078E6
:106FC000401C3070E8B270BD9847800070B5194819
:106FD0000468194D2878002801D0002070BD4FF0BA
:106FE000806072F485D000F4A1F5600872F490D747
:106FF000124908608817114901262C390860104988
:107000007006C1F8FC01C8674FF03041086B40F0D2
:1070100007000863094C303C206840F4E020206001
:1070200000F4C6F52E70206820F4E02020600120D6
:1070300070BD00006C2480007849800070C500A0FD
:1070400084E000E070B50024EFF31086012080F3A7
:10705000108800F4C8F5104D28B102242968B9B190
:107060000220884714E0FFF76DFB20B1296879B151
:10707000002088470CE0FFF7A9FF28B10224296807
:1070800031B10220884703E0296809B10020884710
:1070900086F31088204670BD5C24800010B5084A35
:1070A0001378002B01D00F2010BD31B1506004487F
:1070B000243000F007F8002010BD022010BD0000B1
:1070C000004780002DE9FC4705460C46FFF732F9E2
:1070D00069F40CD107463648006800B1804735494D
:1070E00001200BF073FB344902200BF06FFB0120F1
:1070F000FBF700F8A08E81B2206B02F03BFADFF8BC
:10710000BC90DFF8BC80E16999F8000098F8002095
:107110000244B1FBF2F1CEB216FB00F1A06965F4B6
:1071200045D1286863F4D4D468685FF4E1D3286952
:1071300067F480D0A86861F479D6E86861F41ED756
:1071400020484CF4A7D220484CF4AAD21F484CF453
:10715000ADD21F4854F4D6D61E484CF451D21E4826
:107160004CF454D21D484CF457D21D4865F4F2D06B
:107170004FF0806071F4BCD72046FFF783FED4E95E
:107180000A01CDE9000199F80010A06916FB010081
:1071900098F8001016FB01F1D4E90823114C24687B
:1071A000A047384669F46CD0BDE8FC4765F4B69159
:1071B0008026800039380600DD37060029D5070013
:1071C0002AD50700119F0700B9C3060065C4060051
:1071D000EDAF070025ED060045ED060065ED060064
:1071E000799B070048238000034900EB800001EBF6
:1071F0008000808870470000FC478000034A00EB55
:10720000800002EB8000818070470000FC47800016
:1072100010B500F065F800F047F8BDE8104000F048
:1072200001B8000000B58FB003228DF800204FF4A4
:107230008050019005218DF8081001208DF809007B
:1072400000238DF80A308DF80C20430304938DF849
:1072500014108DF815008DF816008DF81820C30352
:1072600007938DF820108DF821008DF822208DF8DD
:10727000242082030A928DF82C108DF82D00022212
:107280008DF82E2004238DF830300D928DF83810B3
:107290008DF839008DF83A30024A6846FDF79CF8BF
:1072A0000FB000BDF14200017CB51026009602240B
:1072B0008DF804408DF8054007258DF80650694685
:1072C0000320FCF7FDFD00968DF804408DF8054085
:1072D0008DF8065069460520FCF7F2FD7CBD0000E4
:1072E00000B587B000F01EF803208DF800001D20C7
:1072F0008DF8160001208DF817008DF818008DF814
:107300001900044A04496846FDF712F9FCF79EFB90
:1073100007B000BD1D730001757300010020FDF76B
:107320008DBC00001CB5114800904FF4806401949E
:1073300000F58060002101704FF4E1320264032205
:1073400042648164C1640165012141650274CB021C
:1073500043610223437401760271846043710173B7
:107360006A460349FDF7FEFC1CBD0000409080000A
:10737000492200010A4601464FF47A730020FDF7C6
:10738000B5BD000030B5A3B004460D46802103A86A
:10739000FAF7D1FE31A04FF49A72CDE90020354BB7
:1073A00035A23BA10220FDF7EFF8227832B1012A85
:1073B00010D0022A1AD0FE2A2FD123E036A040F2A4
:1073C0003912CDE900202B4B2BA231A10220FDF771
:1073D000DBF822E033A040F23D11CDE90010254B4F
:1073E00025A22BA10220FDF7CFF816E030A04FF424
:1073F000A071CDE900101F4B1FA225A10220FDF7AF
:10740000C3F80AE02EA04FF4A271CDE90010194B89
:1074100019A21FA10220FDF7B7F8AA1EA11C03A8FC
:10742000FAF770FE607829A140F24B12CDE90021F5
:107430000290104B10A216A10220FDF7A5F82CA176
:107440004FF4A672CDE9002103A80290094B0AA2CD
:107450000FA10220FDF798F823B030BD49454545FE
:107460002031313037332D323036303120434552E0
:1074700054000000343A01012E2E5C5372635C7597
:107480007365725C757365725F6170702E63000066
:107490004E4F5F5441470000454D505420424F44E9
:1074A000590000004945454520424F44590000001D
:1074B000434F4E54494E554120424F44590000001D
:1074C00045585020424F44590000000041757468EF
:1074D0006F726974617469766520426F64792053B4
:1074E00074727563747572653A305825303278005D
:1074F000417574686F726974617469766520426F52
:10750000647920446174613A257300000E4910F1DA
:10751000210F06DA086820F4704040F440500860FB
:10752000704710F11D0206D3086820F4704040F443
:107530008040086070470A28FCDD086820F470402D
:1075400040F4A0400860704724C500A010B50AF0C0
:1075500035FC09F02DFE0BF095FB00F035FBBDE886
:1075600010400AF099BB00002DE9F04F87B07B482E
:10757000D0F8009000240025A24600260BF074FDF0
:1075800077480168C9F800104068C9F804007548D8
:1075900000680830059009F108000690042203A94C
:1075A000059800F0DDFABDF80C10A1F57F40FF381A
:1075B00043D0082203A9059800F0D2FABDF80E00C6
:1075C0006EF4FAD000F0FF08BDF80C00002867D078
:1075D0000698A9EB000707F58057BDF80E1008F1D3
:1075E000080083460844B84263D805AB082203A9C3
:1075F00006A800F0EBF8BDF80E00002300EB08022F
:1076000005A906A809F07EFE641CBDF80E005844CA
:10761000B842C3D10020CDE9006053464A46214616
:1076200028460BF065FF002826D18246002600245C
:10763000CDF818906D1CEDB2B0E70020CDE90060E8
:1076400053464A46214628460BF052FF002813D1E4
:107650006D1CECB2434D4FF48057434E08E0286850
:1076600000EB0430394603F0D7FC40B1641CE4B2AF
:10767000707AA042F3D8002007B0BDE8F08F3B48F5
:107680008169407A40F27C42CDE900200291384B7A
:1076900038A24FF40041002001F436F40920EBE752
:1076A000BDF80E00059908F108080844404405900B
:1076B00074E7082F29D305AB082203A906A800F018
:1076C00085F8083F2FB100233A4605A906A809F01E
:1076D00019FE611C0020CDE9006053464A46284649
:1076E0000BF006FF0028C7D18246BDF80E004044CB
:1076F000C61B0024CDF818906D1CEDB20023324655
:1077000005A906A809F0FEFD48E705AB3A4603A91E
:1077100006A800F05BF8611C03A8CDE900605346A1
:107720004A4628460BF0E4FE0028A5D1C7F1080A16
:10773000BDF80E0000EB08060024CDF818906D1C73
:10774000EDB20123524605A906A809F0DBFD00238E
:10775000324605A906A809F0D5FD1FE7704680004E
:10776000ACD50700CC238000D8328000641F800095
:10777000D23B0101523A353A25732C204C25642026
:10778000666C61736820737461746520307825308D
:1077900032582C206572726F72203078253038583C
:1077A0000D0A00000221B0FBF1F2FF2A04D8B0FB61
:1077B000F1F201FB12022AB1491CC9B24029F2D3ED
:1077C00000207047B0FBF1F0C0B2704770B50446BE
:1077D00015461E462A462068FAF794FC306828446D
:1077E000306020682844206070BD000010B5054856
:1077F000017B491C0173002072F4F8D1BDE81040F0
:1078000000F050B8A44780002DE9FE43FEF7A7FD25
:107810001E48016821F4003101601C4E083E3068AA
:107820001B4980B2084330601A4803C8CDE9000103
:1078300016482C380068C82100F007001DF8000029
:1078400010FB01F514480768144CD4F80080384642
:10785000414603F027FB62686068831AAB42FBD3A2
:107860004146384603F0FEFA09F00CFD02909DF8FF
:10787000080028B19DF80800094948618861C8617D
:10788000306820F07F403060BDE8FE8330C500A046
:1078900000008F11207B0001FCED00E0001000E0F3
:1078A000A44780002DE9FC412D4E306820F07F4038
:1078B00040F0885030602B4803C8CDE900012848CB
:1078C0002438006800F007011DF80100C82110FBF2
:1078D00001F525480768254CD4F800803846414614
:1078E00003F0E0FA62686368981AA842FBD3414645
:1078F000384603F0B7FA002509F0C4FC0446DFF867
:107900007080D8F81800844201D9012700E00027D0
:1079100072F412D040B91FB1D8F81800201A02E052
:10792000D8F81800001BC5B2D8F81800C8F8200015
:10793000B5EB900F03D8292C01D8112C02D200F0FE
:1079400019F807E000EBC00020440A21B0FBF1F079
:10795000C8F81800306820F07F403060BDE8FC8136
:1079600028C500A0207B0001FCED00E0001000E035
:10797000A44780002DE9F04F87B00020069008242E
:10798000DFF890811A20C8F8140063480168634A40
:1079900089B21143016005A8FBF784F80220FBF7C8
:1079A00089F8DFF8749109F10809D9F8000020F48A
:1079B0007C3040F42030C9F8000059A003C8CDE95C
:1079C0000201DFF854A1AAF1240ADAF8000002A9A2
:1079D00000F00700085CC82110FB01F5DFF848B192
:1079E000DBF800000190514F3E680198314603F0EA
:1079F00059FA78687968091AA942FBD33146019887
:107A000003F030FA09F03EFC04909DF81010D8F80D
:107A10001400814204D99DF81020811C8A4263D948
:107A20009DF81010814204D29DF81020811E8A42D8
:107A30005AD29DF81010814201D9012500E000259D
:107A400015B1641C64B201E0641E64B2202C11D331
:107A5000D9F8000020F47C3040F42030C9F8000050
:107A6000D8F83C00401CC8F83C00002004900120DD
:107A7000069039E0D9F8000020F47C3040EA043068
:107A800040F40030C9F8000025A003C8CDE9020188
:107A9000DAF8000002A900F00700085C642110FB7E
:107AA00001F6DBF80000019038680090DDE9001075
:107AB00003F0F8F978687968091AB142FBD3DDE977
:107AC000001003F0CFF909F0DDFB049035B19DF80B
:107AD0001000D8F814108842B2D805E09DF81000C4
