:020000040100F9
:1020000000000430ED210001773E00010141800015
:10201000753E0001FD210001F144000100000000B7
:1020200000000000000000000000000015418000DA
:10203000FF21000100000000AD3E00012944000125
:1020400000F002F800F0C2F80AA090E8000C824408
:102050008344AAF10107DA4501D100F0B7F8AFF2E5
:10206000090EBAE80F0013F0010F18BFFB1A43F076
:1020700001031847C4A4000014A500000A444FF04F
:10208000000C10F8013B13F0070408BF10F8014BD7
:102090001D1108BF10F8015B641E05D010F8016B1C
:1020A000641E01F8016BF9D113F0080F1EBF10F880
:1020B000014BAD1C0C1B09D16D1E58BF01F801CBA3
:1020C000FAD505E014F8016B01F8016B6D1EF9D526
:1020D0009142D6D370470000103A24BF78C878C127
:1020E000FAD8520724BF30C830C144BF04680C601E
:1020F000704700000023002400250026103A28BF66
:1021000078C1FBD8520728BF30C148BF0B60704769
:102110006E2900F01084702900F0B581662909F05D
:102120008587652909F08287672909F07F876129FA
:1021300009F07E8703681B0A28BF41F080016929E6
:1021400000F02681642900F02381752900F02081A8
:102150006F2900F01085782900F08181E92900F0CD
:10216000AB84E42900F0A884F52900F0A584EF29C8
:1021700000F00D85F82900F080810368DB0928BF95
:1021800041F08001632900F01A84732900F01F8454
:10219000E32901F0E380F32901F0E8800020704793
:1021A0001FB509F039FF01F011F9040000200021EA
:1021B00009F034FA401C60600020002109F018FA90
:1021C000E06000F03BFB1FBD10B510BDDFF80CD088
:1021D000FFF7E6FF06F0BAFB01F0AEF900000430AD
:1021E00003B4FFF7F1FF03BC02F06DFA014880472A
:1021F00001480047C1440001318D0001FEE7FEE7C0
:1022000058585247010000001555000000200001F9
:10221000002000016EED52490101000000000000A5
:1022200000000000000000000000000000000000AE
:10223000000000000000000000000000000000009E
:102240007CB51D4616460C00009001D02044401E6F
:10225000074B7B442A4669460190304600F085FBD7
:1022600005461CB10020694600F092FB28467CBD63
:10227000450700000FB4044910B503AA029800F006
:10228000ABFB10BC5DF814FBEC6700300FB41CB561
:10229000084B06AA7B4469460090059800F065FB50
:1022A00004460020694600F073FB20461CBC5DF824
:1022B00014FB0000F90600000FB47CB50C0009AA5D
:1022C000009001D02044401E084B7B446946019099
:1022D000089800F04AFB05461CB10020694600F052
:1022E00057FB28467CBC5DF814FB0000CD060000BF
:1022F00070B5044685690068C10601D5302600E046
:102300002026C00707D070BDD4E901213046904790
:10231000206A401C20626D1EF6D570BD70B5044663
:1023200085690078C00707D170BDD4E9012120205C
:102330009047206A401C20626D1EF6D570BD70B5B6
:102340000C460546012A05D02878800600D5EA69A2
:10235000002302E0012305E05B1C934202D2E05C13
:102360000028F9D1A869E618C01AA861286A18449B
:1023700028622846FFF7BCFF04E0D5E9012114F8E4
:10238000010B9047B442F8D32846FFF7C7FF70BD52
:102390002DE9F0410646002410687529314616A53E
:1023A00010D000F05DFA002802DA404213A507E0E1
:1023B00031688A0701D512A502E0490704D511A5A5
:1023C000012401E000F055FA00210A2206F1240759
:1023D00009E0B0FBF2FCB0FBF2F302FB1C00303072
:1023E00078541846491C0028F3D123462A46304623
:1023F000BDE8F04100F046BA000000002D000000EA
:102400002B00000020000000F0B40D4601880905F3
:1024100002D5214C7C4402E01F4C7C440E34002148
:1024200000F1240608E002F00F071209E75D42EA16
:1024300003721B097754491C52EA0307F3D102784F
:102440000023120704D5702D06D009B102231134E0
:102450002246F0BC00F016BA01231034F8E770B53C
:1024600004460D462146106800F003FA024629464C
:102470002046BDE870400023C6E7D21D22F00703C6
:10248000D3E90023C0E70368126843F02003036028
:102490000823C3610023B7E7A09F00002DE9F05F88
:1024A000894604464FF0000ADFF874B1FB44C0F8D7
:1024B00020A02046E1688847002874D0252806D04F
:1024C000D4E901219047206A401C2062F1E70026F0
:1024D0005F462046E16888472028054607DB312D06
:1024E00005D2781910F8200C08B10643F1E7B007BF
:1024F00001D526F00406C4F81CA00027C4F818A0D3
:102500002A2D09D0284602F0D7F838B304EB870803
:10251000303DC8F8185019E059F8041B204604EB68
:1025200087029161E1688847012F054618D1E0696B
:10253000002820DA26F020061DE0D8F8180000EB6D
:10254000800005EB40003038C8F818002046E168EC
:102550008847054602F0B0F80028EED1012F0AD0D6
:102560002E2D08D12046E16888477F1C0546022FA2
:1025700046F02006C4DBA069002803DA404246F09A
:102580000106A061F00701D026F010066C2D0BD0DB
:10259000682D09D04C2D39D06A2D35D0742D35D009
:1025A0007A2D33D016E038E0E1682F462046884780
:1025B000B842054609D16C2F26D04FF48060E168FF
:1025C000064320468847054604E06C2F1AD04FF496
:1025D000807006430DB3A5F14100192802D82035BB
:1025E00046F400664A462946204626604E46FFF7D6
:1025F0008FFD80B101280BD0F61D26F0070000F1F9
:10260000080956E74020E4E78020D8E70020D6E715
:1026100006F104094DE7284652E7206ABDE8F09F1D
:10262000309F000040EA010310B59B070FD1042A38
:102630000DD310C808C9121F9C42F8D020BA19BA8D
:10264000884201D9012010BD4FF0FF3010BD1AB1F2
:10265000D30703D0521C07E0002010BD10F8013B47
:1026600011F8014B1B1B07D110F8013B11F8014B6E
:102670001B1B01D1921EF1D1184610BD10B5431C91
:1026800002E010F8011B71B18107FAD14FF001325D
:1026900002C88C1A8C4314EAC211F9D0C01A0A0677
:1026A00003D0C01E10BDC01A10BD0A0401D0801E88
:1026B00010BD0902FCD0401E10BD032A40F230803C
:1026C00010F0030C00F0158011F8013BBCF1020F73
:1026D000624498BF11F801CB00F8013B38BF11F8F4
:1026E000013BA2F1040298BF00F801CB38BF00F80B
:1026F000013B11F0030300F02580083AC0F0088088
:1027000051F8043B083A51F804CBA0E80810F5E76B
:10271000121D5CBF51F8043B40F8043BAFF300804E
:10272000D20724BF11F8013B11F801CB48BF11F8C3
:10273000012B24BF00F8013B00F801CB48BF00F893
:10274000012B704710B5203AC0F00B80B1E818504B
:10275000203AA0E81850B1E81850A0E81850BFF48B
:10276000F5AF5FEA027C24BFB1E81850A0E818502A
:1027700044BF18C918C0BDE810405FEA827C24BF7E
:1027800051F8043B40F8043B08BF7047D20728BF0C
:1027900031F8023B48BF11F8012B28BF20F8023B5B
:1027A00048BF00F8012B70474FF000020429C0F029
:1027B000128010F0030C00F01B80CCF1040CBCF173
:1027C000020F18BF00F8012BA8BF20F8022BA1EBC5
:1027D0000C0100F00DB85FEAC17C24BF00F8012BAA
:1027E00000F8012B48BF00F8012B70474FF00002A2
:1027F00000B5134694469646203922BFA0E80C50F7
:10280000A0E80C50B1F12001BFF4F7AF090728BFD1
:10281000A0E80C5048BF0CC05DF804EB890028BF4D
:1028200040F8042B08BF704748BF20F8022B11F076
:10283000804F18BF00F8012B7047000070B5064CA0
:102840007C44064D7D4403E0206820448047241DDD
:10285000AC42F9D170BD0000709E0000709E000077
:1028600009684A0501D540B27047C905FCD500B2D8
:10287000704709684A0501D5C0B27047C905FCD543
:1028800080B270472DE9F0470D46994692460446BE
:1028900000F124080168880604D5E06921F01001E0
:1028A000216000E00120A84201DD471B00E0002775
:1028B000A1697A1902EB0900081AA0612078C00604
:1028C00002D42046FFF714FD002608E0D4E90121D8
:1028D0001AF806009047206A401C761C20624E457C
:1028E000F4DB2078C0060AD52046FFF701FD06E09C
:1028F000D4E9012130209047206A401C2062381E14
:10290000A7F10107F4DC07E0D4E9012118F805007C
:102910009047206A401C2062281EA5F10105F3DCC7
:102920002046FFF7FBFC2078000602D50220BDE818
:10293000F0870120FBE711680268006A530501D5A2
:1029400008700AE0D30501D5088006E0130603D518
:10295000C217C1E9000200E00860012070470000D2
:1029600001694A1C02610878704700B58FB0CDE953
:1029700001310021059105497944CDE90310114643
:102980006846FFF78BFD0FB000BD0000E5FFFFFFBD
:102990000A6802F8010B0A607047D1E900239A42E5
:1029A00002D2531C0B601070704710B5436913B10D
:1029B000AFF3008001E0FFF7C2FC012010BD1278E8
:1029C00000F124010A7000224A700122EDE711682B
:1029D0004FF0FF32E9E70000074B70B50D467B442E
:1029E000FFF7C3FF0446284600F0C4FC10B14FF0C7
:1029F000FF3070BD204670BD533A00002DE9FF5FE7
:102A000015468A460446DFF8AC80F8440027D8E92A
:102A100000103E46CDE9001010E03AF816106A4664
:102A200002A800F0ABFC411C07D02178890603D531
:102A3000E269391891420DD80744761C2078800647
:102A400002D5E069B84205DDAE42E6DB3AF8160091
:102A50000028E2D1A069C01BA0612046FFF748FC16
:102A6000D8E90010CDE90010002017E03AF818105E
:102A70006A4602A800F082FCB0F1FF3F81460BD00D
:102A800000250DF1080B05E0D4E901211BF8050034
:102A900090476D1C4D45F7D308F10100B0428046C8
:102AA000E4DB206A384420622046FFF737FCBDE8AB
:102AB000FF9F0000E69900002DE9F0418046D21DFD
:102AC00022F007020025D2E90002F52915A614D04C
:102AD000011E72F1000106DA0023D0EB030063EB64
:102AE000020211A608E0D8F800108B0701D50FA646
:102AF00002E0490701D50EA601251146002408F180
:102B0000240704E000F04EF830323A55641C50EAD5
:102B10000102F7D12B46324621464046BDE8F0413E
:102B2000FFF7B0BE000000002D0000002B000000E9
:102B30002000000030B4002100F1240408E002F07D
:102B40000705D208303542EA4372DB086554491C58
:102B500052EA0305F3D10468002310A2250707D524
:102B6000A40600D421B1C46901230DA2641EC4616E
:102B700030BCFFF787BE10B5044621461068FFF74A
:102B800078FE02462046BDE810400023D2E7D21D61
:102B900022F00701D1E90023CCE70000000000008B
:102BA0003000000030B5B0F10A024FEA900E71F12A
:102BB00000034EEA817EB0EB0E0061EB91014FEA1B
:102BC000101E4EEA017E10EB0E0041EB11114FEA90
:102BD000102E4EEA016E10EB0E0041EB11214FEA70
:102BE000104E4EEA014E10EB0E0041EB1141401821
:102BF00041F100014FEAD00040EA41704FEAD101B3
:102C000010EB80054FEA810444EA907444EB010420
:102C10006D1944EB0404521BA3414FF0000348BF5D
:102C20000A3200D530BD401C41F1000130BD704773
:102C30002DE9FF4F0C461E464FF0FF378BB0D2E90F
:102C40000001DDF860800A908A46C1F30A5505B993
:102C50003D46002108464FF00000BAF1000F00F495
:102C6000400005DA00EB80004FF4400101EA50001B
:102C70004FEA9059B9F1010F00DDB9460A9850EAC0
:102C80004A000ED044F61050A5F2FF3545432F14EC
:102C9000B8F1000F1ED07542291E1EDDC9F10002D9
:102CA0001CE0B8F1010F4FF0000001D0302103E02B
:102CB000F24305E02154401CB042FBDB30460022C9
:102CC000002121540B99C1F80880C1E900200FB000
:102CD000BDE8F08FBD1B6D1CDEE74A4600DA694295
:102CE00006A800F0B7FB06AB93E8070003AB83E848
:102CF000070050460A9900F069FC8DE80700A0F52E
:102D000000501F3800900398002D0ADD42F21F0189
:102D10004A460844002303A90390684600F0D2FE07
:102D200009E0A0F500504A461F38002303A903908C
:102D3000684600F0DCFE8DE807000004000C03D0BC
:102D40004FF0FF30410800E01046B8F1000F03D00B
:102D50000022009215461EE0751E05D4FFF722FFE3
:102D6000303262556D1EF9D5B3460122084302D0B8
:102D700000227F1C04E02078302801D100227F1E31
:102D8000002A099784D01DE0112D07DAFFF70AFF0A
:102D9000303262556D1C50EA0102F5D1084302D071
:102DA0000098C8B10EE00021681E05E0235C625C5B
:102DB00063542254401E491C8142F7DBAB46A81BDA
:102DC000401E0990002004F80B000B98099AC0F8E7
:102DD0000880C0E9002B7AE711264FF0000857E77A
:102DE0002DE9F04F88460446D21D22F0070191B02C
:102DF000D1E90001CDE90A0101F07BFB02460B9805
:102E0000C00F01D02D2007E02068810701D52B20BD
:102E100002E0202101EAC000032A099001D0072A1C
:102E200005DB03464146204600F0D4FA0BE120784A
:102E3000800601D5E06900E00620B8F1650F814603
:102E400006D0B8F1660F18D0B8F1670F70D131E035
:102E50000020B9F1110F009001DB112301E009F10D
:102E600001030AAA01A90CA8FFF7E2FEDDE90C7034
:102E7000002609F10105834647E001204B460090FA
:102E80004FF000470AAA01A90CA8FFF7D1FEDDE91F
:102E90000DB00C995D46002610B909F101000D181E
:102EA000B9EB050003D4C0F1FF3609F10105A5EB2C
:102EB00009002BE0B9F1010F01DA4FF00109002000
:102EC000B9F1110F0090484601DD112300E00346DF
:102ED0000AAA01A90CA8FFF7ABFEDDE90C704D466C
:102EE00000268346207800070AD4AB4500DA5D4609
:102EF00001A8012D04DD411911F8011C302907D06A
:102F00004F4502DA17F1040F04DA012082460FE080
:102F10006D1EEEE7002F02DCED1B3E4403E0781C43
:102F2000A84200DD7D1CB81B00F1010A4FF00047EC
:102F30002078000703D4AA4501DB4FF0FF3A0021B7
:102F4000B7F1004F0DF143088DF8431024D0022053
:102F50002B23002F01DA7F422D230A21021EA0F12C
:102F6000010000DC5FB197FBF1FC97FBF1F201FB84
:102F70001C7C17460CF1300C08F801CDEEE7A8F1E7
:102F8000010003702188090501D5452100E0652174
:102F9000A0F1010800F8011C09980FA9A1EB08078E
:102FA000FF1D00B10120411901EBEA70A16938440D
:102FB000081A401EA0612078C00602D42046FFF700
:102FC00097F9099828B1D4E901219047206A401C5B
:102FD00020622078C00622D52046FFF789F91EE03E
:102FE000002E04DBB34502DD01A8805D00E0302047
:102FF000D4E901219047206A401C2062761CAAF186
:1030000001005FEA000A0AD100F0E0F9C068016837
:10301000405CD4E901219047206A401C2062281EB0
:10302000A5F10105DCDC07E0D4E9012118F8010B6A
:103030009047206A401C2062381EA7F10107F3DC8C
:103040002046FFF76BF9032011B041E62DE9F04F60
:1030500004460D46D21D22F0070089B0D0E9009742
:103060004846394601F045FA0246F80F01D02D23B3
:1030700007E02068810701D52B2302E0202101EA27
:10308000C0038DF820300BB1012000E00020032A9E
:10309000824601D0072A04DB2946204600F09AF92F
:1030A0003FE12078800601D40D2500E0E569C7F3F3
:1030B0000A560D2D49DA00214FEA175B08464FF0FA
:1030C0000000002F00F4400007DA00EB80004FF40E
:1030D000400100EBD07001EA60008115012901DD9B
:1030E0004FF0FF3100224FEA850CBCF1180F06D3D8
:1030F0001346ACF118004FF08052C24003E04FF489
:10310000801323FA0CF30CF10C0CBCF1200F04D348
:10311000ACF1200C09FA0CF001E007FA0CF00029E0
:103120004FF0004801DD18B90FE00ED140450CD337
:1031300019EB02095F4121B9404502D19F4329EAB9
:103140000209BBEB175F00D0761C2088000502D572
:103150007B48784402E07A487844193808AA30233A
:1031600002F80A30037C0AF10101002E0AF1020A7A
:1031700053546A4602DC4FF0300101E04FF0310158
:103180004FF001088DF8001002D0A6F2FF3603E0E0
:1031900059EA470100D06B4E002D02DC2178090767
:1031A00004D54FF002082E218DF80110C4460021ED
:1031B0000BE0C7F303433F01C35C491C6D1E02F8DB
:1031C0000830052908F1010801DA002DF1DC0021A1
:1031D0000CE000EB1973491C1B786D1E082902F8DE
:1031E00008304FEA091908F1010801DA002DF0DC76
:1031F00021688B0602D516E0A8F10108E04505DD3F
:1032000002EB080313F8013C302BF5D0B8F1000FA6
:1032100009DD02EB080313F8013C2E2B03D109074B
:1032200001D4A8F10108002D05DD3E2102F80810A7
:103230006D1E08F10108407C002E02F8080008F11C
:10324000010804DA2D20764202F8080002E02B2063
:1032500002F808000A214FF47A70864208F101084A
:103260000BDB96FBF0F3303302F8083096FBF0F3FB
:1032700008F1010800FB136601E0642E0CDB6420FA
:1032800096FBF0F3303302F8083096FBF0F308F1C8
:10329000010800FB136601E00A2E06DB96FBF1F045
:1032A000303002F8080008F1010896FBF1F001FB4C
:1032B0001060303002F80800A16908F1010808EB3D
:1032C000050202EB0A00081AA0612078C00602D4A9
:1032D0002046FFF70DF8216A08AE01EB0A002062D4
:1032E00004E0D4E9012116F8010B9047BAF1010A74
:1032F000F7D22078C00602D52046FEF7F9FF6E46C9
:1033000009E016F8010B3E280FD0D4E901219047BF
:10331000206A401C2062B8F10108F2D22046FEF774
:10332000FDFF09B00320BDE8F08F206A2844206229
:1033300003E0D4E90121302090476D1EEBD3F8E77C
:10334000B992000002FCFFFF10B5436913B1AFF35F
:10335000008001E0FFF752FB012010BD128800F150
:10336000240182840022C2840122EDE711684FF01B
:10337000FF32E9E7007B00F08000704770B5164629
:103380000C46054600F01AF8036893F8010101287D
:1033900006D0FF2C0FD8185D68B101202C7070BDCD
:1033A000D3F807013246214603F2071303442846A7
:1033B000BDE8704018474FF0FF3070BD10B500F009
:1033C00005F8001D10BD00BF558200000048704781
:1033D000587E00302DE9F0411F460446032601685F
:1033E000072A01F4006004DB08B116A505E016A564
:1033F00003E008B115A500E015A521F0100020603C
:10340000A069C01EA0610FB1401EA0612046FEF75A
:103410006FFF4FB1D4E9012138469047206A401C24
:103420002062C01C206206E0206AFAE7D4E901218C
:1034300015F8010B9047761EF8D22046FEF76EFF76
:10344000BDE8F0814E414E006E616E00494E46006F
:10345000696E66002DE9F047814616468AB0354808
:1034600078440DC88DE80D0032487844801C03ACC8
:103470000DC884E80D0041F69B300844372190FBCD
:10348000F1F290FBF1F5A5F1800501FB12041B3C64
:1034900002D56442012000E00020DFF898A08046B9
:1034A0000027FA44AAF1BE0A0EE0E0070AD032462D
:1034B000684607EB470101230AEB810100F017FB87
:1034C0008DE8070064107F1C002CEED1194F7F445B
:1034D000AE3F19E0E80715D007EB04100DF1180A0C
:1034E00090E80E008AE80E00C068F04201D19819F9
:1034F00008903246012306A903A800F0F8FA03ABAE
:1035000083E807006D10641C002DE3D14FF0010328
:1035100032466946B8F1000F03A802D000F0D2FA93
:1035200001E000F0E4FAC9E90001C9F808200AB096
:10353000BDE8F0873C90000010B50446AFF3008072
:103540002046BDE81040FEF74BBE00004FF0013CA6
:1035500050F8042B51F8043B9A4221D1A2EB0C0302
:10356000934313EACC1317D150F8042B51F8043BC2
:103570009A4215D1A2EB0C03934313EACC130BD15F
:1035800050F8042B51F8043B9A4209D1A2EB0C03EA
:10359000934313EACC13DBD04FF00000704700BF19
:1035A000D01A01BAB1FA81F101F0180122FA01F042
:1035B000CB40C1F12001DBB2C0B2C01A2CFA01F33A
:1035C000D11A914311EAC311E6D170475FEA400C6A
:1035D00008BF91F0000F4FEA8C234FEAC12243EA63
:1035E00051514FEA1C5018BF00F5F0404FEA30002F
:1035F00018BF41F000415FEA6C5C00F02980BCF12B
:10360000FF3F08BF40F080407047130C06BF120414
:103610004FF0100C4FF0000C130E04BF12020CF10F
:10362000080C130F04BF12010CF1040C930F04BF1C
:1036300092000CF1020CD30F04BF52000CF1010CEC
:1036400011464FF00002A0F11F00A0EB0C007047E4
:1036500011F0004F08BF704731F000413FF4D5AF83
:103660000B0C06BF09044FF0100C4FF0000C0B0EB2
:1036700004BF09020CF1080C0B0F04BF09010CF187
:10368000040C8B0F04BF89000CF1020CCB0F04BF9C
:1036900049000CF1010CCCF12003A0EB0C0022FA44
:1036A00003F302FA0CF241EA030100F10100704752
:1036B00020F07F4C80EA030023F07F47ACEB070348
:1036C00003F57C5300F0004003F1FF032DE980492E
:1036D0004FEA154B09B44FEA144325EA0B4E24EA8E
:1036E00003480FF2042606EB132749083E785FEAE9
:1036F000320203FB0667C7F5000707FB06F64FEA31
:1037000054374FEAD64606F1020607FB066CCCF1A9
:10371000005C4FEA1C472CEA074C07FB06F40CFB45
:1037200006F504EB15464FEA961634BF00204FF01D
:1037300000404FEAD13706FB07FC4FEA1C4C0CFB5C
:103740000BF7D21B03FB0CF761EB07010CFB0EF729
:10375000B0EB074072EB17420CFB08F734BFA2EB4B
:103760000742B2EB074261EB17414FEA0C444FEAC4
:10377000910706FB07FC4FEA1C4C0CFB0BF7B0EB68
:10378000C74072EB573203FB0CF734BFA2EBC742C2
:10379000B2EBC74261EB57310CFB0EF7B0EBC70041
:1037A00072EB57720CFB08F734BFA2EBC702B2EB07
:1037B000C70261EB5771039F4FEA816141EA9211A1
:1037C00004EBCC044FEAD1374FEA826206FB07FCD8
:1037D00042EA90124FEA80604FEA1C4C0CFB0BF758
:1037E000D21B03FB0CF761EB07010CFB0EF7B0EBF0
:1037F000074072EB17420CFB08F734BFA2EB0742FD
:10380000B2EB074261EB17414FEA8C554FEA910743
:1038100004EB9C2406FB07FC4FEA1C4C0CFB0BF74B
:10382000B0EBC74072EB573203FB0CF734BFA2EB8F
:10383000C742B2EBC74261EB57310CFB0EF7B0EB5E
:10384000C70072EB57720CFB08F734BFA2EBC7023C
:10385000B2EBC70261EB577115EB4C254FEA816162
:1038600041EA92114FEA82624FEAD13742EA90125E
:1038700006FB07FC44F100044FEA80604FEA1C4C51
:103880000CFB0BF7D21B03FB0CF761EB07010CFBE6
:103890000EF7B0EB074072EB17420CFB08F734BF92
:1038A000A2EB0742B2EB074261EB174115EB1C1587
:1038B0004FEA813141EA92414FEA823242EA904234
:1038C0004FEA80304FEA0C7644F1000448EA0343A3
:1038D0004EEA0B484FF0000EB2EB080C71EB0307F9
:1038E00024BF624639464EEB0E0E4FF0000B001817
:1038F000524149414BEB0B0BB2EB080C71EB030748
:103900007BF1000B24BF624639464EEB0E0E4FF0A2
:10391000000B0018524149414BEB0B0BB2EB080C6A
:1039200071EB03077BF1000B24BF624639464EEB77
:103930000E0E51EA020718BF46F0010616EB0E768E
:1039400055F1000254F1000103D5BDE88901BDE83D
:103950000088BDE88901BDE80048B619524141EB35
:103960000101A3F10103704780807F7E7D7C7B7A1B
:103970007978777676757473727171706F6E6E6D1B
:103980006C6C6B6A6A6968686766666564646363C1
:1039900062616160605F5F5E5E5D5D5C5C5B5B5A47
:1039A0005A595958585757565655555554545353B4
:1039B00052525251515050504F4F4F4E4E4D4D4D0F
:1039C0004C4C4C4B4B4B4A4A4A494949484848475A
:1039D0004747474646464545454444444443434398
:1039E0004342424242414141002B9C4630D4770041
:1039F0002BD01CB54FEA370703B44FF010004FF03F
:103A00001001BAF1000F06D0BCF1000FDCBF40F08E
:103A1000080040F008014FF000000FBCBDE8104066
:103A20000BF1010BBBF1010F08BF5FEA170722BFC3
:103A300012F1010211F101014FF0004143F10003C5
:103A400000F0004043EA00007047F9D35708D0E780
:103A500046EA064613F1400F4FEA16461FDD13F102
:103A6000200FDFBF16430A46002120335B42BED041
:103A7000C3F1200746EA064602FA07F74FEA164660
:103A800046EA0706C3F1200722FA03F201FA07F714
:103A900021FA03F14FF0000342EA0702A7E746EAE2
:103AA000020646EA06464FEA164646EA0106BCBF4B
:103AB00046EA0646360C4FF000034FF000024FF086
:103AC000000194E72DE9804C9A46934670B491E842
:103AD000380007C831EA400C48BF34EA430C03D52C
:103AE000FFF7E6FDFFF780FFF0BCBDE8008C2DE995
:103AF000804C9A46934670B491E8380007C810F09D
:103B0000804F08BF13F0804F03D100F005F8FFF796
:103B10006BFFF0BCBDE8008C20F07F4780EA03001B
:103B200023F07F4C07EB0C03A3F57C5300F000401F
:103B3000A3F1FE0392F0000F00F0B38095F0000FA8
:103B400000F077802DE901494FEA11404FEA144611
:103B500021EA004800FB06FC24EA064708FB06F6BB
:103B600007FB08F800FB07F718EB06484CEB164C70
:103B70004FEA124B18EB07484FEA15464CEB17403B
:103B800022EA0B4E0BFB06FC25EA06470EFB06F667
:103B900007FB0EFE0BFB07F71EEB064E4CEB164C1D
:103BA0004FF000061EEB074E4CEB174B18EB0B08C3
:103BB00040F1000018EB0E0B58EB000840F100003C
:103BC0008F1A4FF000013CBFC943661B14BFB5EB11
:103BD000040C00213CBFC943F61B4FEA17444EEAD0
:103BE0008E0E27EA04454FEA1C4704FB07622CEAC5
:103BF000074C05FB07F70CFB05F604FB0CFC16EB6A
:103C0000074642EB174216EB0C4642EB1C421BEBFD
:103C1000060658EB0202414146EA9E0601D5BDE880
:103C20000189B619524141EB0101A3F10103BDE83D
:103C300001894FEA14454FEA114724EA054621EA73
:103C4000074C05FB07F406FB07F70CFB06F105FB29
:103C50000CFC11EB074144EB17444FEA124711EB00
:103C60000C4144EB1C4422EA074C05FB07F206FB1F
:103C700007F70CFB06F605FB0CFC16EB074642EBC0
:103C8000174216EB0C4642EB1C456A1854F1000132
:103C900048BF7047B619524141EB0101A3F101033E
:103CA000704795F0000F37D04FEA11424FEA1447A2
:103CB00021EA024624EA074C02FB07F106FB07F75C
:103CC0000CFB06F402FB0CFC14EB074441EB174120
:103CD0004FEA154714EB0C4441EB1C4125EA074C15
:103CE00002FB07F506FB07F70CFB06F602FB0CFCD4
:103CF00016EB074645EB174516EB0C4645EB1C4209
:103D0000121951F1000148BF7047B619524141EBF9
:103D10000101A3F1010370474FEA14454FEA11472F
:103D200024EA054621EA074C05FB07F106FB07F7E5
:103D30000CFB06F24FF0000605FB0CFC12EB0742F1
:103D400041EB174112EB0C4251EB1C4148BF70474D
:103D5000921841EB0101A3F10103704710B51E4811
:103D60000068002800D080471C4800210170881E90
:103D70001B490860192000F0EEFB1A4CD4F8C00271
:103D8000800704D4F42218A11CA002F4BFF32A482F
:103D90000168D4F8C40261F31D3040F00100C4F89A
:103DA000C40201F415F700214FF03040C160816179
:103DB000C1174161016201F4C7F609484038016842
:103DC00021F4800101601D480068002802D0BDE890
:103DD0001040004710BD000060248000F46A0030ED
:103DE00044C500A000E000A0727769705F736C6545
:103DF00065705F636F6D6D6F6E2E63004D43555F31
:103E00005355422D3E424C455F44534C4545505F0F
:103E1000434F52525F454E2026204D43555F535528
:103E2000425F424C455F44534C4545505F434F52BF
:103E3000525F48575F454E00542480006424800040
:103E400010B500214FF03040C1608161C117416160
:103E50000162022000F09DFBBDE81040012000F04F
:103E600098BB10B5012000F076FBBDE810400120A2
:103E700000F08FBBFEE7FEE730B500F00703C3F1AB
:103E80000704082C00D9082403F10800072801D2F0
:103E9000002300E05B1C012505FA04F0401E0840E9
:103EA00098409D406D1E1540284330BDFEE7000040
:103EB0002DE9FC41334841690069CDE9000106F074
:103EC00081FB044630480078BF2823D004DC0B284F
:103ED0000DD085282DD10AE0C2280FD0C82828D1BE
:103EE000A00526D524F4007006F0A2FB21E0A00571
:103EF0001FD524F4007006F09BFB1AE0600618D56D
:103F000006F036FB04F0BF0180B241EA002006F063
:103F10008FFB0EE006F02CFB81070AD520F0020093
:103F20004FF6FF72E1B202EA00200143084606F0B4
:103F30007FFB02258DF80450134C383460680090E4
:103F400007268DF8066001278DF8057020786946F0
:103F500000F04AFD8DF80450206900908DF806604D
:103F60008DF80570207B694600F03EFD2078012227
:103F7000616800F0F7FD207B0122216900F0F2FD6D
:103F8000BDE8FC8148C10001FC6700307CB52F48CA
:103F9000C1688068CDE9000106F014FB04462C4896
:103FA0000078BF2823D004DC0B280DD085282DD124
:103FB0000AE0C2280FD0C82828D1A00526D444F48E
:103FC000007006F035FB21E0A0051FD444F400701A
:103FD00006F02EFB1AE0600618D406F0C9FA81B28A
:103FE00044F0400061F31F2006F022FB0EE006F0D3
:103FF000BFFA81070AD440F002004FF6FF72E1B227
:1040000002EA00200143084606F012FB03268DF861
:1040100004600F4C38346068009060788DF80600BA
:1040200001258DF805502078694600F0DDFC8DF8FB
:10403000046020690090607B8DF806008DF80550C3
:10404000207B694600F0D0FC7CBD000048C1000127
:10405000FC67003030B589B004460D4624220B4978
:104060006846FEF76FFB019400F0ECF8084C002066
:104070006070201D2A460078694601F065F8607876
:104080000028FCD000F0F8F809B030BDB4C200013F
:10409000FC67003070B58AB004460E4615462422EF
:1040A000094901A8FEF74EFB02940995074C002030
:1040B000A070201D3246007801A900F0FDFFA07815
:1040C0000028FCD00AB070BD48C20001FC67003077
:1040D00070B58AB004460E4615462422094901A847
:1040E000FEF730FB02940995074C0020A070201DBC
:1040F0003246007801A900F0DFFFA0780028FCD04C
:104100000AB070BDB8C10001FC67003010B58AB0BC
:1041100024220E496846FEF715FB0D4C0020A070C6
:10412000201D09AA0078694600F0C6FFA078002883
:10413000FCD09DF824009DF82510000400EB012020
:104140009DF826100AB0084410BD000090C200017E
:10415000FC6700302DE9FC4111A000680190114C72
:10416000002565700126271D00964FF4E028387859
:1041700001AB4246002101F065F860780028FCD0D0
:104180009920019065700096387801AB4246002175
:1041900001F058F860780028FCD0BDE8FC810000F0
:1041A00066000000FC6700301CB520218DF804106B
:1041B000010C8DF80510010A8DF806108DF8070026
:1041C00000F040F8094C0020607004200090201D91
:1041D00001AB00784FF4E022002101F033F8607861
:1041E0000028FCD000F048F81CBD0000FC6700303F
:1041F00010B506F0E7F904461148017844F2FC10C6
:104200000B290BD0852909D0C2290DD0C82916D178
:1042100024EA0000BDE8104006F00ABA24EA0000D3
:10422000BDE8104006F004BA06F0A2F904F003015C
:1042300080B241EA0020BDE8104006F0F9B910BD97
:10424000FC6700301CB50AA000680190094C0020F2
:10425000607001200090201D01AB00784FF4E02237
:10426000002100F0EFFF60780028FCD01CBD0000AA
:1042700006000000FC67003010B506F0A3F9C00787
:10428000FBD110BD1CB50AA000680190094C0020AC
:10429000607001200090201D01AB00784FF4E022F7
:1042A000002100F0CFFF60780028FCD01CBD00008A
:1042B000AB000000FC6700302DE9FF41334803C824
:1042C000CDE90201324C0125606D022816D0002094
:1042D000E06530492E4801F07FF888B12EA04FF4F8
:1042E000A471CDE90010294B39A260333DA1002013
:1042F00000F0B0FC012004B0BDE8F081E565E8E71E
:10430000234800F073FF68B138A040F24F11CDE9A7
:1043100000101E4B2EA2603332A1002000F09AFC48
:104320000120E8E702278DF80C70343460680290B1
:1043300007268DF80E608DF80D50207802A900F048
:1043400053FB8DF80C70206902908DF80E608DF88B
:104350000D50207B02A900F047FB20780122616804
:1043600000F000FC207B0122216900F0FBFBFFF73D
:10437000F1FEFFF787FFFFF7C9FE054C000C241F75
:104380002070FFF735FF2078B5E7000048C1000135
:1043900000680030195000015153504920696E697E
:1043A0007469616C206661696C65642120506C657C
:1043B00061736520636865636B2074686520696E4E
:1043C00070757420706172616D656E74732E00007B
:1043D0002E2E5C5372635C7370695F666C617368E8
:1043E0002E6300004E4F5F54414700005153504927
:1043F00020696E697469616C20646D612066616911
:104400006C65642120506C65617365206368656329
:104410006B2074686520696E7075742070617261BC
:104420006D656E74732E0000FEE700000249096896
:1044300001F007010170704704C500A030B40628E0
:1044400021D212490A6802F00702824212D00A6899
:104450000F4B1A400F4C22430A6000BF00BF00BF41
:1044600000BF0A681A400C4B024333F8203042EA7E
:1044700083420A600849183951F8200007498860CA
:1044800030BC74F4B79530BC7047000004C500A080
:10449000F8FFE3FF0500080054C00001006600308B
:1044A00004480068044900F0070051F8200003495F
:1044B0008860704704C500A03CC000010066003061
:1044C0000248016841F470010160704788ED00E026
:1044D00002480068001D1DF4BF900000CC6700304A
:1044E00002484068001D1DF4B7900000CC67003002
:1044F000FEE703B401984100009850EAC12018BFBC
:1045000004204A0D18BF40F0010040F2FF72B2EBE8
:10451000515F08BF40F00200012808BF052002B02B
:104520007047002809DB00F01F020121914040097B
:10453000800000F1E020C0F880127047002809DBFD
:1045400000F01F02012191404009800000F1E020AD
:10455000C0F880127047002809DB00F01F0201211B
:1045600091404009800000F1E020C0F880127047BF
:1045700000280DDB00F01F0201219140400980005E
:1045800000F1E020C0F88011BFF34F8FBFF36F8FB1
:10459000704700280DDB00F01F0201219140400907
:1045A000800000F1E020C0F88011BFF34F8FBFF30F
:1045B0006F8F7047002809DB00F01F020121914036
:1045C0004009800000F1E020C0F800117047002889
:1045D0000FDB4109890001F1E021D1F8001200F060
:1045E0001F0201209040014201D0012070470020AD
:1045F00070470020704700280FDB4109890001F156
:10460000E021D1F8001200F01F0201209040014289
:1046100001D001207047002070470020704700281B
:104620000FDB4109890001F1E021D1F8001200F00F
:104630001F0201209040014201D00120704700205C
:10464000704700207047002804DB00F1E02090F85C
:104650000004704700F00F0000F1E02090F8140D06
:104660007047000002480068C0F302207047000055
:104670000CED00E0002809DB00F01F020121914051
:104680004009800000F1E020C0F800127047C9B274
:10469000002804DB00F1E02080F80014704700F0EF
:1046A0000F0000F1E02080F8141D7047EFF3108038
:1046B000704780F31088704730380A2801D20120F3
:1046C00070470020704770472DE9F05F0746894624
:1046D00093464FEA5B04A2464D465F4EDFF87C816D
:1046E000EFF31080012181F31088D8F8A41221F093
:1046F0002001C8F8A41280F31088EFF31080012184
:1047000081F31088D8F8A01221F02001C8F8A01277
:1047100080F31088306820F080403060504830606E
:104720003F20D8F8001160F30501C8F80011306887
:1047300020F4601040EAC7403060306820F4E02088
:1047400040EA07403060052F03D1306840F4004054
:104750003060062F03D1306840F48040306030680C
:1047600040F400503060306820F0605030603068B5
:1047700020F00F0040F003003060EFF310800121C3
:1047800081F31088344A3832116821F0E04141F059
:104790008041116080F31088306840F080403060C4
:1047A00001E0D8F80000D8F80401C0F30020002888
:1047B000F7D1EFF31080012181F31088116841F0E7
:1047C0000041116080F3108834E000204FF47A71CA
:1047D0001AE0884217D9306820F080403060306895
:1047E00040F000403060306820F00040306003F05E
:1047F0000DFE1C480168491C016054464D460520C9
:1048000077F4FDD16CE7401CD8F80421C2F30022F4
:10481000002ADED0D8F8040100F07F01A14200D9BF
:104820002146002003E0D8F8002004C5401C88423F
:10483000F9D3641A002CC8D15FEACB7008D0D8F83D
:104840000401C0F300200028F9D0D8F80000288027
:10485000BDE8F05F03F0DABD08C500A000E000A0ED
:104860000A070807086B00300449896B08400449AF
:104870000A78104300220A7070470000002001A04F
:10488000EC6800300C4900280BDC0868C0F34120BC
:10489000012805D0086820F4C06040F4007008606A
:1048A00070470A28FCDB086810F4C06FF8D008686D
:1048B00020F4C060086070470CC500A0014876F481
:1048C000DB970000F0670030082801D30020704714
:1048D00000EB4001044800EB4110017809B1001DD4
:1048E0007047002070470000547100302DE9F047F8
:1048F0000546894600244FF0FF3846464FF0010A2E
:10490000002D16D03349032005F02AFE287990B1F6
:10491000012810D002280ED003280CD004280AD079
:10492000052808D0062806D0072804D04046BDE850
:10493000F087E520FBE7EFF31082012181F3108877
:10494000254F04EB440107EB41110B7813B10B79B0
:1049500083420DD104EB440007EB401090F82D008A
:10496000022803D026B20120087004E0082402E0E7
:10497000641C082CE5D382F31088082C23D2002273
:104980000321164804F03EFF04EB440107EB4114F9
:104990002879207104F10800242205F10801FDF7AF
:1049A000D1FE0F4860630F48E06300202064C4F824
:1049B0005C90032017F430D4032017F44BD4201D4F
:1049C00001F0F0FF8246BAF1000F00D046463046B3
:1049D000ADE700001D418000547100306CC0000143
:1049E000C56100014D61000170B58EB005460C46F1
:1049F000564901F164004DC8CDE90A02CDE90C36F3
:104A0000D1E91E23486F06AED1F880100DC609917A
:104A100014224E49843101A8FDF794FEACB14C49F3
:104A2000062005F09DFD4B49072005F099FD4A49F8
:104A3000122005F095FD4549444A2C31062D7CD2C3
:104A4000DFE805F0060606415921E5200EB070BDED
:104A5000207931F810000B90607932F810000C903A
:104A6000A0790D9020680A903848143050F835002D
:104A700021880904090C04D018B10AA902F078F9B8
:104A800059E0E420E2E7207931F810000B906079DA
:104A900032F810000C90A0790D9020680A902068E0
:104AA0000104090C05D080B20A900AA92B4802F033
:104AB0005FF92068010C3ED0000C0A900AA9284832
:104AC00002F056F937E0207901EB4000408A079068
:104AD000607902EB4000C0880890A07909902068B6
:104AE0000690207810F0FF0F03D006A801F0ECFE2E
:104AF00021E0E420AAE72079031F032B01D8E72057
:104B0000A4E702281AD001200290207901EB40008E
:104B1000808C0390607902EB400080890490A0793A
:104B2000059020680190207810F0FF0F09D001A9AE
:104B3000002002F041F9002088E704E00220029002
:104B4000E3E7E42082E7E62080E7000074C000018C
:104B5000AF418000A9418000A5418000000001A074
:104B6000001001A070B50C461546002D03D0012D94
:104B700001D0E42070BD06282BD2DFE800F003034B
:104B8000031E230E144951F8300020B1A1B22A4669
:104B900014F4B0D71BE0E42070BD2004000C04D056
:104BA000A1B22A460D4814F4A5D7200C0FD0210C31
:104BB0002A460B4814F49ED709E0A0B2294601F01A
:104BC000D7FE04E0A1B22A46002002F0F8F8002047
:104BD00070BDE62070BD000088C00001000001A08B
:104BE000001001A0002806D0002904D0024AD26992
:104BF000002A00D0104770478477003070B50D460A
:104C000016460D4C00280AD00178032911D801213D
:104C1000A17601461A222046FDF74FFD05E000204F
:104C2000A0761A210448FDF7E1FDE5612662002027
:104C300070BD012070BD000084770030044A10442C
:104C4000807D084201D0012070470020704700009D
:104C5000847700302DE9FE4F07469246994600249E
:104C6000A046CDF80480CDF8088059480178B942B3
:104C700002D2807E00287DD10EAD0095EFF3118623
:104C80000220FFF7E0FC8346FFF7ECFC401C01210B
:104C900081400BEB0100C0B280F31188012138463E
:104CA000FFF7CCFF38B14B484B4950F8272020463E
:104CB00000F0A4F804461C213846FFF7BFFF002887
:104CC0005ED046A24449204600F098F8204484B2C1
:104CD00004213846FFF7B2FFF8B152463E4920465C
:104CE00000F08CF8204484B208213846FFF7A6FF74
:104CF00038B13BA23849204600F080F8204484B205
:104D00000BE010213846FFF799FF30B135A2324948
:104D1000204600F073F8204484B208213846FFF79B
:104D20008DFF90B14A462C49204600F067F8204498
:104D300084B210213846FFF781FF30B12AA22649FC
:104D4000204600F05BF8204484B210213846FFF77B
:104D500075FF60B126A2052101A80C9BFDF7ACFAF6
:104D600001AA1D49204600F049F8204484B221A23E
:104D7000194900E029E0204600F040F8204484B2C0
:104D80001548C4F5807120442B460D9AFDF758FA5A
:104D9000CDF800804FF48071002804DB2044884265
:104DA00001DC85B200E00D46A81C884200D9FE2532
:104DB00011A20949284600F021F8284481B206488A
:104DC000FFF710FFF0B280F31188BDE8FE8F0000FE
:104DD00084770030DC6700308476003028000000E3
:104DE000200000003A000000204C696E653A000087
:104DF000256C6400292000000D0A000030B505462E
:104E0000002000290CD0002A0AD006E02B18FF2B26
:104E100006D8CC54521C401C80B21478002CF5D11A
:104E200030BD000010B50848017800290AD10121E1
:104E30000170064873F466D5BDE8104000210448AF
:104E400073F4C29710BD0000C86700307141800044
:104E5000B197000130B5ADF5017D4FF48074214666
:104E600041A8FDF7C3FC214601A8FDF7BFFC35A012
:104E7000FDF700FAFFF720FA00285FD0FFF746F9A8
:104E8000014638A0FDF7F6F9FFF712F8A502224611
:104E900001A92846FFF71CF9002001A90A5CFF2A96
:104EA00002D1401CFF28F9D9FF2808D834A0FDF70B
:104EB000E1F92846FFF778F936A0FDF7DBF9002085
:104EC00041A90854401CFF28FBD938A0FDF7D2F9AE
:104ED00041A92846FFF7BEF839A0FDF7CBF92146D6
:104EE00001A8FDF783FC224601A92846FFF7F0F848
:104EF00039A0FDF7BFF9234601AA41A9284604F0CD
:104F00005BFD17A0FDF7B6F9FFF740F835A0FDF7F8
:104F1000B1F9214601A8FDF769FC224601A92846FE
:104F2000FFF7B8F836A0FDF7A5F9234601AA41A975
:104F3000284604F041FD0AA0FDF79CF90DF5017D1E
:104F400030BD00000D0A5468697320697320535006
:104F5000495F666C617368206578616D706C652E61
:104F60000D0A0000526561645F4465766963655FA0
:104F70004944203D203078253036580D0A00000085
:104F8000457261736520536563746F722E2E2E0D0A
:104F90000A000000457261736520536563746F7287
:104FA00020537563636573732E0D0A005061676546
:104FB0005F50726F6772616D2E2E2E0D0A00000019
:104FC000506167652050726F6772616D2053756321
:104FD000636573732E0D0A005350495F5265616417
:104FE0002E0000000D0A5153504920444D412072BB
:104FF00065616420646174612E2E2E0D0A0000002C
:105000004475616C5F4F75747075745F466173743D
:105010005F526561642E000003780121064A012B6E
:1050200000D151700378022B00D1917000780028D4
:1050300001D1517091707047FC67003030B58BB072
:1050400004462C216846FDF7D1FBE06C009094F8F3
:1050500050008DF804004FF480100490002005905B
:105060004FF4807106910790089009900A900021F2
:105070006846FFF73BFC21780A4D55F82110A1F84E
:105080006800002802DAE4200BB030BDFFF71CFCFA
:10509000217855F821100863217855F82110C16254
:1050A0000020F1E7D4670030024B53F8200002F0F3
:1050B00013BB0000D46700302DE9F04104460E46D2
:1050C0001746022C02D3E820BDE8F0811D4D55F8AB
:1050D000240048B190F86B1031B13EB137B190F86F
:1050E0006C1029B1E220EFE7E920EDE7E420EBE7DF
:1050F000012180F86C1055F82400406E817A012956
:1051000004D1416800780022FFF72CFD55F82400F7
:105110003A46314601F0D0FE06468EB155F82400DD
:10512000406E817A012904D1416800780122FFF79D
:1051300019FD55F82410002081F86C003046C3E7B3
:105140000020C1E7D46700302DE9F04104460E4647
:105150001746022C02D3E820BDE8F081224D55F815
:10516000240048B190F86B1031B13EB137B190F8DE
:105170006C1029B1E220EFE7E920EDE7E420EBE74E
:10518000012180F86C1055F82400406E817A0129C5
:1051900004D1416800780022FFF7E4FC00221146A8
:1051A0002046FFF781FF55F824003A46314601F0CA
:1051B000B7FF0646002211462046FFF775FF8EB165
:1051C00055F82400406E817A012904D141680078A5
:1051D0000122FFF7C7FC55F82410002081F86C006D
:1051E0003046B9E70020B7E7D467003070B5002833
:1051F0000CD00478124E56F8241049B191F86A2068
:1052000032B191F86B202AB1EA2070BDE52070BD63
:10521000E92070BDEFF31085012282F31088921E01
:10522000A1F86820FFF70AFF85F310880028F0D165
:1052300056F82410012081F86B00002070BD00009A
:10524000D46700302DE9F0410446069F1E46022C2B
:1052500002D3E820BDE8F0811D4D55F8240048B187
:1052600090F86B1031B13EB137B190F86C1029B1A4
:10527000E220EFE7E920EDE7E420EBE7012180F809
:105280006C1055F82400406E817A012904D14168E0
:1052900000780022FFF766FC55F824003A463146B4
:1052A00002F02EFC06468EB155F82400406E817A3D
:1052B000012904D1416800780122FFF753FC55F819
:1052C0002410002081F86C003046C3E70020C1E7BD
:1052D000D46700307CB50224344B02689A4201D175
:1052E000002403E0324B9A4200D101248DF80010D3
:1052F0000122304D002631B1012917D0022923D0D7
:1053000003292FD03AE0806B019055F8240080F8F3
:10531000762055F8240080F8742055F8240080F891
:105320007520214624A0FCF7A5FF27E0416980698C
:10533000081AADF8040055F8240080F8766055F896
:10534000240080F8752019E0016A406A081AADF857
:10535000040055F8240080F8766055F8240080F8A1
:1053600074200BE055F8240080F8762055F82400CE
:1053700080F8742055F8240080F8752055F8240032
:1053800080F86C6055F82400406E817A012904D1C0
:10539000416800780122FFF7E5FB55F82400016F12
:1053A000002901D0684688477CBD000000C200A0EB
:1053B00000C800A0D46700302B2B2B204552523A56
:1053C00020515350492564207866657220457272D9
:1053D000202E2E2E0D0A00002DE9F04105460F4625
:1053E000002D05D02C78022C04D3E820BDE8F081F4
:1053F000E520FBE72B4E05F1600046F82400281D50
:1054000004F026FB0028F1D156F82410281D486628
:1054100056F824000767543556F824000ECD001DB9
:105420000EC0214856F8241050F82400086056F8A1
:10543000240002F06DF90028D8D156F8240002F0BB
:1054400019FA0028D2D156F82400002580F87650A9
:1054500056F8240080F8755056F8240080F87450EF
:1054600011480A220321083004F0CCF956F8241020
:10547000012081F86A0056F8240080F86C500B492E
:105480000B2005F06DF80A49172005F069F8064D64
:105490002D1F285716F4C0D6285716F4DBD6002047
:1054A000A4E70000D467003030C100014B42800007
:1054B0005342800070B504461A4D55F824007030F0
:1054C00004F0B9FE82B21646A2B155F8240090F855
:1054D000011101290ED0012180F80411802A0FD377
:1054E00055F82400802200F18001703004F0B8FEED
:1054F00080260CE055F82410002081F8000170BDD2
:1055000055F8240000F18001703004F0A9FE55F830
:105510002400324600F18001001D1CF48BD20028CB
:10552000EDD170BDCC670030704700002DE9F84325
:1055300004464D4F57F82400061D022C7ED290F8E9
:105540006C1000297AD0012978D190F80011012936
:1055500074D190F80111002970D1012180F8011156
:10556000002157F82400D0E903231344027D02F000
:105570000102D21D9D184268D36FC3F38003002B34
:10558000FAD090F80421A2B1384A1368491C90F867
:105590003B20102A06D08268B3FBF2F26A43B1EBDB
:1055A000C21FF3D957F82400703004F044FE85B2CE
:1055B00026E0B0F82480C58C001D1BF4B3D657F844
:1055C000240041F2883300EB0801491B8031001DA3
:1055D0002A461CF4F4D1E5E757F824000122703084
:1055E000694604F03DFE57F824004068C16FC1F3DE
:1055F00040010029FAD09DF8001001606D1EADB287
:10560000002DE9D157F82400703004F014FE002872
:10561000C8D1306841694906FCD5EFF310850120F7
:1056200080F3108857F82400703004F004FE68B14D
:10563000EFF31081012080F3108800E011E0306862
:10564000426842F08202426081F3108857F82410C9
:10565000002081F8000157F8241081F8010185F33A
:105660001088BDE8F8830000CC6700300866003081
:105670002DE9F04105460F46002D06D02AB12C78C1
:10568000022C04D3E820BDE8F081E520FBE7304E92
:1056900005F1580046F82400D2E900310A4670307E
:1056A000194604F0B3FD291D286D05F013FD0028EF
:1056B000E9D156F82410281D486656F824000760E2
:1056C00056F824001822083005F14001FDF73AF899
:1056D000204856F8241000EBC4056868486056F866
:1056E0002400001D02F07AFB56F82400001D02F091
:1056F000ABFB184801220321103804F083F856F858
:105700002410012081F86C0056F82410002081F844
:10571000000156F8241081F8010156F8241081F890
:10572000020156F8241081F803010B490C2004F003
:1057300017FF0A490D2004F013FF95F9010016F434
:105740006BD595F9010016F485D500209BE7000084
:10575000CC6700301CC10001D1440001E1440001CC
:105760002DE9F04104461A4D55F82400703004F03C
:1057700062FD82B2164600277AB155F8240090F8EF
:105780000111012909D0802A0ED300F18001703067
:10579000802204F065FD80260BE055F8240080F897
:1057A00000710020BDE8F08100F18001703004F04C
:1057B00057FD55F8240080F8047155F8240032464E
:1057C00000F18001001D1CF47BD10028EAD1E9E73B
:1057D000CC67003070B5022801D3E82070BD104DB1
:1057E00055F8204064B194F86C604EB151B14AB1A3
:1057F0005E1C09D044F62066B34205D9E42070BD92
:10580000E52070BDE42070BD002684F8026155F8E3
:105810002000001D1CF4D3D00028F4D170BD00007E
:10582000CC6700302DE9F04106460C46174604F1DE
:10583000080520466FF4C0D7C3B21B48E118426880
:10584000914202DD0320BDE8F0811849184A006842
:1058500009681268891A081A001FE91881421CD9C0
:105860004FF4004513A22946002007F497D200F018
:1058700075F930B118A22946002007F48FD208200C
:10588000E1E71DA22946002007F488D23A462146C6
:105890003046BDE8F04105F0F3BD3A4621463046BA
:1058A000BDE8F04105F0ECBDD8328000D023800087
:1058B000CC238000523A353A4E56445320617265EB
:1058C00061206973206265696E6720636F6D706126
:1058D000637465642E0D0A00523A353A436F6D7059
:1058E000616374696E67204E564453206661696C2B
:1058F00065640D0A00000000523A353A436F6D703E
:10590000616374696E67204E5644532073756363F8
:1059100065737366756C0D0A0000000004F0C2BB6D
:1059200010B5FFF7FBFF054903480860BDE81040CC
:10593000034876F40B90000017B8800474C500A0EB
:105940000087930310B506480068002800D0804700
:10595000FFF780D808B1012010BD002010BD000065
:10596000FC6A003070B519480468194D2878002881
:1059700001D0002070BD4FF0806073F4B9D300F403
:10598000D9F0600874F4C4D212490860881711492C
:1059900001262C3908601920FEF7DDFD0E4970063E
:1059A00008604FF03041086B40F007000863094C75
:1059B000303C206840F4E020206000F4FDF02E70C0
:1059C000206820F4E0202060012070BD6C2480005D
:1059D000F46A003070C500A000E100E070B500245A
:1059E000EFF31086012080F3108800F400F1104DD1
:1059F00028B102242968B9B10220884714E0FFF7D2
:105A0000A1FF20B1296879B1002088470CE0FFF799
:105A1000A9FF28B10224296831B10220884703E098
:105A2000296809B10020884786F31088204670BD98
:105A30005C248000034900EB800001EB800080883B
:105A400070470000D8690030034A00EB800002EB89
:105A50008000818070470000D869003000B587B0B1
:105A600000F01EF803208DF800001D208DF81600B0
:105A700001208DF817008DF818008DF81900044AE0
:105A800004496846FFF7BAF8FEF718FF07B000BDF3
:105A9000995A0001F15A00010020FFF747BD0000AC
:105AA0001CB5114800904FF48062019200F58060AF
:105AB000002101704FF4E1330364032343648164E4
:105AC000C16401650121416505230374CC02446171
:105AD00002244474017603718260447101736A4642
:105AE0000249FFF7C5FD1CBDF46B003029550001CC
:105AF0000A4601464FF47A730020FFF76BBE0000A0
:105B00000E4910F1210F06DA086820F4704040F4C5
:105B100040500860704710F11D0206D3086820F459
:105B2000704040F48040086070470A28FCDD086837
:105B300020F4704040F4A0400860704724C500A0E5
:105B400010B504F0A3FC03F047FE04F0C5FF00F01D
:105B5000F5FABDE8104004F091BC00002DE9F04FCB
:105B600087B07B48D0F8009000240025A24600268C
:105B700005F054F977480168C9F800104068C9F881
:105B80000400754800680830059009F10800069087
:105B9000042203A9059800F09DFABDF80C10A1F5A8
:105BA0007F40FF3843D0082203A9059800F092FAFD
:105BB000BDF80E006FF400D600F0FF08BDF80C0031
:105BC000002867D00698A9EB000707F58057BDF8B5
:105BD0000E1008F1080083460844B84263D805ABAC
:105BE000082203A906A800F0D7F8BDF80E0000238C
:105BF00000EB080205A906A804F0A0F9641CBDF892
:105C00000E005844B842C3D10020CDE9006053468D
:105C10004A462146284605F049FB002826D18246FF
:105C200000260024CDF818906D1CEDB2B0E70020DE
:105C3000CDE9006053464A462146284605F036FB2A
:105C4000002813D16D1CECB2434D4FF48057434EE6
:105C500008E0286800EB0430394600F0C5FF40B189
:105C6000641CE4B2707AA042F3D8002007B0BDE80B
:105C7000F08F3B488169407A40F27C42CDE90020B8
:105C80000291384B38A24FF40041002007F486D02F
:105C90000920EBE7BDF80E00059908F10808084453
:105CA0004044059074E7082F29D305AB082203A9C7
:105CB00006A800F071F8083F2FB100233A4605A965
:105CC00006A804F03BF9611C0020CDE900605346B2
:105CD0004A46284605F0EAFA0028C7D18246BDF8B0
:105CE0000E004044C61B0024CDF818906D1CEDB288
:105CF0000023324605A906A804F020F948E705ABC1
:105D00003A4603A906A800F047F8611C03A8CDE9AC
:105D1000006053464A46284605F0C8FA0028A5D137
:105D2000C7F1080ABDF80E0000EB08060024CDF804
:105D300018906D1CEDB20123524605A906A804F087
:105D4000FDF80023324605A906A804F0F7F81FE77E
:105D50002C690030ACD50700CC238000D8328000FD
:105D6000641F800076C30001523A353A25732C2017
:105D70004C256420666C61736820737461746520BF
:105D80003078253032582C206572726F722030784E
:105D9000253038580D0A000070B5044615461E46D9
:105DA0002A462068FCF789FC306828443060206867
:105DB0002844206070BD000010B50548017B491CD7
:105DC0000173002073F412D7BDE8104000F044B80E
:105DD000886900303EB5FFF7A1FD1A48016821F43B
:105DE00000310160174D083D2868174980B208430B
:105DF0002860164803C8CDE9000112482C38006815
:105E000000F007011DF80100C82110FB01F400F0AB
:105E10002BFE0F4841684268521AA242FBD300F0A1
:105E200007FE04F053F802909DF8080028B19DF891
:105E30000800084948618861C861286820F07F40EF
:105E400028603EBD30C500A000008F1198600001A1
:105E5000001000E0886900302DE9FC41294D2868D8
:105E600020F07F4040F088502860274803C8CDE9E3
:105E70000001244824380068C82100F007001DF8FC
:105E8000000010FB01F400F0EFFD2048416842687B
:105E9000521AA242FBD300F0CBFD002604F016F804
:105EA0000446DFF86C80D8F81800844201D9012735
:105EB00000E0002773F440D540B91FB1D8F81800AE
:105EC000201A02E0D8F81800001BC6B2D8F8180053
:105ED000C8F82000B6EB900F03D8292C01D8112C5C
:105EE00002D200F017F807E000EBC00020440A21BE
:105EF000B0FBF1F0C8F81800286820F07F40286057
:105F0000BDE8FC8128C500A098600001001000E0F9
:105F1000886900302DE9FF5F4FF0000B0824DFF89F
:105F20006C811A20C8F8140059480168594A89B28E
:105F30001143016003A8FEF779FA0220FEF77EFA0A
:105F4000DFF84C9109F10809D9F8000020F47C3001
:105F500040F42030C9F800004FA003C8CDE900018B
:105F6000DFF82CA1AAF1240ADAF80000C82100F019
:105F700007001DF8000010FB01F500F075FD484F0B
:105F800078687968091AA942FBD300F051FD03F043
:105F90009DFF02909DF80810D8F81400814204D9A2
:105FA0009DF80820811C8A425AD99DF80810814228
:105FB00004D29DF80820811E8A4251D29DF8081013
:105FC000814201D9012500E0002515B1641C64B2AD
:105FD00001E0641E64B2202C11D3D9F8000020F433
:105FE0007C3040F42030C9F80000D8F83C00401C58
:105FF000C8F83C00002002904FF0010B30E0D9F8C7
:10600000000020F47C3040EA043040F40030C9F84D
:10601000000021A003C8CDE90001DAF800006421E6
:1060200000F007001DF8000010FB01F600F01CFD59
:1060300078687968091AB142FBD300F0F9FC03F0E3
:1060400045FF029035B19DF80800D8F81410884239
:10605000BBD805E09DF80800D8F814108842B4D3E6
:106060009DF80C00FEF7EAF90948016821F07F412C
:1060700001609DF80800C8F81800D8F82400401CFA
:10608000C8F8240004B05846BDE8F09F8869003085
:1060900028C500A000008F1140301018102000000B
:1060A000001000E00A49322808DDD1F8200220F46F
:1060B000706040F44070C1F8200270472828FCDA74
:1060C000D1F8200220F47060C1F82002704700006F
:1060D00000E000A02DE9F04105460E461746094CA8
:1060E0002378002B02D000206FF4DAD63A463146EE
:1060F000284600F0B9FD054620786FF4D1D6284631
:10610000BDE8F081C92380002DE9F04105460E4627
:106110001746094C2378002B02D000206FF4C0D61C
:106120003A463146284600F0AFFD054620786FF428
:10613000B7D62846BDE8F081C92380000121024A74
:10614000002069F4119500007965000130B4002148
:106150000D4B01EB410203EB42121478012C0DD1DF
:1061600012790478A24209D101EB410003EB4010FF
:10617000C16D002905D030BC00200847491C082902
:10618000E7D330BC704700005471003070B5002474
:106190000B4E04EB440006EB4015287801280AD189
:1061A000281D12F45BD118B1012801D0002070BD68
:1061B000281D12F4ADD3641C082CEAD3012070BD55
:1061C0005471003030B400210D4B01EB410203EB60
:1061D00042121478012C0DD112790478A24209D10F
:1061E00001EB410003EB4010C16D002905D030BC2C
:1061F00001200847491C0829E7D330BC704700003C
:106200005471003010B5104C02220421204602F0D7
:10621000D1FA01221021204602F0CCFA022280217C
:10622000204602F0C7FA02224021204602F0C2FABC
:1062300002222021204602F0BDFA20460222BDE8BB
:106240001040082102F0B6BA001001A02DE9F0417B
:1062500006460F461C4C4FF6FF75238C102B0AD3B5
:10626000208821466084CD835B1E0B841E22891CFE
:106270002046FCF722FA608C3246394602F05AFF7B
:1062800010B10C20BDE8F081208C102804D3401CF4
:106290002084608CE08308E0618C24F81010208C4E
:1062A000401C2084608C401C608400F00FF80028A3
:1062B000E8D0218C491E89B22184628C521E6284EE
:1062C00024F81150DEE70000AC7B003010B5054A21
:1062D00024214FF4204002F02DFF08B10C2010BD06
:1062E000002010BDAC7B00302DE9FE4F07460D4667
:1062F00002AA2946384604F05BFE10B10298BDE8B8
:10630000FE8F029C00260296DFF8688098F8000055
:1063100010B100206FF4C4D5DFF85CA04FF6FF7910
:1063200008226946204600F09FFCBDF80000484561
:1063300002D12E80029617E0B84206D115B1BDF801
:1063400002002880083402940EE0BDF802006FF4C9
:1063500033D2BDF80210083021444418DAF80000A6
:106360008442DDD32E80029698F800006FF498D511
:106370000298C4E7C9238000D023800070B504468A
:1063800000BFFEF793F905460120FEF792F9094890
:10639000047024B9482208490848FCF7D3F91DB90C
:1063A0000020FEF786F902E00120FEF782F900BF27
:1063B00070BD0000D8680030A87C0030002000E0EC
:1063C00010B5074840680749486006480830402231
:1063D00003490831FCF7B6F903200249086010BDF3
:1063E000607C0030002000E070B500BFFEF75EF971
:1063F00005460120FEF75DF90B48047834B94822C0
:106400000A490B48FCF79EF9FFF7DAFF012006491D
:1064100008701DB90020FEF74CF902E00120FEF7DC
:1064200048F900BF204670BDD8680030002000E069
:10643000A87C003013B501216846FEF7D3FB01208C
:106440001CBD017882781144C9B2017108467047B9
:1064500030B500224271438805E044798D5C2C44BC
:106460004471521C92B29342F7D8407930BD00007B
:1064700070B506462DED068B88B00D469FED368B28
:1064800020216846FCF7B2F9002410226946304604
:10649000FEF71AF90020694600F1080231F81220CF
:1064A000224494B2401CC0B20828F5D3E408052E5B
:1064B00002D0062E24D046E0688805F060FB41EC4F
:1064C000180B288805F05BFB41EC190B204605F002
:1064D00056FB53EC192B05F0B5FC53EC182B05F0CB
:1064E00099F99FED1F1B53EC112B05F093F99FEDCC
:1064F0001E1B53EC112B05F099FC41EC180B22E00C
:106500009FED1B0B51EC100B05F09EF841EC190BA5
:10651000688805F034FB41EC1A0BA88805F02FFBC6
:1065200041EC180B204605F02AFB53EC182B05F024
:1065300089FC53EC1A2B05F06DF953EC192B05F07F
:1065400077FB41EC180B08B0B0EE480AF0EE680A91
:10655000BDEC068B70BD00000000000000000000D4
:1065600079E9263108AC5CBF00000000000039402A
:10657000B76DDBB66DDB0E401CB5426801211170B2
:1065800000214FF48A2205E012F8013B4468491CBF
:106590006354C9B20829F7D3094906C9CDE90012E5
:1065A0004168009A41F8092F019A4A6002884068C0
:1065B000112169F49BD20349002008701CBD000022
:1065C000B0C3000148258000024600210BE00848C6
:1065D00050F83130501E834204D1054800EBC10011
:1065E00040687047491C1029F1DB0020F9E70000E2
:1065F000F07C0030002101E0491C4008C207FBD0BC
:1066000008467047014617480068C0F3C220DC29DD
:1066100001DA06207047A1F1DC020A2A03D204281D
:10662000F8D006207047A1F1E602142A01D8042010
:106630007047A1F1FB02092A03D20328F8D00420F5
:106640007047A1F58272282A01D803207047A1F271
:106650002D11092903D20228F8D003207047022007
:106660007047000010C500A001461E480068C0F336
:10667000C220DC2901DA07207047A1F1DC020A2AD6
:1066800003D20528F8D007207047A1F1E602142AAA
:1066900001D805207047A1F1FB02092A03D2042882
:1066A000F8D005207047A1F58272282A01D804206D
:1066B0007047A1F22D12092A03D20328F8D0042032
:1066C0007047A1F59B723C2A01D803207047A1F2C4
:1066D0007311092903D20228F8D003207047022041
:1066E0007047000010C500A02DE9F04704460D4694
:1066F0004FF0000800BFFDF7D9FF81460120FDF7EC
:10670000D8FF30480068102802D34FF0FF384BE024
:1067100048222D492D48FCF715F848222C492A48D3
:10672000FCF710F82B482749096840F83140254903
:10673000096800EBC100456027884DF6FF7624F01C
:10674000010425F0010504F0030080B1A01E40F013
:1067500001011D4808301B4A126840F8221007EB5F
:1067600006401D49174A126841F822000CE044F027
:10677000010115480830134A126840F822101648E3
:106780001049096840F8216048220F491048FBF77A
:10679000D9FF48220D490C48FBF7D4FF094800688F
:1067A000401C0849086000BFB9F1000F03D1002068
:1067B000FDF77FFF02E00120FDF77BFF00BF4046B1
:1067C000BDE8F087DC680030002000E0A87C0030E5
:1067D000607C0030F07C0030007F003070B50446F3
:1067E00000BFFDF763FF05460120FDF762FF0020B3
:1067F000144908701448154908601548154908607F
:10680000482215491548FBF79DFF15481249486075
:106810000320086048221348FBF794FF48220F49E1
:106820000D48FBF78FFF882C01D004F057F91DB9F4
:106830000020FDF73EFF02E00120FDF73AFF00BF18
:1068400070BD0000D86800307D630001EC26800038
:10685000E9630001E8268000002000E0A87C003009
:10686000007F0030607C003005480068C00F0028C1
:1068700004D00448007908B1012070470020704717
:1068800040C500A088690030FEB5054600240320FD
:106890008DF8000000260B4FE8070CD00120A04027
:1068A000019004EB440007EB80008168029141688D
:1068B00009B168468847641CA4B26D08761C082E8E
:1068C000EADBFEBD2476003070B50546064811F4BB
:1068D000DDD0EFF31084012181F31088284600F009
:1068E00005F884F3108870BD3869003000B585B0B4
:1068F00001680091017901F0030101918168029121
:10690000C1680391406800090490684601F08EFD5B
:1069100005B000BD10B5FF20FDF7A6FF80B200282E
:1069200021D011498863EFF31081012282F310888E
:106930000E4A6FEA0043136081F310886FF0040180
:1069400011600A4940390968C1F3001139B12028A2
:1069500005D0BDE8104020F0200011F40F90BDE8F4
:10696000104011F40B9010BD002001A044C500A000
:1069700030B4002910D0EFF31081012282F3108887
:10698000074B1A684FF6FF7404EA002002431A60AE
:1069900081F3108830BC704730BC01F0D3BD0000DB
:1069A0005CC500A030B58DB00446002C04D094F82E
:1069B0002900002518B111E001200DB030BD84F888
:1069C00028501948416821F080014160016821F098
:1069D00080010160816821F004018160022084F857
:1069E000290001A82EF430D260680A90A0680B90AC
:1069F0002069059060690690A0690790E069089099
:106A0000E0680390206A0490606A0C90217801AAE3
:106A1000064801F0F7FD2564012084F8290084F878
:106A200028500020C9E70000A0E200A0003001A02B
:106A3000EFF31081012080F3108808480268521E8D
:106A400002600268002A05D18268054B1A6040681E
:106A5000044A106081F3108870470000E06800303D
:106A6000001000E0FCED00E010B5EFF31081012014
:106A700080F310880B480268002A0DD10A4B1A686F
:106A800042600A4A14688460446844F080741C6060
:106A9000836843F0010313600268521C026081F3B3
:106AA000108810BDE0680030FCED00E0001000E050
:106AB00010B50446002C1DD0207A01281CD00120DE
:106AC00020721A48006818B1416809B12046884709
:106AD0001748016821F480610160EFF31081012003
:106AE00080F310881348026822F0020202600068F6
:106AF00020B114E0012010BD022010BD0E484268F4
:106B000042F001024260C26842F00072C260026854
:106B100042F001020260C26842F08072C26081F3FA
:106B200010880020E0606072207210BD8403800035
:106B300014C500A0C86A0030A0E200A070B50446E9
:106B4000002C03D023492068884201D0012070BD69
:106B5000207A012805D001252572607A002610B11F
:106B60001EE0022070BD26721B48016821F0010161
:106B70000160816821F000718160EFF310800121D4
:106B800081F3108815490A6842F002020A6080F316
:106B900010881348006818B1016809B12046884779
:106BA000022060720F48016841F4806101606068F2
:106BB000012809D02068016821F480510160304625
:106BC000E6606572207270BD2068016841F48051F2
:106BD0000160F4E7006401A0A4E200A0C86A0030EC
:106BE0008403800014C500A010B50B4602460021A6
:106BF0000348FEF736DC08B1002010BD012010BDAF
:106C0000641F800038B5022000906846FDF70EFC36
:106C1000114C206880B911482060114901600121A0
:106C200041608160EB21C1600E499DF8002051F860
:106C3000221001610021416175F498D108B1012051
:106C400000E00020A072044812F488D308B10020AC
:106C500038BD012038BD0000641F8000281F80005F
:106C600000D000A01469003010B514460A46014651
:106C700023460448FFF758D808B1002010BD20462D
:106C800010BD0000641F80002DE9F047C0B08146B0
:106C90008A4617463B46524649461748FEF7D7DA1A
:106CA00018BB00243D464FF48078474501D946463D
:106CB00000E03E4609EB040133466A460E48FFF702
:106CC00033D890B90AEB040032466946FBF7AAFCB8
:106CD00058B9AD1B6DB134444646B54200D82E4676
:106CE000BC4202D2A019B842E4D9002040B0BDE8AD
:106CF000F0873846FAE70000641F80002DE9FE4364
:106D000007460E463046FFF775FC85B20024DFF8D3
:106D10005490DFF8548059F83400B8421DD105EB87
:106D2000041085B205EB450218F82200052807D0AB
:106D30008DF800400D48874206D13004019004E0F0
:106D400005208DF80000F5E7019608EB82008168C8
:106D5000029142680AB168469047641C032CDADB52
:106D6000BDE8FE8388C00001A4740030001001A0BB
:106D700070B505460E46074812F4B2D6EFF31084FC
:106D8000012282F310883146284612F49ED684F3FD
:106D9000108870BD3C69003010B5064818F4C0D5A5
:106DA000EFF31084012080F3108815F461D184F38F
:106DB000108810BD30690030084601F01DBD08463E
:106DC000114615F4FB91704770470000012080F3D5
:106DD00010880F48016821F08071016001210C4A80
:106DE00038321160016841F000710160084A6FF0AB
:106DF0004001143A11600021026861F3DF62026011
:106E0000054A04491160016841F080710160FEE7A4
:106E100058C500A0646F6F67007080000321FEF703
:106E200059BA000070B5002490F8351089072AD5AA
:106E3000002280F834200168CA620168CD6C082302
:106E40004DB1CA6480F83530026B1049D163006BD4
:106E500011F478D217E090F83550122D04D090F844
:106E60003550222D08D00EE080F835308261C86A96
:106E700040F00100C86206E080F835304262C86A1E
:106E800040F01000C862204670BD00001D9900014E
:106E90000068064A0649904201D108787047054AC1
:106EA000904201D1487870470020704700C200A08E
:106EB000F068003000C800A02DE9F74F82B004460A
:106EC0000D462F6A4FF00008CDF80480E8690028CD
:106ED0000BD101A9284602F0E1FE30B1A16B41F0CF
:106EE0000801A16305B0BDE8F08F94F834000128D3
:106EF0000CD04FF0010A84F834A094F83500012832
:106F000006D0022684F834803046EBE70220E9E719
:106F1000C4F83880022084F8350000220121204680
:106F2000E36B02F095FF0646300004D084F835A0EC
:106F300084F83480E8E76869DFF8D091B0F5E02F95
:106F400019D86762206B00220178484601F026FCC0
:106F5000206B00220178484601F0EFFB206B0022F5
:106F60000178484601F0C4FB206B002201784846B6
:106F700001F0EFFB4EE04FF4006BB0F5702F23D81B
:106F8000F80705D0A06B40F00800A063012641E09F
:106F900078086062206B10220178484601F0FEFB01
:106FA000206B02220178484601F0C7FB206B5A464D
:106FB0000178484601F09CFB206B4FF48042017839
:106FC000484601F0C6FB25E0B0F5F81F22D8B80707
:106FD00005D0A06B40F00800A06301261AE0B808B5
:106FE0006062206B20220178484601F0D7FB206BBD
:106FF00004220178484601F0A0FB206B5A46017834
:10700000484601F075FB206B4FF4804201784846FA
:1070100001F09FFB26B184F835A084F8348073E733
:10702000E86930B14FF400722946204602F002FCB4
:1070300005E04FF440722946204602F0FBFB606AEF
:1070400020620498E061222084F83500216B3048EA
:107050000863216B2F488863206BC0F83C80216B4C
:107060004FF40010C860206B4FF4806201784846EE
:1070700001F07BFB206B00220178484601F044FBC5
:1070800025492068884206D1206B052201784846B0
:1070900001F077FB08E02149884205D1206B0D22E1
:1070A0000178484601F06DFB236A2168206B60314E
:1070B000049A11F4C1D3E86950B1A86810B12168ED
:1070C00028680866E86840B121686868086604E0D6
:1070D0002946204602F080FD0646EFF3108101208C
:1070E00080F3108884F834802068C26C42F001027A
:1070F000C2642068026942F0010202612068C26A2B
:1071000042F00802C26281F31088FDE6003001A05F
:107110006F9900015D99000100C200A000C800A0A5
:107120002DE9F04F89B004460D461646E86900285F
:1071300007D068694FF4F819484502D1286A082831
:1071400007D232462946204600F0A0F909B0BDE832
:10715000F08F94F8340001280ED0012784F83470A1
:1071600094F835004FF0000A012807D04FF00208CC
:1071700084F834A04046E9E70220E7E7C4F838A0E5
:10718000022084F83500002201212046E36B02F042
:107190005FFE80465FEA080004D084F8357084F80A
:1071A00034A0E7E72046FFF773FE371DDFF8C8B2CB
:1071B00000287DD028680090A86802906868019037
:1071C000E8680390CDF810A04FF4F8100590A86976
:1071D0000690E869079004200890820169462046DD
:1071E00002F028FB4FF0120984F83590E86960B18D
:1071F0003146204600F0F2FA2268296811662268BA
:10720000696811662168086603E06946204602F055
:10721000E3FC2068016941F0010101614FF47A73D8
:1072200001220421204602F013FE4FF47A7300225B
:107230000121204602F00CFE2068016921F00101C5
:107240000161CDF808A0202003904FF4F8100590BC
:1072500002200690286A001F0890286A001F8008F4
:10726000A061206B20220178584601F097FA206B2C
:1072700004220178584601F060FA206B4FF4006256
:107280000178584601F034FA206B4FF480420178BF
:10729000584601F05EFAA0696061276184F8359074
:1072A000216B76480863216B75488863206B00E08A
:1072B00040E0C0F83CA0216B4FF48010C860206B08
:1072C00000220178584601F050FA206B4FF4807587
:1072D0002A460178584601F017FA6A492068884220
:1072E00006D1206B04220178584601F019FA08E013
:1072F0006549884205D1206B0C220178584601F07F
:107300000FFA2A466946204602F094FA6369226819
:10731000311D6032206B11F48FD284F834A02068C4
:10732000016941F0010101612068C16C41F0020175
:10733000C1641FE728680090A868029068680190FF
:10734000E8680390CDF810A0CDF81490A8690690D5
:10735000E8690790286A001F0890286A001F8008C3
:10736000A061206B20220178584601F017FA206BAB
:1073700004220178584601F0E0F9206B4FF40062D6
:107380000178584601F0B4F9206B4FF4804201783F
:10739000584601F0DEF94FF480794A4669462046A6
:1073A00002F048FAA06960612761122084F8350074
:1073B000216B32480863216B31488863206BC0F829
:1073C0003CA0216B4FF48010C860206B0022017834
:1073D000584601F0CAF9206B4A460178584601F038
:1073E00093F928492068884206D1206B042201784D
:1073F000584601F095F908E02349884205D1206BF1
:107400000C220178584601F08BF963692268311D1E
:107410006032206B11F410D2EFF31087012080F35B
:1074200010882068016921F001010161E86980B1DB
:107430003146204600F0D2F9A96811B122682968C6
:107440001166E96811B122686968116621680866E9
:1074500003E06946204602F0BFFB84F834A02068B0
:10746000C16C41F00201C1642068016941F0010171
:10747000016187F310887DE6003001A09D9900012D
:107480005D99000100C200A000C800A02DE9F74FDF
:1074900082B004460D462F6A4FF00008CDF80480F4
:1074A000E86900280BD101A9284602F0F7FB30B1AA
:1074B000A16B41F00801A16305B0BDE8F08F94F81D
:1074C000340001280CD04FF0010A84F834A094F85D
:1074D0003500012806D0022684F834803046EBE7D8
:1074E0000220E9E7C4F83880022084F83500002241
:1074F00001212046E36B02F0ABFC0646300004D0CD
:1075000084F835A084F83480E8E76869DFF8B4913E
:10751000B0F5E02F19D8A761206B0022017848460A
:1075200001F03CF9206B00220178484601F005F992
:10753000206B00220178484601F0DAF8206B002227
:107540000178484601F005F94EE04FF4006BB0F5C4
:10755000702F23D8F80705D0A06B40F00800A06377
:10756000012641E07808A061206B1022017848468E
:1075700001F014F9206B02220178484601F0DDF891
:10758000206B5A460178484601F0B2F8206B4FF460
:1075900080420178484601F0DCF825E0B0F5F81F9C
:1075A00022D8B80705D0A06B40F00800A0630126E0
:1075B0001AE0B808A061206B20220178484601F04B
:1075C000EDF8206B04220178484601F0B6F8206BF4
:1075D0005A460178484601F08BF8206B4FF4804200
:1075E0000178484601F0B5F826B184F835A084F852
:1075F000348073E74FF480773A462946204602F0FC
:1076000019F9A069606104982061122084F835009E
:10761000216B2D480863216B2C488863206BC0F8D0
:107620003C80216B3803C860206B002201784846FB
:1076300001F09BF8206B3A460178484601F064F867
:1076400023492068884206D1206B042201784846ED
:1076500001F066F808E01F49884205D1206B0C2232
:107660000178484601F05CF863692268206B60325B
:10767000049911F4E1D0E86950B1A86810B121680B
:1076800028680866E86840B121686868086604E010
:107690002946204602F0A0FA0646EFF310810120A9
:1076A00080F3108884F834802068C26C42F00202B3
:1076B000C2642068026942F00102026181F310880D
:1076C0000CE70000003001A09D9900015D990001C8
:1076D00000C200A000C800A030B50B4C0068094DE6
:1076E000231DA84205D12170032A00D900221A6067
:1076F00030BD064DA842FBD16170032A00D900229B
:107700005A6030BD00C200A0F068003000C800A080
:1077100070B50546064817F4D5D6EFF3108401215D
:1077200081F31088284600F005F884F3108870BDB6
:107730004069003070B50446002C1CD094F8340029
:1077400001281AD0012084F8340094F8350000256F
:1077500090B320682EF4EAD3204600F0C9F9184A05
:107760002068184990420AD1D1F8AC0240F4804018
:10777000C1F8AC020CE0012070BD022070BD124ABD
:10778000904205D1D1F8AC0240F40040C1F8AC02FF
:10779000D1F8A40200050CD5D1F8AC020B4A104078
:1077A0000B4A824305D1D1F8A40240F48060C1F8AD
:1077B000A402A56384F8355084F83450002070BDCD
:1077C00000C200A000E000A000C800A000FF010A65
:1077D00000FF01000021FDF77DBD704730B5034675
:1077E000002000221B681E4D1E4CAB4201D12268B6
:1077F00003E01D4DAB4200D1626882B1012A19D06D
:10780000022A22D0032A09D18878CA7840EA0220C5
:107810000A784978120442EA0161084330BD0878C9
:107820004A7840EA02208A78C978120442EA016163
:10783000084330BD48780A7840EA0220CA7889783F
:10784000120442EA0161084330BDC8788A7840EAF0
:1078500002204A780978120442EA0161084330BDE7
:1078600000C200A0F468003000C800A090F8350005
:107870007047000070B50546064817F423D6EFF3AD
:107880001084012181F31088284600F005F884F364
:10789000108870BD40690030F0B58BB004462822D6
:1078A0003E4901A8FAF74EFF3D483E490068B0FB4B
:1078B000F1F009905CB194F8340001280AD0012756
:1078C00084F8347094F83500002628B12DE00120AA
:1078D0000BB0F0BD0220FBE784F834603249486801
:1078E00020F480604860086820F480600860A1F59A
:1078F00028712E4A2068904206D1D1F8AC0220F4BB
:107900008040C1F8AC0208E0294A904205D1D1F884
:10791000AC0220F40040C1F8AC02204600F0E9F8C7
:1079200041F28831204600F0E8F8206800218161AA
:107930002068C1612068042101652068002141653B
:10794000002201212046E36B02F082FA054628005E
:1079500017D160680990207A00F080000790207AA3
:1079600000F040000890E0680A902068816821F0EB
:107970000101816001A920682EF4E8D2012804D019
:10798000012584F834602846A2E72068816841F028
:1079900001018160A66384F83570F2E7FCC2000142
:1079A0000866003040420F00A0E200A000C200A024
:1079B00000C800A0F8B504462068056B4FF001062A
:1079C00015F02E0F1FD0816C0091C16A21F03F018C
:1079D000C1622068016921F001010161A06B40F0E2
:1079E0000200A0632068C16C41B10021C164216B19
:1079F0003E48C863206B10F4A5D404E084F83560D9
:107A00002046FFF7E7FEE80632D5E16A20468847C0
:107A1000606A68BB2068C16A21F01801C162012157
:107A2000206800F08BFF0028F9D12068016921F05F
:107A30000101016194F83500222804D094F8350042
:107A4000082806D014E084F83560204600F052F88B
:107A50000EE084F835602068816821F001018160C2
:107A60002068816841F0010181602046FFF7D6F966
:107A7000E8070AD0A06948B1A16A20468847A069F2
:107A8000002802D1206800218161F8BD2068C16A08
:107A900021F00101C1620121206800F04FFF0028A0
:107AA000F9D12068016921F00101016194F83500E4
:107AB000122814D094F835000828E6D184F83560EF
:107AC0002068816821F0010181602068816841F0AF
:107AD000010181602046BDE8F840FFF79FB984F8B6
