:020000040100F9
:10200000000084005920000161200001E94A80009D
:10201000FF210001FD210001452200010000000018
:10202000000000000000000000000000914C800053
:102030006B200001000000006D20000171200001F4
:10204000DFF810D000F0F2FB00F094F800480047F1
:10205000D10C010100008400064880470648004773
:10206000FEE7FEE7FEE7FEE7FEE7FEE7FEE7FEE748
:10207000FEE700006D2A0001F90C01012DE9F05F77
:102080000546002092469B468846064681464024E7
:102090001BE0284641464746224600F0BBFA53461D
:1020A0005A46C01A914110D311461846224600F0F4
:1020B000A2FA2D1A67EB01084F46224601200021A3
:1020C00000F099FA17EB00094E41201EA4F101041B
:1020D000DFDC484631462A464346BDE8F09F000013
:1020E0000649074A0868504343F239021044086021
:1020F000400870470149086070470000D44A8000DA
:102100006D4EC64140EA01039B0703D009E008C9B0
:10211000121F08C0042AFAD203E011F8013B00F8AC
:10212000013B521EF9D27047D2B201E000F8012BF8
:10213000491EFBD270470022F6E710B513460A4647
:1021400004461946FFF7F0FF204610BD421C10F868
:10215000011B0029FBD1801A704730B504460020CE
:10216000034600E05B1C934203D2E05CCD5C401B65
:10217000F8D030BD70B5054C054D03E02068204413
:102180008047241DAC42F9D170BD0000585F0101A9
:102190005C5F01010EB540F2334102910021CDE9AF
:1021A00000110A460B4600F066FA03B000BD0EB5FA
:1021B00040F2334202920022CDE90022134600F0A1
:1021C0005AFA03B000BD20F00040C20DC0F3160063
:1021D00040F400007F2A02DA002001467047002107
:1021E000962A03DCC2F19602D0407047963A00F07E
:1021F00002BA43F6C51CC3F2000C6047FEE7FEE7D7
:1022000058585247010000001555000000200001F9
:10221000002000016EED52490101000000000000A5
:1022200000000000000000000000000000000000AE
:10223000000000000000000000000000000000009E
:102240001BF44A97FEE7704770472DE9FE4F804622
:1022500081EA0300C00F0C46009021F0004123F0FA
:102260000045B8EB0200A94105D240462146904600
:102270001C460B46024623F00040104347D0270D72
:10228000C7F30A00C3F30A510290401A0190402894
:102290006BDAC3F3130040F4801B0098924620B120
:1022A0000023D2EB030A63EB0B0B01985946C0F1F4
:1022B0004002504600F09FF906460D4650465946EA
:1022C000019A00F0B7F910EB08006141002487EA99
:1022D000115284EAE7731A4340D0009A62B3019A1C
:1022E000012A4FEA075215DC001B61EB02014FF097
:1022F000004202EA0752CDE90042001C41F580117C
:1023000032462B4600F0B7F903B0BDE8F08F4046E7
:102310002146F9E7001B61EB0201001C41F5801327
:1023200000185B412018A2F5001747EB030140EAB3
:10233000D570B6196D4111E06D084FEA360645EAD1
:10234000C0754FEA0752001B61EB0201001C41F50A
:10235000801149084FEA30000019514132462B469E
:1023600003B0BDE8F04F00F077B9009801224000BB
:102370000023D0EB020263EBE073009821464FEAA2
:10238000E074B8EB000061EB0401E9E783F000437F
:102390005BE781F0004158E72DE9FE4F81EA030435
:1023A00004F0004421F0004100944FF0000B23F0B2
:1023B000004350EA01045ED052EA03045BD0C3F349
:1023C0000A54C1F30A552C44A4F2F3340194A0FB3F
:1023D0000254C1F3130141F48011C3F3130343F416
:1023E000801301FB024400FB034E840A970A44EA6F
:1023F000815447EA8357A4FB076802958D0A05FBC1
:1024000007854FEA932C04FB0C542705029D4FEAE5
:10241000065847EA1637B5EB08056EEB070C870E32
:10242000920E47EA811742EA8312A7FB0201B6EB3C
:102430000B0164EB00042B0D43EA0C335E1844EBF4
:102440001C50DA465146E7FB0201C5F313044FEA7C
:102450000B3343EA14534FEA0432019C43EA060368
:10246000A4F10C040294009CCDE900B400F003F93F
:1024700003B0BDE8F08F00200146F9E72DE9F04DEB
:1024800081EA030404F0004B21F0004514464FF0AC
:10249000000A23F0004150EA050220D054EA01026C
:1024A0001DD0C5F30A570246C5F31303C1F3130049
:1024B000C1F30A5640F4801543F48013A7EB0608D5
:1024C000101BD64608F2FD3873EB050002D308F165
:1024D000010801E092185B41B8F1000F03DA002017
:1024E0000146BDE8F08D00204FF480110646844679
:1024F0000EE0171B73EB050705D3121B63EB0503F7
:1025000006434CEA010C49084FEA300092185B413F
:1025100050EA0107EDD152EA030012D082EA04002A
:1025200083EA0501084305D0101BAB4106D2012206
:10253000002306E000224FF0004302E06FF00102AA
:1025400053101AEB06004CEB085110EB0A0041EB5C
:102550000B01BDE8F04D00F07FB870B5C1F30A5231
:1025600001F000450024C1F3130140F2FF3341F4B0
:1025700080119A4201DA002070BD40F233439A4242
:10258000A2F2334203DC524200F044F800E09040F3
:102590002C43F1D0404270BDC1F30A5210B5C1F3D3
:1025A000130140F2FF3341F480119A4201DA002016
:1025B00010BD40F233439A42A2F2334203DC52424E
:1025C00000F028F810BD904010BD30B50B46014614
:1025D00000202022012409E021FA02F59D4205D3C2
:1025E00003FA02F5491B04FA02F52844151EA2F16C
:1025F0000102F1DC30BD202A04DB203A00FA02F1AE
:10260000002070479140C2F1200320FA03F31943E0
:1026100090407047202A04DB203A21FA02F0002182
:10262000704721FA02F3D040C2F1200291400843E2
:1026300019467047202A06DBCB17203A41FA02F0F0
:1026400043EAE07306E041FA02F3D040C2F120020F
:10265000914008431946704710B5141E73F10004E9
:1026600008DA401C41F1000192185B411A4301D184
:1026700020F0010010BD2DE9F04D92469B4611B1AE
:10268000B1FA81F202E0B0FA80F220329046FFF710
:10269000B2FF04460F4640EA0A0041EA0B015346E6
:1026A0005A46084313D0114653EA010019D0C8F125
:1026B00040025046FFF7AEFF05460E4650465946CB
:1026C0004246FFF798FF084305D0012004E020466A
:1026D0003946BDE8F08D0020054346EAE0762C43FC
:1026E00037430A986305E40AA0EB08000022FD0ABC
:1026F00044EA47540A3002D500200146E9E70105C3
:1027000010196941DDE9084500196941BDE8F04D3E
:10271000A2E700002DE9F041054621F000400C46FB
:10272000284309D0C4F30A5040F23341884205DD02
:1027300028462146BDE8F0812846FBE740F2FE31FD
:10274000884210DC0CDB4FEA043040EA155050EAB6
:10275000053105D0104804F0004101430020E9E7AD
:1027600000200146E6E7A0F233404642C6F14002AF
:1027700028462146FFF73FFF074688462846214660
:102780003246FFF747FF43463A46FFF765FF3246BA
:10279000BDE8F041FFF72FBF0000F03FC1F30A5240
:1027A000C1F3130140F2FF3341F480119A4202DA7F
:1027B00000200146704740F233439A42A2F233426E
:1027C00002DC5242FFF726BFFFF715BF30B5041EEB
:1027D00071F1000404DB4FF00044404264EB01015E
:1027E000141E73F1000405DB1C464FF000435242F7
:1027F00063EB04038B4208BF824230BD30B5041E38
:1028000071F1000404DB4FF00044404264EB01012D
:10281000141E73F1000405DB1C464FF000435242C6
:1028200063EB0403994208BF904230BD064C074D4C
:1028300006E0E06840F0010394E807009847103490
:10284000AC42F6D3FFF700FC085F0101585F0101BD
:1028500070B58C1810F8015B15F0070301D110F862
:10286000013B2A1106D110F8012B03E010F8016B8F
:1028700001F8016B5B1EF9D12B0705D40023521E12
:102880000DD401F8013BFAE710F8013BCB1A921C7A
:1028900003E013F8015B01F8015B521EF9D5A14278
:1028A000D8D3002070BD000010B51E480068002875
:1028B00000D080471C4900200870811E1B48016021
:1028C0001B494FF0007008601A4CD4F8C002800712
:1028D00004D4F42218A11DA005F454F42A48016878
:1028E000D4F8C40261F31D3040F00100C4F8C40202
:1028F00004F452F300214FF03040C1608161C117F0
:102900004161016204F404F308484038016821F48D
:10291000800101601D480068002802D0BDE8104019
:10292000004710BD60248000DC49800044C500A041
:1029300080E200E000E000A0727769705F736C6570
:1029400065705F636F6D6D6F6E2E63004D43555FF5
:102950005355422D3E424C455F44534C4545505FD4
:10296000434F52525F454E2026204D43555F5355ED
:10297000425F424C455F44534C4545505F434F5284
:10298000525F48575F454E00542480006424800005
:1029900000214FF03040C1608161C1174161016287
:1029A0000649022004220A60BFF34F8FBFF36F8FE6
:1029B0000860BFF34F8FBFF36F8F704780E100E077
:1029C00004490220C1F800010860BFF34F8FBFF334
:1029D0006F8F704780E100E00249096801F007014C
:1029E0000170704704C500A030B4062821D21249F6
:1029F0000A6802F00702824212D00A680F4B1A409E
:102A00000F4C22430A6000BF00BF00BF00BF0A682E
:102A10001A400C4B024333F8203042EA83420A60EA
:102A20000849183951F820000749486030BC76F44D
:102A3000E19230BC7047000004C500A0F8FFE3FF3E
:102A400005000800CC4501010041800004480068F1
:102A5000044900F0070051F820000349486070471E
:102A600004C500A0B445010100418000024801688E
:102A700041F470010160704788ED00E00248006891
:102A8000001D1EF4E9950000CC4380000248406818
:102A9000001D1EF4E1950000CC4380000FB4054BEF
:102AA00010B503A9044A029800F0AEF910BC5DF815
:102AB00014FB00004D890001EC4380000FB41CB5ED
:102AC0000246002007AC00290BD0491ECDE90021A9
:102AD000054B6A462146069800F096F9009A0021B7
:102AE00011701CBC5DF814FB373500010FB4084BA6
:102AF00010B504A902AA039800F086F9044602A9B9
:102B0000002000F023FD204610BC5DF814FB0000FF
:102B10004D3500017CB5044600201D4616460029AF
:102B20000BD0491ECDE90041044B6A462946304688
:102B300000F06AF9009A002111707CBD3735000160
:102B4000002804DB00F1E02090F80004704700F05A
:102B50000F0000F1E02090F8140D7047002804DB0E
:102B600000F1E02090F80004704700F00F0000F141
:102B7000E02090F8140D704702480068C0F302206E
:102B8000704700000CED00E010B52DED020B2DEDAF
:102B9000088B84B09DED0C0B51EC100BFFF7BAFDC8
:102BA00041EC180B9DED0C0B53EC182B51EC100B5A
:102BB000FFF7ECFB41EC190B0D989FED290B10F082
:102BC000004F53EC102B51EC190B9FED21AB9FEDF7
:102BD00022BB0ED0FFF7FAFD0ED953EC1B2B51ECA4
:102BE000190BFFF70BFE1CD214E000BF41EC180BD1
:102BF00017E0FFF7EBFD06D253EC1A2B51EC180B44
:102C0000FFF7C4FBF2E753EC1B2B51EC190BFFF75A
:102C1000F5FD06D853EC1A2B51EC180BFFF715FBFA
:102C2000E4E78DED028B9DED0C0B18EE901A10EE83
:102C3000900A8DED000B61F31E0003909DED020BD9
:102C400004B0BDEC088B02B010BD00000000000015
:102C5000000000000000F03F000000000000E03F26
:102C6000000000000000E0BF02E008C8121F08C119
:102C7000002AFAD17047002001E001C1121F002A8A
:102C8000FBD170472DE9FF5F82B00021DDE9043000
:102C9000020DDDF840B0034318D044F61050A2F204
:102CA000FF3242431514119801281FD0A5EB0B00E9
:102CB000401C5FEA000A4FF000064E4FDFF83891E3
:102CC000B046504615D5CAF1000413E0119801240E
:102CD0004AA3012801D16FEA0B010298119AC0E9B9
:102CE0000031C0E9024206B0BDE8F09FCBF1000020
:102CF000DFE704460021404A491842EB0450CDE981
:102D0000001012E0E00707D032463B4640464946F5
:102D1000FFF742FB8046894632463B46104619463D
:102D2000FFF73AFB06460F466410002CEAD1DDE9B6
:102D30000401DDE90023BAF1000F06DAFFF72CFBEE
:102D400042464B46FFF728FB05E0FFF797FB42465C
:102D50004B46FFF793FB04460E460022284BFFF735
:102D60004DFD03D84FF0FF30014607E00022254B10
:102D700020463146FFF769FAFFF710FD102409E0FD
:102D8000002C0ADB0A220023FFF778F9039B30327C
:102D90001A55641E50EA0102F2D1641C039AC4F170
:102DA00011031444119A012A03D0012208430DD1C2
:102DB0000AE0084304D000204FF0110B119072E795
:102DC000A3EB0B056D1E0DE05B4504DD4FF000022B
:102DD00005F1010504E003DA4FF00002A5F1010559
:102DE000002AECD002981199C0E90231C0E90045EF
:102DF00079E70000000014400000F03F30000000C0
:102E00000000F0430000E03F2DE9FF4F95B09B46E6
:102E10008946064600250FE2252877D1002427465B
:102E2000F84A0121059400E0044316F8013F203BD5
:102E300001FA03F01042F7D130782A2811D06FF050
:102E40002F033078A0F13002092A16D8059A44F0F1
:102E5000020402EB820203EB42021044761C05904E
:102E6000EFE759F8042B0592002A03DA504244F4A4
:102E70000054059044F00204761C30782E2816D1B8
:102E800016F8010F44F004042A280DD06FF02F0229
:102E90003078A0F13003092B09D807EB870302EB48
:102EA0004303C718761CF3E759F8047B761C307887
:102EB0006C280FD006DC4C2817D068280DD06A2863
:102EC00014D104E0742810D07A280FD10DE044F416
:102ED00000140AE044F4801401E044F440147278D1
:102EE000824202D104F58014761C761C3078662864
:102EF0000BD013DC582877D009DC002875D0452882
:102F0000F6D04628F4D047281AD19DE118E063286E
:102F100035D0642879D0652812D195E1702873D016
:102F200008DC6728F1D069286FD06E280DD06F2893
:102F300006D1B5E073282CD0752875D0782874D0C8
:102F40005A46179990476D1C75E1C4F30250022848
:102F500009D003280DD0D9F8001004280DD00D6039
:102F600009F1040967E1D9F80010EA17C1E9005234
:102F7000F6E7D9F800100D80F2E70D70F0E719F8C8
:102F8000041B8DF8001000208DF80100EA46012096
:102F900003E059F804AB4FF0FF3061074FF0000138
:102FA00002D40DE008F101018846B9420FDA8045EC
:102FB000F8DB1AF808100029F4D108E008F1010143
:102FC00088468142FADB1AF808100029F6D10598E4
:102FD0005B46A0EB080721463846179A00F094FAA2
:102FE000284400EB080507E04DE029E10DE01AF860
:102FF000010B5A4617999047B8F10108F7D25B4682
:1030000021463846179A13E142E00A220092C4F39F
:1030100002524FF0000A022A08D059F804CB032AC2
:103020004FEAEC710AD00DE029E02AE009F107012E
:1030300021F00702F2E802C1914609E00FFA8CFC88
:103040004FEAEC71042A03D14FFA8CFC4FEAEC7181
:10305000002907DA0A460021DCF1000C61EB0201CD
:103060002D2202E0220504D52B228DF80420012216
:1030700003E0E20701D02022F7E7904659E00A2159
:1030800002E010220DE010214FF0000A00910BE049
:1030900010224FF0000A44F004040827009203E0D5
:1030A00008224FF0000A0092C4F30252022A05D00F
:1030B00059F804CB0021032A08D009E009F10701DF
:1030C00021F00702F2E802C1914605E01FFA8CFCEC
:1030D000042A01D10CF0FF0C4FF00008220728D57C
:1030E000702806D0009B83F0100353EA0A0305D032
:1030F0000EE040228DF80420012208E05CEA010283
:1031000006D030228DF804208DF80500022290466A
:10311000009B83F0080353EA0A030AD15CEA010228
:1031200001D1620705D530228DF804204FF0010847
:103130007F1E582804D034A003900EA802900DE002
:1031400036A0F9E753466046009AFEF797FF84469B
:103150000398825C0298401E029002705CEA0100B3
:10316000F0D1029806A9081A00F1200A600702D5DA
:1031700024F4803400E00127574502DDA7EB0A0064
:1031800000E0002000EB0A01009005984144401A3D
:103190000590E00306D45B462146179A059800F097
:1031A000B3F90544002706E001A85A46C05D179907
:1031B00090476D1C7F1C4745F6DBE0030CD55B4652
:1031C0002146179A059800F09FF9054404E0302045
:1031D0005A46179990476D1C0099481E0090002987
:1031E000F5DC08E0029802995A460078491C0291E1
:1031F000179990476D1CBAF10001AAF1010AF1DCA0
:1032000065E10000092801003031323334353637AA
:103210003839616263646566000000003031323322
:1032200034353637383941424344454600000000C2
:1032300000F058F90544761C307800287FF4ECAD96
:1032400019B02846BDE8F08F620700D4062709F1BF
:10325000070222F0070CFCE80223E14603F00048D5
:103260005FEA080C02D00FF2702C0DE05FEA045CFC
:1032700002D50FF2682C07E05FEAC47C02D00FF29F
:10328000602C01E0AFF2700C4FF0FF3823F00043E8
:10329000CDF850C065280CD006DC452809D046285A
:1032A0001DD047283DD13DE0662818D067287ED143
:1032B00038E00021112F01DB112000E0781CCDE95E
:1032C000000106A90EA8FFF7DDFCDDE90F010E9A4B
:1032D00003910021009207F1010A04914DE04FF0A3
:1032E00000400097CDE9011006A90EA8FFF7CAFC1F
:1032F000DDE90F0203920E9B11990022DDF80CA06C
:103300000093049211B9791C00EB010AB7EB0A0093
:1033100004D4C0F1FF3007F1010A0490AAEB0700C2
:10332000019044E0012F00DA01270021112F01DD77
:10333000112000E03846CDE9000106A90EA8FFF7EC
:10334000A1FCDDE90F010E9A039100210491009286
:10335000BA4621070CD40399514500DA8A46BAF1DE
:10336000010F05DD009AAAF10101515C302908D056
:10337000B84202DA10F1040F06DA0121CDE901109A
:1033800015E0AAF10101E9E7002805DC04990144F0
:103390000491AAEB000102E0411C514500DD8A4680
:1033A0000499401A401C01904FF000400290200701
:1033B00004D40198504501DBCDF8048000208DF83D
:1033C0004F0002980DF14F07B0F1004F25D02B2090
:1033D0000E9002984FF0020800280CDA404202904A
:1033E0002D200E9007E00A210298FFF7EEF8303109
:1033F000029007F8011DB8F10001A8F10108F2DC04
:1034000002980028EFD1791E0E980870307800F0ED
:10341000200040F0450007F8020D12A8C01B00F183
:1034200007081498007800B1012000EB0A01019808
:1034300001EBE07105984144401A401E0590E003FD
:1034400006D45B462146179A059800F05DF80544BE
:103450001498007818B15A46179990476D1CE003EC
:1034600024D55B462146179A059800F04DF805448F
:103470001CE00498002807DBDDE90301884203DD36
:103480000098405C179901E0179930205A46904700
:10349000049805F10105401C04900198401E01901C
:1034A00004D12E205A46179990476D1CBAF100019D
:1034B000AAF1010ADDDC05E017F8010B5A4617995D
:1034C00090476D1CB8F10001A8F10108F4DC5B46DF
:1034D0002146179A0598ABE62D0000002B0000004E
:1034E000200000002DE9F041044600251E46174645
:1034F000880404D405E039462020B0476D1C641EC2
:10350000F9D52846BDE8F0812DE9F04104460025B3
:103510001E469046C80301D5302700E020278804C6
:1035200004D505E041463846B0476D1C641EF9D508
:103530002846BDE8F0814A68002A06D00A68531C74
:103540000B6010704868401E486070470A68531C42
:103550000B601070704700002DE9F05F0746894648
:1035600093464FEA5B04A2464D465F4EDFF87C81EE
:10357000EFF31080012181F31088D8F8A41221F014
:103580002001C8F8A41280F31088EFF31080012105
:1035900081F31088D8F8A01221F02001C8F8A012F9
:1035A00080F31088306820F08040306050483060F0
:1035B0003F20D8F8001160F30501C8F80011306809
:1035C00020F4601040EAC7403060306820F4E0200A
:1035D00040EA07403060052F03D1306840F40040D6
:1035E0003060062F03D1306840F48040306030688E
:1035F00040F400503060306820F060503060306837
:1036000020F00F0040F003003060EFF31080012144
:1036100081F31088344A3832116821F0E04141F0DA
:103620008041116080F31088306840F08040306045
:1036300001E0D8F80000D8F80401C0F30020002809
:10364000F7D1EFF31080012181F31088116841F068
:103650000041116080F3108834E000204FF47A714B
:103660001AE0884217D9306820F080403060306816
:1036700040F000403060306820F0004030600AF0D8
:103680008BFE1C480168491C016054464D460520CC
:1036900078F4B5D26CE7401CD8F80421C2F30022BC
:1036A000002ADED0D8F8040100F07F01A14200D941
:1036B0002146002003E0D8F8002004C5401C8842C1
:1036C000F9D3641A002CC8D15FEACB7008D0D8F8BF
:1036D0000401C0F300200028F9D0D8F800002880A9
:1036E000BDE8F05F0AF058BE08C500A000E000A0E9
:1036F0000A070807C84A80002DE9F04107460E4630
:103700004FF000080024274D0BE004EBC40005EB4C
:103710008000801C07223946FEF71FFD40B1641C63
:10372000E4B22878A042F0D8B8F1000F18D102E036
:103730004FF00108F8E728780A21B0FBF1F201FB0D
:1037400012040A2801D2401C287004EBC40105EBC6
:1037500081003968C0F80210B988C180B979017256
:103760002B7811A21021002004F40EF53078000708
:103770000BD504EBC40005EB800006F14601BDE863
:10378000F0410A301C22FEF7BDBC04EBC40005EB7F
:10379000800006F12A01BDE8F0410A301C22FEF744
:1037A000B1BC0000E0D48000523A313A6164642038
:1037B0006C746B206974656D2C206E756D203D20D6
:1037C00025640A000449896B084004490A781043BB
:1037D00000220A7070470000002001A0744680009B
:1037E000104A114900280EDC0868C0F34120012866
:1037F00008D0506C401C5064086820F4C06040F44D
:103800000070086070470A28FCDB086810F4C06F7D
:10381000F8D0106C401C1064086820F4C060086088
:1038200070470000FC4780000CC500A006460F460C
:10383000154672B63846FEF789FC402801D940206B
:1038400002E03846FEF782FC80463046FEF77EFCFA
:10385000402801D9402002E03046FEF777FC0446BC
:103860009C211048FEF767FC424639460D48FEF79A
:1038700049FC0C48224631465C30FEF743FC0948BF
:103880004FF0AA31016445644FF0BB3181644FF0C1
:10389000CC3101654FF0DD318165002000F004F886
:1038A000FEE70000CC8D800030B5ADF20C4D044633
:1038B0004FF4806103A8FEF73EFC184D202085F8E8
:1038C0003F0085F89B003CB12846012C436DC26C3B
:1038D00009D0022C0CD00FE0104A11A15C3203A8D1
:1038E000FFF704F908E011A103A8FFF7FFF803E0D0
:1038F00016A103A8FFF7FAF803A90BA2686CCDE99B
:103900000121009018A3054A18A1002000F0F6FE3E
:1039100000F0C0FE0DF20C4D30BD0000CC8D8000DB
:103920005B4552524F525D20257300005B57415258
:103930004E494E475D20506172616D303A25642CCE
:10394000506172616D313A25640000005B50415254
:10395000414D5D20506172616D303A25642C50619B
:1039600072616D313A256400000000006170705F83
:103970006173736572742E6300000000014877F470
:103980007B9700006045800006460F4690461D4626
:1039900072B64046FEF7DAFB402801D9402002E02B
:1039A0004046FEF7D3FB04469C210D48FEF7C3FBBF
:1039B000224641460A48FEF7A5FB09484FF055311B
:1039C000016445644FF066318164C6644FF077311D
:1039D00001654765C94381650220FFF765FFFEE782
:1039E000CC8D80002DE9F04106460F4690461D46DD
:1039F0004046FEF7ABFB402801D9402002E040469C
:103A0000FEF7A4FB04469C210D48FEF794FB2246DA
:103A100041460B48FEF776FB09484FF0113101642F
:103A2000456449008164C6644FF0333101654765E0
:103A30004FF044318165BDE8F0410120FFF734BF0C
:103A4000CC8D800070B58AB005460C4608A9284682
:103A500003F0B4FA062208A93C48FEF77EFB3B4E71
:103A6000463EE0B986F82C50284603F0B4FB04F03B
:103A700023FD0146284603F0B3FB09F02BFB01466A
:103A8000284603F0ADFB32A0CDE9010540F21B4111
:103A90000091354B35A23BA1022000F02FFE2B48B0
:103AA000062208A92C38FEF758FBD8B935702846ED
:103AB00003F091FB02F096FC0146284603F090FBD0
:103AC00009F0C0FE0146284603F08AFB2FA0CDE98D
:103AD000010540F224410091234B24A229A1022098
:103AE00000F00CFEA17AE27A207B637BCDE9043002
:103AF000CDE90621A07BE17B2AA240F22743CDE954
:103B00000032CDE90210184B18A21EA1022000F0CD
:103B1000F5FD324D6878002815D10C4800224FF48D
:103B2000FA61123001F0DAF8044654B114220E4959
:103B3000183103A8FEF7E6FAADF8104003A800F02C
:103B4000EFF8012068700AB070BD0000A6D28000B6
:103B50006465762068727320636F6E6E656374654A
:103B6000642025640D0A0000E44C01012E2E5C53F4
:103B700072635C757365725C757365725F6170709A
:103B80002E6300004E4F5F5441470000646576206D
:103B90006869647320636F6E6E6563746564202565
:103BA000640D0A00436F6E6E656374656420776907
:103BB00074682074686520706565722025303258FD
:103BC0003A253032583A253032583A253032583A70
:103BD000253032583A253032582E0000BC4580003E
:103BE0002DE9FF41044601AD32A013C540F2414228
:103BF0000092394B39A23FA1022000F07FFD3F48DF
:103C000000250555401D05553D4FFF2697F82C0012
:103C1000A0421CD107F1800001F0F2F807F1A800E2
:103C200001F0EEF807F1580001F0EAF8204604F040
:103C3000DBFA816A21F002018162204604F0D4FAA5
:103C400006702E4818380570457009F077FC3878F2
:103C5000A0422DD1204604F0C7FA90F8280029A1EF
:103C600040F25642CDE90021C0F3400002901A4BC9
:103C70001AA220A1022000F041FD204604F0B4FA6F
:103C800090F82800800706D5204604F0ADFA2130D0
:103C90000CF0CCFE01E004F0C9FC204604F0A4FACC
:103CA000816A21F002018162204604F09DFA0670CB
:103CB000BDE8FF81446973636F6E6E65637465640C
:103CC0002028307825303258292C204C696E6B2002
:103CD0004944583A25642E00104D01012E2E5C53A4
:103CE00072635C757365725C757365725F61707029
:103CF0002E6300004E4F5F5441470000D4458000C2
:103D000060D28000646973636F6E6E656374207047
:103D1000616972207374617475732025642E0000CC
:103D20003EB504464FF400711A48FEF704FA2078B5
:103D300010B1012819D01DE000211748A28830F8E1
:103D400031309A4207D100EBC10014A143681148F9
:103D5000FEF7CCFE0EE02E2902D0491CC9B2EEE7D8
:103D600014A10C48FEF7C2FE04E01DA109486268D8
:103D7000FEF7BCFE074921A22069CDE90121009090
:103D8000D4E902231EA1002000F0B8FCBDE83E40AB
:103D900000F080BCCC8B8000F04380004572726FD5
:103DA0007220636F6465203078253034583A2025BE
:103DB000730000004572726F7220636F646520307B
:103DC00078253034583A204E6F20666F756E642027
:103DD000696E666F726D6174696F6E2E000000000F
:103DE00028257329206973206E6F742065737461B0
:103DF000626C69736865642E000000002573000022
:103E00006170705F6572726F722E63002DE9F04110
:103E1000014600291BD000240F4E0E4A357814E0CD
:103E200002EB04100F780378BB420CD14B6840685A
:103E3000034208D0707808B900F0FEFB2046BDE8C8
:103E4000F04100F0EBBA641CE4B2AC42E8D3BDE848
:103E5000F0810000748E80006C4580007CB50546C2
:103E60000E46002D01D0002418E005207CBD05EB96
:103E7000041041680091017A8DF80410417A8DF8A0
:103E8000051007218DF80610C268007800236946E6
:103E900000F048F80028E9D1641CE4B2B442E6D34B
:103EA00000207CBD10B50C46062833D2DFE800F0B8
:103EB000030303101E27184951F830002104090C90
:103EC00004D018B1214607F08DFA1FE0042010BD80
:103ED0002004000C03D0A1B2104807F083FA200C94
:103EE00014D0210C0E4807F07DFA0FE014F0FF0FFC
:103EF00003D0204607F06CF808E0042010BD14F051
:103F0000FF0F05D02146002007F0DEFA002010BD8B
:103F1000042010BD062010BDF8450101000001A0DD
:103F2000001001A02DE9F05F05460C469046994629
:103F300027680026052D13D039462846FFF7B2FF23
:103F40002146284600F0ACF800280AD1042D0AD0FA
:103F5000032D2ED04FF0100B2807060E002491E001
:103F60000620BDE8F09F4FF0080B2079042806D00A
:103F7000052809D006280DD0072815D110E000210A
:103F8000384600F404F70FE040F20111384600F41F
:103F9000FEF609E04FF00111384600F4F8F603E0B0
:103FA0003B49384600F4F3F64FF0007075F4A0D0AA
:103FB000D4E74FF0200BD1E7F80760D0052D65D28C
:103FC000DFE805F0030303254600324800EBC50097
:103FD00090F904A0BAF1000F17D0EFF3108101207F
:103FE00080F31088A01900EB40022B4800EB820000
:103FF000C0F80480C0F8089081F31088504618F487
:104000000BD1504618F426D139E00420A9E7EFF38C
:104010001082012080F31088A0191F4B00EB400094
:1040200003EB8001C1F80480C1F80890032103F874
:10403000201082F31088062018F4EED0062018F421
:1040400009D1072018F4E8D0072018F403D116E0AE
:10405000EFF31081012080F31088A01900EB4002DB
:104060000E4800EB8200C0F80480C0F8089081F38D
:104070001088122018F4D0D0122018F4EBD07F084A
:10408000641CE4B25C4597D300206AE7062068E729
:1040900001010100F845010100888000808980004D
:1040A00070B58EB005460C46564901F164004DC806
:1040B000CDE90A02CDE90C36D1E91E23486F06AEE0
:1040C000D1F880100DC6099114224E49843101A8FF
:1040D000FEF718F8ACB14C4906200FF0A3FA4B4993
:1040E00007200FF09FFA4A4912200FF09BFA45492A
:1040F000444A2C31062D7CD2DFE805F00606062165
:10410000415905200EB070BD207931F810000B9098
:10411000607932F810000C90A0790D9020680A9018
:104120003848143050F8350021880904090C04D0AF
:1041300018B10AA907F0A4F959E00420E2E72079B0
:1041400031F810000B90607932F810000C90A079D3
:104150000D9020680A9020680104090C05D080B2F7
:104160000A900AA92B4807F08BF92068010C3ED071
:10417000000C0A900AA9284807F082F937E0207954
:1041800001EB4000408A0790607902EB4000C08854
:104190000890A079099020680690207810F0FF0F11
:1041A00003D006A806F066FF21E00420AAE72079E4
:1041B000031F032B01D80720A4E702281AD00120EF
:1041C0000290207901EB4000808C0390607902EB33
:1041D000400080890490A0790590206801902078A3
:1041E00010F0FF0F09D001A9002007F0C5F9002049
:1041F00088E704E002200290E3E7042082E706203B
:1042000080E70000E4450101C34C8000BD4C800004
:10421000B94C8000000001A0001001A010B50246BA
:104220000C460020062A26D2DFE802F00303030B27
:104230001A1F114850F83200A1B2BDE8104015F421
:1042400046942104090C03D0A1B20C4815F43FD4C4
:10425000210C10D0210CBDE81040094815F437940A
:10426000A0B2BDE8104013F40594A1B2BDE810401F
:10427000002007F084B910BDF8450101000001A03D
:10428000001001A0002803D00249086001207047F7
:10429000002070477445800070B505460024091F52
:1042A000062917D2DFE801F003070C111315284681
:1042B00000F0A4F80EE00124284600F09FF809E081
:1042C0000224284600F09AF804E0032402E00424C3
:1042D00000E00524034A214628461268BDE87040E4
:1042E00010470000744580002DE9F0410446204647
:1042F00000F0AEF801462E4800230826025D00F1CA
:104300000A0700F11405AAB1052A33D0082A2AD1D8
:10431000092945D0082926D1295D491CC9B229554A
:10432000142920D32B5506552046BDE8F04108211D
:10433000FFF7B2BF052913D0042916D0072914D0DE
:10434000082910D1295D491CC9B2295514290AD35D
:104350002B5506552046BDE8F0410821FFF79CBFCC
:104360003B5505210155BDE8F0812046BDE8F041EF
:10437000FFF792BF05290CD0395D491CC9B23955E8
:104380003229F0D303552046BDE8F0410521FFF75F
:1043900083BF03552046BDE8F0410621FFF77CBFEF
:1043A00003552046BDE8F0410921FFF775BF000025
:1043B000548F800070B504460D4600F00FF808B128
:1043C00000F050F90348044A2946005D5268BDE8F0
:1043D00070401047688E80006C45800000200649C0
:1043E00011F810200AB100207047401CC0B20A2802
:1043F000F6D3012070470000728F8000034900222D
:1044000001F8102001EB400042707047728F80006D
:10441000014A02F810107047728F8000024A012191
:1044200002EB400041707047728F800070B500242D
:10443000064D05EB4400407810B12046FFF754FFCD
:10444000641CE4B20A2CF4D370BD0000728F8000AB
:1044500070B500211D4B03F132051A5C002A09D00A
:10446000002403F10A06012A0AD0022A12D0032AE4
:1044700024D11FE015F8102002B301221A541DE0C8
:1044800015F810201AB1345402221A5416E01C54A4
:10449000042113E015F810204AB1325C521CD2B24C
:1044A0003254642A0AD3072103221A5406E0052154
:1044B0001C5403E015F8101011B10821084670BD16
:1044C0001C54FFF79BFF0921F8E70000408F800094
:1044D00038B501220024009400280ED0012824D0F1
:1044E0000022002A08D0694600200FF05BFE0094ED
:1044F000694600200FF056FE38BD012909D0022977
:104500000DD00329EDD19DF8000040F00800009087
:10451000E7E79DF8000040F002000090E1E79DF819
:10452000000040F020000090DBE7012907D00229BD
:10453000D7D19DF8000040F010000090D1E79DF821
:10454000000040F001000090CBE700002DE9F041B1
:104550000E4617460A2E02D80FB1002320E0002095
:10456000BDE8F08103EB430410F82410032901D0C7
:10457000042913D100EB8405114AA97AD1541049BA
:1045800010F824200C3101EB03142270696861607B
:10459000297A2172697A61720A49E1605B1CDBB297
:1045A000B342DFD3064831460C30FFF757FC0648CC
:1045B000067047600548FFF765FE0120D0E7000060
:1045C000688E80000D3E00016C458000B5430001FF
:1045D0002DE9F0410024124FDFF8488019E0002651
:1045E00007EB041528786968FFF718FE10B9697A97
:1045F000012902D0012802D005E0012603E0687AF3
:10460000022800D1012631462046FFF701FF641C35
:10461000E4B298F800008442E1D3BDE8F0810000E4
:10462000748E80006C45800010B5FFF7D1FFBDE8A7
:104630001040FFF7FBBE000010B5074A01210748F4
:1046400000F0B8F900220A21044800F047FB0449B1
:104650000120487010BD000029460001188F80001D
:104660006C45800010B5034800F0CDF902490020E8
:10467000487010BD188F80006C458000002806D05F
:10468000002904D0024AD269002A00D0104770479E
:10469000A88B80000248006A002800D000477047BD
:1046A000A88B800070B50D4616460D4C00280AD028
:1046B0000178032911D80121A17601461A2220464A
:1046C000FDF720FD05E00020A0761A210448FDF743
:1046D00032FDE5612662002070BD012070BD000042
:1046E000A88B8000044A1044807D084201D001203C
:1046F0007047002070470000A88B80002DE9FE4F16
:10470000DDF830B00646924699460024002701970E
:1047100002975A480178B14202D2807E00287DD1AA
:104720000DF13808CDF80080EFF311850220FEF777
:1047300015FA014652480068C0F30220401C0122CD
:1047400082408818C0B280F3118801213046FFF7FB
:10475000C9FF38B14B484C4950F82620204600F09C
:10476000A5F804461C213046FFF7BCFF00285ED0A8
:1047700046A24549204600F099F8204484B204211D
:104780003046FFF7AFFFF8B152463F49204600F0F0
:104790008DF8204484B208213046FFF7A3FF38B1DA
:1047A0003BA23949204600F081F8204484B20BE056
:1047B00010213046FFF796FF30B136A2324920462D
:1047C00000F074F8204484B208213046FFF78AFFD5
:1047D00090B14A462C49204600F068F8204484B243
:1047E00010213046FFF77EFF30B12BA2264920462C
:1047F00000F05CF8204484B210213046FFF772FFCD
:1048000070B15B4626A2052101A8FEF757F901AA5F
:104810001D49204600F04AF8204400E02BE084B215
:1048200020A21949204600F041F8204484B21648DD
:10483000C4F58071204443460D9AFEF76BF900974A
:104840004FF48071002804DB2044884201DC86B2EA
:1048500000E00E46B01C884200D9FE2612A20A498A
:10486000304600F023F8304481B20748FFF706FFD6
:10487000E8B280F31188BDE8FE8F0000A88B8000AD
:104880000CED00E0DC438000A88A800028000000D6
:10489000200000003A000000204C696E653A0000DC
:1048A000256C6400292000000D0A000030B5054683
:1048B000002000290CD0002A0AD006E02B18FF2B7C
:1048C00006D8CC54521C401C80B21478002CF5D170
:1048D00030BD0000024901220868496863F49494DD
:1048E000DE45800010B50446094A06214CF201005D
:1048F0000CF0DEFB03F032F8064844600A22064959
:10490000002000F02DFCBDE81040012074F4AA91B5
:10491000C44801017C4580000892800030B58BB00E
:1049200005460C46002C19D0242102A8FDF703FCF3
:104930002178A9B1012911D1284603F055FC816ADB
:1049400041F0010181620CA040F2EB31CDE9001091
:104950000F4B10A215A10220FFF7D0FE0BB030BD07
:1049600000218DF8081001218DF8091002A92846B0
:1049700069F46AD4F2E70000506C656173652069E0
:104980006E7075742070617373776F7264000000CD
:104990008C4C01012E2E5C5372635C757365725CE6
:1049A000757365725F6170702E6300004E4F5F54C7
:1049B000414700002DE9F04104460D461746002D01
:1049C00004D0012D02D00120BDE8F081CCB1C7B1E7
:1049D000EFF311860220FEF7B3F88046FEF7CCF81D
:1049E000401C0121814008EB0100C0B280F3118816
:1049F00000206070A570E761F0B280F3118800209C
:104A0000E2E70120E0E710B50446002C0CD0204678
:104A100000F0F6F9FF2060700021A160E1602161E3
:104A200061610020E06110BD012010BD10B586B0AD
:104A30001C4A01211C48FFF7BDFF04464CB114225B
:104A40001A4901A8FDF75EFBADF8084001A8FFF781
:104A500067F91548164A01212830FFF7ABFF0446D5
:104A600054B114221149143101A8FDF74BFBADF8E4
:104A7000084001A8FFF754F90B480E4A01212838D5
:104A8000FFF798FF0446002C0AD01422074928316A
:104A900001A8FDF737FBADF8084001A8FFF740F982
:104AA00006B010BDD5C60001E0D28000A84C0101BF
:104AB00021260101A5640001F0B5DDE9074505994E
:104AC00081614FF47A76A2FB061C03FB06C3002724
:104AD00002FB0732C0E9021209196A41C0E9041257
:104AE00000210162F0BD00002DE9F0410446002CD8
:104AF00013D0EFF311850220FEF722F80746FEF7E8
:104B00003BF8401C012606FA00F03844C0B280F39E
:104B100011881248002121620EE00020BDE8F081DA
:104B2000D4E90432D1E9047CDB1B72EB0C0202D223
:104B3000016A216203E00846016A0029F0D104629B
:104B40006670064820380168491C0160016C4160AC
:104B5000E8B280F311880120E0E70000588A800065
:104B60002DE9F04105460024EFF311860220FDF700
:104B7000E7FF0746FEF700F8401C01218140781846
:104B8000C0B280F31188134A106CE8B115B102F17C
:104B9000200010E00446206A10641068401E106077
:104BA0000CE0A94206D11168491E1160296A016210
:104BB0002C4603E00846016A0029F2D124B1002006
:104BC00020626070106C5060F0B280F31188204653
:104BD000BDE8F081388A80002DE9F041EFF31187BC
:104BE0000220FDF7ADFF0446FDF7C6FF401C012182
:104BF00081406018C0B280F31188114D002608E092
:104C00002078012804D1E16909B1A069884726709C
:104C10002D6A2C6A002CF3D1094D203D07E0E16993
:104C200009B1A06988472670206AA8602662AC682E
:104C3000002CF4D1F8B280F311880120BDE8F08196
:104C4000588A80002DE9F041EFF311870220FDF72B
:104C500077FF0446FDF790FF401C012606FA00F09E
:104C60002044C0B280F311881B4DA5F1200829E033
:104C7000D4E90420D8E90413521A60EB0300D8E900
:104C800006319A1A814120D326702046FFF768FF2B
:104C9000A078012802D0104818380DE0D8E9043077
:104CA000D4E902219A184841C4E904202046FFF7BC
:104CB0001BFF07E001F1200001680029FAD1216201
:104CC000006804622C6A002CD2D1F8B280F31188FB
:104CD0000120BDE8F0810000588A80002DE9FF5FC7
:104CE00082460E4693464FF00008BAF1000F20D0DE
:104CF000414886421DD8E6B1EFF311870220FDF747
:104D00001FFF0446FDF738FF401C01218140601859
:104D1000C0B280F31188504609F0A4F810B19AF897
:104D2000010040B1F8B280F311880F2004B0BDE853
:104D3000F09F0120FAE70BF0F9FE04460D464FF410
:104D40007A7106FB01F022462B46002109F05AF841
:104D5000DFF8A890B0B1D9F8040048B1D0E9041048
:104D6000091B60EB0500C9E904100BF07BFF04E0B0
:104D70000021C9F81010C9F814104FF00108D9E942
:104D8000040106E0D9F80400D0E90421101B61EB0E
:104D90000501CDE9020132460023CDF800B05046AE
:104DA000FFF78AFE5046FFF79FFE0EF02DFA4FF0F8
:104DB000E021D1F800014FF0806210F0806F01D047
:104DC000012000E0002018B9C1F88022C1F80021BC
:104DD000B8F1000F0AD0D9F80400D0E90431D9E9BC
:104DE0000402181A61EB02010BF0D6FEF8B280F350
:104DF000118800209AE70000008AB907388A8000ED
:104E00002DE9F04104460025002C39D0EFF311873D
:104E10000220FDF795FE0646FDF7AEFE401C01217F
:104E200081407018C0B280F311886078012824D1C5
:104E3000144E7068A0420BD10BF078FED4E9043216
:104E4000181A62EB0102C6E904020BF00BFF012500
:104E50002046FFF785FE5DB1706848B1D0E90421B6
:104E6000D6E90403101A61EB03010BF095FE04E090
:104E70001DB9706808B90BF0F5FEF8B280F311881F
:104E8000BDE8F081388A800070B504461A4D55F8A7
:104E9000240070300DF08FFA82B21646A2B155F898
:104EA000240090F8011101290ED0012180F804118D
:104EB000802A0FD355F82400802200F18001703041
:104EC0000DF08EFA80260CE055F82410002081F8B1
:104ED000000170BD55F8240000F1800170300DF024
:104EE0007FFA55F82400324600F18001001D1CF4C1
:104EF000A1D50028EDD170BDCC43800010B501785C
:104F000002290AD10549496801B188470A22BDE84A
:104F100010400349002000F023B910BD7C458000FB
:104F2000089280002DE9F8430446464F57F82400C4
:104F3000061D022C7DD290F86C10002979D0012931
:104F40007ED180F80111002157F82400D0E9032315
:104F50001344027D02F00102D21D9D184268D36FF6
:104F6000C3F38003002BFAD090F80421A2B1364A93
:104F70001368491C90F83B20102A06D08268B3FBC6
:104F8000F2F26A43B1EBC21FF3D957F82400703034
:104F90000DF011FA85B226E0B0F82480C58C001D12
:104FA0001CF4C0D157F8240041F2883300EB08010B
:104FB000491B8031001D2A461CF401D5E5E757F84E
:104FC00024000122703069460DF00AFA57F82400D7
:104FD0004068C16FC1F340010029FAD09DF800106C
:104FE00001606D1EADB2002DE9D157F8240070307C
:104FF0000DF0E1F90028C8D1306841694906FCD5B7
:10500000EFF31085012080F3108857F824007030EA
:105010000DF0D1F958B1EFF31081012080F3108821
:105020003068426842F08202426081F310880020BA
:1050300000E005E057F8241081F8010185F310889D
:10504000BDE8F883CC438000044180002DE9F043A3
:1050500089B0054688462C78002D06D02AB1022C4E
:1050600005D3082009B0BDE8F0830520FAE7384EE3
:1050700005F1580046F82400D2E900310A467030A4
:1050800019460DF083F9291D894624220C31684602
:10509000FDF738F8291D286D0EC90EF0C3FF002852
:1050A000E0D12C490C200EF0BDFA2B490D200EF05A
:1050B000B9FA2A4800EBC40797F9010017F4ACD0FD
:1050C00097F9010017F4C6D056F82400C0F8649090
:1050D00056F82400C0F8008056F824001822083042
:1050E00005F14001FDF70EF856F824107868486085
:1050F00056F82400001D06F073FC56F82400001D2D
:1051000006F0A4FC351F0127287850B92F701348EA
:10511000032110300CF01EFD6880002801DA042005
:10512000A0E756F8240080F86C7056F82410002090
:1051300081F8000156F8241081F8010156F8241076
:1051400081F8020156F8241081F803018AE7000073
:10515000CC4380007D2A00018D2A00018446010194
:1051600070B5022801D3082070BD134C54F82030CC
:105170004BB193F86C5035B139B132B193F803515A
:10518000012D04D010E0052070BD042070BD002565
:1051900083F8035154F820305B680225C3F8885027
:1051A00054F820305B681B6854F82000001D06F09E
:1051B00061FC0028EAD170BDCC4380002DE9F041AC
:1051C00004461A4D55F8240070300DF0F4F882B200
:1051D000164600277AB155F8240090F801110129EC
:1051E00009D0802A0ED300F18001703080220DF0AA
:1051F000F7F880260BE055F8240080F800710020B5
:10520000BDE8F08100F1800170300DF0E9F855F84B
:10521000240080F8047155F82400324600F1800122
:10522000001D1CF44DD40028EAD1E9E7CC438000EE
:1052300070B5022801D3082070BD0C4D55F82040F0
:105240007CB194F86C6066B169B162B1002684F8F3
:10525000026155F82000001D1CF4B1D30028EBD1E9
:1052600070BD052070BD042070BD0000CC438000DF
:105270002DE9F04106460C46174604F10805204684
:1052800070F49AD2C3B21B48E1184268914202DD21
:105290000320BDE8F0811849184A006809681268BF
:1052A000891A081A001FE91881421CD94FF40045D9
:1052B00013A22946002002F467F702F0B1FC30B1D6
:1052C00018A22946002002F45FF70820E1E71DA29A
:1052D0002946002002F458F73A4621463046BDE8F8
:1052E000F0410FF0ABB83A4621463046BDE8F041F8
:1052F0000FF0A4B8D8328000D0238000CC238000E7
:10530000523A353A4E5644532061726561206973B2
:10531000206265696E6720636F6D70616374656498
:105320002E0D0A00523A353A436F6D70616374690D
:105330006E67204E564453206661696C65640D0AA1
:1053400000000000523A353A436F6D706163746932
:105350006E67204E5644532073756363657373669E
:10536000756C0D0A000000007CB50D46002200920D
:105370000192694602F40AF7044634BB4FF4205107
:10538000684602F405F7B8B942F60101684602F42E
:10539000FFF688B942F60301684602F4F9F658B9F7
:1053A00042F60201684602F4F3F628B94FF424519C
:1053B000684602F4EDF608B1062406E00098C5F34D
:1053C0000B01808808430099888020467CBD00003E
:1053D0002DE9F04782460E46174698464FF00109E0
:1053E0000025D8F80040002C18D11E48046815E0AC
:1053F0003188A08881420BD3E088814204D82146BD
:10540000504600F031F808B1246807E0012505E0B6
:105410002146504600F028F810B1246825B105E077
:105420000125A0883080F9E7002CE1D1B5B14FF01B
:105430000009A0883188884204D1201D38600120ED
:10544000387109E0081A401E00EB400004EB4000F0
:105450000E30386000203871C8F800404846BDE87A
:10546000F0870000F80E800070B586B0002200EBD7
:105470004003114C03EBC00304EB43052C7D17E004
:1054800035F8123093B18E889E420FD8CE889E4256
:105490000CD3CA8889888DE81F00084B084A402130
:1054A000002002F471F6012006B070BD521CD2B289
:1054B0009442E5D80020F7E764D68000CA50010185
:1054C000FC5C01012DE9F84304460F4690461E4B53
:1054D0001EA240210020009402F456F6002104EBA5
:1054E000440000EBC4021E4800EB4200047D002390
:1054F0001AE030F81320BA4214D1B8F1000F0FD1DE
:10550000661E05E05D1C30F8151020F81310EBB294
:10551000B342F7DB002120F81610017D491E01750A
:10552000012103E05B1CDBB2A342E2D338EA0108AD
:1055300006D00A2C04D220F81470017D491C017594
:105540000020BDE8F8830000E7500101523A333AE9
:105550005B25735D20656E7465722C2025640A00DE
:1055600064D680002DE9F04F8BB007460C4600252D
:1055700000200890099060880790261FE188A28883
:10558000CDE901210090614B61A24021002002F48D
:10559000FBF5308850B9384602F4FCF5401E3080E7
:1055A0006088A188884200D800B90125DFF8909171
:1055B000002D60D104F10A000DF1200A0DF1140B49
:1055C00004F106080A90A088069004A8CDE9020B11
:1055D000CDE9008A022306AA07A9384600F0ACF9F3
:1055E0000546280008D00A2D45D0062D43D0BDF829
:1055F0001800401C079032E0E088B0F5205F03D02F
:1056000042F60101884208D1BDF81000217AC3B2E8
:10561000059A0A9802F4C0F548B92289BDF810002D
:10562000824218D105990A98FCF797FD98B9022192
:1056300008202AF449D40146BDF81C008880BDF832
:105640001800C880083E59F82700603002F4A6F51B
:10565000384602F4A5F5BDF81800401C0790A08854
:10566000BDF81C10884206D3BDF81810884202D03D
:1056700030880428A7D2062D36D059F8270060308C
:1056800002F490F540B300244FF6FF7101EA800662
:10569000062000EB072307220421384600962CF44D
:1056A000C3D701464E8059F82700006E0EE083886C
:1056B0000A1913711B0A5371A41CA4B2C3880A19D6
:1056C00013711B0A5371A41CA4B200680028EED108
:1056D000084602F469F50AE021780A23BDF81C2087
:1056E000384602F463F502E0BDF81C006080074B09
:1056F00014A240210020009502F446F5062D03D0A7
:1057000000200BB0BDE8F08F0120FAE792500101B4
:10571000523A333A5B25735D20656E7465722C20B6
:1057200073683D307825782C2065683D3078257881
:105730002C20747970653D307825780A00000000CF
:10574000C40E8000523A333A5B25735D2065786958
:10575000742C207374617475733D307825780A0059
:105760002DE9F04F85B081460E46484602F412F509
:10577000801E1FFA80FAD0460024B0887188CDE9D7
:105780000010574B57A24021002002F4FDF470880E
:10579000B188DFF874B1884211D880B17088049064
:1057A000002002900390019001AB02AA04A9484690
:1057B000FFF70EFE0546280003D00A2542E001252A
:1057C00040E0B088BDF81010884232D30221182082
:1057D0002AF47AD30746012000900023FA1DB91D50
:1057E00002A802F4E5F40546280007D040F24E2353
:1057F00046A22946BDF8100002F4DCF4BDF8100002
:10580000B88004B9BC79B879A04203D038462AF4EC
:10581000DBD117E05BF829003946603002F4BEF4B2
:10582000A8EB0400801E1FFA80F8BDF81000401C91
:105830000490B188BDF81000814203D310B1A01CC0
:105840008045B1D25BF82900006E18B1002018B174
:105850009DB334E00120FAE70026AAEB08081FFAFE
:1058600088F00090062000EB092305220421484619
:105870002CF4DAD60746022C08D0022078707888FB
:10588000404478805BF82900046E10E00120F5E7C1
:10589000A188B8198180B61CB6B2B819A279001DCA
:1058A000E11DFCF72FFCA079304486B22468002C5F
:1058B000EED1384602F478F407E0FFE70A25728853
:1058C00031782B46484602F471F4054B13A240216F
:1058D0000020009502F458F405B00020BDE8F08FD8
:1058E00079500101523A333A5B25735D20656E743D
:1058F00065722C2073683D307825782C2065683DD2
:10590000307825780A000000C40E8000617474733A
:105910005F70617463682E6300000000523A333A8E
:105920005B25735D20657869742C207374617475D0
:10593000733D307825780A002DE9F04F87B0834613
:10594000DDF844900C4615469A460026B4F80080CF
:105950000027019701AB4A4621465846FFF738FD1C
:1059600010B12888208026E02088298888421BD80A
:10597000002302AA06A94846009702F419F401463A
:1059800029B1208840F269131AA202F413F49DF899
:10599000183002AA5146109802F4FEF308B101260D
:1059A00002E02088401C20802EB920882988884267
:1059B00001D80028CED16EB122884B46002158462E
:1059C00002F4FAF3C6B22088494602F4F7F32880BD
:1059D00026B10AE00A26A4F8008006E02188DDE965
:1059E0001223584602F4ECF3C6B207B03046BDE8C5
:1059F000F08F0000617474735F70617463682E636C
:105A0000000000002DE9F04105460C46FF26217AF2
:105A10001E2905D022480279521E52B200683AE08F
:105A200004F10801284602F4CDF3064635E010F8EB
:105A300032308B422DD11B4E56F82500406F30B3CB
:105A400000273B4618A24021002002F49DF30620C7
:105A500000EB05202AF48ED4C00605D5002717A236
:105A60004021002002F490F321460C3956F825001D
:105A7000743002F493F30020A08001266FB115A2C8
:105A8000402102F481F3284602F49EF305E0012749
:105A9000D7E7521E52B2002AC9DA3046BDE8F0817B
:105AA0007C058000C40E8000523A333A6578656305
:105AB0007574653D307825780A000000523A333A13
:105AC000636F6E6E656374206E6F742063666D0A1B
:105AD00000000000523A333A7374617274206578A2
:105AE00065637574650A00000348024901600D2171
:105AF00041607047D84F01017C0580002DE9F04FCF
:105B00008BB082460C460026002009900A906088DF
:105B10000890251FB0462988A288CDE90121009070
:105B20006D4B6EA24021002002F42EF3288850B95C
:105B3000504602F42FF3801E28806088A188884296
:105B400000D800B90126714850F82A00006E10B143
:105B5000002111B103E00121FBE790F80680002E3F
:105B60005DD104F1080BA088079006A805A909AA31
:105B7000CDE90210CDE900B2A37907AA08A95046E1
:105B8000FFF7DAFE0646300049D1BDF8141088450B
:105B900002D0B8F1000F42D12888001FFB22FB2859
:105BA00000D31046814200D2084687B2022107F195
:105BB0000C002AF489D18146BDF81480BDF820007C
:105BC000A9F80400BDF81C00A9F8060089F80870BF
:105BD0003A4609F109000699FCF794FA2888C01B97
:105BE000001F28804948494650F82A00603002F4D6
:105BF000D5F2BDF81400874202D1504602F4D0F22B
:105C0000BDF81C00411C89B20891A2888A4206D3C3
:105C1000824204D0298808F104008142A3D2062ED2
:105C200048D03A4D55F82A00603002F4BBF2C0B3B8
:105C3000002755F82A100C6E217A091D41431FFADE
:105C400081F8062000EB0A23112204215046CDF8EA
:105C500000802CF4E9D40546A5F80280217A091DBC
:105C6000697018E0A188E8190171090A4171BF1C27
:105C7000BAB2E188A8180171090A4171921C97B261
:105C8000E819227A001D04F10901FCF73BFA207A99
:105C9000384487B22468002CE4D1284602F484F208
:105CA0000BE0FFE721783346BDF82020504602F490
:105CB0007DF202E0BDF820006080074B14A2402175
:105CC0000020009602F460F2062E03D000200BB0F4
:105CD000BDE8F08F0120FAE759500101523A333AFA
:105CE0005B25735D20656E7465722C2073683D3092
:105CF0007825782C2065683D307825782C207265D1
:105D00005F6C656E3D307825780A0000C40E800017
:105D1000523A333A5B25735D20657869742C2073A1
:105D200074617475733D307825780A002DE9F04F61
:105D30008BB082460C460026002009900A906088AD
:105D40000890251FB046A188694BCDE9000169A2E2
:105D50004021002002F418F2288850B9504602F47D
:105D600019F2801E28806088A188884200D800B976
:105D70000126694850F82A00016E11B1002010B1C7
:105D800003E00120FBE791F80680EEBB04F1080B6D
:105D9000A088079006A805AA09A9CDE90220CDE9A7
:105DA00000B1A37907AA08A95046FFF7C5FD06462A
:105DB000300047D1BDF81410884502D0B8F1000F6B
:105DC00040D12888801EFD22FD2800D31046814244
:105DD00000D2084687B2022107F108002AF474D0E5
:105DE0008146BDF81480BDF82000A9F8040089F8A8
:105DF00006703A4609F107000699FCF783F92888EE
:105E0000C01B801E288000E01CE04348494650F833
:105E10002A00603002F4C2F1BDF81400874202D1BA
:105E2000504602F4BDF1BDF81C00411C89B2089136
:105E3000A2888A4206D3824204D0298808F102004F
:105E40008142A5D2062E40D0334D55F82A0060304D
:105E500002F4A8F180B3002755F82A100C6EA1793E
:105E6000891C41431FFA81F8062000EB0A2309220E
:105E700004215046CDF800802CF4D6D30546A5F871
:105E80000280A179891C697010E0A188E81901716C
:105E9000090A4171BF1CBFB2E819A279001DE11DBA
:105EA000FCF730F9A079384487B22468002CECD193
:105EB000284602F479F10BE0FFE721783346BDF87C
:105EC0002020504602F472F102E0BDF8200060800C
:105ED000074B12A240210020009602F455F1062E35
:105EE00003D000200BB0BDE8F08F0120FAE70000DE
:105EF000AE500101523A333A5B25735D20656E74F2
:105F000065722C2073683D307825782C2065683DBB
:105F1000307825780A000000C40E8000523A333AE7
:105F20005B25735D20657869742C207374617475CA
:105F3000733D307825780A002DE9FF5F81460F46D2
:105F40000024A246CDF808A0CDF80CA0584850F87F
:105F50002900603002F426F180463D1F79882888A8
:105F6000544BCDE9001054A24021002002F40CF162
:105F70002888E8BB484602F40DF1401E2880002620
:105F800011E007EB460002AB82880021484602F48C
:105F900013F1C4B2CDF808A0CDF80CA00CB1B046F6
:105FA0003BE0761CB6B27888B042EAD835E007EB21
:105FB00048006B46818801AA484602F401F1C4B248
:105FC0003CBBBDF804002988884200D3084686B24D
:105FD000022106F1080029F477D78346ABF8046064
:105FE00032460BF106000099FCF78CF8304800E0CF
:105FF00013E050F829005946603002F4CFF04846CB
:1060000002F4CEF02888801B288008F101081FFACE
:1060100088F8CDF808A0CDF80CA07888404503D9C1
:10602000288808B1002CC2D044BB484602F4B2F024
:106030002988401A401E86B20025062000EB09235D
:106040000F220421484600962CF4EED28246AAF88C
:106050000260174850F82900066E0AE00AEB0500B6
:10606000B288001DB11DFCF74DF8B088284485B2F8
:106070003668002EF2D1504602F496F04CB1062C50
:1060800007D007EB4800397882882346484602F457
:106090008DF0084B14A240210020009402F474F00B
:1060A000062C03D0002004B0BDE8F09F0120FAE7E1
:1060B000C40E800040500101523A333A5B25735DB3
:1060C00020656E7465722C206E625F68616E646C10
:1060D000653D307825782C2072655F6C656E3D30AB
:1060E0007825780A00000000523A333A5B25735D48
:1060F00020657869742C207374617475733D3078F1
:1061000025780A0010B500210A4C0023002001EB7D
:10611000410202EBC10204EB420222F81030401CA3
:10612000C0B20A28F9D31375491CC9B20A29EDD3A4
:1061300010BD000064D680000A2801D303207047F8
:10614000002100EB400303EBC000064B002203EBF1
:10615000400020F81120491CC9B20A29F9D3027560
:106160000020704764D680003EB505461A20124BC9
:106170001B7899421FD8C1EBC10101EB41030F49C4
:1061800001EB8304627104EB45014989012912D1B5
:1061900000208DF80000221D218902200BF04EFC0A
:1061A000ADF802000120ADF80400641D02946946B8
:1061B000284600F0CEFF3EBD78458000888F8000E5
:1061C000002816D0028800F10801B2F5806F0AD0CD
:1061D000A2F58062013A09D0032A0AD1428A018AD3
:1061E000007900F007B8007900F058B8007900F0A5
:1061F000FFB870472DE9F84F0746894616464FF01D
:10620000000A002430460BF04EFC00282FD0214D10
:10621000DFF8848011E0C4EBC40000EB400005EB24
:106220008000031D0189052248460BF022FC8246AE
:10623000BAF1000F05D1641CE4B298F80000844262
:10624000E9D3BAF1030F14D000208DF800009DF8B7
:10625000000000280BD0C4EBC40000EB400055F850
:106260002010002903D08DF8017068468847BDE8EA
:10627000F88FC4EBC40000EB400005EB800000EB9E
:1062800047004681012E03D002208DF80000DEE792
:106290000120FAE7888F8000784580002DE9F043DF
:1062A00085B081460E78ADF8006000278DF8047047
:1062B0000024294DDFF8A4800EE0C4EBC40000EBFD
:1062C000400005EB8002131D1189052230460BF0BA
:1062D000D0FB28B9641CE4B298F800108C42ECD3CF
:1062E000012102280ED0032817D0042823D0ADF8AE
:1062F00002708DF804106946484600F05DFF05B055
:10630000BDE8F083ADF80210C4EBC40000EB400020
:1063100005EB8000401D0290EDE70220ADF8020081
:10632000C4EBC40000EB400005EB800000EB49002B
:106330000A300290DFE70720ADF80200C4EBC4008A
:1063400000EB400005EB80011E3103A80BF0B5FB0C
:1063500003A80290CFE70000888F80007845800076
:1063600070B506460D460020002E03D0012D03D93E
:10637000012070BD022070BD002426E0C4EBC400E3
:1063800000EB4001134806EBC40200EB810006CA93
:10639000C0E900120021018100F1080282620E4A68
:1063A000C262021D0263052280F8342080F8521078
:1063B00080F853100849891C81632830074900F090
:1063C000D7FE0028D7D1641CE4B2AC42D6D304492E
:1063D0000D7070BD888F8000A0460101C161000171
:1063E000784580000148008970470000888F800050
:1063F0002DE9FC4706460F46B7F800800020002430
:10640000ADF8008000218DF80210244DDFF8909047
:106410000EE0C4EBC40000EB400005EB8000031D60
:106420000189052240460BF024FB28B9641CE4B224
:1064300099F800108C42ECD303281AD001208DF873
:1064400002009DF8020001280DD09DF8040050B113
:10645000C4EBC40000EB400055F8201019B18DF8D2
:10646000056001A888476946304600F0BFFEBDE8D8
:10647000FC87B86807F086FFC4EBC40101EB41015B
:1064800005EB810101EB46014881012803D0022080
:106490008DF80400D5E70120FAE70000888F80001E
:1064A00078458000F0B585B01249A1F11E000CF0CE
:1064B00022FE104F2A3F3872002407F11D06305D7E
:1064C00090B13A7A00212046FFF74EFE05461A2D7C
:1064D0000AD04DB1142208496846FBF713FEADF807
:1064E00004506846FDF71CFC641CE4B2052CE6D39E
:1064F00005B0F0BDE64580006449010110B50A4CC5
:106500000278A4F11D03012A997807D0022A04D148
:10651000407800222254491E997010BD4078012213
:106520002254491C997010BDD94580001FB50F48F1
:1065300090F80201002818D068464DF4FBD6DDE93A
:1065400000010B4CCDE90201E1680844094920F043
:106550007040486008464EF483D1607818B1BDE8B9
:106560001F400CF07BB80CF095F81FBDC01A8000DE
:1065700084498000B41A800002460020002152F8AD
:1065800021300BB1401CC0B2491CC9B20C29F6D352
:10659000704710B509F068FDBDE8104003F006BC77
:1065A00009F0F8BA10B58AB008A80DF03BFABDF8AA
:1065B00022209DF8210009999DF82030CDE9023074
:1065C000CDE9042128A040F23F51CDE90010304B25
:1065D00030A236A10220FEF791F80CF02DFD0CF050
:1065E00099FD03F03DF806F04DFF00F0EBF801F0E7
:1065F000BFF906F085F92F4CA07EE17E227F637FF4
:10660000CDE90432CDE90610A07FE17F2AA240F255
:106610004953CDE90032CDE902101D4B1DA223A143
:106620000220FEF76BF894F8460094F8471094F8AF
:10663000482094F84930CDE90432CDE9061094F8A9
:106640004A0094F84B1028A240F25153CDE9003291
:10665000CDE902100E4B0FA214A10220FEF74EF856
:10666000FEF7E4F90AB010BD476F6F646978204205
:106670004C452053444B205625642E25642E25641A
:106680002028636F6D6D6974202578290000000053
:106690004C4D01012E2E5C5372635C757365725C08
:1066A000757365725F6170702E6300004E4F5F54AA
:1066B0004147000060D280004C6F63616C206869C4
:1066C000647320426F61726420253032583A25305D
:1066D00032583A253032583A253032583A2530323D
:1066E000583A253032582E004C6F63616C20687226
:1066F0007320426F61726420253032583A2530325F
:10670000583A253032583A253032583A25303258E6
:106710003A253032582E00002DE9F04105468846D2
:10672000284669F40DD5C0B22449097888420DD2B3
:1067300000EB4000213040F400404246AC210AF01A
:10674000B7FC0446200032D0012430E069F43CD587
:10675000C7B207EB470606F1200040F400402A4686
:1067600007210AF0A5FC10B10120BDE8F0813846F0
:1067700075F47AD606F1210040F400404246AC217F
:106780000AF096FC0446200001D00120EDE72236F5
:1067900046F400400AF0E2FA0949C7EBC70009686D
:1067A000084429680160A9888180A97981711CB990
:1067B00041462846FCF7A0FF2046D6E73823800054
:1067C0003C23800001480078704700007C45800031
:1067D0007CB50F48C068019001258DF805502C0349
:1067E000009407208DF8060069460320FDF758FC49
:1067F00021460320FDF712FD064A30B1002010703B
:1068000021460320FDF74EFB7CBD1570F8E7000024
:10681000C44801017C4580000020704710B50BF092
:1068200093FF0BF0C3FF0BF02DFF0BF093FB0DF06C
:1068300095FA00F063FE0BF0CDFF00F0ADFDBDE872
:10684000104000F08BBD0BF009BB10B508F07EF9CD
:1068500009F016FD08F08AF908F09AFD08F0EAF947
:1068600007F01AFDFFF740F903F08AFE0CF046F836
:106870000CF024FEBDE81040FFF744BC0148FFF7D0
:106880007BBE0000B413800010B5FFF7DCFF0549A4
:1068900003480860BDE81040034875F457900000B5
:1068A00017B8800474C500A00087930310B5044690
:1068B000002C0CD0204600F0EDFC002807D1044944
:1068C0004968002903D02046BDE81040084710BDA4
:1068D0005847800030B589B00446002C33D0864933
:1068E00020790870218840F20233A1F202329942E5
:1068F0007ED037DC804DB1F5027FA5F106056CD066
:1069000023DCB1F5807F4CD0A1F5007107391AD195
:106910007AA140F29242CDE9002102907E4B7FA203
:1069200084A10320FDF7EAFE608800283ED083A101
:1069300040F29E42CDE900210290774B77A27DA1E3
:106940000320FDF7DBFE09B030BDA1F50071093968
:106950007ED0F829F7D109B004F10801BDE8304034
:10696000FDF770B8032A79D0042A6CD0A2F54072E2
:10697000FE3A6FD0012AE6D1608800286BD076A15C
:1069800040F2E442CDE900210290634B63A269A189
:106990000320FDF7B3FEA07809B0BDE83040FBF757
:1069A00053BC09B0BDE83040FFF7FCBD72A040F217
:1069B0009541CDE90010584B58A25EA10320FDF788
:1069C0009DFE68790028BED020790028BBD168716F
:1069D00009B0BDE8304006F0B1BD217A6BA240F2AB
:1069E000A343CDE90032CDE902014B4B4BA200E0BD
:1069F00023E050A10320FDF781FE207A0028A2D1D8
:106A0000687A01280FD0022812D0207969A140F2BB
:106A1000B142CDE9002102903F4B40A245A10320A5
:106A2000FDF76CFE8FE709B0BDE8304006F056BCBC
:106A300009B0BDE8304006F0D3B9217A09B0BDE80D
:106A40003040FDF7CDB809B00121BDE8304003E08A
:106A50001CE003E032E037E060F4A6906088002894
:106A6000E0D1A089228900EB80004100608957A312
:106A7000CDE90132CDE9030140F2C6400090264B3A
:106A800026A22CA10220FDF739FE5CE7207A617A6C
:106A9000A27AE37ACDE90432CDE90610207B617B4E
:106AA0005A4A40F2CE43CDE90032CDE902101A4BEA
:106AB0001AA220A10320FDF721FE44E709B0611DC1
:106AC000BDE83040FDF72ABF51A040F2DE41CDE9DC
:106AD0000010114B11A217A10320FDF70FFE207922
:106AE00001F082FB816A41F00201816209B0BDE8D8
:106AF0003040FDF7EFBE0000C2458000416476657E
:106B00007274696E67207374617274656420696E53
:106B10006465782025640000294D01012E2E5C5308
:106B200072635C757365725C757365725F617070BA
:106B30002E6300004E4F5F5441470000416476656C
:106B40007274696E67206661696C656428307825A7
:106B5000303278292E00000050616972696E67201A
:106B60006661696C656420666F72206572726F720F
:106B700020307825782E0000416476657274696E45
:106B80006720737563636573730000004164766505
:106B900072746973696E672073746F7020737461A7
:106BA0007475732025642C726561736F6E20256483
:106BB0002E0000004164766572746973696E672007
:106BC00074696D656F75742025642E00436F6E6E59
:106BD000656374696F6E2075706461746520636F9E
:106BE0006D706C657465642C20696E74766C2025FC
:106BF0006478312E32356D732C206C7463792025C6
:106C0000642C20746F2025646D730000C857010147
:106C10004C696E6B20686173206265656E207375C8
:106C2000636365737366756C6C7920656E637279E6
:106C3000707465642E0000002DE9FC4104460025B7
:106C4000EFF311863348017833480068C0F302201F
:106C5000401C012282408818C0B280F3118869F478
:106C600045D30746002000900190B4B10622694642
:106C70002046FBF772FA48B1A079012806D80ED158
:106C800061794FF00302B2EB911F08D023A21021CB
:106C9000002001F479F21D2532E0022530E0DFF812
:106CA000948010B1012822D02AE02246062101203A
:106CB00000F0D8FA98F81C0120F0010088F81C01B7
:106CC000B8F8020040F00200A8F8020006234B22A8
:106CD000072140F6B35064F42DD630B1216801602D
:106CE000A188818064F46CD60AE0102508E0204673
:106CF00061F44AD598F81C0140F0010088F81C01A5
:106D0000384669F4BDD2F0B280F311882846BDE858
:106D1000FC81000002E400E00CED00E0523A313A60
:106D20006164647220697320696E76616C69640ABB
:106D3000000000007C2780002DE9F84307460D463F
:106D4000EFF311865948017859480068C0F30220D2
:106D5000401C012282408818C0B280F3118869F477
:106D6000C5D28046052F06D352A21021002001F47F
:106D70000BF2152487E09DB15148C7EBC70100EB2A
:106D80008104E06860B1607A08B167F409D2607A82
:106D900068B14CA21021002001F4F6F10F2472E03A
:106DA0004BA21021002001F4EFF102246BE02069D6
:106DB000F8B9E068017841B1012910D047A210214B
:106DC000002001F4E1F123245DE08078400710D435
:106DD00045A21021002001F4D7F1232453E080784C
:106DE000800706D443A21021002001F4CDF1232412
:106DF00049E0E06841888A0704D50278012A01D178
:106E000062691AB10278022A07D008E03CA2102178
:106E1000002001F4B9F1252435E0A26962B1090727
:106E200011D5298809B180290DD938A21021002057
:106E300001F4AAF1262426E037A21021002001F453
:106E4000A3F124241FE0407802280CD1288818B12F
:106E500044F25061884206D932A21021002001F488
:106E600093F126240FE0E06928B90021042064F49E
:106E70003BD5E061B8B1E06929680160394600207E
:106E800069F490D300243B4629A2102100200094ED
:106E900001F47AF1404669F4F3D1F0B280F311883D
:106EA0002046BDE8F8831024EDE7000002E400E08E
:106EB0000CED00E0523A313A453A310A0000000048
:106EC0007C278000523A313A453A330A00000000EC
:106ED000523A313A453A320A00000000523A313A09
:106EE000453A360A00000000523A313A453A340A2F
:106EF00000000000523A313A453A350A00000000DD
:106F0000523A313A453A370A00000000523A313AD3
:106F1000453A390A00000000523A313A453A380AF7
:106F200000000000523A313A453A31300A00000080
:106F3000523A313A6164765F73746172745B2564AE
:106F40005D3A20453A3078253032780A000000005A
:106F500070B5E6B0EFF31184154801781548006864
:106F6000C0F30220401C012282408818C0B280F386
:106F7000118869F4BBD106465EF4C2D26AF464D0CB
:106F800085B225B94FF4B5710B48FBF7D4F84FF42F
:106F9000CA7101A8FBF7CFF801A861F487D3304686
:106FA00069F46ED1E0B280F3118866B0284670BDF6
:106FB00002E400E00CED00E0E0D48000044A52F866
:106FC000200050F8472F0A608088888070470000B2
:106FD000CC0D80002DE9F04104460026EFF3118529
:106FE0001248017812480068C0F30220401C0122B8
:106FF00082408818C0B280F3118869F477D10746BF
:1070000094B10C482168C0F872126168C0F8761219
:10701000012061F46FD0384669F432D1E8B280F3D0
:1070200011883046BDE8F0810226F1E702E400E075
:107030000CED00E07C2780002DE9F84304460D4666
:107040000027EFF311862448017824480068C0F334
:107050000220401C012282408818C0B280F31188AF
:1070600069F444D1804623461DA2102100200095DA
:1070700001F48AF07DB1601E4AF2B811884206D34D
:1070800020A21021002001F47FF001271AE09528AA
:1070900003D2962401E04FF461741F48A0F8044124
:1070A00035B190F81C1141F0040180F81C1105E085
:1070B00090F81C1121F0040180F81C11418841F066
:1070C00002014180404669F4DBD0F0B280F31188C0
:1070D0003846BDE8F883000002E400E00CED00E073
:1070E000523A313A72656E65775F6475723A25641B
:1070F0002C20656E61626C655F666C61673A256421
:107100000A000000523A313A696E76616C69642077
:10711000706172616D0A00007C2780000A2805D228
:10712000034A002152F8200080F88F1070470000B9
:10713000C40E800070B504460D4620460BF09CFB43
:10714000002805D129462046BDE8704061F43297F9
:1071500070BD70B504460D4620460BF08DFB00282F
:1071600004D12946204662F4D1D780B270BD000018
:1071700070B505460E46002D05D00D4867F4F4D1D4
:1071800084B214B110E0022070BD142074F466D6ED
:10719000014659B10D61CE60064A50780871401C15
:1071A0005070101D07F0F3F8204670BD102070BD20
:1071B000C04F0101F047800070B504460D462046DF
:1071C0000BF05AFB002805D129462046BDE8704047
:1071D00063F4E29070BD10B5FEF7AEFF80B210BD53
:1071E00010B50122FEF76EF980B210BD70B50446ED
:1071F0000D4620460BF040FB002804D129462046CE
:1072000063F4B6D380B270BD00B58BB009490120DC
:107210000870FF22282101A8FAF786FF4FF480703A
:10722000ADF804000020ADF8060001A8FFF73EFB12
:107230000BB000BD5847800010B506480068002814
:1072400000D08047FEF752DA08B1012010BD0020BF
:1072500010BD0000E449800010B540F4404009F042
:107260007DFD10BD10B540F4404009F021FF10BD78
:107270000449016004494160044981600449C160D6
:107280007047000041C2060015C206006572000189
:107290005972000170B50446002C1FD04FF6FF73E1
:1072A0001946228840F20155A2F201504FF480762F
:1072B000AA424CD01BDC40F20245A2F20240AA4294
:1072C00034D00DDCA2F54072013A25D0012A23D03A
:1072D000FF2A29D0B2422ED121892CE0002070BD96
:1072E000012825D0022825D0FE2824D12AE0042810
:1072F0002DD006DC01282AD0022828D003281AD154
:1073000025E0052823D0062821D0B04213D12046FD
:1073100002F0E8FF002070BD204603F017FC204675
:1073200003F090FA002070BD218904E0218902E079
:10733000618900E0218A99420ED0204603F016FCB4
:10734000012070BD204603F011FB002070BD2046D7
:1073500003F088FA002070BD002070BD10B5252113
:107360000B480AF0ADFC08210A480AF0A3FC0221F0
:10737000084840300AF098FCFFF767FA0520FFF74D
:107380000FF9FFF706F9BDE8104000F0CDBA000094
:107390000C418000344280000449034808600549DC
:1073A0000348086070470000399100010C228000FA
:1073B000759300011822800070B50026150A0E484A
:1073C00005EB450200EB0214098821800120A07022
:1073D0002846FFF7A3FE002068F452D7074801684B
:1073E00029B10B681BB1228800212846984768F410
:1073F0007DD7304670BD0000D42E8000B8228000BA
:107400003EB500241D0A0A78122A02D0132A04D09D
:1074100006E000208DF8000002E001208DF8000059
:107420008888ADF804004888ADF80200891D0291F3
:10743000002068F425D70B48016829B18A691AB180
:1074400069462846904708E09DF80000012804D1CD
:10745000BDF804102846FFF76DFE68F447D72046B4
:107460003EBD0000B4228000014800787047000053
:10747000FC4980007CB50E46150A00200090019062
:107480006946284672F47AD79DF806206946284650
:1074900002F038FF0446CCB162F478D5C0B162F492
:1074A00075D5C01C81B23288002320466DF456D1B8
:1074B000694628460BF05EFA40B106A24021002042
:1074C00000F462F6214668465EF4BED200207CBD20
:1074D0000020E7E7523A333A7361766520636363CD
:1074E000640A00007CB5DDE90654CDE9005466F479
:1074F00079D3BDE87C400AF06BBB0000024901482B
:1075000008607047E57400014823800010B588B01A
:10751000044666F4F5D50020079007A854F49CD4DF
:107520000798FFF7A5FE2068019060680290A068A8
:107530000390E0680490208AADF81400608AADF8EA
:107540001600A08AADF81800E08AADF81A0001A86C
:1075500054F4ACD454F48CD40348016801614168FC
:10756000416108B010BD0000300100B010B58AB014
:107570000446FF2228216846FAF7D6FD40F2027140
:10758000ADF800100021ADF802108DF804406846F7
:10759000FFF78CF90AB010BD2DE9F0410446002533
:1075A000EFF311862748017827480068C0F30220CE
:1075B000401C012282408818C0B280F3118868F410
:1075C00095D607462CB12179C81F0A2803D3012577
:1075D0002BE0022529E02078022801D0052804D1DB
:1075E000E278520701D401251FE003280AD1E2788E
:1075F000530701D5120701D4012516E0102901D245
:10760000012512E0042801D0052807D1607940F057
:1076100004006071A07940F00400A0710B4821685B
:107620000160A1888180A1798171012060F488D1F5
:10763000384668F425D6F0B280F311882846BDE8B4
:10764000F081000002E400E00CED00E0F023800097
:1076500030B58568027B002D02D0002001210CE0AE
:10766000104630BDCB0801F00704EB5CE340DB07BC
:1076700001D0401CC0B2491CC9B28A42F2D830BD08
:1076800000230849496808E0CA88824204D80A8968
:10769000824201D3CB6802E009680029F4D1184680
:1076A00070470000F047800001460548406803E04D
:1076B00002798A4202D000680028F9D170470000A0
:1076C000F047800070B5104E3078FFF7EDFF0446AC
:1076D000200006D0206962F43DD70546280002D07C
:1076E0000DE00C2070BD2069FFF7B2FF0146206954
:1076F00002681288E280006800880844208130789F
:10770000401C3070E8B270BDF047800070B5194879
:107710000468194D2878002801D0002070BD4FF072
:10772000806071F4E5D4FFF7E9DB600872F4F0D310
:10773000124908608817114901262C390860104940
:107740007006C1F8FC01C8674FF03041086B40F08B
:1077500007000863094C303C206840F4E0202060BA
:10776000FFF70EDC2E70206820F4E020206001205E
:1077700070BD00006C248000DC49800070C500A052
:1077800084E000E070B50024EFF31086012080F360
:107790001088FFF710DC104D28B102242968B9B118
:1077A0000220884714E0FFF747FD20B1296879B12E
:1077B000002088470CE0FFF7A9FF28B102242968C0
:1077C00031B10220884703E0296809B100208847C9
:1077D00086F31088204670BD5C24800010B5084AEE
:1077E0001378002B01D00F2010BD31B15060044838
:1077F000243000F007F8002010BD022010BD00006A
:10780000584780002DE9FC4705460C46FFF706F86F
:1078100068F46CD507463648006800B180473549A2
:1078200001200BF0FFFE344902200BF0FBFE01208B
:10783000FAF760FCA08E81B2206B02F0A3FADFF8A9
:10784000BC90DFF8BC80E16999F8000098F800204E
:107850000244B1FBF2F1CEB216FB00F1A06964F470
:10786000A5D5286863F434D168685FF441D02869ED
:1078700066F4E0D4A86861F4D9D2E86861F47ED3F4
:1078800020484BF407D720484BF40AD71F484BF445
:107890000DD71F4854F436D31E484BF4B1D61E48BA
:1078A0004BF4B4D61D484BF4B7D61D4864F452D5FA
:1078B0004FF0806071F41CD42046FFF727FED4E916
:1078C0000A01CDE9000199F80010A06916FB01003A
:1078D00098F8001016FB01F1D4E90823114C246834
:1078E000A047384668F4CCD4BDE8FC4764F416964B
:1078F0008026800039380600DD37060029D50700CC
:107900002AD50700119F0700B9C3060065C4060009
:10791000EDAF070025ED060045ED060065ED06001C
:10792000799B070048238000014901204870704777
:1079300058468000034900EB800001EB80008088FE
:107940007047000054488000034A00EB800002EBBF
:1079500080008180704700005448800010B500F01E
:10796000DFF800F0C1F8BDE8104000F07BB800007F
:1079700030B585B000284AD0FFF7EAFA04464CB18A
:10798000142224496846FAF7BDFBADF80440684666
:10799000FCF7C6F961F42CD1044654B114221D49F8
:1079A00014316846FAF7AEFBADF804406846FCF7C0
:1079B000B7F9194CA06A20F0010020F00200A06283
:1079C0000025C4F82150A4F82550144A06214FF48C
:1079D000804009F06DFB606D20F0010020F0020096
:1079E0006065C4F84D50A4F851500C4A062144F289
:1079F000010009F05DFB0AA040F2C721CDE90010AB
:107A0000044B10A2103B15A10320FCF777FE05B034
:107A100030BD0000704A010160D28000E6480101DB
:107A2000426F6E64696E6720616E64205768697486
:107A3000656C6973742061726520636C6561726541
:107A4000640000002E2E5C5372635C757365725C7B
:107A5000757365725F6170702E6300004E4F5F54E6
:107A60004147000000B58FB003228DF800204FF48D
:107A70008050019005218DF8081001208DF8090033
:107A800000238DF80A308DF80C20430304938DF801
:107A900014108DF815008DF816008DF81820C3030A
:107AA00007938DF820108DF821008DF822208DF895
:107AB000242082030A928DF82C108DF82D000222CA
:107AC0008DF82E2004238DF830300D928DF838106B
:107AD0008DF839008DF83A30024A6846FCF736FDD9
