:020000040100F9
:1020000000000430ED210001773E00010141800015
:10201000753E0001FD210001593F00010000000054
:1020200000000000000000000000000015418000DA
:10203000FF21000100000000AD3E0001B33E0001A1
:1020400000F002F800F0C2F80AA090E8000C824408
:102050008344AAF10107DA4501D100F0B7F8AFF2E5
:10206000090EBAE80F0013F0010F18BFFB1A43F076
:102070000103184754920000A49200000A444FF054
:10208000000C10F8013B13F0070408BF10F8014BD7
:102090001D1108BF10F8015B641E05D010F8016B1C
:1020A000641E01F8016BF9D113F0080F1EBF10F880
:1020B000014BAD1C0C1B09D16D1E58BF01F801CBA3
:1020C000FAD505E014F8016B01F8016B6D1EF9D526
:1020D0009142D6D370470000103A24BF78C878C127
:1020E000FAD8520724BF30C830C144BF04680C601E
:1020F000704700000023002400250026103A28BF66
:1021000078C1FBD8520728BF30C148BF0B60704769
:102110006E2900F01084702900F0B581662908F05E
:102120006587652908F06287672908F05F8761295C
:1021300008F05E8703681B0A28BF41F08001692907
:1021400000F02681642900F02381752900F02081A8
:102150006F2900F01085782900F08181E92900F0CD
:10216000AB84E42900F0A884F52900F0A584EF29C8
:1021700000F00D85F82900F080810368DB0928BF95
:1021800041F08001632900F01A84732900F01F8454
:10219000E32901F0E380F32901F0E8800020704793
:1021A0001FB508F0EBFE01F011F90400002000213A
:1021B00008F0A0F9401C60600020002108F084F9BC
:1021C000E06000F03BFB1FBD10B510BDDFF80CD088
:1021D000FFF7E6FF05F058FF01F0AEF9000004300C
:1021E00003B4FFF7F1FF03BC01F0C3FF01488047D0
:1021F00001480047293F0001F9830001FEE7FEE79F
:1022000058585247010000001555000000200001F9
:10221000002000016EED52490101000000000000A5
:1022200000000000000000000000000000000000AE
:10223000000000000000000000000000000000009E
:102240007CB51D4616460C00009001D02044401E6F
:10225000074B7B442A4669460190304600F085FBD7
:1022600005461CB10020694600F092FB28467CBD63
:10227000450700000FB4044910B503AA029800F006
:10228000ABFB10BC5DF814FBF06500300FB41CB55F
:10229000084B06AA7B4469460090059800F065FB50
:1022A00004460020694600F073FB20461CBC5DF824
:1022B00014FB0000F90600000FB47CB50C0009AA5D
:1022C000009001D02044401E084B7B446946019099
:1022D000089800F04AFB05461CB10020694600F052
:1022E00057FB28467CBC5DF814FB0000CD060000BF
:1022F00070B5044685690068C10601D5302600E046
:102300002026C00707D070BDD4E901213046904790
:10231000206A401C20626D1EF6D570BD70B5044663
:1023200085690078C00707D170BDD4E9012120205C
:102330009047206A401C20626D1EF6D570BD70B5B6
:102340000C460546012A05D02878800600D5EA69A2
:10235000002302E0012305E05B1C934202D2E05C13
:102360000028F9D1A869E618C01AA861286A18449B
:1023700028622846FFF7BCFF04E0D5E9012114F8E4
:10238000010B9047B442F8D32846FFF7C7FF70BD52
:102390002DE9F0410646002410687529314616A53E
:1023A00010D000F05DFA002802DA404213A507E0E1
:1023B00031688A0701D512A502E0490704D511A5A5
:1023C000012401E000F055FA00210A2206F1240759
:1023D00009E0B0FBF2FCB0FBF2F302FB1C00303072
:1023E00078541846491C0028F3D123462A46304623
:1023F000BDE8F04100F046BA000000002D000000EA
:102400002B00000020000000F0B40D4601880905F3
:1024100002D5214C7C4402E01F4C7C440E34002148
:1024200000F1240608E002F00F071209E75D42EA16
:1024300003721B097754491C52EA0307F3D102784F
:102440000023120704D5702D06D009B102231134E0
:102450002246F0BC00F016BA01231034F8E770B53C
:1024600004460D462146106800F003FA024629464C
:102470002046BDE870400023C6E7D21D22F00703C6
:10248000D3E90023C0E70368126843F02003036028
:102490000823C3610023B7E7908D00002DE9F05FAA
:1024A000894604464FF0000ADFF874B1FB44C0F8D7
:1024B00020A02046E1688847002874D0252806D04F
:1024C000D4E901219047206A401C2062F1E70026F0
:1024D0005F462046E16888472028054607DB312D06
:1024E00005D2781910F8200C08B10643F1E7B007BF
:1024F00001D526F00406C4F81CA00027C4F818A0D3
:102500002A2D09D0284601F02DFE38B304EB8708A8
:10251000303DC8F8185019E059F8041B204604EB68
:1025200087029161E1688847012F054618D1E0696B
:10253000002820DA26F020061DE0D8F8180000EB6D
:10254000800005EB40003038C8F818002046E168EC
:102550008847054601F006FE0028EED1012F0AD07B
:102560002E2D08D12046E16888477F1C0546022FA2
:1025700046F02006C4DBA069002803DA404246F09A
:102580000106A061F00701D026F010066C2D0BD0DB
:10259000682D09D04C2D39D06A2D35D0742D35D009
:1025A0007A2D33D016E038E0E1682F462046884780
:1025B000B842054609D16C2F26D04FF48060E168FF
:1025C000064320468847054604E06C2F1AD04FF496
:1025D000807006430DB3A5F14100192802D82035BB
:1025E00046F400664A462946204626604E46FFF7D6
:1025F0008FFD80B101280BD0F61D26F0070000F1F9
:10260000080956E74020E4E78020D8E70020D6E715
:1026100006F104094DE7284652E7206ABDE8F09F1D
:10262000208D000040EA010310B59B070FD1042A5A
:102630000DD310C808C9121F9C42F8D020BA19BA8D
:10264000884201D9012010BD4FF0FF3010BD1AB1F2
:10265000D30703D0521C07E0002010BD10F8013B47
:1026600011F8014B1B1B07D110F8013B11F8014B6E
:102670001B1B01D1921EF1D1184610BD10B5431C91
:1026800002E010F8011B71B18107FAD14FF001325D
:1026900002C88C1A8C4314EAC211F9D0C01A0A0677
:1026A00003D0C01E10BDC01A10BD0A0401D0801E88
:1026B00010BD0902FCD0401E10BD032A40F230803C
:1026C00010F0030C00F0158011F8013BBCF1020F73
:1026D000624498BF11F801CB00F8013B38BF11F8F4
:1026E000013BA2F1040298BF00F801CB38BF00F80B
:1026F000013B11F0030300F02580083AC0F0088088
:1027000051F8043B083A51F804CBA0E80810F5E76B
:10271000121D5CBF51F8043B40F8043BAFF300804E
:10272000D20724BF11F8013B11F801CB48BF11F8C3
:10273000012B24BF00F8013B00F801CB48BF00F893
:10274000012B704710B5203AC0F00B80B1E818504B
:10275000203AA0E81850B1E81850A0E81850BFF48B
:10276000F5AF5FEA027C24BFB1E81850A0E818502A
:1027700044BF18C918C0BDE810405FEA827C24BF7E
:1027800051F8043B40F8043B08BF7047D20728BF0C
:1027900031F8023B48BF11F8012B28BF20F8023B5B
:1027A00048BF00F8012B70474FF000020429C0F029
:1027B000128010F0030C00F01B80CCF1040CBCF173
:1027C000020F18BF00F8012BA8BF20F8022BA1EBC5
:1027D0000C0100F00DB85FEAC17C24BF00F8012BAA
:1027E00000F8012B48BF00F8012B70474FF00002A2
:1027F00000B5134694469646203922BFA0E80C50F7
:10280000A0E80C50B1F12001BFF4F7AF090728BFD1
:10281000A0E80C5048BF0CC05DF804EB890028BF4D
:1028200040F8042B08BF704748BF20F8022B11F076
:10283000804F18BF00F8012B7047000070B5064CA0
:102840007C44064D7D4403E0206820448047241DDD
:10285000AC42F9D170BD0000008C0000008C00007B
:1028600009684A0501D540B27047C905FCD500B2D8
:10287000704709684A0501D5C0B27047C905FCD543
:1028800080B270472DE9F0470D46994692460446BE
:1028900000F124080168880604D5E06921F01001E0
:1028A000216000E00120A84201DD471B00E0002775
:1028B000A1697A1902EB0900081AA0612078C00604
:1028C00002D42046FFF714FD002608E0D4E90121D8
:1028D0001AF806009047206A401C761C20624E457C
:1028E000F4DB2078C0060AD52046FFF701FD06E09C
:1028F000D4E9012130209047206A401C2062381E14
:10290000A7F10107F4DC07E0D4E9012118F805007C
:102910009047206A401C2062281EA5F10105F3DCC7
:102920002046FFF7FBFC2078000602D50220BDE818
:10293000F0870120FBE711680268006A530501D5A2
:1029400008700AE0D30501D5088006E0130603D518
:10295000C217C1E9000200E00860012070470000D2
:1029600001694A1C02610878704700B58FB0CDE953
:1029700001310021059105497944CDE90310114643
:102980006846FFF78BFD0FB000BD0000E5FFFFFFBD
:102990000A6802F8010B0A607047D1E900239A42E5
:1029A00002D2531C0B601070704710B5436913B10D
:1029B000AFF3008001E0FFF7C2FC012010BD1278E8
:1029C00000F124010A7000224A700122EDE711682B
:1029D0004FF0FF32E9E70000074B70B50D467B442E
:1029E000FFF7C3FF0446284600F0C4FC10B14FF0C7
:1029F000FF3070BD204670BD6B3B00002DE9FF5FCE
:102A000015468A460446DFF8AC80F8440027D8E92A
:102A100000103E46CDE9001010E03AF816106A4664
:102A200002A800F0ABFC411C07D02178890603D531
:102A3000E269391891420DD80744761C2078800647
:102A400002D5E069B84205DDAE42E6DB3AF8160091
:102A50000028E2D1A069C01BA0612046FFF748FC16
:102A6000D8E90010CDE90010002017E03AF818105E
:102A70006A4602A800F082FCB0F1FF3F81460BD00D
:102A800000250DF1080B05E0D4E901211BF8050034
:102A900090476D1C4D45F7D308F10100B0428046C8
:102AA000E4DB206A384420622046FFF737FCBDE8AB
:102AB000FF9F0000D68700002DE9F0418046D21D1F
:102AC00022F007020025D2E90002F52915A614D04C
:102AD000011E72F1000106DA0023D0EB030063EB64
:102AE000020211A608E0D8F800108B0701D50FA646
:102AF00002E0490701D50EA601251146002408F180
:102B0000240704E000F04EF830323A55641C50EAD5
:102B10000102F7D12B46324621464046BDE8F0413E
:102B2000FFF7B0BE000000002D0000002B000000E9
:102B30002000000030B4002100F1240408E002F07D
:102B40000705D208303542EA4372DB086554491C58
:102B500052EA0305F3D10468002310A2250707D524
:102B6000A40600D421B1C46901230DA2641EC4616E
:102B700030BCFFF787BE10B5044621461068FFF74A
:102B800078FE02462046BDE810400023D2E7D21D61
:102B900022F00701D1E90023CCE70000000000008B
:102BA0003000000030B5B0F10A024FEA900E71F12A
:102BB00000034EEA817EB0EB0E0061EB91014FEA1B
:102BC000101E4EEA017E10EB0E0041EB11114FEA90
:102BD000102E4EEA016E10EB0E0041EB11214FEA70
:102BE000104E4EEA014E10EB0E0041EB1141401821
:102BF00041F100014FEAD00040EA41704FEAD101B3
:102C000010EB80054FEA810444EA907444EB010420
:102C10006D1944EB0404521BA3414FF0000348BF5D
:102C20000A3200D530BD401C41F1000130BD704773
:102C30002DE9FF4F0C461E464FF0FF378BB0D2E90F
:102C40000001DDF860800A908A46C1F30A5505B993
:102C50003D46002108464FF00000BAF1000F00F495
:102C6000400005DA00EB80004FF4400101EA50001B
:102C70004FEA9059B9F1010F00DDB9460A9850EAC0
:102C80004A000ED044F61050A5F2FF3545432F14EC
:102C9000B8F1000F1ED07542291E1EDDC9F10002D9
:102CA0001CE0B8F1010F4FF0000001D0302103E02B
:102CB000F24305E02154401CB042FBDB30460022C9
:102CC000002121540B99C1F80880C1E900200FB000
:102CD000BDE8F08FBD1B6D1CDEE74A4600DA694295
:102CE00006A800F0B7FB06AB93E8070003AB83E848
:102CF000070050460A9900F069FC8DE80700A0F52E
:102D000000501F3800900398002D0ADD42F21F0189
:102D10004A460844002303A90390684600F0D2FE07
:102D200009E0A0F500504A461F38002303A903908C
:102D3000684600F0DCFE8DE807000004000C03D0BC
:102D40004FF0FF30410800E01046B8F1000F03D00B
:102D50000022009215461EE0751E05D4FFF722FFE3
:102D6000303262556D1EF9D5B3460122084302D0B8
:102D700000227F1C04E02078302801D100227F1E31
:102D8000002A099784D01DE0112D07DAFFF70AFF0A
:102D9000303262556D1C50EA0102F5D1084302D071
:102DA0000098C8B10EE00021681E05E0235C625C5B
:102DB00063542254401E491C8142F7DBAB46A81BDA
:102DC000401E0990002004F80B000B98099AC0F8E7
:102DD0000880C0E9002B7AE711264FF0000857E77A
:102DE0002DE9F04F88460446D21D22F0070191B02C
:102DF000D1E90001CDE90A0101F0AFF802460B98D4
:102E0000C00F01D02D2007E02068810701D52B20BD
:102E100002E0202101EAC000032A099001D0072A1C
:102E200005DB03464146204600F0D4FA0BE120784A
:102E3000800601D5E06900E00620B8F1650F814603
:102E400006D0B8F1660F18D0B8F1670F70D131E035
:102E50000020B9F1110F009001DB112301E009F10D
:102E600001030AAA01A90CA8FFF7E2FEDDE90C7034
:102E7000002609F10105834647E001204B460090FA
:102E80004FF000470AAA01A90CA8FFF7D1FEDDE91F
:102E90000DB00C995D46002610B909F101000D181E
:102EA000B9EB050003D4C0F1FF3609F10105A5EB2C
:102EB00009002BE0B9F1010F01DA4FF00109002000
:102EC000B9F1110F0090484601DD112300E00346DF
:102ED0000AAA01A90CA8FFF7ABFEDDE90C704D466C
:102EE00000268346207800070AD4AB4500DA5D4609
:102EF00001A8012D04DD411911F8011C302907D06A
:102F00004F4502DA17F1040F04DA012082460FE080
:102F10006D1EEEE7002F02DCED1B3E4403E0781C43
:102F2000A84200DD7D1CB81B00F1010A4FF00047EC
:102F30002078000703D4AA4501DB4FF0FF3A0021B7
:102F4000B7F1004F0DF143088DF8431024D0022053
:102F50002B23002F01DA7F422D230A21021EA0F12C
:102F6000010000DC5FB197FBF1FC97FBF1F201FB84
:102F70001C7C17460CF1300C08F801CDEEE7A8F1E7
:102F8000010003702188090501D5452100E0652174
:102F9000A0F1010800F8011C09980FA9A1EB08078E
:102FA000FF1D00B10120411901EBEA70A16938440D
:102FB000081A401EA0612078C00602D42046FFF700
:102FC00097F9099828B1D4E901219047206A401C5B
:102FD00020622078C00622D52046FFF789F91EE03E
:102FE000002E04DBB34502DD01A8805D00E0302047
:102FF000D4E901219047206A401C2062761CAAF186
:1030000001005FEA000A0AD100F0E0F9C068016837
:10301000405CD4E901219047206A401C2062281EB0
:10302000A5F10105DCDC07E0D4E9012118F8010B6A
:103030009047206A401C2062381EA7F10107F3DC8C
:103040002046FFF76BF9032011B041E62DE9F04F60
:1030500004460D46D21D22F0070089B0D0E9009742
:103060004846394600F079FF0246F80F01D02D237B
:1030700007E02068810701D52B2302E0202101EA27
:10308000C0038DF820300BB1012000E00020032A9E
:10309000824601D0072A04DB2946204600F09AF92F
:1030A0003FE12078800601D40D2500E0E569C7F3F3
:1030B0000A560D2D49DA00214FEA175B08464FF0FA
:1030C0000000002F00F4400007DA00EB80004FF40E
:1030D000400100EBD07001EA60008115012901DD9B
:1030E0004FF0FF3100224FEA850CBCF1180F06D3D8
:1030F0001346ACF118004FF08052C24003E04FF489
:10310000801323FA0CF30CF10C0CBCF1200F04D348
:10311000ACF1200C09FA0CF001E007FA0CF00029E0
:103120004FF0004801DD18B90FE00ED140450CD337
:1031300019EB02095F4121B9404502D19F4329EAB9
:103140000209BBEB175F00D0761C2088000502D572
:103150007B48784402E07A487844193808AA30233A
:1031600002F80A30037C0AF10101002E0AF1020A7A
:1031700053546A4602DC4FF0300101E04FF0310158
:103180004FF001088DF8001002D0A6F2FF3603E0E0
:1031900059EA470100D06B4E002D02DC2178090767
:1031A00004D54FF002082E218DF80110C4460021ED
:1031B0000BE0C7F303433F01C35C491C6D1E02F8DB
:1031C0000830052908F1010801DA002DF1DC0021A1
:1031D0000CE000EB1973491C1B786D1E082902F8DE
:1031E00008304FEA091908F1010801DA002DF0DC76
:1031F00021688B0602D516E0A8F10108E04505DD3F
:1032000002EB080313F8013C302BF5D0B8F1000FA6
:1032100009DD02EB080313F8013C2E2B03D109074B
:1032200001D4A8F10108002D05DD3E2102F80810A7
:103230006D1E08F10108407C002E02F8080008F11C
:10324000010804DA2D20764202F8080002E02B2063
:1032500002F808000A214FF47A70864208F101084A
:103260000BDB96FBF0F3303302F8083096FBF0F3FB
:1032700008F1010800FB136601E0642E0CDB6420FA
:1032800096FBF0F3303302F8083096FBF0F308F1C8
:10329000010800FB136601E00A2E06DB96FBF1F045
:1032A000303002F8080008F1010896FBF1F001FB4C
:1032B0001060303002F80800A16908F1010808EB3D
:1032C000050202EB0A00081AA0612078C00602D4A9
:1032D0002046FFF70DF8216A08AE01EB0A002062D4
:1032E00004E0D4E9012116F8010B9047BAF1010A74
:1032F000F7D22078C00602D52046FEF7F9FF6E46C9
:1033000009E016F8010B3E280FD0D4E901219047BF
:10331000206A401C2062B8F10108F2D22046FEF774
:10332000FDFF09B00320BDE8F08F206A2844206229
:1033300003E0D4E90121302090476D1EEBD3F8E77C
:10334000A980000002FCFFFF10B5436913B1AFF381
:10335000008001E0FFF752FB012010BD128800F150
:10336000240182840022C2840122EDE711684FF01B
:10337000FF32E9E7007B00F08000704770B5164629
:103380000C46054600F01AF8036893F8010101287D
:1033900006D0FF2C0FD8185D68B101202C7070BDCD
:1033A000D3F807013246214603F2071303442846A7
:1033B000BDE8704018474FF0FF3070BD10B500F009
:1033C00005F8001D10BD00BF2D71000000487047BA
:1033D000A47500302DE9F0411F460446032601681C
:1033E000072A01F4006004DB08B116A505E016A564
:1033F00003E008B115A500E015A521F0100020603C
:10340000A069C01EA0610FB1401EA0612046FEF75A
:103410006FFF4FB1D4E9012138469047206A401C24
:103420002062C01C206206E0206AFAE7D4E901218C
:1034300015F8010B9047761EF8D22046FEF76EFF76
:10344000BDE8F0814E414E006E616E00494E46006F
:10345000696E66002DE9F047814616468AB0354808
:1034600078440DC88DE80D0032487844801C03ACC8
:103470000DC884E80D0041F69B300844372190FBCD
:10348000F1F290FBF1F5A5F1800501FB12041B3C64
:1034900002D56442012000E00020DFF898A08046B9
:1034A0000027FA44AAF1BE0A0EE0E0070AD032462D
:1034B000684607EB470101230AEB810100F017FB87
:1034C0008DE8070064107F1C002CEED1194F7F445B
:1034D000AE3F19E0E80715D007EB04100DF1180A0C
:1034E00090E80E008AE80E00C068F04201D19819F9
:1034F00008903246012306A903A800F0F8FA03ABAE
:1035000083E807006D10641C002DE3D14FF0010328
:1035100032466946B8F1000F03A802D000F0D2FA93
:1035200001E000F0E4FAC9E90001C9F808200AB096
:10353000BDE8F0872C7E000010B50446AFF3008094
:103540002046BDE81040FEF74BBE00004FF0013CA6
:1035500050F8042B51F8043B9A4221D1A2EB0C0302
:10356000934313EACC1317D150F8042B51F8043BC2
:103570009A4215D1A2EB0C03934313EACC130BD15F
:1035800050F8042B51F8043B9A4209D1A2EB0C03EA
:10359000934313EACC13DBD04FF00000704700BF19
:1035A000D01A01BAB1FA81F101F0180122FA01F042
:1035B000CB40C1F12001DBB2C0B2C01A2CFA01F33A
:1035C000D11A914311EAC311E6D170475FEA400C6A
:1035D00008BF91F0000F4FEA8C234FEAC12243EA63
:1035E00051514FEA1C5018BF00F5F0404FEA30002F
:1035F00018BF41F000415FEA6C5C00F02980BCF12B
:10360000FF3F08BF40F080407047130C06BF120414
:103610004FF0100C4FF0000C130E04BF12020CF10F
:10362000080C130F04BF12010CF1040C930F04BF1C
:1036300092000CF1020CD30F04BF52000CF1010CEC
:1036400011464FF00002A0F11F00A0EB0C007047E4
:1036500011F0004F08BF704731F000413FF4D5AF83
:103660000B0C06BF09044FF0100C4FF0000C0B0EB2
:1036700004BF09020CF1080C0B0F04BF09010CF187
:10368000040C8B0F04BF89000CF1020CCB0F04BF9C
:1036900049000CF1010CCCF12003A0EB0C0022FA44
:1036A00003F302FA0CF241EA030100F10100704752
:1036B00020F07F4C80EA030023F07F47ACEB070348
:1036C00003F57C5300F0004003F1FF032DE980492E
:1036D0004FEA154B09B44FEA144325EA0B4E24EA8E
:1036E00003480FF2042606EB132749083E785FEAE9
:1036F000320203FB0667C7F5000707FB06F64FEA31
:1037000054374FEAD64606F1020607FB066CCCF1A9
:10371000005C4FEA1C472CEA074C07FB06F40CFB45
:1037200006F504EB15464FEA961634BF00204FF01D
:1037300000404FEAD13706FB07FC4FEA1C4C0CFB5C
:103740000BF7D21B03FB0CF761EB07010CFB0EF729
:10375000B0EB074072EB17420CFB08F734BFA2EB4B
:103760000742B2EB074261EB17414FEA0C444FEAC4
:10377000910706FB07FC4FEA1C4C0CFB0BF7B0EB68
:10378000C74072EB573203FB0CF734BFA2EBC742C2
:10379000B2EBC74261EB57310CFB0EF7B0EBC70041
:1037A00072EB57720CFB08F734BFA2EBC702B2EB07
:1037B000C70261EB5771039F4FEA816141EA9211A1
:1037C00004EBCC044FEAD1374FEA826206FB07FCD8
:1037D00042EA90124FEA80604FEA1C4C0CFB0BF758
:1037E000D21B03FB0CF761EB07010CFB0EF7B0EBF0
:1037F000074072EB17420CFB08F734BFA2EB0742FD
:10380000B2EB074261EB17414FEA8C554FEA910743
:1038100004EB9C2406FB07FC4FEA1C4C0CFB0BF74B
:10382000B0EBC74072EB573203FB0CF734BFA2EB8F
:10383000C742B2EBC74261EB57310CFB0EF7B0EB5E
:10384000C70072EB57720CFB08F734BFA2EBC7023C
:10385000B2EBC70261EB577115EB4C254FEA816162
:1038600041EA92114FEA82624FEAD13742EA90125E
:1038700006FB07FC44F100044FEA80604FEA1C4C51
:103880000CFB0BF7D21B03FB0CF761EB07010CFBE6
:103890000EF7B0EB074072EB17420CFB08F734BF92
:1038A000A2EB0742B2EB074261EB174115EB1C1587
:1038B0004FEA813141EA92414FEA823242EA904234
:1038C0004FEA80304FEA0C7644F1000448EA0343A3
:1038D0004EEA0B484FF0000EB2EB080C71EB0307F9
:1038E00024BF624639464EEB0E0E4FF0000B001817
:1038F000524149414BEB0B0BB2EB080C71EB030748
:103900007BF1000B24BF624639464EEB0E0E4FF0A2
:10391000000B0018524149414BEB0B0BB2EB080C6A
:1039200071EB03077BF1000B24BF624639464EEB77
:103930000E0E51EA020718BF46F0010616EB0E768E
:1039400055F1000254F1000103D5BDE88901BDE83D
:103950000088BDE88901BDE80048B619524141EB35
:103960000101A3F10103704780807F7E7D7C7B7A1B
:103970007978777676757473727171706F6E6E6D1B
:103980006C6C6B6A6A6968686766666564646363C1
:1039900062616160605F5F5E5E5D5D5C5C5B5B5A47
:1039A0005A595958585757565655555554545353B4
:1039B00052525251515050504F4F4F4E4E4D4D4D0F
:1039C0004C4C4C4B4B4B4A4A4A494949484848475A
:1039D0004747474646464545454444444443434398
:1039E0004342424242414141002B9C4630D4770041
:1039F0002BD01CB54FEA370703B44FF010004FF03F
:103A00001001BAF1000F06D0BCF1000FDCBF40F08E
:103A1000080040F008014FF000000FBCBDE8104066
:103A20000BF1010BBBF1010F08BF5FEA170722BFC3
:103A300012F1010211F101014FF0004143F10003C5
:103A400000F0004043EA00007047F9D35708D0E780
:103A500046EA064613F1400F4FEA16461FDD13F102
:103A6000200FDFBF16430A46002120335B42BED041
:103A7000C3F1200746EA064602FA07F74FEA164660
:103A800046EA0706C3F1200722FA03F201FA07F714
:103A900021FA03F14FF0000342EA0702A7E746EAE2
:103AA000020646EA06464FEA164646EA0106BCBF4B
:103AB00046EA0646360C4FF000034FF000024FF086
:103AC000000194E72DE9804C9A46934670B491E842
:103AD000380007C831EA400C48BF34EA430C03D52C
:103AE000FFF7E6FDFFF780FFF0BCBDE8008C2DE995
:103AF000804C9A46934670B491E8380007C810F09D
:103B0000804F08BF13F0804F03D100F005F8FFF796
:103B10006BFFF0BCBDE8008C20F07F4780EA03001B
:103B200023F07F4C07EB0C03A3F57C5300F000401F
:103B3000A3F1FE0392F0000F00F0B38095F0000FA8
:103B400000F077802DE901494FEA11404FEA144611
:103B500021EA004800FB06FC24EA064708FB06F6BB
:103B600007FB08F800FB07F718EB06484CEB164C70
:103B70004FEA124B18EB07484FEA15464CEB17403B
:103B800022EA0B4E0BFB06FC25EA06470EFB06F667
:103B900007FB0EFE0BFB07F71EEB064E4CEB164C1D
:103BA0004FF000061EEB074E4CEB174B18EB0B08C3
:103BB00040F1000018EB0E0B58EB000840F100003C
:103BC0008F1A4FF000013CBFC943661B14BFB5EB11
:103BD000040C00213CBFC943F61B4FEA17444EEAD0
:103BE0008E0E27EA04454FEA1C4704FB07622CEAC5
:103BF000074C05FB07F70CFB05F604FB0CFC16EB6A
:103C0000074642EB174216EB0C4642EB1C421BEBFD
:103C1000060658EB0202414146EA9E0601D5BDE880
:103C20000189B619524141EB0101A3F10103BDE83D
:103C300001894FEA14454FEA114724EA054621EA73
:103C4000074C05FB07F406FB07F70CFB06F105FB29
:103C50000CFC11EB074144EB17444FEA124711EB00
:103C60000C4144EB1C4422EA074C05FB07F206FB1F
:103C700007F70CFB06F605FB0CFC16EB074642EBC0
:103C8000174216EB0C4642EB1C456A1854F1000132
:103C900048BF7047B619524141EB0101A3F101033E
:103CA000704795F0000F37D04FEA11424FEA1447A2
:103CB00021EA024624EA074C02FB07F106FB07F75C
:103CC0000CFB06F402FB0CFC14EB074441EB174120
:103CD0004FEA154714EB0C4441EB1C4125EA074C15
:103CE00002FB07F506FB07F70CFB06F602FB0CFCD4
:103CF00016EB074645EB174516EB0C4645EB1C4209
:103D0000121951F1000148BF7047B619524141EBF9
:103D10000101A3F1010370474FEA14454FEA11472F
:103D200024EA054621EA074C05FB07F106FB07F7E5
:103D30000CFB06F24FF0000605FB0CFC12EB0742F1
:103D400041EB174112EB0C4251EB1C4148BF70474D
:103D5000921841EB0101A3F10103704710B51E4811
:103D60000068002800D080471C4800210170881E90
:103D70001B490860192000F02FF91A4CD4F8C00232
:103D8000800704D4F42218A11CA002F40DF32A48E1
:103D90000168D4F8C40261F31D3040F00100C4F89A
:103DA000C40201F463F600214FF03040C16081612C
:103DB000C1174161016201F415F6094840380168F4
:103DC00021F4800101601D480068002802D0BDE890
:103DD0001040004710BD000060248000F0670030F4
:103DE00044C500A000E000A0727769705F736C6545
:103DF00065705F636F6D6D6F6E2E63004D43555F31
:103E00005355422D3E424C455F44534C4545505F0F
:103E1000434F52525F454E2026204D43555F535528
:103E2000425F424C455F44534C4545505F434F52BF
:103E3000525F48575F454E00542480006424800040
:103E400010B500214FF03040C1608161C117416160
:103E50000162022000F0DEF8BDE81040012000F011
:103E6000D9B810B5012000F0B7F8BDE81040012026
:103E700000F0D0B8FEE7FEE730B500F00703C3F16D
:103E80000704082C00D9082403F10800072801D2F0
:103E9000002300E05B1C012505FA04F0401E0840E9
:103EA00098409D406D1E1540284330BDFEE71AF432
:103EB0001391FEE70249096801F00701017070479C
:103EC00004C500A030B4062821D212490A6802F0C5
:103ED0000702824212D00A680F4B1A400F4C22434D
:103EE0000A6000BF00BF00BF00BF0A681A400C4B49
:103EF000024333F8203042EA83420A600849183905
:103F000051F820000749886030BC75F4739030BCCC
:103F10007047000004C500A0F8FFE3FF050008009B
:103F200014B00001006400300248016841F47001DF
:103F30000160704788ED00E002480068001D1DF434
:103F40008B930000D865003002484068001D1DF4C6
:103F500083930000D8650030FEE703B40198410068
:103F6000009850EAC12018BF04204A0D18BF40F045
:103F7000010040F2FF72B2EB515F08BF40F0020057
:103F8000012808BF052002B07047002809DB00F0B7
:103F90001F02012191404009800000F1E020C0F89B
:103FA00080127047002809DB00F01F0201219140B8
:103FB0004009800000F1E020C0F88012704700281E
:103FC00009DB00F01F02012191404009800000F14F
:103FD000E020C0F880127047002809DB00F01F02C3
:103FE000012191404009800000F1E020C0F88012DA
:103FF000704700280DDB00F01F02012191404009AD
:10400000800000F1E020C0F88011BFF34F8FBFF3B4
:104010006F8F704700280DDB00F01F0201219140D7
:104020004009800000F1E020C0F88011BFF34F8FFD
:10403000BFF36F8F7047002809DB00F01F020121DA
:1040400091404009800000F1E020C0F80011704765
:1040500000280FDB4109890001F1E021D1F80012AD
:1040600000F01F0201209040014201D00120704762
:10407000002070470020704700280FDB41098900AD
:1040800001F1E021D1F8001200F01F020120904060
:10409000014201D001207047002070470020704786
:1040A00000280FDB4109890001F1E021D1F800125D
:1040B00000F01F0201209040014201D00120704712
:1040C0000020704700207047002804DB00F1E0204A
:1040D00090F80004704700F00F0000F1E02090F825
:1040E000140D7047002804DB00F1E02090F8000474
:1040F000704700F00F0000F1E02090F8140D7047B9
:1041000002480068C0F30220704700000CED00E098
:1041100002480068C0F30220704700000CED00E088
:10412000002809DB00F01F020121914040098000B6
:1041300000F1E020C0F800127047C9B2002804DB8B
:1041400000F1E02080F80014704700F00F0000F14B
:10415000E02080F8141D7047EFF31080704780F363
:104160001088704730380A2801D20120704700209B
:10417000704770472DE9F05F0746894693464FEA3E
:104180005B04A2464D465F4EDFF87C81EFF3108062
:10419000012181F31088D8F8A41221F02001C8F879
:1041A000A41280F31088EFF31080012181F31088AE
:1041B000D8F8A01221F02001C8F8A01280F31088CE
:1041C000306820F080403060504830603F20D8F8A0
:1041D000001160F30501C8F80011306820F4601088
:1041E00040EAC7403060306820F4E02040EA0740F1
:1041F0003060052F03D1306840F400403060062F56
:1042000003D1306840F480403060306840F40050A2
:104210003060306820F060503060306820F00F006F
:1042200040F003003060EFF31080012181F310882B
:10423000344A3832116821F0E04141F08041116088
:1042400080F31088306840F08040306001E0D8F89A
:104250000000D8F80401C0F300200028F7D1EFF3E4
:104260001080012181F31088116841F00041116034
:1042700080F3108834E000204FF47A711AE088420D
:1042800017D9306820F080403060306840F000403E
:104290003060306820F00040306003F077FC1C484C
:1042A0000168491C016054464D46052077F4A7D4A7
:1042B0006CE7401CD8F80421C2F30022002ADED0AB
:1042C000D8F8040100F07F01A14200D92146002066
:1042D00003E0D8F8002004C5401C8842F9D3641AD2
:1042E000002CC8D15FEACB7008D0D8F80401C0F325
:1042F00000200028F9D0D8F800002880BDE8F05F41
:1043000003F044BC08C500A000E000A00A070807AD
:10431000046800300449896B084004490A78104356
:1043200000220A7070470000002001A014660030CF
:104330000C4900280BDC0868C0F34120012805D097
:10434000086820F4C06040F40070086070470A28D4
:10435000FCDB086810F4C06FF8D0086820F4C06077
:10436000086070470CC500A006460F46154672B699
:104370003846FEF783F9402801D9402002E038464C
:10438000FEF77CF980463046FEF778F9402801D9DF
:10439000402002E03046FEF771F904469C211048A7
:1043A000FEF724FA424639460D48FEF786F90C48D6
:1043B000224631465C30FEF780F909484FF0AA31B9
:1043C000016445644FF0BB3181644FF0CC3101652D
:1043D0004FF0DD318165002000F004F8FEE70000B9
:1043E0001073003030B5ADF20C4D04464FF48061CF
:1043F00003A8FEF7FBF9194D202085F83F0085F84A
:104400009B003CB12846012C436DC26C09D0022CA4
:104410000CD00FE0114A12A15C3203A8FDF736FF61
:1044200008E012A103A8FDF731FF03E017A103A8DC
:10443000FDF72CFF03A90CA2686CCDE901210090C7
:1044400019A3064A19A1002000F0D4FD012C01D0C7
:1044500000F088FD0DF20C4D30BD000010730030EF
:104460005B4552524F525D20257300005B5741520D
:104470004E494E475D20506172616D303A25642C83
:10448000506172616D313A25640000005B50415209
:10449000414D5D20506172616D303A25642C506150
:1044A00072616D313A256400000000006170705F38
:1044B0006173736572742E6300000000014877F425
:1044C000DB910000F465003006460F4690461D461D
:1044D00072B64046FEF7D2F8402801D9402002E0EB
:1044E0004046FEF7CBF804469C210D48FEF77EF9C6
:1044F000224641460A48FEF7E0F809484FF0553198
:10450000016445644FF066318164C6644FF07731D1
:1045100001654765C94381650220FFF763FFFEE738
:10452000107300302DE9F04106460F4690461D46B7
:104530004046FEF7A3F8402801D9402002E040465B
:10454000FEF79CF804469C210D48FEF74FF92246E1
:1045500041460B48FEF7B1F809484FF011310164AC
:10456000456449008164C6644FF033310165476595
:104570004FF044318165BDE8F0410120FFF732BFC3
:10458000107300302DE9F041014600291BD00024B2
:104590000F4E0E4A357814E002EB04100F780378C2
:1045A000BB420CD14B684068034208D0707808B910
:1045B00000F0B6FC2046BDE8F04100F0DFBB641C13
:1045C000E4B2AC42E8D3BDE8F0810000A46E003054
:1045D000CC6500307CB505460E46002D01D0002488
:1045E00018E0E5207CBD05EB041041680091017ADC
:1045F0008DF80410417A8DF8051007218DF806100A
:10460000C26800780023694600F0C8F80028E9D1A4
:10461000641CE4B2B442E6D300207CBD10B50C4665
:10462000062833D2DFE800F00303031E27101849E1
:1046300051F830002104090C04D018B1214602F0D1
:1046400073FD1FE0E42010BD2004000C03D0A1B2D4
:10465000104802F069FD200C14D0210C0E4802F025
:1046600063FD0FE014F0FF0F03D0204602F022FBA1
:1046700008E0E42010BD14F0FF0F05D02146002013
:1046800002F0C4FD002010BDE42010BDE62010BDE6
:1046900040B00001000001A0001001A02DE9FC4184
:1046A0000646B168002902D02CA0FDF7E3FD706832
:1046B0004FF480582B4F2C4C404523D141460520C8
:1046C00000F0E8F9F0B929A003C8CDE90001386885
:1046D00044F6206100F007001DF8000010FB01F512
:1046E00002F0D8FB60686268111AA942FBD302F09D
:1046F000B5FB4146052000F0CDF90128F9D01DA0F9
:10470000FDF7B8FD7068022826D10221032000F0D1
:10471000C1F9002820D115A003C8CDE900013868EF
:1047200044F6206100F007001DF8000010FB01F5C1
:1047300002F0B0FB60686168091AA942FBD302F07D
:104740008DFB0221032000F0A5F90128F9D0BDE876
:10475000FC410DA0FDF78EBDBDE8FC8125730D0A5F
:104760000000000004C500A0001000E04030101858
:10477000102000000D0A4B4559302070726573738C
:1047800065642E0D0A0000000D0A4B45593120705A
:104790007265737365642E0D0A0000002DE9F05FE9
:1047A00005460C469046994627680026042D13D0EE
:1047B00039462846FFF732FF2146284600F0ACF87C
:1047C00000280AD1032D0AD0052D2ED04FF0100B52
:1047D0002807060E002491E0E620BDE8F09F4FF088
:1047E000080B2079042806D0052809D006280DD00A
:1047F000072815D110E000213846FFF7E2DD0FE071
:1048000040F201113846FFF7DCDD09E04FF00111FD
:104810003846FFF7D6DD03E03B493846FFF7D1DDE8
:104820004FF0007074F464D4D4E74FF0200BD1E75C
:10483000F80760D0062D65D2DFE805F003030346D4
:104840006425324800EBC50090F904A0BAF1000FCE
:1048500017D0EFF31081012080F31088A01900EB2E
:1048600040022B4800EB8200C0F80480C0F808909A
:1048700081F31088504617F4CFD4504617F4EAD489
:1048800039E0E420A9E7EFF31082012080F31088DB
:10489000A0191F4B00EB400003EB8001C1F804801E
:1048A000C1F80890052103F8201082F31088062033
:1048B00017F4B2D4062017F4CDD4072017F4ACD4E3
:1048C000072017F4C7D416E0EFF31081012080F31E
:1048D0001088A01900EB40020E4800EB8200C0F8DF
:1048E0000480C0F8089081F31088122017F494D443
:1048F000122017F4AFD47F08641CE4B25C4597D350
:1049000000206AE7E62068E70101010040B00001ED
:10491000087000308871003070B58EB005460C46C6
:10492000564901F164004DC8CDE90A02CDE90C36C3
:10493000D1E91E23486F06AED1F880100DC609914B
:1049400014224E49843101A8FDF7FCFEACB14C495C
:10495000062004F02DFE4B49072004F029FE4A49A9
:10496000122004F025FE4549444A2C31062D7CD204
:10497000DFE805F0060606415921E5200EB070BDBE
:10498000207931F810000B90607932F810000C900B
:10499000A0790D9020680A903848143050F83500FE
:1049A00021880904090C04D018B10AA902F00AFCF4
:1049B00059E0E420E2E7207931F810000B906079AB
:1049C00032F810000C90A0790D9020680A902068B1
:1049D0000104090C05D080B20A900AA92B4802F004
:1049E000F1FB2068010C3ED0000C0A900AA928486F
:1049F00002F0E8FB37E0207901EB4000408A0790A5
:104A0000607902EB4000C0880890A0790990206886
:104A10000690207810F0FF0F03D006A802F09CF952
:104A200021E0E420AAE72079031F032B01D8E72027
:104A3000A4E702281AD001200290207901EB40005F
:104A4000808C0390607902EB400080890490A0790B
:104A5000059020680190207810F0FF0F09D001A97F
:104A6000002002F02BFC002088E704E002200290E6
:104A7000E3E7E42082E7E62080E700002CB00001B5
:104A8000EF428000E9428000E5428000000001A082
:104A9000001001A010B502460C460020062A26D2BE
:104AA000DFE802F00303031A1F0B114850F832002D
:104AB000A1B2BDE8104015F40A902104090C03D0FE
:104AC000A1B20C4815F403D0210C10D0210CBDE884
:104AD0001040094814F4FB97A0B2BDE8104012F44E
:104AE000C997A1B2BDE81040002002F0EABB10BD9A
:104AF00040B00001000001A0001001A010B50C465C
:104B0000062826D2DFE800F00303031B1F0D12491D
:104B100051F8300018B1A1B214F4E8D717E0E4203E
:104B200010BD2004000C03D0A1B20C4814F4DED751
:104B3000200C0CD0210C0A4814F4D8D707E0A0B2FE
:104B400002F05EF903E0A1B2002002F0BDFB0020FC
:104B500010BDE62010BD000040B00001000001A023
:104B6000001001A070B50C461546002D03D0012D94
:104B700001D0E42070BD06282BD2DFE800F003034B
:104B8000031E230E144951F8300020B1A1B22A4669
:104B900014F4B0D71BE0E42070BD2004000C04D056
:104BA000A1B22A460D4814F4A5D7200C0FD0210C31
:104BB0002A460B4814F49ED709E0A0B2294602F019
:104BC00033F904E0A1B22A46002002F080FB002065
:104BD00070BDE62070BD000040B00001000001A0E3
:104BE000001001A0002803D002490860012070478E
:104BF00000207047C865003070B505460024091FC5
:104C0000062917D2DFE801F003070C111315284617
:104C100000F0A4F80EE00124284600F09FF809E017
:104C20000224284600F09AF804E0032402E0042459
:104C300000E00524034A214628461268BDE870407A
:104C400010470000C86500302DE9F04104462046B9
:104C500000F0AEF801462E4800230826025D00F160
:104C60000A0700F11405AAB1052A33D0082A2AD16F
:104C7000092945D0082926D1295D491CC9B22955E1
:104C8000142920D32B5506552046BDE8F0410821B4
:104C9000FFF7B2BF052913D0042916D0072914D075
:104CA000082910D1295D491CC9B2295514290AD3F4
:104CB0002B5506552046BDE8F0410821FFF79CBF63
:104CC0003B5505210155BDE8F0812046BDE8F04186
:104CD000FFF792BF05290CD0395D491CC9B239557F
:104CE0003229F0D303552046BDE8F0410521FFF7F6
:104CF00083BF03552046BDE8F0410621FFF77CBF86
:104D000003552046BDE8F0410921FFF775BF0000BB
:104D1000646E003070B504460D4600F00FF808B11F
:104D200000F014F90348044A2946005D5268BDE8C2
:104D300070401047986E0030CC6500300020064966
:104D400011F810200AB100207047401CC0B20A2898
:104D5000F6D3012070470000826E00300349002224
:104D600001F8102001EB400042707047826E003065
:104D7000014A02F810107047826E0030024A012189
:104D800002EB400041707047826E003070B5002425
:104D9000064D05EB4400407810B12046FFF754FF64
:104DA000641CE4B20A2CF4D370BD0000826E0030A3
:104DB00070B500211D4B03F132051A5C002A09D0A1
:104DC000002403F10A06012A0AD0022A12D0032A7B
:104DD00024D11FE015F8102002B301221A541DE05F
:104DE00015F810201AB1345402221A5416E01C543B
:104DF000042113E015F810204AB1325C521CD2B2E3
:104E00003254642A0AD3072103221A5406E00521EA
:104E10001C5403E015F8101011B10821084670BDAC
:104E20001C54FFF79BFF0921F8E70000506E00308B
:104E3000704700002DE9F0410E4617460A2E02D8B1
:104E40000FB1002320E00020BDE8F08103EB430414
:104E500010F82410052901D0032913D100EB840593
:104E6000114AA97AD154104910F824200C3101EBD1
:104E70000314227069686160297A2172697A61720B
:104E80000A49E1605B1CDBB2B342DFD3064831461E
:104E90000C30FFF79FFB0648067047600548FFF798
:104EA000A1FE0120D0E70000986E0030854500018A
:104EB000CC650030154D00012DE9F0410024124F62
:104EC000DFF8488019E0002607EB041528786968A8
:104ED000FFF7E0FD10B9697A012902D0012802D05C
:104EE00005E0012603E0687A022800D10126314658
:104EF0002046FFF73DFF641CE4B298F800008442AE
:104F0000E1D3BDE8F0810000A46E0030CC65003034
:104F100010B5FFF7D1FFBDE81040FFF737BF000025
:104F200010B5074A0121074800F064F900220A2160
:104F3000044800F0B5FA04490120487010BD000093
:104F4000114F0001486F0030CC65003010B50348A8
:104F500000F07EF902490020487010BD486F003013
:104F6000CC6500300248406A002800D000477047F6
:104F7000E8720030002806D0002904D0024AD26925
:104F8000002A00D010477047E87200300248006ADB
:104F9000002800D000477047E872003070B50D4619
:104FA00016460D4C00280AD00178032911D801219A
:104FB000A17601461A222046FDF77FFB05E000207E
:104FC000A0761A210448FDF711FCE5612662002055
:104FD00070BD012070BD0000E8720030044A10442A
:104FE000807D084201D001207047002070470000FA
:104FF000E87200302DE9FE4F07469246994600249C
:10500000A046CDF80480CDF8088059480178B9420F
:1050100002D2807E00287DD10EAD0095EFF311867F
:105020000220FFF75FF88346FFF772F8401C01216A
:1050300081400BEB0100C0B280F31188012138469A
:10504000FFF7CCFF38B14B484B4950F8272020469A
:1050500000F0A4F804461C213846FFF7BFFF0028E3
:105060005ED046A24449204600F098F8204484B21D
:1050700004213846FFF7B2FFF8B152463E492046B8
:1050800000F08CF8204484B208213846FFF7A6FFD0
:1050900038B13BA23849204600F080F8204484B261
:1050A0000BE010213846FFF799FF30B135A23249A5
:1050B000204600F073F8204484B208213846FFF7F8
:1050C0008DFF90B14A462C49204600F067F82044F5
:1050D00084B210213846FFF781FF30B12AA2264959
:1050E000204600F05BF8204484B210213846FFF7D8
:1050F00075FF60B126A2052101A80C9BFDF7DCF825
:1051000001AA1D49204600F049F8204484B221A29A
:10511000194900E029E0204600F040F8204484B21C
:105120001548C4F5807120442B460D9AFDF788F888
:10513000CDF800804FF48071002804DB20448842C1
:1051400001DC85B200E00D46A81C884200D9FE258E
:1051500011A20949284600F021F8284481B20648E6
:10516000FFF708FFF0B280F31188BDE8FE8F000062
:10517000E8720030E0650030E8710030280000007F
:10518000200000003A000000204C696E653A0000E3
:10519000256C6400292000000D0A000030B505468A
:1051A000002000290CD0002A0AD006E02B18FF2B83
:1051B00006D8CC54521C401C80B21478002CF5D177
:1051C00030BD000010B50848017800290AD101213E
:1051D0000170064873F496D3BDE8104000210448DE
:1051E00073F4F29510BD0000D5650030B142800027
:1051F000798E00012DE9F04104460D461746002D39
:1052000004D0012D02D00120BDE8F081E4B1DFB16E
:10521000607801281AD0EFF311860220FEF754FFC0
:105220008046FEF76DFF401C0121814008EB010024
:10523000C0B280F3118800206070A570E761F0B201
:1052400080F311880020DFE70120DDE70620DBE79F
:1052500010B50446002C0CD0204600F0B3F9FF2016
:1052600060700021A160E160216161610020E06166
:1052700010BD012010BDF0B5DDE90745059981613C
:105280004FF47A76A2FB061C03FB06C3002702FB41
:105290000732C0E9021209196A41C0E9041200216B
:1052A0000162F0BD2DE9F0410446002C13D0EFF36C
:1052B00011850220FEF708FF0746FEF721FF401C7C
:1052C000012606FA00F03844C0B280F31188124873
:1052D000002121620EE00020BDE8F081D4E9043213
:1052E000D1E9047CDB1B72EB0C0202D2016A216261
:1052F00003E00846016A0029F0D10462667006489E
:1053000010380168491C0160016B4160E8B280F30C
:1053100011880120E0E70000806F00302DE9F041A6
:1053200005460024EFF311860220FEF7CDFE074666
:10533000FEF7E6FE401C012181407818C0B280F3E0
:105340001188134A106BE8B115B102F1100010E09A
:105350000446206A10631068401E10600CE0A942E9
:1053600006D11168491E1160296A01622C4603E0CA
:105370000846016A0029F2D124B100202062607041
:10538000106B5060F0B280F311882046BDE8F081C8
:10539000706F00302DE9F041EFF311870220FEF726
:1053A00093FE0446FEF7ACFE401C012181406018CC
:1053B000C0B280F31188114D002608E02078012842
:1053C00004D1E16909B1A069884726702D6A2C6A69
:1053D000002CF3D1094D103D07E0E16909B1A06946
:1053E00088472670206AA8632662AC6B002CF4D133
:1053F000F8B280F311880120BDE8F081806F0030A1
:105400002DE9F041EFF311870220FEF75DFE04461F
:10541000FEF776FE401C012606FA00F02044C0B2DA
:1054200080F311881D4DA5F110082DE0D4E904305A
:10543000D8E902125B1A60EB0200D8E91021D21AF7
:10544000814124D326702046FFF768FFA078012809
:1054500006D01248283000212162016861B10FE0B6
:10546000D8E90220D4E9021351185841C4E90410C4
:105470002046FFF717FF07E0046005E001F1200078
:1054800001680029FAD104602C6A002CCED1F8B250
:1054900080F311880120BDE8F0810000806F0030AA
:1054A0002DE9FF5F82460E4693464FF00008BAF1A1
:1054B000000F20D0414886421DD8E6B1EFF3118796
:1054C0000220FEF701FE0446FEF71AFE401C0121F1
:1054D00081406018C0B280F31188504602F0DAFAB9
:1054E00010B19AF8010040B1F8B280F311880F2092
:1054F00004B0BDE8F09F0120FAE702F007FD044682
:105500000D464FF47A7106FB01F022462B4600212E
:1055100002F090FADFF8A890B0B1D9F8040048B1D1
:10552000D0E90410091B60EB0500C9E9021002F084
:1055300081FD04E00021C9F80810C9F80C104FF0F3
:105540000108D9E9020106E0D9F80400D0E90421F4
:10555000101B61EB0501CDE9020132460023CDF8B5
:1055600000B05046FFF787FE5046FFF79BFE03F062
:10557000F5FF4FF0E024D4F800014FF0806510F003
:10558000806F01D0012000E0002020B91A20FEF732
:10559000FCFCC4F80051B8F1000F0AD0D9F804009F
:1055A000D0E90431D9E90202181A61EB020102F0D4
:1055B000E3FCF8B280F31188002099E7008AB9076C
:1055C000706F00302DE9F04104460025002C39D0E1
:1055D000EFF311870220FEF777FD0646FEF790FDF8
:1055E000401C012181407018C0B280F3118860789E
:1055F000012824D1144E7068A0420BD102F086FC21
:10560000D4E90432181A62EB0102C6E9020202F080
:1056100011FD01252046FFF781FE5DB1706848B19C
:10562000D0E90421D6E90203101A61EB030102F06C
:10563000A3FC04E01DB9706808B902F0FBFCF8B2E5
:1056400080F31188BDE8F081706F003070B50446BA
:105650001A4D55F82400703003F005FE82B216464C
:10566000A2B155F8240090F8011101290ED00121B2
:1056700080F80411802A0FD355F82400802200F10D
:105680008001703003F004FE80260CE055F82410F1
:10569000002081F8000170BD55F8240000F1800160
:1056A000703003F0F5FD55F82400324600F180011A
:1056B000001D1CF4BFD10028EDD170BDD8650030AD
:1056C000704700002DE9F84304464D4F57F8240079
:1056D000061D022C7ED290F86C1000297AD0012988
:1056E00078D190F80011012974D190F801110029A6
:1056F00070D1012180F80111002157F82400D0E970
:1057000003231344027D02F00102D21D9D1842685A
:10571000D36FC3F38003002BFAD090F80421A2B119
:10572000384A1368491C90F83B20102A06D082683A
:10573000B3FBF2F26A43B1EBC21FF3D957F824006E
:10574000703003F090FD85B226E0B0F82480C58C5F
:10575000001D1BF4E7D557F8240041F2883300EB15
:105760000801491B8031001D2A461CF428D1E5E7B9
:1057700057F8240001227030694603F089FD57F87C
:1057800024004068C16FC1F340010029FAD09DF8A0
:10579000001001606D1EADB2002DE9D157F8240054
:1057A000703003F060FD0028C8D1306841694906B7
:1057B000FCD5EFF31085012080F3108857F8240002
:1057C000703003F050FD68B1EFF31081012080F3D9
:1057D000108800E011E03068426842F082024260C6
:1057E00081F3108857F82410002081F8000157F841
:1057F000241081F8010185F31088BDE8F8830000CA
:10580000D8650030086400302DE9F04105460F46A8
:10581000002D06D02AB12C78022C04D3E820BDE854
:10582000F081E520FBE7304E05F1580046F82400F2
:10583000D2E900310A467030194603F0FFFC291DF9
:10584000286D04F0B3FB0028E9D156F82410281D78
:10585000486656F82400076056F8240018220830DD
:1058600005F14001FCF76EFF204856F8241000EBCC
:10587000C4056868486056F82400001D01F05CFE0D
:1058800056F82400001D01F08DFE18480122032166
:10589000103803F01BFB56F82410012081F86C002F
:1058A00056F82410002081F8000156F8241081F8E1
:1058B000010156F8241081F8020156F8241081F8ED
:1058C00003010B490C2003F073FE0A490D2003F07D
:1058D0006FFE95F9010016F49FD495F9010016F4B6
:1058E000B9D400209BE70000D8650030D4B0000197
:1058F000393F0001493F00012DE9F04104461A4DAE
:1059000055F82400703003F0AEFC82B21646002732
:105910007AB155F8240090F80111012909D0802AA4
:105920000ED300F180017030802203F0B1FC80269C
:105930000BE055F8240080F800710020BDE8F081EC
:1059400000F18001703003F0A3FC55F8240080F8CA
:10595000047155F82400324600F18001001D1CF44A
:10596000AFD00028EAD1E9E7D865003070B5022849
:1059700001D3E82070BD104D55F8204064B194F873
:105980006C604EB151B14AB15E1C09D044F620663C
:10599000B34205D9E42070BDE52070BDE42070BDA0
:1059A000002684F8026155F82000001D1CF407D081
:1059B0000028F4D170BD0000D86500302DE9F04119
:1059C00006460C46174604F1080520466FF4F4D647
:1059D000C3B21B48E1184268914202DD0320BDE8D2
:1059E000F0811849184A006809681268891A081A6B
:1059F000001FE91881421CD94FF4004513A2294623
:105A0000002007F4CBD100F0DFF930B118A229460D
:105A1000002007F4C3D10820E1E71DA22946002099
:105A200007F4BCD13A4621463046BDE8F04104F0C7
:105A300093BC3A4621463046BDE8F04104F08CBCA8
:105A4000D8328000D0238000CC238000523A353AEF
:105A50004E56445320617265612069732062656906
:105A60006E6720636F6D7061637465642E0D0A004C
:105A7000523A353A436F6D70616374696E67204EB8
:105A8000564453206661696C65640D0A000000008D
:105A9000523A353A436F6D70616374696E67204E98
:105AA000564453207375636365737366756C0D0A92
:105AB0000000000003F00EBB10B5FFF7FBFF054927
:105AC00003480860BDE81040034875F43F970000A4
:105AD00017B8800474C500A00087930310B506486A
:105AE0000068002800D08047FEF702DF08B10120DF
:105AF00010BD002010BD0000F867003070B51948D7
:105B00000468194D2878002801D0002070BD4FF09E
:105B1000806073F4EDD2FFF75BDF600874F4F8D1B6
:105B2000124908608817114901262C39086019208C
:105B3000FEF752FA0E49700608604FF03041086BCC
:105B400040F007000863094C303C206840F4E02036
:105B50002060FFF77FDF2E70206820F4E0202060B7
:105B6000012070BD6C248000F067003070C500A07B
:105B700000E100E070B50024EFF31086012080F30F
:105B80001088FFF782DF104D28B102242968B9B1CF
:105B90000220884714E0FFF7A1FF20B1296879B1FE
:105BA000002088470CE0FFF7A9FF28B102242968EC
:105BB00031B10220884703E0296809B100208847F5
:105BC00086F31088204670BD5C248000034900EBFA
:105BD000800001EB8000808870470000D4660030B0
:105BE000034A00EB800002EB8000818070470000D8
:105BF000D466003010B500F067F800F049F8BDE851
:105C0000104000F001B8000000B58FB005208DF8FD
:105C100000004FF4805101918DF8080001218DF8AA
:105C2000091000228DF80A208DF80C004A03049216
:105C30008DF814008DF815108DF816108DF81800D9
:105C4000CA0307928DF820008DF8211003228DF8E9
:105C500022208DF824008B030A938DF82C008DF8F8
:105C60002D1002238DF82E308DF830200D938DF8F5
:105C700038008DF8391004208DF83A00034A0521C8
:105C80006846FFF7D7F80FB000BD0000314E0001A5
:105C90007CB51026009602248DF804408DF805404E
:105CA00007258DF8065069460520FEF735FE00965B
:105CB0008DF804408DF805408DF8065069460420A3
:105CC000FEF72AFE7CBD000000B587B000F01EF88C
:105CD00003208DF800001D208DF8160001208DF89E
:105CE00017008DF818008DF81900044A0449684619
:105CF000FFF754F9FEF7E2FB07B000BD055D0001B8
:105D00005D5D00010020FFF7DDBC00001CB51148FF
:105D100000904FF48062019200F5806000210170D4
:105D20004FF4E1330364032343648164C164016578
:105D30000121416505230374CC02446102244474AB
:105D4000017603718260447101736A460249FFF76C
:105D50005BFD1CBDF0680030C15600010A460146DB
:105D60004FF47A730020FFF701BE00000E4910F1D6
:105D7000210F06DA086820F4704040F440500860B3
:105D8000704710F11D0206D3086820F4704040F4FB
:105D90008040086070470A28FCDD086820F47040E5
:105DA00040F4A0400860704724C500A010B503F07F
:105DB00085FB03F075F803F0FBFD00F0F5FABDE894
:105DC000104003F073BB00002DE9F04F87B07B4813
:105DD000D0F8009000240025A246002603F08AFF98
:105DE00077480168C9F800104068C9F80400754890
:105DF00000680830059009F108000690042203A904
:105E0000059800F09DFABDF80C10A1F57F40FF3811
:105E100043D0082203A9059800F092FABDF80E00BD
:105E20006FF4CAD400F0FF08BDF80C00002867D05A
:105E30000698A9EB000707F58057BDF80E1008F18A
:105E4000080083460844B84263D805AB082203A97A
:105E500006A800F0D7F8BDF80E00002300EB0802FA
:105E600005A906A803F082F8641CBDF80E0058448A
:105E7000B842C3D10020CDE9006053464A462146CE
:105E8000284604F07FF9002826D182460026002407
:105E9000CDF818906D1CEDB2B0E70020CDE90060A0
:105EA00053464A462146284604F06CF9002813D18F
:105EB0006D1CECB2434D4FF48057434E08E0286808
:105EC00000EB0430394601F0A5F840B1641CE4B29F
:105ED000707AA042F3D8002007B0BDE8F08F3B48AD
:105EE0008169407A40F27C42CDE900200291384B32
:105EF00038A24FF40041002006F450D70920EBE708
:105F0000BDF80E00059908F10808084440440590C2
:105F100074E7082F29D305AB082203A906A800F0CF
:105F200071F8083F2FB100233A4605A906A803F0EF
:105F30001DF8611C0020CDE9006053464A46284602
:105F400004F020F90028C7D18246BDF80E00404475
:105F5000C61B0024CDF818906D1CEDB2002332460C
:105F600005A906A803F002F848E705AB3A4603A9DD
:105F700006A800F047F8611C03A8CDE9006053466D
:105F80004A46284604F0FEF80028A5D1C7F1080AC1
:105F9000BDF80E0000EB08060024CDF818906D1C2B
:105FA000EDB20123524605A906A802F0DFFF002347
:105FB000324605A906A802F0D9FF1FE74466003063
:105FC000ACD50700CC238000D8328000641F80004D
:105FD00066B10001523A353A25732C204C256420D5
:105FE000666C617368207374617465203078253045
:105FF00032582C206572726F7220307825303858F4
:106000000D0A000070B5044615461E462A46206853
:10601000FCF753FB30682844306020682844206037
:1060200070BD000010B50548017B491C01730020BC
:1060300073F4DCD5BDE8104000F044B8846600304D
:106040003EB5FFF737FD1A48016821F400310160C1
:10605000174D083D2868174980B208432860164844
:1060600003C8CDE9000112482C38006800F0070190
:106070001DF80100C82110FB01F400F00BFF0F48D0
:1060800041684268521AA242FBD300F0E7FE02F0D8
:1060900035FF02909DF8080028B19DF808000849D6
:1060A00048618861C861286820F07F4028603EBD53
:1060B00030C500A000008F1104630001001000E053
:1060C000846600302DE9FC41294D286820F07F408E
:1060D00040F088502860274803C8CDE900012448D3
:1060E00024380068C82100F007001DF8000010FBEC
:1060F00001F400F0CFFE204841684268521AA242E3
:10610000FBD300F0ABFE002602F0F8FE0446DFF8F9
:106110006C80D8F81800844201D9012700E00027DC
:1061200073F40AD440B91FB1D8F81800201A02E05D
:10613000D8F81800001BC6B2D8F81800C8F820001C
:10614000B6EB900F03D8292C01D8112C02D200F005
:1061500017F807E000EBC00020440A21B0FBF1F083
:10616000C8F81800286820F07F402860BDE8FC814E
:1061700028C500A004630001001000E08466003020
:106180002DE9FF5F4FF0000B0824DFF86C811A2027
:10619000C8F8140059480168594A89B2114301608E
:1061A00003A8FDF787FE0220FDF78CFEDFF84C9177
:1061B00009F10809D9F8000020F47C3040F42030BF
:1061C000C9F800004FA003C8CDE90001DFF82CA1F9
:1061D000AAF1240ADAF80000C82100F007001DF82F
:1061E000000010FB01F500F055FE484F7868796813
:1061F000091AA942FBD300F031FE02F07FFE0290A3
:106200009DF80810D8F81400814204D99DF80820A0
:10621000811C8A425AD99DF80810814204D29DF807
:106220000820811E8A4251D29DF80810814201D96E
:10623000012500E0002515B1641C64B201E0641E74
:1062400064B2202C11D3D9F8000020F47C3040F443
:106250002030C9F80000D8F83C00401CC8F83C00C9
:10626000002002904FF0010B30E0D9F8000020F43C
:106270007C3040EA043040F40030C9F8000021A02E
:1062800003C8CDE90001DAF80000642100F007003E
:106290001DF8000010FB01F600F0FCFD786879683D
:1062A000091AB142FBD300F0D9FD02F027FE02909B
:1062B00035B19DF80800D8F814108842BBD805E025
:1062C0009DF80800D8F814108842B4D39DF80C004B
:1062D000FDF7F8FD0948016821F07F4101609DF854
:1062E0000800C8F81800D8F82400401CC8F824009A
:1062F00004B05846BDE8F09F8466003028C500A071
:1063000000008F114030101810200000001000E035
:106310000A49322808DDD1F8200220F4706040F4E8
:106320004070C1F8200270472828FCDAD1F820021A
:1063300020F47060C1F820027047000000E000A067
:106340002DE9F04105460E461746094C2378002BEF
:1063500002D000206FF4A4D53A463146284600F01A
:1063600099FE054620786FF49BD52846BDE8F0815C
:10637000C92380002DE9F04105460E461746094C19
:106380002378002B02D000206FF48AD53A4631469C
:10639000284600F08FFE054620786FF481D5284608
:1063A000BDE8F081C92380000121024A002069F480
:1063B000DB9300009166000110B5104C022204210D
:1063C000204601F0DFFC01221021204601F0DAFC1A
:1063D00002228021204601F0D5FC022240212046E5
:1063E00001F0D0FC02222021204601F0CBFC204607
:1063F0000222BDE81040082101F0C4BC001001A039
:106400002DE9FE4F07460D4602AA2946384603F0FD
:106410003BFD10B10298BDE8FE8F029C002602965B
:10642000DFF8688098F8000010B100206FF438D5CC
:10643000DFF85CA04FF6FF7908226946204600F09D
:1064400029FEBDF80000484502D12E80029617E0D3
:10645000B84206D115B1BDF8020028800834029474
:106460000EE0BDF802006FF4A7D1BDF802100830AD
:1064700021444418DAF800008442DDD32E800296CD
:1064800098F800006FF40CD50298C4E7C923800087
:10649000D023800070B5044600BFFDF75DFE0546C1
:1064A0000120FDF75CFE0948047024B94822084920
:1064B0000848FCF747F91DB90020FDF750FE02E03F
:1064C0000120FDF74CFE00BF70BD000000660030EB
:1064D000F4730030002000E010B507484068074919
:1064E000486006480830402203490831FCF72AF981
:1064F00003200249086010BDAC730030002000E0AA
:1065000070B500BFFDF728FE05460120FDF727FE08
:106510000B48047834B948220A490B48FCF712F9B1
:10652000FFF7DAFF0120064908701DB90020FDF7CA
:1065300016FE02E00120FDF712FE00BF204670BDEE
:1065400000660030002000E0F473003013B5012134
:106550006846FEF70FFD01201CBD017882781144CA
:10656000C9B201710846704730B5002242714388B4
:1065700005E044798D5C2C444471521C92B29342E4
:10658000F7D8407930BD000070B506462DED068B7A
:1065900088B00D469FED368B20216846FCF726F922
:1065A0000024102269463046FDF7E4FD00206946CC
:1065B00000F1080231F81220224494B2401CC0B20B
:1065C0000828F5D3E408052E02D0062E24D046E094
:1065D000688804F040FA41EC180B288804F03BFA74
:1065E00041EC190B204604F036FA53EC192B04F059
:1065F00095FB53EC182B04F079F89FED1F1B53EC1F
:10660000112B04F073F89FED1E1B53EC112B04F0BB
:1066100079FB41EC180B22E09FED1B0B51EC100BAA
:1066200003F07EFF41EC190B688804F014FA41EC8A
:106630001A0BA88804F00FFA41EC180B204604F05E
:106640000AFA53EC182B04F069FB53EC1A2B04F0F4
:106650004DF853EC192B04F057FA41EC180B08B025
:10666000B0EE480AF0EE680ABDEC068B70BD000083
:10667000000000000000000079E9263108AC5CBF92
:106680000000000000003940B76DDBB66DDB0E4046
:106690001CB542680121117000214FF48A2205E0E7
:1066A00012F8013B4468491C6354C9B20829F7D366
:1066B000094906C9CDE900124168009A41F8092F3D
:1066C000019A4A6002884068112169F40FD2034997
:1066D000002008701CBD0000A0B10001482580000A
:1066E000024600210BE0084850F83130501E83422A
:1066F00004D1054800EBC10040687047491C1029CF
:10670000F1DB0020F9E700003C740030002101E0DB
:10671000491C4008C207FBD008467047014617488D
:106720000068C0F3C220DC2901DA06207047A1F11D
:10673000DC020A2A03D20428F8D006207047A1F10F
:10674000E602142A01D804207047A1F1FB02092AAD
:1067500003D20328F8D004207047A1F58272282ABA
:1067600001D803207047A1F22D11092903D2022874
:10677000F8D00320704702207047000010C500A029
:1067800001461E480068C0F3C220DC2901DA072058
:106790007047A1F1DC020A2A03D20528F8D00720AD
:1067A0007047A1F1E602142A01D805207047A1F133
:1067B000FB02092A03D20428F8D005207047A1F56E
:1067C0008272282A01D804207047A1F22D12092ACA
:1067D00003D20328F8D004207047A1F59B723C2A0D
:1067E00001D803207047A1F27311092903D20228AE
:1067F000F8D00320704702207047000010C500A0A9
:106800007CB51648C068019001248DF80540052527
:106810008DF804502003009007268DF8066010A321
:10682000144A69460520FDF7B9FF10B112A0FBF725
:1068300021FD8DF805408DF80450022000908DF860
:10684000066015A30B4A69460320FDF7A7FF002841
:1068500002D009A0FBF70EFD7CBD0000E4B00001F2
:106860004B4559302070696E20696E74657272757F
:10687000707400009D4600014150505F4750494FE1
:106880005F4B45593020696E6974206661696C659B
:10689000642E0D0A000000004B4559312070696ECE
:1068A00020696E7465727275707400002DE9FC4188
:1068B0003A48406801900A244FF000088DF805809E
:1068C00002278DF80470FD02009507268DF80660FA
:1068D00069460120FEF720F810B131A0FBF7CAFC91
:1068E0008DF805808DF804704FF00108CDF8008018
:1068F0008DF8066069460420FEF70EF810B130A04E
:10690000FBF7B8FC8DF805808DF80480802000909E
:106910008DF8066069460320FDF7FEFF10B130A038
:10692000FBF7A8FC8DF805808DF8048000978DF8A2
:10693000066069460420FDF7EFFF002829D030A04B
:10694000FBF798FC25E0012229461046FEF70AF9DC
:1069500080210320FEF79EF8014631A0FBF78AFC58
:10696000002229460120FEF7FDF880210320FEF7D2
:1069700091F8014638A0FBF77DFC01210420FEF7C9
:10698000BDF802210420FEF785F8014640A0FBF780
:1069900071FC641E601CD6D1BDE8FC81E4B000012E
:1069A0004150505F4750494F5F50494E3020696E0B
:1069B0006974206661696C65642E0D0A0000000030
:1069C0004150505F4750494F5F50494E3120696EEA
:1069D0006974206661696C65642E0D0A0000000010
:1069E0004150505F4750494F5F50494E3220696EC9
:1069F0006974206661696C65642E0D0A00000000F0
:106A00004150505F4750494F5F50494E3320696EA7
:106A10006974206661696C65642E0D0A00000000CF
:106A20004150505F4750494F5F50494E3020736589
:106A30007420686967682C204150505F4750494F67
:106A40005F50494E3220696E7075742076616C75A6
:106A5000653D25640D0A00004150505F4750494F85
:106A60005F50494E3020736574206C6F772C204145
:106A700050505F4750494F5F50494E3220696E7009
:106A800075742076616C75653D25640D0A00000003
:106A90004150505F4750494F5F50494E3120746F0D
:106AA00067676C652C204150505F4750494F5F50DD
:106AB000494E3320696E7075742076616C75653D42
:106AC00025640D0A0000000002210148FDF782BD87
:106AD000F4B000012DE9F04704460D464FF00008E0
:106AE00000BFFDF739FB81460120FDF738FB304838
:106AF0000068102802D34FF0FF384BE048222D49A0
:106B00002D48FBF71FFE48222C492A48FBF71AFEA6
:106B10002B482749096840F831402549096800EBAE
:106B2000C100456027884DF6FF7624F0010425F06A
:106B3000010504F0030080B1A01E40F001011D48D2
:106B400008301B4A126840F8221007EB06401D4926
:106B5000174A126841F822000CE044F00101154880
:106B60000830134A126840F8221016481049096884
:106B700040F8216048220F491048FBF7E3FD482206
:106B80000D490C48FBF7DEFD09480068401C084928
:106B9000086000BFB9F1000F03D10020FDF7DFFA54
:106BA00002E00120FDF7DBFA00BF4046BDE8F087B8
:106BB00004660030002000E0F4730030AC73003055
:106BC0003C7400300076003070B5044600BFFDF71D
:106BD000C3FA05460120FDF7C2FA002014490870E7
:106BE0001448154908601548154908604822154998
:106BF0001548FBF7A7FD15481249486003200860B7
:106C000048221348FBF79EFD48220F490D48FBF729
:106C100099FD882C01D002F0CDFE1DB90020FDF7B2
:106C20009EFA02E00120FDF79AFA00BF70BD000055
:106C30000066003095640001EC26800001650001CB
:106C4000E8268000002000E0F47300300076003079
:106C5000AC73003005480068C00F002804D0044819
:106C6000007908B1012070470020704740C500A09E
:106C700084660030FEB50546002403208DF8000030
:106C800000260B4FE8070CD00120A040019004EB38
:106C9000440007EB800081680291416809B16846B1
:106CA0008847641CA4B26D08761C082EEADBFEBD82
:106CB0008871003010B5EFF31084012181F3108842
:106CC00000F004F884F3108810BD00002DE9F041B5
:106CD0000446204600F0F6FFE0B2EFF310810122F7
:106CE00082F31088194A136883430343136081F3C6
:106CF00010881748446284634FF6FF7000EA04214D
:106D0000E0B2124B0C3B1A68084382431A6019E048
:106D100094FAA4F0B0FA80F101208840611E0C4082
:106D2000072290FAA0F1B1FA81F18900094D2E688D
:106D30000F278F40BE438A4016432E60196821EA10
:106D400000401860002CE3D1BDE8F0815CC500A0D4
:106D5000002001A090E200A070B50546064810F49E
:106D600095D6EFF31084012181F31088284600F0B6
:106D700005F884F3108870BD5066003000B585B00A
:106D800001680091017901F003010191816802918C
:106D9000C1680391406800090490684600F006FF4E
:106DA00005B000BD10B5FF20FDF7B4FA80B2002891
:106DB00021D011498863EFF31081012282F31088FA
:106DC0000E4A6FEA0043136081F310886FF00401EC
:106DD00011600A4940390968C1F3001139B120280E
:106DE00005D0BDE8104020F0200010F4C795BDE8A4
:106DF000104010F4C39510BD002001A044C500A0B0
:106E000010B5EFF31081012282F31088054A136850
:106E10004FF6FF7404EA00204340136081F31088AA
:106E200010BD00005CC500A030B4002910D0EFF305
:106E30001081012282F31088074B1A684FF6FF7405
:106E400004EA002002431A6081F3108830BC7047C6
:106E500030BC00F037BF00005CC500A0EFF310812C
:106E6000012080F3108808480268521E0260026800
:106E7000002A05D18268054B1A604068044A1060F8
:106E800081F310887047000008660030001000E0B1
:106E9000FCED00E010B5EFF31081012080F31088C5
:106EA0000B480268002A0DD10A4B1A6842600A4A50
:106EB00014688460446844F080741C60836843F004
:106EC000010313600268521C026081F3108810BD38
:106ED00008660030FCED00E0001000E010B504464C
:106EE000002C1DD0207A01281CD0012020721A48C5
:106EF000006818B1416809B1204688471748016801
:106F000021F480610160EFF31081012080F310888B
:106F10001348026822F002020260006820B114E007
:106F2000012010BD022010BD0E48426842F001024F
:106F30004260C26842F00072C260026842F0010220
:106F40000260C26842F08072C26081F31088002043
:106F5000E0606072207210BD8403800014C500A040
:106F6000C4670030A0E200A070B50446002C03D036
:106F700023492068884201D0012070BD207A012871
:106F800005D001252572607A002610B11EE002208E
:106F900070BD26721B48016821F001010160816803
:106FA00021F000718160EFF31080012181F31088DE
:106FB00015490A6842F002020A6080F310881348FB
:106FC000006818B1016809B1204688470220607244
:106FD0000F48016841F4806101606068012809D0B0
:106FE0002068016821F4805101603046E6606572D6
:106FF000207270BD2068016841F480510160F4E79F
:10700000006401A0A4E200A0C467003084038000F3
:1070100014C500A010B50B46024600210348FEF738
:107020006ED908B1002010BD012010BD641F800082
:1070300038B5022000906846FCF73CFF114C2068F0
:1070400080B91148206011490160012141608160CF
:10705000EB21C1600E499DF8002051F8221001611A
:107060000021416174F482D708B1012000E00020C2
:10707000A072044812F472D108B1002038BD01207A
:1070800038BD0000641F8000281F800000D000A0D1
:107090002C66003010B514460A46014623460448C3
:1070A000FEF790DD08B1002010BD204610BD0000A5
:1070B000641F80002DE9F047C0B081468A4617461C
:1070C0003B46524649461748FEF70FD818BB0024E6
:1070D0003D464FF48078474501D9464600E03E469C
:1070E00009EB040133466A460E48FEF76BDD90B9A2
:1070F0000AEB040032466946FBF794FA58B9AD1B17
:107100006DB134444646B54200D82E46BC4202D248
:10711000A019B842E4D9002040B0BDE8F087384655
:10712000FAE70000641F800070B505460E46074868
:1071300012F4D6D4EFF31084012282F31088314682
:10714000284612F495D484F3108870BD546600303C
:107150002DE9FE4307460E463046FFF7D7FA85B2C3
:107160000024DFF85490DFF8548059F83400B84216
:107170001DD105EB041085B205EB450218F822007D
:10718000052807D08DF800400D48874206D130040D
:10719000019004E005208DF80000F5E7019608EB6A
:1071A00082008168029142680AB168469047641C77
:1071B000032CDADBBDE8FE8340B00001087000302C
:1071C000001001A070B505460E46074812F488D499
:1071D000EFF31084012282F310883146284612F41E
:1071E00074D484F3108870BD5466003010B506481E
:1071F00018F496D3EFF31084012080F3108814F470
:1072000037D784F3108810BD48660030F0B54FF0D2
:10721000F85000EA01604FF4F81202EA0142254BEF
:107220001C680243944304431C6001F01F00EFF309
:107230001082012484F310881C1D256885430543B2
:10724000256082F310884FF4F85202EA01221D688B
:1072500085431D60EFF31080012383F310882368BA
:107260009343236080F3108820E091FAA1F0B0FAF4
:1072700080F2012090404A1E1140072390FAA0F2AC
:10728000B2FA82F292000C4E35680F279740BD4348
:1072900093401D433560EFF31082012383F3108880
:1072A000236823EA8050206082F310880029DCD113
:1072B000F0BD00003CC500A094E200A0084600F02C
:1072C00083BD084614F46297084614F46B97084689
:1072D000114614F47397704770470000012080F343
:1072E00010880F48016821F08071016001210C4A6B
:1072F00038321160016841F000710160084A6FF096
:107300004001143A11600021026861F3DF620260FB
:10731000054A04491160016841F080710160FEE78F
:1073200058C500A0646F6F670070800070B5044698
:107330000D46044816F424D629462046BDE8704080
:1073400016F4DE95497300012DE9F041EFF3118742
:107350000220FCF7B9FE0446FCF7D2FE401C0121D6
:1073600081406018C0B280F311880020FDF7D6FF7D
:107370000546254ED5E90412C6E902122348081A2B
:1073800072F11E0019D306F110000EE0DCE90412C0
:10739000D6E90234B1EB030872EB040804D3C91A2E
:1073A00062EB0402CCE90412006AD0F820C0BCF100
:1073B000000FEBD10021B160F160A87801280AD15B
:1073C000D6E90230D5E9021259185041C5E9041036
:1073D0002846FDF767FFF8B280F31188FEF710F832
:1073E000706840B1D0E90421D6E90203101A61EBBC
:1073F000030100F0C1FDE96909B1A8698847BDE84A
:10740000F041FDF7C7BF0000706F00300010C32CC3
:1074100010B5032806D0FFF789FF03490120087043
:10742000002010BD012010BD156600300E48817887
:10743000002909D10D49096801F0405101228270EB
:10744000B1F1805F00D14270407858B10848F6EE43
:10745000000A90ED000A30EE200ABCEEC00A10EEE1
:10746000100A704774F4D6941566003050C500A019
:107470001C66003008B50020009069464FF00040BF
:10748000FCF7CCDF08B1002008BD009808BD000063
:1074900001480078704700001566003010B50021E3
:1074A0000320FFF743FF02490020087010BD0000D1
:1074B000156600301CB502F067FD05218DF800103F
:1074C0000649002251F8203083F8002151F82000AD
:1074D0000168002901D0684688471CBDD865003086
:1074E0001CB502F051FD04218DF800100649002260
:1074F00051F8203083F8002151F82000016800295C
:1075000001D0684688471CBDD86500301CB502F024
:107510003BFD03218DF800100649002251F8203070
:1075200083F8002151F820000168002901D0684645
:1075300088471CBDD865003070B5054606481AF46A
:10754000E7D1EFF31084012181F31088284619F464
:1075500093D784F3108870BD586600301CB504467C
:10756000204602F011FD00228DF80020E16B019110
:10757000064951F8203083F8002151F820000168B5
:10758000002901D0684688471CBD0000D86500303E
:10759000002804D010F8371F4078084370470020B7
:1075A0007047000070B5054606481AF4B1D1EFF3F4
:1075B0001084012181F3108828461AF44BD084F3FB
:1075C000108870BD58660030704770471CB504467F
:1075D000204602F0D9FC02218DF80010218D628D29
:1075E000891AADF80410044951F8200001680029F7
:1075F00001D0684688471CBDD86500307CB505467B
:10760000284602F0C1FC044601208DF80000288CB9
:10761000698C401AADF804000C4D55F8240090F820
:10762000040118B12046FEF711F802E02046FEF7EB
:1076300063F955F8240090F80011002904D101687D
:10764000002901D0684688477CBD0000D86500301D
:1076500038B500200090124C2078902808D015D220
:1076600094F8280000F07F0000F14600009012E03E
:10767000684602F0D1F894F82800BDF8001088425E
:1076800009D900F07F004630009004E0A07C00F0B3
:107690007F0012380090BDF8000000F07F0038BD78
:1076A00012328000F0B585B00446224F21033868BD
:1076B000FFF7B0FC204E4FF40045D8B11F480168D9
:1076C000039140680490082203A93868FEF752FE2F
:1076D00008281ED0B069717A40F26A22CDE90021F3
:1076E0000290174B17A22946002005F457D3092012
:1076F00005B0F0BDB069717A4FF41572CDE9002183
:1077000002900F4B0FA22946002005F447D3092011
:10771000EEE71848082101606FF0130101EB043314
:107720004360447214A22946002005F437D3002098
:10773000DEE70000CC238000641F8000ACD507008A
:1077400027B10001523A353A25732C204C2564208C
:10775000666C6173682073746174652030782530BD
:1077600032582C206572726F72203078253038586C
:107770000D0A0000D8328000523A353A496E6974D9
:1077800069616C697A6520756E75736564206E76C3
:1077900064732C20617661696C5F73697A653D253D
:1077A000640D0A002DE9FC5F4A490C6808344A4F11
:1077B0007872082139606FF0130101EB003808F18D
:1077C000080078604FF001094FF0000ADFF80CB1B3
:1077D0009BF80000002802D000206EF461D3042240
:1077E00069462046FFF756FCBDF80010A1F57F4022
:1077F000FF3826D0082269462046FFF74BFCBDF82B
:10780000020000F108056DF4D7D7C6B2BDF800003C
:1078100000282BD0684602F079FCA8B17868A91935
:10782000401A786000281BDA2DA24FF40041002096
:1078300005F4B4D29BF800006EF432D30120BDE809
:10784000FC9F4FF0010A1AE033A24FF400410020E0
:1078500005F4A4D29BF800006EF422D30920EEE7D1
:107860004FF000092146684602F052FA3968A8191B
:10787000014439600444374800688442AFD39BF820
:1078800000006EF40DD3BAF1000F05D0B9F1000F6E
:1078900004D0C7F804800AE00120D0E778680828FF
:1078A00002D90838786002E03872002078607B687E
:1078B000434507D828A24FF40041002005F46ED2BA
:1078C0000020BCE72FA24FF40041002005F466D24F
:1078D0000120B4E7CC238000D8328000C923800087
:1078E000523A353A4E56445320696E697469616C58
:1078F000697A6174696F6E206661696C656420667F
:107900006F722077726F6E6720746167206C656E8E
:107910006774680D0A000000523A353A4E564453D7
:1079200020696E697469616C697A6174696F6E202F
:107930006661696C656420666F7220696E76616C41
:107940006964206461746120696E20466C617368AB
:107950000D0A0000D0238000523A353A496E69740E
:1079600069616C697A652075736564206E766473ED
:107970002C20617661696C5F73697A653D25750DB0
:107980000A000000523A353A4E56445320696E6957
:107990007469616C697A6174696F6E206661696C83
:1079A000656420666F7220696C6C6567616C20612C
:1079B0007661696C5F73697A653D25750D0A000013
:1079C00010B50446FFF744FEB4F5A37F10DA4FF478
:1079D0008C718C4200DA0C46614201EB810140F669
:1079E000B24202EB4102112192FBF1F1401AC0B206
:1079F00003490A6822F0FE4242EA0060086010BDB6
:107A00000CC500A070B503460E461546084804682C
:107A1000324621461846FFF73DFB324629462046AE
:107A2000FAF700FE08B1002070BD012070BD000013
:107A3000446600302DE9F04705460E461746984645
:107A4000EFF311840220FCF73FFB8146FCF758FB63
:107A5000401C0121814009EB0100C0B280F3118874
:107A60000B48406848B1E81B76EB08060AD2E0B242
:107A700080F311880120BDE8F087E0B280F311881F
:107A80000120F8E7E0B280F311880020F3E700005E
:107A9000706F0030002805D0C16919B1807818B125
:107AA000012801D000207047012070477CB50446B2
:107AB000002000900190684601F01CFF00285ED174
:107AC00001F004FF80F0010020B301F0DFFE0200AE
:107AD0002B482C4909D090F8280008300A6822F079
