:020000040100F9
:10200000000084005920000161200001914A8000F5
:10201000FF210001FD2100014F220001000000000E
:10202000000000000000000000000000394C8000AB
:102030006B200001000000006D20000171200001F4
:10204000DFF810D000F04AFC00F094F80048004798
:1020500065120101000084000648804706480047D9
:10206000FEE7FEE7FEE7FEE7FEE7FEE7FEE7FEE748
:10207000FEE700001D2B0001851201012DE9F05F34
:102080000546002092469B468846064681464024E7
:102090001BE0284641464746224600F0DCFA5346FC
:1020A0005A46C01A914110D311461846224600F0F4
:1020B000C3FA2D1A67EB01084F4622460120002182
:1020C00000F0BAFA17EB00094E41201EA4F10104FA
:1020D000DFDC484631462A464346BDE8F09F000013
:1020E0000649074A0868504343F239021044086021
:1020F0004008704701490860704700007C4A800032
:102100006D4EC64140EA01039B0703D009E008C9B0
:10211000121F08C0042AFAD203E011F8013B00F8AC
:10212000013B521EF9D27047D2B201E000F8012BF8
:10213000491EFBD270470022F6E710B513460A4647
:1021400004461946FFF7F0FF204610BD421C10F868
:10215000011B0029FBD1801A704730B504460020CE
:10216000034600E05B1C934203D2E05CCD5C401B65
:10217000F8D030BD70B5054C054D03E02068204413
:102180008047241DAC42F9D170BD00001C6A0101DA
:10219000206A01010EB540F2334102910021CDE9E0
:1021A00000110A460B4600F0BEFA03B000BD0EB5A2
:1021B00040F2334202920022CDE90022134600F0A1
:1021C000B2FA03B000BD20F00040C20DC0F316000B
:1021D00040F400007F2A02DA002001467047002107
:1021E000962A03DCC2F19602D0407047963A00F07E
:1021F00023BA43F21D6CC3F2000C6047FEE7FEE712
:1022000058585247010000001555000000200001F9
:10221000002000016EED52490101000000000000A5
:1022200000000000000000000000000000000000AE
:10223000000000000000000000000000000000009E
:1022400043F6C51CC3F2000C60471BF44597FEE73C
:10225000704770472DE9FE4F804681EA0300C00FAA
:102260000C46009021F0004123F00045B8EB02003D
:10227000A94105D24046214690461C460B460246DF
:1022800023F00040104347D0270DC7F30A00C3F3E3
:102290000A510290401A019040286BDAC3F31300F0
:1022A00040F4801B0098924620B10023D2EB030A31
:1022B00063EB0B0B01985946C0F14002504600F009
:1022C000BBF906460D4650465946019A00F0D3F92F
:1022D00010EB08006141002487EA115284EAE77399
:1022E0001A4340D0009A62B3019A012A4FEA07527A
:1022F00015DC001B61EB02014FF0004202EA0752BD
:10230000CDE90042001C41F5801132462B4600F019
:102310000AFA03B0BDE8F08F40462146F9E7001BFA
:1023200061EB0201001C41F5801300185B4120188D
:10233000A2F5001747EB030140EAD570B6196D41CD
:1023400011E06D084FEA360645EAC0754FEA0752BC
:10235000001B61EB0201001C41F5801149084FEAA6
:1023600030000019514132462B4603B0BDE8F04F12
:1023700000F0CAB90098012240000023D0EB02020D
:1023800063EBE073009821464FEAE074B8EB00007D
:1023900061EB0401E9E783F000435BE781F0004172
:1023A00058E72DE9FE4F81EA030404F0004421F0D0
:1023B000004100944FF0000B23F0004350EA010469
:1023C0005ED052EA03045BD0C3F30A54C1F30A554A
:1023D0002C44A4F2F3340194A0FB0254C1F3130182
:1023E00041F48011C3F3130343F4801301FB02444F
:1023F00000FB034E840A970A44EA815447EA835754
:10240000A4FB076802958D0A05FB07854FEA932C0C
:1024100004FB0C542705029D4FEA065847EA16377D
:10242000B5EB08056EEB070C870E920E47EA811795
:1024300042EA8312A7FB0201B6EB0B0164EB000436
:102440002B0D43EA0C335E1844EB1C50DA46514620
:10245000E7FB0201C5F313044FEA0B3343EA1453BD
:102460004FEA0432019C43EA0603A4F10C040294EF
:10247000009CCDE900B400F056F903B0BDE8F08F40
:1024800000200146F9E72DE9F04D81EA030404F04C
:10249000004B21F0004514464FF0000A23F00041A4
:1024A00050EA050220D054EA01021DD0C5F30A57B4
:1024B0000246C5F31303C1F31300C1F30A5640F4F7
:1024C000801543F48013A7EB0608101BD64608F2CC
:1024D000FD3873EB050002D308F1010801E0921802
:1024E0005B41B8F1000F03DA00200146BDE8F08D32
:1024F00000204FF48011064684460EE0171B73EB54
:10250000050705D3121B63EB050306434CEA010CD8
:1025100049084FEA300092185B4150EA0107EDD1BB
:1025200052EA030012D082EA040083EA050108435C
:1025300005D0101BAB4106D20122002306E0002289
:102540004FF0004302E06FF0010253101AEB060057
:102550004CEB085110EB0A0041EB0B01BDE8F04DCC
:1025600000F0D2B870B5C1F30A5201F00045002462
:10257000C1F3130140F2FF3341F480119A4201DAB2
:10258000002070BD40F233439A42A2F2334203DC92
:10259000524200F060F800E090402C43F1D04042FD
:1025A00070BDC1F30A5210B5C1F3130140F2FF33FD
:1025B00041F480119A4201DA002010BD40F2334309
:1025C0009A42A2F2334203DC524200F044F810BDBA
:1025D000904010BD01F0004330B421F0004150EABA
:1025E000010206D00A0DA2F56072C1F31301002AA0
:1025F00002DC30BC00207047440F44EAC104C10033
:10260000E01830BC00EBC25000F047B830B50B46C4
:10261000014600202022012409E021FA02F59D4212
:1026200005D303FA02F5491B04FA02F52844151EE6
:10263000A2F10102F1DC30BD202A04DB203A00FACD
:1026400002F1002070479140C2F1200320FA03F309
:10265000194390407047202A04DB203A21FA02F007
:102660000021704721FA02F3D040C2F120029140CC
:10267000084319467047202A06DBCB17203A41FA57
:1026800002F043EAE07306E041FA02F3D040C2F1FF
:10269000200291400843194670470029A8BF70479F
:1026A000401C490008BF20F00100704710B4B0FA88
:1026B00080FC00FA0CF050EA010404BF10BC704723
:1026C00049B1CCF1200421FA04F411FA0CF118BF3D
:1026D000012121430843A3EB0C01CB1D4FEA00610C
:1026E0004FEA102042BF002010BC704700EBC350DF
:1026F00010440029A4BF10BC7047401C490008BF0B
:1027000020F0010010BC704710B5141E73F10004D6
:1027100008DA401C41F1000192185B411A4301D1D3
:1027200020F0010010BD2DE9F04D92469B4611B1FD
:10273000B1FA81F202E0B0FA80F220329046FFF75F
:102740007BFF04460F4640EA0A0041EA0B0153466C
:102750005A46084313D0114653EA010019D0C8F174
:1027600040025046FFF777FF05460E465046594651
:102770004246FFF761FF084305D0012004E02046F0
:102780003946BDE8F08D0020054346EAE0762C434B
:1027900037430A986305E40AA0EB08000022FD0A0B
:1027A00044EA47540A3002D500200146E9E7010512
:1027B00010196941DDE9084500196941BDE8F04D8E
:1027C000A2E700002DE9F041054621F000400C464B
:1027D000284309D0C4F30A5040F23341884205DD52
:1027E00028462146BDE8F0812846FBE740F2FE314D
:1027F000884210DC0CDB4FEA043040EA155050EA06
:10280000053105D0104804F0004101430020E9E7FC
:1028100000200146E6E7A0F233404642C6F14002FE
:1028200028462146FFF708FF0746884628462146E6
:102830003246FFF710FF43463A46FFF765FF324640
:10284000BDE8F041FFF7F8BE0000F03FC1F30A52C7
:10285000C1F3130140F2FF3341F480119A4202DACE
:1028600000200146704740F233439A42A2F23342BD
:1028700002DC5242FFF7EFBEFFF7DEBE30B5041EAA
:1028800071F1000404DB4FF00044404264EB0101AD
:10289000141E73F1000405DB1C464FF00043524246
:1028A00063EB04038B4208BF824230BD30B5041E87
:1028B00071F1000404DB4FF00044404264EB01017D
:1028C000141E73F1000405DB1C464FF00043524216
:1028D00063EB0403994208BF904230BD064C074D9C
:1028E00006E0E06840F0010394E8070098471034E0
:1028F000AC42F6D3FFF7A8FBCC6901011C6A0101C9
:1029000070B58C1810F8015B15F0070301D110F8B1
:10291000013B2A1106D110F8012B03E010F8016BDE
:1029200001F8016B5B1EF9D12B0705D40023521E61
:102930000DD401F8013BFAE710F8013BCB1A921CC9
:1029400003E013F8015B01F8015B521EF9D5A142C7
:10295000D8D3002070BD000010B51E4800680028C4
:1029600000D080471C4900200870811E1B48016070
:102970001B494FF0007008601A4CD4F8C002800761
:1029800004D4F42218A11DA006F4C0F22A4801685C
:10299000D4F8C40261F31D3040F00100C4F8C40251
:1029A00005F416F100214FF03040C1608161C1177C
:1029B0004161016205F4C8F008484038016821F41B
:1029C000800101601D480068002802D0BDE8104069
:1029D000004710BD602480008049800044C500A0ED
:1029E00080E200E000E000A0727769705F736C65C0
:1029F00065705F636F6D6D6F6E2E63004D43555F45
:102A00005355422D3E424C455F44534C4545505F23
:102A1000434F52525F454E2026204D43555F53553C
:102A2000425F424C455F44534C4545505F434F52D3
:102A3000525F48575F454E00542480006424800054
:102A400000214FF03040C1608161C11741610162D6
:102A50000649022004220A60BFF34F8FBFF36F8F35
:102A60000860BFF34F8FBFF36F8F704780E100E0C6
:102A700004490220C1F800010860BFF34F8FBFF383
:102A80006F8F704780E100E00249096801F007019B
:102A90000170704704C500A030B4062821D2124945
:102AA0000A6802F00702824212D00A680F4B1A40ED
:102AB0000F4C22430A6000BF00BF00BF00BF0A687E
:102AC0001A400C4B024333F8203042EA83420A603A
:102AD0000849183951F820000749486030BC76F49D
:102AE000899230BC7047000004C500A0F8FFE3FFE6
:102AF000050008008451010100418000044800687D
:102B0000044900F0070051F820000349486070476D
:102B100004C500A06C510101004180000248016819
:102B200041F470010160704788ED00E002480068E0
:102B3000001D1EF491950000CC43800002484068BF
:102B4000001D1EF489950000CC4380000FB4054B96
:102B500010B503A9044A029800F0AEF910BC5DF864
:102B600014FB0000897D0001F84380000FB41CB500
:102B70000246002007AC00290BD0491ECDE90021F8
:102B8000054B6A462146069800F096F9009A002106
:102B900011701CBC5DF814FBE73500010FB4084B45
:102BA00010B504A902AA039800F086F9044602A908
:102BB000002000F023FD204610BC5DF814FB00004F
:102BC000FD3500017CB5044600201D46164600294F
:102BD0000BD0491ECDE90041044B6A4629463046D8
:102BE00000F06AF9009A002111707CBDE735000100
:102BF000002804DB00F1E02090F80004704700F0AA
:102C00000F0000F1E02090F8140D7047002804DB5D
:102C100000F1E02090F80004704700F00F0000F190
:102C2000E02090F8140D704702480068C0F30220BD
:102C3000704700000CED00E010B52DED020B2DEDFE
:102C4000088B84B09DED0C0B51EC100BFFF7BAFD17
:102C500041EC180B9DED0C0B53EC182B51EC100BA9
:102C6000FFF799FB41EC190B0D989FED290B10F024
:102C7000004F53EC102B51EC190B9FED21AB9FED46
:102C800022BB0ED0FFF7FAFD0ED953EC1B2B51ECF3
:102C9000190BFFF70BFE1CD214E000BF41EC180B20
:102CA00017E0FFF7EBFD06D253EC1A2B51EC180B93
:102CB000FFF771FBF2E753EC1B2B51EC190BFFF7FD
:102CC000F5FD06D853EC1A2B51EC180BFFF7C2FA9E
:102CD000E4E78DED028B9DED0C0B18EE901A10EED3
:102CE000900A8DED000B61F31E0003909DED020B29
:102CF00004B0BDEC088B02B010BD00000000000065
:102D0000000000000000F03F000000000000E03F75
:102D1000000000000000E0BF02E008C8121F08C168
:102D2000002AFAD17047002001E001C1121F002AD9
:102D3000FBD170472DE9FF5F82B00021DDE904304F
:102D4000020DDDF840B0034318D044F61050A2F253
:102D5000FF3242431514119801281FD0A5EB0B0038
:102D6000401C5FEA000A4FF000064E4FDFF8389132
:102D7000B046504615D5CAF1000413E0119801245D
:102D80004AA3012801D16FEA0B010298119AC0E908
:102D90000031C0E9024206B0BDE8F09FCBF100006F
:102DA000DFE704460021404A491842EB0450CDE9D0
:102DB000001012E0E00707D032463B464046494645
:102DC000FFF7EFFA8046894632463B4610461946E1
:102DD000FFF7E7FA06460F466410002CEAD1DDE95A
:102DE0000401DDE90023BAF1000F06DAFFF7D9FA92
:102DF00042464B46FFF7D5FA05E0FFF744FB424653
:102E00004B46FFF740FB04460E460022284BFFF7D7
:102E10004DFD03D84FF0FF30014607E00022254B5F
:102E200020463146FFF716FAFFF710FD102409E09F
:102E3000002C0ADB0A220023FFF720F9039B303223
:102E40001A55641E50EA0102F2D1641C039AC4F1BF
:102E500011031444119A012A03D0012208430DD111
:102E60000AE0084304D000204FF0110B119072E7E4
:102E7000A3EB0B056D1E0DE05B4504DD4FF000027A
:102E800005F1010504E003DA4FF00002A5F10105A8
:102E9000002AECD002981199C0E90231C0E900453E
:102EA00079E70000000014400000F03F300000000F
:102EB0000000F0430000E03F2DE9FF4F95B09B4636
:102EC0008946064600250FE2252877D100242746AB
:102ED000F84A0121059400E0044316F8013F203B25
:102EE00001FA03F01042F7D130782A2811D06FF0A0
:102EF0002F033078A0F13002092A16D8059A44F041
:102F0000020402EB820203EB42021044761C05909D
:102F1000EFE759F8042B0592002A03DA504244F4F3
:102F20000054059044F00204761C30782E2816D107
:102F300016F8010F44F004042A280DD06FF02F0278
:102F40003078A0F13003092B09D807EB870302EB97
:102F50004303C718761CF3E759F8047B761C3078D6
:102F60006C280FD006DC4C2817D068280DD06A28B2
:102F700014D104E0742810D07A280FD10DE044F465
:102F800000140AE044F4801401E044F44014727820
:102F9000824202D104F58014761C761C30786628B3
:102FA0000BD013DC582877D009DC002875D04528D1
:102FB000F6D04628F4D047281AD19DE118E06328BE
:102FC00035D0642879D0652812D195E1702873D066
:102FD00008DC6728F1D069286FD06E280DD06F28E3
:102FE00006D1B5E073282CD0752875D0782874D018
:102FF0005A46179990476D1C75E1C4F30250022898
:1030000009D003280DD0D9F8001004280DD00D6088
:1030100009F1040967E1D9F80010EA17C1E9005283
:10302000F6E7D9F800100D80F2E70D70F0E719F817
:10303000041B8DF8001000208DF80100EA460120E5
:1030400003E059F804AB4FF0FF3061074FF0000187
:1030500002D40DE008F101018846B9420FDA80453B
:10306000F8DB1AF808100029F4D108E008F1010192
:1030700088468142FADB1AF808100029F6D1059833
:103080005B46A0EB080721463846179A00F094FAF1
:10309000284400EB080507E04DE029E10DE01AF8AF
:1030A000010B5A4617999047B8F10108F7D25B46D1
:1030B00021463846179A13E142E00A220092C4F3EF
:1030C00002524FF0000A022A08D059F804CB032A12
:1030D0004FEAEC710AD00DE029E02AE009F107017E
:1030E00021F00702F2E802C1914609E00FFA8CFCD8
:1030F0004FEAEC71042A03D14FFA8CFC4FEAEC71D1
:10310000002907DA0A460021DCF1000C61EB02011C
:103110002D2202E0220504D52B228DF80420012265
:1031200003E0E20701D02022F7E7904659E00A21A8
:1031300002E010220DE010214FF0000A00910BE098
:1031400010224FF0000A44F004040827009203E024
:1031500008224FF0000A0092C4F30252022A05D05E
:1031600059F804CB0021032A08D009E009F107012E
:1031700021F00702F2E802C1914605E01FFA8CFC3B
:10318000042A01D10CF0FF0C4FF00008220728D5CB
:10319000702806D0009B83F0100353EA0A0305D081
:1031A0000EE040228DF80420012208E05CEA0102D2
:1031B00006D030228DF804208DF8050002229046BA
:1031C000009B83F0080353EA0A030AD15CEA010278
:1031D00001D1620705D530228DF804204FF0010897
:1031E0007F1E582804D034A003900EA802900DE052
:1031F00036A0F9E753466046009AFEF73FFF844643
:103200000398825C0298401E029002705CEA010002
:10321000F0D1029806A9081A00F1200A600702D529
:1032200024F4803400E00127574502DDA7EB0A00B3
:1032300000E0002000EB0A01009005984144401A8C
:103240000590E00306D45B462146179A059800F0E6
:10325000B3F90544002706E001A85A46C05D179956
:1032600090476D1C7F1C4745F6DBE0030CD55B46A1
:103270002146179A059800F09FF9054404E0302094
:103280005A46179990476D1C0099481E00900029D6
:10329000F5DC08E0029802995A460078491C029130
:1032A000179990476D1CBAF10001AAF1010AF1DCEF
:1032B00065E10000092801003031323334353637FA
:1032C0003839616263646566000000003031323372
:1032D0003435363738394142434445460000000012
:1032E00000F058F90544761C307800287FF4ECADE6
:1032F00019B02846BDE8F08F620700D4062709F10F
:10330000070222F0070CFCE80223E14603F0004824
:103310005FEA080C02D00FF2702C0DE05FEA045C4B
:1033200002D50FF2682C07E05FEAC47C02D00FF2EE
:10333000602C01E0AFF2700C4FF0FF3823F0004337
:10334000CDF850C065280CD006DC452809D04628A9
:103350001DD047283DD13DE0662818D067287ED192
:1033600038E00021112F01DB112000E0781CCDE9AD
:10337000000106A90EA8FFF7DDFCDDE90F010E9A9A
:1033800003910021009207F1010A04914DE04FF0F2
:1033900000400097CDE9011006A90EA8FFF7CAFC6E
:1033A000DDE90F0203920E9B11990022DDF80CA0BB
:1033B0000093049211B9791C00EB010AB7EB0A00E3
:1033C00004D4C0F1FF3007F1010A0490AAEB070012
:1033D000019044E0012F00DA01270021112F01DDC7
:1033E000112000E03846CDE9000106A90EA8FFF73C
:1033F000A1FCDDE90F010E9A0391002104910092D6
:10340000BA4621070CD40399514500DA8A46BAF12D
:10341000010F05DD009AAAF10101515C302908D0A5
:10342000B84202DA10F1040F06DA0121CDE90110E9
:1034300015E0AAF10101E9E7002805DC049901443F
:103440000491AAEB000102E0411C514500DD8A46CF
:103450000499401A401C01904FF000400290200750
:1034600004D40198504501DBCDF8048000208DF88C
:103470004F0002980DF14F07B0F1004F25D02B20DF
:103480000E9002984FF0020800280CDA4042029099
:103490002D200E9007E00A210298FFF7B7F830318F
:1034A000029007F8011DB8F10001A8F10108F2DC53
:1034B00002980028EFD1791E0E980870307800F03D
:1034C000200040F0450007F8020D12A8C01B00F1D3
:1034D00007081498007800B1012000EB0A01019858
:1034E00001EBE07105984144401A401E0590E0034D
:1034F00006D45B462146179A059800F05DF805440E
:103500001498007818B15A46179990476D1CE0033B
:1035100024D55B462146179A059800F04DF80544DE
:103520001CE00498002807DBDDE90301884203DD85
:103530000098405C179901E0179930205A4690474F
:10354000049805F10105401C04900198401E01906B
:1035500004D12E205A46179990476D1CBAF10001EC
:10356000AAF1010ADDDC05E017F8010B5A461799AC
:1035700090476D1CB8F10001A8F10108F4DC5B462E
:103580002146179A0598ABE62D0000002B0000009D
:10359000200000002DE9F041044600251E46174694
:1035A000880404D405E039462020B0476D1C641E11
:1035B000F9D52846BDE8F0812DE9F0410446002503
:1035C0001E469046C80301D5302700E02027880416
:1035D00004D505E041463846B0476D1C641EF9D558
:1035E0002846BDE8F0814A68002A06D00A68531CC4
:1035F0000B6010704868401E486070470A68531C92
:103600000B601070704700002DE9F05F0746894697
:1036100093464FEA5B04A2464D465F4EDFF87C813D
:10362000EFF31080012181F31088D8F8A41221F063
:103630002001C8F8A41280F31088EFF31080012154
:1036400081F31088D8F8A01221F02001C8F8A01248
:1036500080F31088306820F080403060504830603F
:103660003F20D8F8001160F30501C8F80011306858
:1036700020F4601040EAC7403060306820F4E02059
:1036800040EA07403060052F03D1306840F4004025
:103690003060062F03D1306840F4804030603068DD
:1036A00040F400503060306820F060503060306886
:1036B00020F00F0040F003003060EFF31080012194
:1036C00081F31088344A3832116821F0E04141F02A
:1036D0008041116080F31088306840F08040306095
:1036E00001E0D8F80000D8F80401C0F30020002859
:1036F000F7D1EFF31080012181F31088116841F0B8
:103700000041116080F3108834E000204FF47A719A
:103710001AE0884217D9306820F080403060306865
:1037200040F000403060306820F0004030600AF027
:10373000E5FA1C480168491C016054464D460520C5
:1037400078F45DD26CE7401CD8F80421C2F3002263
:10375000002ADED0D8F8040100F07F01A14200D990
:103760002146002003E0D8F8002004C5401C884210
:10377000F9D3641A002CC8D15FEACB7008D0D8F80E
:103780000401C0F300200028F9D0D8F800002880F8
:10379000BDE8F05F0AF0B2BA08C500A000E000A0E2
:1037A0000A0708076C4A80002DE9F04107460E46DB
:1037B0004FF000080024274D0BE004EBC40005EB9C
:1037C0008000801C07223946FEF7C7FC40B1641C0C
:1037D000E4B22878A042F0D8B8F1000F18D102E086
:1037E0004FF00108F8E728780A21B0FBF1F201FB5D
:1037F00012040A2801D2401C287004EBC40105EB16
:1038000081003968C0F80210B988C180B9790172A5
:103810002B7811A21021002005F47AF330780007EC
:103820000BD504EBC40005EB800006F14601BDE8B2
:10383000F0410A301C22FEF765BC04EBC40005EB26
:10384000800006F12A01BDE8F0410A301C22FEF793
:1038500059BC0000DCE68000523A313A61646420D1
:103860006C746B206974656D2C206E756D203D2025
:1038700025640A0030B585B024483021818120219B
:1038800041810025057007218173012141708570F8
:1038900002460021084662F4CBD404464CB11422FF
:1038A0001B496846FEF72EFCADF80440684600F060
:1038B00091FB174A00211823443A084662F430D499
:1038C000044654B11422124914316846FEF71AFC1A
:1038D000ADF80440684600F07DFB0D4A17232C3AF2
:1038E0000121002062F41CD4044654B1142208497A
:1038F00028316846FEF706FCADF80440684600F043
:1039000069FB04480580857005B030BDDCE48000AB
:10391000D4530101D64580000449896B084004490D
:103920000A78104300220A7070470000002001A0AE
:1039300024468000104A114900280EDC0868C0F3B4
:103940004120012808D0506C401C5064086820F4C5
:10395000C06040F40070086070470A28FCDB08680B
:1039600010F4C06FF8D0106C401C1064086820F48C
:10397000C060086070470000AC4780000CC500A024
:103980002DE9F04186B0074688461546304C0226A0
:10399000207801282CD141F60D024146384611F01D
:1039A000DDF8002824D02868C4F80A00A888E0813F
:1039B000A879207464F438D605464DB114222549FF
:1039C00001A8FEF79FFBADF8085001A800F002FB2C
:1039D00021A040F23721CDE900101E4B29A2183B4F
:1039E0002EA1032000F0A6FF267006B0BDE8F081EE
:1039F00060780128F9D141F614024146384611F0A9
:103A0000ADF80028F1D02868C4F81100A888A4F8FF
:103A10001500A879E07564F407D6054655B114225F
:103A20000C49143101A8FEF76DFBADF8085001A850
:103A300000F0D0FA1BA04FF41171CDE90010054B36
:103A400010A2183B15A1032000F074FF6670CCE7AC
:103A5000D0458000B055010153746F7020736361CD
:103A60006E6E696E6720666F7220436F6E6E65635F
:103A700074696E67204852532070726F6365647575
:103A800072652E002E2E5C5372635C757365725CDA
:103A9000757365725F6170702E6300004E4F5F54E6
:103AA0004147000053746F70207363616E6E696EDE
:103AB0006720666F7220436F6E6E656374696E6710
:103AC00020525343532070726F6365647572652E84
:103AD0000000000006460F46154672B63846FEF74F
:103AE00035FB402801D9402002E03846FEF72EFB86
:103AF00080463046FEF72AFB402801D9402002E0EC
:103B00003046FEF723FB04469C211048FEF713FBCA
:103B1000424639460D48FEF7F5FA0C482246314632
:103B20005C30FEF7EFFA09484FF0AA3101644564B2
:103B30004FF0BB3181644FF0CC3101654FF0DD3186
:103B40008165002000F004F8FEE70000AC9C8000D6
:103B500030B5ADF20C4D04464FF4806103A8FEF77A
:103B6000EAFA184D202085F83F0085F89B003CB10B
:103B70002846012C436DC26C09D0022C0CD00FE0FA
:103B8000104A11A15C3203A8FFF708F808E011A160
:103B900003A8FFF703F803E016A103A8FEF7FEFF52
:103BA00003A90BA2686CCDE90121009018A3054A76
:103BB00018A1002000F0BEFE00F088FE0DF20C4DB2
:103BC00030BD0000AC9C80005B4552524F525D20DE
:103BD000257300005B5741524E494E475D205061AE
:103BE00072616D303A25642C506172616D313A25F5
:103BF000640000005B504152414D5D205061726194
:103C00006D303A25642C506172616D313A25640043
:103C1000000000006170705F6173736572742E63E1
:103C200000000000014877F4279600006C458000F2
:103C300006460F4690461D4672B64046FEF786FA87
:103C4000402801D9402002E04046FEF77FFA0446B2
:103C50009C210D48FEF76FFA224641460A48FEF7BE
:103C600051FA09484FF05531016445644FF066310F
:103C70008164C6644FF0773101654765C94381654A
:103C80000220FFF765FFFEE7AC9C80002DE9F041C4
:103C900006460F4690461D464046FEF757FA402816
:103CA00001D9402002E04046FEF750FA04469C212C
:103CB0000D48FEF740FA224641460B48FEF722FA2D
:103CC00009484FF011310164456449008164C664BC
:103CD0004FF03331016547654FF044318165BDE8F0
:103CE000F0410120FFF734BFAC9C8000FEB50446D4
:103CF0000E462E4D307C002846D128780327022816
:103D00001FD12BA0CDE9010440F26F2100912F4B70
:103D10002FA235A1032000F00DFEEC702F7020467D
:103D200008F048FE0121002003F088F930A040F29D
:103D30007721CDE90010254B25A22BA1032000F00F
:103D4000F9FD687802281FD131A0CDE901044FF4B4
:103D50001F7100911D4B1EA223A1032000F0EAFD5C
:103D60002C716F7020460EF063FF0121084603F0AE
:103D700065F92EA04FF42171CDE90010134B14A268
:103D800019A1032000F0D6FD307C01280CD12FA012
:103D9000CDE9010440F28A2100910C4B0CA212A142
:103DA000032000F0C7FDAC70FEBD0000D0458000D0
:103DB000436F6E6E656374656420746F2048525360
:103DC0002C204944583A25642E000000D8550101A2
:103DD0002E2E5C5372635C757365725C75736572CD
:103DE0005F6170702E6300004E4F5F5441470000CA
:103DF000537461727420646973636F76657279209D
:103E000048525320736572766963652E0000000086
:103E1000436F6E6E656374656420746F2052534304
:103E2000532C204944583A25642E00005374617283
:103E30007420646973636F766572792052534353BB
:103E400020736572766963652E000000436F6E6EA5
:103E5000656374656420746F20436F6C6C65637474
:103E60006F722C204944583A25642E00FEB5314C1F
:103E70000026FF25E278904216D12FA040F29B2227
:103E8000CDE900200291344B34A23AA1032000F086
:103E900051FDE57026700021084603F0CFF8BDE81B
:103EA000FE40092008F038BC2279904216D133A098
:103EB00040F2A522CDE900200291274B27A22DA197
:103EC000032000F037FD257166700021012003F00A
:103ED000B5F8BDE8FE400A2008F01EBCA27890426A
:103EE00026D12EA040F2AF22CDE9002002911A4B3C
:103EF0001AA220A1032000F01DFDA5702079FF2843
:103F000001D063F4DFD0E078FF2801D063F4DAD089
:103F100008490020891D02F01FFC29A040F2BF21A2
:103F2000CDE900100C4B0DA212A1032000F002FD00
:103F3000FEBD0000D0458000446973636F6E6E65FE
:103F4000637465642066726F6D2048525328307820
:103F50002530325829000000EE5501012E2E5C5309
:103F600072635C757365725C757365725F617070A6
:103F70002E6300004E4F5F54414700004469736355
:103F80006F6E6E65637465642066726F6D20525348
:103F90004353283078253032582900004469736330
:103FA0006F6E6E65637465642066726F6D20436F1B
:103FB0006C6C6563746F7228307825303258290034
:103FC0005374617274206164766572746973696E8A
:103FD000672E00003EB504464FF400711A48FEF704
:103FE000AAF8207810B1012819D01DE00021174847
:103FF000A28830F831309A4207D100EBC10014A1F9
:1040000043681148FEF7CAFD0EE02E2902D0491C74
:10401000C9B2EEE714A10C48FEF7C0FD04E01DA1F3
:1040200009486268FEF7BAFD074921A22069CDE977
:1040300001210090D4E902231EA1002000F07AFCA7
:10404000BDE83E4000F042BCAC9A8000FC438000DA
:104050004572726F7220636F64652030782530344A
:10406000583A2025730000004572726F7220636F0A
:104070006465203078253034583A204E6F20666FC2
:10408000756E6420696E666F726D6174696F6E2EF5
:104090000000000028257329206973206E6F7420AA
:1040A00065737461626C69736865642E000000005A
:1040B000257300006170705F6572726F722E63000D
:1040C0002DE9F041014600291BD000240F4E0E4A75
:1040D000357814E002EB04100F780378BB420CD162
:1040E0004B684068034208D0707808B900F0C0FB04
:1040F0002046BDE8F04100F0EBBA641CE4B2AC42EB
:10410000E8D3BDE8F081000004988000D44380002B
:104110007CB505460E46002D01D0002418E0052090
:104120007CBD05EB041041680091017A8DF8041004
:10413000417A8DF8051007218DF80610C2680078C5
:104140000023694600F048F80028E9D1641CE4B275
:10415000B442E6D300207CBD10B50C46062833D20D
:10416000DFE800F0030303101E27184951F8300060
:104170002104090C04D018B1214606F0A1FD1FE06E
:10418000042010BD2004000C03D0A1B2104806F09A
:1041900097FD200C14D0210C0E4806F091FD0FE085
:1041A00014F0FF0F03D0204606F080FB08E0042047
:1041B00010BD14F0FF0F05D02146002006F0F2FDDF
:1041C000002010BD042010BD062010BDB05101011B
:1041D000000001A0001001A02DE9F05F05460C468B
:1041E0009046994627680026052D13D03946284663
:1041F000FFF7B2FF2146284600F0ACF800280AD1AC
:10420000042D0AD0032D2ED04FF0100B2807060ED8
:10421000002491E00620BDE8F09F4FF0080B2079C4
:10422000042806D0052809D006280DD0072815D166
:1042300010E00021384600F47EF50FE040F2011155
:10424000384600F478F509E04FF00111384600F4E3
:1042500072F503E03B49384600F46DF54FF000700D
:1042600074F446D7D4E74FF0200BD1E7F80760D0BD
:10427000052D65D2DFE805F003030325460032482B
:1042800000EBC50090F904A0BAF1000F17D0EFF3CE
:104290001081012080F31088A01900EB40022B4808
:1042A00000EB8200C0F80480C0F8089081F3108809
:1042B000504617F4B1D7504617F4CCD739E0042054
:1042C000A9E7EFF31082012080F31088A0191F4B9B
:1042D00000EB400003EB8001C1F80480C1F80890B6
:1042E000032103F8201082F31088062017F494D7D6
:1042F000062017F4AFD7072017F48ED7072017F43E
:10430000A9D716E0EFF31081012080F31088A019DF
:1043100000EB40020E4800EB8200C0F80480C0F8B9
:10432000089081F31088122017F476D7122017F422
:1043300091D77F08641CE4B25C4597D300206AE7FC
:10434000062068E701010100B0510101C09580001D
:104350004097800070B58EB005460C46564901F175
:1043600064004DC8CDE90A02CDE90C36D1E91E231F
:10437000486F06AED1F880100DC6099114224E493F
:10438000843101A8FDF7BEFEACB14C4906200FF008
:1043900009FF4B4907200FF005FF4A4912200FF093
:1043A00001FF4549444A2C31062D7CD2DFE805F057
:1043B00006060621415905200EB070BD207931F85E
:1043C00010000B90607932F810000C90A0790D90DD
:1043D00020680A903848143050F8350021880904C4
:1043E000090C04D018B10AA906F0B8FC59E0042061
:1043F000E2E7207931F810000B90607932F8100074
:104400000C90A0790D9020680A9020680104090C96
:1044100005D080B20A900AA92B4806F09FFC2068BC
:10442000010C3ED0000C0A900AA9284806F096FC20
:1044300037E0207901EB4000408A0790607902EB79
:104440004000C0880890A0790990206806902078E4
:1044500010F0FF0F03D006A806F07AFA21E004203E
:10446000AAE72079031F032B01D80720A4E702281D
:104470001AD001200290207901EB4000808C03903B
:10448000607902EB400080890490A0790590206853
:104490000190207810F0FF0F09D001A9002006F04C
:1044A000D9FC002088E704E002200290E3E7042022
:1044B00082E7062080E700009C5101016B4C8000E0
:1044C000654C8000614C8000000001A0001001A03C
:1044D00010B502460C460020062A26D2DFE802F07C
:1044E0000303030B1A1F114850F83200A1B2BDE8B4
:1044F000104015F4EC922104090C03D0A1B20C4831
:1045000015F4E5D2210C10D0210CBDE8104009486B
:1045100015F4DD92A0B2BDE8104013F4AB92A1B245
:10452000BDE81040002006F098BC10BDB05101015C
:10453000000001A0001001A0002803D0024908607B
:104540000120704700207047DC43800070B50546AD
:104550000024091F062917D2DFE801F003070C1118
:104560001315284600F0A4F80EE00124284600F0B8
:104570009FF809E00224284600F09AF804E003249A
:1045800002E0042400E00524034A2146284612687C
:10459000BDE8704010470000DC4380002DE9F04189
:1045A0000446204600F0AEF801462E4800230826B7
:1045B000025D00F10A0700F11405AAB1052A33D003
:1045C000082A2AD1092945D0082926D1295D491C64
:1045D000C9B22955142920D32B5506552046BDE8CC
:1045E000F0410821FFF7B2BF052913D0042916D0E6
:1045F000072914D0082910D1295D491CC9B22955B1
:1046000014290AD32B5506552046BDE8F041082150
:10461000FFF79CBF3B5505210155BDE8F0812046C1
:10462000BDE8F041FFF792BF05290CD0395D491C68
:10463000C9B239553229F0D303552046BDE8F041BF
:104640000521FFF783BF03552046BDE8F041062151
:10465000FFF77CBF03552046BDE8F0410921FFF775
:1046600075BF0000E498800070B504460D4600F068
:104670000FF808B100F012F90348044A2946005D1A
:104680005268BDE870401047F8978000D44380001E
:104690000020064911F810200AB100207047401C84
:1046A000C0B20A28F6D301207047000002998000AA
:1046B0000349002201F8102001EB400042707047CE
:1046C00002998000014A02F8101070470299800098
:1046D000024A012102EB40004170704702998000BC
:1046E00070B50024064D05EB4400407810B120461B
:1046F000FFF754FF641CE4B20A2CF4D370BD000031
:104700000299800070B500211D4B03F132051A5C3F
:10471000002A09D0002403F10A06012A0AD0022A3D
:1047200012D0032A24D11FE015F8102002B3012271
:104730001A541DE015F810201AB1345402221A54EC
:1047400016E01C54042113E015F810204AB1325C25
:10475000521CD2B23254642A0AD3072103221A54BB
:1047600006E005211C5403E015F8101011B10821D2
:10477000084670BD1C54FFF79BFF0921F8E70000B5
:10478000D09880002DE9F0410E4617460A2E02D837
:104790000FB1002320E00020BDE8F08103EB4304CB
:1047A00010F82410032901D0042913D100EB84054B
:1047B000114AA97AD154104910F824200C3101EB88
:1047C0000314227069686160297A2172697A6172C2
:1047D0000A49E1605B1CDBB2B342DFD306483146D5
:1047E0000C30FFF795FC0648067047600548FFF758
:1047F000A3FE0120D0E70000F8978000C14000012F
:10480000D4438000694600012DE9F0410024124F95
:10481000DFF8488019E0002607EB0415287869685E
:10482000FFF756FE10B9697A012902D0012802D09B
:1048300005E0012603E0687A022800D1012631460E
:104840002046FFF73FFF641CE4B298F80000844262
:10485000E1D3BDE8F081000004988000D4438000DB
:1048600010B5FFF7D1FFBDE81040FFF739BF0000DA
:1048700010B5074A0121074800F08AF900220A21F1
:10488000044800F0D3FA04490120487010BD00002C
:1048900061480001A8988000D443800010B5034807
:1048A00000F09FF902490020487010BDA8988000D0
:1048B000D4438000002806D0002904D0024AD269DF
:1048C000002A00D010477047889A80000248006A8A
:1048D000002800D000477047889A800070B50D46C8
:1048E00016460D4C00280AD00178032911D8012161
:1048F000A17601461A222046FDF704FC05E00020BF
:10490000A0761A210448FDF716FCE5612662002016
:1049100070BD012070BD0000889A8000044A1044D8
:10492000807D084201D001207047002070470000C0
:10493000889A80002DE9FE4FDDF830B00646924699
:10494000994600240027019702975A480178B142FE
:1049500002D2807E00287DD10DF13808CDF800808C
:10496000EFF311850220FEF751F901465248006825
:10497000C0F30220401C012282408818C0B280F39C
:10498000118801213046FFF7C9FF38B14B484C4927
:1049900050F82620204600F0A5F804461C21304699
:1049A000FFF7BCFF00285ED046A24549204600F034
:1049B00099F8204484B204213046FFF7AFFFF8B1E4
:1049C00052463F49204600F08DF8204484B2082129
:1049D0003046FFF7A3FF38B13BA23949204600F02B
:1049E00081F8204484B20BE010213046FFF796FF97
:1049F00030B136A23249204600F074F8204484B227
:104A000008213046FFF78AFF90B14A462C492046DC
:104A100000F068F8204484B210213046FFF77EFF92
:104A200030B12BA22649204600F05CF8204484B225
:104A300010213046FFF772FF70B15B4626A20521B8
:104A400001A8FEF793F801AA1D49204600F04AF894
:104A5000204400E02BE084B220A21949204600F057
:104A600041F8204484B21648C4F58071204443467E
:104A70000D9AFEF7A7F800974FF48071002804DB29
:104A80002044884201DC86B200E00E46B01C884219
:104A900000D9FE2612A20A49304600F023F830441D
:104AA00081B20748FFF706FFE8B280F31188BDE83E
:104AB000FE8F0000889A80000CED00E0E843800043
:104AC0008899800028000000200000003A000000C3
:104AD000204C696E653A0000256C640029200000B6
:104AE0000D0A000030B50546002000290CD0002A30
:104AF0000AD006E02B18FF2B06D8CC54521C401CC1
:104B000080B21478002CF5D130BD000010B5064AF3
:104B100006214CF201000CF091FD02F051FBBDE8C2
:104B20001040002074F49E908853010170B5164C1B
:104B3000164E2078A6F11C0502280FD104F10A00B8
:104B4000807986F83000D4F80A00C5F84600E0897C
:104B5000A5F84A003146002062F466D46078022845
:104B600010D109481130807986F8300054F8110FBF
:104B700045F8460FA088A880BDE870400349002092
:104B800062F4529470BD0000D0458000F8E48000CB
:104B90002DE9F04104460D461746002D04D0012DA5
:104BA00002D00120BDE8F081CCB1C7B1EFF311868E
:104BB0000220FEF71DF88046FEF736F8401C012162
:104BC000814008EB0100C0B280F3118800206070C2
:104BD000A570E761F0B280F311880020E2E70120C0
:104BE000E0E710B50446002C0CD0204600F0B0F9E8
:104BF000FF2060700021A160E160216161610020FF
:104C0000E06110BD012010BDF0B5DDE90745059953
:104C100081614FF47A76A2FB061C03FB06C30027D2
:104C200002FB0732C0E9021209196A41C0E9041205
:104C300000210162F0BD00002DE9F0410446002C86
:104C400013D0EFF311850220FDF7D2FF0746FDF7E1
:104C5000EBFF401C012606FA00F03844C0B280F396
:104C600011881248002121620EE00020BDE8F08189
:104C7000D4E90432D1E9047CDB1B72EB0C0202D2D2
:104C8000016A216203E00846016A0029F0D104624A
:104C90006670064820380168491C0160016C41605B
:104CA000E8B280F311880120E0E700003899800025
:104CB0002DE9F04105460024EFF311860220FDF7AF
:104CC00097FF0746FDF7B0FF401C0121814078188F
:104CD000C0B280F31188134A106CE8B115B102F12B
:104CE000200010E00446206A10641068401E106026
:104CF0000CE0A94206D11168491E1160296A0162BF
:104D00002C4603E00846016A0029F2D124B10020B4
:104D100020626070106C5060F0B280F31188204601
:104D2000BDE8F081189980002DE9F041EFF311877B
:104D30000220FDF75DFF0446FDF776FF401C0121D0
:104D400081406018C0B280F31188114D002608E040
:104D50002078012804D1E16909B1A069884726704B
:104D60002D6A2C6A002CF3D1094D203D07E0E16942
:104D700009B1A06988472670206AA8602662AC68DD
:104D8000002CF4D1F8B280F311880120BDE8F08145
:104D9000389980002DE9F041EFF311870220FDF7EB
:104DA00027FF0446FDF740FF401C012606FA00F0ED
:104DB0002044C0B280F311881B4DA5F1200829E0E2
:104DC000D4E90420D8E90413521A60EB0300D8E9AF
:104DD00006319A1A814120D326702046FFF768FFDA
:104DE000A078012802D0104818380DE0D8E9043026
:104DF000D4E902219A184841C4E904202046FFF76B
:104E00001BFF07E001F1200001680029FAD12162AF
:104E1000006804622C6A002CD2D1F8B280F31188A9
:104E20000120BDE8F0810000389980002DE9FF5F86
:104E300082460E4693464FF00008BAF1000F20D08C
:104E4000414886421DD8E6B1EFF311870220FDF7F5
:104E5000CFFE0446FDF7E8FE401C012181406018AA
:104E6000C0B280F31188504608F0AEFC10B19AF839
:104E7000010040B1F8B280F311880F2004B0BDE802
:104E8000F09F0120FAE70CF01BF904460D464FF4A1
:104E90007A7106FB01F022462B46002108F064FCE3
:104EA000DFF8A890B0B1D9F8040048B1D0E90410F7
:104EB000091B60EB0500C9E904100CF09DF904E042
:104EC0000021C9F81010C9F814104FF00108D9E9F1
:104ED000040106E0D9F80400D0E90421101B61EBBD
:104EE0000501CDE9020132460023CDF800B050465D
:104EF000FFF78AFE5046FFF79FFE0EF0F1FF4FF0DE
:104F0000E021D1F800014FF0806210F0806F01D0F5
:104F1000012000E0002018B9C1F88022C1F800216A
:104F2000B8F1000F0AD0D9F80400D0E90431D9E96A
:104F30000402181A61EB02010CF0F8F8F8B280F3E1
:104F4000118800209AE70000008AB90718998000AC
:104F50002DE9F04104460025002C39D0EFF31187EC
:104F60000220FDF745FE0646FDF75EFE401C0121CE
:104F700081407018C0B280F311886078012824D174
:104F8000144E7068A0420BD10CF09AF8D4E90432A8
:104F9000181A62EB0102C6E904020CF02DF9012592
:104FA0002046FFF785FE5DB1706848B1D0E9042165
:104FB000D6E90403101A61EB03010CF0B7F804E022
:104FC0001DB9706808B90CF017F9F8B280F31188B0
:104FD000BDE8F0811899800070B504461A4D55F867
:104FE000240070300DF087FB82B21646A2B155F84E
:104FF000240090F8011101290ED0012180F804113C
:10500000802A0FD355F82400802200F180017030EF
:105010000DF086FB80260CE055F82410002081F866
:10502000000170BD55F8240000F1800170300DF0D2
:1050300077FB55F82400324600F18001001D1CF476
:10504000F9D40028EDD170BDCC438000704700003A
:105050002DE9F8430446464F57F82400061D022C5C
:105060007DD290F86C10002979D001297ED180F88A
:105070000111002157F82400D0E903231344027DD5
:1050800002F00102D21D9D184268D36FC3F3800362
:10509000002BFAD090F80421A2B1364A1368491CBB
:1050A00090F83B20102A06D08268B3FBF2F26A43E4
:1050B000B1EBC21FF3D957F8240070300DF01BFB81
:1050C00085B226E0B0F82480C58C001D1CF42AD1DE
:1050D00057F8240041F2883300EB0801491B803166
:1050E000001D2A461CF46BD4E5E757F82400012282
:1050F000703069460DF014FB57F824004068C16F0A
:10510000C1F340010029FAD09DF8001001606D1E26
:10511000ADB2002DE9D157F8240070300DF0EBFA54
:105120000028C8D1306841694906FCD5EFF31085E5
:10513000012080F3108857F8240070300DF0DBFA5E
:1051400058B1EFF31081012080F310883068426875
:1051500042F08202426081F31088002000E005E006
:1051600057F8241081F8010185F31088BDE8F88311
:10517000CC438000044180002DE9F04389B005460E
:1051800088462C78002D06D02AB1022C05D30820A1
:1051900009B0BDE8F0830520FAE7384E05F1580064
:1051A00046F82400D2E900310A46703019460DF065
:1051B0008DFA291D894624220C316846FCF7A2FF8E
:1051C000291D286D0EC90FF043FD0028E0D12C49A0
:1051D0000C200EF0E7FF2B490D200EF0E3FF2A48CC
:1051E00000EBC40797F9010017F416D097F90100F6
:1051F00017F430D056F82400C0F8649056F8240014
:10520000C0F8008056F824001822083005F140014B
:10521000FCF778FF56F824107868486056F82400A8
:10522000001D06F04BF856F82400001D06F07CF82F
:10523000351F0127287850B92F70134803211030EB
:105240000CF028FE6880002801DA0420A0E756F858
:10525000240080F86C7056F82410002081F80001BA
:1052600056F8241081F8010156F8241081F8020143
:1052700056F8241081F803018AE70000CC4380002F
:105280002D2B00013D2B00013C5201012DE9F04185
:1052900004461A4D55F8240070300DF02CFA82B2F5
:1052A000164600277AB155F8240090F8011101291B
:1052B00009D0802A0ED300F18001703080220DF0D9
:1052C0002FFA80260BE055F8240080F800710020AA
:1052D000BDE8F08100F1800170300DF021FA55F841
:1052E000240080F8047155F82400324600F1800152
:1052F000001D1CF4E5D30028EAD1E9E7CC43800087
:1053000070B5022801D3082070BD0C4D55F820401F
:105310007CB194F86C6066B169B162B1002684F822
:10532000026155F82000001D1CF449D30028EBD180
:1053300070BD052070BD042070BD0000CC4380000E
:105340002DE9F04106460C46174604F108052046B3
:1053500070F432D2C3B21B48E1184268914202DDB8
:105360000320BDE8F0811849184A006809681268EE
:10537000891A081A001FE91881421CD94FF4004508
:1053800013A22946002003F4C3F502F001F830B15E
:1053900018A22946002003F4BBF50820E1E71DA26E
:1053A0002946002003F4B4F53A4621463046BDE8CC
:1053B000F0410FF01FBE3A4621463046BDE8F041AD
:1053C0000FF018BED8328000D0238000CC2380009C
:1053D000523A353A4E5644532061726561206973E2
:1053E000206265696E6720636F6D706163746564C8
:1053F0002E0D0A00523A353A436F6D70616374693D
:105400006E67204E564453206661696C65640D0AD0
:1054100000000000523A353A436F6D706163746961
:105420006E67204E564453207375636365737366CD
:10543000756C0D0A000000007CB50D46002200923C
:105440000192694603F466F5044634BB4FF42051DB
:10545000684603F461F5B8B942F60101684603F401
:105460005BF588B942F60301684603F455F558B96F
:1054700042F60201684603F44FF528B94FF424516F
:10548000684603F449F508B1062406E00098C5F320
:105490000B01808808430099888020467CBD00006D
:1054A0002DE9F04782460E46174698464FF001090F
:1054B0000025D8F80040002C18D11E48046815E0DB
:1054C0003188A08881420BD3E088814204D82146EC
:1054D000504600F031F808B1246807E0012505E0E6
:1054E0002146504600F028F810B1246825B105E0A7
:1054F0000125A0883080F9E7002CE1D1B5B14FF04B
:105500000009A0883188884204D1201D386001201C
:10551000387109E0081A401E00EB400004EB40001F
:105520000E30386000203871C8F800404846BDE8A9
:10553000F0870000F80E800070B586B0002200EB06
:105540004003114C03EBC00304EB43052C7D17E033
:1055500035F8123093B18E889E420FD8CE889E4285
:105560000CD3CA8889888DE81F00084B084A40215F
:10557000002003F4CDF4012006B070BD521CD2B25D
:105580009442E5D80020F7E760E88000D658010192
:10559000DC6001012DE9F04F8BB007460C46002579
:1055A00000200890099060880790261FE188A28853
:1055B000CDE901210090614B61A24021002003F45C
:1055C000A7F4308850B9384603F4A8F4401E308060
:1055D0006088A188884200D800B90125DFF8909141
:1055E000002D60D104F10A000DF1200A0DF1140B19
:1055F00004F106080A90A088069004A8CDE9020BE1
:10560000CDE9008A022306AA07A9384600F0ACF9C2
:105610000546280008D00A2D45D0062D43D0BDF8F8
:105620001800401C079032E0E088B0F5205F03D0FE
:1056300042F60101884208D1BDF81000217AC3B2B8
:10564000059A0A9803F46CF448B92289BDF8100051
:10565000824218D105990A98FCF77FFD98B902217A
:1056600008202AF431D40146BDF81C008880BDF81A
:105670001800C880083E59F82700603003F452F43F
:10568000384603F451F4BDF81800401C0790A08878
:10569000BDF81C10884206D3BDF81810884202D00D
:1056A00030880428A7D2062D36D059F8270060305C
:1056B00003F43CF440B300244FF6FF7101EA800686
:1056C000062000EB072307220421384600962CF41D
:1056D000ABD701464E8059F82700006E0EE0838854
:1056E0000A1913711B0A5371A41CA4B2C3880A19A6
:1056F00013711B0A5371A41CA4B200680028EED1D8
:10570000084603F415F40AE021780A23BDF81C20AA
:10571000384603F40FF402E0BDF81C006080074B2C
:1057200014A240210020009503F4F2F3062D03D0CB
:1057300000200BB0BDE8F08F0120FAE79E58010170
:10574000523A333A5B25735D20656E7465722C2086
:1057500073683D307825782C2065683D3078257851
:105760002C20747970653D307825780A000000009F
:10577000C40E8000523A333A5B25735D2065786928
:10578000742C207374617475733D307825780A0029
:105790002DE9F04F85B081460E46484603F4BEF32E
:1057A000801E1FFA80FAD0460024B0887188CDE9A7
:1057B0000010574B57A24021002003F4A9F3708832
:1057C000B188DFF874B1884211D880B17088049034
:1057D000002002900390019001AB02AA04A9484660
:1057E000FFF75EFE0546280003D00A2542E00125AA
:1057F00040E0B088BDF81010884232D30221182052
:105800002AF462D30746012000900023FA1DB91D37
:1058100002A803F491F30546280007D040F24E2376
:1058200046A22946BDF8100003F488F3BDF8100025
:10583000B88004B9BC79B879A04203D038462AF4BC
:10584000C3D117E05BF829003946603003F46AF3EE
:10585000A8EB0400801E1FFA80F8BDF81000401C61
:105860000490B188BDF81000814203D310B1A01C90
:105870008045B1D25BF82900006E18B1002018B144
:105880009DB334E00120FAE70026AAEB08081FFACE
:1058900088F00090062000EB0923052204214846E9
:1058A0002CF4C2D60746022C08D0022078707888E3
:1058B000404478805BF82900046E10E00120F5E791
:1058C000A188B8198180B61CB6B2B819A279001D9A
:1058D000E11DFCF717FCA079304486B22468002C47
:1058E000EED1384603F424F307E0FFE70A25728877
:1058F00031782B46484603F41DF3054B13A2402193
:105900000020009503F404F305B00020BDE8F08FFB
:1059100085580101523A333A5B25735D20656E74F8
:1059200065722C2073683D307825782C2065683DA1
:10593000307825780A000000C40E8000617474730A
:105940005F70617463682E6300000000523A333A5E
:105950005B25735D20657869742C207374617475A0
:10596000733D307825780A002DE9F04F87B08346E3
:10597000DDF844900C4615469A460026B4F800809F
:105980000027019701AB4A4621465846FFF788FD9C
:1059900010B12888208026E02088298888421BD8DA
:1059A000002302AA06A94846009703F4C5F201465F
:1059B00029B1208840F269131AA203F4BFF29DF8BE
:1059C000183002AA5146109803F4AAF208B1012631
:1059D00002E02088401C20802EB920882988884237
:1059E00001D80028CED16EB122884B4600215846FE
:1059F00003F4A6F2C6B22088494603F4A3F2288035
:105A000026B10AE00A26A4F8008006E02188DDE934
:105A10001223584603F498F2C6B207B03046BDE8E8
:105A2000F08F0000617474735F70617463682E633B
:105A3000000000002DE9F04105460C46FF26217AC2
:105A40001E2905D022480279521E52B200683AE05F
:105A500004F10801284603F479F2064635E010F80F
:105A600032308B422DD11B4E56F82500406F30B39B
:105A700000273B4618A24021002003F449F20620EB
:105A800000EB05202AF476D4C00605D5002717A21E
:105A90004021002003F43CF221460C3956F8250041
:105AA000743003F43FF20020A08001266FB115A2EC
:105AB000402103F42DF2284603F44AF205E00127C1
:105AC000D7E7521E52B2002AC9DA3046BDE8F0814B
:105AD0007C058000C40E8000523A333A65786563D5
:105AE0007574653D307825780A000000523A333AE3
:105AF000636F6E6E656374206E6F742063666D0AEB
:105B000000000000523A333A737461727420657871
:105B100065637574650A00000348024901600D2140
:105B200041607047E45701017C0580002DE9F04F8A
:105B30008BB082460C460026002009900A906088AF
:105B40000890251FB0462988A288CDE90121009040
:105B50006D4B6EA24021002003F4DAF1288850B981
:105B6000504603F4DBF1801E28806088A1888842BB
:105B700000D800B90126714850F82A00006E10B113
:105B8000002111B103E00121FBE790F80680002E0F
:105B90005DD104F1080BA088079006A805A909AA01
:105BA000CDE90210CDE900B2A37907AA08A95046B1
:105BB000FFF7DAFE0646300049D1BDF814108845DB
:105BC00002D0B8F1000F42D12888001FFB22FB2829
:105BD00000D31046814200D2084687B2022107F165
:105BE0000C002AF471D18146BDF81480BDF8200064
:105BF000A9F80400BDF81C00A9F8060089F808708F
:105C00003A4609F109000699FCF77CFA2888C01B7E
:105C1000001F28804948494650F82A00603003F4A4
:105C200081F1BDF81400874202D1504603F47CF1A3
:105C3000BDF81C00411C89B20891A2888A4206D393
:105C4000824204D0298808F104008142A3D2062EA2
:105C500048D03A4D55F82A00603003F467F1C0B3DC
:105C6000002755F82A100C6E217A091D41431FFAAE
:105C700081F8062000EB0A23112204215046CDF8BA
:105C800000802CF4D1D40546A5F80280217A091DA4
:105C9000697018E0A188E8190171090A4171BF1CF7
:105CA000BAB2E188A8180171090A4171921C97B231
:105CB000E819227A001D04F10901FCF723FA207A81
:105CC000384487B22468002CE4D1284603F430F12C
:105CD0000BE0FFE721783346BDF82020504603F45F
:105CE00029F102E0BDF820006080074B14A240219A
:105CF0000020009603F40CF1062E03D000200BB018
:105D0000BDE8F08F0120FAE765580101523A333AB5
:105D10005B25735D20656E7465722C2073683D3061
:105D20007825782C2065683D307825782C207265A0
:105D30005F6C656E3D307825780A0000C40E8000E7
:105D4000523A333A5B25735D20657869742C207371
:105D500074617475733D307825780A002DE9F04F31
:105D60008BB082460C460026002009900A9060887D
:105D70000890251FB046A188694BCDE9000169A2B2
:105D80004021002003F4C4F0288850B9504603F4A1
:105D9000C5F0801E28806088A188884200D800B99C
:105DA0000126694850F82A00016E11B1002010B197
:105DB00003E00120FBE791F80680EEBB04F1080B3D
:105DC000A088079006A805AA09A9CDE90220CDE977
:105DD00000B1A37907AA08A95046FFF7C5FD0646FA
:105DE000300047D1BDF81410884502D0B8F1000F3B
:105DF00040D12888801EFD22FD2800D31046814214
:105E000000D2084687B2022107F108002AF45CD0CC
:105E10008146BDF81480BDF82000A9F8040089F877
:105E200006703A4609F107000699FCF76BF92888D5
:105E3000C01B801E288000E01CE04348494650F803
:105E40002A00603003F46EF0BDF81400874202D1DE
:105E5000504603F469F0BDF81C00411C89B208915A
:105E6000A2888A4206D3824204D0298808F102001F
:105E70008142A5D2062E40D0334D55F82A0060301D
:105E800003F454F080B3002755F82A100C6EA17962
:105E9000891C41431FFA81F8062000EB0A230922DE
:105EA00004215046CDF800802CF4BED30546A5F859
:105EB0000280A179891C697010E0A188E81901713C
:105EC000090A4171BF1CBFB2E819A279001DE11D8A
:105ED000FCF718F9A079384487B22468002CECD17B
:105EE000284603F425F00BE0FFE721783346BDF8A0
:105EF0002020504603F41EF002E0BDF82000608030
:105F0000074B12A240210020009603F401F0062E58
:105F100003D000200BB0BDE8F08F0120FAE70000AD
:105F2000BA580101523A333A5B25735D20656E74AD
:105F300065722C2073683D307825782C2065683D8B
:105F4000307825780A000000C40E8000523A333AB7
:105F50005B25735D20657869742C2073746174759A
:105F6000733D307825780A002DE9FF5F81460F46A2
:105F70000024A246CDF808A0CDF80CA0584850F84F
:105F80002900603002F4D2F780463D1F79882888C6
:105F9000544BCDE9001054A24021002002F4B8F780
:105FA0002888E8BB484602F4B9F7401E288000263E
:105FB00011E007EB460002AB82880021484602F45C
:105FC000BFF7C4B2CDF808A0CDF80CA00CB1B04614
:105FD0003BE0761CB6B27888B042EAD835E007EBF1
:105FE00048006B46818801AA484602F4ADF7C4B266
:105FF0003CBBBDF804002988884200D3084686B21D
:10600000022106F1080029F45FD78346ABF804604B
:1060100032460BF106000099FCF774F8304800E0B6
:1060200013E050F829005946603002F47BF74846E7
:1060300002F47AF72888801B288008F101081FFAEB
:1060400088F8CDF808A0CDF80CA07888404503D991
:10605000288808B1002CC2D044BB484602F45EF741
:106060002988401A401E86B20025062000EB09232D
:106070000F220421484600962CF4D6D28246AAF874
:106080000260174850F82900066E0AE00AEB050086
:10609000B288001DB11DFCF735F8B088284485B2E0
:1060A0003668002EF2D1504602F442F74CB1062C6D
:1060B00007D007EB4800397882882346484602F427
:1060C00039F7084B14A240210020009402F420F775
:1060D000062C03D0002004B0BDE8F09F0120FAE7B1
:1060E000C40E80004C580101523A333A5B25735D6F
:1060F00020656E7465722C206E625F68616E646CE0
:10610000653D307825782C2072655F6C656E3D307A
:106110007825780A00000000523A333A5B25735D17
:1061200020657869742C207374617475733D3078C0
:1061300025780A0010B500210A4C0023002001EB4D
:10614000410202EBC10204EB420222F81030401C73
:10615000C0B20A28F9D31375491CC9B20A29EDD374
:1061600010BD000060E880001FB50F4890F80201E4
:10617000002818D068464EF4DDD0DDE900010B4C54
:10618000CDE90201E1680844094920F07040486007
:1061900008464EF465D3607818B1BDE81F400DF095
:1061A000CBB90DF0E5F91FBDC01A8000344980005D
:1061B000B41A800002460020002152F821300BB1B1
:1061C000401CC0B2491CC9B20C29F6D3704710B5A7
:1061D00009F024FABDE8104002F0A2BF08F0B4BFF5
:1061E00010B58CB008A80EF007FABDF82210099877
:1061F0009DF82120CDE904109DF8203032A040F216
:106200000641CDE90232CDE90010394B39A23FA158
:106210000220FEF78FFB0AA85FF4CAD6044654B1E9
:1062200014223349103103A8FBF76CFFADF810407E
:1062300003A8FDF7CFFE9DF828009DF82910CDE9B1
:1062400006109DF82A209DF82B30CDE904329DF8E8
:106250002C109DF82D002FA240F20B43CDE9003207
:10626000CDE90201224B23A228A10220FEF762FB06
:1062700033A040F21241CDE900101D4B1DA223A115
:106280000220FEF757FB0DF09FFD0DF073FD02F0AD
:1062900005FCFDF7EFFA0DF017FA01F0ABF9304904
:1062A000002000F059FA0446002C0AD014221049AC
:1062B000243103A8FBF726FFADF8104003A8FDF733
:1062C00089FE0CB010BD0000476F6F6469782042F2
:1062D0004C452053444B205625642E25642E2564BE
:1062E0002028636F6D6D69742025782900000000F7
:1062F000685601012E2E5C5372635C757365725C87
:10630000757365725F6170702E6300004E4F5F544D
:10631000414700004C6F63616C20426F61726420E2
:10632000253032583A253032583A253032583A25FD
:106330003032583A253032583A253032582E000043
:1063400048525320525343532052656C6179206563
:1063500078616D706C6520737461727465642E0071
:10636000D64580002DE9F04105468846284669F467
:10637000E7D6C0B22449097888420DD200EB40002C
:10638000213040F400404246AC210BF057F904465E
:10639000200032D0012430E069F416D7C7B207EBF1
:1063A000470606F1200040F400402A4607210BF082
:1063B00045F910B10120BDE8F081384676F454D09B
:1063C00006F1210040F400404246AC210BF036F9C2
:1063D0000446200001D00120EDE7223646F40040BB
:1063E0000AF082FF0949C7EBC70009680844296819
:1063F0000160A9888180A97981711CB9414628462C
:10640000FDF7D2F92046D6E7382380003C238000F0
:106410000020704710B50DF005F90DF07DF90DF075
:106420009FF80BF037FF0EF083FA00F0F3FC0DF04D
:106430008FF900F03DFCBDE8104000F01DBC0BF0F2
:10644000ADBE10B508F034F809F018FA08F040F8BD
:1064500008F050FC08F0A0F807F0D0FBFFF75CFB59
:1064600003F0FCFC0DF008FA0DF07AFEBDE81040D8
:10647000FFF760BE0148FFF79DBE0000B413800027
:1064800010B5FFF7DCFF054903480860BDE8104080
:10649000034875F45B92000017B8800474C500A02F
:1064A0000087930310B50446002C0CD0204600F062
:1064B0006FFB002807D104494968002903D0204612
:1064C000BDE81040084710BD08478000FEB50446EF
:1064D0006C4E2088002531787278B0F5037F5ED04D
:1064E00012DCB0F5807F20D0A0F50070073820D0F6
:1064F00001282ED004282BD16088002828D001291B
:1065000036D0012A39D03CE0A0F500700D387BD0A0
:10651000F4287DD0F5287CD0F92819D1207903B052
:106520000121BDE8F04060F43F93BDE8FE40FFF775
:1065300057BE608800280BD053A140F29532CDE9B8
:1065400000210290594B5AA25FA10320FEF7F2F9F5
:10655000FEBD207A0028FBD15DA04FF46771CDE924
:106560000010524B52A258A10320FEF7E3F9FEBDE2
:106570003570012006F0D0F803E07570022006F0B7
:10658000CBF8608858A140F2AE32CDE900210290EC
:10659000464B47A24CA10320FEF7CCF9FEBD608814
:1065A00078B1022907D0022AF8D17570BDE8FE4003
:1065B000022006F0B1B83570BDE8FE40012006F0BB
:1065C000ABB8207A18B1BDE8FE40FEF7AFBA4EA0D6
:1065D0004FF47171CDE90010344B35A23AA103207C
:1065E000FEF7A8F93078012808D070780128D5D1B5
:1065F0007570BDE8FE40022006F08EB83570BDE82B
:10660000FE40012006F088B8618C04F10A0201E026
:1066100006E01FE0606A03B0BDE8F040FDF7B0B9E6
:10662000608878B1022907D0022AB7D17570BDE819
:10663000FE40022006F070B83570BDE8FE40012033
:1066400006F06AB8207903B004F10801BDE8F04013
:10665000FDF74CBB60880028A0D1207A38A14FF408
:106660007D72CDE900210290104B11A216A10320EA
:10667000FEF760F9217A207903B0BDE8F040FDF71C
:10668000F5BB0000D0458000416476657274696E88
:10669000672073746172746564206661696C6564F7
:1066A00028307825303258292E0000005856010134
:1066B0002E2E5C5372635C757365725C75736572C4
:1066C0005F6170702E6300004E4F5F5441470000C1
:1066D0004164766572746973696E672074696D656B
:1066E0006F75742E000000005363616E2073746137
:1066F00072746564206661696C6564283078253041
:106700003258292E0000000053746F7020736361AB
:106710006E6E696E672074696D656F75743A20439B
:10672000616E206E6F74207363616E20616E7920DC
:10673000746172676574206465766963652E000014
:10674000446973636F6E6E65637465642028307886
:1067500025303258292E00002DE9F84307460D4612
:10676000EFF311865948017859480068C0F30220B8
:10677000401C012282408818C0B280F3118869F45D
:10678000B5D58046052F06D352A21021002002F471
:10679000BFF3152487E09DB15148C7EBC70100EB5B
:1067A0008104E06860B1607A08B167F4F9D4607A76
:1067B00068B14CA21021002002F4AAF30F2472E069
:1067C0004BA21021002002F4A3F302246BE0206905
:1067D000F8B9E068017841B1012910D047A2102131
:1067E000002002F495F323245DE08078400710D464
:1067F00045A21021002002F48BF3232453E080787B
:10680000800706D443A21021002002F481F3232440
:1068100049E0E06841888A0704D50278012A01D15D
:1068200062691AB10278022A07D008E03CA210215E
:10683000002002F46DF3252435E0A26962B1090756
:1068400011D5298809B180290DD938A2102100203D
:1068500002F45EF3262426E037A21021002002F481
:1068600057F324241FE0407802280CD1288818B15F
:1068700044F25061884206D932A21021002002F46D
:1068800047F326240FE0E06928B90021042065F4CD
:106890002BD0E061B8B1E069296801603946002079
:1068A00069F480D600243B4629A2102100200094E0
:1068B00002F42EF3404669F4E3D4F0B280F3118879
:1068C0002046BDE8F8831024EDE7000002E400E074
:1068D0000CED00E0523A313A453A310A000000002E
:1068E0007C278000523A313A453A330A00000000D2
:1068F000523A313A453A320A00000000523A313AEF
:10690000453A360A00000000523A313A453A340A14
:1069100000000000523A313A453A350A00000000C2
:10692000523A313A453A370A00000000523A313AB9
:10693000453A390A00000000523A313A453A380ADD
:1069400000000000523A313A453A31300A00000066
:10695000523A313A6164765F73746172745B256494
:106960005D3A20453A3078253032780A0000000040
:106970000A2805D2034A002152F8200080F88F101F
:1069800070470000C40E800070B504460D462046D6
:106990000CF030FF002805D129462046BDE87040A4
:1069A00062F4089370BD000038B504460D4600201F
:1069B0000090002C06D069460D485FF4B5D080B237
:1069C00010B110E0022038BD142075F447D2014602
:1069D00059B105CCC1E90102CD609DF800000874F1
:1069E000044807F086F9002038BD102038BD0000AB
:1069F000D8570101A847800070B504460D461646D9
:106A000020460CF0F7FE002806D1324629462046E3
:106A1000BDE8704063F42A9070BD70B504460D4621
:106A200020460CF0E7FE002805D129462046BDE8A7
:106A3000704063F4099170BD2DE9F8430546089C48
:106A40000E461746984628460CF0D4FE002806D17C
:106A500043463A4631462846009463F453D1BDE894
:106A6000F88370B504460D4620460CF0C3FE00289E
:106A700004D12946204663F449D380B270BD00009A
:106A800070B505460E46002D05D00D4867F46CD54F
:106A900084B214B110E0022070BD142075F4DED170
:106AA000014659B10D61CE60064A50780871401C0C
:106AB0005070101D07F01DF9204670BD102070BDEC
:106AC000CC570101A047800070B504460D46204612
:106AD0000CF090FE002805D129462046BDE8704004
:106AE00063F45A9470BD70B504460D4620460CF010
:106AF00081FE002804D12946204663F439D780B2AC
:106B000070BD000000B58BB0094901200870FF225C
:106B1000282101A8FBF708FB4FF48070ADF80400B2
:106B20000020ADF8060001A8FFF7BCFC0BB000BDCB
:106B30000847800010B506480068002800D080474C
:106B4000FEF7A8DD08B1012010BD002010BD000037
:106B50008849800010B540F440400AF0C5FB10BDE4
:106B600010B540F440400AF069FD10BD04490160D1
:106B700004494160044981600449C16070470000D4
:106B800041C2060015C20600616B0001556B000191
:106B900070B50446002C1FD04FF6FF7319462288AB
:106BA00040F20155A2F201504FF48076AA424CD037
:106BB0001BDC40F20245A2F20240AA4234D00DDCB6
:106BC000A2F54072013A25D0012A23D0FF2A29D00C
:106BD000B2422ED121892CE0002070BD012825D0A1
:106BE000022825D0FE2824D12AE004282DD006DC56
:106BF00001282AD0022828D003281AD125E0052808
:106C000023D0062821D0B04213D1204602F0D8FF6D
:106C1000002070BD204603F007FC204603F080FAF8
:106C2000002070BD218904E0218902E0618900E033
:106C3000218A99420ED0204603F006FC012070BD47
:106C4000204603F001FB002070BD204603F078FAD7
:106C5000002070BD002070BD10B508F0D1FF0AF013
:106C600083F809F0E3FB02F0FDFB02F0D5FCBDE880
:106C700010400CF065BD000010B523210A480BF050
:106C8000BFF90A2109480BF0B5F903210748503034
:106C90000BF0AAF9FFF7D5FB0520FFF79FFAFFF7E6
:106CA000DBFFFFF794FA10BD0C4180002442800006
:106CB000044903480860054903480860704700001C
:106CC000758500010C228000B18700011822800028
:106CD00070B50026150A0E4805EB450200EB0214BC
:106CE000098821800120A0702846FFF741FE00207E
:106CF00069F4C6D20748016829B10B681BB1228824
:106D000000212846984769F4F1D2304670BD000052
:106D1000D42E8000B82280003EB500241D0A0A78D7
:106D2000122A02D0132A04D006E000208DF80000B9
:106D300002E001208DF800008888ADF80400488842
:106D4000ADF80200891D0291002069F499D20B4828
:106D5000016829B18A691AB169462846904708E056
:106D60009DF80000012804D1BDF804102846FFF763
:106D70000BFE69F4BBD220463EBD0000B422800069
:106D80000148007870470000A04980007CB50E469D
:106D9000150A0020009001906946284673F4EED24F
:106DA0009DF806206946284602F01AFF0446CCB139
:106DB00063F4ECD0C0B163F4E9D0C01C81B2328876
:106DC000002320466DF4CAD4694628460CF090FD95
:106DD00040B106A24021002002F49AF02146684604
:106DE0005EF432D600207CBD0020E7E7523A333A09
:106DF0007361766520636363640A00007CB5DDE936
:106E00000654CDE9005466F4EDD6BDE87C400BF0A5
:106E10007FB800000249014808607047FD6D00011D
:106E20004823800010B588B0044667F469D100207B
:106E3000079007A855F410D00798FFF797FE206831
:106E4000019060680290A0680390E0680490208A36
:106E5000ADF81400608AADF81600A08AADF81800ED
:106E6000E08AADF81A0001A855F420D055F400D0FE
:106E70000348016801614168416108B010BD00002C
:106E8000300100B010B58AB00446FF2228216846C0
:106E9000FBF74AF940F20271ADF800100021ADF89D
:106EA00002108DF804406846FFF7FCFA0AB010BDE6
:106EB00030B58568027B002D02D0002001210CE056
:106EC000104630BDCB0801F00704EB5CE340DB0764
:106ED00001D0401CC0B2491CC9B28A42F2D830BDB0
:106EE00000230849496808E0CA88824204D80A8910
:106EF000824201D3CB6802E009680029F4D1184628
:106F000070470000A047800001460548406803E044
:106F100002798A4202D000680028F9D17047000047
:106F2000A047800070B5104E3078FFF7EDFF0446A3
:106F3000200006D0206963F40DD30546280002D056
:106F40000DE00C2070BD2069FFF7B2FF01462069FB
:106F500002681288E2800068008808442081307846
:106F6000401C3070E8B270BDA047800070B5194871
:106F70000468194D2878002801D0002070BD4FF01A
:106F8000806072F4B5D000F4D5F5600872F4C0D713
:106F9000124908608817114901262C3908601049E8
:106FA0007006C1F8FC01C8674FF03041086B40F033
:106FB00007000863094C303C206840F4E020206062
:106FC00000F4FAF52E70206820F4E0202060012003
:106FD00070BD00006C2480008049800070C500A056
:106FE00084E000E070B50024EFF31086012080F308
:106FF000108800F4FCF5104D28B102242968B9B1BD
:107000000220884714E0FFF795FD20B1296879B187
:10701000002088470CE0FFF7A9FF28B10224296867
:1070200031B10220884703E0296809B10020884770
:1070300086F31088204670BD5C248000062801D2AB
:10704000014A1154704700007845800010B5084A85
:107050001378002B01D00F2010BD31B150600448CF
:10706000243000F007F8002010BD022010BD000001
:10707000084780002DE9FC4705460C46FFF7CAF992
:1070800069F434D107463648006800B18047354975
:1070900001200DF087F8344902200DF083F801201B
:1070A000FBF728F8A08E81B2206B02F025F8DFF8FC
:1070B000BC90DFF8BC80E16999F8000098F80020E6
:1070C0000244B1FBF2F1CEB216FB00F1A06965F407
:1070D0006DD1286863F4FCD468685FF409D428692A
:1070E00067F4A8D0A86861F4A1D6E86861F446D72F
:1070F00020484CF4CFD220484CF4D2D21F484CF454
:10710000D5D21F4854F4FED61E484CF479D21E48FE
:107110004CF47CD21D484CF47FD21D4865F41AD142
:107120004FF0806071F4E4D72046FFF77BFED4E98E
:107130000A01CDE9000199F80010A06916FB0100D1
:1071400098F8001016FB01F1D4E90823114C2468CB
:10715000A047384669F494D0BDE8FC4765F4DE9159
:107160008026800039380600DD37060029D5070063
:107170002AD50700119F0700B9C3060065C40600A1
:10718000EDAF070025ED060045ED060065ED0600B4
:10719000799B070048238000034900EB800001EB46
:1071A000800080887047000004488000034A00EB9C
:1071B000800002EB8000818070470000044880005E
:1071C00010B500F065F800F047F8BDE8104000F099
:1071D00001B8000000B58FB003228DF800204FF4F5
:1071E0008050019005218DF8081001208DF80900CC
:1071F00000238DF80A308DF80C20430304938DF89A
:1072000014108DF815008DF816008DF81820C303A2
:1072100007938DF820108DF821008DF822208DF82D
:10722000242082030A928DF82C108DF82D00022262
:107230008DF82E2004238DF830300D928DF8381003
:107240008DF839008DF83A30024A6846FDF79AFA0F
:107250000FB000BD532200017CB510260096022419
:107260008DF804408DF8054007258DF806506946D5
:107270000320FDF76FF800968DF804408DF8054067
:107280008DF8065069460520FDF764F87CBD0000C6
:1072900000B587B000F01EF803208DF800001D2017
:1072A0008DF8160001208DF817008DF818008DF864
:1072B0001900044A04496846FDF710FBFCF7B2FCCC
:1072C00007B000BDCD720001257300010020FDF75D
:1072D000BFBE00001CB5114800904FF480640194BB
:1072E00000F58060002101704FF4E1320264032256
:1072F00042648164C1640165012141650274CB026D
:107300004361022343740176027184604371017307
:107310006A460349FDF730FF1CBD00006090800005
:107320004D5000010A4601464FF47A730020FDF7E4
:10733000E7BF00000E4910F1210F06DA086820F4BB
:10734000704040F440500860704710F11D0206D3B1
:10735000086820F4704040F48040086070470A28B4
:10736000FCDD086820F4704040F4A04008607047DD
:1073700024C500A010B50CF069F90AF075FD0DF0F8
:107380006DF900F049FBBDE810400BF0E1BA0000D8
:107390002DE9F04F87B07B48D0F8009000240025FD
:1073A000A24600260DF0CCFA77480168C9F8001013
:1073B0004068C9F80400754800680830059009F174
:1073C00008000690042203A9059800F0F1FABDF820
:1073D0000C10A1F57F40FF3843D0082203A905987F
:1073E00000F0E6FABDF80E006EF4E6D100F0FF08FA
:1073F000BDF80C00002867D00698A9EB000707F538
:107400008057BDF80E1008F1080083460844B842C2
:1074100063D805AB082203A906A800F0FFF8BDF861
:107420000E00002300EB080205A906A80AF0C6FD1D
:10743000641CBDF80E005844B842C3D10020CDE909
:10744000006053464A46214628460DF0E9FC0028D4
:1074500026D1824600260024CDF818906D1CEDB28E
:10746000B0E70020CDE9006053464A462146284651
:107470000DF0D6FC002813D16D1CECB2434D4FF437
:107480008057434E08E0286800EB0430394603F08B
:107490008DFB40B1641CE4B2707AA042F3D80020A6
:1074A00007B0BDE8F08F3B488169407A40F27C42EA
:1074B000CDE900200291384B38A24FF40041002062
:1074C00001F426F50920EBE7BDF80E00059908F157
:1074D000080808444044059074E7082F29D305ABF9
:1074E000082203A906A800F099F8083F2FB100234D
:1074F0003A4605A906A80AF061FD611C0020CDE905
:10750000006053464A4628460DF08AFC0028C7D141
:107510008246BDF80E004044C61B0024CDF81890EA
:107520006D1CEDB20023324605A906A80AF046FDFF
:1075300048E705AB3A4603A906A800F06FF8611CBE
:1075400003A8CDE9006053464A4628460DF068FC82
:107550000028A5D1C7F1080ABDF80E0000EB080607
:107560000024CDF818906D1CEDB20123524605A9F8
:1075700006A80AF023FD0023324605A906A80AF052
:107580001DFD1FE778468000ACD50700CC238000A6
:10759000D8328000641F8000A2570101523A353A68
:1075A00025732C204C256420666C617368207374ED
:1075B000617465203078253032582C206572726FE6
:1075C00072203078253038580D0A00000221B0FBB7
:1075D000F1F2FF2A04D8B0FBF1F201FB12022AB14A
:1075E000491CC9B24029F2D300207047B0FBF1F02A
:1075F000C0B27047084800210170012242704180EA
:107600000F228280C28064228281C2810182910025
:1076100041820A2181827047F8E4800070B50446F7
:1076200015461E462A462068FAF76CFD3068284445
:10763000306020682844206070BD000010B5054807
:10764000017B491C0173002072F4D0D2BDE81040C8
:1076500000F050B8AC4780002DE9FE43FEF7EFFE86
:107660001E48016821F4003101601C4E083E30685C
:107670001B4980B2084330601A4803C8CDE90001B5
:1076800016482C380068C82100F007001DF80000DB
:1076900010FB01F514480768144CD4F800803846F4
:1076A000414603F0C9F962686068831AAB42FBD3B4
:1076B0004146384603F0A0F90AF040FC02909DF8DC
:1076C000080028B19DF80800094948618861C8612F
:1076D000306820F07F403060BDE8FE8330C500A0F8
:1076E00000008F1170790001FCED00E0001000E057
:1076F000AC4780002DE9FC412D4E306820F07F40E2
:1077000040F0885030602B4803C8CDE9000128487C
:107710002438006800F007011DF80100C82110FBA3
:1077200001F525480768254CD4F8008038464146C5
:1077300003F082F962686368981AA842FBD3414655
:10774000384603F059F900250AF0F8FB0446DFF843
:107750007080D8F81800844201D9012700E0002782
:1077600072F4EAD040B91FB1D8F81800201A02E02C
:10777000D8F81800001BC5B2D8F81800C8F82000C7
:10778000B5EB900F03D8292C01D8112C02D200F0B0
:1077900019F807E000EBC00020440A21B0FBF1F02B
:1077A000C8F81800306820F07F403060BDE8FC81E8
:1077B00028C500A070790001FCED00E0001000E099
:1077C000AC4780002DE9F04F87B0002006900824D8
:1077D000DFF890811A20C8F8140063480168634AF2
:1077E00089B21143016005A8FBF74EF90220FBF7AF
:1077F00053F9DFF8749109F10809D9F8000020F471
:107800007C3040F42030C9F8000059A003C8CDE90D
:107810000201DFF854A1AAF1240ADAF8000002A953
:1078200000F00700085CC82110FB01F5DFF848B143
:10783000DBF800000190514F3E680198314603F09B
:10784000FBF878687968091AA942FBD33146019898
:1078500003F0D2F80AF072FB04909DF81010D8F8EB
:107860001400814204D99DF81020811C8A4263D9FA
:107870009DF81010814204D29DF81020811E8A428A
:107880005AD29DF81010814201D9012500E000254F
:1078900015B1641C64B201E0641E64B2202C11D3E3
:1078A000D9F8000020F47C3040F42030C9F8000002
:1078B000D8F83C00401CC8F83C000020049001208F
:1078C000069039E0D9F8000020F47C3040EA04301A
:1078D00040F40030C9F8000025A003C8CDE902013A
:1078E000DAF8000002A900F00700085C642110FB30
:1078F00001F6DBF80000019038680090DDE9001027
:1079000003F09AF878687968091AB142FBD3DDE987
:10791000001003F071F80AF011FB049035B19DF8E6
:107920001000D8F814108842B2D805E09DF8100075
:10793000D8F814108842ABD39DF81400FBF7ACF8CC
:107940000948016821F07F4101609DF81000C8F8E6
:107950001800D8F82400401CC8F82400069807B086
:10796000BDE8F08FAC47800028C500A000008F1153
:107970004030101810200000FCED00E0001000E086
:107980000A49322808DDD1F8200220F4706040F462
:107990004070C1F8200270472828FCDAD1F8200294
:1079A00020F47060C1F820027047000000E000A0E1
:1079B0002DE9F04105460E461746094C2378002B69
:1079C00002D000206EF46CD23A463146284603F0CD
:1079D0002DF9054620786EF463D22846BDE8F08183
:1079E000C92380002DE9F04105460E461746094C93
:1079F0002378002B02D000206EF452D23A46314652
:107A0000284603F023F9054620786EF449D228462B
:107A1000BDE8F081C92380000121024A002068F4FA
:107A2000A3900000EDA6000110B5104C0222042125
:107A3000204606F0D5FB01221021204606F0D0FB9F
:107A400002228021204606F0CBFB02224021204664
:107A500006F0C6FB02222021204606F0C1FB20468C
:107A60000222BDE81040082106F0BABB001001A0B8
:107A70002DE9F04782462DED028B84B089461746EA
:107A8000984600200290039000250026019001A84E
:107A90000CF04CFC3748016821F4C07141F08001C2
:107AA0000160416821F480514160002450460CF08F
:107AB000DDF90AF061FB02F055FD029002980644E0
:107AC00048460CF0D3F90AF057FB02F04BFD039047
:107AD000DDE90210401A0544641C072CE6DB284649
