:020000040100F9
:1020000000000430592000014B2A000101418000EA
:10201000492A0001FD2100014D2B000100000000B4
:1020200000000000000000000000000015418000DA
:10203000FF21000100000000812A0001872A000121
:10204000DFF810D000F036FC00F08AF800480047B6
:1020500011E90001000004300148804701480047B1
:102060001D2B000131E900012DE9F05F054600203C
:1020700092469B4688460646814640241BE02846F9
:1020800041464746224600F0D2FA53465A46C01A05
:10209000914110D311461846224600F0A0F82D1A9F
:1020A00067EB01084F4622460120002100F097F817
:1020B00017EB00094E41201EA4F10104DFDC484665
:1020C00031462A464346BDE8F09F00000649074ACC
:1020D0000868504343F239021044086040087047D2
:1020E0000149086070470000488300306D4EC641CA
:1020F00040EA01039B0703D009E008C9121F08C08A
:10210000042AFAD203E011F8013B00F8013B521E09
:10211000F9D27047D2B201E000F8012B491EFBD280
:1021200070470022F6E710B513460A4604461946E2
:10213000FFF7F0FF204610BD421C10F8011B0029DC
:10214000FBD1801A704730B504460020034600E0FA
:102150005B1C934203D2E05CCD5C401BF8D030BDE9
:1021600070B5054C054D03E0206820448047241DD0
:10217000AC42F9D170BD00001C37010120370101CC
:102180000EB540F2334102910021CDE900110A461B
:102190000B4600F0B4FA03B000BD0EB540F2334276
:1021A00002920022CDE90022134600F0A8FA03B003
:1021B00000BD20F00040C20DC0F3160040F4000046
:1021C0007F2A02DA0020014670470021962A03DCAC
:1021D000C2F19602D0407047963AAFF30080202AB1
:1021E00004DB203A00FA02F1002070479140C2F16E
:1021F000200320FA03F3194390407047FEE7FEE7FF
:1022000058585247010000001555000000200001F9
:10221000002000016EED52490101000000000000A5
:1022200000000000000000000000000000000000AE
:10223000000000000000000000000000000000009E
:1022400043F6512CC3F2000C60472DE9FE4F804647
:1022500081EA0300C00F0C46009021F0004123F0FA
:102260000045B8EB0200A94105D240462146904600
:102270001C460B46024623F00040104347D0270D72
:10228000C7F30A00C3F30A510290401A0190402894
:102290006BDAC3F3130040F4801B0098924620B120
:1022A0000023D2EB030A63EB0B0B01985946C0F1F4
:1022B00040025046FFF793FF06460D4650465946EA
:1022C000019A00F0C4F910EB08006141002487EA8C
:1022D000115284EAE7731A4340D0009A62B3019A1C
:1022E000012A4FEA075215DC001B61EB02014FF097
:1022F000004202EA0752CDE90042001C41F580117C
:1023000032462B4600F0FBF903B0BDE8F08F4046A3
:102310002146F9E7001B61EB0201001C41F5801327
:1023200000185B412018A2F5001747EB030140EAB3
:10233000D570B6196D4111E06D084FEA360645EAD1
:10234000C0754FEA0752001B61EB0201001C41F50A
:10235000801149084FEA30000019514132462B469E
:1023600003B0BDE8F04F00F0BBB900980122400077
:102370000023D0EB020263EBE073009821464FEAA2
:10238000E074B8EB000061EB0401E9E783F000437F
:102390005BE781F0004158E72DE9FE4F81EA030435
:1023A00004F0004421F0004100944FF0000B23F0B2
:1023B000004350EA01045ED052EA03045BD0C3F349
:1023C0000A54C1F30A552C44A4F2F3340194A0FB3F
:1023D0000254C1F3130141F48011C3F3130343F416
:1023E000801301FB024400FB034E840A970A44EA6F
:1023F000815447EA8357A4FB076802958D0A05FBC1
:1024000007854FEA932C04FB0C542705029D4FEAE5
:10241000065847EA1637B5EB08056EEB070C870E32
:10242000920E47EA811742EA8312A7FB0201B6EB3C
:102430000B0164EB00042B0D43EA0C335E1844EBF4
:102440001C50DA465146E7FB0201C5F313044FEA7C
:102450000B3343EA14534FEA0432019C43EA060368
:10246000A4F10C040294009CCDE900B400F047F9FB
:1024700003B0BDE8F08F00200146F9E72DE9F04DEB
:1024800081EA030404F0004B21F0004514464FF0AC
:10249000000A23F0004150EA050220D054EA01026C
:1024A0001DD0C5F30A570246C5F31303C1F3130049
:1024B000C1F30A5640F4801543F48013A7EB0608D5
:1024C000101BD64608F2FD3873EB050002D308F165
:1024D000010801E092185B41B8F1000F03DA002017
:1024E0000146BDE8F08D00204FF480110646844679
:1024F0000EE0171B73EB050705D3121B63EB0503F7
:1025000006434CEA010C49084FEA300092185B413F
:1025100050EA0107EDD152EA030012D082EA04002A
:1025200083EA0501084305D0101BAB4106D2012206
:10253000002306E000224FF0004302E06FF00102AA
:1025400053101AEB06004CEB085110EB0A0041EB5C
:102550000B01BDE8F04D00F0C3B870B5C1F30A52ED
:1025600001F000450024C1F3130140F2FF3341F4B0
:1025700080119A4201DA002070BD40F233439A4242
:10258000A2F2334203DC524200F051F800E09040E6
:102590002C43F1D0404270BDC1F30A5210B5C1F3D3
:1025A000130140F2FF3341F480119A4201DA002016
:1025B00010BD40F233439A42A2F2334203DC52424E
:1025C00000F035F810BD904010BD01F0004330B46C
:1025D00021F0004150EA010206D00A0DA2F5607216
:1025E000C1F31301002A02DC30BC00207047440F05
:1025F00044EAC104C100E01830BC00EBC25000F056
:1026000038B830B50B46014600202022012409E0ED
:1026100021FA02F59D4205D303FA02F5491B04FA9B
:1026200002F52844151EA2F10102F1DC30BD202A7A
:1026300004DB203A21FA02F00021704721FA02F36C
:10264000D040C2F120029140084319467047202A29
:1026500006DBCB17203A41FA02F043EAE07306E0CA
:1026600041FA02F3D040C2F12002914008431946DA
:1026700070470029A8BF7047401C490008BF20F0E0
:102680000100704710B4B0FA80FC00FA0CF050EA78
:10269000010404BF10BC704749B1CCF1200421FAF9
:1026A00004F411FA0CF118BF012121430843A3EBF4
:1026B0000C01CB1D4FEA00614FEA102042BF002001
:1026C00010BC704700EBC35010440029A4BF10BCDD
:1026D0007047401C490008BF20F0010010BC704743
:1026E00010B5141E73F1000408DA401C41F100011A
:1026F00092185B411A4301D120F0010010BD2DE971
:10270000F04D92469B4611B1B1FA81F202E0B0FA67
:1027100080F220329046FFF762FD04460F4640EA01
:102720000A0041EA0B0153465A46084313D01146AA
:1027300053EA010019D0C8F140025046FFF777FF75
:1027400005460E46504659464246FFF748FD0843A7
:1027500005D0012004E020463946BDE8F08D002078
:10276000054346EAE0762C4337430A986305E40ABA
:10277000A0EB08000022FD0A44EA47540A3002D5C3
:1027800000200146E9E7010510196941DDE9084526
:1027900000196941BDE8F04DA2E700002DE9F041C4
:1027A000054621F000400C46284309D0C4F30A50E6
:1027B00040F23341884205DD28462146BDE8F081DC
:1027C0002846FBE740F2FE31884210DC0CDB4FEA82
:1027D000043040EA155050EA053105D0104804F0A5
:1027E000004101430020E9E700200146E6E7A0F2AE
:1027F00033404642C6F1400228462146FFF7EFFC2F
:1028000007468846284621463246FFF710FF4346D2
:102810003A46FFF765FF3246BDE8F041FFF7DFBCFF
:102820000000F03FC1F30A52C1F3130140F2FF333D
:1028300041F480119A4202DA00200146704740F2CA
:1028400033439A42A2F2334202DC5242FFF7EFBE18
:10285000FFF7C5BC30B5041E71F1000404DB4FF076
:102860000044404264EB0101141E73F1000405DBD7
:102870001C464FF00043524263EB04038B4208BFF7
:10288000824230BD30B5041E71F1000404DB4FF00C
:102890000044404264EB0101141E73F1000405DBA7
:1028A0001C464FF00043524263EB0403994208BFB9
:1028B000904230BD064C074D06E0E06840F0010351
:1028C00094E8070098471034AC42F6D3FFF7BCFBFE
:1028D000CC3601011C37010170B58C1810F8015B72
:1028E00015F0070301D110F8013B2A1106D110F8A9
:1028F000012B03E010F8016B01F8016B5B1EF9D1AD
:102900002B0705D40023521E0DD401F8013BFAE732
:1029100010F8013BCB1A921C03E013F8015B01F89D
:10292000015B521EF9D5A142D8D3002070BD000032
:1029300010B51E480068002800D080471C480021C0
:102940000170881E1B490860192000F07AF91A4CA2
:10295000D4F8C002800704D4F42218A11CA004F407
:10296000A1F72A480168D4F8C40261F31D3040F091
:102970000100C4F8C40204F4B1F000214FF030406B
:10298000C1608161C1174161016204F463F00948CB
:102990004038016821F4800101601D48006800286A
:1029A00002D0BDE81040004710BD00006024800048
:1029B0005482003044C500A000E000A07277697026
:1029C0005F736C6565705F636F6D6D6F6E2E630016
:1029D0004D43555F5355422D3E424C455F44534C49
:1029E0004545505F434F52525F454E2026204D4390
:1029F000555F5355425F424C455F44534C454550EB
:102A00005F434F52525F48575F454E005424800049
:102A10006424800010B500214FF03040C160816116
:102A2000C11741610162022000F036F9BDE8104093
:102A3000012000F031B910B5012000F002F9BDE825
:102A40001040012000F028B9FEE7FEE730B500F0A5
:102A50000703C3F10704082C00D9082403F1080078
:102A6000072801D2002300E05B1C012505FA04F0D1
:102A7000401E084098409D406D1E1540284330BDC3
:102A8000FEE71BF42993FEE70249096801F00701FC
:102A90000170704704C500A030B4062821D2124945
:102AA0000A6802F00702824212D00A680F4B1A40ED
:102AB0000F4C22430A6000BF00BF00BF00BF0A687E
:102AC0001A400C4B024333F8203042EA83420A603A
:102AD0000849183951F820000749886030BC76F45D
:102AE000899230BC7047000004C500A0F8FFE3FFE6
:102AF00005000800681C0101007A003004480068E5
:102B0000044900F0070051F820000349886070472D
:102B100004C500A0501C0101007A00300248016881
:102B200041F470010160704788ED00E002480068E0
:102B3000001D1EF491950000CC7B003002484068D7
:102B4000001D1EF489950000CC7B0030FEE70000DC
:102B50000FB4054B10B503A9044A029800F0C4FA5B
:102B600010BC5DF814FB0000997F0001F47B00307D
:102B70000FB41CB50246002007AC00290BD0491E3B
:102B8000CDE90021054B6A462146069800F0ACFAD3
:102B9000009A002111701CBC5DF814FB173800016D
:102BA0000FB4084B10B504A902AA039800F09CFAD0
:102BB000044602A9002000F039FE204610BC5DF852
:102BC00014FB00002D3800017CB5044600201D4692
:102BD000164600290BD0491ECDE90041044B6A4638
:102BE0002946304600F080FA009A002111707CBD21
:102BF00017380001002809DB00F01F020121914075
:102C00004009800000F1E020C0F8801270470028E1
:102C100009DB00F01F02012191404009800000F112
:102C2000E020C0F880127047002809DB00F01F0286
:102C3000012191404009800000F1E020C0F880129D
:102C40007047002809DB00F01F0201219140400974
:102C5000800000F1E020C0F880127047002809DBF6
:102C600000F01F02012191404009800000F1E020A6
:102C7000C0F88012704700280DDB00F01F02012110
:102C800091404009800000F1E020C0F88011BFF3BE
:102C90004F8FBFF36F8F704700280DDB00F01F02CE
:102CA000012191404009800000F1E020C0F880112E
:102CB000BFF34F8FBFF36F8F7047002809DB00F021
:102CC0001F02012191404009800000F1E020C0F87E
:102CD00000117047002809DB00F01F02012191401C
:102CE0004009800000F1E020C0F800117047002882
:102CF0000FDB4109890001F1E021D1F8001200F059
:102D00001F0201209040014201D0012070470020A5
:102D100070470020704700280FDB4109890001F14E
:102D2000E021D1F8001200F01F0201209040014282
:102D300001D0012070470020704700207047002814
:102D40000FDB4109890001F1E021D1F8001200F008
:102D50001F0201209040014201D001207047002055
:102D6000704700207047002804DB00F1E02090F855
:102D70000004704700F00F0000F1E02090F8140DFF
:102D80007047002804DB00F1E02090F80004704751
:102D900000F00F0000F1E02090F8140D70470028BB
:102DA00004DB00F1E02090F80004704700F00F0011
:102DB00000F1E02090F8140D7047002804DB00F1CA
:102DC000E02090F80004704700F00F0000F1E020D0
:102DD00090F8140D7047000002480068C0F302200C
:102DE000704700000CED00E002480068C0F30220CC
:102DF000704700000CED00E002480068C0F30220BC
:102E0000704700000CED00E0002809DB00F01F0215
:102E1000012191404009800000F1E020C0F800123B
:102E20007047002809DB00F01F0201219140400992
:102E3000800000F1E020C0F800127047C9B20028FD
:102E400004DB00F1E02080F80014704700F00F0070
:102E500000F1E02080F8141D7047EFF310807047F8
:102E600010B52DED020B2DED088B84B09DED0C0BF4
:102E700051EC100BFFF792FC41EC180B9DED0C0B85
:102E800053EC182B51EC100BFFF780FA41EC190BA7
:102E90000D989FED290B10F0004F53EC102B51ECC7
:102EA000190B9FED21AB9FED22BB0ED0FFF7D2FC9B
:102EB0000ED953EC1B2B51EC190BFFF7E3FC1CD282
:102EC00014E000BF41EC180B17E0FFF7C3FC06D27B
:102ED00053EC1A2B51EC180BFFF758FAF2E753ECAE
:102EE0001B2B51EC190BFFF7CDFC06D853EC1A2B1A
:102EF00051EC180BFFF7A9F9E4E78DED028B9DED7E
:102F00000C0B18EE901A10EE900A8DED000B61F389
:102F10001E0003909DED020B04B0BDEC088B02B0C7
:102F200010BD000000000000000000000000F03FA5
:102F3000000000000000E03F000000000000E0BFD3
:102F400002E008C8121F08C1002AFAD17047704772
:102F5000002001E001C1121F002AFBD1704780F35D
:102F6000108870472DE9FF5F82B00021DDE9043051
:102F7000020DDDF840B0034318D044F61050A2F221
:102F8000FF3242431514119801281FD0A5EB0B0006
:102F9000401C5FEA000A4FF000064E4FDFF8389100
:102FA000B046504615D5CAF1000413E0119801242B
:102FB0004AA3012801D16FEA0B010298119AC0E9D6
:102FC0000031C0E9024206B0BDE8F09FCBF100003D
:102FD000DFE704460021404A491842EB0450CDE99E
:102FE000001012E0E00707D032463B464046494613
:102FF000FFF7D2F98046894632463B4610461946CD
:10300000FFF7CAF906460F466410002CEAD1DDE945
:103010000401DDE90023BAF1000F06DAFFF7BCF97D
:1030200042464B46FFF7B8F905E0FFF727FA42465C
:103030004B46FFF723FA04460E460022284BFFF7C3
:1030400021FC03D84FF0FF30014607E00022254B5A
:1030500020463146FFF7F9F8FFF7E4FB102409E0BA
:10306000002C0ADB0A220023FEF7FEFF039B30320E
:103070001A55641E50EA0102F2D1641C039AC4F18D
:1030800011031444119A012A03D0012208430DD1DF
:103090000AE0084304D000204FF0110B119072E7B2
:1030A000A3EB0B056D1E0DE05B4504DD4FF0000248
:1030B00005F1010504E003DA4FF00002A5F1010576
:1030C000002AECD002981199C0E90231C0E900450C
:1030D00079E70000000014400000F03F30000000DD
:1030E0000000F0430000E03F2DE9FF4F95B09B4604
:1030F0008946064600250FE2252877D10024274679
:10310000F84A0121059400E0044316F8013F203BF2
:1031100001FA03F01042F7D130782A2811D06FF06D
:103120002F033078A0F13002092A16D8059A44F00E
:10313000020402EB820203EB42021044761C05906B
:10314000EFE759F8042B0592002A03DA504244F4C1
:103150000054059044F00204761C30782E2816D1D5
:1031600016F8010F44F004042A280DD06FF02F0246
:103170003078A0F13003092B09D807EB870302EB65
:103180004303C718761CF3E759F8047B761C3078A4
:103190006C280FD006DC4C2817D068280DD06A2880
:1031A00014D104E0742810D07A280FD10DE044F433
:1031B00000140AE044F4801401E044F440147278EE
:1031C000824202D104F58014761C761C3078662881
:1031D0000BD013DC582877D009DC002875D045289F
:1031E000F6D04628F4D047281AD19DE118E063288C
:1031F00035D0642879D0652812D195E1702873D034
:1032000008DC6728F1D069286FD06E280DD06F28B0
:1032100006D1B5E073282CD0752875D0782874D0E5
:103220005A46179990476D1C75E1C4F30250022865
:1032300009D003280DD0D9F8001004280DD00D6056
:1032400009F1040967E1D9F80010EA17C1E9005251
:10325000F6E7D9F800100D80F2E70D70F0E719F8E5
:10326000041B8DF8001000208DF80100EA460120B3
:1032700003E059F804AB4FF0FF3061074FF0000155
:1032800002D40DE008F101018846B9420FDA804509
:10329000F8DB1AF808100029F4D108E008F1010160
:1032A00088468142FADB1AF808100029F6D1059801
:1032B0005B46A0EB080721463846179A00F094FABF
:1032C000284400EB080507E04DE029E10DE01AF87D
:1032D000010B5A4617999047B8F10108F7D25B469F
:1032E00021463846179A13E142E00A220092C4F3BD
:1032F00002524FF0000A022A08D059F804CB032AE0
:103300004FEAEC710AD00DE029E02AE009F107014B
:1033100021F00702F2E802C1914609E00FFA8CFCA5
:103320004FEAEC71042A03D14FFA8CFC4FEAEC719E
:10333000002907DA0A460021DCF1000C61EB0201EA
:103340002D2202E0220504D52B228DF80420012233
:1033500003E0E20701D02022F7E7904659E00A2176
:1033600002E010220DE010214FF0000A00910BE066
:1033700010224FF0000A44F004040827009203E0F2
:1033800008224FF0000A0092C4F30252022A05D02C
:1033900059F804CB0021032A08D009E009F10701FC
:1033A00021F00702F2E802C1914605E01FFA8CFC09
:1033B000042A01D10CF0FF0C4FF00008220728D599
:1033C000702806D0009B83F0100353EA0A0305D04F
:1033D0000EE040228DF80420012208E05CEA0102A0
:1033E00006D030228DF804208DF805000222904688
:1033F000009B83F0080353EA0A030AD15CEA010246
:1034000001D1620705D530228DF804204FF0010864
:103410007F1E582804D034A003900EA802900DE01F
:1034200036A0F9E753466046009AFEF71DFE844633
:103430000398825C0298401E029002705CEA0100D0
:10344000F0D1029806A9081A00F1200A600702D5F7
:1034500024F4803400E00127574502DDA7EB0A0081
:1034600000E0002000EB0A01009005984144401A5A
:103470000590E00306D45B462146179A059800F0B4
:10348000B3F90544002706E001A85A46C05D179924
:1034900090476D1C7F1C4745F6DBE0030CD55B466F
:1034A0002146179A059800F09FF9054404E0302062
:1034B0005A46179990476D1C0099481E00900029A4
:1034C000F5DC08E0029802995A460078491C0291FE
:1034D000179990476D1CBAF10001AAF1010AF1DCBD
:1034E00065E10000092801003031323334353637C8
:1034F0003839616263646566000000003031323340
:1035000034353637383941424344454600000000DF
:1035100000F058F90544761C307800287FF4ECADB3
:1035200019B02846BDE8F08F620700D4062709F1DC
:10353000070222F0070CFCE80223E14603F00048F2
:103540005FEA080C02D00FF2702C0DE05FEA045C19
:1035500002D50FF2682C07E05FEAC47C02D00FF2BC
:10356000602C01E0AFF2700C4FF0FF3823F0004305
:10357000CDF850C065280CD006DC452809D0462877
:103580001DD047283DD13DE0662818D067287ED160
:1035900038E00021112F01DB112000E0781CCDE97B
:1035A000000106A90EA8FFF7DDFCDDE90F010E9A68
:1035B00003910021009207F1010A04914DE04FF0C0
:1035C00000400097CDE9011006A90EA8FFF7CAFC3C
:1035D000DDE90F0203920E9B11990022DDF80CA089
:1035E0000093049211B9791C00EB010AB7EB0A00B1
:1035F00004D4C0F1FF3007F1010A0490AAEB0700E0
:10360000019044E0012F00DA01270021112F01DD94
:10361000112000E03846CDE9000106A90EA8FFF709
:10362000A1FCDDE90F010E9A0391002104910092A3
:10363000BA4621070CD40399514500DA8A46BAF1FB
:10364000010F05DD009AAAF10101515C302908D073
:10365000B84202DA10F1040F06DA0121CDE90110B7
:1036600015E0AAF10101E9E7002805DC049901440D
:103670000491AAEB000102E0411C514500DD8A469D
:103680000499401A401C01904FF00040029020071E
:1036900004D40198504501DBCDF8048000208DF85A
:1036A0004F0002980DF14F07B0F1004F25D02B20AD
:1036B0000E9002984FF0020800280CDA4042029067
:1036C0002D200E9007E00A210298FEF79AFF303174
:1036D000029007F8011DB8F10001A8F10108F2DC21
:1036E00002980028EFD1791E0E980870307800F00B
:1036F000200040F0450007F8020D12A8C01B00F1A1
:1037000007081498007800B1012000EB0A01019825
:1037100001EBE07105984144401A401E0590E0031A
:1037200006D45B462146179A059800F05DF80544DB
:103730001498007818B15A46179990476D1CE00309
:1037400024D55B462146179A059800F04DF80544AC
:103750001CE00498002807DBDDE90301884203DD53
:103760000098405C179901E0179930205A4690471D
:10377000049805F10105401C04900198401E019039
:1037800004D12E205A46179990476D1CBAF10001BA
:10379000AAF1010ADDDC05E017F8010B5A4617997A
:1037A00090476D1CB8F10001A8F10108F4DC5B46FC
:1037B0002146179A0598ABE62D0000002B0000006B
:1037C000200000002DE9F041044600251E46174662
:1037D000880404D405E039462020B0476D1C641EDF
:1037E000F9D52846BDE8F0812DE9F04104460025D1
:1037F0001E469046C80301D5302700E020278804E4
:1038000004D505E041463846B0476D1C641EF9D525
:103810002846BDE8F0814A68002A06D00A68531C91
:103820000B6010704868401E486070470A68531C5F
:103830000B601070704700002DE9F05F0746894665
:1038400093464FEA5B04A2464D465F4EDFF87C810B
:10385000EFF31080012181F31088D8F8A41221F031
:103860002001C8F8A41280F31088EFF31080012122
:1038700081F31088D8F8A01221F02001C8F8A01216
:1038800080F31088306820F080403060504830600D
:103890003F20D8F8001160F30501C8F80011306826
:1038A00020F4601040EAC7403060306820F4E02027
:1038B00040EA07403060052F03D1306840F40040F3
:1038C0003060062F03D1306840F4804030603068AB
:1038D00040F400503060306820F060503060306854
:1038E00020F00F0040F003003060EFF31080012162
:1038F00081F31088344A3832116821F0E04141F0F8
:103900008041116080F31088306840F08040306062
:1039100001E0D8F80000D8F80401C0F30020002826
:10392000F7D1EFF31080012181F31088116841F085
:103930000041116080F3108834E000204FF47A7168
:103940001AE0884217D9306820F080403060306833
:1039500040F000403060306820F00040306008F0F7
:103960008DFD1C480168491C016054464D460520E8
:1039700078F445D16CE7401CD8F80421C2F300224A
:10398000002ADED0D8F8040100F07F01A14200D95E
:103990002146002003E0D8F8002004C5401C8842DE
:1039A000F9D3641A002CC8D15FEACB7008D0D8F8DC
:1039B0000401C0F300200028F9D0D8F800002880C6
:1039C000BDE8F05F08F05ABD08C500A000E000A007
:1039D0000A070807788200302DE9F04107460E46B5
:1039E0004FF000080024274D0BE004EBC40005EB6A
:1039F0008000801C07223946FEF7A5FB40B1641CFD
:103A0000E4B22878A042F0D8B8F1000F18D102E053
:103A10004FF00108F8E728780A21B0FBF1F201FB2A
:103A200012040A2801D2401C287004EBC40105EBE3
:103A300081003968C0F80210B988C180B979017273
:103A40002B7811A21021002003F42EF73078000704
:103A50000BD504EBC40005EB800006F14601BDE880
:103A6000F0410A301C22FEF743BB04EBC40005EB17
:103A7000800006F12A01BDE8F0410A301C22FEF761
:103A800037BB000040D60030523A313A61646420BE
:103A90006C746B206974656D2C206E756D203D20F3
:103AA00025640A007FB58DF8000000238DF80130F1
:103AB000164A88889488A04218D104208DF8010005
:103AC000886801904888ADF808009382002001259D
:103AD00008E08B68948A1E5C05FA06F31C43948206
:103AE000401C80B24B888342F3D80BE0128990428D
:103AF00008D107208DF801004B88886801AA194673
:103B000000F088F8684600F02BF97FBDAC960030D5
:103B10001FB58DF8000000238DF80130002914D165
:103B200051680A4B09889B8999420BD18DF8000096
:103B30000A208DF8010050688068019050688088E4
:103B4000ADF80800684600F00BF91FBDAC960030D8
:103B50001FB58DF8000000208DF801001A488388F9
:103B6000934206D119B10B208DF8010026E0032005
:103B7000FAE7C388934206D119B10B208DF80100F2
:103B80001CE00520FAE70389934206D119B10B2006
:103B90008DF8010012E00620FAE74389934206D12E
:103BA00019B10B208DF8010008E00820FAE78089A0
:103BB000904203D131B10B208DF80100684600F02E
:103BC000CFF81FBD0920F7E7AC96003008B50A46CC
:103BD00005498989002905D000920223002202F0BC
:103BE0007FFE08BD012008BDAC96003008B50A462E
:103BF00007490989002908D00092B2F80221521C15
:103C000093B2002202F06CFE08BD012008BD000046
:103C1000AC960030037813704378537083789370B8
:103C2000C01C5060C91E1181704700001CB5019175
:103C300006494989002906D001AA009202230022E0
:103C400002F04EFE1CBD01201CBD0000AC960030F1
:103C5000002821D0028800F10801B2F5A06F0AD037
:103C6000A2F5A062053A0CD0012A10D0022A13D185
:103C70000079FFF717BF83780A460079194600F0EC
:103C800081B983780A4600791946FFF741BF028956
:103C900081780079FFF75CBF7047000010B50446DB
:103CA000002C0BD018210648FEF73BFA04480461AB
:103CB000BDE810400349044802F0CABD022010BD0F
:103CC000AC960030513C0001607D00300121814004
:103CD0000348808A014201D00120704700207047CC
:103CE000AC9600301CB501910649C988002906D060
:103CF00001AA00920223002202F0F2FD1CBD012065
:103D00001CBD0000AC96003003B581B0064989881F
:103D1000002906D002AA00920123002202F0E0FD51
:103D20000EBD01200EBD0000AC960030044989890B
:103D3000002902D0002202F0B3BD0120704700002C
:103D4000AC96003000224FF47A71014801F0B6BB06
:103D500058D30030014902F0B4BD0000607D00304E
:103D600004490969002903D04278002A00D0084795
:103D700070470000AC96003010B586B004466078FD
:103D80000C2818D2DFE800F01706193E4A25175B09
:103D90003873859620780121FFF7A4FF0446002C94
:103DA00009D01422494901A8FEF7A2F9ADF808404C
:103DB00001A800F023FB06B010BD45A0B921CDE954
:103DC0000010424B48A2143B4DA1022001F096F88E
:103DD000F1E720780121FFF729FF0446002CEAD003
:103DE00014223A49143101A8FEF782F9ADF80840CF
:103DF00001A800F003FBDEE7207806B0BDE8104024
:103E000001F044BF40A0C621CDE900102F4B36A2DF
:103E1000143B3BA1022001F071F8CCE73FA0CA217E
:103E2000CDE90010294B30A2143B35A1022001F04E
:103E300065F806B0201DBDE810400BF05DBB3DA04D
:103E4000D221CDE90010214B27A2143B2CA1022046
:103E500001F054F8201D0BF06DFBA079C007AAD02B
:103E6000207806B0211DBDE81040FFF7AFBE2078D6
:103E7000FFF75CFF0446002C9DD014221349283123
:103E800001A8FEF735F9ADF8084001A800F0B6FA30
:103E900091E72FA0E021CDE900100C4B12A2143BBA
:103EA00017A1022001F02AF806B0201DBDE810403D
:103EB0000BF00ABB2FA0E521CDE90010034B0AA2AD
:103EC000143B0FA1002001F019F874E7F420010160
:103ED0005365727669636520646973636F76657292
:103EE000206661696C2E00002E2E5C5372635C7537
:103EF0007365725C757365725F6170702E6300002C
:103F00004E4F5F544147000052656D6F746520430A
:103F10004D4420737563636573732E004E6577207F
:103F2000434D44206C6973742072656365697665DE
:103F30002E0000004174747269627574652075709A
:103F40006461746520726563656976652E000000A2
:103F500041747472696275746520636F6D706C650D
:103F600074652076616C7565207265636569766538
:103F70002E0000005772697465206572726F722E90
:103F8000000000002DE9FF4714468DF800004FF0B7
:103F900002098DF80190572926D011BB102229491A
:103FA000601CFEF7D0F8E0B9DFF89C80608AA8F8C2
:103FB0000000A08AA8F8020000260AE006EB4600EE
:103FC000A36900EBC60013F81020032A0ED02AB113
:103FD000761CA08A618A401AB042EFD801208DF881
:103FE00001006846FFF7BCFEBDE8FF87721C114464
:103FF0008DB2144909EB4007D81910221031FEF791
:10400000A2F898B1A0690F49384410222031FEF778
:104010009AF888B1A0690B49384410223031FEF774
:1040200092F80028D4D1A8F80C50D1E7A8F8045091
:10403000AD1CA8F80650CBE7A8F80850AD1CA8F8AE
:104040000A50C5E7A81E0101AC9600300449896BEF
:10405000084004490A78104300220A7070470000A3
:10406000002001A08C7E00300C4900280BDC086881
:10407000C0F34120012805D0086820F4C06040F456
:104080000070086070470A28FCDB086810F4C06FF5
:10409000F8D0086820F4C060086070470CC500A024
:1040A00006460F46154672B63846FEF745F84028D4
:1040B00001D9402002E03846FEF73EF880463046FF
:1040C000FEF73AF8402801D9402002E03046FEF7DA
:1040D00033F804469C211048FEF723F8424639463F
:1040E0000D48FEF705F80C48224631465C30FDF7D6
:1040F000FFFF09484FF0AA31016445644FF0BB311E
:1041000081644FF0CC3101654FF0DD3181650020D5
:1041100000F004F8FEE70000908F003030B5ADF2FB
:104120000C4D04464FF4806103A8FDF7FAFF194DCA
:10413000202085F83F0085F89B003CB12846012CE3
:10414000436DC26C09D0022C0CD00FE0114A12A1B1
:104150005C3203A8FEF724FD08E012A103A8FEF7D5
:104160001FFD03E017A103A8FEF71AFD03A90CA287
:10417000686CCDE90121009019A3064A19A100201D
:1041800000F0BCFE012C01D000F070FE0DF20C4DD1
:1041900030BD0000908F00305B4552524F525D2081
:1041A000257300005B5741524E494E475D205061D8
:1041B00072616D303A25642C506172616D313A251F
:1041C000640000005B504152414D5D2050617261BE
:1041D0006D303A25642C506172616D313A2564006E
:1041E000000000006170705F6173736572742E630C
:1041F00000000000014877F43F930000F87B003096
:1042000006460F4690461D4672B64046FDF794FF9F
:10421000402801D9402002E04046FDF78DFF0446CA
:104220009C210D48FDF77DFF224641460A48FDF7D7
:104230005FFF09484FF05531016445644FF0663126
:104240008164C6644FF0773101654765C943816574
:104250000220FFF763FFFEE7908F00302DE9F04169
:1042600006460F4690461D464046FDF765FF40282E
:1042700001D9402002E04046FDF75EFF04469C2144
:104280000D48FDF74EFF224641460B48FDF730FF33
:1042900009484FF011310164456449008164C664E6
:1042A0004FF03331016547654FF044318165BDE81A
:1042B000F0410120FFF732BF908F003070B588B019
:1042C00006468A7ACB7A0C7B4D7BCDE90632CDE966
:1042D0000454887BC97B10A24FF49E73CDE9003251
:1042E000CDE902101A4B1BA220A1022000F006FE0D
:1042F000304602F0AFFD0446002C0AD014221449C7
:10430000183103A8FDF7F4FEADF8104003A800F043
:1043100075F808B070BD0000436F6E6E656374651C
:104320006420776974682074686520706565722000
:10433000253032583A253032583A253032583A250D
:104340003032583A253032583A253032582E000053
:10435000582101012E2E5C5372635C757365725C8B
:10436000757365725F6170702E6300004E4F5F540D
:104370004147000010B586B000291DD10FA0CDE93E
:1043800001024FF4A6710091124B13A218A1032051
:1043900000F0B4FD1849002002F07AF80446002C21
:1043A0000AD014220B491C3101A8FDF7A1FEADF87B
:1043B000084001A800F022F806B010BD44697363FC
:1043C0006F6E6E65637465642028307825303258CE
:1043D000292E0000842101012E2E5C5372635C752E
:1043E0007365725C757365725F6170702E63000037
:1043F0004E4F5F5441470000BC7D00303EB504463F
:104400004FF400711A48FDF78CFE207810B1012896
:1044100019D01DE000211748A28830F831309A42A7
:1044200007D100EBC10014A143681148FEF7B8FBA7
:104430000EE02E2902D0491CC9B2EEE714A10C48A7
:10444000FEF7AEFB04E01DA109486268FEF7A8FB79
:10445000074921A22069CDE901210090D4E9022376
:104460001EA1002000F04AFDBDE83E4000F012BD54
:10447000908D0030381D01014572726F7220636F9C
:104480006465203078253034583A202573000000C8
:104490004572726F7220636F646520307825303406
:1044A000583A204E6F20666F756E6420696E666F95
:1044B000726D6174696F6E2E0000000028257329EB
:1044C000206973206E6F742065737461626C697308
:1044D0006865642E00000000257300006170705F45
:1044E0006572726F722E63002DE9F041014600295A
:1044F0001BD000240F4E0E4A357814E002EB041056
:104500000F780378BB420CD14B684068034208D057
:10451000707808B900F088FC2046BDE8F04100F052
:10452000EBBA641CE4B2AC42E8D3BDE8F081000011
:104530000C8B0030D47B00307CB505460E46002D38
:1045400001D0002418E0E5207CBD05EB0410416893
:104550000091017A8DF80410417A8DF80510072139
:104560008DF80610C26800780023694600F048F80C
:104570000028E9D1641CE4B2B442E6D300207CBD3B
:1045800010B50C46062833D2DFE800F00303031E03
:104590002710184951F830002104090C04D018B133
:1045A000214606F0A3FA1FE0E42010BD2004000C11
:1045B00003D0A1B2104806F099FA200C14D0210CB7
:1045C0000E4806F093FA0FE014F0FF0F03D02046D8
:1045D00006F080F808E0E42010BD14F0FF0F05D0CD
:1045E0002146002006F0F4FA002010BDE42010BDA2
:1045F000E62010BD941C0101000001A0001001A0E4
:104600002DE9F05F05460C4690469946276800263E
:10461000042D13D039462846FFF7B2FF214628461D
:1046200000F0ACF800280AD1032D0AD0052D2ED0B9
:104630004FF0100B2807060E002491E0E620BDE89D
:10464000F09F4FF0080B2079042806D0052809D0E8
:1046500006280DD0072815D110E000213846FFF7B5
:10466000B0DE0FE040F201113846FFF7AADE09E0A4
:104670004FF001113846FFF7A4DE03E03B4938460E
:10468000FFF79FDE4FF0007074F432D5D4E74FF09F
:10469000200BD1E7F80760D0062D65D2DFE805F0E2
:1046A000030303466425324800EBC50090F904A0DB
:1046B000BAF1000F17D0EFF31081012080F31088BA
:1046C000A01900EB40022B4800EB8200C0F80480E8
:1046D000C0F8089081F31088504617F49DD55046D5
:1046E00017F4B8D539E0E420A9E7EFF310820120F0
:1046F00080F31088A0191F4B00EB400003EB8001F2
:10470000C1F80480C1F80890052103F8201082F355
:104710001088062017F480D5062017F49BD50720B3
:1047200017F47AD5072017F495D516E0EFF310812A
:10473000012080F31088A01900EB40020E4800EB26
:104740008200C0F80480C0F8089081F3108812201D
:1047500017F462D5122017F47DD57F08641CE4B2EB
:104760005C4597D300206AE7E62068E70101010075
:10477000941C0101CC8800304C8A003070B58EB09A
:1047800005460C46564901F164004DC8CDE90A02C0
:10479000CDE90C36D1E91E23486F06AED1F8801062
:1047A0000DC6099114224E49843101A8FDF7A0FCE1
:1047B000ACB14C4906200CF00BFA4B4907200CF029
:1047C00007FA4A4912200CF003FA4549444A2C31B1
:1047D000062D7CD2DFE805F0060606415921E520CA
:1047E0000EB070BD207931F810000B90607932F86E
:1047F00010000C90A0790D9020680A903848143071
:1048000050F8350021880904090C04D018B10AA910
:1048100006F0BAF959E0E420E2E7207931F8100017
:104820000B90607932F810000C90A0790D90206800
:104830000A9020680104090C05D080B20A900AA9E8
:104840002B4806F0A1F92068010C3ED0000C0A901C
:104850000AA9284806F098F937E0207901EB4000D2
:10486000408A0790607902EB4000C0880890A079E8
:10487000099020680690207810F0FF0F03D006A85A
:1048800005F07AFF21E0E420AAE72079031F032B3B
:1048900001D8E720A4E702281AD00120029020794D
:1048A00001EB4000808C0390607902EB400080892E
:1048B0000490A079059020680190207810F0FF0FF7
:1048C00009D001A9002006F0DBF9002088E704E008
:1048D00002200290E3E7E42082E7E62080E7000080
:1048E000801C0101BB428000B5428000B1428000C3
:1048F000000001A0001001A010B502460C460020E7
:10490000062A26D2DFE802F00303031A1F0B114820
:1049100050F83200A1B2BDE8104015F4D89021043F
:10492000090C03D0A1B20C4815F4D1D0210C10D041
:10493000210CBDE81040094815F4C990A0B2BDE8AB
:10494000104013F49790A1B2BDE81040002006F08B
:104950009AB910BD941C0101000001A0001001A033
:10496000002803D0024908600120704700207047EA
:10497000DC7B003070B505460024091F062917D2DC
:10498000DFE801F003070C111315284600F0A4F826
:104990000EE00124284600F09FF809E00224284692
:1049A00000F09AF804E0032402E0042400E0052467
:1049B000034A214628461268BDE8704010470000AF
:1049C000DC7B00302DE9F0410446204600F0AEF8D3
:1049D00001462E4800230826025D00F10A0700F177
:1049E0001405AAB1052A33D0082A2AD1092945D0AD
:1049F000082926D1295D491CC9B22955142920D37B
:104A00002B5506552046BDE8F0410821FFF7B2BFFF
:104A1000052913D0042916D0072914D0082910D14C
:104A2000295D491CC9B2295514290AD32B550655AD
:104A30002046BDE8F0410821FFF79CBF3B5505210A
:104A40000155BDE8F0812046BDE8F041FFF792BF77
:104A500005290CD0395D491CC9B239553229F0D32A
:104A600003552046BDE8F0410521FFF783BF0355FC
:104A70002046BDE8F0410621FFF77CBF03552046E4
:104A8000BDE8F0410921FFF775BF0000EC8B003055
:104A900070B504460D4600F00FF808B100F0DAF9E1
:104AA0000348044A2946005D5268BDE8704010473B
:104AB000008B0030D47B00300020064911F8102014
:104AC0000AB100207047401CC0B20A28F6D301206A
:104AD000704700000A8C00300349002201F81020C2
:104AE00001EB4000427070470A8C0030014A02F826
:104AF000101070470A8C0030024A012102EB40007E
:104B0000417070470A8C003070B50024064D05EBEB
:104B10004400407810B12046FFF754FF641CE4B213
:104B20000A2CF4D370BD00000A8C003070B500214F
:104B30001D4B03F132051A5C002A09D0002403F151
:104B40000A06012A0AD0022A12D0032A24D11FE021
:104B500015F8102002B301221A541DE015F8102098
:104B60001AB1345402221A5416E01C54042113E0E2
:104B700015F810204AB1325C521CD2B23254642A69
:104B80000AD3072103221A5406E005211C5403E02E
:104B900015F8101011B10821084670BD1C54FFF71C
:104BA0009BFF0921F8E70000D88B00301CB50428D2
:104BB00016D0032847D0022854D0002861D00128FD
:104BC0006ED138A07E21CDE900103A4B3AA243A124
:104BD000022000F093F90620BDE81C4002F0A6BCBC
:104BE000012912D002291FD0032959D13DA06521E6
:104BF000CDE900102F4B30A238A1022000F07EF941
:104C00000220BDE81C4002F091BC3BA05921CDE937
:104C10000010284B28A231A1022000F06FF90020DB
:104C2000BDE81C4002F082BC36A05F21CDE9001037
:104C3000204B21A229A1022000F060F90120BDE84B
:104C40001C4002F073BC33A06C21CDE90010194B5D
:104C500019A222A1022000F051F90320BDE81C4056
:104C600002F064BC2EA07221CDE90010114B12A2FB
:104C70001AA1022000F042F90420BDE81C4002F015
:104C800055BC2BA07821CDE900100A4B0AA213A134
:104C9000022000F033F90520BDE81C4002F046BCBC
:104CA0001CBD0000566F6C756D6520646F776E2EAD
:104CB00000000000101F01012E2E5C5372635C7017
:104CC0006C6174666F726D5C757365725F7065722E
:104CD0006970685F73657475702E63004E4F5F5422
:104CE00041470000546F67676C6520706C617920E4
:104CF00070617573652E00004D6564696120706C8C
:104D000061792E004D656469612070617573652E4F
:104D1000000000004E65787420747261636B2E0091
:104D200050726576696F757320747261636B2E00C3
:104D3000566F6C756D652075702E00002DE9F04181
:104D40000E4617460A2E02D80FB1002320E000209D
:104D5000BDE8F08103EB430410F82410052901D0CD
:104D6000032913D100EB8405114AA97AD1541049C3
:104D700010F824200C3101EB031422706968616083
:104D8000297A2172697A61720A49E1605B1CDBB29F
:104D9000B342DFD3064831460C30FFF7CDFB06485F
:104DA000067047600548FFF7DBFD0120D0E70000F3
:104DB000008B0030E9440001D47B0030914A0001AF
:104DC0002DE9F0410024124FDFF8488019E0002659
:104DD00007EB041528786968FFF78EFD10B9697A2A
:104DE000012902D0012802D005E0012603E0687AFB
:104DF000022800D1012631462046FFF777FE641CC9
:104E0000E4B298F800008442E1D3BDE8F0810000EC
:104E10000C8B0030D47B003010B5FFF7D1FFBDE81C
:104E20001040FFF771BE000010B5074A0121074886
:104E300000F0D1F900220A21044800F03FFB0449A8
:104E40000120487010BD0000194E0001B08B0030E9
:104E5000D47B003010B5034800F0EBF90249002084
:104E6000487010BDB08B0030D47B00300248406ADF
:104E7000002800D000477047688D0030002806D019
:104E8000002904D0024AD269002A00D01047704796
:104E9000688D00300248006A002800D00047704743
:104EA000688D003070B50D4616460D4C00280AD0AE
:104EB0000178032911D80121A17601461A22204642
:104EC000FDF716F905E00020A0761A210448FDF749
:104ED00028F9E5612662002070BD012070BD000048
:104EE000688D0030044A1044807D084201D00120C2
:104EF0007047002070470000688D00302DE9FE4F9C
:104F00000746924699460024A046CDF80480CDF885
:104F1000088059480178B94202D2807E00287DD1AC
:104F20000EAD0095EFF311860220FDF72AFF8346B0
:104F3000FDF75AFF401C012181400BEB0100C0B27C
:104F400080F3118801213846FFF7CCFF38B14B4878
:104F50004B4950F82720204600F0D0F804461C2189
:104F60003846FFF7BFFF00285ED046A244492046DE
:104F700000F0C4F8204484B204213846FFF7B2FFA1
:104F8000F8B152463E49204600F0B8F8204484B2B9
:104F900008213846FFF7A6FF38B13BA23849204622
:104FA00000F0ACF8204484B20BE010213846FFF743
:104FB00099FF30B135A23249204600F09FF82044D5
:104FC00084B208213846FFF78DFF90B14A462C493C
:104FD000204600F093F8204484B210213846FFF7B1
:104FE00081FF30B12AA22649204600F087F82044EC
:104FF00084B210213846FFF775FF60B126A2052163
:1050000001A80C9BFDF7B4FD01AA1D49204600F044
:1050100075F8204484B221A2194900E029E0204615
:1050200000F06CF8204484B21548C4F58071204427
:105030002B460D9AFDF7C8FDCDF800804FF4807126
:10504000002804DB2044884201DC85B200E00D46E4
:10505000A81C884200D9FE2511A20949284600F063
:105060004DF8284481B20648FFF708FFF0B280F3FC
:105070001188BDE8FE8F0000688D0030E47B0030B1
:10508000688C003028000000200000003A0000007A
:10509000204C696E653A0000256C640029200000F0
:1050A0000D0A00000FB4F8B507AC0094EFF31185BA
:1050B0000220FDF766FE0646FDF796FE401C012124
:1050C00081407018C0B280F3118823464FF4807479
:1050D00021460948069AFDF777FDA04201D881B222
:1050E00000E021460448FFF7C9FEE8B280F31188CA
:1050F000F8BC5DF814FB0000688C003030B5054644
:10510000002000290CD0002A0AD006E02B18FF2B23
:1051100006D8CC54521C401C80B21478002CF5D117
:1051200030BD000010B5074A06214CF2010009F01D
:1051300075FE02F015F90CF023FBBDE810400020CD
:1051400073F49095E81E010110B508480178002914
:105150000AD101210170064873F4D4D3BDE8104090
:105160000021044873F4309610BD0000C87B003065
:10517000D1428000A5F5000170B58AB006460C4604
:10518000002C26D0242101A8FCF7CBFF2078002595
:10519000012410B1012818D104E08DF804508DF8D5
:1051A000054012E08DF804408DF8054010210DF106
:1051B0000600FCF7B6FF40208DF80600E2208DF8CF
:1051C00007008DF808408DF8095001A9304669F4B0
:1051D0003BD00AB070BD2DE9F04104460D4617469C
:1051E000002D04D0012D02D00120BDE8F081E4B1F2
:1051F000DFB1607801281AD0EFF311860220FDF7A5
:10520000B2FD8046FDF7E8FD401C0121814008EB1E
:105210000100C0B280F3118800206070A570E761C2
:10522000F0B280F311880020DFE70120DDE70620DF
:10523000DBE710B50446002C0CD0204600F0D0F976
:10524000FF2060700021A160E160216161610020A8
:10525000E06110BD012010BD10B586B0094A0021E3
:105260000948FFF7B8FF0446002C09D0142207496B
:1052700001A8FCF73DFFADF8084001A8FFF7BEF814
:1052800006B010BD317C000158D30030442101012B
:10529000F0B5DDE90745059981614FF47A76A2FB07
:1052A000061C03FB06C3002702FB0732C0E90212FB
:1052B00009196A41C0E9041200210162F0BD000031
:1052C0002DE9F0410446002C13D0EFF311850220A4
:1052D000FDF749FD0746FDF77FFD401C012606FA54
:1052E00000F03844C0B280F31188124800212162D6
:1052F0000EE00020BDE8F081D4E90432D1E9047C5D
:10530000DB1B72EB0C0202D2016A216203E0084649
:10531000016A0029F0D104626670064810380168FD
:10532000491C0160016B4160E8B280F311880120E3
:10533000E0E70000308C00302DE9F0410546002404
:10534000EFF311860220FDF70EFD0746FDF744FD41
:10535000401C012181407818C0B280F31188134AA3
:10536000106BE8B115B102F1100010E00446206A9C
:1053700010631068401E10600CE0A94206D111684D
:10538000491E1160296A01622C4603E00846016A41
:105390000029F2D124B1002020626070106B5060AF
:1053A000F0B280F311882046BDE8F081208C0030F7
:1053B0002DE9F041EFF311870220FDF7D4FC0446FC
:1053C000FDF70AFD401C012181406018C0B280F346
:1053D0001188114D002608E02078012804D1E169E8
:1053E00009B1A069884726702D6A2C6A002CF3D178
:1053F000094D103D07E0E16909B1A06988472670B1
:10540000206AA8632662AC6B002CF4D1F8B280F35A
:1054100011880120BDE8F081308C00302DE9F04189
:10542000EFF311870220FDF79EFC0446FDF7D4FC44
:10543000401C012606FA00F02044C0B280F3118817
:105440001D4DA5F110082DE0D4E90430D8E9021271
:105450005B1A60EB0200D8E91021D21A814124D3F3
:1054600026702046FFF768FFA078012806D0124872
:10547000283000212162016861B10FE0D8E90220E3
:10548000D4E9021351185841C4E904102046FFF72B
:1054900017FF07E0046005E001F120000168002922
:1054A000FAD104602C6A002CCED1F8B280F31188B6
:1054B0000120BDE8F0810000308C00302DE9FF5F55
:1054C00082460E4693464FF00008BAF1000F20D0F6
:1054D000414886421DD8E6B1EFF311870220FDF75F
:1054E00042FC0446FDF778FC401C01218140601815
:1054F000C0B280F31188504606F020FD10B19AF832
:10550000010040B1F8B280F311880F2004B0BDE86B
:10551000F09F0120FAE709F03DF904460D464FF4EB
:105520007A7106FB01F022462B46002106F0D6FCDC
:10553000DFF8A890B0B1D9F8040048B1D0E9041060
:10554000091B60EB0500C9E9021009F0B7F904E096
:105550000021C9F80810C9F80C104FF00108D9E96A
:10556000020106E0D9F80400D0E90421101B61EB28
:105570000501CDE9020132460023CDF800B05046C6
:10558000FFF786FE5046FFF79BFE0BF0BFF94FF08A
:10559000E024D4F800014FF0806510F0806F01D056
:1055A000012000E0002020B91A20FDF723FBC4F8F9
:1055B0000051B8F1000F0AD0D9F80400D0E9043145
:1055C000D9E90202181A61EB020109F019F9F8B2DF
:1055D00080F31188002099E7008AB907208C0030F9
:1055E0002DE9F04104460025002C39D0EFF3118756
:1055F0000220FDF7B8FB0646FDF7EEFB401C01213B
:1056000081407018C0B280F311886078012824D1DD
:10561000144E7068A0420BD109F0BCF8D4E90432F2
:10562000181A62EB0102C6E9020209F047F90125E6
:105630002046FFF781FE5DB1706848B1D0E90421D2
:10564000D6E90203101A61EB030109F0D9F804E06E
:105650001DB9706808B909F031F9F8B280F3118802
:10566000BDE8F081208C003070B504461A4D55F825
:10567000240070300AF0ABFB82B21646A2B155F896
:10568000240090F8011101290ED0012180F80411A5
:10569000802A0FD355F82400802200F18001703059
:1056A0000AF0AAFB80260CE055F82410002081F8AF
:1056B000000170BD55F8240000F1800170300AF03F
:1056C0009BFB55F82400324600F18001001D1CF4BC
:1056D000B1D10028EDD170BDCC7B00307047000007
:1056E0002DE9F84304464D4F57F82400061D022CBF
:1056F0007ED290F86C1000297AD0012978D190F8E8
:105700000011012974D190F80111002970D10121F3
:1057100080F80111002157F82400D0E90323134435
:10572000027D02F00102D21D9D184268D36FC3F3BF
:105730008003002BFAD090F80421A2B1384A1368F4
:10574000491C90F83B20102A06D08268B3FBF2F285
:105750006A43B1EBC21FF3D957F8240070300AF046
:1057600036FB85B226E0B0F82480C58C001D1BF402
:10577000D9D557F8240041F2883300EB0801491BC2
:105780008031001D2A461CF41AD1E5E757F82400A1
:105790000122703069460AF02FFB57F82400406858
:1057A000C16FC1F340010029FAD09DF800100160DB
:1057B0006D1EADB2002DE9D157F8240070300AF00B
:1057C00006FB0028C8D1306841694906FCD5EFF3D3
:1057D0001085012080F3108857F8240070300AF0FB
:1057E000F6FA68B1EFF31081012080F3108800E031
:1057F00011E03068426842F08202426081F3108812
:1058000057F82410002081F8000157F8241081F87F
:10581000010185F31088BDE8F8830000CC7B0030DF
:10582000087A00302DE9F04105460F46002D06D0DC
:105830002AB12C78022C04D3E820BDE8F081E520C1
:10584000FBE7304E05F1580046F82400D2E900315C
:105850000A46703019460AF0A5FA291D286D0BF08A
:1058600021FF0028E9D156F82410281D486656F873
:105870002400076056F824001822083005F1400182
:10588000FCF736FC204856F8241000EBC405686885
:10589000486056F82400001D05F058FC56F8240016
:1058A000001D05F089FC184801220321103809F079
:1058B000A3FE56F82410012081F86C0056F824103D
:1058C000002081F8000156F8241081F8010156F8F3
:1058D000241081F8020156F8241081F803010B49C5
:1058E0000C200BF075F90A490D200BF071F995F9B0
:1058F000010016F491D495F9010016F4ABD4002000
:105900009BE70000CC7B0030281D01012D2B0001FE
:105910003D2B000170B5022801D3E82070BD134C67
:1059200054F820304BB193F86C5035B139B132B1E5
:1059300093F80351012D04D010E0E52070BDE42060
:1059400070BD002583F8035154F820305B680225B0
:10595000C3F8885054F820305B681B6854F8200066
:10596000001D05F03DFC0028EAD170BDCC7B003065
:1059700070B5007802285BD1FF25002402222DA1FA
:105980002D48FCF7E0FBC0B104222CA12A48FCF70B
:10599000DAFBA8B104222BA12748FCF7D4FB90B175
:1059A00005222AA12448FCF7CEFB78B1022229A1C6
:1059B0002148FCF7C8FB60B10DE0022400250AE095
:1059C0000424012507E00424022504E0052403251E
:1059D00001E0022404251848012204441EA12046A7
:1059E000FCF7B1FB80B1204601221CA1FCF7ABFB08
:1059F000A0B10124F4211048FCF793FB214628466E
:105A0000BDE87040FFF7D2B82046022214A1FCF78F
:105A10009AFB08B10224EDE70324EBE720460222BB
:105A200010A1FCF790FB08B10524E3E70424E1E7AB
:105A300070BD00007570000058940030646F776E80
:105A4000000000006C656674000000007269676801
:105A5000740000006F6B00002B0000002D000000A0
:105A60002B2B00002D2D00002DE9F04104461A4D8E
:105A700055F8240070300AF0AAF982B216460027C1
:105A80007AB155F8240090F80111012909D0802A33
:105A90000ED300F18001703080220AF0ADF980262B
:105AA0000BE055F8240080F800710020BDE8F0817B
:105AB00000F1800170300AF09FF955F8240080F859
:105AC000047155F82400324600F18001001D1BF4DA
:105AD000F7D70028EAD1E9E7CC7B003070B502287F
:105AE00001D3E82070BD104D55F8204064B194F802
:105AF0006C604EB151B14AB15E1C09D044F62066CB
:105B0000B34205D9E42070BDE52070BDE42070BD2E
:105B1000002684F8026155F82000001D1BF44FD7C1
:105B20000028F4D170BD0000CC7B00302DE9F0419D
:105B300006460C46174604F1080520466FF43CD68D
:105B4000C3B21B48E1184268914202DD0320BDE860
:105B5000F0811849184A006809681268891A081AF9
:105B6000001FE91881421CD94FF4004513A22946B1
:105B7000002001F499F601F035FD30B118A2294654
:105B8000002001F491F60820E1E71DA2294600203B
:105B900001F48AF63A4621463046BDE8F0410BF062
:105BA0009BBF3A4621463046BDE8F0410BF094BF1A
:105BB000D8328000D0238000CC238000523A353A7E
:105BC0004E56445320617265612069732062656995
:105BD0006E6720636F6D7061637465642E0D0A00DB
:105BE000523A353A436F6D70616374696E67204E47
:105BF000564453206661696C65640D0A000000001C
:105C0000523A353A436F6D70616374696E67204E26
:105C1000564453207375636365737366756C0D0A20
:105C2000000000007CB50D460022009201926946FA
:105C300001F43CF6044634BB4FF42051684601F4AD
:105C400037F6B8B942F60101684601F431F688B971
:105C500042F60301684601F42BF658B942F60201F8
:105C6000684601F425F628B94FF42451684601F43A
:105C70001FF608B1062406E00098C5F30B018088E2
:105C800008430099888020467CBD000010B5C6B04E
:105C900004464FF482720B4905A8FCF729FA05A9BE
:105CA0002046FDF7A3FF0446002C09D01422064924
:105CB0006846FCF71DFAADF804406846FEF79EFB07
:105CC00046B010BDC81F0101CC2001012DE9F041F3
:105CD00005460C46FF26217A1E2905D02248027966
:105CE000521E52B200683AE004F10801284601F45D
:105CF000E1F5064635E010F832308B422DD11B4ECF
:105D000056F82500406F30B300273B4618A24021CB
:105D1000002001F4C9F5062000EB05202AF42AD35F
:105D2000C00605D5002717A24021002001F4BCF5CC
:105D300021460C3956F82500743001F4BDF50020D9
:105D4000A08001266FB115A2402101F4ADF52846CF
:105D500001F4B4F505E00127D7E7521E52B2002A3C
:105D6000C9DA3046BDE8F0817C058000C40E8000B1
:105D7000523A333A657865637574653D30782578B5
:105D80000A000000523A333A636F6E6E6563742006
:105D90006E6F742063666D0A00000000523A333A59
:105DA000737461727420657865637574650A0000A8
:105DB0000348024901600D2141607047A88100300D
:105DC0007C0580002DE9FF5F81460F460024A24636
:105DD000CDF808A0CDF80CA0584850F82900603044
:105DE00001F46EF580463D1F79882888544BCDE933
:105DF000001054A24021002001F456F52888E8BB89
:105E000048460FF40BD1401E2880002611E007EB16
:105E1000460002AB82880021484601F453F5C4B223
:105E2000CDF808A0CDF80CA00CB1B0463BE0761C34
:105E3000B6B27888B042EAD835E007EB48006B4646
:105E4000818801AA484601F43FF5C4B23CBBBDF8C5
:105E500004002988884200D3084686B2022106F150
:105E600008002AF431D08346ABF8046032460BF1C7
:105E700006000099FCF73CF9304800E013E050F8C8
:105E800029005946603001F417F5484601F41EF523
:105E90002888801B288008F101081FFA88F8CDF8AF
:105EA00008A0CDF80CA07888404503D9288808B10F
:105EB000002CC2D044BB48460FF4B0D02988401A09
:105EC000401E86B20025062000EB09230F22042184
:105ED000484600962CF4A8D38246AAF802601748D8
:105EE00050F82900066E0AE00AEB0500B288001D92
:105EF000B11DFCF7FDF8B088284485B23668002E45
:105F0000F2D1504601F4E4F44CB1062C07D007EB73
:105F10004800397882882346484601F4DBF4084B70
:105F200014A240210020009401F4BEF4062C03D0FA
:105F3000002004B0BDE8F09F0120FAE7C40E800005
:105F400018230101523A333A5B25735D20656E7464
:105F500065722C206E625F68616E646C653D30789E
:105F600025782C2072655F6C656E3D307825780A47
:105F700000000000523A333A5B25735D2065786972
:105F8000742C207374617475733D307825780A0021
:105F900010B500210A4C0023002001EB410202EB66
:105FA000C10204EB420222F81030401CC0B20A28A1
:105FB000F9D31375491CC9B20A29EDD310BD0000ED
:105FC000C4D700301FB50F4890F80201002818D040
:105FD00068464EF4AFD1DDE900010B4CCDE902017A
:105FE000E1680844094920F07040486008464EF4D2
:105FF00037D4607818B1BDE81F400AF067B80AF0DE
:1060000081F81FBDC01A80008C810030B41A800056
:1060100002460020002152F821300BB1401CC0B2D2
:10602000491CC9B20C29F6D3704710B507F0BEFE63
:10603000BDE8104003F096B907F04EBC10B58CB027
:1060400008A80AF0CDFFBDF8221009989DF821207C
:10605000CDE904109DF820302FA04FF4CB71CDE98D
:106060000232CDE90010364B36A23CA10220FEF7E9
:1060700045FF0AA85FF49CD7044654B11422304966
:10608000103103A8FCF734F8ADF8104003A8FEF770
:10609000B5F99DF828009DF82910CDE906109DF866
:1060A0002A209DF82B30CDE904329DF82C109DF864
:1060B0002D002CA24FF4CE73CDE90032CDE90201C0
:1060C0001F4B20A225A10220FEF718FF30A04FF49D
:1060D000D271CDE900101A4B1AA220A10220FEF7BE
:1060E0000DFF0AF0C1FB02F0BFFDFFF7B5F8314923
:1060F000002000F0CDF90446002C0AD014221049EB
:10610000243103A8FBF7F4FFADF8104003A8FEF715
:1061100075F90CB010BD0000476F6F6469782042BC
:106120004C452053444B205625642E25642E25646F
:106130002028636F6D6D69742025782900000000A8
:10614000C42101012E2E5C5372635C757365725C11
:10615000757365725F6170702E6300004E4F5F54FF
:10616000414700004C6F63616C20426F6172642094
:10617000253032583A253032583A253032583A25AF
:106180003032583A253032583A253032582E0000F5
:106190004170706C65204D6564696120436C696570
:1061A0006E74206578616D706C65207374617274B3
:1061B00065642E00BC7D00302DE9F041054688461F
:1061C000284669F4BDD7C0B22449097888420DD267
:1061D00000EB4000213040F400404246AC2108F082
:1061E0001DFE0446200032D0012430E069F4ECD7D3
:1061F000C7B207EB470606F1200040F400402A46EC
:10620000072108F00BFE10B10120BDE8F0813846EF
:1062100076F42AD106F1210040F400404246AC2138
:1062200008F0FCFD0446200001D00120EDE72236F5
:1062300046F4004008F048FC0949C7EBC70009686C
:10624000084429680160A9888180A97981711CB9F5
:1062500041462846FDF7C0FB2046D6E7382380009C
:106260003C2380000020704710B500F013F809F0BF
:10627000A3FF09F0D3FF09F03DFF09F08FFB0BF0FE
:106280009DF800F0AFFD09F0DDFFBDE8104000F023
:1062900079BC000010B50749074804F02BF90749FD
:1062A000074804F027F9BDE810400649064804F005
:1062B00021B9000015B80001A1B90200B9610001BF
:1062C0007D5A060055BF0001C106030009F0EABA75
:1062D00010B506F097FC07F07FFE06F0BFFC07F054
:1062E000D1F806F01FFD06F043F8FFF761FD03F05B
:1062F00001FC0AF03BF80AF049FCBDE81040FFF74A
:1063000047BE00000148FFF783BE0000B4138000C1
:1063100010B5FFF7DBFF054903480860BDE81040F2
:10632000034875F41393000017B8800474C500A0E7
:106330000087930310B50446002C0CD0204600F0D3
:106340003DFB002807D104494968002903D02046B5
:10635000BDE81040084710BD687F00300EB50188C9
:1063600040F20233A1F20232994249D016DCB1F573
:10637000807F22D0A1F50071073922D0012930D0C9
:10638000FA292DD1418800292AD1027903B000F1E0
:10639000080110465DF804EBFDF790BF042A37D0E2
:1063A000A2F54072FE3A3AD0012A19D1408800285D
:1063B00016D1BDE80E40FDF7C5BCBDE80E40FFF7A5
:1063C0003DBE408800280BD019A14FF4B472CDE92E
:1063D000002102901F4B20A225A10320FEF78EFD75
:1063E0000EBD007A0028FBD123A040F26F11CDE949
:1063F0000010184B18A21EA10320FEF77FFD0EBD52
:10640000027A8178007903B05DF804EBFDF7B2BF42
:10641000007903B001215DF804EB60F4C5930279C3
:1064200003B0411D10465DF804EBFEF7A5BE000069
:10643000416476657274696E672073746172746505
:1064400064206661696C65642830582530325829AB
:106450002E000000B42101012E2E5C5372635C7586
:106460007365725C757365725F6170702E63000096
:106470004E4F5F5441470000416476657274697302
:10648000696E672074696D656F75742E0000000079
:106490002DE9F84307460D46EFF311860220FCF77D
:1064A0008CFC0446FCF7A8FC401C012181406018CC
:1064B000C0B280F3118869F419D78046052F06D33E
:1064C00050A21021002001F4EFF1152487E09DB1C6
:1064D0004F48C7EBC70100EB8104E06860B1607A08
:1064E00008B167F45DD6607A68B14AA21021002035
:1064F00001F4DAF10F2472E049A21021002001F426
:10650000D3F102246BE02069F8B9E068017841B169
:10651000012910D045A21021002001F4C5F1232447
:106520005DE08078400710D443A21021002001F4E0
:10653000BBF1232453E08078800706D441A21021C8
:10654000002001F4B1F1232449E0E06841888A0782
:1065500004D50278012A01D162691AB10278022AAF
:1065600007D008E03AA21021002001F49DF1252473
:1065700035E0A26962B1090711D5298809B18029DE
:106580000DD936A21021002001F48EF1262426E038
:1065900035A21021002001F487F124241FE0407867
:1065A00002280CD1288818B144F25061884206D9DB
:1065B00030A21021002001F477F126240FE0E069D9
:1065C00028B90021042065F48FD1E061B8B1E069F9
:1065D000296801603946002069F4E4D700243B466D
:1065E00027A210210020009401F45EF1404669F4D6
:1065F00047D6F0B280F311882046BDE8F883102416
:10660000EDE70000523A313A453A310A0000000005
:106610007C278000523A313A453A330A00000000A4
:10662000523A313A453A320A00000000523A313AC1
:10663000453A360A00000000523A313A453A340AE7
:1066400000000000523A313A453A350A0000000095
:10665000523A313A453A370A00000000523A313A8C
:10666000453A390A00000000523A313A453A380AB0
:1066700000000000523A313A453A31300A00000039
:10668000523A313A6164765F73746172745B256467
:106690005D3A20453A3078253032780A0000000013
:1066A0002DE9F0470446894690460025EFF311870F
:1066B0000220FCF782FB0646FCF79EFB401C0121F2
:1066C00081407018C0B280F3118869F40FD68246F9
:1066D000184EB9F1000F14D0042C02D8B8F1F80FFD
:1066E00001D901251CE0424649461348FBF700FD4D
:1066F00008F0FF0186F877114A46022000F046F9BB
:1067000003E0042C01D901250AE0B6F8220120F0AB
:1067100007002043A6F82201708840F00200708034
:10672000504669F4ADD5F8B280F311882846BDE82B
:10673000F08700007C278000F42880002DE9F843D2
:1067400004460D460027EFF311860220FCF735FBC7
:106750008046FCF751FB401C0121814008EB010001
:10676000C0B280F3118869F4C1D5804623461BA2CC
:1067700010210020009501F497F07DB1601E4AF2CF
:10678000B811884206D31EA21021002001F48CF01B
:1067900001271AE0952803D2962401E04FF4617492
:1067A0001C48A0F8044135B190F81C1141F00401D7
:1067B00080F81C1105E090F81C1121F0040180F80C
:1067C0001C11418841F002014180404669F458D5CE
:1067D000F0B280F311883846BDE8F883523A313A76
:1067E00072656E65775F6475723A25642C20656EFC
:1067F00061626C655F666C61673A25640A0000003F
:10680000523A313A696E76616C69642070617261E6
:106810006D0A00007C2780000A2805D2034A002167
:1068200052F8200080F88F1070470000C40E8000DE
:1068300010B503460C46184609F056FD002805D150
:106840002146BDE81040184662F4B49310BD000024
:1068500038B504460D4600200090002C06D069464D
:106860000D485FF461D180B210B110E0022038BD54
:10687000142075F4F3D2014659B105CCC1E90102E7
:10688000CD609DF800000874044805F0F3FD002079
:1068900038BD102038BD0000E02201010880003022
:1068A00070B503460C461546184609F01DFD002834
:1068B00006D12A462146BDE87040184663F4D690BA
:1068C00070BD10B503460C46184609F00DFD0028B2
:1068D00005D12146BDE81040184663F4B59110BDBE
:1068E000F8B50546069C0E461746284609F0FCFCFE
:1068F000002805D13A4631462846009463F402D276
:10690000F8BD000000B58BB0094901200870FF22D6
:10691000282101A8FBF7FEFB4FF48070ADF80400BE
:106920000020ADF8060001A8FFF704FD0BB000BD84
:10693000687F003010B506480068002800D0804706
:10694000FDF7F4DF08B1012010BD002010BD0000EC
:106950005C82003010B540F4404008F0B5F810BD3E
:1069600038B50C462178009140F44040694608F063
:106970001FF9002208B1227038BDBDF80010FF29B0
:1069800002D92270012038BD217038BD10B540F405
:10699000404008F043FA10BD0449016004494160D9
:1069A000044981600449C1607047000041C206008B
:1069B000616900018D6900015569000170B50446E7
:1069C000002C1FD04FF6FF731946208840F2015566
:1069D000A0F201524FF48076A8424AD01BDC40F26C
:1069E0000245A0F20242A84232D00DDCA0F5407070
:1069F000013823D0012821D0FF2827D0B0422CD144
:106A000021892AE0002070BD012A23D0022A23D048
:106A1000FE2A22D128E0052A2BD008DC012A28D022
:106A2000022A26D0032A24D0042A16D121E0062ADD
:106A30001FD0B24222D0B2F5007F0ED1204603F023
:106A40003FFB204603F0B8F9002070BD218904E027
:106A5000218902E0618900E0218A994213D0204611
:106A600003F03EFB012070BD204603F039FA002000
:106A700070BD204603F0B0F9002070BD204602F042
:106A8000EBFE002070BD002070BD000070B5C0B0EE
:106A9000F8203F9040F28C413348FBF742FB6AF408
:106AA000EBD20020304CFF21C0EBC00204EB82028D
:106AB0001172401CC0B20528F6D3002004EB00126E
:106AC00082F8B010401CC0B20528F7D384F89810A3
:106AD00084F8A41084F8941084F800112348002648
:106AE000067023480670234800688047608840F09D
:106AF0000200608001AA3FA90220FFF731FF1E4D6E
:106B000048B31E48FBF718FB401CC2B284F877213B
:106B10001A492846FBF7ECFA0820A4F872020A206A
:106B2000A4F87402A4F87662C820A4F8780226714A
:106B300050211348FBF7F5FA0020114A4FF6FF7178
:106B400022F83010401CC0B20A28F9D300206CF49F
:106B500093D240B070BD9DF8FC2084F8772101A944
:106B60002846FBF7C5FAD7E77C278000082280007B
:106B7000092280000C228000F428800088D30700BE
:106B80002A27800004490348086005490348086033
:106B900070470000518700010C22800085890001A8
:106BA0001822800070B50026150A0E4805EB450234
:106BB00000EB0214098821800120A0702846FFF70D
:106BC0002BFE002069F45CD30748016829B10B68EB
:106BD0001BB1228800212846984769F487D33046A4
:106BE00070BD0000D42E8000B82280003EB5002485
:106BF0001D0A0A78122A02D0132A04D006E00020C7
:106C00008DF8000002E001208DF800008888ADF8C2
:106C100004004888ADF80200891D0291002069F443
:106C20002FD30B48016829B18A691AB169462846F1
:106C3000904708E09DF80000012804D1BDF8041039
:106C40002846FFF7F5FD69F451D320463EBD00000C
:106C5000B422800001480078704700007482003040
:106C60007CB50E46150A0020009001906946284622
:106C700073F484D39DF806206946284602F0FCFD93
:106C80000446CCB163F482D1C0B163F47FD1C01C9F
:106C900081B23288002320466DF460D569462846CB
:106CA00009F0A0FB40B106A24021002000F4FCF551
:106CB000214668465EF4C8D600207CBD0020E7E788
:106CC000523A333A7361766520636363640A000065
:106CD0002DE9F0470646DDE908890F4614461D46B2
:106CE0001EA20421002000F4DFF522494B2064F4A9
:106CF0006BD600214B2064F465D639463046FBF74D
:106D000010FA29462046FBF70CFA49464046FBF7A5
:106D100008FA65F495D220B1294620465EF426D6BD
:106D200004E015A20421002000F4BEF549464046C7
:106D300067F438D267F4B2D162F4A0D03946304655
:106D400067F4BAD173F454D2174865F4EDD3FFF762
:106D50009DFEBDE8F04708F067BC0000523A5B5367
:106D6000444B5D626C655F73646B5F696E69740A46
:106D70000000000054238000523A5B53444B5D4EA8
:106D800056445320616E6420426F6E64204D616EE4
:106D90006167657220617265206E6F742061766133
:106DA000696C61626C650A004423800010B5222181
:106DB0000A4808F0A9FC0721094808F09FFC0121B6
:106DC0000648083808F094FCFFF782FA0520FFF720
:106DD00033F9BDE81040FFF728B90000187C0030F7
:106DE000287D00300249014808607047D16C0001DD
:106DF0004823800010B588B0044667F481D1002094
:106E0000079007A855F428D00798FFF7C5FD20681C
:106E1000019060680290A0680390E0680490208A66
:106E2000ADF81400608AADF81600A08AADF818001D
:106E3000E08AADF81A0001A855F438D055F418D0FE
:106E40000348016801614168416108B010BD00005C
:106E5000300100B02DE9F0438BB005460027EFF379
:106E600011860220FBF79BFF01462B480068C0F308
:106E70000220401C012282408818C0B280F3118891
:106E800069F434D2804625A22021002000F40CF5BC
:106E90000A2D01D3032706E0284661F49BD760B191
:106EA000284673F4D5D7404669F4EAD1F0B280F3AE
:106EB00011880BB03846BDE8F083DFF87090C5EB61
:106EC000051000EB4004D9F8000010F82410012947
:106ED00008D100EB8400407AC00703D0284609F0AF
:106EE0005BFA18B1284673F49BD7DCE7D9F80000A9
:106EF000102200EB84014E310C460C316846FBF742
:106F0000F7F821461C2204A8FBF7F2F804A928464A
:106F10000EC973F415D2C6E70CED00E0523A323ACE
:106F2000737461727420656E630A0000E823800048
:106F300010B58AB00446FF2228216846FBF7EAF81C
:106F400040F20271ADF800100021ADF802108DF88A
:106F500004406846FFF7EEF90AB010BD2DE9F04194
:106F600004460025EFF311860220FBF718FF0146C7
:106F700026480068C0F30220401C01228240881885
:106F8000C0B280F3118869F4B1D107462CB12179E0
:106F9000C81F0A2803D301252BE0022529E0207809
:106FA000022801D0052804D1E278520701D4012536
:106FB0001FE003280AD1E278530701D5120701D454
:106FC000012516E0102901D2012512E0042801D084
:106FD000052807D1607940F004006071A07940F085
:106FE0000400A0710A4821680160A1888180A1790C
:106FF0008171012060F4A4D4384669F441D1F0B223
:1070000080F311882846BDE8F08100000CED00E017
:10701000F023800030B58568027B002D02D000206F
:1070200001210CE0104630BDCB0801F00704EB5CF9
:10703000E340DB0701D0401CC0B2491CC9B28A4200
:10704000F2D830BD00230849496808E00A89824225
:1070500004D84A89824201D3CB6802E0096800293A
:10706000F4D1184670470000008000300146054802
:10707000406803E002798A4202D000680028F9D112
:10708000704700000080003070B58AB01C4E307828
:10709000FFF7ECFF0446200014D02169E08809685E
:1070A0000880206963F456D20546FF2228216846ED
:1070B000FBF730F840F20540ADF80000ADF80250A3
:1070C0001DB113E00C200AB070BD2069FFF7A2FFCC
:1070D00002462069016809882181006800881044FF
:1070E0006081ADF808106089ADF80A00E16809B167
:1070F000684688473078401C3070E8B2E3E700000B
:107100000080003070B519480468194D28780028AF
:1071100001D0002070BD4FF0806071F4E9D7FFF717
:107120008FDC600872F4F4D61249086088171149A0
:1071300001262C3908601920FBF783FD0E497006E3
:1071400008604FF03041086B40F007000863094CBD
:10715000303C206840F4E0202060FFF7B3DC2E7064
:10716000206820F4E0202060012070BD6C248000A5
:107170005482003070C500A000E100E070B500242A
:10718000EFF31086012080F31088FFF7B6DC104D76
:1071900028B102242968B9B10220884714E0FFF71A
:1071A000C9FB20B1296879B1002088470CE0FFF7BE
:1071B000A9FF28B10224296831B10220884703E0E1
:1071C000296809B10020884786F31088204670BDE1
:1071D0005C24800010B5084A1378002B01D00F20E2
:1071E00010BD31B150600448243000F013F8002085
:1071F00010BD022010BD0000687F003070B504464D
:107200000D46FFF7D3FD29462046BDE87040FFF745
:10721000E1BF00002DE9FC4705460C46FFF724F8C6
:1072200069F464D007463648006800B180473549A4
:10723000012009F0CDFC3449022009F0C9FC0120ED
:10724000FAF74EFFA08E81B2206B02F077F8DFF8DC
:10725000BC90DFF8BC80E16999F8000098F8002044
:107260000244B1FBF2F1CEB216FB00F1A06965F465
:107270009DD0286863F42CD468685FF439D32869FA
:1072800066F4D8D7A86861F4D1D5E86861F476D6F9
:1072900020484CF4FFD120484CF402D21F484CF453
:1072A00005D21F4854F42ED61E484CF4A9D11E48CE
:1072B0004CF4ACD11D484CF4AFD11D4865F44AD014
:1072C0004FF0806071F414D72046FFF793FDD4E9A6
:1072D0000A01CDE9000199F80010A06916FB010030
:1072E00098F8001016FB01F1D4E90823114C24682A
:1072F000A047384668F4C4D7BDE8FC4765F40E9152
:107300008026800039380600DD37060029D50700C1
:107310002AD50700119F0700B9C3060065C40600FF
:10732000EDAF07004978000145ED060057780001F0
:10733000799B070048238000034900EB800001EBA4
:10734000800080887047000098800030034A00EB7E
:10735000800002EB80008180704700009880003040
:1073600010B500F067F800F049F8BDE8104000F0F3
:1073700001B8000000B58FB005208DF800004FF473
:10738000805101918DF8080001218DF8091000222B
:107390008DF80A208DF80C004A0304928DF8140031
:1073A0008DF815108DF816108DF81800CA03079285
:1073B0008DF820008DF8211003228DF822208DF801
:1073C00024008B030A938DF82C008DF82D100223D6
:1073D0008DF82E308DF830200D938DF838008DF813
:1073E000391004208DF83A00034A05216846FDF75C
:1073F000A5FC0FB000BD0000AD4B00017CB5102610
:10740000009602248DF804408DF8054007258DF87C
:10741000065069460520FDF7B1F900968DF8044045
:107420008DF805408DF8065069460420FDF7A6F951
:107430007CBD000000B587B000F01EF803208DF879
:1074400000001D208DF8160001208DF817008DF822
:1074500018008DF81900044A04496846FDF722FD1A
:10746000FCF7C8FE07B000BD71740001C9740001CB
:107470000020FEF735B900001CB5114800904FF40C
:107480008062019200F58060002101704FF4E133C9
:107490000364032343648164C16401650121416580
:1074A00005230374CC024461022444740176037101
:1074B0008260447101736A460249FEF7B3F91CBD4C
:1074C0006C830030DD5600010A4601464FF47A73A2
:1074D0000020FEF703BB000003480078952801D385
:1074E0000120704700207047123280000E4910F1D1
:1074F000210F06DA086820F4704040F4405008601C
:10750000704710F11D0206D3086820F4704040F463
:107510008040086070470A28FCDD086820F470404D
:1075200040F4A0400860704724C500A010B586B0A4
:1075300004462046FCF7CAFB90B121460020FCF728
:10754000E3FB0446002C09D014220B4901A8FAF7EA
:10755000CFFDADF8084001A8FCF750FF06B010BD04
:1075600006A04921CDE90010034B0CA20E3B14A14B
:107570000220FDF7C3FCF1E7FC1E01015468652001
:10758000636F6D6D616E64206973206E6F7420612E
:107590007661696C61626C652E0000002E2E5C5372
:1075A00072635C706C6174666F726D5C757365722A
:1075B0005F7065726970685F73657475702E6300C3
:1075C0004E4F5F544147000010B508F009FE07F028
:1075D000FDFF09F035FD00F02FFBBDE8104008F07D
:1075E0006DBD00002DE9F04F87B07B48D0F80090CA
:1075F00000240025A246002609F0E8FE774801682D
:10760000C9F800104068C9F80400754800680830DF
:10761000059009F108000690042203A9059800F0DE
:10762000D3FABDF80C10A1F57F40FF3843D00822F3
:1076300003A9059800F0C8FABDF80E006EF4BCD09E
:1076400000F0FF08BDF80C00002867D00698A9EBF1
:10765000000707F58057BDF80E1008F108008346B3
:107660000844B84263D805AB082203A906A800F075
:10767000F9F8BDF80E00002300EB080205A906A8E2
:1076800008F020F8641CBDF80E005844B842C3D17D
:107690000020CDE9006053464A46214628460AF0BC
:1076A00031F9002826D1824600260024CDF8189012
:1076B0006D1CEDB2B0E70020CDE9006053464A46AC
:1076C000214628460AF01EF9002813D16D1CECB2A1
:1076D000434D4FF48057434E08E0286800EB0430D8
:1076E000394603F079F940B1641CE4B2707AA042E3
:1076F000F3D8002007B0BDE8F08F3B488169407A9D
:1077000040F27C42CDE900200291384B38A24FF480
:107710000041002000F4C8F00920EBE7BDF80E009E
:10772000059908F1080808444044059074E7082FBB
:1077300029D305AB082203A906A800F093F8083F57
:107740002FB100233A4605A906A807F0BBFF611C2C
:107750000020CDE9006053464A4628460AF0D2F898
:107760000028C7D18246BDF80E004044C61B002445
:10777000CDF818906D1CEDB20023324605A906A87D
:1077800007F0A0FF48E705AB3A4603A906A800F0BA
:1077900069F8611C03A8CDE9006053464A462846B3
:1077A0000AF0B0F80028A5D1C7F1080ABDF80E000C
:1077B00000EB08060024CDF818906D1CEDB20123F3
:1077C000524605A906A807F07DFF0023324605A909
:1077D00006A807F077FF1FE7D87E0030ACD507007A
:1077E000CC238000D8328000641F8000AA220101CF
:1077F000523A353A25732C204C256420666C61730F
:1078000068207374617465203078253032582C20DC
:107810006572726F72203078253038580D0A00007A
:107820000221B0FBF1F2FF2A04D8B0FBF1F201FB18
:1078300012022AB1491CC9B24029F2D30020704774
:10784000B0FBF1F0C0B2704710B567F46BD2BDE881
:10785000104008F0B9B910B567F484D2BDE8104003
:1078600008F0B2B970B5044615461E462A4620688F
:10787000FAF73EFC306828443060206828442060D5
:1078800070BD000010B50548017B491C0173002044
:1078900072F4ACD1BDE8104000F044B8488000302C
:1078A0003EB5FEF713FD1A48016821F4003101606E
:1078B000174D083D2868174980B2084328601648CC
:1078C00003C8CDE9000112482C38006800F0070118
:1078D0001DF80100C82110FB01F402F0BDFF0F48A4
:1078E00041684268521AA242FBD302F099FF07F0A6
:1078F000B1FE02909DF8080028B19DF808000849E3
:1079000048618861C861286820F07F4028603EBDDA
:1079100030C500A000008F11647B0001001000E062
:10792000488000302DE9FC41294D286820F07F4037
:1079300040F088502860274803C8CDE9000124485A
:1079400024380068C82100F007001DF8000010FB73
:1079500001F402F081FF204841684268521AA242B5
:10796000FBD302F05DFF002607F074FE0446DFF84B
:107970006C80D8F81800844201D9012700E0002764
:1079800071F4DAD740B91FB1D8F81800201A02E014
:10799000D8F81800001BC6B2D8F81800C8F82000A4
:1079A000B6EB900F03D8292C01D8112C02D200F08D
:1079B00017F807E000EBC00020440A21B0FBF1F00B
:1079C000C8F81800286820F07F402860BDE8FC81D6
:1079D00028C500A0647B0001001000E04880003052
:1079E0002DE9FF5F4FF0000B0824DFF86C811A20AF
:1079F000C8F8140059480168594A89B21143016016
:107A000003A8FBF741F80220FBF746F8DFF84C919A
:107A100009F10809D9F8000020F47C3040F4203046
:107A2000C9F800004FA003C8CDE90001DFF82CA180
:107A3000AAF1240ADAF80000C82100F007001DF8B6
:107A4000000010FB01F502F007FF484F78687968E5
:107A5000091AA942FBD302F0E3FE07F0FBFD0290F6
:107A60009DF80810D8F81400814204D99DF8082028
:107A7000811C8A425AD99DF80810814204D29DF88F
:107A80000820811E8A4251D29DF80810814201D9F6
:107A9000012500E0002515B1641C64B201E0641EFC
:107AA00064B2202C11D3D9F8000020F47C3040F4CB
:107AB0002030C9F80000D8F83C00401CC8F83C0051
:107AC000002002904FF0010B30E0D9F8000020F4C4
:107AD0007C3040EA043040F40030C9F8000021A0B6
