:020000040100F9
:102000000000043059210001D9290001014180005C
:10201000FF210001FB210001DD2A0001000000007A
:1020200000000000000000000000000015418000DA
:10203000FD210001000000000F2A0001152A000107
:1020400000F002F800F077F80AA090E8000C824453
:102050008344AAF10107DA4501D100F06CF8AFF230
:10206000090EBAE80F0013F0010F18BFFB1A43F076
:10207000010318472C8100007C8100000A444FF0C6
:10208000000C10F8013B13F0070408BF10F8014BD7
:102090001D1108BF10F8015B641E05D010F8016B1C
:1020A000641E01F8016BF9D113F0080F1EBF10F880
:1020B000014BAD1C0C1B09D16D1E58BF01F801CBA3
:1020C000FAD505E014F8016B01F8016B6D1EF9D526
:1020D0009142D6D370470000103A24BF78C878C127
:1020E000FAD8520724BF30C830C144BF04680C601E
:1020F000704700000023002400250026103A28BF66
:1021000078C1FBD8520728BF30C148BF0B60704769
:10211000642900F0BF80782900F02381732900F042
:10212000AA83002070471FB507F0D8FE00F008FB17
:102130001FBD10B510BDDFF810D0FFF7F4FF04F09D
:1021400073FF00F0B3FB00000000043003B4FFF79E
:10215000F0FF03BC00F0A1FD0148804701480047A3
:10216000AD2A0001E17200010FB4044910B503AAC1
:10217000029800F085FB10BC5DF814FBEC670030A2
:102180000FB41CB5084B06AA7B446946009005981D
:1021900000F047FB04460020694600F055FB20464E
:1021A0001CBC5DF814FB0000BD06000070B50446C1
:1021B00085690068C10601D5302600E02026C007E9
:1021C00007D070BDD4E9012130469047206A401CF9
:1021D00020626D1EF6D570BD70B504468569007825
:1021E000C00707D170BDD4E9012120209047206AA3
:1021F000401C20626D1EF6D570BDFEE7FEE7FEE7CF
:1022000058585247010000001555000000200001F9
:10221000002000016EED52490101000000000000A5
:1022200000000000000000000000000000000000AE
:10223000000000000000000000000000000000009E
:1022400070B50C460546012A05D02878800600D5D1
:10225000EA69002302E0012305E05B1C934202D2FD
:10226000E05C0028F9D1A869E618C01AA861286ABC
:10227000184428622846FFF799FF04E0D5E90121B8
:1022800014F8010B9047B442F8D32846FFF7A4FF97
:1022900070BD00002DE9F041064600241068752944
:1022A000314616A510D0AFF30080002802DA404274
:1022B00013A507E031688A0701D512A502E0490796
:1022C00004D511A5012401E0AFF3008000210A220A
:1022D00006F1240709E0B0FBF2FCB0FBF2F302FBCD
:1022E0001C00303078541846491C0028F3D123468E
:1022F0002A463046BDE8F04100F034BA0000000044
:102300002D0000002B00000020000000F0B40D465E
:102310000188090502D5214C7C4402E01F4C7C4415
:102320000E34002100F1240608E002F00F07120924
:10233000E75D42EA03721B097754491C52EA03071E
:10234000F3D102780023120704D5702D06D009B10D
:10235000022311342246F0BC00F004BA01231034E9
:10236000F8E770B504460D4621461068AFF30080CB
:10237000024629462046BDE870400023C6E7D21D2C
:1023800022F00703D3E90023C0E70368126843F093
:10239000200303600823C3610023B7E7E87D000042
:1023A0002DE9F05F894604464FF0000ADFF874B16A
:1023B000FB44C0F820A02046E1688847002874D07C
:1023C000252806D0D4E901219047206A401C2062CC
:1023D000F1E700265F462046E16888472028054649
:1023E00007DB312D05D2781910F8200C08B106430F
:1023F000F1E7B00701D526F00406C4F81CA00027B9
:10240000C4F818A02A2D09D0284600F03FFC38B3A4
:1024100004EB8708303DC8F8185019E059F8041B40
:10242000204604EB87029161E1688847012F054649
:1024300018D1E069002820DA26F020061DE0D8F83F
:10244000180000EB800005EB40003038C8F8180099
:102450002046E1688847054600F018FC0028EED1C8
:10246000012F0AD02E2D08D12046E16888477F1C15
:102470000546022F46F02006C4DBA069002803DAD7
:10248000404246F00106A061F00701D026F0100698
:102490006C2D0BD0682D09D04C2D39D06A2D35D03C
:1024A000742D35D07A2D33D016E038E0E1682F4610
:1024B00020468847B842054609D16C2F26D04FF4F4
:1024C0008060E168064320468847054604E06C2F9B
:1024D0001AD04FF4807006430DB3A5F141001928BE
:1024E00002D8203546F400664A4629462046266032
:1024F0004E46FFF70DFE80B101280BD0F61D26F0E9
:10250000070000F1080956E74020E4E78020D8E7FB
:102510000020D6E706F104094DE7284652E7206A75
:10252000BDE8F09F787D000040EA010310B59B07ED
:102530000FD1042A0DD310C808C9121F9C42F8D02D
:1025400020BA19BA884201D9012010BD4FF0FF30DE
:1025500010BD1AB1D30703D0521C07E0002010BDF4
:1025600010F8013B11F8014B1B1B07D110F8013B80
:1025700011F8014B1B1B01D1921EF1D1184610BD61
:1025800010B5431C02E010F8011B71B18107FAD1AC
:102590004FF0013202C88C1A8C4314EAC211F9D0F0
:1025A000C01A0A0603D0C01E10BDC01A10BD0A040E
:1025B00001D0801E10BD0902FCD0401E10BD032AB0
:1025C00040F2308010F0030C00F0158011F8013B50
:1025D000BCF1020F624498BF11F801CB00F8013B37
:1025E00038BF11F8013BA2F1040298BF00F801CBFB
:1025F00038BF00F8013B11F0030300F02580083AD2
:10260000C0F0088051F8043B083A51F804CBA0E828
:102610000810F5E7121D5CBF51F8043B40F8043B7D
:10262000AFF30080D20724BF11F8013B11F801CBB2
:1026300048BF11F8012B24BF00F8013B00F801CB83
:1026400048BF00F8012B704710B5203AC0F00B804E
:10265000B1E81850203AA0E81850B1E81850A0E8A6
:102660001850BFF4F5AF5FEA027C24BFB1E8185000
:10267000A0E8185044BF18C918C0BDE810405FEA70
:10268000827C24BF51F8043B40F8043B08BF7047EC
:10269000D20728BF31F8023B48BF11F8012B28BFF1
:1026A00020F8023B48BF00F8012B70474FF00002B2
:1026B0000429C0F0128010F0030C00F01B80CCF154
:1026C000040CBCF1020F18BF00F8012BA8BF20F8C2
:1026D000022BA1EB0C0100F00DB85FEAC17C24BF16
:1026E00000F8012B00F8012B48BF00F8012B7047C0
:1026F0004FF0000200B5134694469646203922BF9B
:10270000A0E80C50A0E80C50B1F12001BFF4F7AFE5
:10271000090728BFA0E80C5048BF0CC05DF804EBC7
:10272000890028BF40F8042B08BF704748BF20F835
:10273000022B11F0804F18BF00F8012B70470000EA
:1027400070B5064C7C44064D7D4403E0206820446F
:102750008047241DAC42F9D170BD0000A87A00006A
:10276000A87A00002DE9F0470D46994692460446A6
:1027700000F124080168880604D5E06921F0100101
:10278000216000E00120A84201DD471B00E0002796
:10279000A1697A1902EB0900081AA0612078C00625
:1027A00002D42046FFF702FD002608E0D4E901210B
:1027B0001AF806009047206A401C761C20624E459D
:1027C000F4DB2078C0060AD52046FFF7EFFC06E0D0
:1027D000D4E9012130209047206A401C2062381E35
:1027E000A7F10107F4DC07E0D4E9012118F805009E
:1027F0009047206A401C2062281EA5F10105F3DCE9
:102800002046FFF7E9FC2078000602D50220BDE84B
:10281000F0870120FBE7000001694A1C026108788B
:10282000704700B58FB0CDE9013100210591054910
:102830007944CDE9031011466846FFF7B1FD0FB0AA
:1028400000BD0000E5FFFFFF0A6802F8010B0A6007
:10285000704710B5436913B1AFF3008001E0FFF793
:10286000EFFC012010BD127800F124010A70002253
:102870004A700122EDE711684FF0FF32E9E70000EE
:10288000074B70B50D467B44FFF7CBFF0446284647
:1028900000F008F810B14FF0FF3070BD204670BD59
:1028A000F3250000007B00F08000704710B504465F
:1028B000AFF300802046BDE81040FFF747BC0000A2
:1028C00010B51E480068002800D080471C48002131
:1028D0000170881E1B490860192000F027F91A4C66
:1028E000D4F8C002800704D4F42218A11CA003F479
:1028F00031F62A480168D4F8C40261F31D3040F073
:102900000100C4F8C40203F487F100214FF0304005
:10291000C1608161C1174161016203F439F1094865
:102920004038016821F4800101601D4800680028DA
:1029300002D0BDE81040004710BD000060248000B8
:102940009C6A003044C500A000E000A07277697066
:102950005F736C6565705F636F6D6D6F6E2E630086
:102960004D43555F5355422D3E424C455F44534CB9
:102970004545505F434F52525F454E2026204D4300
:10298000555F5355425F424C455F44534C4545505B
:102990005F434F52525F48575F454E0054248000BA
:1029A0006424800010B500214FF03040C160816187
:1029B000C11741610162022000F0D6F8BDE8104065
:1029C000012000F0D1B810B5012000F0AFF8BDE84B
:1029D0001040012000F0C8B8FEE730B500F0070352
:1029E000C3F10704082C00D9082403F108000728C4
:1029F00001D2002300E05B1C012505FA04F0401E13
:102A0000084098409D406D1E1540284330BDFEE7AC
:102A10001BF46293FEE700000249096801F0070118
:102A20000170704704C500A030B4062821D21249B5
:102A30000A6802F00702824212D00A680F4B1A405D
:102A40000F4C22430A6000BF00BF00BF00BF0A68EE
:102A50001A400C4B024333F8203042EA83420A60AA
:102A60000849183951F820000749886030BC76F4CD
:102A7000C19230BC7047000004C500A0F8FFE3FF1E
:102A8000050008006C9F00010066003004480068E3
:102A9000044900F0070051F820000349886070479E
:102AA00004C500A0549F0001006600300248016880
:102AB00041F470010160704788ED00E00248006851
:102AC000001D1EF4C9950000D4670030024840681C
:102AD000001D1EF4C1950000D4670030FEE70028F9
:102AE00009DB00F01F02012191404009800000F144
:102AF000E020C0F880127047002809DB00F01F02B8
:102B0000012191404009800000F1E020C0F88012CE
:102B10007047002809DB00F01F02012191404009A5
:102B2000800000F1E020C0F880127047002809DB27
:102B300000F01F02012191404009800000F1E020D7
:102B4000C0F88012704700280DDB00F01F02012141
:102B500091404009800000F1E020C0F88011BFF3EF
:102B60004F8FBFF36F8F704700280DDB00F01F02FF
:102B7000012191404009800000F1E020C0F880115F
:102B8000BFF34F8FBFF36F8F7047002809DB00F052
:102B90001F02012191404009800000F1E020C0F8AF
:102BA0000011704700280FDB4109890001F1E02185
:102BB000D1F8001200F01F0201209040014201D024
:102BC00001207047002070470020704700280FDB6D
:102BD0004109890001F1E021D1F8001200F01F0243
:102BE00001209040014201D0012070470020704731
:102BF0000020704700280FDB4109890001F1E02126
:102C0000D1F8001200F01F0201209040014201D0D3
:102C1000012070470020704700207047002804DB27
:102C200000F1E02090F80004704700F00F0000F180
:102C3000E02090F8140D704702480068C0F30220AD
:102C4000704700000CED00E0002809DB00F01F02D7
:102C5000012191404009800000F1E020C0F80012FD
:102C60007047C9B2002804DB00F1E02080F80014AE
:102C7000704700F00F0000F1E02080F8141D70474D
:102C8000EFF31080704780F31088704730380A28BF
:102C900001D2012070470020704770472DE9F05F96
:102CA0000746894693464FEA5B04A2464D465F4E6F
:102CB000DFF87C81EFF31080012181F31088D8F8D0
:102CC000A41221F02001C8F8A41280F31088EFF3B9
:102CD0001080012181F31088D8F8A01221F0200182
:102CE000C8F8A01280F31088306820F0804030606F
:102CF000504830603F20D8F8001160F30501C8F853
:102D00000011306820F4601040EAC740306030683D
:102D100020F4E02040EA07403060052F03D13068FE
:102D200040F400403060062F03D1306840F480400A
:102D30003060306840F400503060306820F06050FF
:102D40003060306820F00F0040F003003060EFF397
:102D50001080012181F31088344A3832116821F043
:102D6000E04141F08041116080F31088306840F00C
:102D70008040306001E0D8F80000D8F80401C0F3CA
:102D800000200028F7D1EFF31080012181F3108893
:102D9000116841F00041116080F3108834E0002098
:102DA0004FF47A711AE0884217D9306820F08040D9
:102DB0003060306840F000403060306820F0004003
:102DC000306003F0BDFD1C480168491C0160544699
:102DD0004D46052078F413D76CE7401CD8F8042141
:102DE000C2F30022002ADED0D8F8040100F07F01EF
:102DF000A14200D92146002003E0D8F8002004C5F4
:102E0000401C8842F9D3641A002CC8D15FEACB7009
:102E100008D0D8F80401C0F300200028F9D0D8F871
:102E200000002880BDE8F05F03F08ABD08C500A05F
:102E300000E000A00A070807B06A00300449896B67
:102E4000084004490A78104300220A7070470000C5
:102E5000002001A0B06800300C4900280BDC086895
:102E6000C0F34120012805D0086820F4C06040F478
:102E70000070086070470A28FCDB086810F4C06F17
:102E8000F8D0086820F4C060086070470CC500A046
:102E9000014878F4F1940000E06700302DE9F0413A
:102EA000014600291BD000240F4E0E4A357814E04D
:102EB00002EB04100F780378BB420CD14B684068DA
:102EC000034208D0707808B900F0C2FB2046BDE884
:102ED000F04100F0EBBA641CE4B2AC42E8D3BDE8C8
:102EE000F081000064790030F06700307CB5054661
:102EF0000E46002D01D0002418E0E5207CBD05EB36
:102F0000041041680091017A8DF80410417A8DF81F
:102F1000051007218DF80610C26800780023694665
:102F200000F048F80028E9D1641CE4B2B442E6D3CA
:102F300000207CBD10B50C46062833D2DFE800F037
:102F40000303031E2710184951F830002104090C0F
:102F500004D018B1214602F0E7FB1FE0E42010BDC9
:102F60002004000C03D0A1B2104802F0DDFB200CBD
:102F700014D0210C0E4802F0D7FB0FE014F0FF0F25
:102F800003D0204602F0C4F908E0E42010BD14F09C
:102F9000FF0F05D02146002002F038FC002010BDB4
:102FA000E42010BDE62010BDB09F0001000001A08C
:102FB000001001A02DE9F05F05460C4690469946A9
:102FC00027680026042D13D039462846FFF7B2FFA4
:102FD0002146284600F0ACF800280AD1032D0AD07B
:102FE000052D2ED04FF0100B2807060E002491E07F
:102FF000E620BDE8F09F4FF0080B2079042806D0AA
:10300000052809D006280DD0072815D110E0002189
:10301000384601F4ACF20FE040F20111384601F4F9
:10302000A6F209E04FF00111384601F4A0F203E0E6
:103030003B49384601F49BF24FF0007076F458D0CB
:10304000D4E74FF0200BD1E7F80760D0062D65D20A
:10305000DFE805F0030303466425324800EBC500B2
:1030600090F904A0BAF1000F17D0EFF310810120FE
:1030700080F31088A01900EB40022B4800EB82007F
:10308000C0F80480C0F8089081F31088504619F405
:10309000C3D0504619F4DED039E0E420A9E7EFF3BD
:1030A0001082012080F31088A0191F4B00EB400014
:1030B00003EB8001C1F80480C1F80890052103F8F2
:1030C000201082F31088062019F4A6D0062019F4E7
:1030D000C1D0072019F4A0D0072019F4BBD016E006
:1030E000EFF31081012080F31088A01900EB40025B
:1030F0000E4800EB8200C0F80480C0F8089081F30D
:103100001088122019F488D0122019F4A3D07F0857
:10311000641CE4B25C4597D300206AE7E62068E7C8
:1031200001010100B09F00014C710030CC720030F1
:1031300070B58EB005460C46564901F164004DC885
:10314000CDE90A02CDE90C36D1E91E23486F06AE5F
:10315000D1F880100DC6099114224E49843101A87E
:10316000FFF772FAACB14C49062005F0FDF94B4966
:10317000072005F0F9F94A49122005F0F5F945490B
:10318000444A2C31062D7CD2DFE805F006060641C4
:103190005921E5200EB070BD207931F810000B9058
:1031A000607932F810000C90A0790D9020680A9098
:1031B0003848143050F8350021880904090C04D02F
:1031C00018B10AA902F0FEFA59E0E420E2E72079FA
:1031D00031F810000B90607932F810000C90A07953
:1031E0000D9020680A9020680104090C05D080B277
:1031F0000A900AA92B4802F0E5FA2068010C3ED09B
:10320000000C0A900AA9284802F0DCFA37E020797D
:1032100001EB4000408A0790607902EB4000C088D3
:103220000890A079099020680690207810F0FF0F90
:1032300003D006A802F0BEF821E0E420AAE7207936
:10324000031F032B01D8E720A4E702281AD001208E
:103250000290207901EB4000808C0390607902EBB2
:10326000400080890490A079059020680190207822
:1032700010F0FF0F09D001A9002002F01FFB002071
:1032800088E704E002200290E3E7E42082E7E620FA
:1032900080E700009C9F00019B41800095418000D9
:1032A00091418000000001A0001001A010B502466D
:1032B0000C460020062A26D2DFE802F00303031A98
:1032C0001F0B114850F83200A1B2BDE8104016F4AF
:1032D000FE932104090C03D0A1B20C4816F4F7D3D5
:1032E000210C10D0210CBDE81040094816F4EF93D2
:1032F000A0B2BDE8104014F4BD93A1B2BDE81040E7
:10330000002002F0DEBA10BDB09F0001000001A055
:10331000001001A0002803D0024908600120704776
:1033200000207047F867003070B505460024091F7B
:10333000062917D2DFE801F003070C111315284600
:1033400000F0A4F80EE00124284600F09FF809E000
:103350000224284600F09AF804E0032402E0042442
:1033600000E00524034A214628461268BDE8704063
:1033700010470000F86700302DE9F0410446204670
:1033800000F0AEF801462E4800230826025D00F149
:103390000A0700F11405AAB1052A33D0082A2AD158
:1033A000092945D0082926D1295D491CC9B22955CA
:1033B000142920D32B5506552046BDE8F04108219D
:1033C000FFF7B2BF052913D0042916D0072914D05E
:1033D000082910D1295D491CC9B2295514290AD3DD
:1033E0002B5506552046BDE8F0410821FFF79CBF4C
:1033F0003B5505210155BDE8F0812046BDE8F0416F
:10340000FFF792BF05290CD0395D491CC9B2395567
:103410003229F0D303552046BDE8F0410521FFF7DE
:1034200083BF03552046BDE8F0410621FFF77CBF6E
:1034300003552046BDE8F0410921FFF775BF0000A4
:10344000447A003070B504460D4600F00FF808B11C
:1034500000F014F90348044A2946005D5268BDE8AB
:103460007040104758790030F0670030002006495E
:1034700011F810200AB100207047401CC0B20A2881
:10348000F6D3012070470000627A00300349002221
:1034900001F8102001EB400042707047627A003062
:1034A000014A02F810107047627A0030024A012186
:1034B00002EB400041707047627A003070B5002422
:1034C000064D05EB4400407810B12046FFF754FF4D
:1034D000641CE4B20A2CF4D370BD0000627A0030A0
:1034E00070B500211D4B03F132051A5C002A09D08A
:1034F000002403F10A06012A0AD0022A12D0032A64
:1035000024D11FE015F8102002B301221A541DE047
:1035100015F810201AB1345402221A5416E01C5423
:10352000042113E015F810204AB1325C521CD2B2CB
:103530003254642A0AD3072103221A5406E00521D3
:103540001C5403E015F8101011B10821084670BD95
:103550001C54FFF79BFF0921F8E70000307A003088
:10356000704700002DE9F0410E4617460A2E02D89A
:103570000FB1002320E00020BDE8F08103EB4304FD
:1035800010F82410052901D0032913D100EB84057C
:10359000114AA97AD154104910F824200C3101EBBA
:1035A0000314227069686160297A2172697A6172F4
:1035B0000A49E1605B1CDBB2B342DFD30648314607
:1035C0000C30FFF793FC0648067047600548FFF78C
:1035D000A1FE0120D0E70000587900309D2E0001A7
:1035E000F0670030453400012DE9F0410024124F0E
:1035F000DFF8488019E0002607EB04152878696891
:10360000FFF754FE10B9697A012902D0012802D0CF
:1036100005E0012603E0687A022800D10126314640
:103620002046FFF73DFF641CE4B298F80000844296
:10363000E1D3BDE8F081000064790030F06700302C
:1036400010B5FFF7D1FFBDE81040FFF737BF00000E
:1036500010B5074A0121074800F016FA00220A2196
:10366000044800F067FB04490120487010BD0000C9
:1036700041360001087A0030F067003010B5034889
:1036800000F030FA02490020487010BD087A00307E
:10369000F0670030002806D0002904D0024AD26921
:1036A000002A00D0104770472C79003070B50D46C5
:1036B00016460D4C00280AD00178032911D80121A3
:1036C000A17601461A222046FEF779FF05E0002088
:1036D000A0761A210448FFF70BF8E5612662002066
:1036E00070BD012070BD00002C79003008B5134674
:1036F000022801D3E82008BD0A4A52F8200078B118
:1037000002796AB10A4619788DF8001059788DF857
:1037100001100830694602F001F90028EBD108BD1C
:10372000E92008BDC867003070B50446022C01D3FB
:10373000E82070BD234D55F8240088B1017979B196
:103740000021017155F824004171EFF3108601202A
:1037500080F3108855F8210020B1007940B901E0CC
:10376000E92070BD491C0229F4D3042004F098FB21
:1037700086F3108855F824000068417A012903D1A6
:1037800041680078FFF7D6FB55F824000068417DBA
:10379000012903D10169007BFFF7CCFB55F8240018
:1037A000006890F82110012903D1C169007EFFF75C
:1037B000C1FB55F82400083002F00EFA0028D0D1E1
:1037C00070BD0000C867003070B50546002D04D0FC
:1037D0002C78022C03D3E82070BDE52070BD1E4E6E
:1037E00005F1480046F824000C301C2205F12C019C
:1037F000FEF72AFF56F82410281D086056F82410FA
:1038000095F8280081F82800144856F8241050F83C
:103810002400886056F82400083002F0DDF9002802
:10382000DCD156F82400083002F024FA0028D5D163
:10383000281D04F095FA0028D0D10848042202215E
:10384000083004F015FB56F824100120087156F8D2
:1038500024100020487170BDC8670030849F0001AB
:1038600070B50446022C01D3E82070BD094D55F80F
:10387000240060B1017951B1083002F0C5FA002886
:10388000F3D155F8241001204871002070BDE920C3
:1038900070BD0000C867003070B50446022C01D32B
:1038A000E82070BD084D55F8240050B1017941B1B0
:1038B000083002F0D4FA0028F3D155F824104871EA
:1038C00070BDE92070BD0000C8670030FEB5002063
:1038D00002904148FFF778FF10B140A0FEF744FC8A
:1038E0000020FFF7BDFF4CA003C8CDE900014C4EFE
:1038F000306800F007001DF800504A48454301F0C9
:10390000C9FD494C60686168091AA942FBD301F0FE
:10391000A5FD4FF47A71002000F088F814208DF88E
:10392000080001278DF8097002AA02210020FFF784
:10393000DDFE39A003C8CDE90001306800F00700C2
:103940001DF800503748454301F0A4FD60686168E8
:10395000091AA942FBD301F081FD0020FFF79CFF6B
:103960002DA003C8CDE90001306800F007001DF864
:1039700000502C48454301F08DFD60686168091ACC
:10398000A942FBD301F06AFD3C208DF808008DF8B8
:10399000097002AA07210020FFF7A8FE0020FFF708
:1039A0005FFF1DA003C8CDE90001306800F00700EB
:1039B0001DF800501B48454301F06CFD60686168CC
:1039C000091AA942FBD301F049FD0020FFF764FF6B
:1039D0000020FFF7A9FEFEBDFC6700300D0A50571E
:1039E0004D20696E697469616C206661696C6564FB
:1039F0002120506C6561736520636865636B20747A
:103A0000686520696E70757420706172616D656E95
:103A100074732E0D0A0000004030101810200000B2
:103A200004C500A080841E00001000E010B502282C
:103A300001D3E82010BD074A52F8200038B10279BE
:103A40002AB1083002F02EFA0028F3D110BDE92087
:103A500010BD0000C867003010B508480178002983
:103A60000AD101210170064874F44CD7BDE810401A
:103A70000021044875F4A89110BD0000D067003003
:103A80005D4180001D7E00012DE9F04104460D4698
:103A90001746002D04D0012D02D00120BDE8F08191
:103AA000E4B1DFB1607801281AD0EFF3118602206B
:103AB000FFF7B4F88046FFF7BFF8401C01218140B2
:103AC00008EB0100C0B280F3118800206070A5707F
:103AD000E761F0B280F311880020DFE70120DDE725
:103AE0000620DBE710B50446002C0CD0204600F081
:103AF000B3F9FF2060700021A160E1602161616184
:103B00000020E06110BD012010BDF0B5DDE90745E2
:103B1000059981614FF47A76A2FB061C03FB06C36C
:103B2000002702FB0732C0E9021209196A41C0E905
:103B3000041200210162F0BD2DE9F0410446002C81
:103B400013D0EFF311850220FFF768F80746FFF75F
:103B500073F8401C012606FA00F03844C0B280F326
:103B600011881248002121620EE00020BDE8F0819A
:103B7000D4E90432D1E9047CDB1B72EB0C0202D2E3
:103B8000016A216203E00846016A0029F0D104625B
:103B90006670064810380168491C0160016B41607D
:103BA000E8B280F311880120E0E7000040730030A4
:103BB0002DE9F04105460024EFF311860220FFF7BE
:103BC0002DF80746FFF738F8401C0121814078188E
:103BD000C0B280F31188134A106BE8B115B102F13D
:103BE000100010E00446206A10631068401E106048
:103BF0000CE0A94206D11168491E1160296A0162D0
:103C00002C4603E00846016A0029F2D124B10020C5
:103C100020626070106B5060F0B280F31188204613
:103C2000BDE8F081307300302DE9F041EFF31187EA
:103C30000220FEF7F3FF0446FEF7FEFF401C0121C1
:103C400081406018C0B280F31188114D002608E051
:103C50002078012804D1E16909B1A069884726705C
:103C60002D6A2C6A002CF3D1094D103D07E0E16963
:103C700009B1A06988472670206AA8632662AC6BE8
:103C8000002CF4D1F8B280F311880120BDE8F08156
:103C9000407300302DE9F041EFF311870220FEF769
:103CA000BDFF0446FEF7C8FF401C012606FA00F0DF
:103CB0002044C0B280F311881D4DA5F110082DE0FD
:103CC000D4E90430D8E902125B1A60EB0200D8E9AB
:103CD0001021D21A814124D326702046FFF768FFB5
:103CE000A078012806D012482830002121620168FE
:103CF00061B10FE0D8E90220D4E90213511858410C
:103D0000C4E904102046FFF717FF07E0046005E050
:103D100001F1200001680029FAD104602C6A002C0E
:103D2000CED1F8B280F311880120BDE8F081000007
:103D3000407300302DE9FF5F82460E4693464FF0F8
:103D40000008BAF1000F20D0414886421DD8E6B1E4
:103D5000EFF311870220FEF761FF0446FEF76CFFC8
:103D6000401C012181406018C0B280F31188504688
:103D700002F06AFD10B19AF8010040B1F8B280F388
:103D800011880F2004B0BDE8F09F0120FAE703F08E
:103D90008DF804460D464FF47A7106FB01F0224679
:103DA0002B46002102F020FDDFF8A890B0B1D9F831
:103DB000040048B1D0E90410091B60EB0500C9E913
:103DC000021003F007F904E00021C9F80810C9F84F
:103DD0000C104FF00108D9E9020106E0D9F80400FF
:103DE000D0E90421101B61EB0501CDE90201324647
:103DF0000023CDF800B05046FFF787FE5046FFF78E
:103E00009BFE04F087FB4FF0E024D4F800014FF054
:103E1000806510F0806F01D0012000E0002020B903
:103E20001A20FEF75CFEC4F80051B8F1000F0AD06A
:103E3000D9F80400D0E90431D9E90202181A61EB7B
:103E4000020103F069F8F8B280F31188002099E7C5
:103E5000008AB907307300302DE9F041044600258F
:103E6000002C39D0EFF311870220FEF7D7FE06466B
:103E7000FEF7E2FE401C012181407018C0B280F3C1
:103E800011886078012824D1144E7068A0420BD1AB
:103E900003F00CF8D4E90432181A62EB0102C6E907
:103EA000020203F097F801252046FFF781FE5DB17D
:103EB000706848B1D0E90421D6E90203101A61EB19
:103EC000030103F029F804E01DB9706808B903F094
:103ED00081F8F8B280F31188BDE8F08130730030CA
:103EE00070B504461A4D55F82400703004F097F967
:103EF00082B21646A2B155F8240090F801110129AA
:103F00000ED0012180F80411802A0FD355F8240027
:103F1000802200F18001703004F096F980260CE0D8
:103F200055F82410002081F8000170BD55F82400D8
:103F300000F18001703004F087F955F82400324612
:103F400000F18001001D1DF475D50028EDD170BD74
:103F5000D4670030704700002DE9F84304464D4F08
:103F600057F82400061D022C7ED290F86C10002910
:103F70007AD0012978D190F80011012974D190F8F4
:103F80000111002970D1012180F80111002157F899
:103F90002400D0E903231344027D02F00102D21D64
:103FA0009D184268D36FC3F38003002BFAD090F8BA
:103FB0000421A2B1384A1368491C90F83B20102A0A
:103FC00006D08268B3FBF2F26A43B1EBC21FF3D9A9
:103FD00057F82400703004F022F985B226E0B0F8DA
:103FE0002480C58C001D1DF49DD157F8240041F29A
:103FF000883300EB0801491B8031001D2A461DF45F
:10400000DED4E5E757F8240001227030694604F059
:104010001BF957F824004068C16FC1F34001002923
:10402000FAD09DF8001001606D1EADB2002DE9D1EF
:1040300057F82400703004F0F2F80028C8D1306836
:1040400041694906FCD5EFF31085012080F3108803
:1040500057F82400703004F0E2F868B1EFF31081F3
:10406000012080F3108800E011E03068426842F0DF
:104070008202426081F3108857F82410002081F8F2
:10408000000157F8241081F8010185F31088BDE87C
:10409000F8830000D4670030086600302DE9F04155
:1040A00005460F46002D06D02AB12C78022C04D3E9
:1040B000E820BDE8F081E520FBE7304E05F158002F
:1040C00046F82400D2E900310A467030194604F05F
:1040D00091F8291D286D04F045FF0028E9D156F814
:1040E0002410281D486656F82400076056F824005E
:1040F0001822083005F14001FEF7A6FA204856F8CC
:10410000241000EBC4056868486056F82400001DC0
:1041100002F0C2F856F82400001D02F0F3F8184827
:1041200001220321103803F0A3FE56F824100120C9
:1041300081F86C0056F82410002081F8000156F830
:10414000241081F8010156F8241081F8020156F874
:10415000241081F803010B490C2004F005FA0A49E8
:104160000D2004F001FA95F9010018F455D095F9E5
:10417000010018F46FD000209BE70000D4670030E6
:1041800044A00001BD2A0001CD2A00012DE9F04123
:1041900004461A4D55F82400703004F040F882B2FD
:1041A000164600277AB155F8240090F8011101292C
:1041B00009D0802A0ED300F180017030802204F0F3
:1041C00043F880260BE055F8240080F800710020A9
:1041D000BDE8F08100F18001703004F035F855F849
:1041E000240080F8047155F82400324600F1800163
:1041F000001D1DF465D40028EAD1E9E7D46700303A
:1042000070B5022801D3E82070BD104D55F820404C
:1042100064B194F86C604EB151B14AB15E1C09D0E2
:1042200044F62066B34205D9E42070BDE52070BD98
:10423000E42070BD002684F8026155F82000001DBE
:104240001DF4BDD30028F4D170BD0000D467003048
:104250002DE9F04106460C46174604F108052046B4
:1042600071F4AAD2C3B21B48E1184268914202DD40
:104270000320BDE8F0811849184A006809681268EF
:10428000891A081A001FE91881421CD94FF4004509
:1042900013A22946002008F481D500F0DFF930B1DF
:1042A00018A22946002008F479D50820E1E71DA2CC
:1042B0002946002008F472D53A4621463046BDE82A
:1042C000F04105F025B83A4621463046BDE8F041B8
:1042D00005F01EB8D8328000D0238000CC238000A7
:1042E000523A353A4E5644532061726561206973E3
:1042F000206265696E6720636F6D706163746564C9
:104300002E0D0A00523A353A436F6D70616374693D
:104310006E67204E564453206661696C65640D0AD1
:1043200000000000523A353A436F6D706163746962
:104330006E67204E564453207375636365737366CE
:10434000756C0D0A0000000003F0A0BE10B5FFF769
:10435000FBFF054903480860BDE81040034877F4B7
:10436000F592000017B8800474C500A0008793037D
:1043700010B506480068002800D0804700F48EF38E
:1043800008B1012010BD002010BD0000A46A00305B
:1043900070B519480468194D2878002801D000200C
:1043A00070BD4FF0806074F4A3D601F4E7F36008A9
:1043B00075F4AED5124908608817114901262C39C9
:1043C00008601920FEF7B2FB0E49700608604FF036
:1043D0003041086B40F007000863094C303C20680E
:1043E00040F4E020206001F40BF42E70206820F4EB
:1043F000E0202060012070BD6C2480009C6A0030A9
:1044000070C500A000E100E070B50024EFF3108655
:10441000012080F3108801F40EF4104D28B102241D
:104420002968B9B10220884714E0FFF7A1FF20B145
:10443000296879B1002088470CE0FFF7A9FF28B16F
:104440000224296831B10220884703E0296809B1B4
:104450000020884786F31088204670BD5C248000C9
:10446000034900EB800001EB80008088704700006A
:1044700080690030034A00EB800002EB80008180FD
:10448000704700008069003010B500F067F800F058
:1044900049F8BDE8104000F001B8000000B58FB049
:1044A00005208DF800004FF4805101918DF808002F
:1044B00001218DF8091000228DF80A208DF80C00DA
:1044C0004A0304928DF814008DF815108DF816101B
:1044D0008DF81800CA0307928DF820008DF821107E
:1044E00003228DF822208DF824008B030A938DF887
:1044F0002C008DF82D1002238DF82E308DF83020F1
:104500000D938DF838008DF8391004208DF83A009D
:10451000034A05216846FFF725F80FB000BD0000EB
:10452000613500017CB51026009602248DF8044008
:104530008DF8054007258DF8065069460520FEF7E1
:10454000F7FD00968DF804408DF805408DF8065073
:1045500069460420FEF7ECFD7CBD000000B587B085
:1045600000F01EF803208DF800001D208DF81600C5
:1045700001208DF817008DF818008DF81900044AF5
:1045800004496846FFF792F8FEF782FC07B000BDC9
:1045900099450001F14500010020FFF7DDBC000056
:1045A0001CB5114800904FF48062019200F58060C4
:1045B000002101704FF4E1330364032343648164F9
:1045C000C16401650121416505230374CC02446186
:1045D00002244474017603718260447101736A4657
:1045E0000249FFF75BFD1CBD9C6B0030553F00018D
:1045F0000A4601464FF47A730020FFF701BE00001F
:104600000E4910F1210F06DA086820F4704040F4DA
:1046100040500860704710F11D0206D3086820F46E
:10462000704040F48040086070470A28FCDD08684C
:1046300020F4704040F4A0400860704724C500A0FA
:1046400010B503F017FF03F0FDFB04F08DF900F047
:10465000F5FABDE8104003F005BF00002DE9F04F6A
:1046600087B07B48D0F8009000240025A2460026A1
:1046700004F01CFB77480168C9F800104068C9F8CD
:104680000400754800680830059009F1080006909C
:10469000042203A9059800F09DFABDF80C10A1F5BD
:1046A0007F40FF3843D0082203A9059800F092FA12
:1046B000BDF80E0071F480D000F0FF08BDF80C00CA
:1046C000002867D00698A9EB000707F58057BDF8CA
:1046D0000E1008F1080083460844B84263D805ABC1
:1046E000082203A906A800F0D7F8BDF80E000023A1
:1046F00000EB080205A906A803F014FC641CBDF831
:104700000E005844B842C3D10020CDE900605346A2
:104710004A462146284604F011FD002826D182464B
:1047200000260024CDF818906D1CEDB2B0E70020F3
:10473000CDE9006053464A462146284604F0FEFC77
:10474000002813D16D1CECB2434D4FF48057434EFB
:1047500008E0286800EB0430394600F05BFF40B108
:10476000641CE4B2707AA042F3D8002007B0BDE820
:10477000F08F3B488169407A40F27C42CDE90020CD
:104780000291384B38A24FF40041002008F406D3C0
:104790000920EBE7BDF80E00059908F10808084468
:1047A0004044059074E7082F29D305AB082203A9DC
:1047B00006A800F071F8083F2FB100233A4605A97A
:1047C00006A803F0AFFB611C0020CDE90060534652
:1047D0004A46284604F0B2FC0028C7D18246BDF8FC
:1047E0000E004044C61B0024CDF818906D1CEDB29D
:1047F0000023324605A906A803F094FB48E705AB61
:104800003A4603A906A800F047F8611C03A8CDE9C1
:10481000006053464A46284604F090FC0028A5D183
:10482000C7F1080ABDF80E0000EB08060024CDF819
:1048300018906D1CEDB20123524605A906A803F09D
:1048400071FB0023324605A906A803F06BFB1FE7A6
:10485000E8680030ACD50700CC238000D832800057
:10486000641F8000C2A00001523A353A25732C2003
:104870004C256420666C61736820737461746520D4
:104880003078253032582C206572726F7220307863
:10489000253038580D0A000070B5044615461E46EE
:1048A0002A462068FDF78BFE306828443060206877
:1048B0002844206070BD000010B50548017B491CEC
:1048C0000173002075F492D1BDE8104000F044B8A7
:1048D000306900303EB5FFF737FD1A48016821F412
:1048E00000310160174D083D2868174980B2084320
:1048F0002860164803C8CDE9000112482C3800682A
:1049000000F007011DF80100C82110FB01F400F0C0
:10491000C1FD0F4841684268521AA242FBD300F021
:104920009DFD03F0C7FA02909DF8080028B19DF89C
:104930000800084948618861C861286820F07F4004
:1049400028603EBD30C500A000008F11984B0001CB
:10495000001000E0306900302DE9FC41294D286845
:1049600020F07F4040F088502860274803C8CDE9F8
:104970000001244824380068C82100F007001DF811
:10498000000010FB01F400F085FD204841684268FA
:10499000521AA242FBD300F061FD002603F08AFA0E
:1049A0000446DFF86C80D8F81800844201D901274A
:1049B00000E0002774F4C0D740B91FB1D8F8180040
:1049C000201A02E0D8F81800001BC6B2D8F8180068
:1049D000C8F82000B6EB900F03D8292C01D8112C71
:1049E00002D200F017F807E000EBC00020440A21D3
:1049F000B0FBF1F0C8F81800286820F07F4028606C
:104A0000BDE8FC8128C500A0984B0001001000E023
:104A1000306900302DE9FF5F4FF0000B0824DFF80C
:104A20006C811A20C8F8140059480168594A89B2A3
:104A30001143016003A8FDF7EFFF0220FDF7F4FF2B
:104A4000DFF84C9109F10809D9F8000020F47C3016
:104A500040F42030C9F800004FA003C8CDE90001A0
:104A6000DFF82CA1AAF1240ADAF80000C82100F02E
:104A700007001DF8000010FB01F500F00BFD484F8A
:104A800078687968091AA942FBD300F0E7FC03F0C3
:104A900011FA02909DF80810D8F81400814204D948
:104AA0009DF80820811C8A425AD99DF8081081423D
:104AB00004D29DF80820811E8A4251D29DF8081028
:104AC000814201D9012500E0002515B1641C64B2C2
:104AD00001E0641E64B2202C11D3D9F8000020F448
:104AE0007C3040F42030C9F80000D8F83C00401C6D
:104AF000C8F83C00002002904FF0010B30E0D9F8DC
:104B0000000020F47C3040EA043040F40030C9F862
:104B1000000021A003C8CDE90001DAF800006421FB
:104B200000F007001DF8000010FB01F600F0B2FCD9
:104B300078687968091AB142FBD300F08FFC03F062
:104B4000B9F9029035B19DF80800D8F814108842E0
:104B5000BBD805E09DF80800D8F814108842B4D3FB
:104B60009DF80C00FDF760FF0948016821F07F41C6
:104B700001609DF80800C8F81800D8F82400401C0F
:104B8000C8F8240004B05846BDE8F09F30690030F2
:104B900028C500A000008F11403010181020000020
:104BA000001000E00A49322808DDD1F8200220F484
:104BB000706040F44070C1F8200270472828FCDA89
:104BC000D1F8200220F47060C1F820027047000084
:104BD00000E000A02DE9F04105460E461746094CBD
:104BE0002378002B02D0002071F45AD13A46314686
:104BF000284600F04FFD0546207871F451D1284633
:104C0000BDE8F081C92380002DE9F04105460E463C
:104C10001746094C2378002B02D0002071F440D1B4
:104C20003A463146284600F045FD0546207871F4A5
:104C300037D12846BDE8F081C92380000121024A0E
:104C400000206AF491970000C14F000110B5104C8C
:104C500002220421204601F06FFF0122102120468C
:104C600001F06AFF02228021204601F065FF022246
:104C70004021204601F060FF02222021204601F061
:104C80005BFF20460222BDE81040082101F054BF1E
:104C9000001001A02DE9F04106460F461C4C4FF6CE
:104CA000FF75238C102B0AD3208821466084CD8386
:104CB0005B1E0B841E22891C2046FDF780FC608C45
:104CC0003246394602F00EFD10B10C20BDE8F081ED
:104CD000208C102804D3401C2084608CE08308E0E2
:104CE000618C24F81010208C401C2084608C401CA7
:104CF000608400F00FF80028E8D0218C491E89B2AA
:104D00002184628C521E628424F81150DEE7000078
:104D10007877003010B5054A24214FF4204002F086
:104D2000E1FC08B10C2010BD002010BD78770030E8
:104D30002DE9FE4F07460D4602AA2946384604F0E3
:104D40007FF810B10298BDE8FE8F029C0026029603
:104D5000DFF8688098F8000010B1002071F4A0D04E
:104D6000DFF85CA04FF6FF7908226946204600F084
:104D700091FCBDF80000484502D12E80029617E054
:104D8000B84206D115B1BDF802002880083402945B
:104D90000EE0BDF8020070F40FD5BDF80210083027
:104DA00021444418DAF800008442DDD32E800296B4
:104DB00098F8000071F474D00298C4E7C923800009
:104DC000D023800070B5044600BFFDF759FF0546AB
:104DD0000120FDF758FF0948047024B9482208490A
:104DE0000848FDF731FC1DB90020FDF74CFF02E03B
:104DF0000120FDF748FF00BF70BD00009C68003037
:104E0000C07A0030002000E010B50748406807492C
:104E1000486006480830402203490831FDF714FC79
:104E200003200249086010BD787A0030002000E0BD
:104E300070B500BFFDF724FF05460120FDF723FFF5
:104E40000B48047834B948220A490B48FDF7FCFBAB
:104E5000FFF7DAFF0120064908701DB90020FDF7B1
:104E600012FF02E00120FDF70EFF00BF204670BDDB
:104E70009C680030002000E0C07A003013B50121AA
:104E80006846FEF707FC01201CBD017882781144BA
:104E9000C9B201710846704730B50022427143889B
:104EA00005E044798D5C2C444471521C92B29342CB
:104EB000F7D8407930BD000070B506462DED068B61
:104EC00088B00D469FED368B20216846FDF710FC1B
:104ED0000024102269463046FDF7E0FE00206946B6
:104EE00000F1080231F81220224494B2401CC0B2F2
:104EF0000828F5D3E408052E02D0062E24D046E07B
:104F0000688804F058FD41EC180B288804F053FD24
:104F100041EC190B204604F04EFD53EC192B04F024
:104F2000ADFE53EC182B04F091FB9FED1F1B53ECCF
:104F3000112B04F08BFB9FED1E1B53EC112B04F087
:104F400091FE41EC180B22E09FED1B0B51EC100B76
:104F500004F096FA41EC190B688804F02CFD41EC42
:104F60001A0BA88804F027FD41EC180B204604F02A
:104F700022FD53EC182B04F081FE53EC1A2B04F0A5
:104F800065FB53EC192B04F06FFD41EC180B08B0D6
:104F9000B0EE480AF0EE680ABDEC068B70BD00006A
:104FA000000000000000000079E9263108AC5CBF79
:104FB0000000000000003940B76DDBB66DDB0E402D
:104FC0001CB542680121117000214FF48A2205E0CE
:104FD00012F8013B4468491C6354C9B20829F7D34D
:104FE000094906C9CDE900124168009A41F8092F24
:104FF000019A4A600288406811216AF477D5034912
:10500000002008701CBD0000FCA0000148258000A5
:10501000024600210BE0084850F83130501E834210
:1050200004D1054800EBC10040687047491C1029B5
:10503000F1DB0020F9E70000087B0030002101E0EF
:10504000491C4008C207FBD0084670470146174874
:105050000068C0F3C220DC2901DA06207047A1F104
:10506000DC020A2A03D20428F8D006207047A1F1F6
:10507000E602142A01D804207047A1F1FB02092A94
:1050800003D20328F8D004207047A1F58272282AA1
:1050900001D803207047A1F22D11092903D202285B
:1050A000F8D00320704702207047000010C500A010
:1050B00001461E480068C0F3C220DC2901DA07203F
:1050C0007047A1F1DC020A2A03D20528F8D0072094
:1050D0007047A1F1E602142A01D805207047A1F11A
:1050E000FB02092A03D20428F8D005207047A1F555
:1050F0008272282A01D804207047A1F22D12092AB1
:1051000003D20328F8D004207047A1F59B723C2AF3
:1051100001D803207047A1F27311092903D2022894
:10512000F8D00320704702207047000010C500A08F
:105130002DE9F04704460D464FF0000800BFFDF78B
:105140009FFD81460120FDF79EFD30480068102834
:1051500002D34FF0FF384BE048222D492D48FDF790
:1051600073FA48222C492A48FDF76EFA2B48274942
:10517000096840F831402549096800EBC1004560E5
:1051800027884DF6FF7624F0010425F0010504F090
:10519000030080B1A01E40F001011D4808301B4AE9
:1051A000126840F8221007EB06401D49174A1268A2
:1051B00041F822000CE044F0010115480830134A80
:1051C000126840F8221016481049096840F821601A
:1051D00048220F491048FDF737FA48220D490C487C
:1051E000FDF732FA09480068401C0849086000BF12
:1051F000B9F1000F03D10020FDF745FD02E00120C9
:10520000FDF741FD00BF4046BDE8F087A0680030D3
:10521000002000E0C07A0030787A0030087B00304F
:10522000807C003070B5044600BFFDF729FD0546BF
:105230000120FDF728FD0020144908701448154985
:105240000860154815490860482215491548FDF7BA
:10525000FBF91548124948600320086048221348AA
:10526000FDF7F2F948220F490D48FDF7EDF9882CBA
:1052700001D003F07BFB1DB90020FDF704FD02E027
:105280000120FDF700FD00BF70BD00009C680030EC
:10529000C54D0001EC268000314E0001E82680005B
:1052A000002000E0C07A0030807C0030787A003046
:1052B00005480068C00F002804D00448007908B1F0
:1052C000012070470020704740C500A030690030C1
:1052D000FEB50546002403208DF8000000260B4F84
:1052E000E8070CD00120A040019004EB440007EB3C
:1052F000800081680291416809B168468847641C52
:10530000A4B26D08761C082EEADBFEBDCC7200301C
:1053100010B5EFF31084012181F3108800F004F838
:1053200084F3108810BD00002DE9F04104462046AA
:1053300001F0A2FBE0B2EFF31081012282F31088AA
:10534000194A136883430343136081F31088174895
:10535000446284634FF6FF7000EA0421E0B2124B0E
:105360000C3B1A68084382431A6019E094FAA4F0CF
:10537000B0FA80F101208840611E0C40072290FAAB
:10538000A0F1B1FA81F18900094D2E680F278F40F5
:10539000BE438A4016432E60196821EA0040186017
:1053A000002CE3D1BDE8F0815CC500A0002001A085
:1053B00090E200A070B50546064812F467D3EFF3FB
:1053C0001084012181F31088284600F005F884F349
:1053D000108870BDF468003000B585B00168009198
:1053E000017901F00301019181680291C168039183
:1053F000406800090490684601F0B2FA05B000BDAB
:1054000010B5FF20FDF71AFD80B2002821D0114908
:105410008863EFF31081012282F310880E4A6FEA4D
:105420000043136081F310886FF0040111600A4992
:1054300040390968C1F3001139B1202805D0BDE811
:10544000104020F0200012F49992BDE8104012F4B0
:10545000959210BD002001A044C500A0EFF310817B
:10546000012080F3108808480268521E026002681A
:10547000002A05D18268054B1A604068044A106012
:1054800081F3108870470000A4680030001000E02D
:10549000FCED00E010B5EFF31081012080F31088DF
:1054A0000B480268002A0DD10A4B1A6842600A4A6A
:1054B00014688460446844F080741C60836843F01E
:1054C000010313600268521C026081F3108810BD52
:1054D000A4680030FCED00E0001000E010B50446C8
:1054E000002C1DD0207A01281CD0012020721A48DF
:1054F000006818B1416809B120468847174801681B
:1055000021F480610160EFF31081012080F31088A5
:105510001348026822F002020260006820B114E021
:10552000012010BD022010BD0E48426842F0010269
:105530004260C26842F00072C260026842F001023A
:105540000260C26842F08072C26081F3108800205D
:10555000E0606072207210BD8403800014C500A05A
:10556000706A0030A0E200A070B50446002C03D0A1
:1055700023492068884201D0012070BD207A01288B
:1055800005D001252572607A002610B11EE00220A8
:1055900070BD26721B48016821F00101016081681D
:1055A00021F000718160EFF31080012181F31088F8
:1055B00015490A6842F002020A6080F31088134815
:1055C000006818B1016809B120468847022060725E
:1055D0000F48016841F4806101606068012809D0CA
:1055E0002068016821F4805101603046E6606572F0
:1055F000207270BD2068016841F480510160F4E7B9
:10560000006401A0A4E200A0706A0030840380005E
:1056100014C500A010B50B46024600210348FFF751
:1056200044DF08B1002010BD012010BD641F8000C0
:1056300038B5022000906846FDF7EEF9114C20685D
:1056400080B91148206011490160012141608160E9
:10565000EB21C1600E499DF8002051F82210016134
:105660000021416176F482D408B1012000E00020DD
:10567000A072044813F472D608B1002038BD01208E
:1056800038BD0000641F8000281F800000D000A0EB
:10569000D068003010B514460A4601462346044837
:1056A00000F466F308B1002010BD204610BD0000D4
:1056B000641F80002DE9F047C0B081468A46174636
:1056C0003B46524649461748FFF7E5DD18BB002424
:1056D0003D464FF48078474501D9464600E03E46B6
:1056E00009EB040133466A460E4800F441F390B9D1
:1056F0000AEB040032466946FCF716FF58B9AD1BA9
:105700006DB134444646B54200D82E46BC4202D262
:10571000A019B842E4D9002040B0BDE8F08738466F
:10572000FAE70000641F800070B505460E46074882
:1057300014F4D6D1EFF31084012282F3108831469D
:10574000284614F495D184F3108870BDF8680030B1
:105750002DE9FE4307460E463046FFF76FFC85B243
:105760000024DFF85490DFF8548059F83400B84230
:105770001DD105EB041085B205EB450218F8220097
:10578000052807D08DF800400D48874206D1300427
:10579000019004E005208DF80000F5E7019608EB84
:1057A00082008168029142680AB168469047641C91
:1057B000032CDADBBDE8FE83B09F00014C710030A2
:1057C000001001A070B505460E46074814F488D1B4
:1057D000EFF31084012282F310883146284614F436
:1057E00074D184F3108870BDF868003010B5064895
:1057F0001AF496D0EFF31084012080F3108816F489
:1058000037D484F3108810BDEC680030F0B54FF049
:10581000F85000EA01604FF4F81202EA0142254B09
:105820001C680243944304431C6001F01F00EFF323
:105830001082012484F310881C1D256885430543CC
:10584000256082F310884FF4F85202EA01221D68A5
:1058500085431D60EFF31080012383F310882368D4
:105860009343236080F3108820E091FAA1F0B0FA0E
:1058700080F2012090404A1E1140072390FAA0F2C6
:10588000B2FA82F292000C4E35680F279740BD4362
:1058900093401D433560EFF31082012383F310889A
:1058A000236823EA8050206082F310880029DCD12D
:1058B000F0BD00003CC500A094E200A0084601F045
:1058C0005DB9084616F4629470477047012080F372
:1058D00010880F48016821F08071016001210C4A95
:1058E00038321160016841F000710160084A6FF0C0
:1058F0004001143A11600021026861F3DF62026026
:10590000054A04491160016841F080710160FEE7B9
:1059100058C500A0646F6F67007080002DE9F047E4
:10592000044615460026002C08D094F8220038B111
:105930000878642806D90120BDE8F0870120FBE73C
:10594000012645E1EA0716D020762068426A22F057
:10595000030242F0020242622068426A22F00C0214
:1059600042F0040242624878012841D0206802686F
:1059700022F008020260A80717D50878A0762068F0
:10598000426A22F0300242F0200242622068426AFB
:1059900022F0C00242F040024262487801282DD035
:1059A0002068026822F010020260680717D50878A4
:1059B00020772068426A22F4407242F40072426208
:1059C0002068426A22F4406242F48062426248786F
:1059D000012819D02068016821F010010160FDF74D
:1059E00055F87C49A0686427A0B1012840D0EFE0B9
:1059F0002068026842F008020260BCE72068026882
:105A000042F010020260D0E72068016841F0100106
:105A10000160E4E7E8070CD020680022C260E26879
:105A20000B682068B3FBF2F2237E5A43B2FBF7F215
:105A30000261A8070CD5206800224261E2680B6869
:105A40002068B3FBF2F2A37E5A43B2FBF7F2826105
:105A500068070CD520680022C261E26809682068E6
:105A6000B1FBF2F1227F5143B1FBF7F10162AFE0EC
:105A7000227EA07E824200D31046237F834200D341
:105A80001846C825824227D2D4F80CC00B68D4F837
:105A90000080B3FBFCF9B3FBFCFC09FB00F90CFB39
:105AA00002FCB9FBF5F9BCFBF5F2A9EB0202C8F860
:105AB0000C20E268D4F800C0B3FBF2F8B3FBF2F2BA
:105AC000237E08FB00F85A43B8FBF5F8B2FBF5F269
:105AD0004244CCF810200FE022680023D360E36832
:105AE000D1F800C02268BCFBF3F394F818C003FBA4
:105AF0000CF3B3FBF7F3136194F81AC0844526D274
:105B0000E3680A68D4F80080B2FBF3F9B2FBF3F360
:105B100009FB00F903FB0CF3B9FBF5F9B3FBF5F353
:105B2000A9EB0303C8F81430E368D4F800C0B2FB53
:105B3000F3F8B2FBF3F2A37E08FB00F85A43B8FB7C
:105B4000F5F8B2FBF5F24244CCF818200FE02268D9
:105B500000235361E368D1F800C02268BCFBF3F373
:105B600094F81AC003FB0CF3B3FBF7F39361227FA5
:105B7000824220D2E36809682768B1FBF3FCB1FBDD
:105B8000F3F30CFB00FC5343BCFBF5FCB3FBF5F259
:105B9000ACEB0202FA61E2682368B1FBF2F747431B
:105BA000B1FBF2F0217FB7FBF5F74843B0FBF5F00E
:105BB000384418620CE020680022C261E26809687B
:105BC0002068B1FBF2F1227F5143B1FBF7F1016292
:105BD0003046B1E60866003070B50546064800F06C
:105BE0000DF9EFF31084012181F31088284600F0AD
:105BF00005F884F3108870BDFC68003070B5044669
:105C0000002C2AD094F82100012828D0012084F803
:105C10002100144DD5F8A40220F00800C5F8A40214
:105C2000206801F04DF82068016821F00101016051
:105C30000D48006810B141682046884705F5287571
:105C4000686840F008006860286840F00800286034
:105C5000002021346070207070BD012070BD0220D2
:105C600070BD000000E000A0B468003090F8220091
:105C70007047000070B50546064800F0BFF8EFF326
:105C80001084012181F31088284600F005F884F380
:105C9000108870BDFC68003070B588B004461C22C6
:105CA000514901A8FCF7D0FC2CB1E068B0B16068A4
:105CB000042803D006E0012008B070BD206968B157
:105CC000606958B194F82100012809D0012684F8B0
:105CD000216094F82200002520B114E00120EBE7B8
:105CE0000220E9E784F821504048416821F008018A
:105CF0004160016821F0080101603D48006810B171
:105D0000016820468847022084F82200FCF7BEFE86
:105D100060680190A06802903648E1680068B0FBB6
:105D2000F1F103914FF47A71B0FBF1F223695A4318
:105D30000492B0FBF1F0616948430590207E8DF834
:105D40001800607E8DF81900A07E8DF81A00E07EA4
:105D50008DF81B00207F8DF81C00607F8DF81D00E2
:105D600001A9206800F0BCFF94F82000C0070BD107
:105D70002068416A21F0030141F00101416220687D
:105D8000416A21F00C01416294F8200080070BD495
:105D90002068416A21F0300141F010014162206821
:105DA000416A21F0C001416294F8200040070BD401
:105DB0002068416A21F4407141F480714162206899
:105DC000416A21F4406141622068016841F00201AA
:105DD00001602068016841F00101016084F82260DF
:105DE000284684F8215067E754A00001A0E200A0F3
:105DF000B468003008660030704770470149086099
:105E000070470000B46800300021002810D090F8DE
:105E10002120012A0ED0012280F8212090F8222092
:105E2000012A09D00221002280F82120084670476B
:105E30000120704702207047022280F82220026869
:105E4000136843F0010313600268136823F0020330
:105E500013600068426842F002024260E6E70021F7
:105E6000002805D090F82220022A03D0012116E054
:105E7000012070470268536823F0020353600268F0
:105E8000136843F0020313600268136823F00103F0
:105E90001360012280F82220002280F82120084689
:105EA000704700002DE9F04104460D460026002C05
:105EB0000DD094F8220060B1FCF7E8FD25B17248DE
:105EC0000068B5EB500F06D90120BDE8F081012034
:105ED000FBE70126D6E0E560A168642711B101293E
:105EE00025D0BCE021680022CA60E268237EB0FBB6
:105EF000F2F25A43B2FBF7F221680A6121680022EC
:105F00004A61E268A37EB0FBF2F25A43B2FBF7F2B9
:105F100021688A6121680022CA61E268237FB0FBA0
:105F2000F2F25A43B2FBF7F221680A6297E0237E4D
:105F3000A27E934200D31A46217F914200D30A46A3
:105F40004FF0C80C934220D2B0FBF5F8B0FBF5F54A
:105F500008FB02F85D43B8FBFCF8B5FBFCF32168D5
:105F6000A8EB0303CB60E16894F81880B0FBF1F56F
:105F7000B0FBF1F1554301FB08F1B5FBFCF5B1FBBA
:105F8000FCF12368294419610BE021680023CB60F0
:105F9000E368257EB0FBF3F36B43B3FBF7F32168B3
:105FA0000B61A17E914221D2E3682568B0FBF3F832
:105FB000B0FBF3F308FB02F84B43B8FBFCF8B3FB70
:105FC000FCF1A8EB01016961E16894F81A80B0FB6B
:105FD000F1F5B0FBF1F1554301FB08F1B5FBFCF520
:105FE000B1FBFCF12368294499610BE0216800238F
:105FF0004B61E368A57EB0FBF3F36B43B3FBF7F3B0
:1060000021688B61217F91421DD2E3682568B0FB36
:10601000F3F7B0FBF3F357434B43B7FBFCF7B3FB8A
:10602000FCF1791AE961E1682368B0FBF1F55543A9
:10603000B5FBFCF2B0FBF1F1257F6943B1FBFCF14C
:10604000114419620BE021680022CA61E268237FD3
:10605000B0FBF2F25A43B2FBF7F221680A62E2683F
:106060002168B0FBF2F28A6021680A6802F004023B
:10607000042A07D14FF47A72B0FBF2F02269504340
:106080008A6A8862304620E70866003070B50446A8
:106090000D46044817F474D729462046BDE87040E1
:1060A00017F42E97A96000012DE9F041EFF3118755
:1060B0000220FCF7B3FD0446FCF7BEFD401C0121A5
:1060C00081406018C0B280F311880020FDF770FD98
:1060D0000546254ED5E90412C6E902122348081ADE
:1060E00072F11E0019D306F110000EE0DCE9041273
:1060F000D6E90234B1EB030872EB040804D3C91AE1
:1061000062EB0402CCE90412006AD0F820C0BCF1B2
:10611000000FEBD10021B160F160A87801280AD10D
:10612000D6E90230D5E9021259185041C5E90410E8
:106130002846FDF701FDF8B280F31188FDF7AAFDAE
:10614000706840B1D0E90421D6E90203101A61EB6E
:10615000030100F0E1FEE96909B1A8698847BDE8DB
:10616000F041FDF761BD0000307300300010C32C1A
:1061700010B5032806D0FFF789FF034901200870F6
:10618000002010BD012010BDB86800300E48817895
:10619000002909D10D49096801F04051012282709E
:1061A000B1F1805F00D14270407858B10848F6EEF6
:1061B000000A90ED000A30EE200ABCEEC00A10EE94
:1061C000100A704775F42696B868003050C500A0D4
:1061D000C068003008B50020009069464FF00040CC
:1061E000FEF7F2D908B1002008BD009808BD0000F4
:1061F0000148007870470000B868003010B50021F1
:106200000320FFF743FF02490020087010BD000083
:10621000B86800301CB502F093FE05218DF800101F
:106220000649002251F8203083F8002151F820005F
:106230000168002901D0684688471CBDD46700303A
:106240001CB502F07DFE04218DF8001006490022E5
:1062500051F8203083F8002151F82000016800290E
:1062600001D0684688471CBDD46700301CB502F0D9
:1062700067FE03218DF800100649002251F82030F6
:1062800083F8002151F820000168002901D06846F8
:1062900088471CBDD467003070B5054606481BF41E
:1062A00037D3EFF31084012181F3108828461BF4C3
:1062B000E3D084F3108870BD046900301CB5044637
:1062C000204602F03DFE00228DF80020E16B019196
:1062D000064951F8203083F8002151F82000016868
:1062E000002901D0684688471CBD0000D4670030F3
:1062F000002804D010F8371F40780843704700206A
:106300007047000070B5054606481BF401D3EFF353
:106310001084012181F3108828461BF49BD184F35B
:10632000108870BD04690030704770471CB5044682
:10633000204602F005FE02218DF80010218D628DAD
:10634000891AADF80410044951F8200001680029A9
:1063500001D0684688471CBDD46700307CB505462F
:10636000284602F0EDFD044601208DF80000288C3F
:10637000698C401AADF804000C4D55F8240090F8D3
:10638000040118B12046FDF7ABFD02E02046FDF701
:10639000FDFE55F8240090F80011002904D1016891
:1063A000002901D0684688477CBD0000D4670030D2
:1063B0002DE9F04F87B0046845688668C768D0F853
:1063C0001080D0F81490D0F818A0D0F81CB04FF47A
:1063D00080610A48FCF78CF98DE8C00F2B462246F5
:1063E00007490648FBF7CCFE0448FCF7C9F807B09C
:1063F00081B2BDE8F04F0148FEF74CBC7873003025
:1064000040A1000138B500200090124C207890285F
:1064100008D015D294F8280000F07F0000F1460063
:10642000009012E0684602F0D3F994F82800BDF815
:106430000010884209D900F07F004630009004E047
:10644000A07C00F07F0012380090BDF8000000F042
:106450007F0038BD12328000F0B585B00446224F6F
:1064600021033868FFF7D6F8204E4FF40045D8B125
:106470001F480168039140680490082203A9386806
:10648000FEF7C2FB08281ED0B069717A40F26A227A
:10649000CDE900210290174B17A22946002006F4EF
:1064A0007DD4092005B0F0BDB069717A4FF4157242
:1064B000CDE9002102900F4B0FA22946002006F4DF
:1064C0006DD40920EEE71848082101606FF0130130
:1064D00001EB04334360447214A22946002006F401
:1064E0005DD40020DEE70000CC238000641F800024
:1064F000ACD5070083A00001523A353A25732C2011
:106500004C256420666C6173682073746174652027
:106510003078253032582C206572726F72203078B6
:10652000253038580D0A0000D8328000523A353AEA
:10653000496E697469616C697A6520756E757365F9
:1065400064206E7664732C20617661696C5F736978
:106550007A653D25640D0A002DE9FC5F4A490C6807
:1065600008344A4F7872082139606FF0130101EB4B
:10657000003808F1080078604FF001094FF0000A78
:10658000DFF80CB19BF80000002802D000206FF467
:1065900087D4042269462046FFF77CF8BDF8001036
:1065A000A1F57F40FF3826D0082269462046FFF734
:1065B00071F8BDF8020000F108056FF4FDD0C6B215
:1065C000BDF8000000282BD0684602F07BFDA8B182
:1065D0007868A919401A786000281BDA2DA24FF4B8
:1065E0000041002006F4DAD39BF800006FF458D481
:1065F0000120BDE8FC9F4FF0010A1AE033A24FF4DE
:106600000041002006F4CAD39BF800006FF448D480
:106610000920EEE74FF000092146684602F054FBDE
:106620003968A81901443960044437480068844235
:10663000AFD39BF800006FF433D4BAF1000F05D04C
:10664000B9F1000F04D0C7F804800AE00120D0E7B8
:106650007868082802D90838786002E0387200208B
:1066600078607B68434507D828A24FF4004100209A
:1066700006F494D30020BCE72FA24FF40041002081
:1066800006F48CD30120B4E7CC238000D8328000FC
:10669000C9238000523A353A4E56445320696E69F8
:1066A0007469616C697A6174696F6E206661696C86
:1066B000656420666F722077726F6E672074616701
:1066C000206C656E6774680D0A000000523A353A16
:1066D0004E56445320696E697469616C697A6174BD
:1066E000696F6E206661696C656420666F722069EF
:1066F0006E76616C6964206461746120696E204605
:106700006C6173680D0A0000D0238000523A353A5C
:10671000496E697469616C697A6520757365642076
:106720006E7664732C20617661696C5F73697A653B
:106730003D25750D0A000000523A353A4E56445335
:1067400020696E697469616C697A6174696F6E2021
:106750006661696C656420666F7220696C6C656740
:10676000616C20617661696C5F73697A653D25753E
:106770000D0A000010B50446FFF744FEB4F5A37FF0
:1067800010DA4FF48C718C4200DA0C46614201EB56
:10679000810140F6B24202EB4102112192FBF1F17C
:1067A000401AC0B203490A6822F0FE4242EA006081
:1067B000086010BD0CC500A070B503460E46154616
:1067C00008480468324621461846FEF763FF324601
:1067D00029462046FBF7A8FE08B1002070BD012025
:1067E00070BD0000E86800302DE9F04705460E4610
:1067F00017469846EFF311840220FCF70FFA814602
:10680000FCF71AFA401C0121814009EB0100C0B2DB
:1068100080F311880B48406848B1E81B76EB080606
:106820000AD2E0B280F311880120BDE8F087E0B21F
:1068300080F311880120F8E7E0B280F3118800208E
:10684000F3E7000030730030002805D0C16919B1AA
:10685000807818B1012801D00020704701207047CE
:106860007CB50446002000900190684602F01EF8B6
:1068700000285ED102F006F880F0010020B301F09C
:10688000E1FF02002B482C4909D090F8280008307D
:106890000A6822F0FE4242EA0060086014E090F8C4
:1068A0002800322C07DB08300A6822F0FE4242EA58
:1068B0000060086008E0282C06DCC01C0A6822F092
:1068C000FE4242EA006008609DF8040000F01F02EA
:1068D0009DF8020000F01F050221042001233C2C3A
:1068E00002DD0421062007E0202C02DD0321052023
:1068F00002E01B2C00DB0023002B1AD029441F29A7
:1069000000D31F21824201D9101A00E000200B4A57
:10691000D072094A1832136823F41F0343EA014175
:1069200011600549091D0A6822F4780242EAC04054
:1069300008607CBD123280000CC500A030690030B8
:10694000EFF31080012181F3108804490A6822F0D6
:1069500000420A6080F310887047000040C500A024
:106960002DE9F041044620683B4D1FE090FAA0F16C
:10697000B1FA81F201219140421E1040E26891FA81
:10698000A1F3B3FA83F39B00DFF8D0C0DCF8907278
:106990000F269E40B74302FA03F31F43CCF89072D0
:1069A000072A25D02A6842EA014129600028DDD162
:1069B0002168A0684FF6FF7202EA0122C9B2B0F561
:1069C000807F1AD00023012819D000202E6811439F
:1069D0008E43184306432E606168022911D0206857
:1069E00000F05EF820681E494862606870B130E0CF
:1069F0002A6822EA01412960D8E71346E3E70846FE
:106A0000E4E70021206800F04BF8EBE7206888639A
:106A1000206901280CD0022804D003280ED00428B5
:106A200017D111E02068486388622068086210E08E
:106A3000206808638862206808620AE020680863AA
:106A4000C8622068086204E020684863C862206861
:106A500008620120BDE8F08150C500A000E000A060
:106A6000002001A00349096A884301D00020704733
:106A700001207047002001A010B5EFF31081012222
:106A800082F31088054B1A684FF6FF7404EA002061
:106A900082431A6081F3108810BD00005CC500A01D
:106AA00010B5C0B2EFF31082012383F31088054BB9
:106AB0001C688443002900D0002004431C6082F33A
:106AC000108810BD5CC500A00548016821F0404158
:106AD00041F0804101600248383000687047000092
:106AE0005CC500A0EFF31080012181F31088034AF8
:106AF0006FF48071116080F31088704744C500A066
:106B0000EFF31080012181F3108805490A6822F013
:106B100040420A6080F310880148383000687047AE
:106B20005CC500A003490A6822F4E06202430A60DF
:106B30007047000018C500A010B50E4B984201D157
:106B4000002000E0102081400B4BD3F810428C4312
:106B5000022A0DD000200443C3F81042D3F80802E3
:106B60008843012A00D000210843C3F8080210BD61
:106B70000846F0E7000001A000E000A02DE9F04188
:106B800004462168404D26E091FAA1F0B0FA80F267
:106B9000012090404A1E1140226990FAA0F3B3FAF6
:106BA00083F39B00394F3E684FF00F0C0CFA03FC47
:106BB00026EA0C0602FA03F31E433E60072A19D0A8
:106BC000EFF31082012383F310882B6843EA80508F
:106BD000286082F310880029D6D1E16820682A4E07
:106BE000361F29B34FF4F85202EA002201290DD0D2
:106BF00000210CE0EFF31082012383F310882B684F
:106C000023EA8050286082F31088E4E71146336855
:106C100000F01F0083433360EFF31080012383F300
:106C200010882B6893430B432B6080F3108804E09B
:106C3000316800F01F0001433160A168206800F056
:106C400027F8208862684FF0F85101EA00614FF49C
:106C5000F81303EA004082B1032A09D0336840EAFE
:106C60000104A343012A00D108460343336008E02E
:106C7000326808438243326003E0326808430243CB
:106C800032600120BDE8F08140C500A094E200A080
:106C900010B500F01F00012901D0002100E00146DD
:106CA000EFF31082012383F31088044B1C688443A4
:106CB0000C431C6082F3108810BD000040C500A08A
:106CC00001220021016041608160C1600161416178
:106CD0008161C161016241628162C1621046704797
:106CE000F0B50A68036823F00403134303608A685D
:106CF0008260CA68836A82620A69C36A03F07F435A
:106D00001343C3624A7D012A17D0026822F00802A9
:106D10000260CA7D012A15D0026822F010020260CA
:106D20004A7E012A13D0026822F0200202604A68DB
:106D300064258AB1012A28D092E0026842F0080254
:106D40000260E6E7026842F010020260E8E70268CB
:106D500042F020020260EAE70022C2600B7D8A68EE
:106D60005A43B2FBF5F20261002242618B7D8A68D0
:106D70005A43B2FBF5F282610022C2618A68097E41
:106D80004A43B2FBF5F101626AE00B7D8A7D9342D2
:106D900000D31A460C7E944200D32246C826934262
:106DA00015D28C6804FB02F75C43B7FBF6F7B4FB23
:106DB000F6F3FB1AC3608B680F7D03FB02F47B4381
:106DC000B4FBF6F4B3FBF6F32344036107E00023BE
:106DD000C3600C7D8B686343B3FBF5F303618C7D6B
:106DE000944215D28B6803FB02F76343B7FBF6F7B7
:106DF000B3FBF6F3FB1A43618B688F7D03FB02F450
:106E00007B43B4FBF6F4B3FBF6F32344836107E062
:106E1000002343618C7D8B686343B3FBF5F383618F
:106E20000C7E944214D28B6803FB02F56343B5FBDE
:106E3000F6F5B3FBF6F3EB1AC3618B68097E5A4390
:106E40004B43B2FBF6F2B3FBF6F11144016207E0EB
:106E50000022C2618A68097E4A43B2FBF5F10162F1
:106E6000416A21F0030141F002014162416A21F0CF
:106E70000C0141F004014162416A21F0300141F00E
:106E800020014162416A21F0C00141F040014162AC
:106E9000416A21F4407141F400714162416A21F478
:106EA000406141F4806141620120F0BD70B5FFF79F
:106EB00091F90446601C24D0FFF768F900EE100A2F
:106EC0009FED131AF8EE400A00EE104AB8EE400AA1
:106ED00020EE011A81EE200A10EE100A03F008F8E5
:106EE0000C4A536883B1D3E90463D2E90254721B9C
:106EF00063EB0403141A73EB010401D21046194624
:106F000070BD0020014670BD0020014670BD00002C
:106F1000002474493073003070B505462DED028BA6
:106F200082B00E460024FFF731F902F044FD41EC37
:106F3000180B2846314602F051FD53EC182B02F095
:106F400093FD9FED1C1B53EC112B02F07FFB9FED7B
:106F50001B1B53EC112B02F0D1FA02F0FFFC01468F
:106F60000120FFF705F9174D17E017A003C8CDE979
:106F700000011748006800F007001DF80060FEF7E8
:106F800089FA68686968091AB142FBD3FEF766FAA4
:106F90002046641CB0F57A7F07D2FFF729F9002854
:106FA000E3D0FFF717F9401CDFD002B0BDEC028B35
:106FB00070BD00000000000080842E410000000031
:106FC0000000E03F001000E04030101810200000EA
:106FD00004C500A07CB50024FFF710F90F4D17E0A1
:106FE0000F4803C8CDE900010E48006800F0070013
:106FF0001DF80060FEF74EFA68686968091AB14228
:10700000FBD3FEF72BFA2046641CB0F57A7F03D23F
:10701000FFF7EEF80028E3D17CBD0000001000E08F
:10702000C86F000104C500A0FDF72EFA14A0FBF7FD
:107030009BF814A0FBF798F822A0FBF795F831A075
:10704000FBF792F83FA0FBF78FF84EA0FBF78CF808
:107050005CA0FBF789F82BA0FBF786F869A0FBF78B
:1070600083F878A0FBF780F886A0FBF77DF805A0F1
:10707000FBF77AF8FCF72AFC92A0FBF775F8FEE71D
:107080000D0A00002A2A2A2A2A2A2A2A2A2A2A2AF1
:107090002A2A2A2A2A2A2A2A2A2A2A2A2A2A2A2A50
:1070A0002A2A2A2A2A2A2A2A2A2A2A2A2A2A2A2A40
:1070B0002A2A2A2A2A2A2A2A2A2A2A2A2A2A2A0D4D
:1070C0000A0000002A20202020202020202020202C
:1070D0002020202020202050574D5F4F7574707560
:1070E00074206578616D706C652E20202020202032
:1070F00020202020202020202020202020202A0D99
:107100000A0000002A2020202020202020202020EB
:10711000202020202020202020202020202020206F
:10712000202020202020202020202020202020205F
:1071300020202020202020202020202020202A0D58
:107140000A0000002A2020202020202020202020AB
:107150002020202020202020202050574D5F612813
:107160004D53494F412A2920202020202020202033
:1071700020202020202020202020202020202A0D18
:107180000A0000002A20202020202020202020206B
:107190002020202020202020202050574D5F6228D2
:1071A0004D53494F412A29202020202020202020F3
:1071B00020202020202020202020202020202A0DD8
:1071C0000A0000002A20202020202020202020202B
:1071D0002020202020202020202050574D5F632891
:1071E0004D53494F412A29202020202020202020B3
:1071F00020202020202020202020202020202A0D98
:107200000A0000002A20546869732073616D706C55
:107210006520636F64652077696C6C2073686F7795
:107220002050574D206F75747075742E20202020CB
:1072300020202020202020202020202020202A0D57
:107240000A0000002A20596F752063616E20757353
:1072500065206C6F67696320616E616C797A657215
:1072600020746F206765742050574D5F612F622F27
:1072700063207761766520202020202020202A0DA1
:107280000A0000002A206F6E204D53494F412A2FDB
:107290004D53494F412A2F4D53494F412A20202019
:1072A00020202020202020202020202020202020DE
:1072B00020202020202020202020202020202A0DD7
:1072C0000A0000000D0A54686973206578616D70CA
:1072D0006C652064656D6F20656E642E0D0A00007C
:1072E00010B571F405D410B101F01AFFFEE7BDE846
:1072F0001040FAF7A5BE00002DE9FF41044600202A
:10730000009001900290039021482249B0F1807FC3
:1073100002D9B0F1887F08D3C0F31300C1F3130181
:1073200000F060F821680843206000251A4F1B48D0
:10733000C61B10E007EB051110226846FBF73FF96A
:107340000198C0F313000299014400F04BF8216842
:10735000084320606D1CB5EB161FEBD31048C0F33B
:1073600013001049C1F3130100F03CF821680843F1
:1073700020600D48C0F313000C49C1F3130188428B
:1073800004D000F02FF8216808432060BDE8FF8199
:1073900000200001F4A10001A0A10001F0A1000162
:1073A00000C003300000043000B0033000C00330E0
:1073B00038B50B490091012808D04FF0FF34204622
:1073C000FDF7DBDE2046FDF7FADE38BD6846FFF745
:1073D00093FF0098FDF7D1DE0098FDF7F0DE38BD91
:1073E0000F00C03FF0B50246002000250023002614
:1073F0000024124F57F824C06544AA4201D2234604
:1074000003E0641CE4B20B2CF4D30024002257F8F0
:1074100022502C44A14201D8164603E0521CD2B29D
:107420000B2AF4D3032405E05A0004FA02F10843BE
:107430005B1CDBB2B342F7D9F0BD0000D0A0000165
:107440007CB504460D46002001900090694601A8D5
:107450006EF4CCD46EF420D505FB00F11CB9009875
:10746000441A04F180742046FEF7D4F808B10020D5
:107470007CBD09207CBD00002DE9FF5F07460D465D
:1074800016464A48007800280CD03DB12C882CB113
:1074900026B11FB14FF6FF7A574505D1052004B03C
:1074A000BDE8F09F0120FAE74FF00009A5F8009031
:1074B00003A93846FDF73CFC80465FEA08001FD070
:1074C000BDF80C20944219D33146FEF7E3F8834609
:1074D0000924082201A9A8F10800FDF77BFB082870
:1074E0000FD101A801F0EEFD58B1314601A801F01D
:1074F000F4FD30B1A5F800B0002402E0042400E05F
:107500000224022C50D1CDF80490CDF80890CDF88B
:1075100000906FF44040381802D0B02844D134E0D5
:1075200001A801F0B1F878BB9DF8040070B99DF88E
:10753000051059B99DF8061041B99DF8071029B9F1
:107540009DF8081011B99DF80910E9B1FF2813D171
:107550009DF80500FF280FD19DF80600FF280BD1EC
:107560009DF80700FF2807D19DF80800FF2803D1E8
:107570009DF80900FF2817D001983060BDF8080079
:10758000B0800620288000240EE0684601F06CF8E8
:1075900050B9BDF8000038B1504505D0BDF8000025
:1075A0003080022028800024204678E7C82380000D
:1075B00070B588B005460C46002C0AD006A907A86D
:1075C0006EF414D42C4E8DB1280504D0062008B0DA
:1075D00070BD0720FBE7069805EB043100F18070D1
:1075E000814201D8356008E00620F0E70699604244
:1075F00001EB003000F1807030604FF49E711F4845
:10760000FBF776F81E4D0020287030681D4900EB0E
:10761000043008606EF4F6D31B490870082204A9F0
:107620003068FDF7D7FA082810D018488169407AE9
:107630004FF48972CDE900200291154B15A24FF449
:107640000041002005F4AAD30920C0E708221D4903
:1076500004A8FAF769FF28B12046FEF7FDFE0028CE
:10766000B5D104E02046FEF777FF0028AFD1012016
:1076700028700020ABE70000CC238000D8328000C7
:10768000C8238000D0238000C9238000641F8000AD
:1076900070A00001523A353A25732C204C25642005
:1076A000666C61736820737461746520307825306E
:1076B00032582C206572726F72203078253038581D
:1076C0000D0A0000ACD5070010B5054C012120467D
:1076D000FFF7B6FE2046BDE810400121FFF768BF66
:1076E00000F00F012DE9FE4306460C461746FCF755
:1076F0002BFE2C48007878B37FB374B340F6EC705F
:1077000084422BD84EB3A6F57F40FF3826D002A97D
:107710003046FDF70DFB0546002D3DD00822694699
:10772000A5F10800FDF756FA684601F0CBFCC8B198
:10773000BDF808004FF40048A04221D13A46214646
:107740002846FFF739F878B117A24146002005F422
:1077500025D30020BDE8FE8302E0FFE70520F9E71E
:107760000120F7E70920F5E716A24146002005F4BD
:1077700015D33B4622463146284600F0E9FBE9E7AF
:107780001BA24146002005F409D33B462246314660
:10779000284600F0DDFBDDE73A4621463046FCF79F
:1077A00057FDD7E7C8238000523A353A6E766473A6
:1077B0005F70757428292073616D65206461746140
:1077C0000D0A0000523A353A6E7664735F70757434
:1077D0002829207265706C61636520646174612082
:1077E000776974682073616D65206C656E0D0A00A1
:1077F000523A353A6E7664735F7075742829207238
:1078000065706C6163652064617461207769746878
:107810002064696666206C656E0D0A0010B5012152
:107820000348FFF7C5FE002801D0FFF74DFF10BD4C
:1078300000F00F010220FDF7F5BC00002DE9F0413A
:1078400004460D4616461F4601F072F8384600F011
:1078500099FC3146284600F073F9284600F0C0F93B
:1078600000F014F80648074910F82420486962F32C
:10787000030064F34710486103480470BDE8F081D9
:107880006C9F0001101F80002469003010B5FDF7C7
:107890001CD90128FBD0BDE810401320FDF70C993E
:1078A00010B50549EB20086104490968C860034820
:1078B000FDF701DA10BD0000101F8000641F80007A
:1078C0007CB5464C2068000602D4206840061FD5CF
:1078D000206820F480502060206820F40060206040
:1078E000206840F040002060206840F480702060F4
:1078F000206820F040002060206840F08000206078
:10790000206840F400702060206820F08000206033
:10791000324840300168C1F3801121B130490A7802
:1079200042F004020A702F4901600020012341B295
:10793000002909DB01F01F0503FA05F24909890056
:1079400001F1E021C1F88022401CC0B22228EED310
:10795000002001F0EDFB00252846FCF781FD0146E3
:107960002846FCF787FD0120FFF722FDFFF756FFB1
:10797000642000F05DF900234FF4FA7201211846EB
:10798000FFF75CFF00F092F801F085F80020FBF7AC
:107990004BF8002001F084F813A003C8CDE90001E2
:1079A000206800F007001DF8004011484443FDF72F
:1079B00071FD104841684268521AA242FBD3FDF79C
:1079C0004DFDFCF737DE00F083FCFDF73FF90020AA
:1079D00000F036F9BDE87C40FCF73EB804C500A0D5
:1079E00000660030A0FEFFFF40301018102000009D
:1079F000A0860100001000E02DE9F04100242A4E8D
:107A0000DFF8A080274F08F17C0806F150053868A0
:107A1000C0F30170012833D004EB84007179B3798D
:107A200005EB8000194401EBC103C26803EB0111AF
:107A300002EB8102C260026902EB41010161D8F8E8
:107A40000000C00616D547F6122074F4E9D104EB05
:107A5000840005EB80004FF47A6101614900C16048
:107A600002218171418801F57A714180818801F597
:107A70007A718180641CE4B20C2CC8D3BDE8F0811B
:107A800004EB840005EB80007179B379C268194476
:107A9000C1EB411102EB4102C26002691144016174
:107AA000CDE7000050C500A03069003008B51A4984
:107AB000192000F059FD01F063F8FCF7C1FD1849E9
:107AC000164888621748C8621749086000F062FFCC
:107AD000FFF792FF68F40AD4144801781048503038
